ARM GAS  C:\Users\aupen\AppData\Local\Temp\cceqDgz4.s 			page 1


   1              		.syntax unified
   2              		.cpu cortex-m3
   3              		.fpu softvfp
   4              		.eabi_attribute 20, 1
   5              		.eabi_attribute 21, 1
   6              		.eabi_attribute 23, 3
   7              		.eabi_attribute 24, 1
   8              		.eabi_attribute 25, 1
   9              		.eabi_attribute 26, 1
  10              		.eabi_attribute 30, 4
  11              		.eabi_attribute 34, 1
  12              		.eabi_attribute 18, 4
  13              		.thumb
  14              		.syntax unified
  15              		.file	"CyLib.c"
  16              		.text
  17              	.Ltext0:
  18              		.cfi_sections	.debug_frame
  19              		.section	.text.CyIMO_SetTrimValue,"ax",%progbits
  20              		.align	1
  21              		.thumb
  22              		.thumb_func
  23              		.type	CyIMO_SetTrimValue, %function
  24              	CyIMO_SetTrimValue:
  25              	.LFB7:
  26              		.file 1 "Generated_Source\\PSoC5\\CyLib.c"
   1:Generated_Source\PSoC5/CyLib.c **** /***************************************************************************//**
   2:Generated_Source\PSoC5/CyLib.c **** * \file CyLib.c
   3:Generated_Source\PSoC5/CyLib.c **** * \version 5.60
   4:Generated_Source\PSoC5/CyLib.c **** *
   5:Generated_Source\PSoC5/CyLib.c **** * \brief Provides a system API for the clocking, interrupts and watchdog timer.
   6:Generated_Source\PSoC5/CyLib.c **** *
   7:Generated_Source\PSoC5/CyLib.c **** * \note Documentation of the API's in this file is located in the System
   8:Generated_Source\PSoC5/CyLib.c **** * Reference Guide provided with PSoC Creator.
   9:Generated_Source\PSoC5/CyLib.c **** *
  10:Generated_Source\PSoC5/CyLib.c **** ********************************************************************************
  11:Generated_Source\PSoC5/CyLib.c **** * \copyright
  12:Generated_Source\PSoC5/CyLib.c **** * Copyright 2008-2017, Cypress Semiconductor Corporation.  All rights reserved.
  13:Generated_Source\PSoC5/CyLib.c **** * You may use this file only in accordance with the license, terms, conditions,
  14:Generated_Source\PSoC5/CyLib.c **** * disclaimers, and limitations in the end user license agreement accompanying
  15:Generated_Source\PSoC5/CyLib.c **** * the software package with which this file was provided.
  16:Generated_Source\PSoC5/CyLib.c **** *******************************************************************************/
  17:Generated_Source\PSoC5/CyLib.c **** 
  18:Generated_Source\PSoC5/CyLib.c **** #include "CyLib.h"
  19:Generated_Source\PSoC5/CyLib.c **** 
  20:Generated_Source\PSoC5/CyLib.c **** 
  21:Generated_Source\PSoC5/CyLib.c **** /*******************************************************************************
  22:Generated_Source\PSoC5/CyLib.c **** * The CyResetStatus variable is used to obtain value of RESET_SR0 register after
  23:Generated_Source\PSoC5/CyLib.c **** * a device reset. It is set from initialize_psoc() at the early initialization
  24:Generated_Source\PSoC5/CyLib.c **** * stage. In case of IAR EW IDE, initialize_psoc() is executed before the data
  25:Generated_Source\PSoC5/CyLib.c **** * sections are initialized. To avoid zeroing, CyResetStatus should be placed
  26:Generated_Source\PSoC5/CyLib.c **** * to the .noinit section.
  27:Generated_Source\PSoC5/CyLib.c **** *******************************************************************************/
  28:Generated_Source\PSoC5/CyLib.c **** CY_NOINIT uint8 CYXDATA CyResetStatus;
  29:Generated_Source\PSoC5/CyLib.c **** 
  30:Generated_Source\PSoC5/CyLib.c **** 
  31:Generated_Source\PSoC5/CyLib.c **** /* Variable Vdda */
ARM GAS  C:\Users\aupen\AppData\Local\Temp\cceqDgz4.s 			page 2


  32:Generated_Source\PSoC5/CyLib.c **** #if(CYDEV_VARIABLE_VDDA == 1)
  33:Generated_Source\PSoC5/CyLib.c **** 
  34:Generated_Source\PSoC5/CyLib.c ****     uint8 CyScPumpEnabled = (uint8)(CYDEV_VDDA_MV < 2700);
  35:Generated_Source\PSoC5/CyLib.c **** 
  36:Generated_Source\PSoC5/CyLib.c **** #endif  /* (CYDEV_VARIABLE_VDDA == 1) */
  37:Generated_Source\PSoC5/CyLib.c **** 
  38:Generated_Source\PSoC5/CyLib.c **** 
  39:Generated_Source\PSoC5/CyLib.c **** /* Do not use these definitions directly in your application */
  40:Generated_Source\PSoC5/CyLib.c **** uint32 cydelay_freq_hz  = BCLK__BUS_CLK__HZ;
  41:Generated_Source\PSoC5/CyLib.c **** uint32 cydelay_freq_khz = (BCLK__BUS_CLK__HZ + 999u) / 1000u;
  42:Generated_Source\PSoC5/CyLib.c **** uint8  cydelay_freq_mhz = (uint8)((BCLK__BUS_CLK__HZ + 999999u) / 1000000u);
  43:Generated_Source\PSoC5/CyLib.c **** uint32 cydelay_32k_ms   = 32768u * ((BCLK__BUS_CLK__HZ + 999u) / 1000u);
  44:Generated_Source\PSoC5/CyLib.c **** 
  45:Generated_Source\PSoC5/CyLib.c **** 
  46:Generated_Source\PSoC5/CyLib.c **** /* Function Prototypes */
  47:Generated_Source\PSoC5/CyLib.c **** static uint8 CyUSB_PowerOnCheck(void)  ;
  48:Generated_Source\PSoC5/CyLib.c **** static void CyIMO_SetTrimValue(uint8 freq) ;
  49:Generated_Source\PSoC5/CyLib.c **** static void CyBusClk_Internal_SetDivider(uint16 divider);
  50:Generated_Source\PSoC5/CyLib.c **** 
  51:Generated_Source\PSoC5/CyLib.c **** #if(CY_PSOC5)
  52:Generated_Source\PSoC5/CyLib.c ****     static cySysTickCallback CySysTickCallbacks[CY_SYS_SYST_NUM_OF_CALLBACKS];
  53:Generated_Source\PSoC5/CyLib.c ****     static void CySysTickServiceCallbacks(void);
  54:Generated_Source\PSoC5/CyLib.c ****     uint32 CySysTickInitVar = 0u;
  55:Generated_Source\PSoC5/CyLib.c **** #endif  /* (CY_PSOC5) */
  56:Generated_Source\PSoC5/CyLib.c **** 
  57:Generated_Source\PSoC5/CyLib.c **** 
  58:Generated_Source\PSoC5/CyLib.c **** #if(CY_PSOC3)
  59:Generated_Source\PSoC5/CyLib.c ****     CY_ISR_PROTO(IntDefaultHandler);
  60:Generated_Source\PSoC5/CyLib.c **** #endif /* (CY_PSOC3) */
  61:Generated_Source\PSoC5/CyLib.c **** 
  62:Generated_Source\PSoC5/CyLib.c **** 
  63:Generated_Source\PSoC5/CyLib.c **** /*******************************************************************************
  64:Generated_Source\PSoC5/CyLib.c **** * Function Name: CyPLL_OUT_Start
  65:Generated_Source\PSoC5/CyLib.c **** ****************************************************************************//**
  66:Generated_Source\PSoC5/CyLib.c **** *
  67:Generated_Source\PSoC5/CyLib.c **** *   Enables the PLL.  Optionally waits for it to become stable.
  68:Generated_Source\PSoC5/CyLib.c **** *   Waits at least 250 us or until it is detected that the PLL is stable.
  69:Generated_Source\PSoC5/CyLib.c **** *
  70:Generated_Source\PSoC5/CyLib.c **** *   \param wait:
  71:Generated_Source\PSoC5/CyLib.c **** *    \param 0: Return immediately after configuration
  72:Generated_Source\PSoC5/CyLib.c **** *    \param 1: Wait for PLL lock or timeout.
  73:Generated_Source\PSoC5/CyLib.c **** *
  74:Generated_Source\PSoC5/CyLib.c **** * \return
  75:Generated_Source\PSoC5/CyLib.c **** *   Status
  76:Generated_Source\PSoC5/CyLib.c **** *    CYRET_SUCCESS - Completed successfully
  77:Generated_Source\PSoC5/CyLib.c **** *    CYRET_TIMEOUT - Timeout occurred without detecting a stable clock.
  78:Generated_Source\PSoC5/CyLib.c **** *     If the input source of the clock is jittery, then the lock indication
  79:Generated_Source\PSoC5/CyLib.c **** *     may not occur.  However, after the timeout has expired the generated PLL
  80:Generated_Source\PSoC5/CyLib.c **** *     clock can still be used.
  81:Generated_Source\PSoC5/CyLib.c **** *
  82:Generated_Source\PSoC5/CyLib.c **** * \sideeffect
  83:Generated_Source\PSoC5/CyLib.c **** *  If wait is enabled: This function uses the Fast Time Wheel to time the wait.
  84:Generated_Source\PSoC5/CyLib.c **** *  Any other use of the Fast Time Wheel will be stopped during the period of
  85:Generated_Source\PSoC5/CyLib.c **** *  this function and then restored. This function also uses the 100 KHz ILO.
  86:Generated_Source\PSoC5/CyLib.c **** *  If not enabled, this function will enable the 100 KHz ILO for the period of
  87:Generated_Source\PSoC5/CyLib.c **** *  this function.
  88:Generated_Source\PSoC5/CyLib.c **** *
ARM GAS  C:\Users\aupen\AppData\Local\Temp\cceqDgz4.s 			page 3


  89:Generated_Source\PSoC5/CyLib.c **** *  No changes to the setup of the ILO, Fast Time Wheel, Central Time Wheel or
  90:Generated_Source\PSoC5/CyLib.c **** *  Once Per Second interrupt may be made by interrupt routines during the period
  91:Generated_Source\PSoC5/CyLib.c **** *  of this function execution. The current operation of the ILO, Central Time
  92:Generated_Source\PSoC5/CyLib.c **** *  Wheel and Once Per Second interrupt are maintained during the operation of
  93:Generated_Source\PSoC5/CyLib.c **** *  this function provided the reading of the Power Manager Interrupt Status
  94:Generated_Source\PSoC5/CyLib.c **** *  Register is only done using the CyPmReadStatus() function.
  95:Generated_Source\PSoC5/CyLib.c **** *
  96:Generated_Source\PSoC5/CyLib.c **** *******************************************************************************/
  97:Generated_Source\PSoC5/CyLib.c **** cystatus CyPLL_OUT_Start(uint8 wait) 
  98:Generated_Source\PSoC5/CyLib.c **** {
  99:Generated_Source\PSoC5/CyLib.c ****     cystatus status = CYRET_SUCCESS;
 100:Generated_Source\PSoC5/CyLib.c **** 
 101:Generated_Source\PSoC5/CyLib.c ****     uint8 iloEnableState;
 102:Generated_Source\PSoC5/CyLib.c ****     uint8 pmTwCfg0State;
 103:Generated_Source\PSoC5/CyLib.c ****     uint8 pmTwCfg2State;
 104:Generated_Source\PSoC5/CyLib.c **** 
 105:Generated_Source\PSoC5/CyLib.c **** 
 106:Generated_Source\PSoC5/CyLib.c ****     /* Enables PLL circuit  */
 107:Generated_Source\PSoC5/CyLib.c ****     CY_CLK_PLL_CFG0_REG |= CY_CLK_PLL_ENABLE;
 108:Generated_Source\PSoC5/CyLib.c **** 
 109:Generated_Source\PSoC5/CyLib.c ****     if(wait != 0u)
 110:Generated_Source\PSoC5/CyLib.c ****     {
 111:Generated_Source\PSoC5/CyLib.c ****         /* Save 100 KHz ILO, FTW interval, enable and interrupt enable */
 112:Generated_Source\PSoC5/CyLib.c ****         iloEnableState = CY_LIB_SLOWCLK_ILO_CR0_REG & CY_LIB_SLOWCLK_ILO_CR0_EN_100KHZ;
 113:Generated_Source\PSoC5/CyLib.c ****         pmTwCfg0State = CY_LIB_PM_TW_CFG0_REG;
 114:Generated_Source\PSoC5/CyLib.c ****         pmTwCfg2State = CY_LIB_PM_TW_CFG2_REG;
 115:Generated_Source\PSoC5/CyLib.c **** 
 116:Generated_Source\PSoC5/CyLib.c ****         CyPmFtwSetInterval(CY_CLK_PLL_FTW_INTERVAL);
 117:Generated_Source\PSoC5/CyLib.c **** 
 118:Generated_Source\PSoC5/CyLib.c ****         status = CYRET_TIMEOUT;
 119:Generated_Source\PSoC5/CyLib.c **** 
 120:Generated_Source\PSoC5/CyLib.c ****         while(0u == (CY_PM_FTW_INT & CyPmReadStatus(CY_PM_FTW_INT)))
 121:Generated_Source\PSoC5/CyLib.c ****         {
 122:Generated_Source\PSoC5/CyLib.c ****             /* Wait for interrupt status */
 123:Generated_Source\PSoC5/CyLib.c ****             if(0u != (CY_CLK_PLL_SR_REG & CY_CLK_PLL_LOCK_STATUS))
 124:Generated_Source\PSoC5/CyLib.c ****             {
 125:Generated_Source\PSoC5/CyLib.c ****                 if(0u != (CY_CLK_PLL_SR_REG & CY_CLK_PLL_LOCK_STATUS))
 126:Generated_Source\PSoC5/CyLib.c ****                 {
 127:Generated_Source\PSoC5/CyLib.c ****                     status = CYRET_SUCCESS;
 128:Generated_Source\PSoC5/CyLib.c ****                     break;
 129:Generated_Source\PSoC5/CyLib.c ****                 }
 130:Generated_Source\PSoC5/CyLib.c ****             }
 131:Generated_Source\PSoC5/CyLib.c ****         }
 132:Generated_Source\PSoC5/CyLib.c **** 
 133:Generated_Source\PSoC5/CyLib.c ****         /* Restore 100 KHz ILO, FTW interval, enable and interrupt enable */
 134:Generated_Source\PSoC5/CyLib.c ****         if(0u == iloEnableState)
 135:Generated_Source\PSoC5/CyLib.c ****         {
 136:Generated_Source\PSoC5/CyLib.c ****             CyILO_Stop100K();
 137:Generated_Source\PSoC5/CyLib.c ****         }
 138:Generated_Source\PSoC5/CyLib.c **** 
 139:Generated_Source\PSoC5/CyLib.c ****         CY_LIB_PM_TW_CFG0_REG = pmTwCfg0State;
 140:Generated_Source\PSoC5/CyLib.c ****         CY_LIB_PM_TW_CFG2_REG = pmTwCfg2State;
 141:Generated_Source\PSoC5/CyLib.c ****     }
 142:Generated_Source\PSoC5/CyLib.c **** 
 143:Generated_Source\PSoC5/CyLib.c ****     return(status);
 144:Generated_Source\PSoC5/CyLib.c **** }
 145:Generated_Source\PSoC5/CyLib.c **** 
ARM GAS  C:\Users\aupen\AppData\Local\Temp\cceqDgz4.s 			page 4


 146:Generated_Source\PSoC5/CyLib.c **** 
 147:Generated_Source\PSoC5/CyLib.c **** /*******************************************************************************
 148:Generated_Source\PSoC5/CyLib.c **** * Function Name: CyPLL_OUT_Stop
 149:Generated_Source\PSoC5/CyLib.c **** ****************************************************************************//**
 150:Generated_Source\PSoC5/CyLib.c **** *
 151:Generated_Source\PSoC5/CyLib.c **** *  Disables the PLL.
 152:Generated_Source\PSoC5/CyLib.c **** *
 153:Generated_Source\PSoC5/CyLib.c **** *******************************************************************************/
 154:Generated_Source\PSoC5/CyLib.c **** void CyPLL_OUT_Stop(void) 
 155:Generated_Source\PSoC5/CyLib.c **** {
 156:Generated_Source\PSoC5/CyLib.c ****     CY_CLK_PLL_CFG0_REG &= ((uint8)(~CY_CLK_PLL_ENABLE));
 157:Generated_Source\PSoC5/CyLib.c **** }
 158:Generated_Source\PSoC5/CyLib.c **** 
 159:Generated_Source\PSoC5/CyLib.c **** 
 160:Generated_Source\PSoC5/CyLib.c **** /*******************************************************************************
 161:Generated_Source\PSoC5/CyLib.c **** * Function Name: CyPLL_OUT_SetPQ
 162:Generated_Source\PSoC5/CyLib.c **** ****************************************************************************//**
 163:Generated_Source\PSoC5/CyLib.c **** *
 164:Generated_Source\PSoC5/CyLib.c **** *  Sets the P and Q dividers and the charge pump current.
 165:Generated_Source\PSoC5/CyLib.c **** *  The Frequency Out will be P/Q * Frequency In.
 166:Generated_Source\PSoC5/CyLib.c **** *  The PLL must be disabled before calling this function.
 167:Generated_Source\PSoC5/CyLib.c **** *
 168:Generated_Source\PSoC5/CyLib.c **** *  \param uint8 pDiv:
 169:Generated_Source\PSoC5/CyLib.c **** *   Valid range [8 - 255].
 170:Generated_Source\PSoC5/CyLib.c **** *
 171:Generated_Source\PSoC5/CyLib.c **** *  \param uint8 qDiv:
 172:Generated_Source\PSoC5/CyLib.c **** *   Valid range [1 - 16]. Input Frequency / Q must be in range of 1 to 3 MHz.
 173:Generated_Source\PSoC5/CyLib.c **** 
 174:Generated_Source\PSoC5/CyLib.c **** *  \param uint8 current:
 175:Generated_Source\PSoC5/CyLib.c **** *   Valid range [1 - 7]. Charge pump current in uA. Refer to the device TRM and
 176:Generated_Source\PSoC5/CyLib.c **** *   datasheet for more information.
 177:Generated_Source\PSoC5/CyLib.c **** *
 178:Generated_Source\PSoC5/CyLib.c **** * \sideeffect
 179:Generated_Source\PSoC5/CyLib.c **** *  If this function execution results in the CPU clock frequency increasing,
 180:Generated_Source\PSoC5/CyLib.c **** *  then the number of clock cycles the cache will wait before it samples data
 181:Generated_Source\PSoC5/CyLib.c **** *  coming back from the Flash must be adjusted by calling
 182:Generated_Source\PSoC5/CyLib.c **** *  CyFlash_SetWaitCycles() with an appropriate parameter. It can be optionally
 183:Generated_Source\PSoC5/CyLib.c **** *  called if the CPU clock frequency is lowered in order to improve the CPU
 184:Generated_Source\PSoC5/CyLib.c **** *  performance. See CyFlash_SetWaitCycles() description for more information.
 185:Generated_Source\PSoC5/CyLib.c **** *
 186:Generated_Source\PSoC5/CyLib.c **** *******************************************************************************/
 187:Generated_Source\PSoC5/CyLib.c **** void CyPLL_OUT_SetPQ(uint8 pDiv, uint8 qDiv, uint8 current) 
 188:Generated_Source\PSoC5/CyLib.c **** {
 189:Generated_Source\PSoC5/CyLib.c ****     /* Halt CPU in debug mode if PLL is enabled */
 190:Generated_Source\PSoC5/CyLib.c ****     CYASSERT(0u == (CY_CLK_PLL_CFG0_REG & CY_CLK_PLL_ENABLE));
 191:Generated_Source\PSoC5/CyLib.c **** 
 192:Generated_Source\PSoC5/CyLib.c ****     if((pDiv    >= CY_CLK_PLL_MIN_P_VALUE  ) &&
 193:Generated_Source\PSoC5/CyLib.c ****        (qDiv    <= CY_CLK_PLL_MAX_Q_VALUE  ) && (qDiv    >= CY_CLK_PLL_MIN_Q_VALUE  ) &&
 194:Generated_Source\PSoC5/CyLib.c ****        (current >= CY_CLK_PLL_MIN_CUR_VALUE) && (current <= CY_CLK_PLL_MAX_CUR_VALUE))
 195:Generated_Source\PSoC5/CyLib.c ****     {
 196:Generated_Source\PSoC5/CyLib.c ****         /* Set new values */
 197:Generated_Source\PSoC5/CyLib.c ****         CY_CLK_PLL_P_REG = pDiv;
 198:Generated_Source\PSoC5/CyLib.c ****         CY_CLK_PLL_Q_REG = ((uint8)(qDiv - 1u));
 199:Generated_Source\PSoC5/CyLib.c ****         CY_CLK_PLL_CFG1_REG = (CY_CLK_PLL_CFG1_REG & CY_CLK_PLL_CURRENT_MASK) |
 200:Generated_Source\PSoC5/CyLib.c ****                                 ((uint8)(((uint8)(current - 1u)) << CY_CLK_PLL_CURRENT_POSITION));
 201:Generated_Source\PSoC5/CyLib.c ****     }
 202:Generated_Source\PSoC5/CyLib.c ****     else
ARM GAS  C:\Users\aupen\AppData\Local\Temp\cceqDgz4.s 			page 5


 203:Generated_Source\PSoC5/CyLib.c ****     {
 204:Generated_Source\PSoC5/CyLib.c ****         /***********************************************************************
 205:Generated_Source\PSoC5/CyLib.c ****         * Halt CPU in debug mode if:
 206:Generated_Source\PSoC5/CyLib.c ****         * - P divider is less than required
 207:Generated_Source\PSoC5/CyLib.c ****         * - Q divider is out of range
 208:Generated_Source\PSoC5/CyLib.c ****         * - pump current is out of range
 209:Generated_Source\PSoC5/CyLib.c ****         ***********************************************************************/
 210:Generated_Source\PSoC5/CyLib.c ****         CYASSERT(0u != 0u);
 211:Generated_Source\PSoC5/CyLib.c ****     }
 212:Generated_Source\PSoC5/CyLib.c **** 
 213:Generated_Source\PSoC5/CyLib.c **** }
 214:Generated_Source\PSoC5/CyLib.c **** 
 215:Generated_Source\PSoC5/CyLib.c **** 
 216:Generated_Source\PSoC5/CyLib.c **** /*******************************************************************************
 217:Generated_Source\PSoC5/CyLib.c **** * Function Name: CyPLL_OUT_SetSource
 218:Generated_Source\PSoC5/CyLib.c **** ****************************************************************************//**
 219:Generated_Source\PSoC5/CyLib.c **** *
 220:Generated_Source\PSoC5/CyLib.c **** *  Sets the input clock source to the PLL. The PLL must be disabled before
 221:Generated_Source\PSoC5/CyLib.c **** *  calling this function.
 222:Generated_Source\PSoC5/CyLib.c **** *
 223:Generated_Source\PSoC5/CyLib.c **** *   \param source: One of the three available PLL clock sources
 224:Generated_Source\PSoC5/CyLib.c **** *    \param CY_PLL_SOURCE_IMO  :   IMO
 225:Generated_Source\PSoC5/CyLib.c **** *    \param CY_PLL_SOURCE_XTAL :   MHz Crystal
 226:Generated_Source\PSoC5/CyLib.c **** *    \param CY_PLL_SOURCE_DSI  :   DSI
 227:Generated_Source\PSoC5/CyLib.c **** *
 228:Generated_Source\PSoC5/CyLib.c **** * \sideeffect
 229:Generated_Source\PSoC5/CyLib.c **** *  If this function execution results in the CPU clock frequency increasing,
 230:Generated_Source\PSoC5/CyLib.c **** *  then the number of clock cycles the cache will wait before it samples data
 231:Generated_Source\PSoC5/CyLib.c **** *  coming back from the3 Flash must be adjusted by calling
 232:Generated_Source\PSoC5/CyLib.c **** *  CyFlash_SetWaitCycles() with an appropriate parameter. It can be optionally
 233:Generated_Source\PSoC5/CyLib.c **** *  called if the CPU clock frequency is lowered in order to improve the CPU
 234:Generated_Source\PSoC5/CyLib.c **** *  performance. See CyFlash_SetWaitCycles() description for more information.
 235:Generated_Source\PSoC5/CyLib.c **** *
 236:Generated_Source\PSoC5/CyLib.c **** *******************************************************************************/
 237:Generated_Source\PSoC5/CyLib.c **** void CyPLL_OUT_SetSource(uint8 source) 
 238:Generated_Source\PSoC5/CyLib.c **** {
 239:Generated_Source\PSoC5/CyLib.c ****     /* Halt CPU in debug mode if PLL is enabled */
 240:Generated_Source\PSoC5/CyLib.c ****     CYASSERT(0u == (CY_CLK_PLL_CFG0_REG & CY_CLK_PLL_ENABLE));
 241:Generated_Source\PSoC5/CyLib.c **** 
 242:Generated_Source\PSoC5/CyLib.c ****     switch(source)
 243:Generated_Source\PSoC5/CyLib.c ****     {
 244:Generated_Source\PSoC5/CyLib.c ****         case CY_PLL_SOURCE_IMO:
 245:Generated_Source\PSoC5/CyLib.c ****         case CY_PLL_SOURCE_XTAL:
 246:Generated_Source\PSoC5/CyLib.c ****         case CY_PLL_SOURCE_DSI:
 247:Generated_Source\PSoC5/CyLib.c ****             CY_LIB_CLKDIST_CR_REG = ((CY_LIB_CLKDIST_CR_REG & CY_LIB_CLKDIST_CR_PLL_SCR_MASK) | sou
 248:Generated_Source\PSoC5/CyLib.c ****         break;
 249:Generated_Source\PSoC5/CyLib.c **** 
 250:Generated_Source\PSoC5/CyLib.c ****         default:
 251:Generated_Source\PSoC5/CyLib.c ****             CYASSERT(0u != 0u);
 252:Generated_Source\PSoC5/CyLib.c ****         break;
 253:Generated_Source\PSoC5/CyLib.c ****     }
 254:Generated_Source\PSoC5/CyLib.c **** }
 255:Generated_Source\PSoC5/CyLib.c **** 
 256:Generated_Source\PSoC5/CyLib.c **** 
 257:Generated_Source\PSoC5/CyLib.c **** /*******************************************************************************
 258:Generated_Source\PSoC5/CyLib.c **** * Function Name: CyIMO_Start
 259:Generated_Source\PSoC5/CyLib.c **** ****************************************************************************//**
ARM GAS  C:\Users\aupen\AppData\Local\Temp\cceqDgz4.s 			page 6


 260:Generated_Source\PSoC5/CyLib.c **** *
 261:Generated_Source\PSoC5/CyLib.c **** *  Enables the IMO. Optionally waits at least 6 us for it to settle.
 262:Generated_Source\PSoC5/CyLib.c **** *
 263:Generated_Source\PSoC5/CyLib.c **** *  \param uint8 wait:
 264:Generated_Source\PSoC5/CyLib.c **** *   \param 0: Return immediately after configuration
 265:Generated_Source\PSoC5/CyLib.c **** *   \param 1: Wait for at least 6 us for the IMO to settle.
 266:Generated_Source\PSoC5/CyLib.c **** *
 267:Generated_Source\PSoC5/CyLib.c **** * \sideeffect
 268:Generated_Source\PSoC5/CyLib.c **** *  If wait is enabled: This function uses the Fast Time Wheel to time the wait.
 269:Generated_Source\PSoC5/CyLib.c **** *  Any other use of the Fast Time Wheel will be stopped during the period of
 270:Generated_Source\PSoC5/CyLib.c **** *  this function and then restored. This function also uses the 100 KHz ILO.
 271:Generated_Source\PSoC5/CyLib.c **** *  If not enabled, this function will enable the 100 KHz ILO for the period of
 272:Generated_Source\PSoC5/CyLib.c **** *  this function.
 273:Generated_Source\PSoC5/CyLib.c **** *
 274:Generated_Source\PSoC5/CyLib.c **** *  No changes to the setup of the ILO, Fast Time Wheel, Central Time Wheel or
 275:Generated_Source\PSoC5/CyLib.c **** *  Once Per Second interrupt may be made by interrupt routines during the period
 276:Generated_Source\PSoC5/CyLib.c **** *  of this function execution. The current operation of the ILO, Central Time
 277:Generated_Source\PSoC5/CyLib.c **** *  Wheel and Once Per Second interrupt are maintained during the operation of
 278:Generated_Source\PSoC5/CyLib.c **** *  this function provided the reading of the Power Manager Interrupt Status
 279:Generated_Source\PSoC5/CyLib.c **** *  Register is only done using the CyPmReadStatus() function.
 280:Generated_Source\PSoC5/CyLib.c **** *
 281:Generated_Source\PSoC5/CyLib.c **** *******************************************************************************/
 282:Generated_Source\PSoC5/CyLib.c **** void CyIMO_Start(uint8 wait) 
 283:Generated_Source\PSoC5/CyLib.c **** {
 284:Generated_Source\PSoC5/CyLib.c ****     uint8 pmFtwCfg2Reg;
 285:Generated_Source\PSoC5/CyLib.c ****     uint8 pmFtwCfg0Reg;
 286:Generated_Source\PSoC5/CyLib.c ****     uint8 ilo100KhzEnable;
 287:Generated_Source\PSoC5/CyLib.c **** 
 288:Generated_Source\PSoC5/CyLib.c **** 
 289:Generated_Source\PSoC5/CyLib.c ****     CY_LIB_PM_ACT_CFG0_REG  |= CY_LIB_PM_ACT_CFG0_IMO_EN;
 290:Generated_Source\PSoC5/CyLib.c ****     CY_LIB_PM_STBY_CFG0_REG |= CY_LIB_PM_STBY_CFG0_IMO_EN;
 291:Generated_Source\PSoC5/CyLib.c **** 
 292:Generated_Source\PSoC5/CyLib.c ****     if(0u != wait)
 293:Generated_Source\PSoC5/CyLib.c ****     {
 294:Generated_Source\PSoC5/CyLib.c ****         /* Need to turn on 100KHz ILO if it happens to not already be running.*/
 295:Generated_Source\PSoC5/CyLib.c ****         ilo100KhzEnable = CY_LIB_SLOWCLK_ILO_CR0_REG & CY_LIB_SLOWCLK_ILO_CR0_EN_100KHZ;
 296:Generated_Source\PSoC5/CyLib.c ****         pmFtwCfg0Reg = CY_LIB_PM_TW_CFG0_REG;
 297:Generated_Source\PSoC5/CyLib.c ****         pmFtwCfg2Reg = CY_LIB_PM_TW_CFG2_REG;
 298:Generated_Source\PSoC5/CyLib.c **** 
 299:Generated_Source\PSoC5/CyLib.c ****         CyPmFtwSetInterval(CY_LIB_CLK_IMO_FTW_TIMEOUT);
 300:Generated_Source\PSoC5/CyLib.c **** 
 301:Generated_Source\PSoC5/CyLib.c ****         while (0u == (CY_PM_FTW_INT & CyPmReadStatus(CY_PM_FTW_INT)))
 302:Generated_Source\PSoC5/CyLib.c ****         {
 303:Generated_Source\PSoC5/CyLib.c ****             /* Wait for interrupt status */
 304:Generated_Source\PSoC5/CyLib.c ****         }
 305:Generated_Source\PSoC5/CyLib.c **** 
 306:Generated_Source\PSoC5/CyLib.c ****         if(0u == ilo100KhzEnable)
 307:Generated_Source\PSoC5/CyLib.c ****         {
 308:Generated_Source\PSoC5/CyLib.c ****             CyILO_Stop100K();
 309:Generated_Source\PSoC5/CyLib.c ****         }
 310:Generated_Source\PSoC5/CyLib.c **** 
 311:Generated_Source\PSoC5/CyLib.c ****         CY_LIB_PM_TW_CFG0_REG = pmFtwCfg0Reg;
 312:Generated_Source\PSoC5/CyLib.c ****         CY_LIB_PM_TW_CFG2_REG = pmFtwCfg2Reg;
 313:Generated_Source\PSoC5/CyLib.c ****     }
 314:Generated_Source\PSoC5/CyLib.c **** }
 315:Generated_Source\PSoC5/CyLib.c **** 
 316:Generated_Source\PSoC5/CyLib.c **** 
ARM GAS  C:\Users\aupen\AppData\Local\Temp\cceqDgz4.s 			page 7


 317:Generated_Source\PSoC5/CyLib.c **** /*******************************************************************************
 318:Generated_Source\PSoC5/CyLib.c **** * Function Name: CyIMO_Stop
 319:Generated_Source\PSoC5/CyLib.c **** ****************************************************************************//**
 320:Generated_Source\PSoC5/CyLib.c **** *
 321:Generated_Source\PSoC5/CyLib.c **** *   Disables the IMO.
 322:Generated_Source\PSoC5/CyLib.c **** *
 323:Generated_Source\PSoC5/CyLib.c **** *******************************************************************************/
 324:Generated_Source\PSoC5/CyLib.c **** void CyIMO_Stop(void) 
 325:Generated_Source\PSoC5/CyLib.c **** {
 326:Generated_Source\PSoC5/CyLib.c ****     CY_LIB_PM_ACT_CFG0_REG  &= ((uint8) (~CY_LIB_PM_ACT_CFG0_IMO_EN));
 327:Generated_Source\PSoC5/CyLib.c ****     CY_LIB_PM_STBY_CFG0_REG &= ((uint8) (~CY_LIB_PM_STBY_CFG0_IMO_EN));
 328:Generated_Source\PSoC5/CyLib.c **** }
 329:Generated_Source\PSoC5/CyLib.c **** 
 330:Generated_Source\PSoC5/CyLib.c **** 
 331:Generated_Source\PSoC5/CyLib.c **** /*******************************************************************************
 332:Generated_Source\PSoC5/CyLib.c **** * Function Name: CyUSB_PowerOnCheck
 333:Generated_Source\PSoC5/CyLib.c **** ****************************************************************************//**
 334:Generated_Source\PSoC5/CyLib.c **** *
 335:Generated_Source\PSoC5/CyLib.c **** *  Returns the USB power status value. A private function to cy_boot.
 336:Generated_Source\PSoC5/CyLib.c **** *
 337:Generated_Source\PSoC5/CyLib.c **** * \return
 338:Generated_Source\PSoC5/CyLib.c **** *   uint8: one if the USB is enabled, 0 if not enabled.
 339:Generated_Source\PSoC5/CyLib.c **** *
 340:Generated_Source\PSoC5/CyLib.c **** *******************************************************************************/
 341:Generated_Source\PSoC5/CyLib.c **** static uint8 CyUSB_PowerOnCheck(void)  
 342:Generated_Source\PSoC5/CyLib.c **** {
 343:Generated_Source\PSoC5/CyLib.c ****     uint8 poweredOn = 0u;
 344:Generated_Source\PSoC5/CyLib.c **** 
 345:Generated_Source\PSoC5/CyLib.c ****     /* Check whether device is in Active or AltActive and if USB is powered on */
 346:Generated_Source\PSoC5/CyLib.c ****     if((((CY_PM_MODE_CSR_REG & CY_PM_MODE_CSR_MASK) == CY_PM_MODE_CSR_ACTIVE ) &&
 347:Generated_Source\PSoC5/CyLib.c ****        (0u != (CY_LIB_PM_ACT_CFG5_REG & CY_ACT_USB_ENABLED     )))  ||
 348:Generated_Source\PSoC5/CyLib.c ****        (((CY_PM_MODE_CSR_REG & CY_PM_MODE_CSR_MASK) == CY_PM_MODE_CSR_ALT_ACT) &&
 349:Generated_Source\PSoC5/CyLib.c ****        (0u != (CY_LIB_PM_STBY_CFG5_REG & CY_ALT_ACT_USB_ENABLED))))
 350:Generated_Source\PSoC5/CyLib.c ****     {
 351:Generated_Source\PSoC5/CyLib.c ****         poweredOn = 1u;
 352:Generated_Source\PSoC5/CyLib.c ****     }
 353:Generated_Source\PSoC5/CyLib.c **** 
 354:Generated_Source\PSoC5/CyLib.c ****     return (poweredOn);
 355:Generated_Source\PSoC5/CyLib.c **** }
 356:Generated_Source\PSoC5/CyLib.c **** 
 357:Generated_Source\PSoC5/CyLib.c **** 
 358:Generated_Source\PSoC5/CyLib.c **** /*******************************************************************************
 359:Generated_Source\PSoC5/CyLib.c **** * Function Name: CyIMO_SetTrimValue
 360:Generated_Source\PSoC5/CyLib.c **** ****************************************************************************//**
 361:Generated_Source\PSoC5/CyLib.c **** *
 362:Generated_Source\PSoC5/CyLib.c **** *  Sets the IMO factory trim values.
 363:Generated_Source\PSoC5/CyLib.c **** *
 364:Generated_Source\PSoC5/CyLib.c **** *  uint8 freq - frequency for which trims must be set
 365:Generated_Source\PSoC5/CyLib.c **** *
 366:Generated_Source\PSoC5/CyLib.c **** *******************************************************************************/
 367:Generated_Source\PSoC5/CyLib.c **** static void CyIMO_SetTrimValue(uint8 freq) 
 368:Generated_Source\PSoC5/CyLib.c **** {
  27              		.loc 1 368 0
  28              		.cfi_startproc
  29              		@ args = 0, pretend = 0, frame = 0
  30              		@ frame_needed = 0, uses_anonymous_args = 0
  31              		@ link register save eliminated.
ARM GAS  C:\Users\aupen\AppData\Local\Temp\cceqDgz4.s 			page 8


  32              	.LVL0:
  33              	.LBB16:
  34              	.LBB17:
 346:Generated_Source\PSoC5/CyLib.c ****        (0u != (CY_LIB_PM_ACT_CFG5_REG & CY_ACT_USB_ENABLED     )))  ||
  35              		.loc 1 346 0
  36 0000 204B     		ldr	r3, .L19
  37 0002 1A78     		ldrb	r2, [r3]	@ zero_extendqisi2
  38 0004 5107     		lsls	r1, r2, #29
  39 0006 03D1     		bne	.L2
 347:Generated_Source\PSoC5/CyLib.c ****        (((CY_PM_MODE_CSR_REG & CY_PM_MODE_CSR_MASK) == CY_PM_MODE_CSR_ALT_ACT) &&
  40              		.loc 1 347 0
  41 0008 1F4A     		ldr	r2, .L19+4
  42 000a 1278     		ldrb	r2, [r2]	@ zero_extendqisi2
 346:Generated_Source\PSoC5/CyLib.c ****        (0u != (CY_LIB_PM_ACT_CFG5_REG & CY_ACT_USB_ENABLED     )))  ||
  43              		.loc 1 346 0
  44 000c D207     		lsls	r2, r2, #31
  45 000e 31D4     		bmi	.L3
  46              	.L2:
 348:Generated_Source\PSoC5/CyLib.c ****        (0u != (CY_LIB_PM_STBY_CFG5_REG & CY_ALT_ACT_USB_ENABLED))))
  47              		.loc 1 348 0
  48 0010 1B78     		ldrb	r3, [r3]	@ zero_extendqisi2
 347:Generated_Source\PSoC5/CyLib.c ****        (((CY_PM_MODE_CSR_REG & CY_PM_MODE_CSR_MASK) == CY_PM_MODE_CSR_ALT_ACT) &&
  49              		.loc 1 347 0
  50 0012 03F00703 		and	r3, r3, #7
  51 0016 012B     		cmp	r3, #1
  52 0018 05D1     		bne	.L15
 349:Generated_Source\PSoC5/CyLib.c ****     {
  53              		.loc 1 349 0
  54 001a 1C4B     		ldr	r3, .L19+8
  55 001c 1B78     		ldrb	r3, [r3]	@ zero_extendqisi2
 348:Generated_Source\PSoC5/CyLib.c ****        (0u != (CY_LIB_PM_STBY_CFG5_REG & CY_ALT_ACT_USB_ENABLED))))
  56              		.loc 1 348 0
  57 001e 13F00103 		ands	r3, r3, #1
  58 0022 27D1     		bne	.L3
  59 0024 00E0     		b	.L4
  60              	.L15:
 347:Generated_Source\PSoC5/CyLib.c ****        (((CY_PM_MODE_CSR_REG & CY_PM_MODE_CSR_MASK) == CY_PM_MODE_CSR_ALT_ACT) &&
  61              		.loc 1 347 0
  62 0026 0023     		movs	r3, #0
  63              	.LVL1:
  64              	.L4:
  65              	.LBE17:
  66              	.LBE16:
 369:Generated_Source\PSoC5/CyLib.c ****     uint8 usbPowerOn = CyUSB_PowerOnCheck();
 370:Generated_Source\PSoC5/CyLib.c **** 
 371:Generated_Source\PSoC5/CyLib.c ****     /* If USB is powered */
 372:Generated_Source\PSoC5/CyLib.c ****     if(usbPowerOn == 1u)
 373:Generated_Source\PSoC5/CyLib.c ****     {
 374:Generated_Source\PSoC5/CyLib.c ****         /* Unlock USB write */
 375:Generated_Source\PSoC5/CyLib.c ****         CY_LIB_USB_CR1_REG &= ((uint8)(~CY_LIB_USB_CLK_EN));
 376:Generated_Source\PSoC5/CyLib.c ****     }
 377:Generated_Source\PSoC5/CyLib.c ****     switch(freq)
  67              		.loc 1 377 0
  68 0028 0828     		cmp	r0, #8
  69 002a 2AD8     		bhi	.L1
  70 002c DFE800F0 		tbb	[pc, r0]
  71              	.L7:
ARM GAS  C:\Users\aupen\AppData\Local\Temp\cceqDgz4.s 			page 9


  72 0030 05       		.byte	(.L6-.L7)/2
  73 0031 07       		.byte	(.L8-.L7)/2
  74 0032 09       		.byte	(.L9-.L7)/2
  75 0033 0B       		.byte	(.L10-.L7)/2
  76 0034 0D       		.byte	(.L11-.L7)/2
  77 0035 0F       		.byte	(.L12-.L7)/2
  78 0036 11       		.byte	(.L13-.L7)/2
  79 0037 29       		.byte	(.L1-.L7)/2
  80 0038 16       		.byte	(.L14-.L7)/2
  81 0039 00       		.p2align 1
  82              	.L6:
 378:Generated_Source\PSoC5/CyLib.c ****     {
 379:Generated_Source\PSoC5/CyLib.c ****     case CY_IMO_FREQ_3MHZ:
 380:Generated_Source\PSoC5/CyLib.c ****         CY_LIB_IMO_TR1_REG = CY_GET_XTND_REG8(CY_LIB_TRIM_IMO_3MHZ_PTR);
  83              		.loc 1 380 0
  84 003a 154B     		ldr	r3, .L19+12
  85 003c 0AE0     		b	.L17
  86              	.L8:
 381:Generated_Source\PSoC5/CyLib.c ****         break;
 382:Generated_Source\PSoC5/CyLib.c **** 
 383:Generated_Source\PSoC5/CyLib.c ****     case CY_IMO_FREQ_6MHZ:
 384:Generated_Source\PSoC5/CyLib.c ****         CY_LIB_IMO_TR1_REG = CY_GET_XTND_REG8(CY_LIB_TRIM_IMO_6MHZ_PTR);
  87              		.loc 1 384 0
  88 003e 154B     		ldr	r3, .L19+16
  89 0040 08E0     		b	.L17
  90              	.L9:
 385:Generated_Source\PSoC5/CyLib.c ****         break;
 386:Generated_Source\PSoC5/CyLib.c **** 
 387:Generated_Source\PSoC5/CyLib.c ****     case CY_IMO_FREQ_12MHZ:
 388:Generated_Source\PSoC5/CyLib.c ****         CY_LIB_IMO_TR1_REG = CY_GET_XTND_REG8(CY_LIB_TRIM_IMO_12MHZ_PTR);
  91              		.loc 1 388 0
  92 0042 154B     		ldr	r3, .L19+20
  93 0044 06E0     		b	.L17
  94              	.L10:
 389:Generated_Source\PSoC5/CyLib.c ****         break;
 390:Generated_Source\PSoC5/CyLib.c **** 
 391:Generated_Source\PSoC5/CyLib.c ****     case CY_IMO_FREQ_24MHZ:
 392:Generated_Source\PSoC5/CyLib.c ****         CY_LIB_IMO_TR1_REG = CY_GET_XTND_REG8(CY_LIB_TRIM_IMO_24MHZ_PTR);
  95              		.loc 1 392 0
  96 0046 154B     		ldr	r3, .L19+24
  97 0048 04E0     		b	.L17
  98              	.L11:
 393:Generated_Source\PSoC5/CyLib.c ****         break;
 394:Generated_Source\PSoC5/CyLib.c **** 
 395:Generated_Source\PSoC5/CyLib.c ****     case CY_IMO_FREQ_48MHZ:
 396:Generated_Source\PSoC5/CyLib.c ****         CY_LIB_IMO_TR1_REG = CY_GET_XTND_REG8(CY_LIB_TRIM_IMO_TR1_PTR);
  99              		.loc 1 396 0
 100 004a 154B     		ldr	r3, .L19+28
 101 004c 02E0     		b	.L17
 102              	.L12:
 397:Generated_Source\PSoC5/CyLib.c ****         break;
 398:Generated_Source\PSoC5/CyLib.c **** 
 399:Generated_Source\PSoC5/CyLib.c ****     case CY_IMO_FREQ_62MHZ:
 400:Generated_Source\PSoC5/CyLib.c ****         CY_LIB_IMO_TR1_REG = CY_GET_XTND_REG8(CY_LIB_TRIM_IMO_67MHZ_PTR);
 103              		.loc 1 400 0
 104 004e 154B     		ldr	r3, .L19+32
 105 0050 00E0     		b	.L17
ARM GAS  C:\Users\aupen\AppData\Local\Temp\cceqDgz4.s 			page 10


 106              	.L13:
 401:Generated_Source\PSoC5/CyLib.c ****         break;
 402:Generated_Source\PSoC5/CyLib.c **** 
 403:Generated_Source\PSoC5/CyLib.c **** #if(CY_PSOC5)
 404:Generated_Source\PSoC5/CyLib.c ****     case CY_IMO_FREQ_74MHZ:
 405:Generated_Source\PSoC5/CyLib.c ****         CY_LIB_IMO_TR1_REG = CY_GET_XTND_REG8(CY_LIB_TRIM_IMO_80MHZ_PTR);
 107              		.loc 1 405 0
 108 0052 154B     		ldr	r3, .L19+36
 109              	.L17:
 110 0054 1B78     		ldrb	r3, [r3]	@ zero_extendqisi2
 111 0056 154A     		ldr	r2, .L19+40
 112 0058 DBB2     		uxtb	r3, r3
 113 005a 09E0     		b	.L16
 114              	.L14:
 406:Generated_Source\PSoC5/CyLib.c ****         break;
 407:Generated_Source\PSoC5/CyLib.c **** #endif  /* (CY_PSOC5) */
 408:Generated_Source\PSoC5/CyLib.c **** 
 409:Generated_Source\PSoC5/CyLib.c ****     case CY_IMO_FREQ_USB:
 410:Generated_Source\PSoC5/CyLib.c ****         CY_LIB_IMO_TR1_REG = CY_GET_XTND_REG8(CY_LIB_TRIM_IMO_USB_PTR);
 115              		.loc 1 410 0
 116 005c 144A     		ldr	r2, .L19+44
 117 005e 1349     		ldr	r1, .L19+40
 118 0060 1278     		ldrb	r2, [r2]	@ zero_extendqisi2
 119 0062 D2B2     		uxtb	r2, r2
 120 0064 0A70     		strb	r2, [r1]
 411:Generated_Source\PSoC5/CyLib.c **** 
 412:Generated_Source\PSoC5/CyLib.c ****         /* If USB is powered */
 413:Generated_Source\PSoC5/CyLib.c ****         if(usbPowerOn == 1u)
 121              		.loc 1 413 0
 122 0066 63B1     		cbz	r3, .L1
 414:Generated_Source\PSoC5/CyLib.c ****         {
 415:Generated_Source\PSoC5/CyLib.c ****             /* Lock USB Oscillator */
 416:Generated_Source\PSoC5/CyLib.c ****             CY_LIB_USB_CR1_REG |= CY_LIB_USB_CLK_EN;
 123              		.loc 1 416 0
 124 0068 124A     		ldr	r2, .L19+48
 125 006a 1378     		ldrb	r3, [r2]	@ zero_extendqisi2
 126 006c 43F00203 		orr	r3, r3, #2
 127              	.L16:
 128 0070 1370     		strb	r3, [r2]
 417:Generated_Source\PSoC5/CyLib.c ****         }
 418:Generated_Source\PSoC5/CyLib.c ****         break;
 419:Generated_Source\PSoC5/CyLib.c **** 
 420:Generated_Source\PSoC5/CyLib.c ****     default:
 421:Generated_Source\PSoC5/CyLib.c ****             CYASSERT(0u != 0u);
 422:Generated_Source\PSoC5/CyLib.c ****         break;
 423:Generated_Source\PSoC5/CyLib.c ****     }
 424:Generated_Source\PSoC5/CyLib.c **** 
 425:Generated_Source\PSoC5/CyLib.c **** }
 129              		.loc 1 425 0
 130 0072 7047     		bx	lr
 131              	.LVL2:
 132              	.L3:
 375:Generated_Source\PSoC5/CyLib.c ****     }
 133              		.loc 1 375 0
 134 0074 0F4A     		ldr	r2, .L19+48
 135 0076 1378     		ldrb	r3, [r2]	@ zero_extendqisi2
 136 0078 03F0FD03 		and	r3, r3, #253
ARM GAS  C:\Users\aupen\AppData\Local\Temp\cceqDgz4.s 			page 11


 137 007c 1370     		strb	r3, [r2]
 138 007e 0123     		movs	r3, #1
 139 0080 D2E7     		b	.L4
 140              	.L1:
 141 0082 7047     		bx	lr
 142              	.L20:
 143              		.align	2
 144              	.L19:
 145 0084 93430040 		.word	1073759123
 146 0088 A5430040 		.word	1073759141
 147 008c B5430040 		.word	1073759157
 148 0090 08010049 		.word	1224737032
 149 0094 09010049 		.word	1224737033
 150 0098 0A010049 		.word	1224737034
 151 009c 0B010049 		.word	1224737035
 152 00a0 89010049 		.word	1224737161
 153 00a4 0C010049 		.word	1224737036
 154 00a8 0D010049 		.word	1224737037
 155 00ac A1460040 		.word	1073759905
 156 00b0 0F010049 		.word	1224737039
 157 00b4 09600040 		.word	1073766409
 158              		.cfi_endproc
 159              	.LFE7:
 160              		.size	CyIMO_SetTrimValue, .-CyIMO_SetTrimValue
 161              		.section	.text.CyBusClk_Internal_SetDivider,"ax",%progbits
 162              		.align	1
 163              		.thumb
 164              		.thumb_func
 165              		.type	CyBusClk_Internal_SetDivider, %function
 166              	CyBusClk_Internal_SetDivider:
 167              	.LFB14:
 426:Generated_Source\PSoC5/CyLib.c **** 
 427:Generated_Source\PSoC5/CyLib.c **** 
 428:Generated_Source\PSoC5/CyLib.c **** /*******************************************************************************
 429:Generated_Source\PSoC5/CyLib.c **** * Function Name: CyIMO_SetFreq
 430:Generated_Source\PSoC5/CyLib.c **** ****************************************************************************//**
 431:Generated_Source\PSoC5/CyLib.c **** *
 432:Generated_Source\PSoC5/CyLib.c **** *  Sets the frequency of the IMO. Changes may be made while the IMO is running.
 433:Generated_Source\PSoC5/CyLib.c **** *
 434:Generated_Source\PSoC5/CyLib.c **** *  \param freq: Frequency of IMO operation
 435:Generated_Source\PSoC5/CyLib.c **** *       CY_IMO_FREQ_3MHZ  to set  3   MHz
 436:Generated_Source\PSoC5/CyLib.c **** *       CY_IMO_FREQ_6MHZ  to set  6   MHz
 437:Generated_Source\PSoC5/CyLib.c **** *       CY_IMO_FREQ_12MHZ to set 12   MHz
 438:Generated_Source\PSoC5/CyLib.c **** *       CY_IMO_FREQ_24MHZ to set 24   MHz
 439:Generated_Source\PSoC5/CyLib.c **** *       CY_IMO_FREQ_48MHZ to set 48   MHz
 440:Generated_Source\PSoC5/CyLib.c **** *       CY_IMO_FREQ_62MHZ to set 62.6 MHz
 441:Generated_Source\PSoC5/CyLib.c **** *       CY_IMO_FREQ_74MHZ to set 74.7 MHz (not applicable for PSoC 3)
 442:Generated_Source\PSoC5/CyLib.c **** *       CY_IMO_FREQ_USB   to set 24   MHz (Trimmed for USB operation)
 443:Generated_Source\PSoC5/CyLib.c **** *
 444:Generated_Source\PSoC5/CyLib.c **** * \sideeffect
 445:Generated_Source\PSoC5/CyLib.c **** *  If this function execution results in the CPU clock frequency increasing,
 446:Generated_Source\PSoC5/CyLib.c **** *  then the number of clock cycles the cache will wait before it samples data
 447:Generated_Source\PSoC5/CyLib.c **** *  coming back from the Flash must be adjusted by calling
 448:Generated_Source\PSoC5/CyLib.c **** *  CyFlash_SetWaitCycles() with an appropriate parameter. It can be optionally
 449:Generated_Source\PSoC5/CyLib.c **** *  called if the CPU clock frequency is lowered in order to improve the CPU
 450:Generated_Source\PSoC5/CyLib.c **** *  performance. See CyFlash_SetWaitCycles() description for more information.
 451:Generated_Source\PSoC5/CyLib.c **** *
ARM GAS  C:\Users\aupen\AppData\Local\Temp\cceqDgz4.s 			page 12


 452:Generated_Source\PSoC5/CyLib.c **** *  When the USB setting is chosen, the USB clock locking circuit is enabled.
 453:Generated_Source\PSoC5/CyLib.c **** *  Otherwise this circuit is disabled. The USB block must be powered before
 454:Generated_Source\PSoC5/CyLib.c **** *  selecting the USB setting.
 455:Generated_Source\PSoC5/CyLib.c **** *
 456:Generated_Source\PSoC5/CyLib.c **** *******************************************************************************/
 457:Generated_Source\PSoC5/CyLib.c **** void CyIMO_SetFreq(uint8 freq) 
 458:Generated_Source\PSoC5/CyLib.c **** {
 459:Generated_Source\PSoC5/CyLib.c ****     uint8 currentFreq;
 460:Generated_Source\PSoC5/CyLib.c ****     uint8 nextFreq;
 461:Generated_Source\PSoC5/CyLib.c **** 
 462:Generated_Source\PSoC5/CyLib.c ****     /***************************************************************************
 463:Generated_Source\PSoC5/CyLib.c ****     * If the IMO frequency is changed,the Trim values must also be set
 464:Generated_Source\PSoC5/CyLib.c ****     * accordingly.This requires reading the current frequency. If the new
 465:Generated_Source\PSoC5/CyLib.c ****     * frequency is faster, then set a new trim and then change the frequency,
 466:Generated_Source\PSoC5/CyLib.c ****     * otherwise change the frequency and then set new trim values.
 467:Generated_Source\PSoC5/CyLib.c ****     ***************************************************************************/
 468:Generated_Source\PSoC5/CyLib.c **** 
 469:Generated_Source\PSoC5/CyLib.c ****     currentFreq = CY_LIB_FASTCLK_IMO_CR_REG & ((uint8)(~CY_LIB_FASTCLK_IMO_CR_RANGE_MASK));
 470:Generated_Source\PSoC5/CyLib.c **** 
 471:Generated_Source\PSoC5/CyLib.c ****     /* Check if requested frequency is USB. */
 472:Generated_Source\PSoC5/CyLib.c ****     nextFreq = (freq == CY_IMO_FREQ_USB) ? CY_IMO_FREQ_24MHZ : freq;
 473:Generated_Source\PSoC5/CyLib.c **** 
 474:Generated_Source\PSoC5/CyLib.c ****     switch (currentFreq)
 475:Generated_Source\PSoC5/CyLib.c ****     {
 476:Generated_Source\PSoC5/CyLib.c ****     case 0u:
 477:Generated_Source\PSoC5/CyLib.c ****         currentFreq = CY_IMO_FREQ_12MHZ;
 478:Generated_Source\PSoC5/CyLib.c ****         break;
 479:Generated_Source\PSoC5/CyLib.c **** 
 480:Generated_Source\PSoC5/CyLib.c ****     case 1u:
 481:Generated_Source\PSoC5/CyLib.c ****         currentFreq = CY_IMO_FREQ_6MHZ;
 482:Generated_Source\PSoC5/CyLib.c ****         break;
 483:Generated_Source\PSoC5/CyLib.c **** 
 484:Generated_Source\PSoC5/CyLib.c ****     case 2u:
 485:Generated_Source\PSoC5/CyLib.c ****         currentFreq = CY_IMO_FREQ_24MHZ;
 486:Generated_Source\PSoC5/CyLib.c ****         break;
 487:Generated_Source\PSoC5/CyLib.c **** 
 488:Generated_Source\PSoC5/CyLib.c ****     case 3u:
 489:Generated_Source\PSoC5/CyLib.c ****         currentFreq = CY_IMO_FREQ_3MHZ;
 490:Generated_Source\PSoC5/CyLib.c ****         break;
 491:Generated_Source\PSoC5/CyLib.c **** 
 492:Generated_Source\PSoC5/CyLib.c ****     case 4u:
 493:Generated_Source\PSoC5/CyLib.c ****         currentFreq = CY_IMO_FREQ_48MHZ;
 494:Generated_Source\PSoC5/CyLib.c ****         break;
 495:Generated_Source\PSoC5/CyLib.c **** 
 496:Generated_Source\PSoC5/CyLib.c ****     case 5u:
 497:Generated_Source\PSoC5/CyLib.c ****         currentFreq = CY_IMO_FREQ_62MHZ;
 498:Generated_Source\PSoC5/CyLib.c ****         break;
 499:Generated_Source\PSoC5/CyLib.c **** 
 500:Generated_Source\PSoC5/CyLib.c **** #if(CY_PSOC5)
 501:Generated_Source\PSoC5/CyLib.c ****     case 6u:
 502:Generated_Source\PSoC5/CyLib.c ****         currentFreq = CY_IMO_FREQ_74MHZ;
 503:Generated_Source\PSoC5/CyLib.c ****         break;
 504:Generated_Source\PSoC5/CyLib.c **** #endif  /* (CY_PSOC5) */
 505:Generated_Source\PSoC5/CyLib.c **** 
 506:Generated_Source\PSoC5/CyLib.c ****     default:
 507:Generated_Source\PSoC5/CyLib.c ****         CYASSERT(0u != 0u);
 508:Generated_Source\PSoC5/CyLib.c ****         break;
ARM GAS  C:\Users\aupen\AppData\Local\Temp\cceqDgz4.s 			page 13


 509:Generated_Source\PSoC5/CyLib.c ****     }
 510:Generated_Source\PSoC5/CyLib.c **** 
 511:Generated_Source\PSoC5/CyLib.c ****     if (nextFreq >= currentFreq)
 512:Generated_Source\PSoC5/CyLib.c ****     {
 513:Generated_Source\PSoC5/CyLib.c ****         /* Set new trim first */
 514:Generated_Source\PSoC5/CyLib.c ****         CyIMO_SetTrimValue(freq);
 515:Generated_Source\PSoC5/CyLib.c ****     }
 516:Generated_Source\PSoC5/CyLib.c **** 
 517:Generated_Source\PSoC5/CyLib.c ****     /* Set usbclk_on bit when using CY_IMO_FREQ_USB, if not clear it */
 518:Generated_Source\PSoC5/CyLib.c ****     switch(freq)
 519:Generated_Source\PSoC5/CyLib.c ****     {
 520:Generated_Source\PSoC5/CyLib.c ****     case CY_IMO_FREQ_3MHZ:
 521:Generated_Source\PSoC5/CyLib.c ****         CY_LIB_FASTCLK_IMO_CR_REG = ((CY_LIB_FASTCLK_IMO_CR_REG & CY_LIB_FASTCLK_IMO_CR_RANGE_MASK)
 522:Generated_Source\PSoC5/CyLib.c ****             CY_LIB_IMO_3MHZ_VALUE) & ((uint8)(~CY_LIB_IMO_USBCLK_ON_SET));
 523:Generated_Source\PSoC5/CyLib.c ****         break;
 524:Generated_Source\PSoC5/CyLib.c **** 
 525:Generated_Source\PSoC5/CyLib.c ****     case CY_IMO_FREQ_6MHZ:
 526:Generated_Source\PSoC5/CyLib.c ****         CY_LIB_FASTCLK_IMO_CR_REG = ((CY_LIB_FASTCLK_IMO_CR_REG & CY_LIB_FASTCLK_IMO_CR_RANGE_MASK)
 527:Generated_Source\PSoC5/CyLib.c ****             CY_LIB_IMO_6MHZ_VALUE) & ((uint8)(~CY_LIB_IMO_USBCLK_ON_SET));
 528:Generated_Source\PSoC5/CyLib.c ****         break;
 529:Generated_Source\PSoC5/CyLib.c **** 
 530:Generated_Source\PSoC5/CyLib.c ****     case CY_IMO_FREQ_12MHZ:
 531:Generated_Source\PSoC5/CyLib.c ****         CY_LIB_FASTCLK_IMO_CR_REG = ((CY_LIB_FASTCLK_IMO_CR_REG & CY_LIB_FASTCLK_IMO_CR_RANGE_MASK)
 532:Generated_Source\PSoC5/CyLib.c ****             CY_LIB_IMO_12MHZ_VALUE) & ((uint8)(~CY_LIB_IMO_USBCLK_ON_SET));
 533:Generated_Source\PSoC5/CyLib.c ****         break;
 534:Generated_Source\PSoC5/CyLib.c **** 
 535:Generated_Source\PSoC5/CyLib.c ****     case CY_IMO_FREQ_24MHZ:
 536:Generated_Source\PSoC5/CyLib.c ****         CY_LIB_FASTCLK_IMO_CR_REG = ((CY_LIB_FASTCLK_IMO_CR_REG & CY_LIB_FASTCLK_IMO_CR_RANGE_MASK)
 537:Generated_Source\PSoC5/CyLib.c ****             CY_LIB_IMO_24MHZ_VALUE) & ((uint8)(~CY_LIB_IMO_USBCLK_ON_SET));
 538:Generated_Source\PSoC5/CyLib.c ****         break;
 539:Generated_Source\PSoC5/CyLib.c **** 
 540:Generated_Source\PSoC5/CyLib.c ****     case CY_IMO_FREQ_48MHZ:
 541:Generated_Source\PSoC5/CyLib.c ****         CY_LIB_FASTCLK_IMO_CR_REG = ((CY_LIB_FASTCLK_IMO_CR_REG & CY_LIB_FASTCLK_IMO_CR_RANGE_MASK)
 542:Generated_Source\PSoC5/CyLib.c ****             CY_LIB_IMO_48MHZ_VALUE) & ((uint8)(~CY_LIB_IMO_USBCLK_ON_SET));
 543:Generated_Source\PSoC5/CyLib.c ****         break;
 544:Generated_Source\PSoC5/CyLib.c **** 
 545:Generated_Source\PSoC5/CyLib.c ****     case CY_IMO_FREQ_62MHZ:
 546:Generated_Source\PSoC5/CyLib.c ****         CY_LIB_FASTCLK_IMO_CR_REG = ((CY_LIB_FASTCLK_IMO_CR_REG & CY_LIB_FASTCLK_IMO_CR_RANGE_MASK)
 547:Generated_Source\PSoC5/CyLib.c ****             CY_LIB_IMO_62MHZ_VALUE) & ((uint8)(~CY_LIB_IMO_USBCLK_ON_SET));
 548:Generated_Source\PSoC5/CyLib.c ****         break;
 549:Generated_Source\PSoC5/CyLib.c **** 
 550:Generated_Source\PSoC5/CyLib.c **** #if(CY_PSOC5)
 551:Generated_Source\PSoC5/CyLib.c ****     case CY_IMO_FREQ_74MHZ:
 552:Generated_Source\PSoC5/CyLib.c ****         CY_LIB_FASTCLK_IMO_CR_REG = ((CY_LIB_FASTCLK_IMO_CR_REG & CY_LIB_FASTCLK_IMO_CR_RANGE_MASK)
 553:Generated_Source\PSoC5/CyLib.c ****             CY_LIB_IMO_74MHZ_VALUE) & ((uint8)(~CY_LIB_IMO_USBCLK_ON_SET));
 554:Generated_Source\PSoC5/CyLib.c ****         break;
 555:Generated_Source\PSoC5/CyLib.c **** #endif  /* (CY_PSOC5) */
 556:Generated_Source\PSoC5/CyLib.c **** 
 557:Generated_Source\PSoC5/CyLib.c ****     case CY_IMO_FREQ_USB:
 558:Generated_Source\PSoC5/CyLib.c ****         CY_LIB_FASTCLK_IMO_CR_REG = ((CY_LIB_FASTCLK_IMO_CR_REG & CY_LIB_FASTCLK_IMO_CR_RANGE_MASK)
 559:Generated_Source\PSoC5/CyLib.c ****             CY_LIB_IMO_24MHZ_VALUE) | CY_LIB_IMO_USBCLK_ON_SET;
 560:Generated_Source\PSoC5/CyLib.c ****         break;
 561:Generated_Source\PSoC5/CyLib.c **** 
 562:Generated_Source\PSoC5/CyLib.c ****     default:
 563:Generated_Source\PSoC5/CyLib.c ****         CYASSERT(0u != 0u);
 564:Generated_Source\PSoC5/CyLib.c ****         break;
 565:Generated_Source\PSoC5/CyLib.c ****     }
ARM GAS  C:\Users\aupen\AppData\Local\Temp\cceqDgz4.s 			page 14


 566:Generated_Source\PSoC5/CyLib.c **** 
 567:Generated_Source\PSoC5/CyLib.c ****     /* Tu rn onIMO Doubler, if switching to CY_IMO_FREQ_USB */
 568:Generated_Source\PSoC5/CyLib.c ****     if (freq == CY_IMO_FREQ_USB)
 569:Generated_Source\PSoC5/CyLib.c ****     {
 570:Generated_Source\PSoC5/CyLib.c ****         CyIMO_EnableDoubler();
 571:Generated_Source\PSoC5/CyLib.c ****     }
 572:Generated_Source\PSoC5/CyLib.c ****     else
 573:Generated_Source\PSoC5/CyLib.c ****     {
 574:Generated_Source\PSoC5/CyLib.c ****         CyIMO_DisableDoubler();
 575:Generated_Source\PSoC5/CyLib.c ****     }
 576:Generated_Source\PSoC5/CyLib.c **** 
 577:Generated_Source\PSoC5/CyLib.c ****     if (nextFreq < currentFreq)
 578:Generated_Source\PSoC5/CyLib.c ****     {
 579:Generated_Source\PSoC5/CyLib.c ****         /* Set the trim after setting frequency */
 580:Generated_Source\PSoC5/CyLib.c ****         CyIMO_SetTrimValue(freq);
 581:Generated_Source\PSoC5/CyLib.c ****     }
 582:Generated_Source\PSoC5/CyLib.c **** }
 583:Generated_Source\PSoC5/CyLib.c **** 
 584:Generated_Source\PSoC5/CyLib.c **** 
 585:Generated_Source\PSoC5/CyLib.c **** /*******************************************************************************
 586:Generated_Source\PSoC5/CyLib.c **** * Function Name: CyIMO_SetSource
 587:Generated_Source\PSoC5/CyLib.c **** ****************************************************************************//**
 588:Generated_Source\PSoC5/CyLib.c **** *
 589:Generated_Source\PSoC5/CyLib.c **** *  Sets the source of the clock output from the IMO block.
 590:Generated_Source\PSoC5/CyLib.c **** *
 591:Generated_Source\PSoC5/CyLib.c **** *  The output from the IMO is by default the IMO itself. Optionally the MHz
 592:Generated_Source\PSoC5/CyLib.c **** *  Crystal or DSI input can be the source of the IMO output instead.
 593:Generated_Source\PSoC5/CyLib.c **** *
 594:Generated_Source\PSoC5/CyLib.c **** *   \param source: CY_IMO_SOURCE_DSI to set the DSI as source.
 595:Generated_Source\PSoC5/CyLib.c **** *           CY_IMO_SOURCE_XTAL to set the MHz as source.
 596:Generated_Source\PSoC5/CyLib.c **** *           CY_IMO_SOURCE_IMO to set the IMO itself.
 597:Generated_Source\PSoC5/CyLib.c **** *
 598:Generated_Source\PSoC5/CyLib.c **** * \sideeffect
 599:Generated_Source\PSoC5/CyLib.c **** *  If this function execution resulted in the CPU clock frequency increasing,
 600:Generated_Source\PSoC5/CyLib.c **** *  then the number of clock cycles the cache will wait before it samples data
 601:Generated_Source\PSoC5/CyLib.c **** *  coming back from the Flash must be adjusted by calling
 602:Generated_Source\PSoC5/CyLib.c **** *  CyFlash_SetWaitCycles() with an appropriate parameter. It can be optionally
 603:Generated_Source\PSoC5/CyLib.c **** *  called if the CPU clock frequency is lowered in order to improve the CPU
 604:Generated_Source\PSoC5/CyLib.c **** *  performance. See CyFlash_SetWaitCycles() description for more information.
 605:Generated_Source\PSoC5/CyLib.c **** *
 606:Generated_Source\PSoC5/CyLib.c **** *******************************************************************************/
 607:Generated_Source\PSoC5/CyLib.c **** void CyIMO_SetSource(uint8 source) 
 608:Generated_Source\PSoC5/CyLib.c **** {
 609:Generated_Source\PSoC5/CyLib.c ****     switch(source)
 610:Generated_Source\PSoC5/CyLib.c ****     {
 611:Generated_Source\PSoC5/CyLib.c ****     case CY_IMO_SOURCE_DSI:
 612:Generated_Source\PSoC5/CyLib.c ****         CY_LIB_CLKDIST_CR_REG     &= ((uint8)(~CY_LIB_CLKDIST_CR_IMO2X));
 613:Generated_Source\PSoC5/CyLib.c ****         CY_LIB_FASTCLK_IMO_CR_REG |= CY_LIB_FASTCLK_IMO_IMO;
 614:Generated_Source\PSoC5/CyLib.c ****         break;
 615:Generated_Source\PSoC5/CyLib.c **** 
 616:Generated_Source\PSoC5/CyLib.c ****     case CY_IMO_SOURCE_XTAL:
 617:Generated_Source\PSoC5/CyLib.c ****         CY_LIB_CLKDIST_CR_REG     |= CY_LIB_CLKDIST_CR_IMO2X;
 618:Generated_Source\PSoC5/CyLib.c ****         CY_LIB_FASTCLK_IMO_CR_REG |= CY_LIB_FASTCLK_IMO_IMO;
 619:Generated_Source\PSoC5/CyLib.c ****         break;
 620:Generated_Source\PSoC5/CyLib.c **** 
 621:Generated_Source\PSoC5/CyLib.c ****     case CY_IMO_SOURCE_IMO:
 622:Generated_Source\PSoC5/CyLib.c ****         CY_LIB_FASTCLK_IMO_CR_REG &= ((uint8)(~CY_LIB_FASTCLK_IMO_IMO));
ARM GAS  C:\Users\aupen\AppData\Local\Temp\cceqDgz4.s 			page 15


 623:Generated_Source\PSoC5/CyLib.c ****         break;
 624:Generated_Source\PSoC5/CyLib.c **** 
 625:Generated_Source\PSoC5/CyLib.c ****     default:
 626:Generated_Source\PSoC5/CyLib.c ****         /* Incorrect source value */
 627:Generated_Source\PSoC5/CyLib.c ****         CYASSERT(0u != 0u);
 628:Generated_Source\PSoC5/CyLib.c ****         break;
 629:Generated_Source\PSoC5/CyLib.c ****     }
 630:Generated_Source\PSoC5/CyLib.c **** }
 631:Generated_Source\PSoC5/CyLib.c **** 
 632:Generated_Source\PSoC5/CyLib.c **** 
 633:Generated_Source\PSoC5/CyLib.c **** /*******************************************************************************
 634:Generated_Source\PSoC5/CyLib.c **** * Function Name: CyIMO_EnableDoubler
 635:Generated_Source\PSoC5/CyLib.c **** ****************************************************************************//**
 636:Generated_Source\PSoC5/CyLib.c **** *
 637:Generated_Source\PSoC5/CyLib.c **** *  Enables the IMO doubler.  The 2x frequency clock is used to convert a 24 MHz
 638:Generated_Source\PSoC5/CyLib.c **** *  input to a 48 MHz output for use by the USB block.
 639:Generated_Source\PSoC5/CyLib.c **** *
 640:Generated_Source\PSoC5/CyLib.c **** *******************************************************************************/
 641:Generated_Source\PSoC5/CyLib.c **** void CyIMO_EnableDoubler(void) 
 642:Generated_Source\PSoC5/CyLib.c **** {
 643:Generated_Source\PSoC5/CyLib.c ****     /* Set FASTCLK_IMO_CR_PTR regigster's 4th bit */
 644:Generated_Source\PSoC5/CyLib.c ****     CY_LIB_FASTCLK_IMO_CR_REG |= CY_LIB_FASTCLK_IMO_DOUBLER;
 645:Generated_Source\PSoC5/CyLib.c **** }
 646:Generated_Source\PSoC5/CyLib.c **** 
 647:Generated_Source\PSoC5/CyLib.c **** 
 648:Generated_Source\PSoC5/CyLib.c **** /*******************************************************************************
 649:Generated_Source\PSoC5/CyLib.c **** * Function Name: CyIMO_DisableDoubler
 650:Generated_Source\PSoC5/CyLib.c **** ****************************************************************************//**
 651:Generated_Source\PSoC5/CyLib.c **** *
 652:Generated_Source\PSoC5/CyLib.c **** *   Disables the IMO doubler.
 653:Generated_Source\PSoC5/CyLib.c **** *
 654:Generated_Source\PSoC5/CyLib.c **** *******************************************************************************/
 655:Generated_Source\PSoC5/CyLib.c **** void CyIMO_DisableDoubler(void) 
 656:Generated_Source\PSoC5/CyLib.c **** {
 657:Generated_Source\PSoC5/CyLib.c ****     CY_LIB_FASTCLK_IMO_CR_REG &= ((uint8)(~CY_LIB_FASTCLK_IMO_DOUBLER));
 658:Generated_Source\PSoC5/CyLib.c **** }
 659:Generated_Source\PSoC5/CyLib.c **** 
 660:Generated_Source\PSoC5/CyLib.c **** 
 661:Generated_Source\PSoC5/CyLib.c **** /*******************************************************************************
 662:Generated_Source\PSoC5/CyLib.c **** * Function Name: CyMasterClk_SetSource
 663:Generated_Source\PSoC5/CyLib.c **** ****************************************************************************//**
 664:Generated_Source\PSoC5/CyLib.c **** *
 665:Generated_Source\PSoC5/CyLib.c **** *  Sets the source of the master clock.
 666:Generated_Source\PSoC5/CyLib.c **** *
 667:Generated_Source\PSoC5/CyLib.c **** *   \param source: One of the four available Master clock sources.
 668:Generated_Source\PSoC5/CyLib.c **** *     CY_MASTER_SOURCE_IMO
 669:Generated_Source\PSoC5/CyLib.c **** *     CY_MASTER_SOURCE_PLL
 670:Generated_Source\PSoC5/CyLib.c **** *     CY_MASTER_SOURCE_XTAL
 671:Generated_Source\PSoC5/CyLib.c **** *     CY_MASTER_SOURCE_DSI
 672:Generated_Source\PSoC5/CyLib.c **** *
 673:Generated_Source\PSoC5/CyLib.c **** * \sideeffect
 674:Generated_Source\PSoC5/CyLib.c **** *  The current source and the new source must both be running and stable before
 675:Generated_Source\PSoC5/CyLib.c **** *  calling this function.
 676:Generated_Source\PSoC5/CyLib.c **** *
 677:Generated_Source\PSoC5/CyLib.c **** *  If this function execution resulted in the CPU clock frequency increasing,
 678:Generated_Source\PSoC5/CyLib.c **** *  then the number of clock cycles the cache will wait before it samples data
 679:Generated_Source\PSoC5/CyLib.c **** *  coming back from the Flash must be adjusted by calling
ARM GAS  C:\Users\aupen\AppData\Local\Temp\cceqDgz4.s 			page 16


 680:Generated_Source\PSoC5/CyLib.c **** *  CyFlash_SetWaitCycles() with an appropriate parameter. It can be optionally
 681:Generated_Source\PSoC5/CyLib.c **** *  called if the CPU clock frequency is lowered in order to improve the CPU
 682:Generated_Source\PSoC5/CyLib.c **** *  performance. See CyFlash_SetWaitCycles() description for more information.
 683:Generated_Source\PSoC5/CyLib.c **** *
 684:Generated_Source\PSoC5/CyLib.c **** *******************************************************************************/
 685:Generated_Source\PSoC5/CyLib.c **** void CyMasterClk_SetSource(uint8 source) 
 686:Generated_Source\PSoC5/CyLib.c **** {
 687:Generated_Source\PSoC5/CyLib.c ****     CY_LIB_CLKDIST_MSTR1_REG = (CY_LIB_CLKDIST_MSTR1_REG & MASTER_CLK_SRC_CLEAR) |
 688:Generated_Source\PSoC5/CyLib.c ****                                 (source & ((uint8)(~MASTER_CLK_SRC_CLEAR)));
 689:Generated_Source\PSoC5/CyLib.c **** }
 690:Generated_Source\PSoC5/CyLib.c **** 
 691:Generated_Source\PSoC5/CyLib.c **** 
 692:Generated_Source\PSoC5/CyLib.c **** /*******************************************************************************
 693:Generated_Source\PSoC5/CyLib.c **** * Function Name: CyMasterClk_SetDivider
 694:Generated_Source\PSoC5/CyLib.c **** ****************************************************************************//**
 695:Generated_Source\PSoC5/CyLib.c **** *
 696:Generated_Source\PSoC5/CyLib.c **** *  Sets the divider value used to generate Master Clock.
 697:Generated_Source\PSoC5/CyLib.c **** *
 698:Generated_Source\PSoC5/CyLib.c **** *  \param uint8 divider:
 699:Generated_Source\PSoC5/CyLib.c **** *   The valid range is [0-255]. The clock will be divided by this value + 1.
 700:Generated_Source\PSoC5/CyLib.c **** *   For example to divide this parameter by two should be set to 1.
 701:Generated_Source\PSoC5/CyLib.c **** *
 702:Generated_Source\PSoC5/CyLib.c **** * \sideeffect
 703:Generated_Source\PSoC5/CyLib.c **** *  If this function execution resulted in the CPU clock frequency increasing,
 704:Generated_Source\PSoC5/CyLib.c **** *  then the number of clock cycles the cache will wait before it samples data
 705:Generated_Source\PSoC5/CyLib.c **** *  coming back from the Flash must be adjusted by calling
 706:Generated_Source\PSoC5/CyLib.c **** *  CyFlash_SetWaitCycles() with an appropriate parameter. It can be optionally
 707:Generated_Source\PSoC5/CyLib.c **** *  called if the CPU clock frequency is lowered in order to improve the CPU
 708:Generated_Source\PSoC5/CyLib.c **** *  performance. See CyFlash_SetWaitCycles() description for more information.
 709:Generated_Source\PSoC5/CyLib.c **** *
 710:Generated_Source\PSoC5/CyLib.c **** *  When changing the Master or Bus clock divider value from div-by-n to div-by-1
 711:Generated_Source\PSoC5/CyLib.c **** *  the first clock cycle output after the div-by-1 can be up to 4 ns shorter
 712:Generated_Source\PSoC5/CyLib.c **** *  than the final/expected div-by-1 period.
 713:Generated_Source\PSoC5/CyLib.c **** *
 714:Generated_Source\PSoC5/CyLib.c **** *******************************************************************************/
 715:Generated_Source\PSoC5/CyLib.c **** void CyMasterClk_SetDivider(uint8 divider) 
 716:Generated_Source\PSoC5/CyLib.c **** {
 717:Generated_Source\PSoC5/CyLib.c ****     CY_LIB_CLKDIST_MSTR0_REG = divider;
 718:Generated_Source\PSoC5/CyLib.c **** }
 719:Generated_Source\PSoC5/CyLib.c **** 
 720:Generated_Source\PSoC5/CyLib.c **** 
 721:Generated_Source\PSoC5/CyLib.c **** /*******************************************************************************
 722:Generated_Source\PSoC5/CyLib.c **** * Function Name: CyBusClk_Internal_SetDivider
 723:Generated_Source\PSoC5/CyLib.c **** ****************************************************************************//**
 724:Generated_Source\PSoC5/CyLib.c **** *
 725:Generated_Source\PSoC5/CyLib.c **** *  The function used by CyBusClk_SetDivider(). For internal use only.
 726:Generated_Source\PSoC5/CyLib.c **** *
 727:Generated_Source\PSoC5/CyLib.c **** *   \param divider: Valid range [0-65535].
 728:Generated_Source\PSoC5/CyLib.c **** *   The clock will be divided by this value + 1.
 729:Generated_Source\PSoC5/CyLib.c **** *   For example, to divide this parameter by two should be set to 1.
 730:Generated_Source\PSoC5/CyLib.c **** *
 731:Generated_Source\PSoC5/CyLib.c **** *******************************************************************************/
 732:Generated_Source\PSoC5/CyLib.c **** static void CyBusClk_Internal_SetDivider(uint16 divider)
 733:Generated_Source\PSoC5/CyLib.c **** {
 168              		.loc 1 733 0
 169              		.cfi_startproc
 170              		@ args = 0, pretend = 0, frame = 0
ARM GAS  C:\Users\aupen\AppData\Local\Temp\cceqDgz4.s 			page 17


 171              		@ frame_needed = 0, uses_anonymous_args = 0
 172              		@ link register save eliminated.
 173              	.LVL3:
 734:Generated_Source\PSoC5/CyLib.c ****     /* Mask bits to enable shadow loads  */
 735:Generated_Source\PSoC5/CyLib.c ****     CY_LIB_CLKDIST_AMASK_REG &= CY_LIB_CLKDIST_AMASK_MASK;
 174              		.loc 1 735 0
 175 0000 0B4A     		ldr	r2, .L22
 176 0002 1378     		ldrb	r3, [r2]	@ zero_extendqisi2
 177 0004 03F0F003 		and	r3, r3, #240
 178 0008 1370     		strb	r3, [r2]
 736:Generated_Source\PSoC5/CyLib.c ****     CY_LIB_CLKDIST_DMASK_REG  = CY_LIB_CLKDIST_DMASK_MASK;
 179              		.loc 1 736 0
 180 000a 0A4B     		ldr	r3, .L22+4
 181 000c 0022     		movs	r2, #0
 182 000e 1A70     		strb	r2, [r3]
 737:Generated_Source\PSoC5/CyLib.c **** 
 738:Generated_Source\PSoC5/CyLib.c ****     /* Enable mask bits to enable shadow loads */
 739:Generated_Source\PSoC5/CyLib.c ****     CY_LIB_CLKDIST_BCFG2_REG |= CY_LIB_CLKDIST_BCFG2_MASK;
 183              		.loc 1 739 0
 184 0010 094A     		ldr	r2, .L22+8
 185 0012 1378     		ldrb	r3, [r2]	@ zero_extendqisi2
 186 0014 43F08003 		orr	r3, r3, #128
 187 0018 1370     		strb	r3, [r2]
 740:Generated_Source\PSoC5/CyLib.c **** 
 741:Generated_Source\PSoC5/CyLib.c ****     /* Update Shadow Divider Value Register with new divider */
 742:Generated_Source\PSoC5/CyLib.c ****     CY_LIB_CLKDIST_WRK_LSB_REG = LO8(divider);
 188              		.loc 1 742 0
 189 001a 084B     		ldr	r3, .L22+12
 190 001c C2B2     		uxtb	r2, r0
 191 001e 1A70     		strb	r2, [r3]
 743:Generated_Source\PSoC5/CyLib.c ****     CY_LIB_CLKDIST_WRK_MSB_REG = HI8(divider);
 192              		.loc 1 743 0
 193 0020 000A     		lsrs	r0, r0, #8
 194              	.LVL4:
 744:Generated_Source\PSoC5/CyLib.c **** 
 745:Generated_Source\PSoC5/CyLib.c **** 
 746:Generated_Source\PSoC5/CyLib.c ****     /***************************************************************************
 747:Generated_Source\PSoC5/CyLib.c ****     * Copy shadow value defined in Shadow Divider Value Register
 748:Generated_Source\PSoC5/CyLib.c ****     * (CY_LIB_CLKDIST_WRK_LSB_REG and CY_LIB_CLKDIST_WRK_MSB_REG) to all
 749:Generated_Source\PSoC5/CyLib.c ****     * dividers selected in Analog and Digital Clock Mask Registers
 750:Generated_Source\PSoC5/CyLib.c ****     * (CY_LIB_CLKDIST_AMASK_REG and CY_LIB_CLKDIST_DMASK_REG).
 751:Generated_Source\PSoC5/CyLib.c ****     ***************************************************************************/
 752:Generated_Source\PSoC5/CyLib.c ****     CY_LIB_CLKDIST_LD_REG |= CY_LIB_CLKDIST_LD_LOAD;
 195              		.loc 1 752 0
 196 0022 074A     		ldr	r2, .L22+16
 743:Generated_Source\PSoC5/CyLib.c ****     CY_LIB_CLKDIST_WRK_MSB_REG = HI8(divider);
 197              		.loc 1 743 0
 198 0024 5870     		strb	r0, [r3, #1]
 199              		.loc 1 752 0
 200 0026 1378     		ldrb	r3, [r2]	@ zero_extendqisi2
 201 0028 43F00103 		orr	r3, r3, #1
 202 002c 1370     		strb	r3, [r2]
 203 002e 7047     		bx	lr
 204              	.L23:
 205              		.align	2
 206              	.L22:
 207 0030 14400040 		.word	1073758228
ARM GAS  C:\Users\aupen\AppData\Local\Temp\cceqDgz4.s 			page 18


 208 0034 10400040 		.word	1073758224
 209 0038 08400040 		.word	1073758216
 210 003c 02400040 		.word	1073758210
 211 0040 01400040 		.word	1073758209
 212              		.cfi_endproc
 213              	.LFE14:
 214              		.size	CyBusClk_Internal_SetDivider, .-CyBusClk_Internal_SetDivider
 215              		.section	.text.CyPLL_OUT_Stop,"ax",%progbits
 216              		.align	1
 217              		.global	CyPLL_OUT_Stop
 218              		.thumb
 219              		.thumb_func
 220              		.type	CyPLL_OUT_Stop, %function
 221              	CyPLL_OUT_Stop:
 222              	.LFB1:
 155:Generated_Source\PSoC5/CyLib.c ****     CY_CLK_PLL_CFG0_REG &= ((uint8)(~CY_CLK_PLL_ENABLE));
 223              		.loc 1 155 0
 224              		.cfi_startproc
 225              		@ args = 0, pretend = 0, frame = 0
 226              		@ frame_needed = 0, uses_anonymous_args = 0
 227              		@ link register save eliminated.
 156:Generated_Source\PSoC5/CyLib.c **** }
 228              		.loc 1 156 0
 229 0000 024A     		ldr	r2, .L25
 230 0002 1378     		ldrb	r3, [r2]	@ zero_extendqisi2
 231 0004 03F0FE03 		and	r3, r3, #254
 232 0008 1370     		strb	r3, [r2]
 233 000a 7047     		bx	lr
 234              	.L26:
 235              		.align	2
 236              	.L25:
 237 000c 20420040 		.word	1073758752
 238              		.cfi_endproc
 239              	.LFE1:
 240              		.size	CyPLL_OUT_Stop, .-CyPLL_OUT_Stop
 241              		.section	.text.CyPLL_OUT_SetPQ,"ax",%progbits
 242              		.align	1
 243              		.global	CyPLL_OUT_SetPQ
 244              		.thumb
 245              		.thumb_func
 246              		.type	CyPLL_OUT_SetPQ, %function
 247              	CyPLL_OUT_SetPQ:
 248              	.LFB2:
 188:Generated_Source\PSoC5/CyLib.c ****     /* Halt CPU in debug mode if PLL is enabled */
 249              		.loc 1 188 0
 250              		.cfi_startproc
 251              		@ args = 0, pretend = 0, frame = 0
 252              		@ frame_needed = 0, uses_anonymous_args = 0
 253              		@ link register save eliminated.
 254              	.LVL5:
 192:Generated_Source\PSoC5/CyLib.c ****        (qDiv    <= CY_CLK_PLL_MAX_Q_VALUE  ) && (qDiv    >= CY_CLK_PLL_MIN_Q_VALUE  ) &&
 255              		.loc 1 192 0
 256 0000 0728     		cmp	r0, #7
 257 0002 12D9     		bls	.L27
 193:Generated_Source\PSoC5/CyLib.c ****        (current >= CY_CLK_PLL_MIN_CUR_VALUE) && (current <= CY_CLK_PLL_MAX_CUR_VALUE))
 258              		.loc 1 193 0
 259 0004 0139     		subs	r1, r1, #1
ARM GAS  C:\Users\aupen\AppData\Local\Temp\cceqDgz4.s 			page 19


 260              	.LVL6:
 261 0006 C9B2     		uxtb	r1, r1
 262 0008 0F29     		cmp	r1, #15
 263 000a 0ED8     		bhi	.L27
 193:Generated_Source\PSoC5/CyLib.c ****        (current >= CY_CLK_PLL_MIN_CUR_VALUE) && (current <= CY_CLK_PLL_MAX_CUR_VALUE))
 264              		.loc 1 193 0 is_stmt 0 discriminator 1
 265 000c 531E     		subs	r3, r2, #1
 266 000e DAB2     		uxtb	r2, r3
 267              	.LVL7:
 268 0010 062A     		cmp	r2, #6
 269 0012 0AD8     		bhi	.L27
 197:Generated_Source\PSoC5/CyLib.c ****         CY_CLK_PLL_Q_REG = ((uint8)(qDiv - 1u));
 270              		.loc 1 197 0 is_stmt 1
 271 0014 054B     		ldr	r3, .L29
 272 0016 1870     		strb	r0, [r3]
 198:Generated_Source\PSoC5/CyLib.c ****         CY_CLK_PLL_CFG1_REG = (CY_CLK_PLL_CFG1_REG & CY_CLK_PLL_CURRENT_MASK) |
 273              		.loc 1 198 0
 274 0018 5970     		strb	r1, [r3, #1]
 199:Generated_Source\PSoC5/CyLib.c ****                                 ((uint8)(((uint8)(current - 1u)) << CY_CLK_PLL_CURRENT_POSITION));
 275              		.loc 1 199 0
 276 001a 0549     		ldr	r1, .L29+4
 277 001c 0B78     		ldrb	r3, [r1]	@ zero_extendqisi2
 278 001e 03F08F03 		and	r3, r3, #143
 279 0022 43EA0213 		orr	r3, r3, r2, lsl #4
 280 0026 DBB2     		uxtb	r3, r3
 281 0028 0B70     		strb	r3, [r1]
 282              	.L27:
 283 002a 7047     		bx	lr
 284              	.L30:
 285              		.align	2
 286              	.L29:
 287 002c 22420040 		.word	1073758754
 288 0030 21420040 		.word	1073758753
 289              		.cfi_endproc
 290              	.LFE2:
 291              		.size	CyPLL_OUT_SetPQ, .-CyPLL_OUT_SetPQ
 292              		.section	.text.CyPLL_OUT_SetSource,"ax",%progbits
 293              		.align	1
 294              		.global	CyPLL_OUT_SetSource
 295              		.thumb
 296              		.thumb_func
 297              		.type	CyPLL_OUT_SetSource, %function
 298              	CyPLL_OUT_SetSource:
 299              	.LFB3:
 238:Generated_Source\PSoC5/CyLib.c ****     /* Halt CPU in debug mode if PLL is enabled */
 300              		.loc 1 238 0
 301              		.cfi_startproc
 302              		@ args = 0, pretend = 0, frame = 0
 303              		@ frame_needed = 0, uses_anonymous_args = 0
 304              		@ link register save eliminated.
 305              	.LVL8:
 242:Generated_Source\PSoC5/CyLib.c ****     {
 306              		.loc 1 242 0
 307 0000 0228     		cmp	r0, #2
 308 0002 06D8     		bhi	.L31
 247:Generated_Source\PSoC5/CyLib.c ****         break;
 309              		.loc 1 247 0
ARM GAS  C:\Users\aupen\AppData\Local\Temp\cceqDgz4.s 			page 20


 310 0004 4FF04022 		mov	r2, #1073758208
 311 0008 1378     		ldrb	r3, [r2]	@ zero_extendqisi2
 312 000a 03F0FC03 		and	r3, r3, #252
 313 000e 1843     		orrs	r0, r0, r3
 314              	.LVL9:
 315 0010 1070     		strb	r0, [r2]
 316              	.L31:
 317 0012 7047     		bx	lr
 318              		.cfi_endproc
 319              	.LFE3:
 320              		.size	CyPLL_OUT_SetSource, .-CyPLL_OUT_SetSource
 321              		.section	.text.CyIMO_Stop,"ax",%progbits
 322              		.align	1
 323              		.global	CyIMO_Stop
 324              		.thumb
 325              		.thumb_func
 326              		.type	CyIMO_Stop, %function
 327              	CyIMO_Stop:
 328              	.LFB5:
 325:Generated_Source\PSoC5/CyLib.c ****     CY_LIB_PM_ACT_CFG0_REG  &= ((uint8) (~CY_LIB_PM_ACT_CFG0_IMO_EN));
 329              		.loc 1 325 0
 330              		.cfi_startproc
 331              		@ args = 0, pretend = 0, frame = 0
 332              		@ frame_needed = 0, uses_anonymous_args = 0
 333              		@ link register save eliminated.
 326:Generated_Source\PSoC5/CyLib.c ****     CY_LIB_PM_STBY_CFG0_REG &= ((uint8) (~CY_LIB_PM_STBY_CFG0_IMO_EN));
 334              		.loc 1 326 0
 335 0000 044A     		ldr	r2, .L35
 336 0002 1378     		ldrb	r3, [r2]	@ zero_extendqisi2
 337 0004 03F0EF03 		and	r3, r3, #239
 338 0008 1370     		strb	r3, [r2]
 327:Generated_Source\PSoC5/CyLib.c **** }
 339              		.loc 1 327 0
 340 000a 137C     		ldrb	r3, [r2, #16]	@ zero_extendqisi2
 341 000c 03F0EF03 		and	r3, r3, #239
 342 0010 1374     		strb	r3, [r2, #16]
 343 0012 7047     		bx	lr
 344              	.L36:
 345              		.align	2
 346              	.L35:
 347 0014 A0430040 		.word	1073759136
 348              		.cfi_endproc
 349              	.LFE5:
 350              		.size	CyIMO_Stop, .-CyIMO_Stop
 351              		.section	.text.CyIMO_SetSource,"ax",%progbits
 352              		.align	1
 353              		.global	CyIMO_SetSource
 354              		.thumb
 355              		.thumb_func
 356              		.type	CyIMO_SetSource, %function
 357              	CyIMO_SetSource:
 358              	.LFB9:
 608:Generated_Source\PSoC5/CyLib.c ****     switch(source)
 359              		.loc 1 608 0
 360              		.cfi_startproc
 361              		@ args = 0, pretend = 0, frame = 0
 362              		@ frame_needed = 0, uses_anonymous_args = 0
ARM GAS  C:\Users\aupen\AppData\Local\Temp\cceqDgz4.s 			page 21


 363              		@ link register save eliminated.
 364              	.LVL10:
 609:Generated_Source\PSoC5/CyLib.c ****     {
 365              		.loc 1 609 0
 366 0000 0128     		cmp	r0, #1
 367 0002 08D0     		beq	.L39
 368 0004 14D3     		bcc	.L40
 369 0006 0228     		cmp	r0, #2
 370 0008 17D1     		bne	.L37
 612:Generated_Source\PSoC5/CyLib.c ****         CY_LIB_FASTCLK_IMO_CR_REG |= CY_LIB_FASTCLK_IMO_IMO;
 371              		.loc 1 612 0
 372 000a 4FF04022 		mov	r2, #1073758208
 373 000e 1378     		ldrb	r3, [r2]	@ zero_extendqisi2
 374 0010 03F0BF03 		and	r3, r3, #191
 375 0014 04E0     		b	.L42
 376              	.L39:
 617:Generated_Source\PSoC5/CyLib.c ****         CY_LIB_FASTCLK_IMO_CR_REG |= CY_LIB_FASTCLK_IMO_IMO;
 377              		.loc 1 617 0
 378 0016 4FF04022 		mov	r2, #1073758208
 379 001a 1378     		ldrb	r3, [r2]	@ zero_extendqisi2
 380 001c 43F04003 		orr	r3, r3, #64
 381              	.L42:
 382 0020 1370     		strb	r3, [r2]
 618:Generated_Source\PSoC5/CyLib.c ****         break;
 383              		.loc 1 618 0
 384 0022 92F80032 		ldrb	r3, [r2, #512]	@ zero_extendqisi2
 385 0026 43F02003 		orr	r3, r3, #32
 386 002a 82F80032 		strb	r3, [r2, #512]
 619:Generated_Source\PSoC5/CyLib.c **** 
 387              		.loc 1 619 0
 388 002e 7047     		bx	lr
 389              	.L40:
 622:Generated_Source\PSoC5/CyLib.c ****         break;
 390              		.loc 1 622 0
 391 0030 024A     		ldr	r2, .L43
 392 0032 1378     		ldrb	r3, [r2]	@ zero_extendqisi2
 393 0034 03F0DF03 		and	r3, r3, #223
 394 0038 1370     		strb	r3, [r2]
 395              	.L37:
 396 003a 7047     		bx	lr
 397              	.L44:
 398              		.align	2
 399              	.L43:
 400 003c 00420040 		.word	1073758720
 401              		.cfi_endproc
 402              	.LFE9:
 403              		.size	CyIMO_SetSource, .-CyIMO_SetSource
 404              		.section	.text.CyIMO_EnableDoubler,"ax",%progbits
 405              		.align	1
 406              		.global	CyIMO_EnableDoubler
 407              		.thumb
 408              		.thumb_func
 409              		.type	CyIMO_EnableDoubler, %function
 410              	CyIMO_EnableDoubler:
 411              	.LFB10:
 642:Generated_Source\PSoC5/CyLib.c ****     /* Set FASTCLK_IMO_CR_PTR regigster's 4th bit */
 412              		.loc 1 642 0
ARM GAS  C:\Users\aupen\AppData\Local\Temp\cceqDgz4.s 			page 22


 413              		.cfi_startproc
 414              		@ args = 0, pretend = 0, frame = 0
 415              		@ frame_needed = 0, uses_anonymous_args = 0
 416              		@ link register save eliminated.
 644:Generated_Source\PSoC5/CyLib.c **** }
 417              		.loc 1 644 0
 418 0000 024A     		ldr	r2, .L46
 419 0002 1378     		ldrb	r3, [r2]	@ zero_extendqisi2
 420 0004 43F01003 		orr	r3, r3, #16
 421 0008 1370     		strb	r3, [r2]
 422 000a 7047     		bx	lr
 423              	.L47:
 424              		.align	2
 425              	.L46:
 426 000c 00420040 		.word	1073758720
 427              		.cfi_endproc
 428              	.LFE10:
 429              		.size	CyIMO_EnableDoubler, .-CyIMO_EnableDoubler
 430              		.section	.text.CyIMO_DisableDoubler,"ax",%progbits
 431              		.align	1
 432              		.global	CyIMO_DisableDoubler
 433              		.thumb
 434              		.thumb_func
 435              		.type	CyIMO_DisableDoubler, %function
 436              	CyIMO_DisableDoubler:
 437              	.LFB11:
 656:Generated_Source\PSoC5/CyLib.c ****     CY_LIB_FASTCLK_IMO_CR_REG &= ((uint8)(~CY_LIB_FASTCLK_IMO_DOUBLER));
 438              		.loc 1 656 0
 439              		.cfi_startproc
 440              		@ args = 0, pretend = 0, frame = 0
 441              		@ frame_needed = 0, uses_anonymous_args = 0
 442              		@ link register save eliminated.
 657:Generated_Source\PSoC5/CyLib.c **** }
 443              		.loc 1 657 0
 444 0000 024A     		ldr	r2, .L49
 445 0002 1378     		ldrb	r3, [r2]	@ zero_extendqisi2
 446 0004 03F0EF03 		and	r3, r3, #239
 447 0008 1370     		strb	r3, [r2]
 448 000a 7047     		bx	lr
 449              	.L50:
 450              		.align	2
 451              	.L49:
 452 000c 00420040 		.word	1073758720
 453              		.cfi_endproc
 454              	.LFE11:
 455              		.size	CyIMO_DisableDoubler, .-CyIMO_DisableDoubler
 456              		.section	.text.CyIMO_SetFreq,"ax",%progbits
 457              		.align	1
 458              		.global	CyIMO_SetFreq
 459              		.thumb
 460              		.thumb_func
 461              		.type	CyIMO_SetFreq, %function
 462              	CyIMO_SetFreq:
 463              	.LFB8:
 458:Generated_Source\PSoC5/CyLib.c ****     uint8 currentFreq;
 464              		.loc 1 458 0
 465              		.cfi_startproc
ARM GAS  C:\Users\aupen\AppData\Local\Temp\cceqDgz4.s 			page 23


 466              		@ args = 0, pretend = 0, frame = 0
 467              		@ frame_needed = 0, uses_anonymous_args = 0
 468              	.LVL11:
 469 0000 F8B5     		push	{r3, r4, r5, r6, r7, lr}
 470              		.cfi_def_cfa_offset 24
 471              		.cfi_offset 3, -24
 472              		.cfi_offset 4, -20
 473              		.cfi_offset 5, -16
 474              		.cfi_offset 6, -12
 475              		.cfi_offset 7, -8
 476              		.cfi_offset 14, -4
 469:Generated_Source\PSoC5/CyLib.c **** 
 477              		.loc 1 469 0
 478 0002 314C     		ldr	r4, .L81
 472:Generated_Source\PSoC5/CyLib.c **** 
 479              		.loc 1 472 0
 480 0004 0828     		cmp	r0, #8
 469:Generated_Source\PSoC5/CyLib.c **** 
 481              		.loc 1 469 0
 482 0006 2578     		ldrb	r5, [r4]	@ zero_extendqisi2
 458:Generated_Source\PSoC5/CyLib.c ****     uint8 currentFreq;
 483              		.loc 1 458 0
 484 0008 0646     		mov	r6, r0
 469:Generated_Source\PSoC5/CyLib.c **** 
 485              		.loc 1 469 0
 486 000a 05F00705 		and	r5, r5, #7
 487              	.LVL12:
 472:Generated_Source\PSoC5/CyLib.c **** 
 488              		.loc 1 472 0
 489 000e 14BF     		ite	ne
 490 0010 0746     		movne	r7, r0
 491 0012 0327     		moveq	r7, #3
 492              	.LVL13:
 474:Generated_Source\PSoC5/CyLib.c ****     {
 493              		.loc 1 474 0
 494 0014 062D     		cmp	r5, #6
 495 0016 08D8     		bhi	.L54
 496 0018 DFE805F0 		tbb	[pc, r5]
 497              	.L55:
 498 001c 06       		.byte	(.L78-.L55)/2
 499 001d 07       		.byte	(.L54-.L55)/2
 500 001e 04       		.byte	(.L57-.L55)/2
 501 001f 0A       		.byte	(.L79-.L55)/2
 502 0020 07       		.byte	(.L54-.L55)/2
 503 0021 07       		.byte	(.L54-.L55)/2
 504 0022 07       		.byte	(.L54-.L55)/2
 505 0023 00       		.p2align 1
 506              	.L57:
 507              	.LVL14:
 485:Generated_Source\PSoC5/CyLib.c ****         break;
 508              		.loc 1 485 0
 509 0024 0325     		movs	r5, #3
 486:Generated_Source\PSoC5/CyLib.c **** 
 510              		.loc 1 486 0
 511 0026 00E0     		b	.L54
 512              	.LVL15:
 513              	.L78:
ARM GAS  C:\Users\aupen\AppData\Local\Temp\cceqDgz4.s 			page 24


 477:Generated_Source\PSoC5/CyLib.c ****         break;
 514              		.loc 1 477 0
 515 0028 0225     		movs	r5, #2
 516              	.LVL16:
 517              	.L54:
 511:Generated_Source\PSoC5/CyLib.c ****     {
 518              		.loc 1 511 0
 519 002a BD42     		cmp	r5, r7
 520 002c 04D8     		bhi	.L62
 521 002e 00E0     		b	.L58
 522              	.L79:
 489:Generated_Source\PSoC5/CyLib.c ****         break;
 523              		.loc 1 489 0
 524 0030 0025     		movs	r5, #0
 525              	.LVL17:
 526              	.L58:
 514:Generated_Source\PSoC5/CyLib.c ****     }
 527              		.loc 1 514 0
 528 0032 3046     		mov	r0, r6
 529              	.LVL18:
 530 0034 FFF7FEFF 		bl	CyIMO_SetTrimValue
 531              	.LVL19:
 532              	.L62:
 518:Generated_Source\PSoC5/CyLib.c ****     {
 533              		.loc 1 518 0
 534 0038 082E     		cmp	r6, #8
 535 003a 36D8     		bhi	.L63
 536 003c DFE806F0 		tbb	[pc, r6]
 537              	.L65:
 538 0040 05       		.byte	(.L64-.L65)/2
 539 0041 0B       		.byte	(.L66-.L65)/2
 540 0042 11       		.byte	(.L67-.L65)/2
 541 0043 15       		.byte	(.L68-.L65)/2
 542 0044 1B       		.byte	(.L69-.L65)/2
 543 0045 21       		.byte	(.L70-.L65)/2
 544 0046 27       		.byte	(.L71-.L65)/2
 545 0047 35       		.byte	(.L63-.L65)/2
 546 0048 2E       		.byte	(.L72-.L65)/2
 547 0049 00       		.p2align 1
 548              	.L64:
 521:Generated_Source\PSoC5/CyLib.c ****             CY_LIB_IMO_3MHZ_VALUE) & ((uint8)(~CY_LIB_IMO_USBCLK_ON_SET));
 549              		.loc 1 521 0
 550 004a 2378     		ldrb	r3, [r4]	@ zero_extendqisi2
 551 004c 03F0B803 		and	r3, r3, #184
 552 0050 43F00303 		orr	r3, r3, #3
 553 0054 20E0     		b	.L80
 554              	.L66:
 526:Generated_Source\PSoC5/CyLib.c ****             CY_LIB_IMO_6MHZ_VALUE) & ((uint8)(~CY_LIB_IMO_USBCLK_ON_SET));
 555              		.loc 1 526 0
 556 0056 2378     		ldrb	r3, [r4]	@ zero_extendqisi2
 557 0058 03F0B803 		and	r3, r3, #184
 558 005c 43F00103 		orr	r3, r3, #1
 559 0060 1AE0     		b	.L80
 560              	.L67:
 531:Generated_Source\PSoC5/CyLib.c ****             CY_LIB_IMO_12MHZ_VALUE) & ((uint8)(~CY_LIB_IMO_USBCLK_ON_SET));
 561              		.loc 1 531 0
 562 0062 2378     		ldrb	r3, [r4]	@ zero_extendqisi2
ARM GAS  C:\Users\aupen\AppData\Local\Temp\cceqDgz4.s 			page 25


 563 0064 03F0B803 		and	r3, r3, #184
 564 0068 16E0     		b	.L80
 565              	.L68:
 536:Generated_Source\PSoC5/CyLib.c ****             CY_LIB_IMO_24MHZ_VALUE) & ((uint8)(~CY_LIB_IMO_USBCLK_ON_SET));
 566              		.loc 1 536 0
 567 006a 2378     		ldrb	r3, [r4]	@ zero_extendqisi2
 568 006c 03F0B803 		and	r3, r3, #184
 569 0070 43F00203 		orr	r3, r3, #2
 570 0074 10E0     		b	.L80
 571              	.L69:
 541:Generated_Source\PSoC5/CyLib.c ****             CY_LIB_IMO_48MHZ_VALUE) & ((uint8)(~CY_LIB_IMO_USBCLK_ON_SET));
 572              		.loc 1 541 0
 573 0076 2378     		ldrb	r3, [r4]	@ zero_extendqisi2
 574 0078 03F0B803 		and	r3, r3, #184
 575 007c 43F00403 		orr	r3, r3, #4
 576 0080 0AE0     		b	.L80
 577              	.L70:
 546:Generated_Source\PSoC5/CyLib.c ****             CY_LIB_IMO_62MHZ_VALUE) & ((uint8)(~CY_LIB_IMO_USBCLK_ON_SET));
 578              		.loc 1 546 0
 579 0082 2378     		ldrb	r3, [r4]	@ zero_extendqisi2
 580 0084 03F0B803 		and	r3, r3, #184
 581 0088 43F00503 		orr	r3, r3, #5
 582 008c 04E0     		b	.L80
 583              	.L71:
 552:Generated_Source\PSoC5/CyLib.c ****             CY_LIB_IMO_74MHZ_VALUE) & ((uint8)(~CY_LIB_IMO_USBCLK_ON_SET));
 584              		.loc 1 552 0
 585 008e 2378     		ldrb	r3, [r4]	@ zero_extendqisi2
 586 0090 03F0B803 		and	r3, r3, #184
 587 0094 43F00603 		orr	r3, r3, #6
 588              	.L80:
 589 0098 2370     		strb	r3, [r4]
 554:Generated_Source\PSoC5/CyLib.c **** #endif  /* (CY_PSOC5) */
 590              		.loc 1 554 0
 591 009a 11E0     		b	.L73
 592              	.L72:
 558:Generated_Source\PSoC5/CyLib.c ****             CY_LIB_IMO_24MHZ_VALUE) | CY_LIB_IMO_USBCLK_ON_SET;
 593              		.loc 1 558 0
 594 009c 2378     		ldrb	r3, [r4]	@ zero_extendqisi2
 595 009e 03F0B803 		and	r3, r3, #184
 596 00a2 43F04203 		orr	r3, r3, #66
 597 00a6 2370     		strb	r3, [r4]
 598 00a8 01E0     		b	.L74
 599              	.L63:
 568:Generated_Source\PSoC5/CyLib.c ****     {
 600              		.loc 1 568 0
 601 00aa 082E     		cmp	r6, #8
 602 00ac 08D1     		bne	.L73
 603              	.L74:
 570:Generated_Source\PSoC5/CyLib.c ****     }
 604              		.loc 1 570 0
 605 00ae FFF7FEFF 		bl	CyIMO_EnableDoubler
 606              	.LVL20:
 607              	.L76:
 577:Generated_Source\PSoC5/CyLib.c ****     {
 608              		.loc 1 577 0
 609 00b2 AF42     		cmp	r7, r5
 610 00b4 07D2     		bcs	.L51
ARM GAS  C:\Users\aupen\AppData\Local\Temp\cceqDgz4.s 			page 26


 580:Generated_Source\PSoC5/CyLib.c ****     }
 611              		.loc 1 580 0
 612 00b6 3046     		mov	r0, r6
 582:Generated_Source\PSoC5/CyLib.c **** 
 613              		.loc 1 582 0
 614 00b8 BDE8F840 		pop	{r3, r4, r5, r6, r7, lr}
 615              		.cfi_remember_state
 616              		.cfi_restore 14
 617              		.cfi_restore 7
 618              		.cfi_restore 6
 619              		.cfi_restore 5
 620              		.cfi_restore 4
 621              		.cfi_restore 3
 622              		.cfi_def_cfa_offset 0
 623              	.LVL21:
 580:Generated_Source\PSoC5/CyLib.c ****     }
 624              		.loc 1 580 0
 625 00bc FFF7FEBF 		b	CyIMO_SetTrimValue
 626              	.LVL22:
 627              	.L73:
 628              		.cfi_restore_state
 574:Generated_Source\PSoC5/CyLib.c ****     }
 629              		.loc 1 574 0
 630 00c0 FFF7FEFF 		bl	CyIMO_DisableDoubler
 631              	.LVL23:
 632 00c4 F5E7     		b	.L76
 633              	.L51:
 634 00c6 F8BD     		pop	{r3, r4, r5, r6, r7, pc}
 635              	.LVL24:
 636              	.L82:
 637              		.align	2
 638              	.L81:
 639 00c8 00420040 		.word	1073758720
 640              		.cfi_endproc
 641              	.LFE8:
 642              		.size	CyIMO_SetFreq, .-CyIMO_SetFreq
 643              		.section	.text.CyMasterClk_SetSource,"ax",%progbits
 644              		.align	1
 645              		.global	CyMasterClk_SetSource
 646              		.thumb
 647              		.thumb_func
 648              		.type	CyMasterClk_SetSource, %function
 649              	CyMasterClk_SetSource:
 650              	.LFB12:
 686:Generated_Source\PSoC5/CyLib.c ****     CY_LIB_CLKDIST_MSTR1_REG = (CY_LIB_CLKDIST_MSTR1_REG & MASTER_CLK_SRC_CLEAR) |
 651              		.loc 1 686 0
 652              		.cfi_startproc
 653              		@ args = 0, pretend = 0, frame = 0
 654              		@ frame_needed = 0, uses_anonymous_args = 0
 655              		@ link register save eliminated.
 656              	.LVL25:
 687:Generated_Source\PSoC5/CyLib.c ****                                 (source & ((uint8)(~MASTER_CLK_SRC_CLEAR)));
 657              		.loc 1 687 0
 658 0000 044A     		ldr	r2, .L84
 659 0002 00F00300 		and	r0, r0, #3
 660              	.LVL26:
 661 0006 1378     		ldrb	r3, [r2]	@ zero_extendqisi2
ARM GAS  C:\Users\aupen\AppData\Local\Temp\cceqDgz4.s 			page 27


 662 0008 03F0FC03 		and	r3, r3, #252
 663 000c 1843     		orrs	r0, r0, r3
 664 000e 1070     		strb	r0, [r2]
 665 0010 7047     		bx	lr
 666              	.L85:
 667 0012 00BF     		.align	2
 668              	.L84:
 669 0014 05400040 		.word	1073758213
 670              		.cfi_endproc
 671              	.LFE12:
 672              		.size	CyMasterClk_SetSource, .-CyMasterClk_SetSource
 673              		.section	.text.CyMasterClk_SetDivider,"ax",%progbits
 674              		.align	1
 675              		.global	CyMasterClk_SetDivider
 676              		.thumb
 677              		.thumb_func
 678              		.type	CyMasterClk_SetDivider, %function
 679              	CyMasterClk_SetDivider:
 680              	.LFB13:
 716:Generated_Source\PSoC5/CyLib.c ****     CY_LIB_CLKDIST_MSTR0_REG = divider;
 681              		.loc 1 716 0
 682              		.cfi_startproc
 683              		@ args = 0, pretend = 0, frame = 0
 684              		@ frame_needed = 0, uses_anonymous_args = 0
 685              		@ link register save eliminated.
 686              	.LVL27:
 717:Generated_Source\PSoC5/CyLib.c **** }
 687              		.loc 1 717 0
 688 0000 014B     		ldr	r3, .L87
 689 0002 1870     		strb	r0, [r3]
 690 0004 7047     		bx	lr
 691              	.L88:
 692 0006 00BF     		.align	2
 693              	.L87:
 694 0008 04400040 		.word	1073758212
 695              		.cfi_endproc
 696              	.LFE13:
 697              		.size	CyMasterClk_SetDivider, .-CyMasterClk_SetDivider
 698              		.section	.text.CyBusClk_SetDivider,"ax",%progbits
 699              		.align	1
 700              		.global	CyBusClk_SetDivider
 701              		.thumb
 702              		.thumb_func
 703              		.type	CyBusClk_SetDivider, %function
 704              	CyBusClk_SetDivider:
 705              	.LFB15:
 753:Generated_Source\PSoC5/CyLib.c **** }
 754:Generated_Source\PSoC5/CyLib.c **** 
 755:Generated_Source\PSoC5/CyLib.c **** 
 756:Generated_Source\PSoC5/CyLib.c **** /*******************************************************************************
 757:Generated_Source\PSoC5/CyLib.c **** * Function Name: CyBusClk_SetDivider
 758:Generated_Source\PSoC5/CyLib.c **** ****************************************************************************//**
 759:Generated_Source\PSoC5/CyLib.c **** *
 760:Generated_Source\PSoC5/CyLib.c **** *  Sets the divider value used to generate the Bus Clock.
 761:Generated_Source\PSoC5/CyLib.c **** *
 762:Generated_Source\PSoC5/CyLib.c **** *  \param divider: Valid range [0-65535]. The clock will be divided by this value + 1.
 763:Generated_Source\PSoC5/CyLib.c **** *  For example, to divide this parameter by two should be set to 1.
ARM GAS  C:\Users\aupen\AppData\Local\Temp\cceqDgz4.s 			page 28


 764:Generated_Source\PSoC5/CyLib.c **** *
 765:Generated_Source\PSoC5/CyLib.c **** * \sideeffect
 766:Generated_Source\PSoC5/CyLib.c **** *  If this function execution resulted in the CPU clock frequency increasing,
 767:Generated_Source\PSoC5/CyLib.c **** *  then the number of clock cycles the cache will wait before it samples data
 768:Generated_Source\PSoC5/CyLib.c **** *  coming back from the Flash must be adjusted by calling
 769:Generated_Source\PSoC5/CyLib.c **** *  CyFlash_SetWaitCycles() with an appropriate parameter. It can be optionally
 770:Generated_Source\PSoC5/CyLib.c **** *  called if the CPU clock frequency is lowered in order to improve the CPU
 771:Generated_Source\PSoC5/CyLib.c **** *  performance. See CyFlash_SetWaitCycles() description for more information.
 772:Generated_Source\PSoC5/CyLib.c **** *
 773:Generated_Source\PSoC5/CyLib.c **** *******************************************************************************/
 774:Generated_Source\PSoC5/CyLib.c **** void CyBusClk_SetDivider(uint16 divider) 
 775:Generated_Source\PSoC5/CyLib.c **** {
 706              		.loc 1 775 0
 707              		.cfi_startproc
 708              		@ args = 0, pretend = 0, frame = 0
 709              		@ frame_needed = 0, uses_anonymous_args = 0
 710              	.LVL28:
 711 0000 70B5     		push	{r4, r5, r6, lr}
 712              		.cfi_def_cfa_offset 16
 713              		.cfi_offset 4, -16
 714              		.cfi_offset 5, -12
 715              		.cfi_offset 6, -8
 716              		.cfi_offset 14, -4
 717              		.loc 1 775 0
 718 0002 0446     		mov	r4, r0
 776:Generated_Source\PSoC5/CyLib.c ****     uint8  masterClkDiv;
 777:Generated_Source\PSoC5/CyLib.c ****     uint16 busClkDiv;
 778:Generated_Source\PSoC5/CyLib.c ****     uint8 interruptState;
 779:Generated_Source\PSoC5/CyLib.c **** 
 780:Generated_Source\PSoC5/CyLib.c ****     interruptState = CyEnterCriticalSection();
 719              		.loc 1 780 0
 720 0004 FFF7FEFF 		bl	CyEnterCriticalSection
 721              	.LVL29:
 781:Generated_Source\PSoC5/CyLib.c **** 
 782:Generated_Source\PSoC5/CyLib.c ****     /* Work around to set bus clock divider value */
 783:Generated_Source\PSoC5/CyLib.c ****     busClkDiv = (uint16)((uint16)CY_LIB_CLKDIST_BCFG_MSB_REG << 8u);
 722              		.loc 1 783 0
 723 0008 164B     		ldr	r3, .L99
 780:Generated_Source\PSoC5/CyLib.c **** 
 724              		.loc 1 780 0
 725 000a 0646     		mov	r6, r0
 726              	.LVL30:
 727              		.loc 1 783 0
 728 000c 1A78     		ldrb	r2, [r3]	@ zero_extendqisi2
 784:Generated_Source\PSoC5/CyLib.c ****     busClkDiv |= CY_LIB_CLKDIST_BCFG_LSB_REG;
 729              		.loc 1 784 0
 730 000e 013B     		subs	r3, r3, #1
 731 0010 1B78     		ldrb	r3, [r3]	@ zero_extendqisi2
 783:Generated_Source\PSoC5/CyLib.c ****     busClkDiv |= CY_LIB_CLKDIST_BCFG_LSB_REG;
 732              		.loc 1 783 0
 733 0012 D2B2     		uxtb	r2, r2
 734              	.LVL31:
 735              		.loc 1 784 0
 736 0014 DBB2     		uxtb	r3, r3
 737              	.LVL32:
 785:Generated_Source\PSoC5/CyLib.c **** 
 786:Generated_Source\PSoC5/CyLib.c ****     if ((divider == 0u) || (busClkDiv == 0u))
ARM GAS  C:\Users\aupen\AppData\Local\Temp\cceqDgz4.s 			page 29


 738              		.loc 1 786 0
 739 0016 14B1     		cbz	r4, .L90
 740              		.loc 1 786 0 is_stmt 0 discriminator 1
 741 0018 53EA0223 		orrs	r3, r3, r2, lsl #8
 742              	.LVL33:
 743 001c 1AD1     		bne	.L91
 744              	.L90:
 787:Generated_Source\PSoC5/CyLib.c ****     {
 788:Generated_Source\PSoC5/CyLib.c ****         /* Save away master clock divider value */
 789:Generated_Source\PSoC5/CyLib.c ****         masterClkDiv = CY_LIB_CLKDIST_MSTR0_REG;
 745              		.loc 1 789 0 is_stmt 1
 746 001e 124B     		ldr	r3, .L99+4
 747 0020 124D     		ldr	r5, .L99+8
 748 0022 1978     		ldrb	r1, [r3]	@ zero_extendqisi2
 749 0024 C9B2     		uxtb	r1, r1
 750              	.LVL34:
 790:Generated_Source\PSoC5/CyLib.c **** 
 791:Generated_Source\PSoC5/CyLib.c ****         if (masterClkDiv < CY_LIB_CLKDIST_MASTERCLK_DIV)
 751              		.loc 1 791 0
 752 0026 0629     		cmp	r1, #6
 753              	.LVL35:
 754              	.LBB18:
 755              	.LBB19:
 717:Generated_Source\PSoC5/CyLib.c **** }
 756              		.loc 1 717 0
 757 0028 9CBF     		itt	ls
 758 002a 0722     		movls	r2, #7
 759 002c 1A70     		strbls	r2, [r3]
 760              	.LBE19:
 761              	.LBE18:
 792:Generated_Source\PSoC5/CyLib.c ****         {
 793:Generated_Source\PSoC5/CyLib.c ****             /* Set master clock divider to 7 */
 794:Generated_Source\PSoC5/CyLib.c ****             CyMasterClk_SetDivider(CY_LIB_CLKDIST_MASTERCLK_DIV);
 795:Generated_Source\PSoC5/CyLib.c ****         }
 796:Generated_Source\PSoC5/CyLib.c **** 
 797:Generated_Source\PSoC5/CyLib.c ****         if (divider == 0u)
 762              		.loc 1 797 0
 763 002e 3CB9     		cbnz	r4, .L93
 798:Generated_Source\PSoC5/CyLib.c ****         {
 799:Generated_Source\PSoC5/CyLib.c ****             /* Set SSS bit and divider register desired value */
 800:Generated_Source\PSoC5/CyLib.c ****             CY_LIB_CLKDIST_BCFG2_REG |= CY_LIB_CLKDIST_BCFG2_SSS;
 764              		.loc 1 800 0
 765 0030 2B78     		ldrb	r3, [r5]	@ zero_extendqisi2
 801:Generated_Source\PSoC5/CyLib.c ****             CyBusClk_Internal_SetDivider(divider);
 766              		.loc 1 801 0
 767 0032 2046     		mov	r0, r4
 800:Generated_Source\PSoC5/CyLib.c ****             CyBusClk_Internal_SetDivider(divider);
 768              		.loc 1 800 0
 769 0034 43F04003 		orr	r3, r3, #64
 770 0038 2B70     		strb	r3, [r5]
 771              		.loc 1 801 0
 772 003a FFF7FEFF 		bl	CyBusClk_Internal_SetDivider
 773              	.LVL36:
 774 003e 06E0     		b	.L94
 775              	.LVL37:
 776              	.L93:
 802:Generated_Source\PSoC5/CyLib.c ****         }
ARM GAS  C:\Users\aupen\AppData\Local\Temp\cceqDgz4.s 			page 30


 803:Generated_Source\PSoC5/CyLib.c ****         else
 804:Generated_Source\PSoC5/CyLib.c ****         {
 805:Generated_Source\PSoC5/CyLib.c ****             CyBusClk_Internal_SetDivider(divider);
 777              		.loc 1 805 0
 778 0040 2046     		mov	r0, r4
 779 0042 FFF7FEFF 		bl	CyBusClk_Internal_SetDivider
 780              	.LVL38:
 806:Generated_Source\PSoC5/CyLib.c ****             CY_LIB_CLKDIST_BCFG2_REG &= ((uint8)(~CY_LIB_CLKDIST_BCFG2_SSS));
 781              		.loc 1 806 0
 782 0046 2B78     		ldrb	r3, [r5]	@ zero_extendqisi2
 783 0048 03F0BF03 		and	r3, r3, #191
 784 004c 2B70     		strb	r3, [r5]
 785              	.L94:
 786              	.LVL39:
 787              	.LBB20:
 788              	.LBB21:
 717:Generated_Source\PSoC5/CyLib.c **** }
 789              		.loc 1 717 0
 790 004e 064B     		ldr	r3, .L99+4
 791 0050 1970     		strb	r1, [r3]
 792 0052 02E0     		b	.L95
 793              	.LVL40:
 794              	.L91:
 795              	.LBE21:
 796              	.LBE20:
 807:Generated_Source\PSoC5/CyLib.c ****         }
 808:Generated_Source\PSoC5/CyLib.c **** 
 809:Generated_Source\PSoC5/CyLib.c ****         /* Restore master clock */
 810:Generated_Source\PSoC5/CyLib.c ****         CyMasterClk_SetDivider(masterClkDiv);
 811:Generated_Source\PSoC5/CyLib.c ****     }
 812:Generated_Source\PSoC5/CyLib.c ****     else
 813:Generated_Source\PSoC5/CyLib.c ****     {
 814:Generated_Source\PSoC5/CyLib.c ****         CyBusClk_Internal_SetDivider(divider);
 797              		.loc 1 814 0
 798 0054 2046     		mov	r0, r4
 799 0056 FFF7FEFF 		bl	CyBusClk_Internal_SetDivider
 800              	.LVL41:
 801              	.L95:
 815:Generated_Source\PSoC5/CyLib.c ****     }
 816:Generated_Source\PSoC5/CyLib.c **** 
 817:Generated_Source\PSoC5/CyLib.c ****     CyExitCriticalSection(interruptState);
 802              		.loc 1 817 0
 803 005a 3046     		mov	r0, r6
 818:Generated_Source\PSoC5/CyLib.c **** }
 804              		.loc 1 818 0
 805 005c BDE87040 		pop	{r4, r5, r6, lr}
 806              		.cfi_restore 14
 807              		.cfi_restore 6
 808              		.cfi_restore 5
 809              		.cfi_restore 4
 810              		.cfi_def_cfa_offset 0
 811              	.LVL42:
 817:Generated_Source\PSoC5/CyLib.c **** }
 812              		.loc 1 817 0
 813 0060 FFF7FEBF 		b	CyExitCriticalSection
 814              	.LVL43:
 815              	.L100:
ARM GAS  C:\Users\aupen\AppData\Local\Temp\cceqDgz4.s 			page 31


 816              		.align	2
 817              	.L99:
 818 0064 07400040 		.word	1073758215
 819 0068 04400040 		.word	1073758212
 820 006c 08400040 		.word	1073758216
 821              		.cfi_endproc
 822              	.LFE15:
 823              		.size	CyBusClk_SetDivider, .-CyBusClk_SetDivider
 824              		.section	.text.CyUsbClk_SetSource,"ax",%progbits
 825              		.align	1
 826              		.global	CyUsbClk_SetSource
 827              		.thumb
 828              		.thumb_func
 829              		.type	CyUsbClk_SetSource, %function
 830              	CyUsbClk_SetSource:
 831              	.LFB16:
 819:Generated_Source\PSoC5/CyLib.c **** 
 820:Generated_Source\PSoC5/CyLib.c **** 
 821:Generated_Source\PSoC5/CyLib.c **** #if(CY_PSOC3)
 822:Generated_Source\PSoC5/CyLib.c **** 
 823:Generated_Source\PSoC5/CyLib.c ****     /*******************************************************************************
 824:Generated_Source\PSoC5/CyLib.c ****     * Function Name: CyCpuClk_SetDivider
 825:Generated_Source\PSoC5/CyLib.c ****     ****************************************************************************//**
 826:Generated_Source\PSoC5/CyLib.c ****     *
 827:Generated_Source\PSoC5/CyLib.c ****     *  Sets the divider value used to generate the CPU Clock. Only applicable for
 828:Generated_Source\PSoC5/CyLib.c ****     *  PSoC 3 parts.
 829:Generated_Source\PSoC5/CyLib.c ****     *
 830:Generated_Source\PSoC5/CyLib.c ****     *  \param divider: Valid range [0-15]. The clock will be divided by this value + 1.
 831:Generated_Source\PSoC5/CyLib.c ****     *  For example, to divide this parameter by two should be set to 1.
 832:Generated_Source\PSoC5/CyLib.c ****     *
 833:Generated_Source\PSoC5/CyLib.c ****     * \sideeffect
 834:Generated_Source\PSoC5/CyLib.c ****     *  If this function execution resulted in the CPU clock frequency increasing,
 835:Generated_Source\PSoC5/CyLib.c ****     *  then the number of clock cycles the cache will wait before it samples data
 836:Generated_Source\PSoC5/CyLib.c ****     *  coming back from the Flash must be adjusted by calling
 837:Generated_Source\PSoC5/CyLib.c ****     *  CyFlash_SetWaitCycles() with an appropriate parameter. It can be optionally
 838:Generated_Source\PSoC5/CyLib.c ****     *  called if the CPU clock frequency is lowered in order to improve the CPU
 839:Generated_Source\PSoC5/CyLib.c ****     *  performance. See CyFlash_SetWaitCycles() description for more information.
 840:Generated_Source\PSoC5/CyLib.c ****     *
 841:Generated_Source\PSoC5/CyLib.c ****     *******************************************************************************/
 842:Generated_Source\PSoC5/CyLib.c ****     void CyCpuClk_SetDivider(uint8 divider) 
 843:Generated_Source\PSoC5/CyLib.c ****     {
 844:Generated_Source\PSoC5/CyLib.c ****             CY_LIB_CLKDIST_MSTR1_REG = (CY_LIB_CLKDIST_MSTR1_REG & CY_LIB_CLKDIST_MSTR1_DIV_MASK) |
 845:Generated_Source\PSoC5/CyLib.c ****                                 ((uint8)(divider << CY_LIB_CLKDIST_DIV_POSITION));
 846:Generated_Source\PSoC5/CyLib.c ****     }
 847:Generated_Source\PSoC5/CyLib.c **** 
 848:Generated_Source\PSoC5/CyLib.c **** #endif /* (CY_PSOC3) */
 849:Generated_Source\PSoC5/CyLib.c **** 
 850:Generated_Source\PSoC5/CyLib.c **** 
 851:Generated_Source\PSoC5/CyLib.c **** /*******************************************************************************
 852:Generated_Source\PSoC5/CyLib.c **** * Function Name: CyUsbClk_SetSource
 853:Generated_Source\PSoC5/CyLib.c **** ****************************************************************************//**
 854:Generated_Source\PSoC5/CyLib.c **** *
 855:Generated_Source\PSoC5/CyLib.c **** *  Sets the source of the USB clock.
 856:Generated_Source\PSoC5/CyLib.c **** *
 857:Generated_Source\PSoC5/CyLib.c **** *  \param source: One of the four available USB clock sources
 858:Generated_Source\PSoC5/CyLib.c **** *    CY_LIB_USB_CLK_IMO2X     - IMO 2x
 859:Generated_Source\PSoC5/CyLib.c **** *    CY_LIB_USB_CLK_IMO       - IMO
ARM GAS  C:\Users\aupen\AppData\Local\Temp\cceqDgz4.s 			page 32


 860:Generated_Source\PSoC5/CyLib.c **** *    CY_LIB_USB_CLK_PLL       - PLL
 861:Generated_Source\PSoC5/CyLib.c **** *    CY_LIB_USB_CLK_DSI       - DSI
 862:Generated_Source\PSoC5/CyLib.c **** *
 863:Generated_Source\PSoC5/CyLib.c **** *******************************************************************************/
 864:Generated_Source\PSoC5/CyLib.c **** void CyUsbClk_SetSource(uint8 source) 
 865:Generated_Source\PSoC5/CyLib.c **** {
 832              		.loc 1 865 0
 833              		.cfi_startproc
 834              		@ args = 0, pretend = 0, frame = 0
 835              		@ frame_needed = 0, uses_anonymous_args = 0
 836              		@ link register save eliminated.
 837              	.LVL44:
 866:Generated_Source\PSoC5/CyLib.c ****     CY_LIB_CLKDIST_UCFG_REG = (CY_LIB_CLKDIST_UCFG_REG & ((uint8)(~CY_LIB_CLKDIST_UCFG_SRC_SEL_MASK
 838              		.loc 1 866 0
 839 0000 044A     		ldr	r2, .L102
 840 0002 00F00300 		and	r0, r0, #3
 841              	.LVL45:
 842 0006 1378     		ldrb	r3, [r2]	@ zero_extendqisi2
 843 0008 03F0FC03 		and	r3, r3, #252
 844 000c 1843     		orrs	r0, r0, r3
 845 000e 1070     		strb	r0, [r2]
 846 0010 7047     		bx	lr
 847              	.L103:
 848 0012 00BF     		.align	2
 849              	.L102:
 850 0014 09400040 		.word	1073758217
 851              		.cfi_endproc
 852              	.LFE16:
 853              		.size	CyUsbClk_SetSource, .-CyUsbClk_SetSource
 854              		.section	.text.CyILO_Start1K,"ax",%progbits
 855              		.align	1
 856              		.global	CyILO_Start1K
 857              		.thumb
 858              		.thumb_func
 859              		.type	CyILO_Start1K, %function
 860              	CyILO_Start1K:
 861              	.LFB17:
 867:Generated_Source\PSoC5/CyLib.c ****                         (CY_LIB_CLKDIST_UCFG_SRC_SEL_MASK & source);
 868:Generated_Source\PSoC5/CyLib.c **** }
 869:Generated_Source\PSoC5/CyLib.c **** 
 870:Generated_Source\PSoC5/CyLib.c **** 
 871:Generated_Source\PSoC5/CyLib.c **** /*******************************************************************************
 872:Generated_Source\PSoC5/CyLib.c **** * Function Name: CyILO_Start1K
 873:Generated_Source\PSoC5/CyLib.c **** ****************************************************************************//**
 874:Generated_Source\PSoC5/CyLib.c **** *
 875:Generated_Source\PSoC5/CyLib.c **** *  Enables the ILO 1 KHz oscillator.
 876:Generated_Source\PSoC5/CyLib.c **** *
 877:Generated_Source\PSoC5/CyLib.c **** *  Note The ILO 1 KHz oscillator is always enabled by default, regardless of the
 878:Generated_Source\PSoC5/CyLib.c **** *  selection in the Clock Editor. Therefore, this API is only needed if the
 879:Generated_Source\PSoC5/CyLib.c **** *  oscillator was turned off manually.
 880:Generated_Source\PSoC5/CyLib.c **** *
 881:Generated_Source\PSoC5/CyLib.c **** *******************************************************************************/
 882:Generated_Source\PSoC5/CyLib.c **** void CyILO_Start1K(void) 
 883:Generated_Source\PSoC5/CyLib.c **** {
 862              		.loc 1 883 0
 863              		.cfi_startproc
 864              		@ args = 0, pretend = 0, frame = 0
ARM GAS  C:\Users\aupen\AppData\Local\Temp\cceqDgz4.s 			page 33


 865              		@ frame_needed = 0, uses_anonymous_args = 0
 866              		@ link register save eliminated.
 884:Generated_Source\PSoC5/CyLib.c ****     /* Set bit 1 of ILO RS */
 885:Generated_Source\PSoC5/CyLib.c ****     CY_LIB_SLOWCLK_ILO_CR0_REG |= CY_LIB_SLOWCLK_ILO_CR0_EN_1KHZ;
 867              		.loc 1 885 0
 868 0000 024A     		ldr	r2, .L105
 869 0002 1378     		ldrb	r3, [r2]	@ zero_extendqisi2
 870 0004 43F00203 		orr	r3, r3, #2
 871 0008 1370     		strb	r3, [r2]
 872 000a 7047     		bx	lr
 873              	.L106:
 874              		.align	2
 875              	.L105:
 876 000c 00430040 		.word	1073758976
 877              		.cfi_endproc
 878              	.LFE17:
 879              		.size	CyILO_Start1K, .-CyILO_Start1K
 880              		.section	.text.CyILO_Stop1K,"ax",%progbits
 881              		.align	1
 882              		.global	CyILO_Stop1K
 883              		.thumb
 884              		.thumb_func
 885              		.type	CyILO_Stop1K, %function
 886              	CyILO_Stop1K:
 887              	.LFB18:
 886:Generated_Source\PSoC5/CyLib.c **** }
 887:Generated_Source\PSoC5/CyLib.c **** 
 888:Generated_Source\PSoC5/CyLib.c **** 
 889:Generated_Source\PSoC5/CyLib.c **** /*******************************************************************************
 890:Generated_Source\PSoC5/CyLib.c **** * Function Name: CyILO_Stop1K
 891:Generated_Source\PSoC5/CyLib.c **** ****************************************************************************//**
 892:Generated_Source\PSoC5/CyLib.c **** *
 893:Generated_Source\PSoC5/CyLib.c **** *  Disables the ILO 1 KHz oscillator.
 894:Generated_Source\PSoC5/CyLib.c **** *
 895:Generated_Source\PSoC5/CyLib.c **** *  Note The ILO 1 KHz oscillator must be enabled if the Sleep or Hibernate low
 896:Generated_Source\PSoC5/CyLib.c **** *  power mode APIs are expected to be used. For more information, refer to the
 897:Generated_Source\PSoC5/CyLib.c **** *  Power Management section of this document.
 898:Generated_Source\PSoC5/CyLib.c **** *
 899:Generated_Source\PSoC5/CyLib.c **** * \sideeffect
 900:Generated_Source\PSoC5/CyLib.c **** *  PSoC5: Stopping the ILO 1 kHz could break the active WDT functionality.
 901:Generated_Source\PSoC5/CyLib.c **** *
 902:Generated_Source\PSoC5/CyLib.c **** *******************************************************************************/
 903:Generated_Source\PSoC5/CyLib.c **** void CyILO_Stop1K(void) 
 904:Generated_Source\PSoC5/CyLib.c **** {
 888              		.loc 1 904 0
 889              		.cfi_startproc
 890              		@ args = 0, pretend = 0, frame = 0
 891              		@ frame_needed = 0, uses_anonymous_args = 0
 892              		@ link register save eliminated.
 905:Generated_Source\PSoC5/CyLib.c ****     /* Clear bit 1 of ILO RS */
 906:Generated_Source\PSoC5/CyLib.c ****     CY_LIB_SLOWCLK_ILO_CR0_REG &= ((uint8)(~CY_LIB_SLOWCLK_ILO_CR0_EN_1KHZ));
 893              		.loc 1 906 0
 894 0000 024A     		ldr	r2, .L108
 895 0002 1378     		ldrb	r3, [r2]	@ zero_extendqisi2
 896 0004 03F0FD03 		and	r3, r3, #253
 897 0008 1370     		strb	r3, [r2]
 898 000a 7047     		bx	lr
ARM GAS  C:\Users\aupen\AppData\Local\Temp\cceqDgz4.s 			page 34


 899              	.L109:
 900              		.align	2
 901              	.L108:
 902 000c 00430040 		.word	1073758976
 903              		.cfi_endproc
 904              	.LFE18:
 905              		.size	CyILO_Stop1K, .-CyILO_Stop1K
 906              		.section	.text.CyILO_Start100K,"ax",%progbits
 907              		.align	1
 908              		.global	CyILO_Start100K
 909              		.thumb
 910              		.thumb_func
 911              		.type	CyILO_Start100K, %function
 912              	CyILO_Start100K:
 913              	.LFB19:
 907:Generated_Source\PSoC5/CyLib.c **** }
 908:Generated_Source\PSoC5/CyLib.c **** 
 909:Generated_Source\PSoC5/CyLib.c **** 
 910:Generated_Source\PSoC5/CyLib.c **** /*******************************************************************************
 911:Generated_Source\PSoC5/CyLib.c **** * Function Name: CyILO_Start100K
 912:Generated_Source\PSoC5/CyLib.c **** ****************************************************************************//**
 913:Generated_Source\PSoC5/CyLib.c **** *
 914:Generated_Source\PSoC5/CyLib.c **** *  Enables the ILO 100 KHz oscillator.
 915:Generated_Source\PSoC5/CyLib.c **** *
 916:Generated_Source\PSoC5/CyLib.c **** *******************************************************************************/
 917:Generated_Source\PSoC5/CyLib.c **** void CyILO_Start100K(void) 
 918:Generated_Source\PSoC5/CyLib.c **** {
 914              		.loc 1 918 0
 915              		.cfi_startproc
 916              		@ args = 0, pretend = 0, frame = 0
 917              		@ frame_needed = 0, uses_anonymous_args = 0
 918              		@ link register save eliminated.
 919:Generated_Source\PSoC5/CyLib.c ****     CY_LIB_SLOWCLK_ILO_CR0_REG |= CY_LIB_SLOWCLK_ILO_CR0_EN_100KHZ;
 919              		.loc 1 919 0
 920 0000 024A     		ldr	r2, .L111
 921 0002 1378     		ldrb	r3, [r2]	@ zero_extendqisi2
 922 0004 43F00403 		orr	r3, r3, #4
 923 0008 1370     		strb	r3, [r2]
 924 000a 7047     		bx	lr
 925              	.L112:
 926              		.align	2
 927              	.L111:
 928 000c 00430040 		.word	1073758976
 929              		.cfi_endproc
 930              	.LFE19:
 931              		.size	CyILO_Start100K, .-CyILO_Start100K
 932              		.section	.text.CyILO_Stop100K,"ax",%progbits
 933              		.align	1
 934              		.global	CyILO_Stop100K
 935              		.thumb
 936              		.thumb_func
 937              		.type	CyILO_Stop100K, %function
 938              	CyILO_Stop100K:
 939              	.LFB20:
 920:Generated_Source\PSoC5/CyLib.c **** }
 921:Generated_Source\PSoC5/CyLib.c **** 
 922:Generated_Source\PSoC5/CyLib.c **** 
ARM GAS  C:\Users\aupen\AppData\Local\Temp\cceqDgz4.s 			page 35


 923:Generated_Source\PSoC5/CyLib.c **** /*******************************************************************************
 924:Generated_Source\PSoC5/CyLib.c **** * Function Name: CyILO_Stop100K
 925:Generated_Source\PSoC5/CyLib.c **** ****************************************************************************//**
 926:Generated_Source\PSoC5/CyLib.c **** *
 927:Generated_Source\PSoC5/CyLib.c **** *  Disables the ILO 100 KHz oscillator.
 928:Generated_Source\PSoC5/CyLib.c **** *
 929:Generated_Source\PSoC5/CyLib.c **** *******************************************************************************/
 930:Generated_Source\PSoC5/CyLib.c **** void CyILO_Stop100K(void) 
 931:Generated_Source\PSoC5/CyLib.c **** {
 940              		.loc 1 931 0
 941              		.cfi_startproc
 942              		@ args = 0, pretend = 0, frame = 0
 943              		@ frame_needed = 0, uses_anonymous_args = 0
 944              		@ link register save eliminated.
 932:Generated_Source\PSoC5/CyLib.c ****     CY_LIB_SLOWCLK_ILO_CR0_REG &= ((uint8)(~CY_LIB_SLOWCLK_ILO_CR0_EN_100KHZ));
 945              		.loc 1 932 0
 946 0000 024A     		ldr	r2, .L114
 947 0002 1378     		ldrb	r3, [r2]	@ zero_extendqisi2
 948 0004 03F0FB03 		and	r3, r3, #251
 949 0008 1370     		strb	r3, [r2]
 950 000a 7047     		bx	lr
 951              	.L115:
 952              		.align	2
 953              	.L114:
 954 000c 00430040 		.word	1073758976
 955              		.cfi_endproc
 956              	.LFE20:
 957              		.size	CyILO_Stop100K, .-CyILO_Stop100K
 958              		.section	.text.CyPLL_OUT_Start,"ax",%progbits
 959              		.align	1
 960              		.global	CyPLL_OUT_Start
 961              		.thumb
 962              		.thumb_func
 963              		.type	CyPLL_OUT_Start, %function
 964              	CyPLL_OUT_Start:
 965              	.LFB0:
  98:Generated_Source\PSoC5/CyLib.c ****     cystatus status = CYRET_SUCCESS;
 966              		.loc 1 98 0
 967              		.cfi_startproc
 968              		@ args = 0, pretend = 0, frame = 0
 969              		@ frame_needed = 0, uses_anonymous_args = 0
 970              	.LVL46:
 971 0000 2DE9F041 		push	{r4, r5, r6, r7, r8, lr}
 972              		.cfi_def_cfa_offset 24
 973              		.cfi_offset 4, -24
 974              		.cfi_offset 5, -20
 975              		.cfi_offset 6, -16
 976              		.cfi_offset 7, -12
 977              		.cfi_offset 8, -8
 978              		.cfi_offset 14, -4
 107:Generated_Source\PSoC5/CyLib.c **** 
 979              		.loc 1 107 0
 980 0004 174A     		ldr	r2, .L128
 981 0006 1378     		ldrb	r3, [r2]	@ zero_extendqisi2
 982 0008 43F00103 		orr	r3, r3, #1
 983 000c 1370     		strb	r3, [r2]
 109:Generated_Source\PSoC5/CyLib.c ****     {
ARM GAS  C:\Users\aupen\AppData\Local\Temp\cceqDgz4.s 			page 36


 984              		.loc 1 109 0
 985 000e 38B3     		cbz	r0, .L117
 112:Generated_Source\PSoC5/CyLib.c ****         pmTwCfg0State = CY_LIB_PM_TW_CFG0_REG;
 986              		.loc 1 112 0
 987 0010 154B     		ldr	r3, .L128+4
 114:Generated_Source\PSoC5/CyLib.c **** 
 988              		.loc 1 114 0
 989 0012 164D     		ldr	r5, .L128+8
 112:Generated_Source\PSoC5/CyLib.c ****         pmTwCfg0State = CY_LIB_PM_TW_CFG0_REG;
 990              		.loc 1 112 0
 991 0014 1C78     		ldrb	r4, [r3]	@ zero_extendqisi2
 116:Generated_Source\PSoC5/CyLib.c **** 
 992              		.loc 1 116 0
 993 0016 1820     		movs	r0, #24
 994              	.LVL47:
 113:Generated_Source\PSoC5/CyLib.c ****         pmTwCfg2State = CY_LIB_PM_TW_CFG2_REG;
 995              		.loc 1 113 0
 996 0018 93F88080 		ldrb	r8, [r3, #128]	@ zero_extendqisi2
 114:Generated_Source\PSoC5/CyLib.c **** 
 997              		.loc 1 114 0
 998 001c 2F78     		ldrb	r7, [r5]	@ zero_extendqisi2
 112:Generated_Source\PSoC5/CyLib.c ****         pmTwCfg0State = CY_LIB_PM_TW_CFG0_REG;
 999              		.loc 1 112 0
 1000 001e 04F00404 		and	r4, r4, #4
 116:Generated_Source\PSoC5/CyLib.c **** 
 1001              		.loc 1 116 0
 1002 0022 FFF7FEFF 		bl	CyPmFtwSetInterval
 1003              	.LVL48:
 123:Generated_Source\PSoC5/CyLib.c ****             {
 1004              		.loc 1 123 0
 1005 0026 6FF4AE71 		mvn	r1, #348
 1006 002a 2E46     		mov	r6, r5
 112:Generated_Source\PSoC5/CyLib.c ****         pmTwCfg0State = CY_LIB_PM_TW_CFG0_REG;
 1007              		.loc 1 112 0
 1008 002c E4B2     		uxtb	r4, r4
 1009              	.LVL49:
 113:Generated_Source\PSoC5/CyLib.c ****         pmTwCfg2State = CY_LIB_PM_TW_CFG2_REG;
 1010              		.loc 1 113 0
 1011 002e 5FFA88F8 		uxtb	r8, r8
 1012              	.LVL50:
 114:Generated_Source\PSoC5/CyLib.c **** 
 1013              		.loc 1 114 0
 1014 0032 FFB2     		uxtb	r7, r7
 1015              	.LVL51:
 123:Generated_Source\PSoC5/CyLib.c ****             {
 1016              		.loc 1 123 0
 1017 0034 0D44     		add	r5, r5, r1
 1018              	.L125:
 120:Generated_Source\PSoC5/CyLib.c ****         {
 1019              		.loc 1 120 0
 1020 0036 0120     		movs	r0, #1
 1021 0038 FFF7FEFF 		bl	CyPmReadStatus
 1022              	.LVL52:
 1023 003c 10F00100 		ands	r0, r0, #1
 1024 0040 06D1     		bne	.L127
 123:Generated_Source\PSoC5/CyLib.c ****             {
 1025              		.loc 1 123 0
ARM GAS  C:\Users\aupen\AppData\Local\Temp\cceqDgz4.s 			page 37


 1026 0042 2B78     		ldrb	r3, [r5]	@ zero_extendqisi2
 1027 0044 DA07     		lsls	r2, r3, #31
 1028 0046 F6D5     		bpl	.L125
 125:Generated_Source\PSoC5/CyLib.c ****                 {
 1029              		.loc 1 125 0
 1030 0048 2B78     		ldrb	r3, [r5]	@ zero_extendqisi2
 1031 004a DB07     		lsls	r3, r3, #31
 1032 004c 01D4     		bmi	.L119
 1033 004e F2E7     		b	.L125
 1034              	.L127:
 118:Generated_Source\PSoC5/CyLib.c **** 
 1035              		.loc 1 118 0
 1036 0050 1020     		movs	r0, #16
 1037              	.L119:
 1038              	.LVL53:
 134:Generated_Source\PSoC5/CyLib.c ****         {
 1039              		.loc 1 134 0
 1040 0052 0CB9     		cbnz	r4, .L121
 136:Generated_Source\PSoC5/CyLib.c ****         }
 1041              		.loc 1 136 0
 1042 0054 FFF7FEFF 		bl	CyILO_Stop100K
 1043              	.LVL54:
 1044              	.L121:
 139:Generated_Source\PSoC5/CyLib.c ****         CY_LIB_PM_TW_CFG2_REG = pmTwCfg2State;
 1045              		.loc 1 139 0
 1046 0058 054B     		ldr	r3, .L128+12
 1047 005a 83F80080 		strb	r8, [r3]
 140:Generated_Source\PSoC5/CyLib.c ****     }
 1048              		.loc 1 140 0
 1049 005e 3770     		strb	r7, [r6]
 1050              	.LVL55:
 1051              	.L117:
 144:Generated_Source\PSoC5/CyLib.c **** 
 1052              		.loc 1 144 0
 1053 0060 BDE8F081 		pop	{r4, r5, r6, r7, r8, pc}
 1054              	.L129:
 1055              		.align	2
 1056              	.L128:
 1057 0064 20420040 		.word	1073758752
 1058 0068 00430040 		.word	1073758976
 1059 006c 82430040 		.word	1073759106
 1060 0070 80430040 		.word	1073759104
 1061              		.cfi_endproc
 1062              	.LFE0:
 1063              		.size	CyPLL_OUT_Start, .-CyPLL_OUT_Start
 1064              		.section	.text.CyIMO_Start,"ax",%progbits
 1065              		.align	1
 1066              		.global	CyIMO_Start
 1067              		.thumb
 1068              		.thumb_func
 1069              		.type	CyIMO_Start, %function
 1070              	CyIMO_Start:
 1071              	.LFB4:
 283:Generated_Source\PSoC5/CyLib.c ****     uint8 pmFtwCfg2Reg;
 1072              		.loc 1 283 0
 1073              		.cfi_startproc
 1074              		@ args = 0, pretend = 0, frame = 0
ARM GAS  C:\Users\aupen\AppData\Local\Temp\cceqDgz4.s 			page 38


 1075              		@ frame_needed = 0, uses_anonymous_args = 0
 1076              	.LVL56:
 1077 0000 F8B5     		push	{r3, r4, r5, r6, r7, lr}
 1078              		.cfi_def_cfa_offset 24
 1079              		.cfi_offset 3, -24
 1080              		.cfi_offset 4, -20
 1081              		.cfi_offset 5, -16
 1082              		.cfi_offset 6, -12
 1083              		.cfi_offset 7, -8
 1084              		.cfi_offset 14, -4
 289:Generated_Source\PSoC5/CyLib.c ****     CY_LIB_PM_STBY_CFG0_REG |= CY_LIB_PM_STBY_CFG0_IMO_EN;
 1085              		.loc 1 289 0
 1086 0002 124A     		ldr	r2, .L139
 1087 0004 1378     		ldrb	r3, [r2]	@ zero_extendqisi2
 1088 0006 43F01003 		orr	r3, r3, #16
 1089 000a 1370     		strb	r3, [r2]
 290:Generated_Source\PSoC5/CyLib.c **** 
 1090              		.loc 1 290 0
 1091 000c 137C     		ldrb	r3, [r2, #16]	@ zero_extendqisi2
 1092 000e 43F01003 		orr	r3, r3, #16
 1093 0012 1374     		strb	r3, [r2, #16]
 292:Generated_Source\PSoC5/CyLib.c ****     {
 1094              		.loc 1 292 0
 1095 0014 C0B1     		cbz	r0, .L130
 295:Generated_Source\PSoC5/CyLib.c ****         pmFtwCfg0Reg = CY_LIB_PM_TW_CFG0_REG;
 1096              		.loc 1 295 0
 1097 0016 0E4B     		ldr	r3, .L139+4
 297:Generated_Source\PSoC5/CyLib.c **** 
 1098              		.loc 1 297 0
 1099 0018 0E4D     		ldr	r5, .L139+8
 295:Generated_Source\PSoC5/CyLib.c ****         pmFtwCfg0Reg = CY_LIB_PM_TW_CFG0_REG;
 1100              		.loc 1 295 0
 1101 001a 1C78     		ldrb	r4, [r3]	@ zero_extendqisi2
 296:Generated_Source\PSoC5/CyLib.c ****         pmFtwCfg2Reg = CY_LIB_PM_TW_CFG2_REG;
 1102              		.loc 1 296 0
 1103 001c 93F88070 		ldrb	r7, [r3, #128]	@ zero_extendqisi2
 297:Generated_Source\PSoC5/CyLib.c **** 
 1104              		.loc 1 297 0
 1105 0020 2E78     		ldrb	r6, [r5]	@ zero_extendqisi2
 295:Generated_Source\PSoC5/CyLib.c ****         pmFtwCfg0Reg = CY_LIB_PM_TW_CFG0_REG;
 1106              		.loc 1 295 0
 1107 0022 04F00404 		and	r4, r4, #4
 299:Generated_Source\PSoC5/CyLib.c **** 
 1108              		.loc 1 299 0
 1109 0026 0020     		movs	r0, #0
 1110              	.LVL57:
 295:Generated_Source\PSoC5/CyLib.c ****         pmFtwCfg0Reg = CY_LIB_PM_TW_CFG0_REG;
 1111              		.loc 1 295 0
 1112 0028 E4B2     		uxtb	r4, r4
 1113              	.LVL58:
 296:Generated_Source\PSoC5/CyLib.c ****         pmFtwCfg2Reg = CY_LIB_PM_TW_CFG2_REG;
 1114              		.loc 1 296 0
 1115 002a FFB2     		uxtb	r7, r7
 1116              	.LVL59:
 297:Generated_Source\PSoC5/CyLib.c **** 
 1117              		.loc 1 297 0
 1118 002c F6B2     		uxtb	r6, r6
ARM GAS  C:\Users\aupen\AppData\Local\Temp\cceqDgz4.s 			page 39


 1119              	.LVL60:
 299:Generated_Source\PSoC5/CyLib.c **** 
 1120              		.loc 1 299 0
 1121 002e FFF7FEFF 		bl	CyPmFtwSetInterval
 1122              	.LVL61:
 1123              	.L132:
 301:Generated_Source\PSoC5/CyLib.c ****         {
 1124              		.loc 1 301 0 discriminator 1
 1125 0032 0120     		movs	r0, #1
 1126 0034 FFF7FEFF 		bl	CyPmReadStatus
 1127              	.LVL62:
 1128 0038 C307     		lsls	r3, r0, #31
 1129 003a FAD5     		bpl	.L132
 306:Generated_Source\PSoC5/CyLib.c ****         {
 1130              		.loc 1 306 0
 1131 003c 0CB9     		cbnz	r4, .L133
 308:Generated_Source\PSoC5/CyLib.c ****         }
 1132              		.loc 1 308 0
 1133 003e FFF7FEFF 		bl	CyILO_Stop100K
 1134              	.LVL63:
 1135              	.L133:
 311:Generated_Source\PSoC5/CyLib.c ****         CY_LIB_PM_TW_CFG2_REG = pmFtwCfg2Reg;
 1136              		.loc 1 311 0
 1137 0042 054B     		ldr	r3, .L139+12
 1138 0044 1F70     		strb	r7, [r3]
 312:Generated_Source\PSoC5/CyLib.c ****     }
 1139              		.loc 1 312 0
 1140 0046 2E70     		strb	r6, [r5]
 1141              	.LVL64:
 1142              	.L130:
 1143 0048 F8BD     		pop	{r3, r4, r5, r6, r7, pc}
 1144              	.L140:
 1145 004a 00BF     		.align	2
 1146              	.L139:
 1147 004c A0430040 		.word	1073759136
 1148 0050 00430040 		.word	1073758976
 1149 0054 82430040 		.word	1073759106
 1150 0058 80430040 		.word	1073759104
 1151              		.cfi_endproc
 1152              	.LFE4:
 1153              		.size	CyIMO_Start, .-CyIMO_Start
 1154              		.section	.text.CyILO_Enable33K,"ax",%progbits
 1155              		.align	1
 1156              		.global	CyILO_Enable33K
 1157              		.thumb
 1158              		.thumb_func
 1159              		.type	CyILO_Enable33K, %function
 1160              	CyILO_Enable33K:
 1161              	.LFB21:
 933:Generated_Source\PSoC5/CyLib.c **** }
 934:Generated_Source\PSoC5/CyLib.c **** 
 935:Generated_Source\PSoC5/CyLib.c **** 
 936:Generated_Source\PSoC5/CyLib.c **** /*******************************************************************************
 937:Generated_Source\PSoC5/CyLib.c **** * Function Name: CyILO_Enable33K
 938:Generated_Source\PSoC5/CyLib.c **** ****************************************************************************//**
 939:Generated_Source\PSoC5/CyLib.c **** *
 940:Generated_Source\PSoC5/CyLib.c **** *  Enables the ILO 33 KHz divider.
ARM GAS  C:\Users\aupen\AppData\Local\Temp\cceqDgz4.s 			page 40


 941:Generated_Source\PSoC5/CyLib.c **** *
 942:Generated_Source\PSoC5/CyLib.c **** *  Note that the 33 KHz clock is generated from the 100 KHz oscillator,
 943:Generated_Source\PSoC5/CyLib.c **** *  so it must also be running in order to generate the 33 KHz output.
 944:Generated_Source\PSoC5/CyLib.c **** *
 945:Generated_Source\PSoC5/CyLib.c **** *******************************************************************************/
 946:Generated_Source\PSoC5/CyLib.c **** void CyILO_Enable33K(void) 
 947:Generated_Source\PSoC5/CyLib.c **** {
 1162              		.loc 1 947 0
 1163              		.cfi_startproc
 1164              		@ args = 0, pretend = 0, frame = 0
 1165              		@ frame_needed = 0, uses_anonymous_args = 0
 1166              		@ link register save eliminated.
 948:Generated_Source\PSoC5/CyLib.c ****     /* Set bit 5 of ILO RS */
 949:Generated_Source\PSoC5/CyLib.c ****     CY_LIB_SLOWCLK_ILO_CR0_REG |= CY_LIB_SLOWCLK_ILO_CR0_EN_33KHZ;
 1167              		.loc 1 949 0
 1168 0000 024A     		ldr	r2, .L142
 1169 0002 1378     		ldrb	r3, [r2]	@ zero_extendqisi2
 1170 0004 43F02003 		orr	r3, r3, #32
 1171 0008 1370     		strb	r3, [r2]
 1172 000a 7047     		bx	lr
 1173              	.L143:
 1174              		.align	2
 1175              	.L142:
 1176 000c 00430040 		.word	1073758976
 1177              		.cfi_endproc
 1178              	.LFE21:
 1179              		.size	CyILO_Enable33K, .-CyILO_Enable33K
 1180              		.section	.text.CyILO_Disable33K,"ax",%progbits
 1181              		.align	1
 1182              		.global	CyILO_Disable33K
 1183              		.thumb
 1184              		.thumb_func
 1185              		.type	CyILO_Disable33K, %function
 1186              	CyILO_Disable33K:
 1187              	.LFB22:
 950:Generated_Source\PSoC5/CyLib.c **** }
 951:Generated_Source\PSoC5/CyLib.c **** 
 952:Generated_Source\PSoC5/CyLib.c **** 
 953:Generated_Source\PSoC5/CyLib.c **** /*******************************************************************************
 954:Generated_Source\PSoC5/CyLib.c **** * Function Name: CyILO_Disable33K
 955:Generated_Source\PSoC5/CyLib.c **** ****************************************************************************//**
 956:Generated_Source\PSoC5/CyLib.c **** *
 957:Generated_Source\PSoC5/CyLib.c **** *  Disables the ILO 33 KHz divider.
 958:Generated_Source\PSoC5/CyLib.c **** *
 959:Generated_Source\PSoC5/CyLib.c **** *  Note that the 33 KHz clock is generated from the 100 KHz oscillator, but this
 960:Generated_Source\PSoC5/CyLib.c **** *  API does not disable the 100 KHz clock.
 961:Generated_Source\PSoC5/CyLib.c **** *
 962:Generated_Source\PSoC5/CyLib.c **** *******************************************************************************/
 963:Generated_Source\PSoC5/CyLib.c **** void CyILO_Disable33K(void) 
 964:Generated_Source\PSoC5/CyLib.c **** {
 1188              		.loc 1 964 0
 1189              		.cfi_startproc
 1190              		@ args = 0, pretend = 0, frame = 0
 1191              		@ frame_needed = 0, uses_anonymous_args = 0
 1192              		@ link register save eliminated.
 965:Generated_Source\PSoC5/CyLib.c ****     CY_LIB_SLOWCLK_ILO_CR0_REG &= ((uint8)(~CY_LIB_SLOWCLK_ILO_CR0_EN_33KHZ));
 1193              		.loc 1 965 0
ARM GAS  C:\Users\aupen\AppData\Local\Temp\cceqDgz4.s 			page 41


 1194 0000 024A     		ldr	r2, .L145
 1195 0002 1378     		ldrb	r3, [r2]	@ zero_extendqisi2
 1196 0004 03F0DF03 		and	r3, r3, #223
 1197 0008 1370     		strb	r3, [r2]
 1198 000a 7047     		bx	lr
 1199              	.L146:
 1200              		.align	2
 1201              	.L145:
 1202 000c 00430040 		.word	1073758976
 1203              		.cfi_endproc
 1204              	.LFE22:
 1205              		.size	CyILO_Disable33K, .-CyILO_Disable33K
 1206              		.section	.text.CyILO_SetSource,"ax",%progbits
 1207              		.align	1
 1208              		.global	CyILO_SetSource
 1209              		.thumb
 1210              		.thumb_func
 1211              		.type	CyILO_SetSource, %function
 1212              	CyILO_SetSource:
 1213              	.LFB23:
 966:Generated_Source\PSoC5/CyLib.c **** }
 967:Generated_Source\PSoC5/CyLib.c **** 
 968:Generated_Source\PSoC5/CyLib.c **** 
 969:Generated_Source\PSoC5/CyLib.c **** /*******************************************************************************
 970:Generated_Source\PSoC5/CyLib.c **** * Function Name: CyILO_SetSource
 971:Generated_Source\PSoC5/CyLib.c **** ****************************************************************************//**
 972:Generated_Source\PSoC5/CyLib.c **** *
 973:Generated_Source\PSoC5/CyLib.c **** *  Sets the source of the clock output from the ILO block.
 974:Generated_Source\PSoC5/CyLib.c **** *
 975:Generated_Source\PSoC5/CyLib.c **** *  \param source: One of the three available ILO output sources
 976:Generated_Source\PSoC5/CyLib.c **** *       Value        Define                Source
 977:Generated_Source\PSoC5/CyLib.c **** *       0            CY_ILO_SOURCE_100K    ILO 100 KHz
 978:Generated_Source\PSoC5/CyLib.c **** *       1            CY_ILO_SOURCE_33K     ILO 33 KHz
 979:Generated_Source\PSoC5/CyLib.c **** *       2            CY_ILO_SOURCE_1K      ILO 1 KHz
 980:Generated_Source\PSoC5/CyLib.c **** *
 981:Generated_Source\PSoC5/CyLib.c **** *******************************************************************************/
 982:Generated_Source\PSoC5/CyLib.c **** void CyILO_SetSource(uint8 source) 
 983:Generated_Source\PSoC5/CyLib.c **** {
 1214              		.loc 1 983 0
 1215              		.cfi_startproc
 1216              		@ args = 0, pretend = 0, frame = 0
 1217              		@ frame_needed = 0, uses_anonymous_args = 0
 1218              		@ link register save eliminated.
 1219              	.LVL65:
 984:Generated_Source\PSoC5/CyLib.c ****     CY_LIB_CLKDIST_CR_REG = (CY_LIB_CLKDIST_CR_REG & CY_ILO_SOURCE_BITS_CLEAR) |
 1220              		.loc 1 984 0
 1221 0000 4FF04022 		mov	r2, #1073758208
 1222 0004 1378     		ldrb	r3, [r2]	@ zero_extendqisi2
 1223 0006 8000     		lsls	r0, r0, #2
 1224              	.LVL66:
 1225 0008 00F00C00 		and	r0, r0, #12
 1226 000c 03F0F303 		and	r3, r3, #243
 1227 0010 0343     		orrs	r3, r3, r0
 1228 0012 1370     		strb	r3, [r2]
 1229 0014 7047     		bx	lr
 1230              		.cfi_endproc
 1231              	.LFE23:
ARM GAS  C:\Users\aupen\AppData\Local\Temp\cceqDgz4.s 			page 42


 1232              		.size	CyILO_SetSource, .-CyILO_SetSource
 1233              		.section	.text.CyILO_SetPowerMode,"ax",%progbits
 1234              		.align	1
 1235              		.global	CyILO_SetPowerMode
 1236              		.thumb
 1237              		.thumb_func
 1238              		.type	CyILO_SetPowerMode, %function
 1239              	CyILO_SetPowerMode:
 1240              	.LFB24:
 985:Generated_Source\PSoC5/CyLib.c ****                     (((uint8) (source << 2u)) & ((uint8)(~CY_ILO_SOURCE_BITS_CLEAR)));
 986:Generated_Source\PSoC5/CyLib.c **** }
 987:Generated_Source\PSoC5/CyLib.c **** 
 988:Generated_Source\PSoC5/CyLib.c **** 
 989:Generated_Source\PSoC5/CyLib.c **** /*******************************************************************************
 990:Generated_Source\PSoC5/CyLib.c **** * Function Name: CyILO_SetPowerMode
 991:Generated_Source\PSoC5/CyLib.c **** ****************************************************************************//**
 992:Generated_Source\PSoC5/CyLib.c **** *
 993:Generated_Source\PSoC5/CyLib.c **** * Sets the power mode used by the ILO during power down. Allows for lower power
 994:Generated_Source\PSoC5/CyLib.c **** * down power usage resulting in a slower startup time.
 995:Generated_Source\PSoC5/CyLib.c **** *
 996:Generated_Source\PSoC5/CyLib.c **** * \param mode
 997:Generated_Source\PSoC5/CyLib.c **** * CY_ILO_FAST_START - Faster start-up, internal bias left on when powered down
 998:Generated_Source\PSoC5/CyLib.c **** * CY_ILO_SLOW_START - Slower start-up, internal bias off when powered down
 999:Generated_Source\PSoC5/CyLib.c **** *
1000:Generated_Source\PSoC5/CyLib.c **** * \return Prevous power mode state.
1001:Generated_Source\PSoC5/CyLib.c **** *
1002:Generated_Source\PSoC5/CyLib.c **** *******************************************************************************/
1003:Generated_Source\PSoC5/CyLib.c **** uint8 CyILO_SetPowerMode(uint8 mode) 
1004:Generated_Source\PSoC5/CyLib.c **** {
 1241              		.loc 1 1004 0
 1242              		.cfi_startproc
 1243              		@ args = 0, pretend = 0, frame = 0
 1244              		@ frame_needed = 0, uses_anonymous_args = 0
 1245              		@ link register save eliminated.
 1246              	.LVL67:
1005:Generated_Source\PSoC5/CyLib.c ****     uint8 state;
1006:Generated_Source\PSoC5/CyLib.c **** 
1007:Generated_Source\PSoC5/CyLib.c ****     /* Get current state. */
1008:Generated_Source\PSoC5/CyLib.c ****     state = CY_LIB_SLOWCLK_ILO_CR0_REG;
 1247              		.loc 1 1008 0
 1248 0000 064A     		ldr	r2, .L152
 1249 0002 1378     		ldrb	r3, [r2]	@ zero_extendqisi2
 1250 0004 DBB2     		uxtb	r3, r3
 1251              	.LVL68:
1009:Generated_Source\PSoC5/CyLib.c **** 
1010:Generated_Source\PSoC5/CyLib.c ****     /* Set the oscillator power mode. */
1011:Generated_Source\PSoC5/CyLib.c ****     if(mode != CY_ILO_FAST_START)
 1252              		.loc 1 1011 0
 1253 0006 10B1     		cbz	r0, .L149
1012:Generated_Source\PSoC5/CyLib.c ****     {
1013:Generated_Source\PSoC5/CyLib.c ****         CY_LIB_SLOWCLK_ILO_CR0_REG = (state | CY_ILO_CONTROL_PD_MODE);
 1254              		.loc 1 1013 0
 1255 0008 43F01001 		orr	r1, r3, #16
 1256 000c 01E0     		b	.L151
 1257              	.L149:
1014:Generated_Source\PSoC5/CyLib.c ****     }
1015:Generated_Source\PSoC5/CyLib.c ****     else
ARM GAS  C:\Users\aupen\AppData\Local\Temp\cceqDgz4.s 			page 43


1016:Generated_Source\PSoC5/CyLib.c ****     {
1017:Generated_Source\PSoC5/CyLib.c ****         CY_LIB_SLOWCLK_ILO_CR0_REG = (state & ((uint8)(~CY_ILO_CONTROL_PD_MODE)));
 1258              		.loc 1 1017 0
 1259 000e 03F0EF01 		and	r1, r3, #239
 1260              	.L151:
 1261 0012 1170     		strb	r1, [r2]
1018:Generated_Source\PSoC5/CyLib.c ****     }
1019:Generated_Source\PSoC5/CyLib.c **** 
1020:Generated_Source\PSoC5/CyLib.c ****     /* Return old mode. */
1021:Generated_Source\PSoC5/CyLib.c ****     return ((state & CY_ILO_CONTROL_PD_MODE) >> CY_ILO_CONTROL_PD_POSITION);
1022:Generated_Source\PSoC5/CyLib.c **** }
 1262              		.loc 1 1022 0
 1263 0014 C3F30010 		ubfx	r0, r3, #4, #1
 1264              	.LVL69:
 1265 0018 7047     		bx	lr
 1266              	.L153:
 1267 001a 00BF     		.align	2
 1268              	.L152:
 1269 001c 00430040 		.word	1073758976
 1270              		.cfi_endproc
 1271              	.LFE24:
 1272              		.size	CyILO_SetPowerMode, .-CyILO_SetPowerMode
 1273              		.section	.text.CyXTAL_32KHZ_Stop,"ax",%progbits
 1274              		.align	1
 1275              		.global	CyXTAL_32KHZ_Stop
 1276              		.thumb
 1277              		.thumb_func
 1278              		.type	CyXTAL_32KHZ_Stop, %function
 1279              	CyXTAL_32KHZ_Stop:
 1280              	.LFB26:
1023:Generated_Source\PSoC5/CyLib.c **** 
1024:Generated_Source\PSoC5/CyLib.c **** 
1025:Generated_Source\PSoC5/CyLib.c **** /*******************************************************************************
1026:Generated_Source\PSoC5/CyLib.c **** * Function Name: CyXTAL_32KHZ_Start
1027:Generated_Source\PSoC5/CyLib.c **** ****************************************************************************//**
1028:Generated_Source\PSoC5/CyLib.c **** *
1029:Generated_Source\PSoC5/CyLib.c **** *  Enables the 32 KHz Crystal Oscillator.
1030:Generated_Source\PSoC5/CyLib.c **** *
1031:Generated_Source\PSoC5/CyLib.c **** *******************************************************************************/
1032:Generated_Source\PSoC5/CyLib.c **** void CyXTAL_32KHZ_Start(void) 
1033:Generated_Source\PSoC5/CyLib.c **** {
1034:Generated_Source\PSoC5/CyLib.c ****     volatile uint16 i;
1035:Generated_Source\PSoC5/CyLib.c **** 
1036:Generated_Source\PSoC5/CyLib.c ****     CY_CLK_XTAL32_TST_REG = CY_CLK_XTAL32_TST_DEFAULT;
1037:Generated_Source\PSoC5/CyLib.c ****     CY_CLK_XTAL32_TR_REG  = CY_CLK_XTAL32_TR_STARTUP;
1038:Generated_Source\PSoC5/CyLib.c ****     CY_CLK_XTAL32_CFG_REG = (CY_CLK_XTAL32_CFG_REG & ((uint8)(~CY_CLK_XTAL32_CFG_LP_MASK))) |
1039:Generated_Source\PSoC5/CyLib.c ****                                 CY_CLK_XTAL32_CFG_LP_DEFAULT;
1040:Generated_Source\PSoC5/CyLib.c **** 
1041:Generated_Source\PSoC5/CyLib.c ****     #if(CY_PSOC3)
1042:Generated_Source\PSoC5/CyLib.c ****         CY_CLK_XTAL32_CR_REG |= CY_CLK_XTAL32_CR_PDBEN;
1043:Generated_Source\PSoC5/CyLib.c ****     #endif  /* (CY_PSOC3) */
1044:Generated_Source\PSoC5/CyLib.c **** 
1045:Generated_Source\PSoC5/CyLib.c ****     /* Enable operation of 32K Crystal Oscillator */
1046:Generated_Source\PSoC5/CyLib.c ****     CY_CLK_XTAL32_CR_REG |= CY_CLK_XTAL32_CR_EN;
1047:Generated_Source\PSoC5/CyLib.c **** 
1048:Generated_Source\PSoC5/CyLib.c ****     for (i = 1000u; i > 0u; i--)
1049:Generated_Source\PSoC5/CyLib.c ****     {
ARM GAS  C:\Users\aupen\AppData\Local\Temp\cceqDgz4.s 			page 44


1050:Generated_Source\PSoC5/CyLib.c ****         if(0u != (CyXTAL_32KHZ_ReadStatus() & CY_XTAL32K_ANA_STAT))
1051:Generated_Source\PSoC5/CyLib.c ****         {
1052:Generated_Source\PSoC5/CyLib.c ****             /* Ready - switch to high power mode */
1053:Generated_Source\PSoC5/CyLib.c ****             (void) CyXTAL_32KHZ_SetPowerMode(0u);
1054:Generated_Source\PSoC5/CyLib.c **** 
1055:Generated_Source\PSoC5/CyLib.c ****             break;
1056:Generated_Source\PSoC5/CyLib.c ****         }
1057:Generated_Source\PSoC5/CyLib.c ****         CyDelayUs(1u);
1058:Generated_Source\PSoC5/CyLib.c ****     }
1059:Generated_Source\PSoC5/CyLib.c **** }
1060:Generated_Source\PSoC5/CyLib.c **** 
1061:Generated_Source\PSoC5/CyLib.c **** 
1062:Generated_Source\PSoC5/CyLib.c **** /*******************************************************************************
1063:Generated_Source\PSoC5/CyLib.c **** * Function Name: CyXTAL_32KHZ_Stop
1064:Generated_Source\PSoC5/CyLib.c **** ****************************************************************************//**
1065:Generated_Source\PSoC5/CyLib.c **** *
1066:Generated_Source\PSoC5/CyLib.c **** *  Disables the 32KHz Crystal Oscillator.
1067:Generated_Source\PSoC5/CyLib.c **** *
1068:Generated_Source\PSoC5/CyLib.c **** *******************************************************************************/
1069:Generated_Source\PSoC5/CyLib.c **** void CyXTAL_32KHZ_Stop(void) 
1070:Generated_Source\PSoC5/CyLib.c **** {
 1281              		.loc 1 1070 0
 1282              		.cfi_startproc
 1283              		@ args = 0, pretend = 0, frame = 0
 1284              		@ frame_needed = 0, uses_anonymous_args = 0
 1285              		@ link register save eliminated.
1071:Generated_Source\PSoC5/CyLib.c ****     CY_CLK_XTAL32_TST_REG  = CY_CLK_XTAL32_TST_DEFAULT;
 1286              		.loc 1 1071 0
 1287 0000 094B     		ldr	r3, .L155
 1288 0002 F322     		movs	r2, #243
 1289 0004 1A70     		strb	r2, [r3]
1072:Generated_Source\PSoC5/CyLib.c ****     CY_CLK_XTAL32_TR_REG   = CY_CLK_XTAL32_TR_POWERDOWN;
 1290              		.loc 1 1072 0
 1291 0006 0022     		movs	r2, #0
 1292 0008 83F88E23 		strb	r2, [r3, #910]
1073:Generated_Source\PSoC5/CyLib.c ****     CY_CLK_XTAL32_CFG_REG = (CY_CLK_XTAL32_CFG_REG & ((uint8)(~CY_CLK_XTAL32_CFG_LP_MASK))) |
 1293              		.loc 1 1073 0
 1294 000c 074A     		ldr	r2, .L155+4
 1295 000e 1378     		ldrb	r3, [r2]	@ zero_extendqisi2
 1296 0010 03F0F303 		and	r3, r3, #243
 1297 0014 43F00403 		orr	r3, r3, #4
 1298 0018 1370     		strb	r3, [r2]
1074:Generated_Source\PSoC5/CyLib.c ****                              CY_CLK_XTAL32_CFG_LP_DEFAULT;
1075:Generated_Source\PSoC5/CyLib.c ****     CY_CLK_XTAL32_CR_REG &= ((uint8)(~(CY_CLK_XTAL32_CR_EN | CY_CLK_XTAL32_CR_LPM)));
 1299              		.loc 1 1075 0
 1300 001a 12F8013C 		ldrb	r3, [r2, #-1]	@ zero_extendqisi2
 1301 001e 03F0FC03 		and	r3, r3, #252
 1302 0022 02F8013C 		strb	r3, [r2, #-1]
 1303 0026 7047     		bx	lr
 1304              	.L156:
 1305              		.align	2
 1306              	.L155:
 1307 0028 0A430040 		.word	1073758986
 1308 002c 09430040 		.word	1073758985
 1309              		.cfi_endproc
 1310              	.LFE26:
 1311              		.size	CyXTAL_32KHZ_Stop, .-CyXTAL_32KHZ_Stop
ARM GAS  C:\Users\aupen\AppData\Local\Temp\cceqDgz4.s 			page 45


 1312              		.section	.text.CyXTAL_32KHZ_ReadStatus,"ax",%progbits
 1313              		.align	1
 1314              		.global	CyXTAL_32KHZ_ReadStatus
 1315              		.thumb
 1316              		.thumb_func
 1317              		.type	CyXTAL_32KHZ_ReadStatus, %function
 1318              	CyXTAL_32KHZ_ReadStatus:
 1319              	.LFB27:
1076:Generated_Source\PSoC5/CyLib.c **** 
1077:Generated_Source\PSoC5/CyLib.c ****     #if(CY_PSOC3)
1078:Generated_Source\PSoC5/CyLib.c ****         CY_CLK_XTAL32_CR_REG &= ((uint8)(~CY_CLK_XTAL32_CR_PDBEN));
1079:Generated_Source\PSoC5/CyLib.c ****     #endif  /* (CY_PSOC3) */
1080:Generated_Source\PSoC5/CyLib.c **** }
1081:Generated_Source\PSoC5/CyLib.c **** 
1082:Generated_Source\PSoC5/CyLib.c **** 
1083:Generated_Source\PSoC5/CyLib.c **** /*******************************************************************************
1084:Generated_Source\PSoC5/CyLib.c **** * Function Name: CyXTAL_32KHZ_ReadStatus
1085:Generated_Source\PSoC5/CyLib.c **** ****************************************************************************//**
1086:Generated_Source\PSoC5/CyLib.c **** *
1087:Generated_Source\PSoC5/CyLib.c **** *  Returns status of the 32 KHz oscillator.
1088:Generated_Source\PSoC5/CyLib.c **** *
1089:Generated_Source\PSoC5/CyLib.c **** * \return
1090:Generated_Source\PSoC5/CyLib.c **** *  Value     Define                    Source
1091:Generated_Source\PSoC5/CyLib.c **** *  20        CY_XTAL32K_ANA_STAT       Analog measurement
1092:Generated_Source\PSoC5/CyLib.c **** *                                       1: Stable
1093:Generated_Source\PSoC5/CyLib.c **** *                                       0: Not stable
1094:Generated_Source\PSoC5/CyLib.c **** *
1095:Generated_Source\PSoC5/CyLib.c **** *******************************************************************************/
1096:Generated_Source\PSoC5/CyLib.c **** uint8 CyXTAL_32KHZ_ReadStatus(void) 
1097:Generated_Source\PSoC5/CyLib.c **** {
 1320              		.loc 1 1097 0
 1321              		.cfi_startproc
 1322              		@ args = 0, pretend = 0, frame = 0
 1323              		@ frame_needed = 0, uses_anonymous_args = 0
 1324              		@ link register save eliminated.
1098:Generated_Source\PSoC5/CyLib.c ****     return(CY_CLK_XTAL32_CR_REG & CY_XTAL32K_ANA_STAT);
 1325              		.loc 1 1098 0
 1326 0000 024B     		ldr	r3, .L158
 1327 0002 1878     		ldrb	r0, [r3]	@ zero_extendqisi2
1099:Generated_Source\PSoC5/CyLib.c **** }
 1328              		.loc 1 1099 0
 1329 0004 00F02000 		and	r0, r0, #32
 1330 0008 7047     		bx	lr
 1331              	.L159:
 1332 000a 00BF     		.align	2
 1333              	.L158:
 1334 000c 08430040 		.word	1073758984
 1335              		.cfi_endproc
 1336              	.LFE27:
 1337              		.size	CyXTAL_32KHZ_ReadStatus, .-CyXTAL_32KHZ_ReadStatus
 1338              		.section	.text.CyXTAL_Start,"ax",%progbits
 1339              		.align	1
 1340              		.global	CyXTAL_Start
 1341              		.thumb
 1342              		.thumb_func
 1343              		.type	CyXTAL_Start, %function
 1344              	CyXTAL_Start:
ARM GAS  C:\Users\aupen\AppData\Local\Temp\cceqDgz4.s 			page 46


 1345              	.LFB29:
1100:Generated_Source\PSoC5/CyLib.c **** 
1101:Generated_Source\PSoC5/CyLib.c **** 
1102:Generated_Source\PSoC5/CyLib.c **** /*******************************************************************************
1103:Generated_Source\PSoC5/CyLib.c **** * Function Name: CyXTAL_32KHZ_SetPowerMode
1104:Generated_Source\PSoC5/CyLib.c **** ****************************************************************************//**
1105:Generated_Source\PSoC5/CyLib.c **** *
1106:Generated_Source\PSoC5/CyLib.c **** *  Sets the power mode for the 32 KHz oscillator used during the sleep mode.
1107:Generated_Source\PSoC5/CyLib.c **** *  Allows for lower power during sleep when there are fewer sources of noise.
1108:Generated_Source\PSoC5/CyLib.c **** *  During the active mode the oscillator is always run in the high power mode.
1109:Generated_Source\PSoC5/CyLib.c **** *
1110:Generated_Source\PSoC5/CyLib.c **** *  uint8 mode
1111:Generated_Source\PSoC5/CyLib.c **** *       \param 0: High power mode
1112:Generated_Source\PSoC5/CyLib.c **** *       \param 1: Low power mode during sleep
1113:Generated_Source\PSoC5/CyLib.c **** *
1114:Generated_Source\PSoC5/CyLib.c **** * \return
1115:Generated_Source\PSoC5/CyLib.c **** *  Previous power mode.
1116:Generated_Source\PSoC5/CyLib.c **** *
1117:Generated_Source\PSoC5/CyLib.c **** *******************************************************************************/
1118:Generated_Source\PSoC5/CyLib.c **** uint8 CyXTAL_32KHZ_SetPowerMode(uint8 mode) 
1119:Generated_Source\PSoC5/CyLib.c **** {
1120:Generated_Source\PSoC5/CyLib.c ****     uint8 state = (0u != (CY_CLK_XTAL32_CR_REG & CY_CLK_XTAL32_CR_LPM)) ? 1u : 0u;
1121:Generated_Source\PSoC5/CyLib.c **** 
1122:Generated_Source\PSoC5/CyLib.c ****     CY_CLK_XTAL32_TST_REG = CY_CLK_XTAL32_TST_DEFAULT;
1123:Generated_Source\PSoC5/CyLib.c **** 
1124:Generated_Source\PSoC5/CyLib.c ****     if(1u == mode)
1125:Generated_Source\PSoC5/CyLib.c ****     {
1126:Generated_Source\PSoC5/CyLib.c ****         /* Low power mode during Sleep */
1127:Generated_Source\PSoC5/CyLib.c ****         CY_CLK_XTAL32_TR_REG  = CY_CLK_XTAL32_TR_LOW_POWER;
1128:Generated_Source\PSoC5/CyLib.c ****         CyDelayUs(10u);
1129:Generated_Source\PSoC5/CyLib.c ****         CY_CLK_XTAL32_CFG_REG = (CY_CLK_XTAL32_CFG_REG & ((uint8)(~CY_CLK_XTAL32_CFG_LP_MASK))) |
1130:Generated_Source\PSoC5/CyLib.c ****                                 CY_CLK_XTAL32_CFG_LP_LOWPOWER;
1131:Generated_Source\PSoC5/CyLib.c ****         CyDelayUs(20u);
1132:Generated_Source\PSoC5/CyLib.c ****         CY_CLK_XTAL32_CR_REG |= CY_CLK_XTAL32_CR_LPM;
1133:Generated_Source\PSoC5/CyLib.c ****     }
1134:Generated_Source\PSoC5/CyLib.c ****     else
1135:Generated_Source\PSoC5/CyLib.c ****     {
1136:Generated_Source\PSoC5/CyLib.c ****         /* High power mode */
1137:Generated_Source\PSoC5/CyLib.c ****         CY_CLK_XTAL32_TR_REG  = CY_CLK_XTAL32_TR_HIGH_POWER;
1138:Generated_Source\PSoC5/CyLib.c ****         CyDelayUs(10u);
1139:Generated_Source\PSoC5/CyLib.c ****         CY_CLK_XTAL32_CFG_REG = (CY_CLK_XTAL32_CFG_REG & ((uint8)(~CY_CLK_XTAL32_CFG_LP_MASK))) |
1140:Generated_Source\PSoC5/CyLib.c ****                                 CY_CLK_XTAL32_CFG_LP_DEFAULT;
1141:Generated_Source\PSoC5/CyLib.c ****         CY_CLK_XTAL32_CR_REG &= ((uint8)(~CY_CLK_XTAL32_CR_LPM));
1142:Generated_Source\PSoC5/CyLib.c ****     }
1143:Generated_Source\PSoC5/CyLib.c **** 
1144:Generated_Source\PSoC5/CyLib.c ****     return(state);
1145:Generated_Source\PSoC5/CyLib.c **** }
1146:Generated_Source\PSoC5/CyLib.c **** 
1147:Generated_Source\PSoC5/CyLib.c **** 
1148:Generated_Source\PSoC5/CyLib.c **** /*******************************************************************************
1149:Generated_Source\PSoC5/CyLib.c **** * Function Name: CyXTAL_Start
1150:Generated_Source\PSoC5/CyLib.c **** ****************************************************************************//**
1151:Generated_Source\PSoC5/CyLib.c **** *
1152:Generated_Source\PSoC5/CyLib.c **** *  Enables the megahertz crystal.
1153:Generated_Source\PSoC5/CyLib.c **** *
1154:Generated_Source\PSoC5/CyLib.c **** *  PSoC 3:
1155:Generated_Source\PSoC5/CyLib.c **** *  Waits until the XERR bit is low (no error) for a millisecond or until the
ARM GAS  C:\Users\aupen\AppData\Local\Temp\cceqDgz4.s 			page 47


1156:Generated_Source\PSoC5/CyLib.c **** *  number of milliseconds specified by the wait parameter has expired.
1157:Generated_Source\PSoC5/CyLib.c **** *
1158:Generated_Source\PSoC5/CyLib.c **** *   \param wait: Valid range [0-255].
1159:Generated_Source\PSoC5/CyLib.c **** *   This is the timeout value in milliseconds.
1160:Generated_Source\PSoC5/CyLib.c **** *   The appropriate value is crystal specific.
1161:Generated_Source\PSoC5/CyLib.c **** *
1162:Generated_Source\PSoC5/CyLib.c **** * \return
1163:Generated_Source\PSoC5/CyLib.c **** *   CYRET_SUCCESS - Completed successfully
1164:Generated_Source\PSoC5/CyLib.c **** *   CYRET_TIMEOUT - Timeout occurred without detecting a low value on XERR.
1165:Generated_Source\PSoC5/CyLib.c **** *
1166:Generated_Source\PSoC5/CyLib.c **** * Side Effects and Restrictions:
1167:Generated_Source\PSoC5/CyLib.c **** *  If wait is enabled (non-zero wait). Uses the Fast Timewheel to time the wait.
1168:Generated_Source\PSoC5/CyLib.c **** *  Any other use of the Fast Timewheel (FTW) will be stopped during the period
1169:Generated_Source\PSoC5/CyLib.c **** *  of this function and then restored.
1170:Generated_Source\PSoC5/CyLib.c **** *
1171:Generated_Source\PSoC5/CyLib.c **** *  Uses the 100KHz ILO.  If not enabled, this function will enable the 100KHz
1172:Generated_Source\PSoC5/CyLib.c **** *  ILO for the period of this function. No changes to the setup of the ILO,
1173:Generated_Source\PSoC5/CyLib.c **** *  Fast Timewheel, Central Timewheel or Once Per Second interrupt may be made
1174:Generated_Source\PSoC5/CyLib.c **** *  by interrupt routines during the period of this function.
1175:Generated_Source\PSoC5/CyLib.c **** *
1176:Generated_Source\PSoC5/CyLib.c **** *  The current operation of the ILO, Central Timewheel and Once Per Second
1177:Generated_Source\PSoC5/CyLib.c **** *  interrupt are maintained during the operation of this function provided the
1178:Generated_Source\PSoC5/CyLib.c **** *  reading of the Power Manager Interrupt Status Register is only done using the
1179:Generated_Source\PSoC5/CyLib.c **** *  CyPmReadStatus() function.
1180:Generated_Source\PSoC5/CyLib.c **** *
1181:Generated_Source\PSoC5/CyLib.c **** *******************************************************************************/
1182:Generated_Source\PSoC5/CyLib.c **** cystatus CyXTAL_Start(uint8 wait) 
1183:Generated_Source\PSoC5/CyLib.c **** {
 1346              		.loc 1 1183 0
 1347              		.cfi_startproc
 1348              		@ args = 0, pretend = 0, frame = 8
 1349              		@ frame_needed = 0, uses_anonymous_args = 0
 1350              	.LVL70:
 1351 0000 2DE9F743 		push	{r0, r1, r2, r4, r5, r6, r7, r8, r9, lr}
 1352              		.cfi_def_cfa_offset 40
 1353              		.cfi_offset 4, -28
 1354              		.cfi_offset 5, -24
 1355              		.cfi_offset 6, -20
 1356              		.cfi_offset 7, -16
 1357              		.cfi_offset 8, -12
 1358              		.cfi_offset 9, -8
 1359              		.cfi_offset 14, -4
1184:Generated_Source\PSoC5/CyLib.c ****     cystatus status = CYRET_SUCCESS;
1185:Generated_Source\PSoC5/CyLib.c ****     volatile uint8  timeout = wait;
1186:Generated_Source\PSoC5/CyLib.c ****     volatile uint8 count;
1187:Generated_Source\PSoC5/CyLib.c ****     uint8 iloEnableState;
1188:Generated_Source\PSoC5/CyLib.c ****     uint8 pmTwCfg0Tmp;
1189:Generated_Source\PSoC5/CyLib.c ****     uint8 pmTwCfg2Tmp;
1190:Generated_Source\PSoC5/CyLib.c **** 
1191:Generated_Source\PSoC5/CyLib.c **** 
1192:Generated_Source\PSoC5/CyLib.c ****     /* Enables MHz crystal oscillator circuit  */
1193:Generated_Source\PSoC5/CyLib.c ****     CY_CLK_XMHZ_CSR_REG |= CY_CLK_XMHZ_CSR_ENABLE;
 1360              		.loc 1 1193 0
 1361 0004 224C     		ldr	r4, .L175
1185:Generated_Source\PSoC5/CyLib.c ****     volatile uint8 count;
 1362              		.loc 1 1185 0
 1363 0006 8DF80600 		strb	r0, [sp, #6]
ARM GAS  C:\Users\aupen\AppData\Local\Temp\cceqDgz4.s 			page 48


 1364              		.loc 1 1193 0
 1365 000a 2378     		ldrb	r3, [r4]	@ zero_extendqisi2
 1366 000c 43F00103 		orr	r3, r3, #1
 1367 0010 2370     		strb	r3, [r4]
1194:Generated_Source\PSoC5/CyLib.c **** 
1195:Generated_Source\PSoC5/CyLib.c **** 
1196:Generated_Source\PSoC5/CyLib.c ****     if(wait > 0u)
 1368              		.loc 1 1196 0
 1369 0012 0028     		cmp	r0, #0
 1370 0014 39D0     		beq	.L161
1197:Generated_Source\PSoC5/CyLib.c ****     {
1198:Generated_Source\PSoC5/CyLib.c ****         /* Save 100 KHz ILO, FTW interval, enable and interrupt enable */
1199:Generated_Source\PSoC5/CyLib.c ****         iloEnableState = CY_LIB_SLOWCLK_ILO_CR0_REG;
 1371              		.loc 1 1199 0
 1372 0016 1F4B     		ldr	r3, .L175+4
1200:Generated_Source\PSoC5/CyLib.c ****         pmTwCfg0Tmp = CY_LIB_PM_TW_CFG0_REG;
1201:Generated_Source\PSoC5/CyLib.c ****         pmTwCfg2Tmp = CY_LIB_PM_TW_CFG2_REG;
 1373              		.loc 1 1201 0
 1374 0018 1F4D     		ldr	r5, .L175+8
1202:Generated_Source\PSoC5/CyLib.c **** 
1203:Generated_Source\PSoC5/CyLib.c ****         /* Set 250 us interval */
1204:Generated_Source\PSoC5/CyLib.c ****         CyPmFtwSetInterval(CY_CLK_XMHZ_FTW_INTERVAL);
 1375              		.loc 1 1204 0
 1376 001a 1820     		movs	r0, #24
 1377              	.LVL71:
1199:Generated_Source\PSoC5/CyLib.c ****         pmTwCfg0Tmp = CY_LIB_PM_TW_CFG0_REG;
 1378              		.loc 1 1199 0
 1379 001c 93F80080 		ldrb	r8, [r3]	@ zero_extendqisi2
1200:Generated_Source\PSoC5/CyLib.c ****         pmTwCfg0Tmp = CY_LIB_PM_TW_CFG0_REG;
 1380              		.loc 1 1200 0
 1381 0020 93F88070 		ldrb	r7, [r3, #128]	@ zero_extendqisi2
1201:Generated_Source\PSoC5/CyLib.c **** 
 1382              		.loc 1 1201 0
 1383 0024 2E78     		ldrb	r6, [r5]	@ zero_extendqisi2
 1384              		.loc 1 1204 0
 1385 0026 FFF7FEFF 		bl	CyPmFtwSetInterval
 1386              	.LVL72:
1199:Generated_Source\PSoC5/CyLib.c ****         pmTwCfg0Tmp = CY_LIB_PM_TW_CFG0_REG;
 1387              		.loc 1 1199 0
 1388 002a 5FFA88F8 		uxtb	r8, r8
 1389              	.LVL73:
1200:Generated_Source\PSoC5/CyLib.c ****         pmTwCfg2Tmp = CY_LIB_PM_TW_CFG2_REG;
 1390              		.loc 1 1200 0
 1391 002e FFB2     		uxtb	r7, r7
 1392              	.LVL74:
1201:Generated_Source\PSoC5/CyLib.c **** 
 1393              		.loc 1 1201 0
 1394 0030 F6B2     		uxtb	r6, r6
 1395              	.LVL75:
1205:Generated_Source\PSoC5/CyLib.c ****         status = CYRET_TIMEOUT;
1206:Generated_Source\PSoC5/CyLib.c **** 
1207:Generated_Source\PSoC5/CyLib.c **** 
1208:Generated_Source\PSoC5/CyLib.c ****         for( ; timeout > 0u; timeout--)
1209:Generated_Source\PSoC5/CyLib.c ****         {
1210:Generated_Source\PSoC5/CyLib.c ****             /* Read XERR bit to clear it */
1211:Generated_Source\PSoC5/CyLib.c ****             (void) CY_CLK_XMHZ_CSR_REG;
1212:Generated_Source\PSoC5/CyLib.c **** 
ARM GAS  C:\Users\aupen\AppData\Local\Temp\cceqDgz4.s 			page 49


1213:Generated_Source\PSoC5/CyLib.c ****             /* Wait for 1 millisecond - 4 x 250 us */
1214:Generated_Source\PSoC5/CyLib.c ****             for(count = 4u; count > 0u; count--)
 1396              		.loc 1 1214 0
 1397 0032 4FF00409 		mov	r9, #4
 1398              	.L162:
1208:Generated_Source\PSoC5/CyLib.c ****         {
 1399              		.loc 1 1208 0 discriminator 1
 1400 0036 9DF80630 		ldrb	r3, [sp, #6]	@ zero_extendqisi2
 1401 003a EBB1     		cbz	r3, .L173
1211:Generated_Source\PSoC5/CyLib.c **** 
 1402              		.loc 1 1211 0
 1403 003c 2378     		ldrb	r3, [r4]	@ zero_extendqisi2
 1404              		.loc 1 1214 0
 1405 003e 8DF80790 		strb	r9, [sp, #7]
 1406              	.L163:
 1407              		.loc 1 1214 0 is_stmt 0 discriminator 1
 1408 0042 9DF80730 		ldrb	r3, [sp, #7]	@ zero_extendqisi2
 1409 0046 03F0FF00 		and	r0, r3, #255
 1410 004a 5BB1     		cbz	r3, .L174
 1411              	.L171:
1215:Generated_Source\PSoC5/CyLib.c ****             {
1216:Generated_Source\PSoC5/CyLib.c ****                 while(0u == (CY_PM_FTW_INT & CyPmReadStatus(CY_PM_FTW_INT)))
 1412              		.loc 1 1216 0 is_stmt 1 discriminator 1
 1413 004c 0120     		movs	r0, #1
 1414 004e FFF7FEFF 		bl	CyPmReadStatus
 1415              	.LVL76:
 1416 0052 C207     		lsls	r2, r0, #31
 1417 0054 FAD5     		bpl	.L171
1214:Generated_Source\PSoC5/CyLib.c ****             {
 1418              		.loc 1 1214 0 discriminator 2
 1419 0056 9DF80730 		ldrb	r3, [sp, #7]	@ zero_extendqisi2
 1420 005a 013B     		subs	r3, r3, #1
 1421 005c DBB2     		uxtb	r3, r3
 1422 005e 8DF80730 		strb	r3, [sp, #7]
 1423 0062 EEE7     		b	.L163
 1424              	.L174:
1217:Generated_Source\PSoC5/CyLib.c ****                 {
1218:Generated_Source\PSoC5/CyLib.c ****                     /* Wait for FTW interrupt event */
1219:Generated_Source\PSoC5/CyLib.c ****                 }
1220:Generated_Source\PSoC5/CyLib.c ****             }
1221:Generated_Source\PSoC5/CyLib.c **** 
1222:Generated_Source\PSoC5/CyLib.c **** 
1223:Generated_Source\PSoC5/CyLib.c ****             /*******************************************************************
1224:Generated_Source\PSoC5/CyLib.c ****             * High output indicates an oscillator failure.
1225:Generated_Source\PSoC5/CyLib.c ****             * Only can be used after a start-up interval (1 ms) is completed.
1226:Generated_Source\PSoC5/CyLib.c ****             *******************************************************************/
1227:Generated_Source\PSoC5/CyLib.c ****             if(0u == (CY_CLK_XMHZ_CSR_REG & CY_CLK_XMHZ_CSR_XERR))
 1425              		.loc 1 1227 0
 1426 0064 2378     		ldrb	r3, [r4]	@ zero_extendqisi2
 1427 0066 1B06     		lsls	r3, r3, #24
 1428 0068 07D5     		bpl	.L165
1208:Generated_Source\PSoC5/CyLib.c ****         {
 1429              		.loc 1 1208 0
 1430 006a 9DF80630 		ldrb	r3, [sp, #6]	@ zero_extendqisi2
 1431 006e 013B     		subs	r3, r3, #1
 1432 0070 DBB2     		uxtb	r3, r3
 1433 0072 8DF80630 		strb	r3, [sp, #6]
ARM GAS  C:\Users\aupen\AppData\Local\Temp\cceqDgz4.s 			page 50


 1434 0076 DEE7     		b	.L162
 1435              	.L173:
1205:Generated_Source\PSoC5/CyLib.c **** 
 1436              		.loc 1 1205 0
 1437 0078 1020     		movs	r0, #16
 1438              	.L165:
 1439              	.LVL77:
1228:Generated_Source\PSoC5/CyLib.c ****             {
1229:Generated_Source\PSoC5/CyLib.c ****                 status = CYRET_SUCCESS;
1230:Generated_Source\PSoC5/CyLib.c ****                 break;
1231:Generated_Source\PSoC5/CyLib.c ****             }
1232:Generated_Source\PSoC5/CyLib.c ****         }
1233:Generated_Source\PSoC5/CyLib.c **** 
1234:Generated_Source\PSoC5/CyLib.c **** 
1235:Generated_Source\PSoC5/CyLib.c ****         /* Restore 100 KHz ILO, FTW interval, enable and interrupt enable */
1236:Generated_Source\PSoC5/CyLib.c ****         if(0u == (iloEnableState & CY_LIB_SLOWCLK_ILO_CR0_EN_100KHZ))
 1440              		.loc 1 1236 0
 1441 007a 18F0040F 		tst	r8, #4
 1442 007e 01D1     		bne	.L167
1237:Generated_Source\PSoC5/CyLib.c ****         {
1238:Generated_Source\PSoC5/CyLib.c ****             CyILO_Stop100K();
 1443              		.loc 1 1238 0
 1444 0080 FFF7FEFF 		bl	CyILO_Stop100K
 1445              	.LVL78:
 1446              	.L167:
1239:Generated_Source\PSoC5/CyLib.c ****         }
1240:Generated_Source\PSoC5/CyLib.c ****         CY_LIB_PM_TW_CFG0_REG = pmTwCfg0Tmp;
 1447              		.loc 1 1240 0
 1448 0084 054B     		ldr	r3, .L175+12
 1449 0086 1F70     		strb	r7, [r3]
1241:Generated_Source\PSoC5/CyLib.c ****         CY_LIB_PM_TW_CFG2_REG = pmTwCfg2Tmp;
 1450              		.loc 1 1241 0
 1451 0088 2E70     		strb	r6, [r5]
 1452              	.LVL79:
 1453              	.L161:
1242:Generated_Source\PSoC5/CyLib.c ****     }
1243:Generated_Source\PSoC5/CyLib.c **** 
1244:Generated_Source\PSoC5/CyLib.c ****     return(status);
1245:Generated_Source\PSoC5/CyLib.c **** }
 1454              		.loc 1 1245 0
 1455 008a 03B0     		add	sp, sp, #12
 1456              		.cfi_def_cfa_offset 28
 1457              		@ sp needed
 1458 008c BDE8F083 		pop	{r4, r5, r6, r7, r8, r9, pc}
 1459              	.L176:
 1460              		.align	2
 1461              	.L175:
 1462 0090 10420040 		.word	1073758736
 1463 0094 00430040 		.word	1073758976
 1464 0098 82430040 		.word	1073759106
 1465 009c 80430040 		.word	1073759104
 1466              		.cfi_endproc
 1467              	.LFE29:
 1468              		.size	CyXTAL_Start, .-CyXTAL_Start
 1469              		.section	.text.CyXTAL_Stop,"ax",%progbits
 1470              		.align	1
 1471              		.global	CyXTAL_Stop
ARM GAS  C:\Users\aupen\AppData\Local\Temp\cceqDgz4.s 			page 51


 1472              		.thumb
 1473              		.thumb_func
 1474              		.type	CyXTAL_Stop, %function
 1475              	CyXTAL_Stop:
 1476              	.LFB30:
1246:Generated_Source\PSoC5/CyLib.c **** 
1247:Generated_Source\PSoC5/CyLib.c **** 
1248:Generated_Source\PSoC5/CyLib.c **** /*******************************************************************************
1249:Generated_Source\PSoC5/CyLib.c **** * Function Name: CyXTAL_Stop
1250:Generated_Source\PSoC5/CyLib.c **** ****************************************************************************//**
1251:Generated_Source\PSoC5/CyLib.c **** *
1252:Generated_Source\PSoC5/CyLib.c **** *  Disables the megahertz crystal oscillator.
1253:Generated_Source\PSoC5/CyLib.c **** *
1254:Generated_Source\PSoC5/CyLib.c **** *******************************************************************************/
1255:Generated_Source\PSoC5/CyLib.c **** void CyXTAL_Stop(void) 
1256:Generated_Source\PSoC5/CyLib.c **** {
 1477              		.loc 1 1256 0
 1478              		.cfi_startproc
 1479              		@ args = 0, pretend = 0, frame = 0
 1480              		@ frame_needed = 0, uses_anonymous_args = 0
 1481              		@ link register save eliminated.
1257:Generated_Source\PSoC5/CyLib.c ****     /* Disable oscillator. */
1258:Generated_Source\PSoC5/CyLib.c ****     FASTCLK_XMHZ_CSR &= ((uint8)(~XMHZ_CONTROL_ENABLE));
 1482              		.loc 1 1258 0
 1483 0000 024A     		ldr	r2, .L178
 1484 0002 1378     		ldrb	r3, [r2]	@ zero_extendqisi2
 1485 0004 03F0FE03 		and	r3, r3, #254
 1486 0008 1370     		strb	r3, [r2]
 1487 000a 7047     		bx	lr
 1488              	.L179:
 1489              		.align	2
 1490              	.L178:
 1491 000c 10420040 		.word	1073758736
 1492              		.cfi_endproc
 1493              	.LFE30:
 1494              		.size	CyXTAL_Stop, .-CyXTAL_Stop
 1495              		.section	.text.CyXTAL_EnableErrStatus,"ax",%progbits
 1496              		.align	1
 1497              		.global	CyXTAL_EnableErrStatus
 1498              		.thumb
 1499              		.thumb_func
 1500              		.type	CyXTAL_EnableErrStatus, %function
 1501              	CyXTAL_EnableErrStatus:
 1502              	.LFB31:
1259:Generated_Source\PSoC5/CyLib.c **** }
1260:Generated_Source\PSoC5/CyLib.c **** 
1261:Generated_Source\PSoC5/CyLib.c **** 
1262:Generated_Source\PSoC5/CyLib.c **** /*******************************************************************************
1263:Generated_Source\PSoC5/CyLib.c **** * Function Name: CyXTAL_EnableErrStatus
1264:Generated_Source\PSoC5/CyLib.c **** ****************************************************************************//**
1265:Generated_Source\PSoC5/CyLib.c **** *
1266:Generated_Source\PSoC5/CyLib.c **** *  Enables the generation of the XERR status bit for the megahertz crystal.
1267:Generated_Source\PSoC5/CyLib.c **** *  This function is not available for PSoC5.
1268:Generated_Source\PSoC5/CyLib.c **** *
1269:Generated_Source\PSoC5/CyLib.c **** *******************************************************************************/
1270:Generated_Source\PSoC5/CyLib.c **** void CyXTAL_EnableErrStatus(void) 
1271:Generated_Source\PSoC5/CyLib.c **** {
ARM GAS  C:\Users\aupen\AppData\Local\Temp\cceqDgz4.s 			page 52


 1503              		.loc 1 1271 0
 1504              		.cfi_startproc
 1505              		@ args = 0, pretend = 0, frame = 0
 1506              		@ frame_needed = 0, uses_anonymous_args = 0
 1507              		@ link register save eliminated.
1272:Generated_Source\PSoC5/CyLib.c ****     /* If oscillator has insufficient amplitude, XERR bit will be high. */
1273:Generated_Source\PSoC5/CyLib.c ****     CY_CLK_XMHZ_CSR_REG &= ((uint8)(~CY_CLK_XMHZ_CSR_XFB));
 1508              		.loc 1 1273 0
 1509 0000 024A     		ldr	r2, .L181
 1510 0002 1378     		ldrb	r3, [r2]	@ zero_extendqisi2
 1511 0004 03F0FB03 		and	r3, r3, #251
 1512 0008 1370     		strb	r3, [r2]
 1513 000a 7047     		bx	lr
 1514              	.L182:
 1515              		.align	2
 1516              	.L181:
 1517 000c 10420040 		.word	1073758736
 1518              		.cfi_endproc
 1519              	.LFE31:
 1520              		.size	CyXTAL_EnableErrStatus, .-CyXTAL_EnableErrStatus
 1521              		.section	.text.CyXTAL_DisableErrStatus,"ax",%progbits
 1522              		.align	1
 1523              		.global	CyXTAL_DisableErrStatus
 1524              		.thumb
 1525              		.thumb_func
 1526              		.type	CyXTAL_DisableErrStatus, %function
 1527              	CyXTAL_DisableErrStatus:
 1528              	.LFB32:
1274:Generated_Source\PSoC5/CyLib.c **** }
1275:Generated_Source\PSoC5/CyLib.c **** 
1276:Generated_Source\PSoC5/CyLib.c **** 
1277:Generated_Source\PSoC5/CyLib.c **** /*******************************************************************************
1278:Generated_Source\PSoC5/CyLib.c **** * Function Name: CyXTAL_DisableErrStatus
1279:Generated_Source\PSoC5/CyLib.c **** ****************************************************************************//**
1280:Generated_Source\PSoC5/CyLib.c **** *
1281:Generated_Source\PSoC5/CyLib.c **** *  Disables the generation of the XERR status bit for the megahertz crystal.
1282:Generated_Source\PSoC5/CyLib.c **** *  This function is not available for PSoC5.
1283:Generated_Source\PSoC5/CyLib.c **** *
1284:Generated_Source\PSoC5/CyLib.c **** *******************************************************************************/
1285:Generated_Source\PSoC5/CyLib.c **** void CyXTAL_DisableErrStatus(void) 
1286:Generated_Source\PSoC5/CyLib.c **** {
 1529              		.loc 1 1286 0
 1530              		.cfi_startproc
 1531              		@ args = 0, pretend = 0, frame = 0
 1532              		@ frame_needed = 0, uses_anonymous_args = 0
 1533              		@ link register save eliminated.
1287:Generated_Source\PSoC5/CyLib.c ****     /* If oscillator has insufficient amplitude, XERR bit will be high. */
1288:Generated_Source\PSoC5/CyLib.c ****     CY_CLK_XMHZ_CSR_REG |= CY_CLK_XMHZ_CSR_XFB;
 1534              		.loc 1 1288 0
 1535 0000 024A     		ldr	r2, .L184
 1536 0002 1378     		ldrb	r3, [r2]	@ zero_extendqisi2
 1537 0004 43F00403 		orr	r3, r3, #4
 1538 0008 1370     		strb	r3, [r2]
 1539 000a 7047     		bx	lr
 1540              	.L185:
 1541              		.align	2
 1542              	.L184:
ARM GAS  C:\Users\aupen\AppData\Local\Temp\cceqDgz4.s 			page 53


 1543 000c 10420040 		.word	1073758736
 1544              		.cfi_endproc
 1545              	.LFE32:
 1546              		.size	CyXTAL_DisableErrStatus, .-CyXTAL_DisableErrStatus
 1547              		.section	.text.CyXTAL_ReadStatus,"ax",%progbits
 1548              		.align	1
 1549              		.global	CyXTAL_ReadStatus
 1550              		.thumb
 1551              		.thumb_func
 1552              		.type	CyXTAL_ReadStatus, %function
 1553              	CyXTAL_ReadStatus:
 1554              	.LFB33:
1289:Generated_Source\PSoC5/CyLib.c **** }
1290:Generated_Source\PSoC5/CyLib.c **** 
1291:Generated_Source\PSoC5/CyLib.c **** 
1292:Generated_Source\PSoC5/CyLib.c **** /*******************************************************************************
1293:Generated_Source\PSoC5/CyLib.c **** * Function Name: CyXTAL_ReadStatus
1294:Generated_Source\PSoC5/CyLib.c **** ****************************************************************************//**
1295:Generated_Source\PSoC5/CyLib.c **** *
1296:Generated_Source\PSoC5/CyLib.c **** *  Reads the XERR status bit for the megahertz crystal. This status bit is a
1297:Generated_Source\PSoC5/CyLib.c **** *  sticky, clear on read. This function is not available for PSoC5.
1298:Generated_Source\PSoC5/CyLib.c **** *
1299:Generated_Source\PSoC5/CyLib.c **** * \return
1300:Generated_Source\PSoC5/CyLib.c **** *   Status
1301:Generated_Source\PSoC5/CyLib.c **** *    0: No error
1302:Generated_Source\PSoC5/CyLib.c **** *    1: Error
1303:Generated_Source\PSoC5/CyLib.c **** *
1304:Generated_Source\PSoC5/CyLib.c **** *******************************************************************************/
1305:Generated_Source\PSoC5/CyLib.c **** uint8 CyXTAL_ReadStatus(void) 
1306:Generated_Source\PSoC5/CyLib.c **** {
 1555              		.loc 1 1306 0
 1556              		.cfi_startproc
 1557              		@ args = 0, pretend = 0, frame = 0
 1558              		@ frame_needed = 0, uses_anonymous_args = 0
 1559              		@ link register save eliminated.
1307:Generated_Source\PSoC5/CyLib.c ****     /***************************************************************************
1308:Generated_Source\PSoC5/CyLib.c ****     * High output indicates an oscillator failure. Only use this after a start-up
1309:Generated_Source\PSoC5/CyLib.c ****     * interval is completed. This can be used for the status and failure recovery.
1310:Generated_Source\PSoC5/CyLib.c ****     ***************************************************************************/
1311:Generated_Source\PSoC5/CyLib.c ****     return((0u != (CY_CLK_XMHZ_CSR_REG & CY_CLK_XMHZ_CSR_XERR)) ? 1u : 0u);
 1560              		.loc 1 1311 0
 1561 0000 014B     		ldr	r3, .L187
 1562 0002 1878     		ldrb	r0, [r3]	@ zero_extendqisi2
1312:Generated_Source\PSoC5/CyLib.c **** }
 1563              		.loc 1 1312 0
 1564 0004 C009     		lsrs	r0, r0, #7
 1565 0006 7047     		bx	lr
 1566              	.L188:
 1567              		.align	2
 1568              	.L187:
 1569 0008 10420040 		.word	1073758736
 1570              		.cfi_endproc
 1571              	.LFE33:
 1572              		.size	CyXTAL_ReadStatus, .-CyXTAL_ReadStatus
 1573              		.section	.text.CyXTAL_EnableFaultRecovery,"ax",%progbits
 1574              		.align	1
 1575              		.global	CyXTAL_EnableFaultRecovery
ARM GAS  C:\Users\aupen\AppData\Local\Temp\cceqDgz4.s 			page 54


 1576              		.thumb
 1577              		.thumb_func
 1578              		.type	CyXTAL_EnableFaultRecovery, %function
 1579              	CyXTAL_EnableFaultRecovery:
 1580              	.LFB34:
1313:Generated_Source\PSoC5/CyLib.c **** 
1314:Generated_Source\PSoC5/CyLib.c **** 
1315:Generated_Source\PSoC5/CyLib.c **** /*******************************************************************************
1316:Generated_Source\PSoC5/CyLib.c **** * Function Name: CyXTAL_EnableFaultRecovery
1317:Generated_Source\PSoC5/CyLib.c **** ****************************************************************************//**
1318:Generated_Source\PSoC5/CyLib.c **** *
1319:Generated_Source\PSoC5/CyLib.c **** *  Enables the fault recovery circuit which will switch to the IMO in the case
1320:Generated_Source\PSoC5/CyLib.c **** *  of a fault in the megahertz crystal circuit. The crystal must be up and
1321:Generated_Source\PSoC5/CyLib.c **** *  running with the XERR bit at 0, before calling this function to prevent
1322:Generated_Source\PSoC5/CyLib.c **** *  an immediate fault switchover. This function is not available for PSoC5.
1323:Generated_Source\PSoC5/CyLib.c **** *
1324:Generated_Source\PSoC5/CyLib.c **** *******************************************************************************/
1325:Generated_Source\PSoC5/CyLib.c **** void CyXTAL_EnableFaultRecovery(void) 
1326:Generated_Source\PSoC5/CyLib.c **** {
 1581              		.loc 1 1326 0
 1582              		.cfi_startproc
 1583              		@ args = 0, pretend = 0, frame = 0
 1584              		@ frame_needed = 0, uses_anonymous_args = 0
 1585              		@ link register save eliminated.
1327:Generated_Source\PSoC5/CyLib.c ****     CY_CLK_XMHZ_CSR_REG |= CY_CLK_XMHZ_CSR_XPROT;
 1586              		.loc 1 1327 0
 1587 0000 024A     		ldr	r2, .L190
 1588 0002 1378     		ldrb	r3, [r2]	@ zero_extendqisi2
 1589 0004 43F04003 		orr	r3, r3, #64
 1590 0008 1370     		strb	r3, [r2]
 1591 000a 7047     		bx	lr
 1592              	.L191:
 1593              		.align	2
 1594              	.L190:
 1595 000c 10420040 		.word	1073758736
 1596              		.cfi_endproc
 1597              	.LFE34:
 1598              		.size	CyXTAL_EnableFaultRecovery, .-CyXTAL_EnableFaultRecovery
 1599              		.section	.text.CyXTAL_DisableFaultRecovery,"ax",%progbits
 1600              		.align	1
 1601              		.global	CyXTAL_DisableFaultRecovery
 1602              		.thumb
 1603              		.thumb_func
 1604              		.type	CyXTAL_DisableFaultRecovery, %function
 1605              	CyXTAL_DisableFaultRecovery:
 1606              	.LFB35:
1328:Generated_Source\PSoC5/CyLib.c **** }
1329:Generated_Source\PSoC5/CyLib.c **** 
1330:Generated_Source\PSoC5/CyLib.c **** 
1331:Generated_Source\PSoC5/CyLib.c **** /*******************************************************************************
1332:Generated_Source\PSoC5/CyLib.c **** * Function Name: CyXTAL_DisableFaultRecovery
1333:Generated_Source\PSoC5/CyLib.c **** ****************************************************************************//**
1334:Generated_Source\PSoC5/CyLib.c **** *
1335:Generated_Source\PSoC5/CyLib.c **** *  Disables the fault recovery circuit which will switch to the IMO in the case
1336:Generated_Source\PSoC5/CyLib.c **** *  of a fault in the megahertz crystal circuit. This function is not available
1337:Generated_Source\PSoC5/CyLib.c **** *  for PSoC5.
1338:Generated_Source\PSoC5/CyLib.c **** *
ARM GAS  C:\Users\aupen\AppData\Local\Temp\cceqDgz4.s 			page 55


1339:Generated_Source\PSoC5/CyLib.c **** *******************************************************************************/
1340:Generated_Source\PSoC5/CyLib.c **** void CyXTAL_DisableFaultRecovery(void) 
1341:Generated_Source\PSoC5/CyLib.c **** {
 1607              		.loc 1 1341 0
 1608              		.cfi_startproc
 1609              		@ args = 0, pretend = 0, frame = 0
 1610              		@ frame_needed = 0, uses_anonymous_args = 0
 1611              		@ link register save eliminated.
1342:Generated_Source\PSoC5/CyLib.c ****     CY_CLK_XMHZ_CSR_REG &= ((uint8)(~CY_CLK_XMHZ_CSR_XPROT));
 1612              		.loc 1 1342 0
 1613 0000 024A     		ldr	r2, .L193
 1614 0002 1378     		ldrb	r3, [r2]	@ zero_extendqisi2
 1615 0004 03F0BF03 		and	r3, r3, #191
 1616 0008 1370     		strb	r3, [r2]
 1617 000a 7047     		bx	lr
 1618              	.L194:
 1619              		.align	2
 1620              	.L193:
 1621 000c 10420040 		.word	1073758736
 1622              		.cfi_endproc
 1623              	.LFE35:
 1624              		.size	CyXTAL_DisableFaultRecovery, .-CyXTAL_DisableFaultRecovery
 1625              		.section	.text.CyXTAL_SetStartup,"ax",%progbits
 1626              		.align	1
 1627              		.global	CyXTAL_SetStartup
 1628              		.thumb
 1629              		.thumb_func
 1630              		.type	CyXTAL_SetStartup, %function
 1631              	CyXTAL_SetStartup:
 1632              	.LFB36:
1343:Generated_Source\PSoC5/CyLib.c **** }
1344:Generated_Source\PSoC5/CyLib.c **** 
1345:Generated_Source\PSoC5/CyLib.c **** 
1346:Generated_Source\PSoC5/CyLib.c **** /*******************************************************************************
1347:Generated_Source\PSoC5/CyLib.c **** * Function Name: CyXTAL_SetStartup
1348:Generated_Source\PSoC5/CyLib.c **** ****************************************************************************//**
1349:Generated_Source\PSoC5/CyLib.c **** *
1350:Generated_Source\PSoC5/CyLib.c **** *  Sets the startup settings for the crystal. The logic model outputs a
1351:Generated_Source\PSoC5/CyLib.c **** *  frequency (setting + 4) MHz when enabled.
1352:Generated_Source\PSoC5/CyLib.c **** *
1353:Generated_Source\PSoC5/CyLib.c **** *  This is artificial as the actual frequency is determined by an attached
1354:Generated_Source\PSoC5/CyLib.c **** *  external crystal.
1355:Generated_Source\PSoC5/CyLib.c **** *
1356:Generated_Source\PSoC5/CyLib.c **** *  \param setting: Valid range [0-31].
1357:Generated_Source\PSoC5/CyLib.c **** *   The value is dependent on the frequency and quality of the crystal being
1358:Generated_Source\PSoC5/CyLib.c **** *   used. Refer to the device TRM and datasheet for more information.
1359:Generated_Source\PSoC5/CyLib.c **** *
1360:Generated_Source\PSoC5/CyLib.c **** *******************************************************************************/
1361:Generated_Source\PSoC5/CyLib.c **** void CyXTAL_SetStartup(uint8 setting) 
1362:Generated_Source\PSoC5/CyLib.c **** {
 1633              		.loc 1 1362 0
 1634              		.cfi_startproc
 1635              		@ args = 0, pretend = 0, frame = 0
 1636              		@ frame_needed = 0, uses_anonymous_args = 0
 1637              		@ link register save eliminated.
 1638              	.LVL80:
1363:Generated_Source\PSoC5/CyLib.c ****     CY_CLK_XMHZ_CFG0_REG = (CY_CLK_XMHZ_CFG0_REG & ((uint8)(~CY_CLK_XMHZ_CFG0_XCFG_MASK))) |
ARM GAS  C:\Users\aupen\AppData\Local\Temp\cceqDgz4.s 			page 56


 1639              		.loc 1 1363 0
 1640 0000 044A     		ldr	r2, .L196
 1641 0002 00F01F00 		and	r0, r0, #31
 1642              	.LVL81:
 1643 0006 1378     		ldrb	r3, [r2]	@ zero_extendqisi2
 1644 0008 03F0E003 		and	r3, r3, #224
 1645 000c 1843     		orrs	r0, r0, r3
 1646 000e 1070     		strb	r0, [r2]
 1647 0010 7047     		bx	lr
 1648              	.L197:
 1649 0012 00BF     		.align	2
 1650              	.L196:
 1651 0014 12420040 		.word	1073758738
 1652              		.cfi_endproc
 1653              	.LFE36:
 1654              		.size	CyXTAL_SetStartup, .-CyXTAL_SetStartup
 1655              		.section	.text.CyXTAL_SetFbVoltage,"ax",%progbits
 1656              		.align	1
 1657              		.global	CyXTAL_SetFbVoltage
 1658              		.thumb
 1659              		.thumb_func
 1660              		.type	CyXTAL_SetFbVoltage, %function
 1661              	CyXTAL_SetFbVoltage:
 1662              	.LFB37:
1364:Generated_Source\PSoC5/CyLib.c ****                            (setting & CY_CLK_XMHZ_CFG0_XCFG_MASK);
1365:Generated_Source\PSoC5/CyLib.c **** }
1366:Generated_Source\PSoC5/CyLib.c **** 
1367:Generated_Source\PSoC5/CyLib.c **** 
1368:Generated_Source\PSoC5/CyLib.c **** 
1369:Generated_Source\PSoC5/CyLib.c **** /*******************************************************************************
1370:Generated_Source\PSoC5/CyLib.c **** * Function Name: CyXTAL_SetFbVoltage
1371:Generated_Source\PSoC5/CyLib.c **** ****************************************************************************//**
1372:Generated_Source\PSoC5/CyLib.c **** *
1373:Generated_Source\PSoC5/CyLib.c **** *  Sets the feedback reference voltage to use for the crystal circuit.
1374:Generated_Source\PSoC5/CyLib.c **** *  This function is only available for PSoC3 and PSoC 5LP.
1375:Generated_Source\PSoC5/CyLib.c **** *
1376:Generated_Source\PSoC5/CyLib.c **** *  \param setting: Valid range [0-15].
1377:Generated_Source\PSoC5/CyLib.c **** *  Refer to the device TRM and datasheet for more information.
1378:Generated_Source\PSoC5/CyLib.c **** *
1379:Generated_Source\PSoC5/CyLib.c **** *******************************************************************************/
1380:Generated_Source\PSoC5/CyLib.c **** void CyXTAL_SetFbVoltage(uint8 setting) 
1381:Generated_Source\PSoC5/CyLib.c **** {
 1663              		.loc 1 1381 0
 1664              		.cfi_startproc
 1665              		@ args = 0, pretend = 0, frame = 0
 1666              		@ frame_needed = 0, uses_anonymous_args = 0
 1667              		@ link register save eliminated.
 1668              	.LVL82:
1382:Generated_Source\PSoC5/CyLib.c ****     CY_CLK_XMHZ_CFG1_REG = ((CY_CLK_XMHZ_CFG1_REG & ((uint8)(~CY_CLK_XMHZ_CFG1_VREF_FB_MASK))) |
 1669              		.loc 1 1382 0
 1670 0000 044A     		ldr	r2, .L199
 1671 0002 00F00F00 		and	r0, r0, #15
 1672              	.LVL83:
 1673 0006 1378     		ldrb	r3, [r2]	@ zero_extendqisi2
 1674 0008 03F0F003 		and	r3, r3, #240
 1675 000c 1843     		orrs	r0, r0, r3
 1676 000e 1070     		strb	r0, [r2]
ARM GAS  C:\Users\aupen\AppData\Local\Temp\cceqDgz4.s 			page 57


 1677 0010 7047     		bx	lr
 1678              	.L200:
 1679 0012 00BF     		.align	2
 1680              	.L199:
 1681 0014 13420040 		.word	1073758739
 1682              		.cfi_endproc
 1683              	.LFE37:
 1684              		.size	CyXTAL_SetFbVoltage, .-CyXTAL_SetFbVoltage
 1685              		.section	.text.CyXTAL_SetWdVoltage,"ax",%progbits
 1686              		.align	1
 1687              		.global	CyXTAL_SetWdVoltage
 1688              		.thumb
 1689              		.thumb_func
 1690              		.type	CyXTAL_SetWdVoltage, %function
 1691              	CyXTAL_SetWdVoltage:
 1692              	.LFB38:
1383:Generated_Source\PSoC5/CyLib.c ****                             (setting & CY_CLK_XMHZ_CFG1_VREF_FB_MASK));
1384:Generated_Source\PSoC5/CyLib.c **** }
1385:Generated_Source\PSoC5/CyLib.c **** 
1386:Generated_Source\PSoC5/CyLib.c **** 
1387:Generated_Source\PSoC5/CyLib.c **** /*******************************************************************************
1388:Generated_Source\PSoC5/CyLib.c **** * Function Name: CyXTAL_SetWdVoltage
1389:Generated_Source\PSoC5/CyLib.c **** ****************************************************************************//**
1390:Generated_Source\PSoC5/CyLib.c **** *
1391:Generated_Source\PSoC5/CyLib.c **** *  Sets the reference voltage used by the watchdog to detect a failure in the
1392:Generated_Source\PSoC5/CyLib.c **** *  crystal circuit. This function is only available for PSoC3 and PSoC 5LP.
1393:Generated_Source\PSoC5/CyLib.c **** *
1394:Generated_Source\PSoC5/CyLib.c **** *  \param setting: Valid range [0-7].
1395:Generated_Source\PSoC5/CyLib.c **** *  Refer to the device TRM and datasheet for more information.
1396:Generated_Source\PSoC5/CyLib.c **** *
1397:Generated_Source\PSoC5/CyLib.c **** *******************************************************************************/
1398:Generated_Source\PSoC5/CyLib.c **** void CyXTAL_SetWdVoltage(uint8 setting) 
1399:Generated_Source\PSoC5/CyLib.c **** {
 1693              		.loc 1 1399 0
 1694              		.cfi_startproc
 1695              		@ args = 0, pretend = 0, frame = 0
 1696              		@ frame_needed = 0, uses_anonymous_args = 0
 1697              		@ link register save eliminated.
 1698              	.LVL84:
1400:Generated_Source\PSoC5/CyLib.c ****     CY_CLK_XMHZ_CFG1_REG = ((CY_CLK_XMHZ_CFG1_REG & ((uint8)(~CY_CLK_XMHZ_CFG1_VREF_WD_MASK))) |
 1699              		.loc 1 1400 0
 1700 0000 044A     		ldr	r2, .L202
 1701 0002 0001     		lsls	r0, r0, #4
 1702              	.LVL85:
 1703 0004 1378     		ldrb	r3, [r2]	@ zero_extendqisi2
 1704 0006 00F07000 		and	r0, r0, #112
 1705 000a 03F08F03 		and	r3, r3, #143
 1706 000e 0343     		orrs	r3, r3, r0
 1707 0010 1370     		strb	r3, [r2]
 1708 0012 7047     		bx	lr
 1709              	.L203:
 1710              		.align	2
 1711              	.L202:
 1712 0014 13420040 		.word	1073758739
 1713              		.cfi_endproc
 1714              	.LFE38:
 1715              		.size	CyXTAL_SetWdVoltage, .-CyXTAL_SetWdVoltage
ARM GAS  C:\Users\aupen\AppData\Local\Temp\cceqDgz4.s 			page 58


 1716              		.section	.text.CyHalt,"ax",%progbits
 1717              		.align	1
 1718              		.global	CyHalt
 1719              		.thumb
 1720              		.thumb_func
 1721              		.type	CyHalt, %function
 1722              	CyHalt:
 1723              	.LFB39:
1401:Generated_Source\PSoC5/CyLib.c ****                             (((uint8)(setting << 4u)) & CY_CLK_XMHZ_CFG1_VREF_WD_MASK));
1402:Generated_Source\PSoC5/CyLib.c **** }
1403:Generated_Source\PSoC5/CyLib.c **** 
1404:Generated_Source\PSoC5/CyLib.c **** 
1405:Generated_Source\PSoC5/CyLib.c **** /*******************************************************************************
1406:Generated_Source\PSoC5/CyLib.c **** * Function Name: CyHalt
1407:Generated_Source\PSoC5/CyLib.c **** ****************************************************************************//**
1408:Generated_Source\PSoC5/CyLib.c **** *
1409:Generated_Source\PSoC5/CyLib.c **** *  Halts the CPU.
1410:Generated_Source\PSoC5/CyLib.c **** *
1411:Generated_Source\PSoC5/CyLib.c **** *  \param uint8 reason: Value to be used during debugging.
1412:Generated_Source\PSoC5/CyLib.c **** *
1413:Generated_Source\PSoC5/CyLib.c **** *******************************************************************************/
1414:Generated_Source\PSoC5/CyLib.c **** void CyHalt(uint8 reason) CYREENTRANT
1415:Generated_Source\PSoC5/CyLib.c **** {
 1724              		.loc 1 1415 0
 1725              		.cfi_startproc
 1726              		@ args = 0, pretend = 0, frame = 0
 1727              		@ frame_needed = 0, uses_anonymous_args = 0
 1728              		@ link register save eliminated.
 1729              	.LVL86:
1416:Generated_Source\PSoC5/CyLib.c ****     if(0u != reason)
1417:Generated_Source\PSoC5/CyLib.c ****     {
1418:Generated_Source\PSoC5/CyLib.c ****         /* To remove unreferenced local variable warning */
1419:Generated_Source\PSoC5/CyLib.c ****     }
1420:Generated_Source\PSoC5/CyLib.c **** 
1421:Generated_Source\PSoC5/CyLib.c ****     #if defined (__ARMCC_VERSION)
1422:Generated_Source\PSoC5/CyLib.c ****         __breakpoint(0x0);
1423:Generated_Source\PSoC5/CyLib.c ****     #elif defined(__GNUC__) || defined (__ICCARM__)
1424:Generated_Source\PSoC5/CyLib.c ****         __asm("    bkpt    1");
 1730              		.loc 1 1424 0
 1731              		.syntax unified
 1732              	@ 1424 "Generated_Source\PSoC5\CyLib.c" 1
 1733 0000 01BE     		    bkpt    1
 1734              	@ 0 "" 2
 1735              		.thumb
 1736              		.syntax unified
 1737 0002 7047     		bx	lr
 1738              		.cfi_endproc
 1739              	.LFE39:
 1740              		.size	CyHalt, .-CyHalt
 1741              		.section	.text.CySoftwareReset,"ax",%progbits
 1742              		.align	1
 1743              		.global	CySoftwareReset
 1744              		.thumb
 1745              		.thumb_func
 1746              		.type	CySoftwareReset, %function
 1747              	CySoftwareReset:
 1748              	.LFB40:
ARM GAS  C:\Users\aupen\AppData\Local\Temp\cceqDgz4.s 			page 59


1425:Generated_Source\PSoC5/CyLib.c ****     #elif defined(__C51__)
1426:Generated_Source\PSoC5/CyLib.c ****         CYDEV_HALT_CPU;
1427:Generated_Source\PSoC5/CyLib.c ****     #endif  /* (__ARMCC_VERSION) */
1428:Generated_Source\PSoC5/CyLib.c **** }
1429:Generated_Source\PSoC5/CyLib.c **** 
1430:Generated_Source\PSoC5/CyLib.c **** 
1431:Generated_Source\PSoC5/CyLib.c **** /*******************************************************************************
1432:Generated_Source\PSoC5/CyLib.c **** * Function Name: CySoftwareReset
1433:Generated_Source\PSoC5/CyLib.c **** ****************************************************************************//**
1434:Generated_Source\PSoC5/CyLib.c **** *
1435:Generated_Source\PSoC5/CyLib.c **** *  Forces a device software reset.
1436:Generated_Source\PSoC5/CyLib.c **** *
1437:Generated_Source\PSoC5/CyLib.c **** *******************************************************************************/
1438:Generated_Source\PSoC5/CyLib.c **** void CySoftwareReset(void) 
1439:Generated_Source\PSoC5/CyLib.c **** {
 1749              		.loc 1 1439 0
 1750              		.cfi_startproc
 1751              		@ args = 0, pretend = 0, frame = 0
 1752              		@ frame_needed = 0, uses_anonymous_args = 0
 1753              		@ link register save eliminated.
1440:Generated_Source\PSoC5/CyLib.c ****     CY_LIB_RESET_CR2_REG |= CY_LIB_RESET_CR2_RESET;
 1754              		.loc 1 1440 0
 1755 0000 024A     		ldr	r2, .L206
 1756 0002 1378     		ldrb	r3, [r2]	@ zero_extendqisi2
 1757 0004 43F00103 		orr	r3, r3, #1
 1758 0008 1370     		strb	r3, [r2]
 1759 000a 7047     		bx	lr
 1760              	.L207:
 1761              		.align	2
 1762              	.L206:
 1763 000c F6460040 		.word	1073759990
 1764              		.cfi_endproc
 1765              	.LFE40:
 1766              		.size	CySoftwareReset, .-CySoftwareReset
 1767              		.section	.text.CyDelay,"ax",%progbits
 1768              		.align	1
 1769              		.global	CyDelay
 1770              		.thumb
 1771              		.thumb_func
 1772              		.type	CyDelay, %function
 1773              	CyDelay:
 1774              	.LFB41:
1441:Generated_Source\PSoC5/CyLib.c **** }
1442:Generated_Source\PSoC5/CyLib.c **** 
1443:Generated_Source\PSoC5/CyLib.c **** 
1444:Generated_Source\PSoC5/CyLib.c **** /*******************************************************************************
1445:Generated_Source\PSoC5/CyLib.c **** * Function Name: CyDelay
1446:Generated_Source\PSoC5/CyLib.c **** ****************************************************************************//**
1447:Generated_Source\PSoC5/CyLib.c **** *
1448:Generated_Source\PSoC5/CyLib.c **** *  Blocks for milliseconds.
1449:Generated_Source\PSoC5/CyLib.c **** *
1450:Generated_Source\PSoC5/CyLib.c **** *  Note:
1451:Generated_Source\PSoC5/CyLib.c **** *  CyDelay has been implemented with the instruction cache assumed enabled. When
1452:Generated_Source\PSoC5/CyLib.c **** *  the instruction cache is disabled on PSoC5, CyDelay will be two times larger.
1453:Generated_Source\PSoC5/CyLib.c **** *  For example, with instruction cache disabled CyDelay(100) would result in
1454:Generated_Source\PSoC5/CyLib.c **** *  about 200 ms delay instead of 100 ms.
1455:Generated_Source\PSoC5/CyLib.c **** *
ARM GAS  C:\Users\aupen\AppData\Local\Temp\cceqDgz4.s 			page 60


1456:Generated_Source\PSoC5/CyLib.c **** *  \param milliseconds: number of milliseconds to delay.
1457:Generated_Source\PSoC5/CyLib.c **** *
1458:Generated_Source\PSoC5/CyLib.c **** *******************************************************************************/
1459:Generated_Source\PSoC5/CyLib.c **** void CyDelay(uint32 milliseconds) CYREENTRANT
1460:Generated_Source\PSoC5/CyLib.c **** {
 1775              		.loc 1 1460 0
 1776              		.cfi_startproc
 1777              		@ args = 0, pretend = 0, frame = 0
 1778              		@ frame_needed = 0, uses_anonymous_args = 0
 1779              	.LVL87:
 1780 0000 38B5     		push	{r3, r4, r5, lr}
 1781              		.cfi_def_cfa_offset 16
 1782              		.cfi_offset 3, -16
 1783              		.cfi_offset 4, -12
 1784              		.cfi_offset 5, -8
 1785              		.cfi_offset 14, -4
 1786              		.loc 1 1460 0
 1787 0002 0446     		mov	r4, r0
 1788 0004 084D     		ldr	r5, .L212
 1789              	.LVL88:
 1790              	.L209:
1461:Generated_Source\PSoC5/CyLib.c ****     while (milliseconds > 32768u)
 1791              		.loc 1 1461 0
 1792 0006 B4F5004F 		cmp	r4, #32768
 1793 000a 05D9     		bls	.L211
1462:Generated_Source\PSoC5/CyLib.c ****     {
1463:Generated_Source\PSoC5/CyLib.c ****         /***********************************************************************
1464:Generated_Source\PSoC5/CyLib.c ****         * This loop prevents overflow.At 100MHz, milliseconds * delay_freq_khz
1465:Generated_Source\PSoC5/CyLib.c ****         * overflows at about 42 seconds.
1466:Generated_Source\PSoC5/CyLib.c ****         ***********************************************************************/
1467:Generated_Source\PSoC5/CyLib.c ****         CyDelayCycles(cydelay_32k_ms);
 1794              		.loc 1 1467 0
 1795 000c 2868     		ldr	r0, [r5]
 1796 000e FFF7FEFF 		bl	CyDelayCycles
 1797              	.LVL89:
1468:Generated_Source\PSoC5/CyLib.c ****         milliseconds = ((uint32)(milliseconds - 32768u));
 1798              		.loc 1 1468 0
 1799 0012 A4F50044 		sub	r4, r4, #32768
 1800              	.LVL90:
 1801 0016 F6E7     		b	.L209
 1802              	.L211:
1469:Generated_Source\PSoC5/CyLib.c ****     }
1470:Generated_Source\PSoC5/CyLib.c **** 
1471:Generated_Source\PSoC5/CyLib.c ****     CyDelayCycles(milliseconds * cydelay_freq_khz);
 1803              		.loc 1 1471 0
 1804 0018 034B     		ldr	r3, .L212
 1805 001a 5868     		ldr	r0, [r3, #4]
 1806 001c 6043     		muls	r0, r4, r0
1472:Generated_Source\PSoC5/CyLib.c **** }
 1807              		.loc 1 1472 0
 1808 001e BDE83840 		pop	{r3, r4, r5, lr}
 1809              		.cfi_restore 14
 1810              		.cfi_restore 5
 1811              		.cfi_restore 4
 1812              		.cfi_restore 3
 1813              		.cfi_def_cfa_offset 0
 1814              	.LVL91:
ARM GAS  C:\Users\aupen\AppData\Local\Temp\cceqDgz4.s 			page 61


1471:Generated_Source\PSoC5/CyLib.c **** }
 1815              		.loc 1 1471 0
 1816 0022 FFF7FEBF 		b	CyDelayCycles
 1817              	.LVL92:
 1818              	.L213:
 1819 0026 00BF     		.align	2
 1820              	.L212:
 1821 0028 00000000 		.word	.LANCHOR0
 1822              		.cfi_endproc
 1823              	.LFE41:
 1824              		.size	CyDelay, .-CyDelay
 1825              		.section	.text.CyDelayUs,"ax",%progbits
 1826              		.align	1
 1827              		.global	CyDelayUs
 1828              		.thumb
 1829              		.thumb_func
 1830              		.type	CyDelayUs, %function
 1831              	CyDelayUs:
 1832              	.LFB42:
1473:Generated_Source\PSoC5/CyLib.c **** 
1474:Generated_Source\PSoC5/CyLib.c **** 
1475:Generated_Source\PSoC5/CyLib.c **** #if(!CY_PSOC3)
1476:Generated_Source\PSoC5/CyLib.c **** 
1477:Generated_Source\PSoC5/CyLib.c ****     /* For PSoC3 devices function is defined in CyBootAsmKeil.a51 file */
1478:Generated_Source\PSoC5/CyLib.c **** 
