ARM GAS  C:\Users\aupen\AppData\Local\Temp\cc9dMVob.s 			page 1


   1              		.syntax unified
   2              		.cpu cortex-m3
   3              		.fpu softvfp
   4              		.eabi_attribute 20, 1
   5              		.eabi_attribute 21, 1
   6              		.eabi_attribute 23, 3
   7              		.eabi_attribute 24, 1
   8              		.eabi_attribute 25, 1
   9              		.eabi_attribute 26, 1
  10              		.eabi_attribute 30, 4
  11              		.eabi_attribute 34, 1
  12              		.eabi_attribute 18, 4
  13              		.thumb
  14              		.syntax unified
  15              		.file	"main.c"
  16              		.text
  17              	.Ltext0:
  18              		.cfi_sections	.debug_frame
  19              		.section	.text.Go,"ax",%progbits
  20              		.align	1
  21              		.global	Go
  22              		.thumb
  23              		.thumb_func
  24              		.type	Go, %function
  25              	Go:
  26              	.LFB1:
  27              		.file 1 "main.c"
   1:main.c        **** /* ========================================
   2:main.c        ****  *
   3:main.c        ****  * Copyright YOUR COMPANY, THE YEAR
   4:main.c        ****  * All Rights Reserved
   5:main.c        ****  * UNPUBLISHED, LICENSED SOFTWARE.
   6:main.c        ****  *
   7:main.c        ****  * CONFIDENTIAL AND PROPRIETARY INFORMATION
   8:main.c        ****  * WHICH IS THE PROPERTY OF your company.
   9:main.c        ****  *
  10:main.c        ****  * ========================================
  11:main.c        **** */
  12:main.c        **** #include "project.h"
  13:main.c        **** #include <stdlib.h>
  14:main.c        **** #include "stdio.h"
  15:main.c        **** #include "sensors.h"
  16:main.c        **** #include "drive.h"
  17:main.c        **** #include "console.h"
  18:main.c        **** #include "esc.h"
  19:main.c        **** #include "timer_time.h"
  20:main.c        **** #include "RCsensors.h"
  21:main.c        **** #include "bt_app.h"
  22:main.c        **** #include "esc_control.h"
  23:main.c        **** 
  24:main.c        **** 
  25:main.c        **** 
  26:main.c        **** unsigned int sensorValues[10];
  27:main.c        **** int32_t motorSpeed;
  28:main.c        **** int Kp = 6;
  29:main.c        **** int Kd = 40;//100
  30:main.c        **** int baseSpeed = 50;
ARM GAS  C:\Users\aupen\AppData\Local\Temp\cc9dMVob.s 			page 2


  31:main.c        **** int turnSpeed = 50;
  32:main.c        **** int lastError = 0; 
  33:main.c        **** int errorbaseSpeed = 0;
  34:main.c        **** int stop = 0;
  35:main.c        **** 
  36:main.c        **** 
  37:main.c        **** 
  38:main.c        **** 
  39:main.c        **** 
  40:main.c        **** void Go(long motorSpeed) // Braukšanas funkcija (motorSpeed ir PID izrēķinātā vērtība)
  41:main.c        **** {
  28              		.loc 1 41 0
  29              		.cfi_startproc
  30              		@ args = 0, pretend = 0, frame = 0
  31              		@ frame_needed = 0, uses_anonymous_args = 0
  32              		@ link register save eliminated.
  33              	.LVL0:
  34 0000 024B     		ldr	r3, .L3
  42:main.c        ****   if (motorSpeed >= 0)
  43:main.c        ****   {
  44:main.c        ****     if (motorSpeed <= errorbaseSpeed)
  35              		.loc 1 44 0
  36 0002 1B68     		ldr	r3, [r3]
  45:main.c        ****     {
  46:main.c        ****       //leftm.drive(baseSpeed - motorSpeed);
  47:main.c        ****       //rightm.drive(baseSpeed); 
  48:main.c        ****         drive_motors(errorbaseSpeed - motorSpeed, errorbaseSpeed + motorSpeed);
  49:main.c        ****     }
  50:main.c        ****     else
  51:main.c        ****     {
  52:main.c        ****       //leftm.drive(-(motorSpeed - baseSpeed));
  53:main.c        ****       //rightm.drive(baseSpeed); 
  54:main.c        ****         drive_motors(-(motorSpeed - errorbaseSpeed), errorbaseSpeed + motorSpeed);
  37              		.loc 1 54 0
  38 0004 C118     		adds	r1, r0, r3
  39 0006 181A     		subs	r0, r3, r0
  40              	.LVL1:
  41              	.LBB4:
  42              	.LBB5:
  55:main.c        ****     }
  56:main.c        ****   }
  57:main.c        **** 
  58:main.c        ****   if (motorSpeed < 0)
  59:main.c        ****   {
  60:main.c        ****     if (abs(motorSpeed) <= errorbaseSpeed)
  61:main.c        ****     {
  62:main.c        ****       //leftm(baseSpeed);
  63:main.c        ****       //rightm(baseSpeed - abs(motorSpeed));
  64:main.c        ****         drive_motors(errorbaseSpeed + abs(motorSpeed), errorbaseSpeed - abs(motorSpeed));
  65:main.c        ****     }
  66:main.c        ****     else
  67:main.c        ****     {
  68:main.c        ****       //leftm(baseSpeed);
  69:main.c        ****       //rightm(-(abs(motorSpeed) - baseSpeed));
  70:main.c        ****     drive_motors(errorbaseSpeed + abs(motorSpeed), -(abs(motorSpeed) - errorbaseSpeed));
  43              		.loc 1 70 0
  44 0008 FFF7FEBF 		b	drive_motors
ARM GAS  C:\Users\aupen\AppData\Local\Temp\cc9dMVob.s 			page 3


  45              	.LVL2:
  46              	.L4:
  47              		.align	2
  48              	.L3:
  49 000c 00000000 		.word	.LANCHOR0
  50              	.LBE5:
  51              	.LBE4:
  52              		.cfi_endproc
  53              	.LFE1:
  54              		.size	Go, .-Go
  55              		.section	.text.startup.main,"ax",%progbits
  56              		.align	1
  57              		.global	main
  58              		.thumb
  59              		.thumb_func
  60              		.type	main, %function
  61              	main:
  62              	.LFB2:
  71:main.c        ****     }
  72:main.c        ****   }
  73:main.c        **** }
  74:main.c        **** 
  75:main.c        **** int main(void)
  76:main.c        **** {
  63              		.loc 1 76 0
  64              		.cfi_startproc
  65              		@ args = 0, pretend = 0, frame = 0
  66              		@ frame_needed = 0, uses_anonymous_args = 0
  67 0000 2DE9F047 		push	{r4, r5, r6, r7, r8, r9, r10, lr}
  68              		.cfi_def_cfa_offset 32
  69              		.cfi_offset 4, -32
  70              		.cfi_offset 5, -28
  71              		.cfi_offset 6, -24
  72              		.cfi_offset 7, -20
  73              		.cfi_offset 8, -16
  74              		.cfi_offset 9, -12
  75              		.cfi_offset 10, -8
  76              		.cfi_offset 14, -4
  77:main.c        ****     Motor_Init();
  77              		.loc 1 77 0
  78 0004 FFF7FEFF 		bl	Motor_Init
  79              	.LVL3:
  78:main.c        ****     Servo_Start();
  80              		.loc 1 78 0
  81 0008 FFF7FEFF 		bl	Servo_Start
  82              	.LVL4:
  79:main.c        ****     CyGlobalIntEnable; /* Enable global interrupts. */
  83              		.loc 1 79 0
  84              		.syntax unified
  85              	@ 79 "main.c" 1
  86 000c 62B6     		CPSIE   i
  87              	@ 0 "" 2
  80:main.c        ****     EscArm();
  88              		.loc 1 80 0
  89              		.thumb
  90              		.syntax unified
  91 000e FFF7FEFF 		bl	EscArm
ARM GAS  C:\Users\aupen\AppData\Local\Temp\cc9dMVob.s 			page 4


  92              	.LVL5:
  81:main.c        ****     //EscStop();
  82:main.c        ****     //console_start();
  83:main.c        ****     BT_Init();
  93              		.loc 1 83 0
  94 0012 FFF7FEFF 		bl	BT_Init
  95              	.LVL6:
  84:main.c        ****     ADC_SAR_Start();
  96              		.loc 1 84 0
  97 0016 FFF7FEFF 		bl	ADC_SAR_Start
  98              	.LVL7:
  85:main.c        ****     ADC_SAR_StartConvert();
  99              		.loc 1 85 0
 100 001a FFF7FEFF 		bl	ADC_SAR_StartConvert
 101              	.LVL8:
  86:main.c        ****     time_start();
 102              		.loc 1 86 0
 103 001e FFF7FEFF 		bl	time_start
 104              	.LVL9:
  87:main.c        ****     
  88:main.c        ****     //console_println("####LINEFOLLOWER####");
  89:main.c        ****     //console_print_int(microseconds());
  90:main.c        ****     
  91:main.c        ****     btValue.baseSpeed = baseSpeed;
 105              		.loc 1 91 0
 106 0022 3B4B     		ldr	r3, .L21
 107 0024 3B4C     		ldr	r4, .L21+4
 108 0026 1A68     		ldr	r2, [r3]
  92:main.c        ****     btValue.Kd = Kd;
  93:main.c        ****     btValue.Kp = Kp;
  94:main.c        ****     btValue.escSpeed = 1800 ;
  95:main.c        ****     btValue.turnSpeed = turnSpeed;
  96:main.c        ****     int oESC = 0;
  97:main.c        ****     
  98:main.c        ****     drive_forward(0,0);
 109              		.loc 1 98 0
 110 0028 0021     		movs	r1, #0
  91:main.c        ****     btValue.Kd = Kd;
 111              		.loc 1 91 0
 112 002a A260     		str	r2, [r4, #8]
  92:main.c        ****     btValue.Kd = Kd;
 113              		.loc 1 92 0
 114 002c 5A68     		ldr	r2, [r3, #4]
 115              		.loc 1 98 0
 116 002e 0846     		mov	r0, r1
  92:main.c        ****     btValue.Kd = Kd;
 117              		.loc 1 92 0
 118 0030 6260     		str	r2, [r4, #4]
  93:main.c        ****     btValue.escSpeed = 1800 ;
 119              		.loc 1 93 0
 120 0032 9A68     		ldr	r2, [r3, #8]
  95:main.c        ****     int oESC = 0;
 121              		.loc 1 95 0
 122 0034 DB68     		ldr	r3, [r3, #12]
  93:main.c        ****     btValue.escSpeed = 1800 ;
 123              		.loc 1 93 0
 124 0036 2260     		str	r2, [r4]
ARM GAS  C:\Users\aupen\AppData\Local\Temp\cc9dMVob.s 			page 5


  99:main.c        **** 
 100:main.c        ****     CyDelay(2000);
 101:main.c        ****     
 102:main.c        ****     for(;;)
 103:main.c        ****     {
 104:main.c        ****         if (Button_Read() == 0)
 105:main.c        ****         {
 106:main.c        ****             drive_forward(50,50);
 107:main.c        ****         }
 108:main.c        ****         else 
 109:main.c        ****         {
 110:main.c        ****             drive_forward(0,0);    
 111:main.c        ****         }
 112:main.c        ****             
 113:main.c        ****         
 114:main.c        ****         checkBtData();
 115:main.c        ****         //sensorsRawConsole();
 116:main.c        ****         if(btComands.escSpinning == 1)
 125              		.loc 1 116 0
 126 0038 374D     		ldr	r5, .L21+8
  94:main.c        ****     btValue.turnSpeed = turnSpeed;
 127              		.loc 1 94 0
 128 003a 4FF4E162 		mov	r2, #1800
 129 003e 2261     		str	r2, [r4, #16]
  95:main.c        ****     int oESC = 0;
 130              		.loc 1 95 0
 131 0040 E360     		str	r3, [r4, #12]
 132              	.LVL10:
  98:main.c        **** 
 133              		.loc 1 98 0
 134 0042 FFF7FEFF 		bl	drive_forward
 135              	.LVL11:
 100:main.c        ****     
 136              		.loc 1 100 0
 137 0046 4FF4FA60 		mov	r0, #2000
 138 004a FFF7FEFF 		bl	CyDelay
 139              	.LVL12:
 140 004e A846     		mov	r8, r5
 141 0050 A946     		mov	r9, r5
 142              	.L11:
 104:main.c        ****         {
 143              		.loc 1 104 0
 144 0052 FFF7FEFF 		bl	Button_Read
 145              	.LVL13:
 146 0056 08B9     		cbnz	r0, .L6
 106:main.c        ****         }
 147              		.loc 1 106 0
 148 0058 3221     		movs	r1, #50
 149 005a 00E0     		b	.L18
 150              	.L6:
 110:main.c        ****         }
 151              		.loc 1 110 0
 152 005c 0021     		movs	r1, #0
 153              	.L18:
 154 005e 0846     		mov	r0, r1
 155 0060 FFF7FEFF 		bl	drive_forward
 156              	.LVL14:
ARM GAS  C:\Users\aupen\AppData\Local\Temp\cc9dMVob.s 			page 6


 114:main.c        ****         //sensorsRawConsole();
 157              		.loc 1 114 0
 158 0064 FFF7FEFF 		bl	checkBtData
 159              	.LVL15:
 160              		.loc 1 116 0
 161 0068 6B68     		ldr	r3, [r5, #4]
 162 006a 012B     		cmp	r3, #1
 163 006c 02D1     		bne	.L8
 117:main.c        ****         {
 118:main.c        ****             escSpin();    
 164              		.loc 1 118 0
 165 006e FFF7FEFF 		bl	escSpin
 166              	.LVL16:
 167 0072 01E0     		b	.L9
 168              	.L8:
 119:main.c        ****         }
 120:main.c        ****         else 
 121:main.c        ****         {
 122:main.c        ****             EscStop();    
 169              		.loc 1 122 0
 170 0074 FFF7FEFF 		bl	EscStop
 171              	.LVL17:
 172              	.L9:
 123:main.c        ****         }
 124:main.c        ****         
 125:main.c        ****         
 126:main.c        ****         if (btComands.driving == 1)
 173              		.loc 1 126 0
 174 0078 D8F80030 		ldr	r3, [r8]
 175 007c 012B     		cmp	r3, #1
 176 007e E8D1     		bne	.L11
 177              	.LBB6:
 127:main.c        ****         {
 128:main.c        ****             while (btComands.driving == 1)
 129:main.c        ****             {        
 130:main.c        ****                 checkBtStop();
 131:main.c        ****                 int position = checkSensors(); // Šito pašam jāsarēķina
 132:main.c        ****         	    int error = (position - 7500); // 3500 ir vidējā vērtība
 133:main.c        ****                 
 134:main.c        ****                 if (abs(error) > 3500 )
 135:main.c        ****                 {
 136:main.c        ****                     errorbaseSpeed = btValue.baseSpeed ;
 178              		.loc 1 136 0
 179 0080 264E     		ldr	r6, .L21+12
 180 0082 244F     		ldr	r7, .L21+4
 137:main.c        ****                 }
 138:main.c        ****                 else 
 139:main.c        ****                 {
 140:main.c        ****                     errorbaseSpeed = btValue.baseSpeed ;
 141:main.c        ****                 }
 142:main.c        ****         	    motorSpeed = (btValue.Kp * error + btValue.Kd * (error - lastError)) / 2000; // / 500 
 181              		.loc 1 142 0
 182 0084 DFF898A0 		ldr	r10, .L21+16
 183              	.L10:
 184              	.LBE6:
 128:main.c        ****             {        
 185              		.loc 1 128 0
ARM GAS  C:\Users\aupen\AppData\Local\Temp\cc9dMVob.s 			page 7


 186 0088 D9F80030 		ldr	r3, [r9]
 187 008c 012B     		cmp	r3, #1
 188 008e 31D1     		bne	.L20
 189              	.LBB7:
 130:main.c        ****                 int position = checkSensors(); // Šito pašam jāsarēķina
 190              		.loc 1 130 0
 191 0090 FFF7FEFF 		bl	checkBtStop
 192              	.LVL18:
 131:main.c        ****         	    int error = (position - 7500); // 3500 ir vidējā vērtība
 193              		.loc 1 131 0
 194 0094 FFF7FEFF 		bl	checkSensors
 195              	.LVL19:
 136:main.c        ****                 }
 196              		.loc 1 136 0
 197 0098 A368     		ldr	r3, [r4, #8]
 132:main.c        ****                 
 198              		.loc 1 132 0
 199 009a A0F5EA52 		sub	r2, r0, #7488
 200              		.loc 1 142 0
 201 009e 2168     		ldr	r1, [r4]
 132:main.c        ****                 
 202              		.loc 1 132 0
 203 00a0 0C3A     		subs	r2, r2, #12
 204              	.LVL20:
 205              		.loc 1 142 0
 206 00a2 5143     		muls	r1, r2, r1
 136:main.c        ****                 }
 207              		.loc 1 136 0
 208 00a4 3360     		str	r3, [r6]
 209              		.loc 1 142 0
 210 00a6 7368     		ldr	r3, [r6, #4]
 143:main.c        ****         	    lastError = error;
 144:main.c        ****                 
 145:main.c        ****                 if (position <= 0 )
 211              		.loc 1 145 0
 212 00a8 0028     		cmp	r0, #0
 142:main.c        ****         	    lastError = error;
 213              		.loc 1 142 0
 214 00aa C3EB020E 		rsb	lr, r3, r2
 215 00ae 6368     		ldr	r3, [r4, #4]
 143:main.c        ****         	    lastError = error;
 216              		.loc 1 143 0
 217 00b0 7260     		str	r2, [r6, #4]
 142:main.c        ****         	    lastError = error;
 218              		.loc 1 142 0
 219 00b2 03FB0E13 		mla	r3, r3, lr, r1
 220 00b6 4FF4FA61 		mov	r1, #2000
 221 00ba 93FBF1F3 		sdiv	r3, r3, r1
 222 00be CAF80030 		str	r3, [r10]
 223              		.loc 1 145 0
 224 00c2 05DC     		bgt	.L12
 146:main.c        ****                 {
 147:main.c        ****                     turn_right(btValue.turnSpeed, btValue.turnSpeed - 10);
 225              		.loc 1 147 0
 226 00c4 F868     		ldr	r0, [r7, #12]
 227              	.LVL21:
 228 00c6 A0F10A01 		sub	r1, r0, #10
ARM GAS  C:\Users\aupen\AppData\Local\Temp\cc9dMVob.s 			page 8


 229 00ca FFF7FEFF 		bl	turn_right
 230              	.LVL22:
 231 00ce 0CE0     		b	.L13
 232              	.LVL23:
 233              	.L12:
 148:main.c        ****                 }
 149:main.c        ****                 else if (position >= 15000 )
 234              		.loc 1 149 0
 235 00d0 43F69722 		movw	r2, #14999
 236              	.LVL24:
 237 00d4 9042     		cmp	r0, r2
 238 00d6 05DD     		ble	.L14
 150:main.c        ****                 {
 151:main.c        ****                     turn_left(btValue.turnSpeed - 10, btValue.turnSpeed);
 239              		.loc 1 151 0
 240 00d8 F968     		ldr	r1, [r7, #12]
 241 00da A1F10A00 		sub	r0, r1, #10
 242              	.LVL25:
 243 00de FFF7FEFF 		bl	turn_left
 244              	.LVL26:
 245 00e2 02E0     		b	.L13
 246              	.LVL27:
 247              	.L14:
 152:main.c        ****                 }
 153:main.c        ****                 else 
 154:main.c        ****                 {              
 155:main.c        ****         	    Go(motorSpeed);               
 248              		.loc 1 155 0
 249 00e4 1846     		mov	r0, r3
 250              	.LVL28:
 251 00e6 FFF7FEFF 		bl	Go
 252              	.LVL29:
 253              	.L13:
 156:main.c        ****                 }
 157:main.c        ****                 
 158:main.c        ****                 CyDelayUs(2560); 
 254              		.loc 1 158 0
 255 00ea 4FF42060 		mov	r0, #2560
 256 00ee FFF7FEFF 		bl	CyDelayUs
 257              	.LVL30:
 258 00f2 C9E7     		b	.L10
 259              	.L20:
 260              	.LBE7:
 159:main.c        ****             }
 160:main.c        ****             
 161:main.c        ****             EscStop();
 261              		.loc 1 161 0
 262 00f4 FFF7FEFF 		bl	EscStop
 263              	.LVL31:
 162:main.c        ****             drive_backward(50,50);
 264              		.loc 1 162 0
 265 00f8 3221     		movs	r1, #50
 266 00fa 0846     		mov	r0, r1
 267 00fc FFF7FEFF 		bl	drive_backward
 268              	.LVL32:
 163:main.c        ****             CyDelay(100);
 269              		.loc 1 163 0
ARM GAS  C:\Users\aupen\AppData\Local\Temp\cc9dMVob.s 			page 9


 270 0100 6420     		movs	r0, #100
 271 0102 FFF7FEFF 		bl	CyDelay
 272              	.LVL33:
 164:main.c        ****             drive_forward(0,0);
 273              		.loc 1 164 0
 274 0106 0021     		movs	r1, #0
 275 0108 0846     		mov	r0, r1
 276 010a FFF7FEFF 		bl	drive_forward
 277              	.LVL34:
 278 010e A0E7     		b	.L11
 279              	.L22:
 280              		.align	2
 281              	.L21:
 282 0110 00000000 		.word	.LANCHOR1
 283 0114 00000000 		.word	btValue
 284 0118 00000000 		.word	btComands
 285 011c 00000000 		.word	.LANCHOR0
 286 0120 00000000 		.word	motorSpeed
 287              		.cfi_endproc
 288              	.LFE2:
 289              		.size	main, .-main
 290              		.global	stop
 291              		.global	errorbaseSpeed
 292              		.global	lastError
 293              		.global	turnSpeed
 294              		.global	baseSpeed
 295              		.global	Kd
 296              		.global	Kp
 297              		.comm	motorSpeed,4,4
 298              		.comm	sensorValues,40,4
 299              		.comm	btValue,20,4
 300              		.comm	btComands,8,4
 301              		.comm	gMotor,16,4
 302              		.comm	gSensors,180,4
 303              		.data
 304              		.align	2
 305              		.set	.LANCHOR1,. + 0
 306              		.type	baseSpeed, %object
 307              		.size	baseSpeed, 4
 308              	baseSpeed:
 309 0000 32000000 		.word	50
 310              		.type	Kd, %object
 311              		.size	Kd, 4
 312              	Kd:
 313 0004 28000000 		.word	40
 314              		.type	Kp, %object
 315              		.size	Kp, 4
 316              	Kp:
 317 0008 06000000 		.word	6
 318              		.type	turnSpeed, %object
 319              		.size	turnSpeed, 4
 320              	turnSpeed:
 321 000c 32000000 		.word	50
 322              		.bss
 323              		.align	2
 324              		.set	.LANCHOR0,. + 0
 325              		.type	errorbaseSpeed, %object
ARM GAS  C:\Users\aupen\AppData\Local\Temp\cc9dMVob.s 			page 10


 326              		.size	errorbaseSpeed, 4
 327              	errorbaseSpeed:
 328 0000 00000000 		.space	4
 329              		.type	lastError, %object
 330              		.size	lastError, 4
 331              	lastError:
 332 0004 00000000 		.space	4
 333              		.type	stop, %object
 334              		.size	stop, 4
 335              	stop:
 336 0008 00000000 		.space	4
 337              		.text
 338              	.Letext0:
 339              		.file 2 "c:\\program files (x86)\\cypress\\psoc creator\\4.1\\psoc creator\\import\\gnu\\arm\\5.4.
 340              		.file 3 "c:\\program files (x86)\\cypress\\psoc creator\\4.1\\psoc creator\\import\\gnu\\arm\\5.4.
 341              		.file 4 "sensors.h"
 342              		.file 5 "drive.h"
 343              		.file 6 "bt_app.h"
 344              		.file 7 "Generated_Source\\PSoC5/CyLib.h"
 345              		.file 8 "Generated_Source\\PSoC5/Servo.h"
 346              		.file 9 "esc_control.h"
 347              		.file 10 "Generated_Source\\PSoC5/ADC_SAR.h"
 348              		.file 11 "timer_time.h"
 349              		.file 12 "Generated_Source\\PSoC5/Button.h"
