ARM GAS  C:\Users\aupen\AppData\Local\Temp\cc0orRvf.s 			page 1


   1              		.syntax unified
   2              		.cpu cortex-m3
   3              		.fpu softvfp
   4              		.eabi_attribute 20, 1
   5              		.eabi_attribute 21, 1
   6              		.eabi_attribute 23, 3
   7              		.eabi_attribute 24, 1
   8              		.eabi_attribute 25, 1
   9              		.eabi_attribute 26, 1
  10              		.eabi_attribute 30, 4
  11              		.eabi_attribute 34, 1
  12              		.eabi_attribute 18, 4
  13              		.thumb
  14              		.syntax unified
  15              		.file	"MOT_PWM_PM.c"
  16              		.text
  17              	.Ltext0:
  18              		.cfi_sections	.debug_frame
  19              		.section	.text.MOT_PWM_SaveConfig,"ax",%progbits
  20              		.align	1
  21              		.global	MOT_PWM_SaveConfig
  22              		.thumb
  23              		.thumb_func
  24              		.type	MOT_PWM_SaveConfig, %function
  25              	MOT_PWM_SaveConfig:
  26              	.LFB0:
  27              		.file 1 "Generated_Source\\PSoC5\\MOT_PWM_PM.c"
   1:Generated_Source\PSoC5/MOT_PWM_PM.c **** /*******************************************************************************
   2:Generated_Source\PSoC5/MOT_PWM_PM.c **** * File Name: MOT_PWM_PM.c
   3:Generated_Source\PSoC5/MOT_PWM_PM.c **** * Version 3.30
   4:Generated_Source\PSoC5/MOT_PWM_PM.c **** *
   5:Generated_Source\PSoC5/MOT_PWM_PM.c **** * Description:
   6:Generated_Source\PSoC5/MOT_PWM_PM.c **** *  This file provides the power management source code to API for the
   7:Generated_Source\PSoC5/MOT_PWM_PM.c **** *  PWM.
   8:Generated_Source\PSoC5/MOT_PWM_PM.c **** *
   9:Generated_Source\PSoC5/MOT_PWM_PM.c **** * Note:
  10:Generated_Source\PSoC5/MOT_PWM_PM.c **** *
  11:Generated_Source\PSoC5/MOT_PWM_PM.c **** ********************************************************************************
  12:Generated_Source\PSoC5/MOT_PWM_PM.c **** * Copyright 2008-2014, Cypress Semiconductor Corporation.  All rights reserved.
  13:Generated_Source\PSoC5/MOT_PWM_PM.c **** * You may use this file only in accordance with the license, terms, conditions,
  14:Generated_Source\PSoC5/MOT_PWM_PM.c **** * disclaimers, and limitations in the end user license agreement accompanying
  15:Generated_Source\PSoC5/MOT_PWM_PM.c **** * the software package with which this file was provided.
  16:Generated_Source\PSoC5/MOT_PWM_PM.c **** *******************************************************************************/
  17:Generated_Source\PSoC5/MOT_PWM_PM.c **** 
  18:Generated_Source\PSoC5/MOT_PWM_PM.c **** #include "MOT_PWM.h"
  19:Generated_Source\PSoC5/MOT_PWM_PM.c **** 
  20:Generated_Source\PSoC5/MOT_PWM_PM.c **** static MOT_PWM_backupStruct MOT_PWM_backup;
  21:Generated_Source\PSoC5/MOT_PWM_PM.c **** 
  22:Generated_Source\PSoC5/MOT_PWM_PM.c **** 
  23:Generated_Source\PSoC5/MOT_PWM_PM.c **** /*******************************************************************************
  24:Generated_Source\PSoC5/MOT_PWM_PM.c **** * Function Name: MOT_PWM_SaveConfig
  25:Generated_Source\PSoC5/MOT_PWM_PM.c **** ********************************************************************************
  26:Generated_Source\PSoC5/MOT_PWM_PM.c **** *
  27:Generated_Source\PSoC5/MOT_PWM_PM.c **** * Summary:
  28:Generated_Source\PSoC5/MOT_PWM_PM.c **** *  Saves the current user configuration of the component.
  29:Generated_Source\PSoC5/MOT_PWM_PM.c **** *
  30:Generated_Source\PSoC5/MOT_PWM_PM.c **** * Parameters:
ARM GAS  C:\Users\aupen\AppData\Local\Temp\cc0orRvf.s 			page 2


  31:Generated_Source\PSoC5/MOT_PWM_PM.c **** *  None
  32:Generated_Source\PSoC5/MOT_PWM_PM.c **** *
  33:Generated_Source\PSoC5/MOT_PWM_PM.c **** * Return:
  34:Generated_Source\PSoC5/MOT_PWM_PM.c **** *  None
  35:Generated_Source\PSoC5/MOT_PWM_PM.c **** *
  36:Generated_Source\PSoC5/MOT_PWM_PM.c **** * Global variables:
  37:Generated_Source\PSoC5/MOT_PWM_PM.c **** *  MOT_PWM_backup:  Variables of this global structure are modified to
  38:Generated_Source\PSoC5/MOT_PWM_PM.c **** *  store the values of non retention configuration registers when Sleep() API is
  39:Generated_Source\PSoC5/MOT_PWM_PM.c **** *  called.
  40:Generated_Source\PSoC5/MOT_PWM_PM.c **** *
  41:Generated_Source\PSoC5/MOT_PWM_PM.c **** *******************************************************************************/
  42:Generated_Source\PSoC5/MOT_PWM_PM.c **** void MOT_PWM_SaveConfig(void) 
  43:Generated_Source\PSoC5/MOT_PWM_PM.c **** {
  28              		.loc 1 43 0
  29              		.cfi_startproc
  30              		@ args = 0, pretend = 0, frame = 0
  31              		@ frame_needed = 0, uses_anonymous_args = 0
  32 0000 10B5     		push	{r4, lr}
  33              		.cfi_def_cfa_offset 8
  34              		.cfi_offset 4, -8
  35              		.cfi_offset 14, -4
  44:Generated_Source\PSoC5/MOT_PWM_PM.c **** 
  45:Generated_Source\PSoC5/MOT_PWM_PM.c ****     #if(!MOT_PWM_UsingFixedFunction)
  46:Generated_Source\PSoC5/MOT_PWM_PM.c ****         #if(!MOT_PWM_PWMModeIsCenterAligned)
  47:Generated_Source\PSoC5/MOT_PWM_PM.c ****             MOT_PWM_backup.PWMPeriod = MOT_PWM_ReadPeriod();
  36              		.loc 1 47 0
  37 0002 FFF7FEFF 		bl	MOT_PWM_ReadPeriod
  38              	.LVL0:
  39 0006 064C     		ldr	r4, .L2
  40 0008 A070     		strb	r0, [r4, #2]
  48:Generated_Source\PSoC5/MOT_PWM_PM.c ****         #endif /* (!MOT_PWM_PWMModeIsCenterAligned) */
  49:Generated_Source\PSoC5/MOT_PWM_PM.c ****         MOT_PWM_backup.PWMUdb = MOT_PWM_ReadCounter();
  41              		.loc 1 49 0
  42 000a FFF7FEFF 		bl	MOT_PWM_ReadCounter
  43              	.LVL1:
  44 000e 6070     		strb	r0, [r4, #1]
  50:Generated_Source\PSoC5/MOT_PWM_PM.c ****         #if (MOT_PWM_UseStatus)
  51:Generated_Source\PSoC5/MOT_PWM_PM.c ****             MOT_PWM_backup.InterruptMaskValue = MOT_PWM_STATUS_MASK;
  52:Generated_Source\PSoC5/MOT_PWM_PM.c ****         #endif /* (MOT_PWM_UseStatus) */
  53:Generated_Source\PSoC5/MOT_PWM_PM.c **** 
  54:Generated_Source\PSoC5/MOT_PWM_PM.c ****         #if(MOT_PWM_DeadBandMode == MOT_PWM__B_PWM__DBM_256_CLOCKS || \
  55:Generated_Source\PSoC5/MOT_PWM_PM.c ****             MOT_PWM_DeadBandMode == MOT_PWM__B_PWM__DBM_2_4_CLOCKS)
  56:Generated_Source\PSoC5/MOT_PWM_PM.c ****             MOT_PWM_backup.PWMdeadBandValue = MOT_PWM_ReadDeadTime();
  57:Generated_Source\PSoC5/MOT_PWM_PM.c ****         #endif /*  deadband count is either 2-4 clocks or 256 clocks */
  58:Generated_Source\PSoC5/MOT_PWM_PM.c **** 
  59:Generated_Source\PSoC5/MOT_PWM_PM.c ****         #if(MOT_PWM_KillModeMinTime)
  60:Generated_Source\PSoC5/MOT_PWM_PM.c ****              MOT_PWM_backup.PWMKillCounterPeriod = MOT_PWM_ReadKillTime();
  45              		.loc 1 60 0
  46 0010 FFF7FEFF 		bl	MOT_PWM_ReadKillTime
  47              	.LVL2:
  48 0014 E070     		strb	r0, [r4, #3]
  61:Generated_Source\PSoC5/MOT_PWM_PM.c ****         #endif /* (MOT_PWM_KillModeMinTime) */
  62:Generated_Source\PSoC5/MOT_PWM_PM.c **** 
  63:Generated_Source\PSoC5/MOT_PWM_PM.c ****         #if(MOT_PWM_UseControl)
  64:Generated_Source\PSoC5/MOT_PWM_PM.c ****             MOT_PWM_backup.PWMControlRegister = MOT_PWM_ReadControlRegister();
  49              		.loc 1 64 0
  50 0016 FFF7FEFF 		bl	MOT_PWM_ReadControlRegister
ARM GAS  C:\Users\aupen\AppData\Local\Temp\cc0orRvf.s 			page 3


  51              	.LVL3:
  52 001a 2071     		strb	r0, [r4, #4]
  53 001c 10BD     		pop	{r4, pc}
  54              	.L3:
  55 001e 00BF     		.align	2
  56              	.L2:
  57 0020 00000000 		.word	.LANCHOR0
  58              		.cfi_endproc
  59              	.LFE0:
  60              		.size	MOT_PWM_SaveConfig, .-MOT_PWM_SaveConfig
  61              		.section	.text.MOT_PWM_RestoreConfig,"ax",%progbits
  62              		.align	1
  63              		.global	MOT_PWM_RestoreConfig
  64              		.thumb
  65              		.thumb_func
  66              		.type	MOT_PWM_RestoreConfig, %function
  67              	MOT_PWM_RestoreConfig:
  68              	.LFB1:
  65:Generated_Source\PSoC5/MOT_PWM_PM.c ****         #endif /* (MOT_PWM_UseControl) */
  66:Generated_Source\PSoC5/MOT_PWM_PM.c ****     #endif  /* (!MOT_PWM_UsingFixedFunction) */
  67:Generated_Source\PSoC5/MOT_PWM_PM.c **** }
  68:Generated_Source\PSoC5/MOT_PWM_PM.c **** 
  69:Generated_Source\PSoC5/MOT_PWM_PM.c **** 
  70:Generated_Source\PSoC5/MOT_PWM_PM.c **** /*******************************************************************************
  71:Generated_Source\PSoC5/MOT_PWM_PM.c **** * Function Name: MOT_PWM_RestoreConfig
  72:Generated_Source\PSoC5/MOT_PWM_PM.c **** ********************************************************************************
  73:Generated_Source\PSoC5/MOT_PWM_PM.c **** *
  74:Generated_Source\PSoC5/MOT_PWM_PM.c **** * Summary:
  75:Generated_Source\PSoC5/MOT_PWM_PM.c **** *  Restores the current user configuration of the component.
  76:Generated_Source\PSoC5/MOT_PWM_PM.c **** *
  77:Generated_Source\PSoC5/MOT_PWM_PM.c **** * Parameters:
  78:Generated_Source\PSoC5/MOT_PWM_PM.c **** *  None
  79:Generated_Source\PSoC5/MOT_PWM_PM.c **** *
  80:Generated_Source\PSoC5/MOT_PWM_PM.c **** * Return:
  81:Generated_Source\PSoC5/MOT_PWM_PM.c **** *  None
  82:Generated_Source\PSoC5/MOT_PWM_PM.c **** *
  83:Generated_Source\PSoC5/MOT_PWM_PM.c **** * Global variables:
  84:Generated_Source\PSoC5/MOT_PWM_PM.c **** *  MOT_PWM_backup:  Variables of this global structure are used to
  85:Generated_Source\PSoC5/MOT_PWM_PM.c **** *  restore the values of non retention registers on wakeup from sleep mode.
  86:Generated_Source\PSoC5/MOT_PWM_PM.c **** *
  87:Generated_Source\PSoC5/MOT_PWM_PM.c **** *******************************************************************************/
  88:Generated_Source\PSoC5/MOT_PWM_PM.c **** void MOT_PWM_RestoreConfig(void) 
  89:Generated_Source\PSoC5/MOT_PWM_PM.c **** {
  69              		.loc 1 89 0
  70              		.cfi_startproc
  71              		@ args = 0, pretend = 0, frame = 0
  72              		@ frame_needed = 0, uses_anonymous_args = 0
  73 0000 10B5     		push	{r4, lr}
  74              		.cfi_def_cfa_offset 8
  75              		.cfi_offset 4, -8
  76              		.cfi_offset 14, -4
  90:Generated_Source\PSoC5/MOT_PWM_PM.c ****         #if(!MOT_PWM_UsingFixedFunction)
  91:Generated_Source\PSoC5/MOT_PWM_PM.c ****             #if(!MOT_PWM_PWMModeIsCenterAligned)
  92:Generated_Source\PSoC5/MOT_PWM_PM.c ****                 MOT_PWM_WritePeriod(MOT_PWM_backup.PWMPeriod);
  77              		.loc 1 92 0
  78 0002 074C     		ldr	r4, .L5
  79 0004 A078     		ldrb	r0, [r4, #2]	@ zero_extendqisi2
ARM GAS  C:\Users\aupen\AppData\Local\Temp\cc0orRvf.s 			page 4


  80 0006 FFF7FEFF 		bl	MOT_PWM_WritePeriod
  81              	.LVL4:
  93:Generated_Source\PSoC5/MOT_PWM_PM.c ****             #endif /* (!MOT_PWM_PWMModeIsCenterAligned) */
  94:Generated_Source\PSoC5/MOT_PWM_PM.c **** 
  95:Generated_Source\PSoC5/MOT_PWM_PM.c ****             MOT_PWM_WriteCounter(MOT_PWM_backup.PWMUdb);
  82              		.loc 1 95 0
  83 000a 6078     		ldrb	r0, [r4, #1]	@ zero_extendqisi2
  84 000c FFF7FEFF 		bl	MOT_PWM_WriteCounter
  85              	.LVL5:
  96:Generated_Source\PSoC5/MOT_PWM_PM.c **** 
  97:Generated_Source\PSoC5/MOT_PWM_PM.c ****             #if (MOT_PWM_UseStatus)
  98:Generated_Source\PSoC5/MOT_PWM_PM.c ****                 MOT_PWM_STATUS_MASK = MOT_PWM_backup.InterruptMaskValue;
  99:Generated_Source\PSoC5/MOT_PWM_PM.c ****             #endif /* (MOT_PWM_UseStatus) */
 100:Generated_Source\PSoC5/MOT_PWM_PM.c **** 
 101:Generated_Source\PSoC5/MOT_PWM_PM.c ****             #if(MOT_PWM_DeadBandMode == MOT_PWM__B_PWM__DBM_256_CLOCKS || \
 102:Generated_Source\PSoC5/MOT_PWM_PM.c ****                 MOT_PWM_DeadBandMode == MOT_PWM__B_PWM__DBM_2_4_CLOCKS)
 103:Generated_Source\PSoC5/MOT_PWM_PM.c ****                 MOT_PWM_WriteDeadTime(MOT_PWM_backup.PWMdeadBandValue);
 104:Generated_Source\PSoC5/MOT_PWM_PM.c ****             #endif /* deadband count is either 2-4 clocks or 256 clocks */
 105:Generated_Source\PSoC5/MOT_PWM_PM.c **** 
 106:Generated_Source\PSoC5/MOT_PWM_PM.c ****             #if(MOT_PWM_KillModeMinTime)
 107:Generated_Source\PSoC5/MOT_PWM_PM.c ****                 MOT_PWM_WriteKillTime(MOT_PWM_backup.PWMKillCounterPeriod);
  86              		.loc 1 107 0
  87 0010 E078     		ldrb	r0, [r4, #3]	@ zero_extendqisi2
  88 0012 FFF7FEFF 		bl	MOT_PWM_WriteKillTime
  89              	.LVL6:
 108:Generated_Source\PSoC5/MOT_PWM_PM.c ****             #endif /* (MOT_PWM_KillModeMinTime) */
 109:Generated_Source\PSoC5/MOT_PWM_PM.c **** 
 110:Generated_Source\PSoC5/MOT_PWM_PM.c ****             #if(MOT_PWM_UseControl)
 111:Generated_Source\PSoC5/MOT_PWM_PM.c ****                 MOT_PWM_WriteControlRegister(MOT_PWM_backup.PWMControlRegister);
  90              		.loc 1 111 0
  91 0016 2079     		ldrb	r0, [r4, #4]	@ zero_extendqisi2
 112:Generated_Source\PSoC5/MOT_PWM_PM.c ****             #endif /* (MOT_PWM_UseControl) */
 113:Generated_Source\PSoC5/MOT_PWM_PM.c ****         #endif  /* (!MOT_PWM_UsingFixedFunction) */
 114:Generated_Source\PSoC5/MOT_PWM_PM.c ****     }
  92              		.loc 1 114 0
  93 0018 BDE81040 		pop	{r4, lr}
  94              		.cfi_restore 14
  95              		.cfi_restore 4
  96              		.cfi_def_cfa_offset 0
 111:Generated_Source\PSoC5/MOT_PWM_PM.c ****             #endif /* (MOT_PWM_UseControl) */
  97              		.loc 1 111 0
  98 001c FFF7FEBF 		b	MOT_PWM_WriteControlRegister
  99              	.LVL7:
 100              	.L6:
 101              		.align	2
 102              	.L5:
 103 0020 00000000 		.word	.LANCHOR0
 104              		.cfi_endproc
 105              	.LFE1:
 106              		.size	MOT_PWM_RestoreConfig, .-MOT_PWM_RestoreConfig
 107              		.section	.text.MOT_PWM_Sleep,"ax",%progbits
 108              		.align	1
 109              		.global	MOT_PWM_Sleep
 110              		.thumb
 111              		.thumb_func
 112              		.type	MOT_PWM_Sleep, %function
 113              	MOT_PWM_Sleep:
ARM GAS  C:\Users\aupen\AppData\Local\Temp\cc0orRvf.s 			page 5


 114              	.LFB2:
 115:Generated_Source\PSoC5/MOT_PWM_PM.c **** 
 116:Generated_Source\PSoC5/MOT_PWM_PM.c **** 
 117:Generated_Source\PSoC5/MOT_PWM_PM.c **** /*******************************************************************************
 118:Generated_Source\PSoC5/MOT_PWM_PM.c **** * Function Name: MOT_PWM_Sleep
 119:Generated_Source\PSoC5/MOT_PWM_PM.c **** ********************************************************************************
 120:Generated_Source\PSoC5/MOT_PWM_PM.c **** *
 121:Generated_Source\PSoC5/MOT_PWM_PM.c **** * Summary:
 122:Generated_Source\PSoC5/MOT_PWM_PM.c **** *  Disables block's operation and saves the user configuration. Should be called
 123:Generated_Source\PSoC5/MOT_PWM_PM.c **** *  just prior to entering sleep.
 124:Generated_Source\PSoC5/MOT_PWM_PM.c **** *
 125:Generated_Source\PSoC5/MOT_PWM_PM.c **** * Parameters:
 126:Generated_Source\PSoC5/MOT_PWM_PM.c **** *  None
 127:Generated_Source\PSoC5/MOT_PWM_PM.c **** *
 128:Generated_Source\PSoC5/MOT_PWM_PM.c **** * Return:
 129:Generated_Source\PSoC5/MOT_PWM_PM.c **** *  None
 130:Generated_Source\PSoC5/MOT_PWM_PM.c **** *
 131:Generated_Source\PSoC5/MOT_PWM_PM.c **** * Global variables:
 132:Generated_Source\PSoC5/MOT_PWM_PM.c **** *  MOT_PWM_backup.PWMEnableState:  Is modified depending on the enable
 133:Generated_Source\PSoC5/MOT_PWM_PM.c **** *  state of the block before entering sleep mode.
 134:Generated_Source\PSoC5/MOT_PWM_PM.c **** *
 135:Generated_Source\PSoC5/MOT_PWM_PM.c **** *******************************************************************************/
 136:Generated_Source\PSoC5/MOT_PWM_PM.c **** void MOT_PWM_Sleep(void) 
 137:Generated_Source\PSoC5/MOT_PWM_PM.c **** {
 115              		.loc 1 137 0
 116              		.cfi_startproc
 117              		@ args = 0, pretend = 0, frame = 0
 118              		@ frame_needed = 0, uses_anonymous_args = 0
 119 0000 08B5     		push	{r3, lr}
 120              		.cfi_def_cfa_offset 8
 121              		.cfi_offset 3, -8
 122              		.cfi_offset 14, -4
 138:Generated_Source\PSoC5/MOT_PWM_PM.c ****     #if(MOT_PWM_UseControl)
 139:Generated_Source\PSoC5/MOT_PWM_PM.c ****         if(MOT_PWM_CTRL_ENABLE == (MOT_PWM_CONTROL & MOT_PWM_CTRL_ENABLE))
 123              		.loc 1 139 0
 124 0002 074B     		ldr	r3, .L11
 125 0004 1B78     		ldrb	r3, [r3]	@ zero_extendqisi2
 126 0006 13F0800F 		tst	r3, #128
 127 000a 064B     		ldr	r3, .L11+4
 140:Generated_Source\PSoC5/MOT_PWM_PM.c ****         {
 141:Generated_Source\PSoC5/MOT_PWM_PM.c ****             /*Component is enabled */
 142:Generated_Source\PSoC5/MOT_PWM_PM.c ****             MOT_PWM_backup.PWMEnableState = 1u;
 128              		.loc 1 142 0
 129 000c 14BF     		ite	ne
 130 000e 0122     		movne	r2, #1
 143:Generated_Source\PSoC5/MOT_PWM_PM.c ****         }
 144:Generated_Source\PSoC5/MOT_PWM_PM.c ****         else
 145:Generated_Source\PSoC5/MOT_PWM_PM.c ****         {
 146:Generated_Source\PSoC5/MOT_PWM_PM.c ****             /* Component is disabled */
 147:Generated_Source\PSoC5/MOT_PWM_PM.c ****             MOT_PWM_backup.PWMEnableState = 0u;
 131              		.loc 1 147 0
 132 0010 0022     		moveq	r2, #0
 133 0012 1A70     		strb	r2, [r3]
 148:Generated_Source\PSoC5/MOT_PWM_PM.c ****         }
 149:Generated_Source\PSoC5/MOT_PWM_PM.c ****     #endif /* (MOT_PWM_UseControl) */
 150:Generated_Source\PSoC5/MOT_PWM_PM.c **** 
 151:Generated_Source\PSoC5/MOT_PWM_PM.c ****     /* Stop component */
ARM GAS  C:\Users\aupen\AppData\Local\Temp\cc0orRvf.s 			page 6


 152:Generated_Source\PSoC5/MOT_PWM_PM.c ****     MOT_PWM_Stop();
 134              		.loc 1 152 0
 135 0014 FFF7FEFF 		bl	MOT_PWM_Stop
 136              	.LVL8:
 153:Generated_Source\PSoC5/MOT_PWM_PM.c **** 
 154:Generated_Source\PSoC5/MOT_PWM_PM.c ****     /* Save registers configuration */
 155:Generated_Source\PSoC5/MOT_PWM_PM.c ****     MOT_PWM_SaveConfig();
 156:Generated_Source\PSoC5/MOT_PWM_PM.c **** }
 137              		.loc 1 156 0
 138 0018 BDE80840 		pop	{r3, lr}
 139              		.cfi_restore 14
 140              		.cfi_restore 3
 141              		.cfi_def_cfa_offset 0
 155:Generated_Source\PSoC5/MOT_PWM_PM.c **** }
 142              		.loc 1 155 0
 143 001c FFF7FEBF 		b	MOT_PWM_SaveConfig
 144              	.LVL9:
 145              	.L12:
 146              		.align	2
 147              	.L11:
 148 0020 79640040 		.word	1073767545
 149 0024 00000000 		.word	.LANCHOR0
 150              		.cfi_endproc
 151              	.LFE2:
 152              		.size	MOT_PWM_Sleep, .-MOT_PWM_Sleep
 153              		.section	.text.MOT_PWM_Wakeup,"ax",%progbits
 154              		.align	1
 155              		.global	MOT_PWM_Wakeup
 156              		.thumb
 157              		.thumb_func
 158              		.type	MOT_PWM_Wakeup, %function
 159              	MOT_PWM_Wakeup:
 160              	.LFB3:
 157:Generated_Source\PSoC5/MOT_PWM_PM.c **** 
 158:Generated_Source\PSoC5/MOT_PWM_PM.c **** 
 159:Generated_Source\PSoC5/MOT_PWM_PM.c **** /*******************************************************************************
 160:Generated_Source\PSoC5/MOT_PWM_PM.c **** * Function Name: MOT_PWM_Wakeup
 161:Generated_Source\PSoC5/MOT_PWM_PM.c **** ********************************************************************************
 162:Generated_Source\PSoC5/MOT_PWM_PM.c **** *
 163:Generated_Source\PSoC5/MOT_PWM_PM.c **** * Summary:
 164:Generated_Source\PSoC5/MOT_PWM_PM.c **** *  Restores and enables the user configuration. Should be called just after
 165:Generated_Source\PSoC5/MOT_PWM_PM.c **** *  awaking from sleep.
 166:Generated_Source\PSoC5/MOT_PWM_PM.c **** *
 167:Generated_Source\PSoC5/MOT_PWM_PM.c **** * Parameters:
 168:Generated_Source\PSoC5/MOT_PWM_PM.c **** *  None
 169:Generated_Source\PSoC5/MOT_PWM_PM.c **** *
 170:Generated_Source\PSoC5/MOT_PWM_PM.c **** * Return:
 171:Generated_Source\PSoC5/MOT_PWM_PM.c **** *  None
 172:Generated_Source\PSoC5/MOT_PWM_PM.c **** *
 173:Generated_Source\PSoC5/MOT_PWM_PM.c **** * Global variables:
 174:Generated_Source\PSoC5/MOT_PWM_PM.c **** *  MOT_PWM_backup.pwmEnable:  Is used to restore the enable state of
 175:Generated_Source\PSoC5/MOT_PWM_PM.c **** *  block on wakeup from sleep mode.
 176:Generated_Source\PSoC5/MOT_PWM_PM.c **** *
 177:Generated_Source\PSoC5/MOT_PWM_PM.c **** *******************************************************************************/
 178:Generated_Source\PSoC5/MOT_PWM_PM.c **** void MOT_PWM_Wakeup(void) 
 179:Generated_Source\PSoC5/MOT_PWM_PM.c **** {
 161              		.loc 1 179 0
ARM GAS  C:\Users\aupen\AppData\Local\Temp\cc0orRvf.s 			page 7


 162              		.cfi_startproc
 163              		@ args = 0, pretend = 0, frame = 0
 164              		@ frame_needed = 0, uses_anonymous_args = 0
 165 0000 08B5     		push	{r3, lr}
 166              		.cfi_def_cfa_offset 8
 167              		.cfi_offset 3, -8
 168              		.cfi_offset 14, -4
 180:Generated_Source\PSoC5/MOT_PWM_PM.c ****      /* Restore registers values */
 181:Generated_Source\PSoC5/MOT_PWM_PM.c ****     MOT_PWM_RestoreConfig();
 169              		.loc 1 181 0
 170 0002 FFF7FEFF 		bl	MOT_PWM_RestoreConfig
 171              	.LVL10:
 182:Generated_Source\PSoC5/MOT_PWM_PM.c **** 
 183:Generated_Source\PSoC5/MOT_PWM_PM.c ****     if(MOT_PWM_backup.PWMEnableState != 0u)
 172              		.loc 1 183 0
 173 0006 044B     		ldr	r3, .L16
 174 0008 1B78     		ldrb	r3, [r3]	@ zero_extendqisi2
 175 000a 1BB1     		cbz	r3, .L13
 184:Generated_Source\PSoC5/MOT_PWM_PM.c ****     {
 185:Generated_Source\PSoC5/MOT_PWM_PM.c ****         /* Enable component's operation */
 186:Generated_Source\PSoC5/MOT_PWM_PM.c ****         MOT_PWM_Enable();
 187:Generated_Source\PSoC5/MOT_PWM_PM.c ****     } /* Do nothing if component's block was disabled before */
 188:Generated_Source\PSoC5/MOT_PWM_PM.c **** 
 189:Generated_Source\PSoC5/MOT_PWM_PM.c **** }
 176              		.loc 1 189 0
 177 000c BDE80840 		pop	{r3, lr}
 178              		.cfi_remember_state
 179              		.cfi_restore 14
 180              		.cfi_restore 3
 181              		.cfi_def_cfa_offset 0
 186:Generated_Source\PSoC5/MOT_PWM_PM.c ****     } /* Do nothing if component's block was disabled before */
 182              		.loc 1 186 0
 183 0010 FFF7FEBF 		b	MOT_PWM_Enable
 184              	.LVL11:
 185              	.L13:
 186              		.cfi_restore_state
 187 0014 08BD     		pop	{r3, pc}
 188              	.L17:
 189 0016 00BF     		.align	2
 190              	.L16:
 191 0018 00000000 		.word	.LANCHOR0
 192              		.cfi_endproc
 193              	.LFE3:
 194              		.size	MOT_PWM_Wakeup, .-MOT_PWM_Wakeup
 195              		.bss
 196              		.set	.LANCHOR0,. + 0
 197              		.type	MOT_PWM_backup, %object
 198              		.size	MOT_PWM_backup, 5
 199              	MOT_PWM_backup:
 200 0000 00000000 		.space	5
 200      00
 201              		.text
 202              	.Letext0:
 203              		.file 2 "Generated_Source\\PSoC5\\cytypes.h"
 204              		.file 3 "Generated_Source\\PSoC5\\MOT_PWM.h"
