ARM GAS  C:\Users\MANSRO~1\AppData\Local\Temp\ccOXBW92.s 			page 1


   1              		.syntax unified
   2              		.cpu cortex-m3
   3              		.fpu softvfp
   4              		.eabi_attribute 20, 1
   5              		.eabi_attribute 21, 1
   6              		.eabi_attribute 23, 3
   7              		.eabi_attribute 24, 1
   8              		.eabi_attribute 25, 1
   9              		.eabi_attribute 26, 1
  10              		.eabi_attribute 30, 1
  11              		.eabi_attribute 34, 1
  12              		.eabi_attribute 18, 4
  13              		.thumb
  14              		.syntax unified
  15              		.file	"CyFlash.c"
  16              		.text
  17              	.Ltext0:
  18              		.cfi_sections	.debug_frame
  19              		.section	.text.CySetTempInt,"ax",%progbits
  20              		.align	2
  21              		.thumb
  22              		.thumb_func
  23              		.type	CySetTempInt, %function
  24              	CySetTempInt:
  25              	.LFB3:
  26              		.file 1 "Generated_Source\\PSoC5\\CyFlash.c"
   1:Generated_Source\PSoC5/CyFlash.c **** /***************************************************************************//**
   2:Generated_Source\PSoC5/CyFlash.c **** * \file CyFlash.c
   3:Generated_Source\PSoC5/CyFlash.c **** * \version 5.80
   4:Generated_Source\PSoC5/CyFlash.c **** *
   5:Generated_Source\PSoC5/CyFlash.c **** * \brief Provides an API for the FLASH/EEPROM.
   6:Generated_Source\PSoC5/CyFlash.c **** *
   7:Generated_Source\PSoC5/CyFlash.c **** * \note This code is endian agnostic.
   8:Generated_Source\PSoC5/CyFlash.c **** *
   9:Generated_Source\PSoC5/CyFlash.c **** * \note Documentation of the API's in this file is located in the System
  10:Generated_Source\PSoC5/CyFlash.c **** * Reference Guide provided with PSoC Creator.
  11:Generated_Source\PSoC5/CyFlash.c **** *
  12:Generated_Source\PSoC5/CyFlash.c **** ********************************************************************************
  13:Generated_Source\PSoC5/CyFlash.c **** * \copyright
  14:Generated_Source\PSoC5/CyFlash.c **** * Copyright 2008-2018, Cypress Semiconductor Corporation. All rights reserved.
  15:Generated_Source\PSoC5/CyFlash.c **** * You may use this file only in accordance with the license, terms, conditions,
  16:Generated_Source\PSoC5/CyFlash.c **** * disclaimers, and limitations in the end user license agreement accompanying
  17:Generated_Source\PSoC5/CyFlash.c **** * the software package with which this file was provided.
  18:Generated_Source\PSoC5/CyFlash.c **** *******************************************************************************/
  19:Generated_Source\PSoC5/CyFlash.c **** 
  20:Generated_Source\PSoC5/CyFlash.c **** #include "CyFlash.h"
  21:Generated_Source\PSoC5/CyFlash.c **** 
  22:Generated_Source\PSoC5/CyFlash.c **** /*  The number of EEPROM arrays */
  23:Generated_Source\PSoC5/CyFlash.c **** #define CY_FLASH_EEPROM_NUMBER_ARRAYS                 (1u)
  24:Generated_Source\PSoC5/CyFlash.c **** 
  25:Generated_Source\PSoC5/CyFlash.c **** 
  26:Generated_Source\PSoC5/CyFlash.c **** /*******************************************************************************
  27:Generated_Source\PSoC5/CyFlash.c **** * Holds the die temperature, updated by CySetTemp(). Used for flash writing.
  28:Generated_Source\PSoC5/CyFlash.c **** * The first byte is the sign of the temperature (0 = negative, 1 = positive).
  29:Generated_Source\PSoC5/CyFlash.c **** * The second byte is the magnitude.
  30:Generated_Source\PSoC5/CyFlash.c **** *******************************************************************************/
  31:Generated_Source\PSoC5/CyFlash.c **** uint8 dieTemperature[CY_FLASH_DIE_TEMP_DATA_SIZE];
ARM GAS  C:\Users\MANSRO~1\AppData\Local\Temp\ccOXBW92.s 			page 2


  32:Generated_Source\PSoC5/CyFlash.c **** 
  33:Generated_Source\PSoC5/CyFlash.c **** #if(CYDEV_ECC_ENABLE == 0)
  34:Generated_Source\PSoC5/CyFlash.c ****     static uint8 * rowBuffer = 0;
  35:Generated_Source\PSoC5/CyFlash.c **** #endif  /* (CYDEV_ECC_ENABLE == 0) */
  36:Generated_Source\PSoC5/CyFlash.c **** 
  37:Generated_Source\PSoC5/CyFlash.c **** 
  38:Generated_Source\PSoC5/CyFlash.c **** static cystatus CySetTempInt(void);
  39:Generated_Source\PSoC5/CyFlash.c **** 
  40:Generated_Source\PSoC5/CyFlash.c **** 
  41:Generated_Source\PSoC5/CyFlash.c **** /*******************************************************************************
  42:Generated_Source\PSoC5/CyFlash.c **** * Function Name: CyFlash_Start
  43:Generated_Source\PSoC5/CyFlash.c **** ****************************************************************************//**
  44:Generated_Source\PSoC5/CyFlash.c **** *
  45:Generated_Source\PSoC5/CyFlash.c **** *  Enable the Flash.
  46:Generated_Source\PSoC5/CyFlash.c **** *
  47:Generated_Source\PSoC5/CyFlash.c **** *******************************************************************************/
  48:Generated_Source\PSoC5/CyFlash.c **** void CyFlash_Start(void) 
  49:Generated_Source\PSoC5/CyFlash.c **** {
  50:Generated_Source\PSoC5/CyFlash.c ****     uint8 interruptState;
  51:Generated_Source\PSoC5/CyFlash.c **** 
  52:Generated_Source\PSoC5/CyFlash.c ****     interruptState = CyEnterCriticalSection();
  53:Generated_Source\PSoC5/CyFlash.c **** 
  54:Generated_Source\PSoC5/CyFlash.c **** 
  55:Generated_Source\PSoC5/CyFlash.c ****     /***************************************************************************
  56:Generated_Source\PSoC5/CyFlash.c ****     * Enable SPC clock. This also internally enables the 36MHz IMO, since this
  57:Generated_Source\PSoC5/CyFlash.c ****     * is required for the SPC to function.
  58:Generated_Source\PSoC5/CyFlash.c ****     ***************************************************************************/
  59:Generated_Source\PSoC5/CyFlash.c ****     CY_FLASH_PM_ACT_CFG0_REG    |= CY_FLASH_PM_ACT_CFG0_EN_CLK_SPC;
  60:Generated_Source\PSoC5/CyFlash.c ****     CY_FLASH_PM_ALTACT_CFG0_REG |= CY_FLASH_PM_ALTACT_CFG0_EN_CLK_SPC;
  61:Generated_Source\PSoC5/CyFlash.c **** 
  62:Generated_Source\PSoC5/CyFlash.c **** 
  63:Generated_Source\PSoC5/CyFlash.c ****     /***************************************************************************
  64:Generated_Source\PSoC5/CyFlash.c ****     * The wake count defines the number of Bus Clock cycles it takes for the
  65:Generated_Source\PSoC5/CyFlash.c ****     * flash or eeprom to wake up from a low power mode independent of the chip
  66:Generated_Source\PSoC5/CyFlash.c ****     * power mode. Wake up time for these blocks is 5 us.
  67:Generated_Source\PSoC5/CyFlash.c ****     * The granularity of this register is 2 Bus Clock cycles, so a value of 0x1E
  68:Generated_Source\PSoC5/CyFlash.c ****     * (30d) defines the wake up time as 60 cycles of the Bus Clock.
  69:Generated_Source\PSoC5/CyFlash.c ****     * This register needs to be written with a value dependent on the Bus Clock
  70:Generated_Source\PSoC5/CyFlash.c ****     * frequency so that the duration of the cycles is equal to or greater than
  71:Generated_Source\PSoC5/CyFlash.c ****     * the 5 us delay required.
  72:Generated_Source\PSoC5/CyFlash.c ****     ***************************************************************************/
  73:Generated_Source\PSoC5/CyFlash.c ****     CY_FLASH_SPC_FM_EE_WAKE_CNT_REG = CY_FLASH_SPC_FM_EE_WAKE_CNT_80MHZ;
  74:Generated_Source\PSoC5/CyFlash.c **** 
  75:Generated_Source\PSoC5/CyFlash.c **** 
  76:Generated_Source\PSoC5/CyFlash.c ****     /***************************************************************************
  77:Generated_Source\PSoC5/CyFlash.c ****     * Enable flash. Active flash macros consume current, but re-enabling a
  78:Generated_Source\PSoC5/CyFlash.c ****     * disabled flash macro takes 5us. If the CPU attempts to fetch out of the
  79:Generated_Source\PSoC5/CyFlash.c ****     * macro during that time, it will be stalled. This bit allows the flash to
  80:Generated_Source\PSoC5/CyFlash.c ****     * be enabled even if the CPU is disabled, which allows a quicker return to
  81:Generated_Source\PSoC5/CyFlash.c ****     * code execution.
  82:Generated_Source\PSoC5/CyFlash.c ****     ***************************************************************************/
  83:Generated_Source\PSoC5/CyFlash.c ****     CY_FLASH_PM_ACT_CFG12_REG    |= CY_FLASH_PM_ACT_CFG12_EN_FM;
  84:Generated_Source\PSoC5/CyFlash.c ****     CY_FLASH_PM_ALTACT_CFG12_REG |= CY_FLASH_PM_ALTACT_CFG12_EN_FM;
  85:Generated_Source\PSoC5/CyFlash.c **** 
  86:Generated_Source\PSoC5/CyFlash.c ****     while(0u == (CY_FLASH_SPC_FM_EE_CR_REG & CY_FLASH_EE_EE_AWAKE))
  87:Generated_Source\PSoC5/CyFlash.c ****     {
  88:Generated_Source\PSoC5/CyFlash.c ****         /* Non-zero status denotes that the EEPROM/Flash is awake & powered. */
ARM GAS  C:\Users\MANSRO~1\AppData\Local\Temp\ccOXBW92.s 			page 3


  89:Generated_Source\PSoC5/CyFlash.c ****     }
  90:Generated_Source\PSoC5/CyFlash.c **** 
  91:Generated_Source\PSoC5/CyFlash.c ****     CyExitCriticalSection(interruptState);
  92:Generated_Source\PSoC5/CyFlash.c **** }
  93:Generated_Source\PSoC5/CyFlash.c **** 
  94:Generated_Source\PSoC5/CyFlash.c **** 
  95:Generated_Source\PSoC5/CyFlash.c **** /*******************************************************************************
  96:Generated_Source\PSoC5/CyFlash.c **** * Function Name: CyFlash_Stop
  97:Generated_Source\PSoC5/CyFlash.c **** ****************************************************************************//**
  98:Generated_Source\PSoC5/CyFlash.c **** *
  99:Generated_Source\PSoC5/CyFlash.c **** *  Disable the Flash.
 100:Generated_Source\PSoC5/CyFlash.c **** *
 101:Generated_Source\PSoC5/CyFlash.c **** * \sideeffect
 102:Generated_Source\PSoC5/CyFlash.c **** *  This setting is ignored as long as the CPU is currently running.  This will
 103:Generated_Source\PSoC5/CyFlash.c **** *  only take effect when the CPU is later disabled.
 104:Generated_Source\PSoC5/CyFlash.c **** *
 105:Generated_Source\PSoC5/CyFlash.c **** *******************************************************************************/
 106:Generated_Source\PSoC5/CyFlash.c **** void CyFlash_Stop(void) 
 107:Generated_Source\PSoC5/CyFlash.c **** {
 108:Generated_Source\PSoC5/CyFlash.c ****     uint8 interruptState;
 109:Generated_Source\PSoC5/CyFlash.c **** 
 110:Generated_Source\PSoC5/CyFlash.c ****     interruptState = CyEnterCriticalSection();
 111:Generated_Source\PSoC5/CyFlash.c **** 
 112:Generated_Source\PSoC5/CyFlash.c ****     CY_FLASH_PM_ACT_CFG12_REG    &= ((uint8)(~CY_FLASH_PM_ACT_CFG12_EN_FM));
 113:Generated_Source\PSoC5/CyFlash.c ****     CY_FLASH_PM_ALTACT_CFG12_REG &= ((uint8)(~CY_FLASH_PM_ALTACT_CFG12_EN_FM));
 114:Generated_Source\PSoC5/CyFlash.c **** 
 115:Generated_Source\PSoC5/CyFlash.c ****     CyExitCriticalSection(interruptState);
 116:Generated_Source\PSoC5/CyFlash.c **** }
 117:Generated_Source\PSoC5/CyFlash.c **** 
 118:Generated_Source\PSoC5/CyFlash.c **** 
 119:Generated_Source\PSoC5/CyFlash.c **** /*******************************************************************************
 120:Generated_Source\PSoC5/CyFlash.c **** * Function Name: CyFlash_EraseRow
 121:Generated_Source\PSoC5/CyFlash.c **** ****************************************************************************//**
 122:Generated_Source\PSoC5/CyFlash.c **** *
 123:Generated_Source\PSoC5/CyFlash.c **** *  Erases a single row of flash. Reports success or reason for failure. 
 124:Generated_Source\PSoC5/CyFlash.c **** *  The API does not return until the erase operation is complete.
 125:Generated_Source\PSoC5/CyFlash.c **** *
 126:Generated_Source\PSoC5/CyFlash.c **** *  \param arrayID:    ID of the array to erase.
 127:Generated_Source\PSoC5/CyFlash.c **** *   The arrays in the part are sequential starting at the first ID for the
 128:Generated_Source\PSoC5/CyFlash.c **** *   Flash memory type. 
 129:Generated_Source\PSoC5/CyFlash.c **** *  \param rowAddress: Row address within the specified arrayId.
 130:Generated_Source\PSoC5/CyFlash.c **** *
 131:Generated_Source\PSoC5/CyFlash.c **** *  \return
 132:Generated_Source\PSoC5/CyFlash.c **** *  status:
 133:Generated_Source\PSoC5/CyFlash.c **** *   CYRET_SUCCESS if successful.
 134:Generated_Source\PSoC5/CyFlash.c **** *   CYRET_LOCKED if the SPC is already in use.
 135:Generated_Source\PSoC5/CyFlash.c **** *   CYRET_CANCELED if command not accepted
 136:Generated_Source\PSoC5/CyFlash.c **** *   CYRET_UNKNOWN if there was an SPC error.
 137:Generated_Source\PSoC5/CyFlash.c **** *   CYRET_BAD_PARAM if one or more invalid parameters
 138:Generated_Source\PSoC5/CyFlash.c **** *
 139:Generated_Source\PSoC5/CyFlash.c **** *******************************************************************************/
 140:Generated_Source\PSoC5/CyFlash.c **** cystatus CyFlash_EraseRow(uint8 arrayId, uint16 rowAddress)
 141:Generated_Source\PSoC5/CyFlash.c **** {
 142:Generated_Source\PSoC5/CyFlash.c ****     cystatus status = CYRET_SUCCESS;
 143:Generated_Source\PSoC5/CyFlash.c **** 
 144:Generated_Source\PSoC5/CyFlash.c ****     if (arrayId > CY_SPC_LAST_FLASH_ARRAYID)
 145:Generated_Source\PSoC5/CyFlash.c ****     {
ARM GAS  C:\Users\MANSRO~1\AppData\Local\Temp\ccOXBW92.s 			page 4


 146:Generated_Source\PSoC5/CyFlash.c ****         status = CYRET_BAD_PARAM;
 147:Generated_Source\PSoC5/CyFlash.c ****     }
 148:Generated_Source\PSoC5/CyFlash.c ****     else if(rowAddress > (CY_FLASH_NUMBER_ROWS/CY_FLASH_NUMBER_ARRAYS))
 149:Generated_Source\PSoC5/CyFlash.c ****     {
 150:Generated_Source\PSoC5/CyFlash.c ****         status = CYRET_BAD_PARAM;
 151:Generated_Source\PSoC5/CyFlash.c ****     }        
 152:Generated_Source\PSoC5/CyFlash.c ****     else
 153:Generated_Source\PSoC5/CyFlash.c ****     {
 154:Generated_Source\PSoC5/CyFlash.c ****         if(CySpcLock() == CYRET_SUCCESS)
 155:Generated_Source\PSoC5/CyFlash.c ****         {
 156:Generated_Source\PSoC5/CyFlash.c ****             /* Erase flash row */
 157:Generated_Source\PSoC5/CyFlash.c ****             status = CySpcEraseRow(arrayId, rowAddress, dieTemperature[0u], dieTemperature[1u]);
 158:Generated_Source\PSoC5/CyFlash.c ****             
 159:Generated_Source\PSoC5/CyFlash.c ****             if(CYRET_STARTED == status)
 160:Generated_Source\PSoC5/CyFlash.c ****             {
 161:Generated_Source\PSoC5/CyFlash.c ****                 while(CY_SPC_BUSY)
 162:Generated_Source\PSoC5/CyFlash.c ****                 {
 163:Generated_Source\PSoC5/CyFlash.c ****                     /* Wait for SPC to finish and get SPC status */
 164:Generated_Source\PSoC5/CyFlash.c ****                     CyDelayUs(1u);
 165:Generated_Source\PSoC5/CyFlash.c ****                 }
 166:Generated_Source\PSoC5/CyFlash.c ****                 
 167:Generated_Source\PSoC5/CyFlash.c ****                 /* Hide SPC status */
 168:Generated_Source\PSoC5/CyFlash.c ****                 if(CY_SPC_STATUS_SUCCESS == CY_SPC_READ_STATUS)
 169:Generated_Source\PSoC5/CyFlash.c ****                 {
 170:Generated_Source\PSoC5/CyFlash.c ****                     status = CYRET_SUCCESS;
 171:Generated_Source\PSoC5/CyFlash.c ****                 }
 172:Generated_Source\PSoC5/CyFlash.c ****                 else
 173:Generated_Source\PSoC5/CyFlash.c ****                 {
 174:Generated_Source\PSoC5/CyFlash.c ****                     status = CYRET_UNKNOWN;
 175:Generated_Source\PSoC5/CyFlash.c ****                 }
 176:Generated_Source\PSoC5/CyFlash.c ****             }
 177:Generated_Source\PSoC5/CyFlash.c **** 	        else
 178:Generated_Source\PSoC5/CyFlash.c ****             {
 179:Generated_Source\PSoC5/CyFlash.c ****                 status = CYRET_CANCELED;
 180:Generated_Source\PSoC5/CyFlash.c ****             }
 181:Generated_Source\PSoC5/CyFlash.c ****             CySpcUnlock();
 182:Generated_Source\PSoC5/CyFlash.c ****         }
 183:Generated_Source\PSoC5/CyFlash.c ****         else 
 184:Generated_Source\PSoC5/CyFlash.c ****         {
 185:Generated_Source\PSoC5/CyFlash.c ****             status = CYRET_LOCKED;
 186:Generated_Source\PSoC5/CyFlash.c ****         }
 187:Generated_Source\PSoC5/CyFlash.c ****     }
 188:Generated_Source\PSoC5/CyFlash.c ****     
 189:Generated_Source\PSoC5/CyFlash.c ****     return(status);
 190:Generated_Source\PSoC5/CyFlash.c **** }
 191:Generated_Source\PSoC5/CyFlash.c **** 
 192:Generated_Source\PSoC5/CyFlash.c **** 
 193:Generated_Source\PSoC5/CyFlash.c **** /*******************************************************************************
 194:Generated_Source\PSoC5/CyFlash.c **** * Function Name: CySetTempInt
 195:Generated_Source\PSoC5/CyFlash.c **** ****************************************************************************//**
 196:Generated_Source\PSoC5/CyFlash.c **** *
 197:Generated_Source\PSoC5/CyFlash.c **** *  Sends a command to the SPC to read the die temperature. Sets a global value
 198:Generated_Source\PSoC5/CyFlash.c **** *  used by the Write function. This function must be called once before
 199:Generated_Source\PSoC5/CyFlash.c **** *  executing a series of Flash writing functions.
 200:Generated_Source\PSoC5/CyFlash.c **** *
 201:Generated_Source\PSoC5/CyFlash.c **** * \return
 202:Generated_Source\PSoC5/CyFlash.c **** *  status:
ARM GAS  C:\Users\MANSRO~1\AppData\Local\Temp\ccOXBW92.s 			page 5


 203:Generated_Source\PSoC5/CyFlash.c **** *   CYRET_SUCCESS - if successful
 204:Generated_Source\PSoC5/CyFlash.c **** *   CYRET_LOCKED  - if Flash writing already in use
 205:Generated_Source\PSoC5/CyFlash.c **** *   CYRET_UNKNOWN - if there was an SPC error
 206:Generated_Source\PSoC5/CyFlash.c **** *
 207:Generated_Source\PSoC5/CyFlash.c **** *******************************************************************************/
 208:Generated_Source\PSoC5/CyFlash.c **** static cystatus CySetTempInt(void) 
 209:Generated_Source\PSoC5/CyFlash.c **** {
  27              		.loc 1 209 0
  28              		.cfi_startproc
  29              		@ args = 0, pretend = 0, frame = 0
  30              		@ frame_needed = 0, uses_anonymous_args = 0
  31 0000 10B5     		push	{r4, lr}
  32              		.cfi_def_cfa_offset 8
  33              		.cfi_offset 4, -8
  34              		.cfi_offset 14, -4
 210:Generated_Source\PSoC5/CyFlash.c ****     cystatus status;
 211:Generated_Source\PSoC5/CyFlash.c **** 
 212:Generated_Source\PSoC5/CyFlash.c ****     /* Make sure SPC is powered */
 213:Generated_Source\PSoC5/CyFlash.c ****     CySpcStart();
  35              		.loc 1 213 0
  36 0002 FFF7FEFF 		bl	CySpcStart
  37              	.LVL0:
 214:Generated_Source\PSoC5/CyFlash.c **** 
 215:Generated_Source\PSoC5/CyFlash.c ****     /* Plan for failure. */
 216:Generated_Source\PSoC5/CyFlash.c ****     status = CYRET_UNKNOWN;
 217:Generated_Source\PSoC5/CyFlash.c **** 
 218:Generated_Source\PSoC5/CyFlash.c ****     if(CySpcLock() == CYRET_SUCCESS)
  38              		.loc 1 218 0
  39 0006 FFF7FEFF 		bl	CySpcLock
  40              	.LVL1:
  41 000a 10BB     		cbnz	r0, .L8
 219:Generated_Source\PSoC5/CyFlash.c ****     {
 220:Generated_Source\PSoC5/CyFlash.c ****         /* Write the command. */
 221:Generated_Source\PSoC5/CyFlash.c ****         if(CYRET_STARTED == CySpcGetTemp(CY_TEMP_NUMBER_OF_SAMPLES))
  42              		.loc 1 221 0
  43 000c 0120     		movs	r0, #1
  44 000e FFF7FEFF 		bl	CySpcGetTemp
  45              	.LVL2:
  46 0012 0728     		cmp	r0, #7
  47 0014 18D1     		bne	.L9
  48              	.L7:
 222:Generated_Source\PSoC5/CyFlash.c ****         {
 223:Generated_Source\PSoC5/CyFlash.c ****             do
 224:Generated_Source\PSoC5/CyFlash.c ****             {
 225:Generated_Source\PSoC5/CyFlash.c ****                 if(CySpcReadData(dieTemperature, CY_FLASH_DIE_TEMP_DATA_SIZE) == CY_FLASH_DIE_TEMP_
  49              		.loc 1 225 0
  50 0016 0221     		movs	r1, #2
  51 0018 0F48     		ldr	r0, .L12
  52 001a FFF7FEFF 		bl	CySpcReadData
  53              	.LVL3:
  54 001e 0228     		cmp	r0, #2
  55 0020 0AD1     		bne	.L10
  56 0022 02E0     		b	.L4
  57              	.L6:
 226:Generated_Source\PSoC5/CyFlash.c ****                 {
 227:Generated_Source\PSoC5/CyFlash.c ****                     status = CYRET_SUCCESS;
 228:Generated_Source\PSoC5/CyFlash.c **** 
ARM GAS  C:\Users\MANSRO~1\AppData\Local\Temp\ccOXBW92.s 			page 6


 229:Generated_Source\PSoC5/CyFlash.c ****                     while(CY_SPC_BUSY)
 230:Generated_Source\PSoC5/CyFlash.c ****                     {
 231:Generated_Source\PSoC5/CyFlash.c ****                         /* Spin until idle. */
 232:Generated_Source\PSoC5/CyFlash.c ****                         CyDelayUs(1u);
  58              		.loc 1 232 0
  59 0024 0120     		movs	r0, #1
  60 0026 FFF7FEFF 		bl	CyDelayUs
  61              	.LVL4:
  62              	.L4:
 229:Generated_Source\PSoC5/CyFlash.c ****                     {
  63              		.loc 1 229 0
  64 002a 0C4B     		ldr	r3, .L12+4
  65 002c 1B78     		ldrb	r3, [r3]	@ zero_extendqisi2
  66 002e 13F0020F 		tst	r3, #2
  67 0032 F7D0     		beq	.L6
 227:Generated_Source\PSoC5/CyFlash.c **** 
  68              		.loc 1 227 0
  69 0034 0024     		movs	r4, #0
  70 0036 09E0     		b	.L3
  71              	.L10:
 233:Generated_Source\PSoC5/CyFlash.c ****                     }
 234:Generated_Source\PSoC5/CyFlash.c ****                     break;
 235:Generated_Source\PSoC5/CyFlash.c ****                 }
 236:Generated_Source\PSoC5/CyFlash.c **** 
 237:Generated_Source\PSoC5/CyFlash.c ****             } while(CY_SPC_BUSY);
  72              		.loc 1 237 0
  73 0038 084B     		ldr	r3, .L12+4
  74 003a 1B78     		ldrb	r3, [r3]	@ zero_extendqisi2
  75 003c 13F0020F 		tst	r3, #2
  76 0040 E9D0     		beq	.L7
 216:Generated_Source\PSoC5/CyFlash.c **** 
  77              		.loc 1 216 0
  78 0042 4FF0FF34 		mov	r4, #-1
  79 0046 01E0     		b	.L3
  80              	.L9:
  81 0048 4FF0FF34 		mov	r4, #-1
  82              	.L3:
  83              	.LVL5:
 238:Generated_Source\PSoC5/CyFlash.c ****         }
 239:Generated_Source\PSoC5/CyFlash.c **** 
 240:Generated_Source\PSoC5/CyFlash.c ****         CySpcUnlock();
  84              		.loc 1 240 0
  85 004c FFF7FEFF 		bl	CySpcUnlock
  86              	.LVL6:
  87 0050 00E0     		b	.L2
  88              	.LVL7:
  89              	.L8:
 241:Generated_Source\PSoC5/CyFlash.c ****     }
 242:Generated_Source\PSoC5/CyFlash.c ****     else
 243:Generated_Source\PSoC5/CyFlash.c ****     {
 244:Generated_Source\PSoC5/CyFlash.c ****         status = CYRET_LOCKED;
  90              		.loc 1 244 0
  91 0052 0424     		movs	r4, #4
  92              	.LVL8:
  93              	.L2:
 245:Generated_Source\PSoC5/CyFlash.c ****     }
 246:Generated_Source\PSoC5/CyFlash.c **** 
ARM GAS  C:\Users\MANSRO~1\AppData\Local\Temp\ccOXBW92.s 			page 7


 247:Generated_Source\PSoC5/CyFlash.c ****     return (status);
 248:Generated_Source\PSoC5/CyFlash.c **** }
  94              		.loc 1 248 0
  95 0054 2046     		mov	r0, r4
  96 0056 10BD     		pop	{r4, pc}
  97              	.LVL9:
  98              	.L13:
  99              		.align	2
 100              	.L12:
 101 0058 00000000 		.word	dieTemperature
 102 005c 22470040 		.word	1073760034
 103              		.cfi_endproc
 104              	.LFE3:
 105              		.size	CySetTempInt, .-CySetTempInt
 106              		.section	.text.CyFlash_Start,"ax",%progbits
 107              		.align	2
 108              		.global	CyFlash_Start
 109              		.thumb
 110              		.thumb_func
 111              		.type	CyFlash_Start, %function
 112              	CyFlash_Start:
 113              	.LFB0:
  49:Generated_Source\PSoC5/CyFlash.c ****     uint8 interruptState;
 114              		.loc 1 49 0
 115              		.cfi_startproc
 116              		@ args = 0, pretend = 0, frame = 0
 117              		@ frame_needed = 0, uses_anonymous_args = 0
 118 0000 08B5     		push	{r3, lr}
 119              		.cfi_def_cfa_offset 8
 120              		.cfi_offset 3, -8
 121              		.cfi_offset 14, -4
  52:Generated_Source\PSoC5/CyFlash.c **** 
 122              		.loc 1 52 0
 123 0002 FFF7FEFF 		bl	CyEnterCriticalSection
 124              	.LVL10:
  59:Generated_Source\PSoC5/CyFlash.c ****     CY_FLASH_PM_ALTACT_CFG0_REG |= CY_FLASH_PM_ALTACT_CFG0_EN_CLK_SPC;
 125              		.loc 1 59 0
 126 0006 0F4A     		ldr	r2, .L17
 127 0008 1378     		ldrb	r3, [r2]	@ zero_extendqisi2
 128 000a 43F00803 		orr	r3, r3, #8
 129 000e 1370     		strb	r3, [r2]
  60:Generated_Source\PSoC5/CyFlash.c **** 
 130              		.loc 1 60 0
 131 0010 1032     		adds	r2, r2, #16
 132 0012 1378     		ldrb	r3, [r2]	@ zero_extendqisi2
 133 0014 43F00803 		orr	r3, r3, #8
 134 0018 1370     		strb	r3, [r2]
  73:Generated_Source\PSoC5/CyFlash.c **** 
 135              		.loc 1 73 0
 136 001a C822     		movs	r2, #200
 137 001c 0A4B     		ldr	r3, .L17+4
 138 001e 1A70     		strb	r2, [r3]
  83:Generated_Source\PSoC5/CyFlash.c ****     CY_FLASH_PM_ALTACT_CFG12_REG |= CY_FLASH_PM_ALTACT_CFG12_EN_FM;
 139              		.loc 1 83 0
 140 0020 0A4A     		ldr	r2, .L17+8
 141 0022 1378     		ldrb	r3, [r2]	@ zero_extendqisi2
 142 0024 43F00F03 		orr	r3, r3, #15
ARM GAS  C:\Users\MANSRO~1\AppData\Local\Temp\ccOXBW92.s 			page 8


 143 0028 1370     		strb	r3, [r2]
  84:Generated_Source\PSoC5/CyFlash.c **** 
 144              		.loc 1 84 0
 145 002a 1032     		adds	r2, r2, #16
 146 002c 1378     		ldrb	r3, [r2]	@ zero_extendqisi2
 147 002e 43F00F03 		orr	r3, r3, #15
 148 0032 1370     		strb	r3, [r2]
 149              	.L15:
  86:Generated_Source\PSoC5/CyFlash.c ****     {
 150              		.loc 1 86 0 discriminator 1
 151 0034 064B     		ldr	r3, .L17+12
 152 0036 1B78     		ldrb	r3, [r3]	@ zero_extendqisi2
 153 0038 13F0200F 		tst	r3, #32
 154 003c FAD0     		beq	.L15
  91:Generated_Source\PSoC5/CyFlash.c **** }
 155              		.loc 1 91 0
 156 003e FFF7FEFF 		bl	CyExitCriticalSection
 157              	.LVL11:
 158 0042 08BD     		pop	{r3, pc}
 159              	.L18:
 160              		.align	2
 161              	.L17:
 162 0044 A0430040 		.word	1073759136
 163 0048 01470040 		.word	1073760001
 164 004c AC430040 		.word	1073759148
 165 0050 00470040 		.word	1073760000
 166              		.cfi_endproc
 167              	.LFE0:
 168              		.size	CyFlash_Start, .-CyFlash_Start
 169              		.section	.text.CyFlash_Stop,"ax",%progbits
 170              		.align	2
 171              		.global	CyFlash_Stop
 172              		.thumb
 173              		.thumb_func
 174              		.type	CyFlash_Stop, %function
 175              	CyFlash_Stop:
 176              	.LFB1:
 107:Generated_Source\PSoC5/CyFlash.c ****     uint8 interruptState;
 177              		.loc 1 107 0
 178              		.cfi_startproc
 179              		@ args = 0, pretend = 0, frame = 0
 180              		@ frame_needed = 0, uses_anonymous_args = 0
 181 0000 08B5     		push	{r3, lr}
 182              		.cfi_def_cfa_offset 8
 183              		.cfi_offset 3, -8
 184              		.cfi_offset 14, -4
 110:Generated_Source\PSoC5/CyFlash.c **** 
 185              		.loc 1 110 0
 186 0002 FFF7FEFF 		bl	CyEnterCriticalSection
 187              	.LVL12:
 112:Generated_Source\PSoC5/CyFlash.c ****     CY_FLASH_PM_ALTACT_CFG12_REG &= ((uint8)(~CY_FLASH_PM_ALTACT_CFG12_EN_FM));
 188              		.loc 1 112 0
 189 0006 064A     		ldr	r2, .L21
 190 0008 1378     		ldrb	r3, [r2]	@ zero_extendqisi2
 191 000a 03F0F003 		and	r3, r3, #240
 192 000e 1370     		strb	r3, [r2]
 113:Generated_Source\PSoC5/CyFlash.c **** 
ARM GAS  C:\Users\MANSRO~1\AppData\Local\Temp\ccOXBW92.s 			page 9


 193              		.loc 1 113 0
 194 0010 1032     		adds	r2, r2, #16
 195 0012 1378     		ldrb	r3, [r2]	@ zero_extendqisi2
 196 0014 03F0F003 		and	r3, r3, #240
 197 0018 1370     		strb	r3, [r2]
 115:Generated_Source\PSoC5/CyFlash.c **** }
 198              		.loc 1 115 0
 199 001a FFF7FEFF 		bl	CyExitCriticalSection
 200              	.LVL13:
 201 001e 08BD     		pop	{r3, pc}
 202              	.L22:
 203              		.align	2
 204              	.L21:
 205 0020 AC430040 		.word	1073759148
 206              		.cfi_endproc
 207              	.LFE1:
 208              		.size	CyFlash_Stop, .-CyFlash_Stop
 209              		.section	.text.CyFlash_EraseRow,"ax",%progbits
 210              		.align	2
 211              		.global	CyFlash_EraseRow
 212              		.thumb
 213              		.thumb_func
 214              		.type	CyFlash_EraseRow, %function
 215              	CyFlash_EraseRow:
 216              	.LFB2:
 141:Generated_Source\PSoC5/CyFlash.c ****     cystatus status = CYRET_SUCCESS;
 217              		.loc 1 141 0
 218              		.cfi_startproc
 219              		@ args = 0, pretend = 0, frame = 0
 220              		@ frame_needed = 0, uses_anonymous_args = 0
 221              	.LVL14:
 222 0000 38B5     		push	{r3, r4, r5, lr}
 223              		.cfi_def_cfa_offset 16
 224              		.cfi_offset 3, -16
 225              		.cfi_offset 4, -12
 226              		.cfi_offset 5, -8
 227              		.cfi_offset 14, -4
 228              	.LVL15:
 144:Generated_Source\PSoC5/CyFlash.c ****     {
 229              		.loc 1 144 0
 230 0002 3F28     		cmp	r0, #63
 231 0004 2DD8     		bhi	.L28
 148:Generated_Source\PSoC5/CyFlash.c ****     {
 232              		.loc 1 148 0
 233 0006 B1F5807F 		cmp	r1, #256
 234 000a 2CD8     		bhi	.L29
 235 000c 0D46     		mov	r5, r1
 236 000e 0446     		mov	r4, r0
 154:Generated_Source\PSoC5/CyFlash.c ****         {
 237              		.loc 1 154 0
 238 0010 FFF7FEFF 		bl	CySpcLock
 239              	.LVL16:
 240 0014 48BB     		cbnz	r0, .L30
 157:Generated_Source\PSoC5/CyFlash.c ****             
 241              		.loc 1 157 0
 242 0016 164A     		ldr	r2, .L34
 243 0018 5378     		ldrb	r3, [r2, #1]	@ zero_extendqisi2
ARM GAS  C:\Users\MANSRO~1\AppData\Local\Temp\ccOXBW92.s 			page 10


 244 001a 1278     		ldrb	r2, [r2]	@ zero_extendqisi2
 245 001c 2946     		mov	r1, r5
 246 001e 2046     		mov	r0, r4
 247 0020 FFF7FEFF 		bl	CySpcEraseRow
 248              	.LVL17:
 159:Generated_Source\PSoC5/CyFlash.c ****             {
 249              		.loc 1 159 0
 250 0024 0728     		cmp	r0, #7
 251 0026 04D0     		beq	.L25
 179:Generated_Source\PSoC5/CyFlash.c ****             }
 252              		.loc 1 179 0
 253 0028 0924     		movs	r4, #9
 254 002a 17E0     		b	.L26
 255              	.LVL18:
 256              	.L27:
 164:Generated_Source\PSoC5/CyFlash.c ****                 }
 257              		.loc 1 164 0
 258 002c 0120     		movs	r0, #1
 259 002e FFF7FEFF 		bl	CyDelayUs
 260              	.LVL19:
 261              	.L25:
 161:Generated_Source\PSoC5/CyFlash.c ****                 {
 262              		.loc 1 161 0
 263 0032 104B     		ldr	r3, .L34+4
 264 0034 1B78     		ldrb	r3, [r3]	@ zero_extendqisi2
 265 0036 13F0020F 		tst	r3, #2
 266 003a F7D0     		beq	.L27
 168:Generated_Source\PSoC5/CyFlash.c ****                 {
 267              		.loc 1 168 0
 268 003c 0D4B     		ldr	r3, .L34+4
 269 003e 1B78     		ldrb	r3, [r3]	@ zero_extendqisi2
 270 0040 13F0020F 		tst	r3, #2
 271 0044 06D0     		beq	.L31
 168:Generated_Source\PSoC5/CyFlash.c ****                 {
 272              		.loc 1 168 0 is_stmt 0 discriminator 1
 273 0046 0B4B     		ldr	r3, .L34+4
 274 0048 1B78     		ldrb	r3, [r3]	@ zero_extendqisi2
 275 004a 9B08     		lsrs	r3, r3, #2
 276 004c 05D0     		beq	.L32
 174:Generated_Source\PSoC5/CyFlash.c ****                 }
 277              		.loc 1 174 0 is_stmt 1
 278 004e 4FF0FF34 		mov	r4, #-1
 279 0052 03E0     		b	.L26
 280              	.L31:
 281 0054 4FF0FF34 		mov	r4, #-1
 282 0058 00E0     		b	.L26
 283              	.L32:
 170:Generated_Source\PSoC5/CyFlash.c ****                 }
 284              		.loc 1 170 0
 285 005a 0024     		movs	r4, #0
 286              	.L26:
 287              	.LVL20:
 181:Generated_Source\PSoC5/CyFlash.c ****         }
 288              		.loc 1 181 0
 289 005c FFF7FEFF 		bl	CySpcUnlock
 290              	.LVL21:
 291 0060 04E0     		b	.L24
ARM GAS  C:\Users\MANSRO~1\AppData\Local\Temp\ccOXBW92.s 			page 11


 292              	.LVL22:
 293              	.L28:
 146:Generated_Source\PSoC5/CyFlash.c ****     }
 294              		.loc 1 146 0
 295 0062 0124     		movs	r4, #1
 296 0064 02E0     		b	.L24
 297              	.L29:
 150:Generated_Source\PSoC5/CyFlash.c ****     }        
 298              		.loc 1 150 0
 299 0066 0124     		movs	r4, #1
 300 0068 00E0     		b	.L24
 301              	.LVL23:
 302              	.L30:
 185:Generated_Source\PSoC5/CyFlash.c ****         }
 303              		.loc 1 185 0
 304 006a 0424     		movs	r4, #4
 305              	.LVL24:
 306              	.L24:
 190:Generated_Source\PSoC5/CyFlash.c **** 
 307              		.loc 1 190 0
 308 006c 2046     		mov	r0, r4
 309 006e 38BD     		pop	{r3, r4, r5, pc}
 310              	.LVL25:
 311              	.L35:
 312              		.align	2
 313              	.L34:
 314 0070 00000000 		.word	dieTemperature
 315 0074 22470040 		.word	1073760034
 316              		.cfi_endproc
 317              	.LFE2:
 318              		.size	CyFlash_EraseRow, .-CyFlash_EraseRow
 319              		.section	.text.CyFlashGetSpcAlgorithm,"ax",%progbits
 320              		.align	2
 321              		.global	CyFlashGetSpcAlgorithm
 322              		.thumb
 323              		.thumb_func
 324              		.type	CyFlashGetSpcAlgorithm, %function
 325              	CyFlashGetSpcAlgorithm:
 326              	.LFB4:
 249:Generated_Source\PSoC5/CyFlash.c **** 
 250:Generated_Source\PSoC5/CyFlash.c **** 
 251:Generated_Source\PSoC5/CyFlash.c **** /*******************************************************************************
 252:Generated_Source\PSoC5/CyFlash.c **** * Function Name: CyFlashGetSpcAlgorithm
 253:Generated_Source\PSoC5/CyFlash.c **** ****************************************************************************//**
 254:Generated_Source\PSoC5/CyFlash.c **** *
 255:Generated_Source\PSoC5/CyFlash.c **** *  Sends a command to the SPC to download code into RAM.
 256:Generated_Source\PSoC5/CyFlash.c **** *
 257:Generated_Source\PSoC5/CyFlash.c **** * \return
 258:Generated_Source\PSoC5/CyFlash.c **** *  status:
 259:Generated_Source\PSoC5/CyFlash.c **** *   CYRET_SUCCESS - if successful
 260:Generated_Source\PSoC5/CyFlash.c **** *   CYRET_LOCKED  - if Flash writing already in use
 261:Generated_Source\PSoC5/CyFlash.c **** *   CYRET_UNKNOWN - if there was an SPC error
 262:Generated_Source\PSoC5/CyFlash.c **** *
 263:Generated_Source\PSoC5/CyFlash.c **** *******************************************************************************/
 264:Generated_Source\PSoC5/CyFlash.c **** cystatus CyFlashGetSpcAlgorithm(void) 
 265:Generated_Source\PSoC5/CyFlash.c **** {
 327              		.loc 1 265 0
ARM GAS  C:\Users\MANSRO~1\AppData\Local\Temp\ccOXBW92.s 			page 12


 328              		.cfi_startproc
 329              		@ args = 0, pretend = 0, frame = 0
 330              		@ frame_needed = 0, uses_anonymous_args = 0
 331 0000 10B5     		push	{r4, lr}
 332              		.cfi_def_cfa_offset 8
 333              		.cfi_offset 4, -8
 334              		.cfi_offset 14, -4
 266:Generated_Source\PSoC5/CyFlash.c ****     cystatus status;
 267:Generated_Source\PSoC5/CyFlash.c **** 
 268:Generated_Source\PSoC5/CyFlash.c ****     /* Make sure SPC is powered */
 269:Generated_Source\PSoC5/CyFlash.c ****     CySpcStart();
 335              		.loc 1 269 0
 336 0002 FFF7FEFF 		bl	CySpcStart
 337              	.LVL26:
 270:Generated_Source\PSoC5/CyFlash.c **** 
 271:Generated_Source\PSoC5/CyFlash.c ****     if(CySpcLock() == CYRET_SUCCESS)
 338              		.loc 1 271 0
 339 0006 FFF7FEFF 		bl	CySpcLock
 340              	.LVL27:
 341 000a D0B9     		cbnz	r0, .L41
 272:Generated_Source\PSoC5/CyFlash.c ****     {
 273:Generated_Source\PSoC5/CyFlash.c ****         status = CySpcGetAlgorithm();
 342              		.loc 1 273 0
 343 000c FFF7FEFF 		bl	CySpcGetAlgorithm
 344              	.LVL28:
 345 0010 0446     		mov	r4, r0
 346              	.LVL29:
 274:Generated_Source\PSoC5/CyFlash.c **** 
 275:Generated_Source\PSoC5/CyFlash.c ****         if(CYRET_STARTED == status)
 347              		.loc 1 275 0
 348 0012 0728     		cmp	r0, #7
 349 0014 12D1     		bne	.L39
 350 0016 02E0     		b	.L38
 351              	.LVL30:
 352              	.L40:
 276:Generated_Source\PSoC5/CyFlash.c ****         {
 277:Generated_Source\PSoC5/CyFlash.c ****             while(CY_SPC_BUSY)
 278:Generated_Source\PSoC5/CyFlash.c ****             {
 279:Generated_Source\PSoC5/CyFlash.c ****                 /* Spin until idle. */
 280:Generated_Source\PSoC5/CyFlash.c ****                 CyDelayUs(1u);
 353              		.loc 1 280 0
 354 0018 0120     		movs	r0, #1
 355 001a FFF7FEFF 		bl	CyDelayUs
 356              	.LVL31:
 357              	.L38:
 277:Generated_Source\PSoC5/CyFlash.c ****             {
 358              		.loc 1 277 0
 359 001e 0A4B     		ldr	r3, .L44
 360 0020 1B78     		ldrb	r3, [r3]	@ zero_extendqisi2
 361 0022 13F0020F 		tst	r3, #2
 362 0026 F7D0     		beq	.L40
 281:Generated_Source\PSoC5/CyFlash.c ****             }
 282:Generated_Source\PSoC5/CyFlash.c **** 
 283:Generated_Source\PSoC5/CyFlash.c ****             if(CY_SPC_STATUS_SUCCESS == CY_SPC_READ_STATUS)
 363              		.loc 1 283 0
 364 0028 074B     		ldr	r3, .L44
 365 002a 1B78     		ldrb	r3, [r3]	@ zero_extendqisi2
ARM GAS  C:\Users\MANSRO~1\AppData\Local\Temp\ccOXBW92.s 			page 13


 366 002c 13F0020F 		tst	r3, #2
 367 0030 04D0     		beq	.L39
 368              		.loc 1 283 0 is_stmt 0 discriminator 1
 369 0032 054B     		ldr	r3, .L44
 370 0034 1B78     		ldrb	r3, [r3]	@ zero_extendqisi2
 371 0036 9B08     		lsrs	r3, r3, #2
 372 0038 00D1     		bne	.L39
 284:Generated_Source\PSoC5/CyFlash.c ****             {
 285:Generated_Source\PSoC5/CyFlash.c ****                 status = CYRET_SUCCESS;
 373              		.loc 1 285 0 is_stmt 1
 374 003a 0024     		movs	r4, #0
 375              	.LVL32:
 376              	.L39:
 286:Generated_Source\PSoC5/CyFlash.c ****             }
 287:Generated_Source\PSoC5/CyFlash.c ****         }
 288:Generated_Source\PSoC5/CyFlash.c ****         CySpcUnlock();
 377              		.loc 1 288 0
 378 003c FFF7FEFF 		bl	CySpcUnlock
 379              	.LVL33:
 380 0040 00E0     		b	.L37
 381              	.LVL34:
 382              	.L41:
 289:Generated_Source\PSoC5/CyFlash.c ****     }
 290:Generated_Source\PSoC5/CyFlash.c ****     else
 291:Generated_Source\PSoC5/CyFlash.c ****     {
 292:Generated_Source\PSoC5/CyFlash.c ****         status = CYRET_LOCKED;
 383              		.loc 1 292 0
 384 0042 0424     		movs	r4, #4
 385              	.L37:
 386              	.LVL35:
 293:Generated_Source\PSoC5/CyFlash.c ****     }
 294:Generated_Source\PSoC5/CyFlash.c **** 
 295:Generated_Source\PSoC5/CyFlash.c ****     return (status);
 296:Generated_Source\PSoC5/CyFlash.c **** }
 387              		.loc 1 296 0
 388 0044 2046     		mov	r0, r4
 389 0046 10BD     		pop	{r4, pc}
 390              	.LVL36:
 391              	.L45:
 392              		.align	2
 393              	.L44:
 394 0048 22470040 		.word	1073760034
 395              		.cfi_endproc
 396              	.LFE4:
 397              		.size	CyFlashGetSpcAlgorithm, .-CyFlashGetSpcAlgorithm
 398              		.section	.text.CySetTemp,"ax",%progbits
 399              		.align	2
 400              		.global	CySetTemp
 401              		.thumb
 402              		.thumb_func
 403              		.type	CySetTemp, %function
 404              	CySetTemp:
 405              	.LFB5:
 297:Generated_Source\PSoC5/CyFlash.c **** 
 298:Generated_Source\PSoC5/CyFlash.c **** 
 299:Generated_Source\PSoC5/CyFlash.c **** /*******************************************************************************
 300:Generated_Source\PSoC5/CyFlash.c **** * Function Name: CySetTemp
ARM GAS  C:\Users\MANSRO~1\AppData\Local\Temp\ccOXBW92.s 			page 14


 301:Generated_Source\PSoC5/CyFlash.c **** ****************************************************************************//**
 302:Generated_Source\PSoC5/CyFlash.c **** *
 303:Generated_Source\PSoC5/CyFlash.c **** *  This is a wraparound for CySetTempInt(). It is used to return the second
 304:Generated_Source\PSoC5/CyFlash.c **** *  successful read of the temperature value.
 305:Generated_Source\PSoC5/CyFlash.c **** *
 306:Generated_Source\PSoC5/CyFlash.c **** * \return
 307:Generated_Source\PSoC5/CyFlash.c **** *  status:
 308:Generated_Source\PSoC5/CyFlash.c **** *   CYRET_SUCCESS if successful.
 309:Generated_Source\PSoC5/CyFlash.c **** *   CYRET_LOCKED  if Flash writing already in use
 310:Generated_Source\PSoC5/CyFlash.c **** *   CYRET_UNKNOWN if there was an SPC error.
 311:Generated_Source\PSoC5/CyFlash.c **** *
 312:Generated_Source\PSoC5/CyFlash.c **** *  uint8 dieTemperature[2]:
 313:Generated_Source\PSoC5/CyFlash.c **** *   Holds the die temperature for the flash writing algorithm. The first byte is
 314:Generated_Source\PSoC5/CyFlash.c **** *   the sign of the temperature (0 = negative, 1 = positive). The second byte is
 315:Generated_Source\PSoC5/CyFlash.c **** *   the magnitude.
 316:Generated_Source\PSoC5/CyFlash.c **** *
 317:Generated_Source\PSoC5/CyFlash.c **** *******************************************************************************/
 318:Generated_Source\PSoC5/CyFlash.c **** cystatus CySetTemp(void) 
 319:Generated_Source\PSoC5/CyFlash.c **** {
 406              		.loc 1 319 0
 407              		.cfi_startproc
 408              		@ args = 0, pretend = 0, frame = 0
 409              		@ frame_needed = 0, uses_anonymous_args = 0
 410 0000 08B5     		push	{r3, lr}
 411              		.cfi_def_cfa_offset 8
 412              		.cfi_offset 3, -8
 413              		.cfi_offset 14, -4
 320:Generated_Source\PSoC5/CyFlash.c ****     cystatus status = CyFlashGetSpcAlgorithm();
 414              		.loc 1 320 0
 415 0002 FFF7FEFF 		bl	CyFlashGetSpcAlgorithm
 416              	.LVL37:
 321:Generated_Source\PSoC5/CyFlash.c **** 
 322:Generated_Source\PSoC5/CyFlash.c ****     if(status == CYRET_SUCCESS)
 417              		.loc 1 322 0
 418 0006 0346     		mov	r3, r0
 419 0008 10B9     		cbnz	r0, .L47
 323:Generated_Source\PSoC5/CyFlash.c ****     {
 324:Generated_Source\PSoC5/CyFlash.c ****         status = CySetTempInt();
 420              		.loc 1 324 0
 421 000a FFF7FEFF 		bl	CySetTempInt
 422              	.LVL38:
 423 000e 0346     		mov	r3, r0
 424              	.LVL39:
 425              	.L47:
 325:Generated_Source\PSoC5/CyFlash.c ****     }
 326:Generated_Source\PSoC5/CyFlash.c **** 
 327:Generated_Source\PSoC5/CyFlash.c ****     return (status);
 328:Generated_Source\PSoC5/CyFlash.c **** }
 426              		.loc 1 328 0
 427 0010 1846     		mov	r0, r3
 428 0012 08BD     		pop	{r3, pc}
 429              		.cfi_endproc
 430              	.LFE5:
 431              		.size	CySetTemp, .-CySetTemp
 432              		.section	.text.CySetFlashEEBuffer,"ax",%progbits
 433              		.align	2
 434              		.global	CySetFlashEEBuffer
ARM GAS  C:\Users\MANSRO~1\AppData\Local\Temp\ccOXBW92.s 			page 15


 435              		.thumb
 436              		.thumb_func
 437              		.type	CySetFlashEEBuffer, %function
 438              	CySetFlashEEBuffer:
 439              	.LFB6:
 329:Generated_Source\PSoC5/CyFlash.c **** 
 330:Generated_Source\PSoC5/CyFlash.c **** 
 331:Generated_Source\PSoC5/CyFlash.c **** /*******************************************************************************
 332:Generated_Source\PSoC5/CyFlash.c **** * Function Name: CySetFlashEEBuffer
 333:Generated_Source\PSoC5/CyFlash.c **** ****************************************************************************//**
 334:Generated_Source\PSoC5/CyFlash.c **** *
 335:Generated_Source\PSoC5/CyFlash.c **** *  Sets the user supplied temporary buffer to store SPC data while performing
 336:Generated_Source\PSoC5/CyFlash.c **** *  Flash and EEPROM commands. This buffer is only necessary when the Flash ECC
 337:Generated_Source\PSoC5/CyFlash.c **** *  is disabled.
 338:Generated_Source\PSoC5/CyFlash.c **** *
 339:Generated_Source\PSoC5/CyFlash.c **** *  \param buffer:
 340:Generated_Source\PSoC5/CyFlash.c **** *   The address of a block of memory to store temporary memory. The size of the
 341:Generated_Source\PSoC5/CyFlash.c **** *   block of memory is CYDEV_FLS_ROW_SIZE + CYDEV_ECC_ROW_SIZE.
 342:Generated_Source\PSoC5/CyFlash.c **** *
 343:Generated_Source\PSoC5/CyFlash.c **** * \return
 344:Generated_Source\PSoC5/CyFlash.c **** *  status:
 345:Generated_Source\PSoC5/CyFlash.c **** *   CYRET_SUCCESS if successful.
 346:Generated_Source\PSoC5/CyFlash.c **** *   CYRET_BAD_PARAM if the buffer is NULL
 347:Generated_Source\PSoC5/CyFlash.c **** *
 348:Generated_Source\PSoC5/CyFlash.c **** *******************************************************************************/
 349:Generated_Source\PSoC5/CyFlash.c **** cystatus CySetFlashEEBuffer(uint8 * buffer) 
 350:Generated_Source\PSoC5/CyFlash.c **** {
 440              		.loc 1 350 0
 441              		.cfi_startproc
 442              		@ args = 0, pretend = 0, frame = 0
 443              		@ frame_needed = 0, uses_anonymous_args = 0
 444              	.LVL40:
 445 0000 10B5     		push	{r4, lr}
 446              		.cfi_def_cfa_offset 8
 447              		.cfi_offset 4, -8
 448              		.cfi_offset 14, -4
 449 0002 0446     		mov	r4, r0
 450              	.LVL41:
 351:Generated_Source\PSoC5/CyFlash.c ****     cystatus status = CYRET_SUCCESS;
 352:Generated_Source\PSoC5/CyFlash.c **** 
 353:Generated_Source\PSoC5/CyFlash.c ****     CySpcStart();
 451              		.loc 1 353 0
 452 0004 FFF7FEFF 		bl	CySpcStart
 453              	.LVL42:
 354:Generated_Source\PSoC5/CyFlash.c **** 
 355:Generated_Source\PSoC5/CyFlash.c ****     #if(CYDEV_ECC_ENABLE == 0)
 356:Generated_Source\PSoC5/CyFlash.c **** 
 357:Generated_Source\PSoC5/CyFlash.c ****         if(NULL == buffer)
 454              		.loc 1 357 0
 455 0008 34B1     		cbz	r4, .L51
 358:Generated_Source\PSoC5/CyFlash.c ****         {
 359:Generated_Source\PSoC5/CyFlash.c ****             rowBuffer = rowBuffer;
 360:Generated_Source\PSoC5/CyFlash.c ****             status = CYRET_BAD_PARAM;
 361:Generated_Source\PSoC5/CyFlash.c ****         }
 362:Generated_Source\PSoC5/CyFlash.c ****         else if(CySpcLock() != CYRET_SUCCESS)
 456              		.loc 1 362 0
 457 000a FFF7FEFF 		bl	CySpcLock
ARM GAS  C:\Users\MANSRO~1\AppData\Local\Temp\ccOXBW92.s 			page 16


 458              	.LVL43:
 459 000e 28B9     		cbnz	r0, .L52
 363:Generated_Source\PSoC5/CyFlash.c ****         {
 364:Generated_Source\PSoC5/CyFlash.c ****             rowBuffer = rowBuffer;
 365:Generated_Source\PSoC5/CyFlash.c ****             status = CYRET_LOCKED;
 366:Generated_Source\PSoC5/CyFlash.c ****         }
 367:Generated_Source\PSoC5/CyFlash.c ****         else
 368:Generated_Source\PSoC5/CyFlash.c ****         {
 369:Generated_Source\PSoC5/CyFlash.c ****             rowBuffer = buffer;
 370:Generated_Source\PSoC5/CyFlash.c ****             CySpcUnlock();
 460              		.loc 1 370 0
 461 0010 FFF7FEFF 		bl	CySpcUnlock
 462              	.LVL44:
 351:Generated_Source\PSoC5/CyFlash.c **** 
 463              		.loc 1 351 0
 464 0014 0020     		movs	r0, #0
 465 0016 10BD     		pop	{r4, pc}
 466              	.LVL45:
 467              	.L51:
 360:Generated_Source\PSoC5/CyFlash.c ****         }
 468              		.loc 1 360 0
 469 0018 0120     		movs	r0, #1
 470 001a 10BD     		pop	{r4, pc}
 471              	.LVL46:
 472              	.L52:
 365:Generated_Source\PSoC5/CyFlash.c ****         }
 473              		.loc 1 365 0
 474 001c 0420     		movs	r0, #4
 475              	.LVL47:
 371:Generated_Source\PSoC5/CyFlash.c ****         }
 372:Generated_Source\PSoC5/CyFlash.c **** 
 373:Generated_Source\PSoC5/CyFlash.c ****     #else
 374:Generated_Source\PSoC5/CyFlash.c **** 
 375:Generated_Source\PSoC5/CyFlash.c ****         /* To suppress warning */
 376:Generated_Source\PSoC5/CyFlash.c ****         buffer = buffer;
 377:Generated_Source\PSoC5/CyFlash.c **** 
 378:Generated_Source\PSoC5/CyFlash.c ****     #endif  /* (CYDEV_ECC_ENABLE == 0u) */
 379:Generated_Source\PSoC5/CyFlash.c **** 
 380:Generated_Source\PSoC5/CyFlash.c ****     return(status);
 381:Generated_Source\PSoC5/CyFlash.c **** }
 476              		.loc 1 381 0
 477 001e 10BD     		pop	{r4, pc}
 478              		.cfi_endproc
 479              	.LFE6:
 480              		.size	CySetFlashEEBuffer, .-CySetFlashEEBuffer
 481              		.section	.text.CyWriteRowFull,"ax",%progbits
 482              		.align	2
 483              		.global	CyWriteRowFull
 484              		.thumb
 485              		.thumb_func
 486              		.type	CyWriteRowFull, %function
 487              	CyWriteRowFull:
 488              	.LFB8:
 382:Generated_Source\PSoC5/CyFlash.c **** 
 383:Generated_Source\PSoC5/CyFlash.c **** 
 384:Generated_Source\PSoC5/CyFlash.c **** /*******************************************************************************
 385:Generated_Source\PSoC5/CyFlash.c **** * Function Name: CyWriteRowData
ARM GAS  C:\Users\MANSRO~1\AppData\Local\Temp\ccOXBW92.s 			page 17


 386:Generated_Source\PSoC5/CyFlash.c **** ****************************************************************************//**
 387:Generated_Source\PSoC5/CyFlash.c **** *
 388:Generated_Source\PSoC5/CyFlash.c **** *  Sends a command to the SPC to load and program a row of data in
 389:Generated_Source\PSoC5/CyFlash.c **** *  Flash or EEPROM.
 390:Generated_Source\PSoC5/CyFlash.c **** *
 391:Generated_Source\PSoC5/CyFlash.c **** *  \param arrayID:    ID of the array to write.
 392:Generated_Source\PSoC5/CyFlash.c **** *   The type of write, Flash or EEPROM, is determined from the array ID.
 393:Generated_Source\PSoC5/CyFlash.c **** *   The arrays in the part are sequential starting at the first ID for the
 394:Generated_Source\PSoC5/CyFlash.c **** *   specific memory type. The array ID for the Flash memory lasts from 0x00 to
 395:Generated_Source\PSoC5/CyFlash.c **** *   0x3F and for the EEPROM memory it lasts from 0x40 to 0x7F.
 396:Generated_Source\PSoC5/CyFlash.c **** *  \param rowAddress: rowAddress of flash row to program.
 397:Generated_Source\PSoC5/CyFlash.c **** *  \param rowData:    Array of bytes to write.
 398:Generated_Source\PSoC5/CyFlash.c **** *
 399:Generated_Source\PSoC5/CyFlash.c **** * \return
 400:Generated_Source\PSoC5/CyFlash.c **** *  status:
 401:Generated_Source\PSoC5/CyFlash.c **** *   CYRET_SUCCESS if successful.
 402:Generated_Source\PSoC5/CyFlash.c **** *   CYRET_LOCKED if the SPC is already in use.
 403:Generated_Source\PSoC5/CyFlash.c **** *   CYRET_CANCELED if command not accepted
 404:Generated_Source\PSoC5/CyFlash.c **** *   CYRET_UNKNOWN if there was an SPC error.
 405:Generated_Source\PSoC5/CyFlash.c **** *
 406:Generated_Source\PSoC5/CyFlash.c **** *******************************************************************************/
 407:Generated_Source\PSoC5/CyFlash.c **** cystatus CyWriteRowData(uint8 arrayId, uint16 rowAddress, const uint8 * rowData) 
 408:Generated_Source\PSoC5/CyFlash.c **** {
 409:Generated_Source\PSoC5/CyFlash.c ****     uint16 rowSize;
 410:Generated_Source\PSoC5/CyFlash.c ****     cystatus status;
 411:Generated_Source\PSoC5/CyFlash.c **** 
 412:Generated_Source\PSoC5/CyFlash.c ****     rowSize = (arrayId > CY_SPC_LAST_FLASH_ARRAYID) ? CYDEV_EEPROM_ROW_SIZE : CYDEV_FLS_ROW_SIZE;
 413:Generated_Source\PSoC5/CyFlash.c ****     status = CyWriteRowFull(arrayId, rowAddress, rowData, rowSize);
 414:Generated_Source\PSoC5/CyFlash.c **** 
 415:Generated_Source\PSoC5/CyFlash.c ****     return(status);
 416:Generated_Source\PSoC5/CyFlash.c **** }
 417:Generated_Source\PSoC5/CyFlash.c **** 
 418:Generated_Source\PSoC5/CyFlash.c **** 
 419:Generated_Source\PSoC5/CyFlash.c **** /*******************************************************************
 420:Generated_Source\PSoC5/CyFlash.c **** * If "Enable Error Correcting Code (ECC)" and "Store Configuration
 421:Generated_Source\PSoC5/CyFlash.c **** * Data in ECC" DWR options are disabled, ECC section is available
 422:Generated_Source\PSoC5/CyFlash.c **** * for user data.
 423:Generated_Source\PSoC5/CyFlash.c **** *******************************************************************/
 424:Generated_Source\PSoC5/CyFlash.c **** #if ((CYDEV_ECC_ENABLE == 0u) && (CYDEV_CONFIGURATION_ECC == 0u))
 425:Generated_Source\PSoC5/CyFlash.c **** 
 426:Generated_Source\PSoC5/CyFlash.c ****     /*******************************************************************************
 427:Generated_Source\PSoC5/CyFlash.c ****     * Function Name: CyWriteRowConfig
 428:Generated_Source\PSoC5/CyFlash.c ****     ****************************************************************************//**
 429:Generated_Source\PSoC5/CyFlash.c ****     *
 430:Generated_Source\PSoC5/CyFlash.c ****     *  Sends a command to the SPC to load and program a row of config data in the
 431:Generated_Source\PSoC5/CyFlash.c ****     *  Flash. This function is only valid for Flash array IDs (not for EEPROM).
 432:Generated_Source\PSoC5/CyFlash.c ****     *
 433:Generated_Source\PSoC5/CyFlash.c ****     *  \param arrayId:      ID of the array to write
 434:Generated_Source\PSoC5/CyFlash.c ****     *   The arrays in the part are sequential starting at the first ID for the
 435:Generated_Source\PSoC5/CyFlash.c ****     *   specific memory type. The array ID for the Flash memory lasts
 436:Generated_Source\PSoC5/CyFlash.c ****     *   from 0x00 to 0x3F.
 437:Generated_Source\PSoC5/CyFlash.c ****     *  \param rowAddress:   The address of the sector to erase.
 438:Generated_Source\PSoC5/CyFlash.c ****     *  \param rowECC:       The array of bytes to write.
 439:Generated_Source\PSoC5/CyFlash.c ****     *
 440:Generated_Source\PSoC5/CyFlash.c ****     * \return
 441:Generated_Source\PSoC5/CyFlash.c ****     *  status:
 442:Generated_Source\PSoC5/CyFlash.c ****     *   CYRET_SUCCESS if successful.
ARM GAS  C:\Users\MANSRO~1\AppData\Local\Temp\ccOXBW92.s 			page 18


 443:Generated_Source\PSoC5/CyFlash.c ****     *   CYRET_LOCKED if the SPC is already in use.
 444:Generated_Source\PSoC5/CyFlash.c ****     *   CYRET_CANCELED if command not accepted
 445:Generated_Source\PSoC5/CyFlash.c ****     *   CYRET_UNKNOWN if there was an SPC error.
 446:Generated_Source\PSoC5/CyFlash.c ****     *
 447:Generated_Source\PSoC5/CyFlash.c ****     *******************************************************************************/
 448:Generated_Source\PSoC5/CyFlash.c ****     cystatus CyWriteRowConfig(uint8 arrayId, uint16 rowAddress, const uint8 * rowECC)\
 449:Generated_Source\PSoC5/CyFlash.c ****     
 450:Generated_Source\PSoC5/CyFlash.c ****     {
 451:Generated_Source\PSoC5/CyFlash.c ****         cystatus status;
 452:Generated_Source\PSoC5/CyFlash.c **** 
 453:Generated_Source\PSoC5/CyFlash.c ****         status = CyWriteRowFull(arrayId, rowAddress, rowECC, CYDEV_ECC_ROW_SIZE);
 454:Generated_Source\PSoC5/CyFlash.c **** 
 455:Generated_Source\PSoC5/CyFlash.c ****         return (status);
 456:Generated_Source\PSoC5/CyFlash.c ****     }
 457:Generated_Source\PSoC5/CyFlash.c **** 
 458:Generated_Source\PSoC5/CyFlash.c **** #endif  /* ((CYDEV_ECC_ENABLE == 0u) && (CYDEV_CONFIGURATION_ECC == 0u)) */
 459:Generated_Source\PSoC5/CyFlash.c **** 
 460:Generated_Source\PSoC5/CyFlash.c **** 
 461:Generated_Source\PSoC5/CyFlash.c **** 
 462:Generated_Source\PSoC5/CyFlash.c **** /*******************************************************************************
 463:Generated_Source\PSoC5/CyFlash.c **** * Function Name: CyWriteRowFull
 464:Generated_Source\PSoC5/CyFlash.c **** ****************************************************************************//**
 465:Generated_Source\PSoC5/CyFlash.c **** *  Sends a command to the SPC to load and program a row of data in the Flash.
 466:Generated_Source\PSoC5/CyFlash.c **** *  rowData array is expected to contain Flash and ECC data if needed.
 467:Generated_Source\PSoC5/CyFlash.c **** *
 468:Generated_Source\PSoC5/CyFlash.c **** *  \param arrayId:    FLASH or EEPROM array id.
 469:Generated_Source\PSoC5/CyFlash.c **** *  \param rowData:    Pointer to a row of data to write.
 470:Generated_Source\PSoC5/CyFlash.c **** *  \param rowNumber:  Zero based number of the row.
 471:Generated_Source\PSoC5/CyFlash.c **** *  \param rowSize:    Size of the row.
 472:Generated_Source\PSoC5/CyFlash.c **** *
 473:Generated_Source\PSoC5/CyFlash.c **** * \return
 474:Generated_Source\PSoC5/CyFlash.c **** *  CYRET_SUCCESS if successful.
 475:Generated_Source\PSoC5/CyFlash.c **** *  CYRET_LOCKED if the SPC is already in use.
 476:Generated_Source\PSoC5/CyFlash.c **** *  CYRET_CANCELED if command not accepted
 477:Generated_Source\PSoC5/CyFlash.c **** *  CYRET_UNKNOWN if there was an SPC error.
 478:Generated_Source\PSoC5/CyFlash.c **** *
 479:Generated_Source\PSoC5/CyFlash.c **** *******************************************************************************/
 480:Generated_Source\PSoC5/CyFlash.c **** cystatus CyWriteRowFull(uint8 arrayId, uint16 rowNumber, const uint8* rowData, uint16 rowSize) \
 481:Generated_Source\PSoC5/CyFlash.c ****         
 482:Generated_Source\PSoC5/CyFlash.c **** {
 489              		.loc 1 482 0
 490              		.cfi_startproc
 491              		@ args = 0, pretend = 0, frame = 0
 492              		@ frame_needed = 0, uses_anonymous_args = 0
 493              	.LVL48:
 494 0000 2DE9F041 		push	{r4, r5, r6, r7, r8, lr}
 495              		.cfi_def_cfa_offset 24
 496              		.cfi_offset 4, -24
 497              		.cfi_offset 5, -20
 498              		.cfi_offset 6, -16
 499              		.cfi_offset 7, -12
 500              		.cfi_offset 8, -8
 501              		.cfi_offset 14, -4
 502              	.LVL49:
 483:Generated_Source\PSoC5/CyFlash.c ****     cystatus status = CYRET_SUCCESS;
 484:Generated_Source\PSoC5/CyFlash.c **** 
 485:Generated_Source\PSoC5/CyFlash.c ****     if((arrayId <=  CY_SPC_LAST_FLASH_ARRAYID) && (arrayId > (CY_FLASH_NUMBER_ARRAYS  + CY_SPC_FIRS
ARM GAS  C:\Users\MANSRO~1\AppData\Local\Temp\ccOXBW92.s 			page 19


 503              		.loc 1 485 0
 504 0004 C41E     		subs	r4, r0, #3
 505 0006 E4B2     		uxtb	r4, r4
 506 0008 3C2C     		cmp	r4, #60
 507 000a 01D9     		bls	.L69
 483:Generated_Source\PSoC5/CyFlash.c ****     cystatus status = CYRET_SUCCESS;
 508              		.loc 1 483 0
 509 000c 0025     		movs	r5, #0
 510 000e 00E0     		b	.L55
 511              	.L69:
 486:Generated_Source\PSoC5/CyFlash.c ****     {
 487:Generated_Source\PSoC5/CyFlash.c ****         status = CYRET_BAD_PARAM;
 512              		.loc 1 487 0
 513 0010 0125     		movs	r5, #1
 514              	.L55:
 515              	.LVL50:
 488:Generated_Source\PSoC5/CyFlash.c ****     }
 489:Generated_Source\PSoC5/CyFlash.c **** 
 490:Generated_Source\PSoC5/CyFlash.c ****     if(arrayId > CY_SPC_LAST_EE_ARRAYID)
 516              		.loc 1 490 0
 517 0012 10F0800F 		tst	r0, #128
 518 0016 00D0     		beq	.L56
 491:Generated_Source\PSoC5/CyFlash.c ****     {
 492:Generated_Source\PSoC5/CyFlash.c ****         status = CYRET_BAD_PARAM;
 519              		.loc 1 492 0
 520 0018 0125     		movs	r5, #1
 521              	.LVL51:
 522              	.L56:
 493:Generated_Source\PSoC5/CyFlash.c ****     }
 494:Generated_Source\PSoC5/CyFlash.c **** 
 495:Generated_Source\PSoC5/CyFlash.c ****     if((arrayId >= CY_SPC_FIRST_EE_ARRAYID) && (arrayId > (CY_FLASH_EEPROM_NUMBER_ARRAYS + CY_SPC_F
 523              		.loc 1 495 0
 524 001a 4128     		cmp	r0, #65
 525 001c 00D9     		bls	.L57
 496:Generated_Source\PSoC5/CyFlash.c ****     {
 497:Generated_Source\PSoC5/CyFlash.c ****         status = CYRET_BAD_PARAM;
 526              		.loc 1 497 0
 527 001e 0125     		movs	r5, #1
 528              	.LVL52:
 529              	.L57:
 498:Generated_Source\PSoC5/CyFlash.c ****     }
 499:Generated_Source\PSoC5/CyFlash.c **** 
 500:Generated_Source\PSoC5/CyFlash.c ****     if(arrayId <=  CY_SPC_LAST_FLASH_ARRAYID)
 530              		.loc 1 500 0
 531 0020 3F28     		cmp	r0, #63
 532 0022 03D8     		bhi	.L58
 501:Generated_Source\PSoC5/CyFlash.c ****     {
 502:Generated_Source\PSoC5/CyFlash.c ****         /* Flash */
 503:Generated_Source\PSoC5/CyFlash.c ****         if(rowNumber > (CY_FLASH_NUMBER_ROWS/CY_FLASH_NUMBER_ARRAYS))
 533              		.loc 1 503 0
 534 0024 B1F5807F 		cmp	r1, #256
 535 0028 06D8     		bhi	.L72
 536 002a 08E0     		b	.L59
 537              	.L58:
 504:Generated_Source\PSoC5/CyFlash.c ****         {
 505:Generated_Source\PSoC5/CyFlash.c ****             status = CYRET_BAD_PARAM;
 506:Generated_Source\PSoC5/CyFlash.c ****         }
ARM GAS  C:\Users\MANSRO~1\AppData\Local\Temp\ccOXBW92.s 			page 20


 507:Generated_Source\PSoC5/CyFlash.c ****     }
 508:Generated_Source\PSoC5/CyFlash.c ****     else
 509:Generated_Source\PSoC5/CyFlash.c ****     {
 510:Generated_Source\PSoC5/CyFlash.c ****         /* EEPROM */
 511:Generated_Source\PSoC5/CyFlash.c ****         if(rowNumber > (CY_EEPROM_NUMBER_ROWS/CY_FLASH_EEPROM_NUMBER_ARRAYS))
 538              		.loc 1 511 0
 539 002c 8029     		cmp	r1, #128
 540 002e 00D9     		bls	.L60
 512:Generated_Source\PSoC5/CyFlash.c ****         {
 513:Generated_Source\PSoC5/CyFlash.c ****             status = CYRET_BAD_PARAM;
 541              		.loc 1 513 0
 542 0030 0125     		movs	r5, #1
 543              	.LVL53:
 544              	.L60:
 514:Generated_Source\PSoC5/CyFlash.c ****         }
 515:Generated_Source\PSoC5/CyFlash.c **** 
 516:Generated_Source\PSoC5/CyFlash.c ****         if(CY_EEPROM_SIZEOF_ROW != rowSize)
 545              		.loc 1 516 0
 546 0032 102B     		cmp	r3, #16
 547 0034 02D1     		bne	.L74
 548 0036 02E0     		b	.L59
 549              	.L72:
 505:Generated_Source\PSoC5/CyFlash.c ****         }
 550              		.loc 1 505 0
 551 0038 0125     		movs	r5, #1
 552              	.LVL54:
 553 003a 00E0     		b	.L59
 554              	.LVL55:
 555              	.L74:
 517:Generated_Source\PSoC5/CyFlash.c ****         {
 518:Generated_Source\PSoC5/CyFlash.c ****             status = CYRET_BAD_PARAM;
 556              		.loc 1 518 0
 557 003c 0125     		movs	r5, #1
 558              	.LVL56:
 559              	.L59:
 519:Generated_Source\PSoC5/CyFlash.c ****         }
 520:Generated_Source\PSoC5/CyFlash.c ****     }
 521:Generated_Source\PSoC5/CyFlash.c **** 
 522:Generated_Source\PSoC5/CyFlash.c ****     if(rowData == NULL)
 560              		.loc 1 522 0
 561 003e 02B9     		cbnz	r2, .L61
 523:Generated_Source\PSoC5/CyFlash.c ****     {
 524:Generated_Source\PSoC5/CyFlash.c ****         status = CYRET_BAD_PARAM;
 562              		.loc 1 524 0
 563 0040 0125     		movs	r5, #1
 564              	.LVL57:
 565              	.L61:
 525:Generated_Source\PSoC5/CyFlash.c ****     }
 526:Generated_Source\PSoC5/CyFlash.c **** 
 527:Generated_Source\PSoC5/CyFlash.c **** 
 528:Generated_Source\PSoC5/CyFlash.c ****     if(status == CYRET_SUCCESS)
 566              		.loc 1 528 0
 567 0042 002D     		cmp	r5, #0
 568 0044 50D1     		bne	.L62
 569 0046 9846     		mov	r8, r3
 570 0048 1646     		mov	r6, r2
 571 004a 0F46     		mov	r7, r1
ARM GAS  C:\Users\MANSRO~1\AppData\Local\Temp\ccOXBW92.s 			page 21


 572 004c 0446     		mov	r4, r0
 529:Generated_Source\PSoC5/CyFlash.c ****     {
 530:Generated_Source\PSoC5/CyFlash.c ****         if(CySpcLock() == CYRET_SUCCESS)
 573              		.loc 1 530 0
 574 004e FFF7FEFF 		bl	CySpcLock
 575              	.LVL58:
 576 0052 0028     		cmp	r0, #0
 577 0054 47D1     		bne	.L76
 531:Generated_Source\PSoC5/CyFlash.c ****         {
 532:Generated_Source\PSoC5/CyFlash.c ****             /* Load row data into SPC internal latch */
 533:Generated_Source\PSoC5/CyFlash.c ****             status = CySpcLoadRowFull(arrayId, rowNumber, rowData, rowSize);
 578              		.loc 1 533 0
 579 0056 4346     		mov	r3, r8
 580 0058 3246     		mov	r2, r6
 581 005a 3946     		mov	r1, r7
 582 005c 2046     		mov	r0, r4
 583 005e FFF7FEFF 		bl	CySpcLoadRowFull
 584              	.LVL59:
 585 0062 0646     		mov	r6, r0
 586              	.LVL60:
 534:Generated_Source\PSoC5/CyFlash.c **** 
 535:Generated_Source\PSoC5/CyFlash.c ****             if(CYRET_STARTED == status)
 587              		.loc 1 535 0
 588 0064 0728     		cmp	r0, #7
 589 0066 3AD1     		bne	.L64
 590 0068 02E0     		b	.L63
 591              	.LVL61:
 592              	.L65:
 536:Generated_Source\PSoC5/CyFlash.c ****             {
 537:Generated_Source\PSoC5/CyFlash.c ****                 while(CY_SPC_BUSY)
 538:Generated_Source\PSoC5/CyFlash.c ****                 {
 539:Generated_Source\PSoC5/CyFlash.c ****                     /* Wait for SPC to finish and get SPC status */
 540:Generated_Source\PSoC5/CyFlash.c ****                     CyDelayUs(1u);
 593              		.loc 1 540 0
 594 006a 0120     		movs	r0, #1
 595 006c FFF7FEFF 		bl	CyDelayUs
 596              	.LVL62:
 597              	.L63:
 537:Generated_Source\PSoC5/CyFlash.c ****                 {
 598              		.loc 1 537 0
 599 0070 1F4B     		ldr	r3, .L81
 600 0072 1B78     		ldrb	r3, [r3]	@ zero_extendqisi2
 601 0074 13F0020F 		tst	r3, #2
 602 0078 F7D0     		beq	.L65
 541:Generated_Source\PSoC5/CyFlash.c ****                 }
 542:Generated_Source\PSoC5/CyFlash.c **** 
 543:Generated_Source\PSoC5/CyFlash.c ****                 /* Hide SPC status */
 544:Generated_Source\PSoC5/CyFlash.c ****                 if(CY_SPC_STATUS_SUCCESS == CY_SPC_READ_STATUS)
 603              		.loc 1 544 0
 604 007a 1D4B     		ldr	r3, .L81
 605 007c 1B78     		ldrb	r3, [r3]	@ zero_extendqisi2
 606 007e 13F0020F 		tst	r3, #2
 607 0082 06D0     		beq	.L77
 608              		.loc 1 544 0 is_stmt 0 discriminator 1
 609 0084 1A4B     		ldr	r3, .L81
 610 0086 1B78     		ldrb	r3, [r3]	@ zero_extendqisi2
 611 0088 9B08     		lsrs	r3, r3, #2
ARM GAS  C:\Users\MANSRO~1\AppData\Local\Temp\ccOXBW92.s 			page 22


 612 008a 05D0     		beq	.L78
 545:Generated_Source\PSoC5/CyFlash.c ****                 {
 546:Generated_Source\PSoC5/CyFlash.c ****                     status = CYRET_SUCCESS;
 547:Generated_Source\PSoC5/CyFlash.c ****                 }
 548:Generated_Source\PSoC5/CyFlash.c ****                 else
 549:Generated_Source\PSoC5/CyFlash.c ****                 {
 550:Generated_Source\PSoC5/CyFlash.c ****                     status = CYRET_UNKNOWN;
 613              		.loc 1 550 0 is_stmt 1
 614 008c 4FF0FF36 		mov	r6, #-1
 615              	.LVL63:
 616 0090 03E0     		b	.L66
 617              	.LVL64:
 618              	.L77:
 619 0092 4FF0FF36 		mov	r6, #-1
 620              	.LVL65:
 621 0096 00E0     		b	.L66
 622              	.LVL66:
 623              	.L78:
 546:Generated_Source\PSoC5/CyFlash.c ****                 }
 624              		.loc 1 546 0
 625 0098 2E46     		mov	r6, r5
 626              	.LVL67:
 627              	.L66:
 551:Generated_Source\PSoC5/CyFlash.c ****                 }
 552:Generated_Source\PSoC5/CyFlash.c **** 
 553:Generated_Source\PSoC5/CyFlash.c ****                 if(CYRET_SUCCESS == status)
 628              		.loc 1 553 0
 629 009a 06BB     		cbnz	r6, .L64
 554:Generated_Source\PSoC5/CyFlash.c ****                 {
 555:Generated_Source\PSoC5/CyFlash.c ****                     /* Erase and program flash with data from SPC interval latch */
 556:Generated_Source\PSoC5/CyFlash.c ****                     status = CySpcWriteRow(arrayId, rowNumber, dieTemperature[0u], dieTemperature[1
 630              		.loc 1 556 0
 631 009c 154A     		ldr	r2, .L81+4
 632 009e 5378     		ldrb	r3, [r2, #1]	@ zero_extendqisi2
 633 00a0 1278     		ldrb	r2, [r2]	@ zero_extendqisi2
 634 00a2 3946     		mov	r1, r7
 635 00a4 2046     		mov	r0, r4
 636 00a6 FFF7FEFF 		bl	CySpcWriteRow
 637              	.LVL68:
 557:Generated_Source\PSoC5/CyFlash.c **** 
 558:Generated_Source\PSoC5/CyFlash.c ****                     if(CYRET_STARTED == status)
 638              		.loc 1 558 0
 639 00aa 0728     		cmp	r0, #7
 640 00ac 04D0     		beq	.L67
 556:Generated_Source\PSoC5/CyFlash.c **** 
 641              		.loc 1 556 0
 642 00ae 0646     		mov	r6, r0
 643 00b0 15E0     		b	.L64
 644              	.LVL69:
 645              	.L68:
 559:Generated_Source\PSoC5/CyFlash.c ****                     {
 560:Generated_Source\PSoC5/CyFlash.c ****                         while(CY_SPC_BUSY)
 561:Generated_Source\PSoC5/CyFlash.c ****                         {
 562:Generated_Source\PSoC5/CyFlash.c ****                             /* Wait for SPC to finish and get SPC status */
 563:Generated_Source\PSoC5/CyFlash.c ****                             CyDelayUs(1u);
 646              		.loc 1 563 0
 647 00b2 0120     		movs	r0, #1
ARM GAS  C:\Users\MANSRO~1\AppData\Local\Temp\ccOXBW92.s 			page 23


 648 00b4 FFF7FEFF 		bl	CyDelayUs
 649              	.LVL70:
 650              	.L67:
 560:Generated_Source\PSoC5/CyFlash.c ****                         {
 651              		.loc 1 560 0
 652 00b8 0D4B     		ldr	r3, .L81
 653 00ba 1B78     		ldrb	r3, [r3]	@ zero_extendqisi2
 654 00bc 13F0020F 		tst	r3, #2
 655 00c0 F7D0     		beq	.L68
 564:Generated_Source\PSoC5/CyFlash.c ****                         }
 565:Generated_Source\PSoC5/CyFlash.c **** 
 566:Generated_Source\PSoC5/CyFlash.c ****                         /* Hide SPC status */
 567:Generated_Source\PSoC5/CyFlash.c ****                         if(CY_SPC_STATUS_SUCCESS == CY_SPC_READ_STATUS)
 656              		.loc 1 567 0
 657 00c2 0B4B     		ldr	r3, .L81
 658 00c4 1B78     		ldrb	r3, [r3]	@ zero_extendqisi2
 659 00c6 13F0020F 		tst	r3, #2
 660 00ca 06D0     		beq	.L79
 661              		.loc 1 567 0 is_stmt 0 discriminator 1
 662 00cc 084B     		ldr	r3, .L81
 663 00ce 1B78     		ldrb	r3, [r3]	@ zero_extendqisi2
 664 00d0 9B08     		lsrs	r3, r3, #2
 665 00d2 04D0     		beq	.L64
 568:Generated_Source\PSoC5/CyFlash.c ****                         {
 569:Generated_Source\PSoC5/CyFlash.c ****                             status = CYRET_SUCCESS;
 570:Generated_Source\PSoC5/CyFlash.c ****                         }
 571:Generated_Source\PSoC5/CyFlash.c ****                         else
 572:Generated_Source\PSoC5/CyFlash.c ****                         {
 573:Generated_Source\PSoC5/CyFlash.c ****                             status = CYRET_UNKNOWN;
 666              		.loc 1 573 0 is_stmt 1
 667 00d4 4FF0FF36 		mov	r6, #-1
 668 00d8 01E0     		b	.L64
 669              	.L79:
 670 00da 4FF0FF36 		mov	r6, #-1
 671              	.L64:
 672              	.LVL71:
 574:Generated_Source\PSoC5/CyFlash.c ****                         }
 575:Generated_Source\PSoC5/CyFlash.c ****                     }
 576:Generated_Source\PSoC5/CyFlash.c ****                 }
 577:Generated_Source\PSoC5/CyFlash.c ****             }
 578:Generated_Source\PSoC5/CyFlash.c ****             CySpcUnlock();
 673              		.loc 1 578 0
 674 00de FFF7FEFF 		bl	CySpcUnlock
 675              	.LVL72:
 676 00e2 3546     		mov	r5, r6
 677 00e4 00E0     		b	.L62
 678              	.LVL73:
 679              	.L76:
 579:Generated_Source\PSoC5/CyFlash.c ****         }   /* if(CySpcLock() == CYRET_SUCCESS) */
 580:Generated_Source\PSoC5/CyFlash.c ****         else
 581:Generated_Source\PSoC5/CyFlash.c ****         {
 582:Generated_Source\PSoC5/CyFlash.c ****             status = CYRET_LOCKED;
 680              		.loc 1 582 0
 681 00e6 0425     		movs	r5, #4
 682              	.LVL74:
 683              	.L62:
 583:Generated_Source\PSoC5/CyFlash.c ****         }
ARM GAS  C:\Users\MANSRO~1\AppData\Local\Temp\ccOXBW92.s 			page 24


 584:Generated_Source\PSoC5/CyFlash.c ****     }
 585:Generated_Source\PSoC5/CyFlash.c **** 
 586:Generated_Source\PSoC5/CyFlash.c ****     return(status);
 587:Generated_Source\PSoC5/CyFlash.c **** }
 684              		.loc 1 587 0
 685 00e8 2846     		mov	r0, r5
 686 00ea BDE8F081 		pop	{r4, r5, r6, r7, r8, pc}
 687              	.LVL75:
 688              	.L82:
 689 00ee 00BF     		.align	2
 690              	.L81:
 691 00f0 22470040 		.word	1073760034
 692 00f4 00000000 		.word	dieTemperature
 693              		.cfi_endproc
 694              	.LFE8:
 695              		.size	CyWriteRowFull, .-CyWriteRowFull
 696              		.section	.text.CyWriteRowData,"ax",%progbits
 697              		.align	2
 698              		.global	CyWriteRowData
 699              		.thumb
 700              		.thumb_func
 701              		.type	CyWriteRowData, %function
 702              	CyWriteRowData:
 703              	.LFB7:
 408:Generated_Source\PSoC5/CyFlash.c ****     uint16 rowSize;
 704              		.loc 1 408 0
 705              		.cfi_startproc
 706              		@ args = 0, pretend = 0, frame = 0
 707              		@ frame_needed = 0, uses_anonymous_args = 0
 708              	.LVL76:
 709 0000 08B5     		push	{r3, lr}
 710              		.cfi_def_cfa_offset 8
 711              		.cfi_offset 3, -8
 712              		.cfi_offset 14, -4
 412:Generated_Source\PSoC5/CyFlash.c ****     status = CyWriteRowFull(arrayId, rowAddress, rowData, rowSize);
 713              		.loc 1 412 0
 714 0002 3F28     		cmp	r0, #63
 715 0004 01D9     		bls	.L85
 716 0006 1023     		movs	r3, #16
 717 0008 01E0     		b	.L84
 718              	.L85:
 719 000a 4FF48073 		mov	r3, #256
 720              	.L84:
 721              	.LVL77:
 413:Generated_Source\PSoC5/CyFlash.c **** 
 722              		.loc 1 413 0 discriminator 4
 723 000e FFF7FEFF 		bl	CyWriteRowFull
 724              	.LVL78:
 416:Generated_Source\PSoC5/CyFlash.c **** 
 725              		.loc 1 416 0 discriminator 4
 726 0012 08BD     		pop	{r3, pc}
 727              		.cfi_endproc
 728              	.LFE7:
 729              		.size	CyWriteRowData, .-CyWriteRowData
 730              		.section	.text.CyFlash_SetWaitCycles,"ax",%progbits
 731              		.align	2
 732              		.global	CyFlash_SetWaitCycles
ARM GAS  C:\Users\MANSRO~1\AppData\Local\Temp\ccOXBW92.s 			page 25


 733              		.thumb
 734              		.thumb_func
 735              		.type	CyFlash_SetWaitCycles, %function
 736              	CyFlash_SetWaitCycles:
 737              	.LFB9:
 588:Generated_Source\PSoC5/CyFlash.c **** 
 589:Generated_Source\PSoC5/CyFlash.c **** 
 590:Generated_Source\PSoC5/CyFlash.c **** /*******************************************************************************
 591:Generated_Source\PSoC5/CyFlash.c **** * Function Name: CyFlash_SetWaitCycles
 592:Generated_Source\PSoC5/CyFlash.c **** ****************************************************************************//**
 593:Generated_Source\PSoC5/CyFlash.c **** *
 594:Generated_Source\PSoC5/CyFlash.c **** *  Sets the number of clock cycles the cache will wait before it samples data
 595:Generated_Source\PSoC5/CyFlash.c **** *  coming back from the Flash. This function must be called before increasing
 596:Generated_Source\PSoC5/CyFlash.c **** *  the CPU clock frequency. It can optionally be called after lowering the CPU
 597:Generated_Source\PSoC5/CyFlash.c **** *  clock frequency in order to improve the CPU performance.
 598:Generated_Source\PSoC5/CyFlash.c **** *
 599:Generated_Source\PSoC5/CyFlash.c **** *  \param uint8 freq:
 600:Generated_Source\PSoC5/CyFlash.c **** *   Frequency of operation in Megahertz.
 601:Generated_Source\PSoC5/CyFlash.c **** *
 602:Generated_Source\PSoC5/CyFlash.c **** *******************************************************************************/
 603:Generated_Source\PSoC5/CyFlash.c **** void CyFlash_SetWaitCycles(uint8 freq) 
 604:Generated_Source\PSoC5/CyFlash.c **** {
 738              		.loc 1 604 0
 739              		.cfi_startproc
 740              		@ args = 0, pretend = 0, frame = 0
 741              		@ frame_needed = 0, uses_anonymous_args = 0
 742              	.LVL79:
 743 0000 38B5     		push	{r3, r4, r5, lr}
 744              		.cfi_def_cfa_offset 16
 745              		.cfi_offset 3, -16
 746              		.cfi_offset 4, -12
 747              		.cfi_offset 5, -8
 748              		.cfi_offset 14, -4
 749 0002 0446     		mov	r4, r0
 605:Generated_Source\PSoC5/CyFlash.c ****     uint8 interruptState;
 606:Generated_Source\PSoC5/CyFlash.c **** 
 607:Generated_Source\PSoC5/CyFlash.c ****     /* Save current global interrupt enable and disable it */
 608:Generated_Source\PSoC5/CyFlash.c ****     interruptState = CyEnterCriticalSection();
 750              		.loc 1 608 0
 751 0004 FFF7FEFF 		bl	CyEnterCriticalSection
 752              	.LVL80:
 753 0008 0546     		mov	r5, r0
 754              	.LVL81:
 609:Generated_Source\PSoC5/CyFlash.c **** 
 610:Generated_Source\PSoC5/CyFlash.c ****     /***************************************************************************
 611:Generated_Source\PSoC5/CyFlash.c ****     * The number of clock cycles the cache will wait before it samples data
 612:Generated_Source\PSoC5/CyFlash.c ****     * coming back from the Flash must be equal or greater to to the CPU frequency
 613:Generated_Source\PSoC5/CyFlash.c ****     * outlined in clock cycles.
 614:Generated_Source\PSoC5/CyFlash.c ****     ***************************************************************************/
 615:Generated_Source\PSoC5/CyFlash.c **** 
 616:Generated_Source\PSoC5/CyFlash.c ****     if (freq < CY_FLASH_CACHE_WS_1_FREQ_MAX)
 755              		.loc 1 616 0
 756 000a 0F2C     		cmp	r4, #15
 757 000c 07D8     		bhi	.L88
 617:Generated_Source\PSoC5/CyFlash.c ****     {
 618:Generated_Source\PSoC5/CyFlash.c ****         CY_FLASH_CONTROL_REG = (CY_FLASH_CONTROL_REG & (uint8)(~CY_FLASH_CACHE_WS_VALUE_MASK)) |
 758              		.loc 1 618 0
ARM GAS  C:\Users\MANSRO~1\AppData\Local\Temp\ccOXBW92.s 			page 26


 759 000e 1A4A     		ldr	r2, .L95
 760 0010 1378     		ldrb	r3, [r2]	@ zero_extendqisi2
 761 0012 03F01F03 		and	r3, r3, #31
 762 0016 43F04003 		orr	r3, r3, #64
 763 001a 1370     		strb	r3, [r2]
 764 001c 28E0     		b	.L89
 765              	.L88:
 619:Generated_Source\PSoC5/CyFlash.c ****                                     CY_FLASH_CACHE_WS_1_VALUE_MASK;
 620:Generated_Source\PSoC5/CyFlash.c ****     }
 621:Generated_Source\PSoC5/CyFlash.c ****     else if (freq < CY_FLASH_CACHE_WS_2_FREQ_MAX)
 766              		.loc 1 621 0
 767 001e 202C     		cmp	r4, #32
 768 0020 07D8     		bhi	.L90
 622:Generated_Source\PSoC5/CyFlash.c ****     {
 623:Generated_Source\PSoC5/CyFlash.c ****         CY_FLASH_CONTROL_REG = (CY_FLASH_CONTROL_REG & (uint8)(~CY_FLASH_CACHE_WS_VALUE_MASK)) |
 769              		.loc 1 623 0
 770 0022 154A     		ldr	r2, .L95
 771 0024 1378     		ldrb	r3, [r2]	@ zero_extendqisi2
 772 0026 03F01F03 		and	r3, r3, #31
 773 002a 43F08003 		orr	r3, r3, #128
 774 002e 1370     		strb	r3, [r2]
 775 0030 1EE0     		b	.L89
 776              	.L90:
 624:Generated_Source\PSoC5/CyFlash.c ****                                     CY_FLASH_CACHE_WS_2_VALUE_MASK;
 625:Generated_Source\PSoC5/CyFlash.c ****     }
 626:Generated_Source\PSoC5/CyFlash.c ****     else if (freq < CY_FLASH_CACHE_WS_3_FREQ_MAX)
 777              		.loc 1 626 0
 778 0032 312C     		cmp	r4, #49
 779 0034 07D8     		bhi	.L91
 627:Generated_Source\PSoC5/CyFlash.c ****     {
 628:Generated_Source\PSoC5/CyFlash.c ****         CY_FLASH_CONTROL_REG = (CY_FLASH_CONTROL_REG & (uint8)(~CY_FLASH_CACHE_WS_VALUE_MASK)) |
 780              		.loc 1 628 0
 781 0036 104A     		ldr	r2, .L95
 782 0038 1378     		ldrb	r3, [r2]	@ zero_extendqisi2
 783 003a 03F01F03 		and	r3, r3, #31
 784 003e 43F0C003 		orr	r3, r3, #192
 785 0042 1370     		strb	r3, [r2]
 786 0044 14E0     		b	.L89
 787              	.L91:
 629:Generated_Source\PSoC5/CyFlash.c ****                                     CY_FLASH_CACHE_WS_3_VALUE_MASK;
 630:Generated_Source\PSoC5/CyFlash.c ****     }
 631:Generated_Source\PSoC5/CyFlash.c **** #if (CY_PSOC5)
 632:Generated_Source\PSoC5/CyFlash.c ****     else if (freq < CY_FLASH_CACHE_WS_4_FREQ_MAX)
 788              		.loc 1 632 0
 789 0046 422C     		cmp	r4, #66
 790 0048 05D8     		bhi	.L92
 633:Generated_Source\PSoC5/CyFlash.c ****     {
 634:Generated_Source\PSoC5/CyFlash.c ****         CY_FLASH_CONTROL_REG = (CY_FLASH_CONTROL_REG & (uint8)(~CY_FLASH_CACHE_WS_VALUE_MASK)) |
 791              		.loc 1 634 0
 792 004a 0B4A     		ldr	r2, .L95
 793 004c 1378     		ldrb	r3, [r2]	@ zero_extendqisi2
 794 004e 03F01F03 		and	r3, r3, #31
 795 0052 1370     		strb	r3, [r2]
 796 0054 0CE0     		b	.L89
 797              	.L92:
 635:Generated_Source\PSoC5/CyFlash.c ****                                     CY_FLASH_CACHE_WS_4_VALUE_MASK;
 636:Generated_Source\PSoC5/CyFlash.c ****     }
ARM GAS  C:\Users\MANSRO~1\AppData\Local\Temp\ccOXBW92.s 			page 27


 637:Generated_Source\PSoC5/CyFlash.c ****     else if (freq <= CY_FLASH_CACHE_WS_5_FREQ_MAX)
 798              		.loc 1 637 0
 799 0056 532C     		cmp	r4, #83
 800 0058 07D8     		bhi	.L93
 638:Generated_Source\PSoC5/CyFlash.c ****     {
 639:Generated_Source\PSoC5/CyFlash.c ****         CY_FLASH_CONTROL_REG = (CY_FLASH_CONTROL_REG & (uint8)(~CY_FLASH_CACHE_WS_VALUE_MASK)) |
 801              		.loc 1 639 0
 802 005a 074A     		ldr	r2, .L95
 803 005c 1378     		ldrb	r3, [r2]	@ zero_extendqisi2
 804 005e 03F01F03 		and	r3, r3, #31
 805 0062 43F02003 		orr	r3, r3, #32
 806 0066 1370     		strb	r3, [r2]
 807 0068 02E0     		b	.L89
 808              	.L93:
 640:Generated_Source\PSoC5/CyFlash.c ****                                     CY_FLASH_CACHE_WS_5_VALUE_MASK;
 641:Generated_Source\PSoC5/CyFlash.c ****     }
 642:Generated_Source\PSoC5/CyFlash.c **** #endif  /* (CY_PSOC5) */
 643:Generated_Source\PSoC5/CyFlash.c ****     else
 644:Generated_Source\PSoC5/CyFlash.c ****     {
 645:Generated_Source\PSoC5/CyFlash.c ****         /* Halt CPU in debug mode if frequency is invalid */
 646:Generated_Source\PSoC5/CyFlash.c ****         CYASSERT(0u != 0u);
 809              		.loc 1 646 0 discriminator 1
 810 006a 0020     		movs	r0, #0
 811 006c FFF7FEFF 		bl	CyHalt
 812              	.LVL82:
 813              	.L89:
 647:Generated_Source\PSoC5/CyFlash.c ****     }
 648:Generated_Source\PSoC5/CyFlash.c **** 
 649:Generated_Source\PSoC5/CyFlash.c ****     /* Restore global interrupt enable state */
 650:Generated_Source\PSoC5/CyFlash.c ****     CyExitCriticalSection(interruptState);
 814              		.loc 1 650 0
 815 0070 2846     		mov	r0, r5
 816 0072 FFF7FEFF 		bl	CyExitCriticalSection
 817              	.LVL83:
 818 0076 38BD     		pop	{r3, r4, r5, pc}
 819              	.LVL84:
 820              	.L96:
 821              		.align	2
 822              	.L95:
 823 0078 00480040 		.word	1073760256
 824              		.cfi_endproc
 825              	.LFE9:
 826              		.size	CyFlash_SetWaitCycles, .-CyFlash_SetWaitCycles
 827              		.section	.text.CyEEPROM_Start,"ax",%progbits
 828              		.align	2
 829              		.global	CyEEPROM_Start
 830              		.thumb
 831              		.thumb_func
 832              		.type	CyEEPROM_Start, %function
 833              	CyEEPROM_Start:
 834              	.LFB10:
 651:Generated_Source\PSoC5/CyFlash.c **** }
 652:Generated_Source\PSoC5/CyFlash.c **** 
 653:Generated_Source\PSoC5/CyFlash.c **** 
 654:Generated_Source\PSoC5/CyFlash.c **** /*******************************************************************************
 655:Generated_Source\PSoC5/CyFlash.c **** * Function Name: CyEEPROM_Start
 656:Generated_Source\PSoC5/CyFlash.c **** ****************************************************************************//**
ARM GAS  C:\Users\MANSRO~1\AppData\Local\Temp\ccOXBW92.s 			page 28


 657:Generated_Source\PSoC5/CyFlash.c **** *
 658:Generated_Source\PSoC5/CyFlash.c **** *  Enable the EEPROM.
 659:Generated_Source\PSoC5/CyFlash.c **** *
 660:Generated_Source\PSoC5/CyFlash.c **** *******************************************************************************/
 661:Generated_Source\PSoC5/CyFlash.c **** void CyEEPROM_Start(void) 
 662:Generated_Source\PSoC5/CyFlash.c **** {
 835              		.loc 1 662 0
 836              		.cfi_startproc
 837              		@ args = 0, pretend = 0, frame = 0
 838              		@ frame_needed = 0, uses_anonymous_args = 0
 839 0000 08B5     		push	{r3, lr}
 840              		.cfi_def_cfa_offset 8
 841              		.cfi_offset 3, -8
 842              		.cfi_offset 14, -4
 663:Generated_Source\PSoC5/CyFlash.c ****     uint8 interruptState;
 664:Generated_Source\PSoC5/CyFlash.c **** 
 665:Generated_Source\PSoC5/CyFlash.c ****     interruptState = CyEnterCriticalSection();
 843              		.loc 1 665 0
 844 0002 FFF7FEFF 		bl	CyEnterCriticalSection
 845              	.LVL85:
 666:Generated_Source\PSoC5/CyFlash.c **** 
 667:Generated_Source\PSoC5/CyFlash.c **** 
 668:Generated_Source\PSoC5/CyFlash.c ****     /***************************************************************************
 669:Generated_Source\PSoC5/CyFlash.c ****     * Enable SPC clock. This also internally enables the 36MHz IMO, since this
 670:Generated_Source\PSoC5/CyFlash.c ****     * is required for the SPC to function.
 671:Generated_Source\PSoC5/CyFlash.c ****     ***************************************************************************/
 672:Generated_Source\PSoC5/CyFlash.c ****     CY_FLASH_PM_ACT_CFG0_REG    |= CY_FLASH_PM_ACT_CFG0_EN_CLK_SPC;
 846              		.loc 1 672 0
 847 0006 0F4A     		ldr	r2, .L100
 848 0008 1378     		ldrb	r3, [r2]	@ zero_extendqisi2
 849 000a 43F00803 		orr	r3, r3, #8
 850 000e 1370     		strb	r3, [r2]
 673:Generated_Source\PSoC5/CyFlash.c ****     CY_FLASH_PM_ALTACT_CFG0_REG |= CY_FLASH_PM_ALTACT_CFG0_EN_CLK_SPC;
 851              		.loc 1 673 0
 852 0010 1032     		adds	r2, r2, #16
 853 0012 1378     		ldrb	r3, [r2]	@ zero_extendqisi2
 854 0014 43F00803 		orr	r3, r3, #8
 855 0018 1370     		strb	r3, [r2]
 674:Generated_Source\PSoC5/CyFlash.c **** 
 675:Generated_Source\PSoC5/CyFlash.c **** 
 676:Generated_Source\PSoC5/CyFlash.c ****     /***************************************************************************
 677:Generated_Source\PSoC5/CyFlash.c ****     * The wake count defines the number of Bus Clock cycles it takes for the
 678:Generated_Source\PSoC5/CyFlash.c ****     * flash or EEPROM to wake up from a low power mode independent of the chip
 679:Generated_Source\PSoC5/CyFlash.c ****     * power mode. Wake up time for these blocks is 5 us.
 680:Generated_Source\PSoC5/CyFlash.c ****     * The granularity of this register is 2 Bus Clock cycles, so a value of 0x1E
 681:Generated_Source\PSoC5/CyFlash.c ****     * (30d) defines the wake up time as 60 cycles of the Bus Clock.
 682:Generated_Source\PSoC5/CyFlash.c ****     * This register needs to be written with a value dependent on the Bus Clock
 683:Generated_Source\PSoC5/CyFlash.c ****     * frequency so that the duration of the cycles is equal to or greater than
 684:Generated_Source\PSoC5/CyFlash.c ****     * the 5 us delay required.
 685:Generated_Source\PSoC5/CyFlash.c ****     ***************************************************************************/
 686:Generated_Source\PSoC5/CyFlash.c ****     CY_FLASH_SPC_FM_EE_WAKE_CNT_REG = CY_FLASH_SPC_FM_EE_WAKE_CNT_80MHZ;
 856              		.loc 1 686 0
 857 001a C822     		movs	r2, #200
 858 001c 0A4B     		ldr	r3, .L100+4
 859 001e 1A70     		strb	r2, [r3]
 687:Generated_Source\PSoC5/CyFlash.c **** 
 688:Generated_Source\PSoC5/CyFlash.c **** 
ARM GAS  C:\Users\MANSRO~1\AppData\Local\Temp\ccOXBW92.s 			page 29


 689:Generated_Source\PSoC5/CyFlash.c ****     /***************************************************************************
 690:Generated_Source\PSoC5/CyFlash.c ****     * Enable EEPROM. Re-enabling an EEPROM macro takes 5us. During this time,
 691:Generated_Source\PSoC5/CyFlash.c ****     * the EE will not acknowledge a PHUB request.
 692:Generated_Source\PSoC5/CyFlash.c ****     ***************************************************************************/
 693:Generated_Source\PSoC5/CyFlash.c ****     CY_FLASH_PM_ACT_CFG12_REG    |= CY_FLASH_PM_ACT_CFG12_EN_EE;
 860              		.loc 1 693 0
 861 0020 0A4A     		ldr	r2, .L100+8
 862 0022 1378     		ldrb	r3, [r2]	@ zero_extendqisi2
 863 0024 43F01003 		orr	r3, r3, #16
 864 0028 1370     		strb	r3, [r2]
 694:Generated_Source\PSoC5/CyFlash.c ****     CY_FLASH_PM_ALTACT_CFG12_REG |= CY_FLASH_PM_ALTACT_CFG12_EN_EE;
 865              		.loc 1 694 0
 866 002a 1032     		adds	r2, r2, #16
 867 002c 1378     		ldrb	r3, [r2]	@ zero_extendqisi2
 868 002e 43F01003 		orr	r3, r3, #16
 869 0032 1370     		strb	r3, [r2]
 870              	.L98:
 695:Generated_Source\PSoC5/CyFlash.c **** 
 696:Generated_Source\PSoC5/CyFlash.c ****     while(0u == (CY_FLASH_SPC_FM_EE_CR_REG & CY_FLASH_EE_EE_AWAKE))
 871              		.loc 1 696 0 discriminator 1
 872 0034 064B     		ldr	r3, .L100+12
 873 0036 1B78     		ldrb	r3, [r3]	@ zero_extendqisi2
 874 0038 13F0200F 		tst	r3, #32
 875 003c FAD0     		beq	.L98
 697:Generated_Source\PSoC5/CyFlash.c ****     {
 698:Generated_Source\PSoC5/CyFlash.c ****         /* Non-zero status denotes that the EEPROM/Flash is awake & powered. */
 699:Generated_Source\PSoC5/CyFlash.c ****     }
 700:Generated_Source\PSoC5/CyFlash.c **** 
 701:Generated_Source\PSoC5/CyFlash.c ****     CyExitCriticalSection(interruptState);
 876              		.loc 1 701 0
 877 003e FFF7FEFF 		bl	CyExitCriticalSection
 878              	.LVL86:
 879 0042 08BD     		pop	{r3, pc}
 880              	.L101:
 881              		.align	2
 882              	.L100:
 883 0044 A0430040 		.word	1073759136
 884 0048 01470040 		.word	1073760001
 885 004c AC430040 		.word	1073759148
 886 0050 00470040 		.word	1073760000
 887              		.cfi_endproc
 888              	.LFE10:
 889              		.size	CyEEPROM_Start, .-CyEEPROM_Start
 890              		.section	.text.CyEEPROM_Stop,"ax",%progbits
 891              		.align	2
 892              		.global	CyEEPROM_Stop
 893              		.thumb
 894              		.thumb_func
 895              		.type	CyEEPROM_Stop, %function
 896              	CyEEPROM_Stop:
 897              	.LFB11:
 702:Generated_Source\PSoC5/CyFlash.c **** }
 703:Generated_Source\PSoC5/CyFlash.c **** 
 704:Generated_Source\PSoC5/CyFlash.c **** 
 705:Generated_Source\PSoC5/CyFlash.c **** /*******************************************************************************
 706:Generated_Source\PSoC5/CyFlash.c **** * Function Name: CyEEPROM_Stop
 707:Generated_Source\PSoC5/CyFlash.c **** ****************************************************************************//**
ARM GAS  C:\Users\MANSRO~1\AppData\Local\Temp\ccOXBW92.s 			page 30


 708:Generated_Source\PSoC5/CyFlash.c **** *
 709:Generated_Source\PSoC5/CyFlash.c **** *  Disable the EEPROM.
 710:Generated_Source\PSoC5/CyFlash.c **** *
 711:Generated_Source\PSoC5/CyFlash.c **** *******************************************************************************/
 712:Generated_Source\PSoC5/CyFlash.c **** void CyEEPROM_Stop (void) 
 713:Generated_Source\PSoC5/CyFlash.c **** {
 898              		.loc 1 713 0
 899              		.cfi_startproc
 900              		@ args = 0, pretend = 0, frame = 0
 901              		@ frame_needed = 0, uses_anonymous_args = 0
 902 0000 08B5     		push	{r3, lr}
 903              		.cfi_def_cfa_offset 8
 904              		.cfi_offset 3, -8
 905              		.cfi_offset 14, -4
 714:Generated_Source\PSoC5/CyFlash.c ****     uint8 interruptState;
 715:Generated_Source\PSoC5/CyFlash.c **** 
 716:Generated_Source\PSoC5/CyFlash.c ****     interruptState = CyEnterCriticalSection();
 906              		.loc 1 716 0
 907 0002 FFF7FEFF 		bl	CyEnterCriticalSection
 908              	.LVL87:
 717:Generated_Source\PSoC5/CyFlash.c **** 
 718:Generated_Source\PSoC5/CyFlash.c ****     CY_FLASH_PM_ACT_CFG12_REG    &= ((uint8)(~CY_FLASH_PM_ACT_CFG12_EN_EE));
 909              		.loc 1 718 0
 910 0006 064A     		ldr	r2, .L104
 911 0008 1378     		ldrb	r3, [r2]	@ zero_extendqisi2
 912 000a 03F0EF03 		and	r3, r3, #239
 913 000e 1370     		strb	r3, [r2]
 719:Generated_Source\PSoC5/CyFlash.c ****     CY_FLASH_PM_ALTACT_CFG12_REG &= ((uint8)(~CY_FLASH_PM_ALTACT_CFG12_EN_EE));
 914              		.loc 1 719 0
 915 0010 1032     		adds	r2, r2, #16
 916 0012 1378     		ldrb	r3, [r2]	@ zero_extendqisi2
 917 0014 03F0EF03 		and	r3, r3, #239
 918 0018 1370     		strb	r3, [r2]
 720:Generated_Source\PSoC5/CyFlash.c **** 
 721:Generated_Source\PSoC5/CyFlash.c ****     CyExitCriticalSection(interruptState);
 919              		.loc 1 721 0
 920 001a FFF7FEFF 		bl	CyExitCriticalSection
 921              	.LVL88:
 922 001e 08BD     		pop	{r3, pc}
 923              	.L105:
 924              		.align	2
 925              	.L104:
 926 0020 AC430040 		.word	1073759148
 927              		.cfi_endproc
 928              	.LFE11:
 929              		.size	CyEEPROM_Stop, .-CyEEPROM_Stop
 930              		.section	.text.CyEEPROM_ReadReserve,"ax",%progbits
 931              		.align	2
 932              		.global	CyEEPROM_ReadReserve
 933              		.thumb
 934              		.thumb_func
 935              		.type	CyEEPROM_ReadReserve, %function
 936              	CyEEPROM_ReadReserve:
 937              	.LFB12:
 722:Generated_Source\PSoC5/CyFlash.c **** }
 723:Generated_Source\PSoC5/CyFlash.c **** 
 724:Generated_Source\PSoC5/CyFlash.c **** 
ARM GAS  C:\Users\MANSRO~1\AppData\Local\Temp\ccOXBW92.s 			page 31


 725:Generated_Source\PSoC5/CyFlash.c **** /*******************************************************************************
 726:Generated_Source\PSoC5/CyFlash.c **** * Function Name: CyEEPROM_ReadReserve
 727:Generated_Source\PSoC5/CyFlash.c **** ****************************************************************************//**
 728:Generated_Source\PSoC5/CyFlash.c **** *
 729:Generated_Source\PSoC5/CyFlash.c **** *  Request access to the EEPROM for reading and wait until access is available.
 730:Generated_Source\PSoC5/CyFlash.c **** *
 731:Generated_Source\PSoC5/CyFlash.c **** *******************************************************************************/
 732:Generated_Source\PSoC5/CyFlash.c **** void CyEEPROM_ReadReserve(void) 
 733:Generated_Source\PSoC5/CyFlash.c **** {
 938              		.loc 1 733 0
 939              		.cfi_startproc
 940              		@ args = 0, pretend = 0, frame = 0
 941              		@ frame_needed = 0, uses_anonymous_args = 0
 942              		@ link register save eliminated.
 734:Generated_Source\PSoC5/CyFlash.c ****     /* Make request for PHUB to have access */
 735:Generated_Source\PSoC5/CyFlash.c ****     CY_FLASH_EE_SCR_REG |= CY_FLASH_EE_SCR_AHB_EE_REQ;
 943              		.loc 1 735 0
 944 0000 054A     		ldr	r2, .L108
 945 0002 1378     		ldrb	r3, [r2]	@ zero_extendqisi2
 946 0004 43F00103 		orr	r3, r3, #1
 947 0008 1370     		strb	r3, [r2]
 948              	.L107:
 736:Generated_Source\PSoC5/CyFlash.c **** 
 737:Generated_Source\PSoC5/CyFlash.c ****     while (0u == (CY_FLASH_EE_SCR_REG & CY_FLASH_EE_SCR_AHB_EE_ACK))
 949              		.loc 1 737 0 discriminator 1
 950 000a 034B     		ldr	r3, .L108
 951 000c 1B78     		ldrb	r3, [r3]	@ zero_extendqisi2
 952 000e 13F0020F 		tst	r3, #2
 953 0012 FAD0     		beq	.L107
 738:Generated_Source\PSoC5/CyFlash.c ****     {
 739:Generated_Source\PSoC5/CyFlash.c ****         /* Wait for acknowledgment from PHUB */
 740:Generated_Source\PSoC5/CyFlash.c ****     }
 741:Generated_Source\PSoC5/CyFlash.c **** }
 954              		.loc 1 741 0
 955 0014 7047     		bx	lr
 956              	.L109:
 957 0016 00BF     		.align	2
 958              	.L108:
 959 0018 02470040 		.word	1073760002
 960              		.cfi_endproc
 961              	.LFE12:
 962              		.size	CyEEPROM_ReadReserve, .-CyEEPROM_ReadReserve
 963              		.section	.text.CyEEPROM_ReadRelease,"ax",%progbits
 964              		.align	2
 965              		.global	CyEEPROM_ReadRelease
 966              		.thumb
 967              		.thumb_func
 968              		.type	CyEEPROM_ReadRelease, %function
 969              	CyEEPROM_ReadRelease:
 970              	.LFB13:
 742:Generated_Source\PSoC5/CyFlash.c **** 
 743:Generated_Source\PSoC5/CyFlash.c **** 
 744:Generated_Source\PSoC5/CyFlash.c **** /*******************************************************************************
 745:Generated_Source\PSoC5/CyFlash.c **** * Function Name: CyEEPROM_ReadRelease
 746:Generated_Source\PSoC5/CyFlash.c **** ****************************************************************************//**
 747:Generated_Source\PSoC5/CyFlash.c **** *
 748:Generated_Source\PSoC5/CyFlash.c **** *  Release the read reservation of the EEPROM.
ARM GAS  C:\Users\MANSRO~1\AppData\Local\Temp\ccOXBW92.s 			page 32


 749:Generated_Source\PSoC5/CyFlash.c **** *
 750:Generated_Source\PSoC5/CyFlash.c **** *******************************************************************************/
 751:Generated_Source\PSoC5/CyFlash.c **** void CyEEPROM_ReadRelease(void) 
 752:Generated_Source\PSoC5/CyFlash.c **** {
 971              		.loc 1 752 0
 972              		.cfi_startproc
 973              		@ args = 0, pretend = 0, frame = 0
 974              		@ frame_needed = 0, uses_anonymous_args = 0
 975              		@ link register save eliminated.
 753:Generated_Source\PSoC5/CyFlash.c ****     CY_FLASH_EE_SCR_REG &= (uint8)(~CY_FLASH_EE_SCR_AHB_EE_REQ);
 976              		.loc 1 753 0
 977 0000 024A     		ldr	r2, .L111
 978 0002 1378     		ldrb	r3, [r2]	@ zero_extendqisi2
 979 0004 03F0FE03 		and	r3, r3, #254
 980 0008 1370     		strb	r3, [r2]
 981 000a 7047     		bx	lr
 982              	.L112:
 983              		.align	2
 984              	.L111:
 985 000c 02470040 		.word	1073760002
 986              		.cfi_endproc
 987              	.LFE13:
 988              		.size	CyEEPROM_ReadRelease, .-CyEEPROM_ReadRelease
 989              		.comm	dieTemperature,2,4
 990              		.text
 991              	.Letext0:
 992              		.file 2 "Generated_Source\\PSoC5\\cytypes.h"
 993              		.file 3 "Generated_Source\\PSoC5\\CySpc.h"
 994              		.file 4 "Generated_Source\\PSoC5\\CyLib.h"
