ARM GAS  C:\Users\MANSRO~1\AppData\Local\Temp\ccvBroNv.s 			page 1


   1              		.syntax unified
   2              		.cpu cortex-m3
   3              		.fpu softvfp
   4              		.eabi_attribute 20, 1
   5              		.eabi_attribute 21, 1
   6              		.eabi_attribute 23, 3
   7              		.eabi_attribute 24, 1
   8              		.eabi_attribute 25, 1
   9              		.eabi_attribute 26, 1
  10              		.eabi_attribute 30, 1
  11              		.eabi_attribute 34, 1
  12              		.eabi_attribute 18, 4
  13              		.thumb
  14              		.syntax unified
  15              		.file	"sensors.c"
  16              		.text
  17              	.Ltext0:
  18              		.cfi_sections	.debug_frame
  19              		.section	.text.cmpfunc,"ax",%progbits
  20              		.align	2
  21              		.global	cmpfunc
  22              		.thumb
  23              		.thumb_func
  24              		.type	cmpfunc, %function
  25              	cmpfunc:
  26              	.LFB4:
  27              		.file 1 "sensors.c"
   1:sensors.c     **** /* ========================================
   2:sensors.c     ****  *
   3:sensors.c     ****  * Copyright YOUR COMPANY, THE YEAR
   4:sensors.c     ****  * All Rights Reserved
   5:sensors.c     ****  * UNPUBLISHED, LICENSED SOFTWARE.
   6:sensors.c     ****  *
   7:sensors.c     ****  * CONFIDENTIAL AND PROPRIETARY INFORMATION
   8:sensors.c     ****  * WHICH IS THE PROPERTY OF your company.
   9:sensors.c     ****  *
  10:sensors.c     ****  * ========================================
  11:sensors.c     **** */
  12:sensors.c     **** #include "project.h"
  13:sensors.c     **** #include <stdlib.h>
  14:sensors.c     **** #include "stdio.h"
  15:sensors.c     **** #include "sensors.h"
  16:sensors.c     **** #include "console.h"
  17:sensors.c     **** #include "timer_time.h"
  18:sensors.c     **** #include "bt_app.h"
  19:sensors.c     **** #include "log2.h"
  20:sensors.c     **** 
  21:sensors.c     **** 
  22:sensors.c     **** #define DETECT_VALUE 400
  23:sensors.c     **** int lastValue = 0;
  24:sensors.c     **** 
  25:sensors.c     **** void UART_BT_PutInt(int number){
  26:sensors.c     ****     char text[3];
  27:sensors.c     ****     itoa(number, text, 10); 
  28:sensors.c     ****     UART_BT_PutString(text);
  29:sensors.c     **** }
  30:sensors.c     **** 
ARM GAS  C:\Users\MANSRO~1\AppData\Local\Temp\ccvBroNv.s 			page 2


  31:sensors.c     **** 
  32:sensors.c     **** void readSensors()
  33:sensors.c     **** {
  34:sensors.c     ****     
  35:sensors.c     ****     for (int i = 0; i <= 15; i++)
  36:sensors.c     ****     {
  37:sensors.c     ****         gSensors.readValue[i] = (ADC_SAR_GetResult16(i));
  38:sensors.c     ****     }
  39:sensors.c     **** }
  40:sensors.c     **** 
  41:sensors.c     **** int checkSensors(int time, int count)
  42:sensors.c     **** {
  43:sensors.c     ****     int on_line = 0;
  44:sensors.c     ****     int sensorDetected = 0;
  45:sensors.c     ****     int sensorReadSum[16] = {0,0,0,0,0,0,0,0,0,0,0,0,0,0,0,0};
  46:sensors.c     ****     //readSensors();
  47:sensors.c     ****     
  48:sensors.c     ****     int delayTime = time / count ;
  49:sensors.c     ****     
  50:sensors.c     ****     for(int j = 0; j <= count-1; j++)
  51:sensors.c     ****     {
  52:sensors.c     ****         readSensors();
  53:sensors.c     ****         for (int i = 0; i <= 15; i++)
  54:sensors.c     ****         {    
  55:sensors.c     ****             gSensors.readValuebuffer[j][i] = gSensors.readValue[i];     
  56:sensors.c     ****         }
  57:sensors.c     ****         CyDelayUs(delayTime);
  58:sensors.c     ****         /*log_debug("SensorsRAW: %d %d %d %d %d %d %d %d %d %d %d %d %d %d %d %d ", gSensors.readVa
  59:sensors.c     ****     gSensors.readValue[12],gSensors.readValue[11],gSensors.readValue[10],gSensors.readValue[9],gSen
  60:sensors.c     ****     gSensors.readValue[6],gSensors.readValue[5],gSensors.readValue[4],gSensors.readValue[3],gSensor
  61:sensors.c     ****     gSensors.readValue[0]);
  62:sensors.c     ****     
  63:sensors.c     ****         */
  64:sensors.c     ****     }
  65:sensors.c     ****     for(int i = 0; i <= 15; i++)
  66:sensors.c     ****     {
  67:sensors.c     ****         for (int j = 0; j <= count-1; j++)
  68:sensors.c     ****         {    
  69:sensors.c     ****             sensorReadSum[i] += gSensors.readValuebuffer[j][i];   
  70:sensors.c     ****         }
  71:sensors.c     ****     }
  72:sensors.c     ****     
  73:sensors.c     ****     for (int i = 0; i <= 15; i++)
  74:sensors.c     ****     {    
  75:sensors.c     ****         gSensors.calculatedValue[i] = sensorReadSum[i] / count; 
  76:sensors.c     ****         
  77:sensors.c     ****     }
  78:sensors.c     ****     
  79:sensors.c     ****     log_debug("SensorsRAWCalc: %d %d %d %d %d %d %d %d %d %d %d %d %d %d %d %d ", gSensors.calculat
  80:sensors.c     ****     gSensors.calculatedValue[12],gSensors.calculatedValue[11],gSensors.calculatedValue[10],gSensors
  81:sensors.c     ****     gSensors.calculatedValue[6],gSensors.calculatedValue[5],gSensors.calculatedValue[4],gSensors.ca
  82:sensors.c     ****     gSensors.calculatedValue[0]);
  83:sensors.c     ****     
  84:sensors.c     ****     
  85:sensors.c     ****     
  86:sensors.c     ****     
  87:sensors.c     ****     
ARM GAS  C:\Users\MANSRO~1\AppData\Local\Temp\ccvBroNv.s 			page 3


  88:sensors.c     ****     
  89:sensors.c     ****     for (int i = 0; i <= 15; i++)
  90:sensors.c     ****     {      
  91:sensors.c     ****         int check = gSensors.calculatedValue[i];
  92:sensors.c     ****         
  93:sensors.c     ****         if (check >= DETECT_VALUE)
  94:sensors.c     ****         {
  95:sensors.c     ****             gSensors.detectedSensors[i] = 1;
  96:sensors.c     ****             on_line = 1;
  97:sensors.c     ****             sensorDetected += 1;
  98:sensors.c     ****         }
  99:sensors.c     ****         else
 100:sensors.c     ****         {
 101:sensors.c     ****             gSensors.detectedSensors[i] = 0;
 102:sensors.c     ****         }
 103:sensors.c     ****            
 104:sensors.c     ****     }
 105:sensors.c     ****     
 106:sensors.c     ****     log_debug("Sensors: %d %d %d %d %d %d %d %d %d %d %d %d %d %d %d %d ", gSensors.detectedSensors
 107:sensors.c     ****     gSensors.detectedSensors[12],gSensors.detectedSensors[11],gSensors.detectedSensors[10],gSensors
 108:sensors.c     ****     gSensors.detectedSensors[6],gSensors.detectedSensors[5],gSensors.detectedSensors[4],gSensors.de
 109:sensors.c     ****     gSensors.detectedSensors[0]);
 110:sensors.c     ****     
 111:sensors.c     ****     if (on_line)
 112:sensors.c     ****     {
 113:sensors.c     ****         if (sensorDetected == 1 && gSensors.detectedSensors[0] == 0 && gSensors.detectedSensors[15]
 114:sensors.c     ****         {
 115:sensors.c     ****             log_info("NO LINE");
 116:sensors.c     ****             return lastValue;
 117:sensors.c     ****             log_error("NO LINE NOT WORKING");
 118:sensors.c     ****         }
 119:sensors.c     ****     }
 120:sensors.c     ****     
 121:sensors.c     ****     
 122:sensors.c     ****     //if (sensorDetected >= 14) { btComands.driving = 0;}
 123:sensors.c     ****     
 124:sensors.c     ****     
 125:sensors.c     ****     
 126:sensors.c     ****     if(!on_line)
 127:sensors.c     ****     {
 128:sensors.c     ****         // If it last read to the left of center, return 0.
 129:sensors.c     ****         if(lastValue < (16-1)*1000/2)  //(16-1) *1000/2 = 15000/2 = 7500
 130:sensors.c     ****         // if (lastValue <= 1000)
 131:sensors.c     ****             return 0;
 132:sensors.c     **** 
 133:sensors.c     ****         // If it last read to the right of center, return the max.
 134:sensors.c     ****         else
 135:sensors.c     ****         //else if (lastValue >= 14000)
 136:sensors.c     ****             return (16-1)*1000;
 137:sensors.c     ****         //else
 138:sensors.c     ****             //return lastValue;
 139:sensors.c     **** 
 140:sensors.c     ****     }
 141:sensors.c     ****     
 142:sensors.c     ****     int32_t dalamais = 0;
 143:sensors.c     ****     int32_t dalitajs = 0;
 144:sensors.c     ****     
ARM GAS  C:\Users\MANSRO~1\AppData\Local\Temp\ccvBroNv.s 			page 4


 145:sensors.c     ****     for (int i= 0; i < 16; i++)
 146:sensors.c     ****     {
 147:sensors.c     ****         dalamais += i*1000*gSensors.detectedSensors[i];    
 148:sensors.c     ****     }
 149:sensors.c     ****     
 150:sensors.c     ****     for (int i= 0; i < 16; i++)
 151:sensors.c     ****     {
 152:sensors.c     ****         dalitajs += gSensors.detectedSensors[i];    
 153:sensors.c     ****     }
 154:sensors.c     ****     lastValue = (int)(dalamais/dalitajs);
 155:sensors.c     ****     return lastValue;
 156:sensors.c     ****     
 157:sensors.c     **** }
 158:sensors.c     **** 
 159:sensors.c     **** int cmpfunc (const void * a, const void * b) 
 160:sensors.c     ****         {
  28              		.loc 1 160 0
  29              		.cfi_startproc
  30              		@ args = 0, pretend = 0, frame = 0
  31              		@ frame_needed = 0, uses_anonymous_args = 0
  32              		@ link register save eliminated.
  33              	.LVL0:
 161:sensors.c     ****             return ( *(int*)a - *(int*)b );
  34              		.loc 1 161 0
  35 0000 0068     		ldr	r0, [r0]
  36              	.LVL1:
  37 0002 0B68     		ldr	r3, [r1]
 162:sensors.c     ****         }
  38              		.loc 1 162 0
  39 0004 C01A     		subs	r0, r0, r3
  40 0006 7047     		bx	lr
  41              		.cfi_endproc
  42              	.LFE4:
  43              		.size	cmpfunc, .-cmpfunc
  44              		.section	.text.UART_BT_PutInt,"ax",%progbits
  45              		.align	2
  46              		.global	UART_BT_PutInt
  47              		.thumb
  48              		.thumb_func
  49              		.type	UART_BT_PutInt, %function
  50              	UART_BT_PutInt:
  51              	.LFB1:
  25:sensors.c     ****     char text[3];
  52              		.loc 1 25 0
  53              		.cfi_startproc
  54              		@ args = 0, pretend = 0, frame = 8
  55              		@ frame_needed = 0, uses_anonymous_args = 0
  56              	.LVL2:
  57 0000 00B5     		push	{lr}
  58              		.cfi_def_cfa_offset 4
  59              		.cfi_offset 14, -4
  60 0002 83B0     		sub	sp, sp, #12
  61              		.cfi_def_cfa_offset 16
  27:sensors.c     ****     UART_BT_PutString(text);
  62              		.loc 1 27 0
  63 0004 0A22     		movs	r2, #10
  64 0006 01A9     		add	r1, sp, #4
ARM GAS  C:\Users\MANSRO~1\AppData\Local\Temp\ccvBroNv.s 			page 5


  65 0008 FFF7FEFF 		bl	itoa
  66              	.LVL3:
  28:sensors.c     **** }
  67              		.loc 1 28 0
  68 000c 01A8     		add	r0, sp, #4
  69 000e FFF7FEFF 		bl	UART_BT_PutString
  70              	.LVL4:
  29:sensors.c     **** 
  71              		.loc 1 29 0
  72 0012 03B0     		add	sp, sp, #12
  73              		.cfi_def_cfa_offset 4
  74              		@ sp needed
  75 0014 5DF804FB 		ldr	pc, [sp], #4
  76              		.cfi_endproc
  77              	.LFE1:
  78              		.size	UART_BT_PutInt, .-UART_BT_PutInt
  79              		.section	.text.readSensors,"ax",%progbits
  80              		.align	2
  81              		.global	readSensors
  82              		.thumb
  83              		.thumb_func
  84              		.type	readSensors, %function
  85              	readSensors:
  86              	.LFB2:
  33:sensors.c     ****     
  87              		.loc 1 33 0
  88              		.cfi_startproc
  89              		@ args = 0, pretend = 0, frame = 0
  90              		@ frame_needed = 0, uses_anonymous_args = 0
  91 0000 10B5     		push	{r4, lr}
  92              		.cfi_def_cfa_offset 8
  93              		.cfi_offset 4, -8
  94              		.cfi_offset 14, -4
  95              	.LVL5:
  96              	.LBB2:
  35:sensors.c     ****     {
  97              		.loc 1 35 0
  98 0002 0024     		movs	r4, #0
  99 0004 06E0     		b	.L5
 100              	.LVL6:
 101              	.L6:
  37:sensors.c     ****     }
 102              		.loc 1 37 0 discriminator 3
 103 0006 A0B2     		uxth	r0, r4
 104 0008 FFF7FEFF 		bl	ADC_SAR_GetResult16
 105              	.LVL7:
 106 000c 034B     		ldr	r3, .L8
 107 000e 43F82400 		str	r0, [r3, r4, lsl #2]
  35:sensors.c     ****     {
 108              		.loc 1 35 0 discriminator 3
 109 0012 0134     		adds	r4, r4, #1
 110              	.LVL8:
 111              	.L5:
  35:sensors.c     ****     {
 112              		.loc 1 35 0 is_stmt 0 discriminator 1
 113 0014 0F2C     		cmp	r4, #15
 114 0016 F6DD     		ble	.L6
ARM GAS  C:\Users\MANSRO~1\AppData\Local\Temp\ccvBroNv.s 			page 6


 115              	.LBE2:
  39:sensors.c     **** 
 116              		.loc 1 39 0 is_stmt 1
 117 0018 10BD     		pop	{r4, pc}
 118              	.LVL9:
 119              	.L9:
 120 001a 00BF     		.align	2
 121              	.L8:
 122 001c 00000000 		.word	gSensors
 123              		.cfi_endproc
 124              	.LFE2:
 125              		.size	readSensors, .-readSensors
 126              		.section	.text.checkSensors,"ax",%progbits
 127              		.align	2
 128              		.global	checkSensors
 129              		.thumb
 130              		.thumb_func
 131              		.type	checkSensors, %function
 132              	checkSensors:
 133              	.LFB3:
  42:sensors.c     ****     int on_line = 0;
 134              		.loc 1 42 0
 135              		.cfi_startproc
 136              		@ args = 0, pretend = 0, frame = 64
 137              		@ frame_needed = 0, uses_anonymous_args = 0
 138              	.LVL10:
 139 0000 F0B5     		push	{r4, r5, r6, r7, lr}
 140              		.cfi_def_cfa_offset 20
 141              		.cfi_offset 4, -20
 142              		.cfi_offset 5, -16
 143              		.cfi_offset 6, -12
 144              		.cfi_offset 7, -8
 145              		.cfi_offset 14, -4
 146 0002 9FB0     		sub	sp, sp, #124
 147              		.cfi_def_cfa_offset 144
 148 0004 0746     		mov	r7, r0
 149 0006 0C46     		mov	r4, r1
 150              	.LVL11:
  45:sensors.c     ****     //readSensors();
 151              		.loc 1 45 0
 152 0008 4022     		movs	r2, #64
 153 000a 0021     		movs	r1, #0
 154              	.LVL12:
 155 000c 0EA8     		add	r0, sp, #56
 156              	.LVL13:
 157 000e FFF7FEFF 		bl	memset
 158              	.LVL14:
  48:sensors.c     ****     
 159              		.loc 1 48 0
 160 0012 97FBF4F7 		sdiv	r7, r7, r4
 161              	.LVL15:
 162              	.LBB3:
  50:sensors.c     ****     {
 163              		.loc 1 50 0
 164 0016 0025     		movs	r5, #0
 165 0018 12E0     		b	.L11
 166              	.LVL16:
ARM GAS  C:\Users\MANSRO~1\AppData\Local\Temp\ccvBroNv.s 			page 7


 167              	.L14:
  52:sensors.c     ****         for (int i = 0; i <= 15; i++)
 168              		.loc 1 52 0
 169 001a FFF7FEFF 		bl	readSensors
 170              	.LVL17:
 171              	.LBB4:
  53:sensors.c     ****         {    
 172              		.loc 1 53 0
 173 001e 0023     		movs	r3, #0
 174 0020 08E0     		b	.L12
 175              	.LVL18:
 176              	.L13:
  55:sensors.c     ****         }
 177              		.loc 1 55 0 discriminator 3
 178 0022 7749     		ldr	r1, .L34
 179 0024 51F82300 		ldr	r0, [r1, r3, lsl #2]
 180 0028 03EB0512 		add	r2, r3, r5, lsl #4
 181 002c 4032     		adds	r2, r2, #64
 182 002e 41F82200 		str	r0, [r1, r2, lsl #2]
  53:sensors.c     ****         {    
 183              		.loc 1 53 0 discriminator 3
 184 0032 0133     		adds	r3, r3, #1
 185              	.LVL19:
 186              	.L12:
  53:sensors.c     ****         {    
 187              		.loc 1 53 0 is_stmt 0 discriminator 1
 188 0034 0F2B     		cmp	r3, #15
 189 0036 F4DD     		ble	.L13
 190              	.LBE4:
  57:sensors.c     ****         /*log_debug("SensorsRAW: %d %d %d %d %d %d %d %d %d %d %d %d %d %d %d %d ", gSensors.readVa
 191              		.loc 1 57 0 is_stmt 1 discriminator 2
 192 0038 B8B2     		uxth	r0, r7
 193 003a FFF7FEFF 		bl	CyDelayUs
 194              	.LVL20:
  50:sensors.c     ****     {
 195              		.loc 1 50 0 discriminator 2
 196 003e 0135     		adds	r5, r5, #1
 197              	.LVL21:
 198              	.L11:
  50:sensors.c     ****     {
 199              		.loc 1 50 0 is_stmt 0 discriminator 1
 200 0040 661E     		subs	r6, r4, #1
 201 0042 B542     		cmp	r5, r6
 202 0044 E9DD     		ble	.L14
 203 0046 0020     		movs	r0, #0
 204 0048 13E0     		b	.L15
 205              	.LVL22:
 206              	.L16:
 207              	.LBE3:
 208              	.LBB5:
 209              	.LBB6:
  69:sensors.c     ****         }
 210              		.loc 1 69 0 is_stmt 1 discriminator 3
 211 004a 00EB0312 		add	r2, r0, r3, lsl #4
 212 004e 4032     		adds	r2, r2, #64
 213 0050 6B49     		ldr	r1, .L34
 214 0052 51F82220 		ldr	r2, [r1, r2, lsl #2]
ARM GAS  C:\Users\MANSRO~1\AppData\Local\Temp\ccvBroNv.s 			page 8


 215 0056 1EA9     		add	r1, sp, #120
 216 0058 01EB8001 		add	r1, r1, r0, lsl #2
 217 005c 51F8405C 		ldr	r5, [r1, #-64]
 218 0060 2A44     		add	r2, r2, r5
 219 0062 41F8402C 		str	r2, [r1, #-64]
  67:sensors.c     ****         {    
 220              		.loc 1 67 0 discriminator 3
 221 0066 0133     		adds	r3, r3, #1
 222              	.LVL23:
 223 0068 00E0     		b	.L17
 224              	.LVL24:
 225              	.L30:
 226              	.LBE6:
 227 006a 0023     		movs	r3, #0
 228              	.L17:
 229              	.LVL25:
 230              	.LBB7:
  67:sensors.c     ****         {    
 231              		.loc 1 67 0 is_stmt 0 discriminator 1
 232 006c B342     		cmp	r3, r6
 233 006e ECDD     		ble	.L16
 234              	.LBE7:
  65:sensors.c     ****     {
 235              		.loc 1 65 0 is_stmt 1 discriminator 2
 236 0070 0130     		adds	r0, r0, #1
 237              	.LVL26:
 238              	.L15:
  65:sensors.c     ****     {
 239              		.loc 1 65 0 is_stmt 0 discriminator 1
 240 0072 0F28     		cmp	r0, #15
 241 0074 F9DD     		ble	.L30
 242 0076 0023     		movs	r3, #0
 243 0078 0CE0     		b	.L18
 244              	.LVL27:
 245              	.L19:
 246              	.LBE5:
 247              	.LBB8:
  75:sensors.c     ****         
 248              		.loc 1 75 0 is_stmt 1 discriminator 3
 249 007a 1EAA     		add	r2, sp, #120
 250 007c 02EB8302 		add	r2, r2, r3, lsl #2
 251 0080 52F8402C 		ldr	r2, [r2, #-64]
 252 0084 92FBF4F2 		sdiv	r2, r2, r4
 253 0088 03F11000 		add	r0, r3, #16
 254 008c 5C49     		ldr	r1, .L34
 255 008e 41F82020 		str	r2, [r1, r0, lsl #2]
  73:sensors.c     ****     {    
 256              		.loc 1 73 0 discriminator 3
 257 0092 0133     		adds	r3, r3, #1
 258              	.LVL28:
 259              	.L18:
  73:sensors.c     ****     {    
 260              		.loc 1 73 0 is_stmt 0 discriminator 1
 261 0094 0F2B     		cmp	r3, #15
 262 0096 F0DD     		ble	.L19
 263              	.LBE8:
  79:sensors.c     ****     gSensors.calculatedValue[12],gSensors.calculatedValue[11],gSensors.calculatedValue[10],gSensors
ARM GAS  C:\Users\MANSRO~1\AppData\Local\Temp\ccvBroNv.s 			page 9


 264              		.loc 1 79 0 is_stmt 1
 265 0098 5949     		ldr	r1, .L34
 266 009a 8B6F     		ldr	r3, [r1, #120]
 267              	.LVL29:
 268 009c CA6F     		ldr	r2, [r1, #124]
 269 009e 086C     		ldr	r0, [r1, #64]
 270 00a0 0D90     		str	r0, [sp, #52]
 271 00a2 486C     		ldr	r0, [r1, #68]
 272 00a4 0C90     		str	r0, [sp, #48]
 273 00a6 886C     		ldr	r0, [r1, #72]
 274 00a8 0B90     		str	r0, [sp, #44]
 275 00aa C86C     		ldr	r0, [r1, #76]
 276 00ac 0A90     		str	r0, [sp, #40]
 277 00ae 086D     		ldr	r0, [r1, #80]
 278 00b0 0990     		str	r0, [sp, #36]
 279 00b2 486D     		ldr	r0, [r1, #84]
 280 00b4 0890     		str	r0, [sp, #32]
 281 00b6 886D     		ldr	r0, [r1, #88]
 282 00b8 0790     		str	r0, [sp, #28]
 283 00ba C86D     		ldr	r0, [r1, #92]
 284 00bc 0690     		str	r0, [sp, #24]
 285 00be 086E     		ldr	r0, [r1, #96]
 286 00c0 0590     		str	r0, [sp, #20]
 287 00c2 486E     		ldr	r0, [r1, #100]
 288 00c4 0490     		str	r0, [sp, #16]
 289 00c6 886E     		ldr	r0, [r1, #104]
 290 00c8 0390     		str	r0, [sp, #12]
 291 00ca C86E     		ldr	r0, [r1, #108]
 292 00cc 0290     		str	r0, [sp, #8]
 293 00ce 086F     		ldr	r0, [r1, #112]
 294 00d0 0190     		str	r0, [sp, #4]
 295 00d2 496F     		ldr	r1, [r1, #116]
 296 00d4 0091     		str	r1, [sp]
 297 00d6 4B49     		ldr	r1, .L34+4
 298 00d8 0020     		movs	r0, #0
 299 00da FFF7FEFF 		bl	log_log
 300              	.LVL30:
 301              	.LBB9:
  89:sensors.c     ****     {      
 302              		.loc 1 89 0
 303 00de 0023     		movs	r3, #0
 304              	.LBE9:
  44:sensors.c     ****     int sensorReadSum[16] = {0,0,0,0,0,0,0,0,0,0,0,0,0,0,0,0};
 305              		.loc 1 44 0
 306 00e0 1D46     		mov	r5, r3
  43:sensors.c     ****     int sensorDetected = 0;
 307              		.loc 1 43 0
 308 00e2 1C46     		mov	r4, r3
 309              	.LVL31:
 310              	.LBB11:
  89:sensors.c     ****     {      
 311              		.loc 1 89 0
 312 00e4 15E0     		b	.L20
 313              	.LVL32:
 314              	.L23:
 315              	.LBB10:
  91:sensors.c     ****         
ARM GAS  C:\Users\MANSRO~1\AppData\Local\Temp\ccvBroNv.s 			page 10


 316              		.loc 1 91 0
 317 00e6 03F11002 		add	r2, r3, #16
 318 00ea 4549     		ldr	r1, .L34
 319 00ec 51F82220 		ldr	r2, [r1, r2, lsl #2]
 320              	.LVL33:
  93:sensors.c     ****         {
 321              		.loc 1 93 0
 322 00f0 B2F5C87F 		cmp	r2, #400
 323 00f4 06DB     		blt	.L21
  95:sensors.c     ****             on_line = 1;
 324              		.loc 1 95 0
 325 00f6 03F13002 		add	r2, r3, #48
 326              	.LVL34:
 327 00fa 0124     		movs	r4, #1
 328              	.LVL35:
 329 00fc 41F82240 		str	r4, [r1, r2, lsl #2]
 330              	.LVL36:
  97:sensors.c     ****         }
 331              		.loc 1 97 0
 332 0100 2544     		add	r5, r5, r4
 333              	.LVL37:
 334 0102 05E0     		b	.L22
 335              	.LVL38:
 336              	.L21:
 101:sensors.c     ****         }
 337              		.loc 1 101 0
 338 0104 03F13002 		add	r2, r3, #48
 339              	.LVL39:
 340 0108 0020     		movs	r0, #0
 341 010a 3D49     		ldr	r1, .L34
 342 010c 41F82200 		str	r0, [r1, r2, lsl #2]
 343              	.LVL40:
 344              	.L22:
 345              	.LBE10:
  89:sensors.c     ****     {      
 346              		.loc 1 89 0 discriminator 2
 347 0110 0133     		adds	r3, r3, #1
 348              	.LVL41:
 349              	.L20:
  89:sensors.c     ****     {      
 350              		.loc 1 89 0 is_stmt 0 discriminator 1
 351 0112 0F2B     		cmp	r3, #15
 352 0114 E7DD     		ble	.L23
 353              	.LBE11:
 106:sensors.c     ****     gSensors.detectedSensors[12],gSensors.detectedSensors[11],gSensors.detectedSensors[10],gSensors
 354              		.loc 1 106 0 is_stmt 1
 355 0116 3A49     		ldr	r1, .L34
 356 0118 D1F8F830 		ldr	r3, [r1, #248]
 357              	.LVL42:
 358 011c D1F8FC20 		ldr	r2, [r1, #252]
 359 0120 D1F8C000 		ldr	r0, [r1, #192]
 360 0124 0D90     		str	r0, [sp, #52]
 361 0126 D1F8C400 		ldr	r0, [r1, #196]
 362 012a 0C90     		str	r0, [sp, #48]
 363 012c D1F8C800 		ldr	r0, [r1, #200]
 364 0130 0B90     		str	r0, [sp, #44]
 365 0132 D1F8CC00 		ldr	r0, [r1, #204]
ARM GAS  C:\Users\MANSRO~1\AppData\Local\Temp\ccvBroNv.s 			page 11


 366 0136 0A90     		str	r0, [sp, #40]
 367 0138 D1F8D000 		ldr	r0, [r1, #208]
 368 013c 0990     		str	r0, [sp, #36]
 369 013e D1F8D400 		ldr	r0, [r1, #212]
 370 0142 0890     		str	r0, [sp, #32]
 371 0144 D1F8D800 		ldr	r0, [r1, #216]
 372 0148 0790     		str	r0, [sp, #28]
 373 014a D1F8DC00 		ldr	r0, [r1, #220]
 374 014e 0690     		str	r0, [sp, #24]
 375 0150 D1F8E000 		ldr	r0, [r1, #224]
 376 0154 0590     		str	r0, [sp, #20]
 377 0156 D1F8E400 		ldr	r0, [r1, #228]
 378 015a 0490     		str	r0, [sp, #16]
 379 015c D1F8E800 		ldr	r0, [r1, #232]
 380 0160 0390     		str	r0, [sp, #12]
 381 0162 D1F8EC00 		ldr	r0, [r1, #236]
 382 0166 0290     		str	r0, [sp, #8]
 383 0168 D1F8F000 		ldr	r0, [r1, #240]
 384 016c 0190     		str	r0, [sp, #4]
 385 016e D1F8F410 		ldr	r1, [r1, #244]
 386 0172 0091     		str	r1, [sp]
 387 0174 2449     		ldr	r1, .L34+8
 388 0176 0020     		movs	r0, #0
 389 0178 FFF7FEFF 		bl	log_log
 390              	.LVL43:
 111:sensors.c     ****     {
 391              		.loc 1 111 0
 392 017c 84B1     		cbz	r4, .L24
 113:sensors.c     ****         {
 393              		.loc 1 113 0
 394 017e 012D     		cmp	r5, #1
 395 0180 0ED1     		bne	.L24
 113:sensors.c     ****         {
 396              		.loc 1 113 0 is_stmt 0 discriminator 1
 397 0182 1F4B     		ldr	r3, .L34
 398 0184 D3F8C030 		ldr	r3, [r3, #192]
 399 0188 53B9     		cbnz	r3, .L24
 113:sensors.c     ****         {
 400              		.loc 1 113 0 discriminator 2
 401 018a 1D4B     		ldr	r3, .L34
 402 018c D3F8FC30 		ldr	r3, [r3, #252]
 403 0190 33B9     		cbnz	r3, .L24
 115:sensors.c     ****             return lastValue;
 404              		.loc 1 115 0 is_stmt 1
 405 0192 1E49     		ldr	r1, .L34+12
 406 0194 0120     		movs	r0, #1
 407 0196 FFF7FEFF 		bl	log_log
 408              	.LVL44:
 116:sensors.c     ****             log_error("NO LINE NOT WORKING");
 409              		.loc 1 116 0
 410 019a 1D4B     		ldr	r3, .L34+16
 411 019c 1868     		ldr	r0, [r3]
 412 019e 2DE0     		b	.L25
 413              	.L24:
 126:sensors.c     ****     {
 414              		.loc 1 126 0
 415 01a0 A4B9     		cbnz	r4, .L31
ARM GAS  C:\Users\MANSRO~1\AppData\Local\Temp\ccvBroNv.s 			page 12


 129:sensors.c     ****         // if (lastValue <= 1000)
 416              		.loc 1 129 0
 417 01a2 1B4B     		ldr	r3, .L34+16
 418 01a4 1A68     		ldr	r2, [r3]
 419 01a6 41F64B53 		movw	r3, #7499
 420 01aa 9A42     		cmp	r2, r3
 421 01ac 24DC     		bgt	.L32
 131:sensors.c     **** 
 422              		.loc 1 131 0
 423 01ae 0020     		movs	r0, #0
 424 01b0 24E0     		b	.L25
 425              	.LVL45:
 426              	.L27:
 427              	.LBB12:
 147:sensors.c     ****     }
 428              		.loc 1 147 0 discriminator 3
 429 01b2 4FF47A72 		mov	r2, #1000
 430 01b6 02FB03F2 		mul	r2, r2, r3
 431 01ba 03F13004 		add	r4, r3, #48
 432 01be 1048     		ldr	r0, .L34
 433 01c0 50F82400 		ldr	r0, [r0, r4, lsl #2]
 434 01c4 00FB0211 		mla	r1, r0, r2, r1
 435              	.LVL46:
 145:sensors.c     ****     {
 436              		.loc 1 145 0 discriminator 3
 437 01c8 0133     		adds	r3, r3, #1
 438              	.LVL47:
 439 01ca 01E0     		b	.L26
 440              	.LVL48:
 441              	.L31:
 442              	.LBE12:
 443 01cc 0023     		movs	r3, #0
 444 01ce 1946     		mov	r1, r3
 445              	.LVL49:
 446              	.L26:
 447              	.LBB13:
 145:sensors.c     ****     {
 448              		.loc 1 145 0 is_stmt 0 discriminator 1
 449 01d0 0F2B     		cmp	r3, #15
 450 01d2 EEDD     		ble	.L27
 451 01d4 0023     		movs	r3, #0
 452              	.LVL50:
 453 01d6 1846     		mov	r0, r3
 454 01d8 06E0     		b	.L28
 455              	.LVL51:
 456              	.L29:
 457              	.LBE13:
 458              	.LBB14:
 152:sensors.c     ****     }
 459              		.loc 1 152 0 is_stmt 1 discriminator 3
 460 01da 03F13004 		add	r4, r3, #48
 461 01de 084A     		ldr	r2, .L34
 462 01e0 52F82420 		ldr	r2, [r2, r4, lsl #2]
 463 01e4 1044     		add	r0, r0, r2
 464              	.LVL52:
 150:sensors.c     ****     {
 465              		.loc 1 150 0 discriminator 3
ARM GAS  C:\Users\MANSRO~1\AppData\Local\Temp\ccvBroNv.s 			page 13


 466 01e6 0133     		adds	r3, r3, #1
 467              	.LVL53:
 468              	.L28:
 150:sensors.c     ****     {
 469              		.loc 1 150 0 is_stmt 0 discriminator 1
 470 01e8 0F2B     		cmp	r3, #15
 471 01ea F6DD     		ble	.L29
 472              	.LBE14:
 154:sensors.c     ****     return lastValue;
 473              		.loc 1 154 0 is_stmt 1
 474 01ec 91FBF0F1 		sdiv	r1, r1, r0
 475              	.LVL54:
 476 01f0 074B     		ldr	r3, .L34+16
 477              	.LVL55:
 478 01f2 1960     		str	r1, [r3]
 155:sensors.c     ****     
 479              		.loc 1 155 0
 480 01f4 0846     		mov	r0, r1
 481              	.LVL56:
 482 01f6 01E0     		b	.L25
 483              	.LVL57:
 484              	.L32:
 136:sensors.c     ****         //else
 485              		.loc 1 136 0
 486 01f8 43F69820 		movw	r0, #15000
 487              	.LVL58:
 488              	.L25:
 157:sensors.c     **** 
 489              		.loc 1 157 0
 490 01fc 1FB0     		add	sp, sp, #124
 491              		.cfi_def_cfa_offset 20
 492              		@ sp needed
 493 01fe F0BD     		pop	{r4, r5, r6, r7, pc}
 494              	.LVL59:
 495              	.L35:
 496              		.align	2
 497              	.L34:
 498 0200 00000000 		.word	gSensors
 499 0204 00000000 		.word	.LC0
 500 0208 44000000 		.word	.LC1
 501 020c 80000000 		.word	.LC2
 502 0210 00000000 		.word	.LANCHOR0
 503              		.cfi_endproc
 504              	.LFE3:
 505              		.size	checkSensors, .-checkSensors
 506              		.section	.text.calibrateSensors,"ax",%progbits
 507              		.align	2
 508              		.global	calibrateSensors
 509              		.thumb
 510              		.thumb_func
 511              		.type	calibrateSensors, %function
 512              	calibrateSensors:
 513              	.LFB5:
 163:sensors.c     **** 
 164:sensors.c     **** void calibrateSensors(int measures, int average)
 165:sensors.c     **** {
 514              		.loc 1 165 0
ARM GAS  C:\Users\MANSRO~1\AppData\Local\Temp\ccvBroNv.s 			page 14


 515              		.cfi_startproc
 516              		@ args = 0, pretend = 0, frame = 64
 517              		@ frame_needed = 1, uses_anonymous_args = 0
 518              	.LVL60:
 519 0000 2DE9F04F 		push	{r4, r5, r6, r7, r8, r9, r10, fp, lr}
 520              		.cfi_def_cfa_offset 36
 521              		.cfi_offset 4, -36
 522              		.cfi_offset 5, -32
 523              		.cfi_offset 6, -28
 524              		.cfi_offset 7, -24
 525              		.cfi_offset 8, -20
 526              		.cfi_offset 9, -16
 527              		.cfi_offset 10, -12
 528              		.cfi_offset 11, -8
 529              		.cfi_offset 14, -4
 530 0004 91B0     		sub	sp, sp, #68
 531              		.cfi_def_cfa_offset 104
 532 0006 00AF     		add	r7, sp, #0
 533              		.cfi_def_cfa_register 7
 534 0008 8146     		mov	r9, r0
 535 000a 8A46     		mov	r10, r1
 166:sensors.c     ****     int32_t senValue [16][measures+1];
 536              		.loc 1 166 0
 537 000c 431C     		adds	r3, r0, #1
 538              	.LVL61:
 539 000e 9E00     		lsls	r6, r3, #2
 540 0010 9B01     		lsls	r3, r3, #6
 541 0012 0833     		adds	r3, r3, #8
 542 0014 ADEB030D 		sub	sp, sp, r3
 543 0018 E846     		mov	r8, sp
 544              	.LVL62:
 545              	.LBB15:
 167:sensors.c     ****     for (int y = 1; y <= measures; y++)
 546              		.loc 1 167 0
 547 001a 4FF0010B 		mov	fp, #1
 548 001e 19E0     		b	.L37
 549              	.LVL63:
 550              	.L38:
 551              	.LBB16:
 168:sensors.c     ****     {
 169:sensors.c     ****         for (int i = 0; i <= 16; i++)
 170:sensors.c     ****         {
 171:sensors.c     ****             senValue [i][y] = (ADC_SAR_GetResult16(i));
 552              		.loc 1 171 0 discriminator 3
 553 0020 B408     		lsrs	r4, r6, #2
 554 0022 A8B2     		uxth	r0, r5
 555 0024 FFF7FEFF 		bl	ADC_SAR_GetResult16
 556              	.LVL64:
 557 0028 04FB05B4 		mla	r4, r4, r5, fp
 558 002c 48F82400 		str	r0, [r8, r4, lsl #2]
 172:sensors.c     ****             console_print_int(senValue [i][y]);
 559              		.loc 1 172 0 discriminator 3
 560 0030 FFF7FEFF 		bl	console_print_int
 561              	.LVL65:
 173:sensors.c     ****             console_print ("  ");
 562              		.loc 1 173 0 discriminator 3
 563 0034 4148     		ldr	r0, .L52
ARM GAS  C:\Users\MANSRO~1\AppData\Local\Temp\ccvBroNv.s 			page 15


 564 0036 FFF7FEFF 		bl	console_print
 565              	.LVL66:
 169:sensors.c     ****         {
 566              		.loc 1 169 0 discriminator 3
 567 003a 0135     		adds	r5, r5, #1
 568              	.LVL67:
 569 003c 00E0     		b	.L39
 570              	.LVL68:
 571              	.L49:
 572              	.LBE16:
 573 003e 0025     		movs	r5, #0
 574              	.L39:
 575              	.LVL69:
 576              	.LBB17:
 169:sensors.c     ****         {
 577              		.loc 1 169 0 is_stmt 0 discriminator 1
 578 0040 102D     		cmp	r5, #16
 579 0042 EDDD     		ble	.L38
 580              	.LBE17:
 174:sensors.c     ****             
 175:sensors.c     ****         }
 176:sensors.c     ****         console_print("\r\n");
 581              		.loc 1 176 0 is_stmt 1 discriminator 2
 582 0044 3E48     		ldr	r0, .L52+4
 583 0046 FFF7FEFF 		bl	console_print
 584              	.LVL70:
 177:sensors.c     ****         CyDelay(250);
 585              		.loc 1 177 0 discriminator 2
 586 004a FA20     		movs	r0, #250
 587 004c FFF7FEFF 		bl	CyDelay
 588              	.LVL71:
 167:sensors.c     ****     {
 589              		.loc 1 167 0 discriminator 2
 590 0050 0BF1010B 		add	fp, fp, #1
 591              	.LVL72:
 592              	.L37:
 167:sensors.c     ****     {
 593              		.loc 1 167 0 is_stmt 0 discriminator 1
 594 0054 CB45     		cmp	fp, r9
 595 0056 F2DD     		ble	.L49
 596              	.LBE15:
 178:sensors.c     ****         
 179:sensors.c     ****     }
 180:sensors.c     ****     console_print("\r\n");
 597              		.loc 1 180 0 is_stmt 1
 598 0058 3948     		ldr	r0, .L52+4
 599 005a FFF7FEFF 		bl	console_print
 600              	.LVL73:
 601              	.LBB18:
 181:sensors.c     ****     
 182:sensors.c     ****     int32_t senSum [15] ;
 183:sensors.c     ****     
 184:sensors.c     ****     for (int i = 0; i <= 15; i++)
 602              		.loc 1 184 0
 603 005e 0023     		movs	r3, #0
 604 0060 07E0     		b	.L40
 605              	.LVL74:
ARM GAS  C:\Users\MANSRO~1\AppData\Local\Temp\ccvBroNv.s 			page 16


 606              	.L41:
 185:sensors.c     ****         {
 186:sensors.c     ****             senSum[i] = 0;
 607              		.loc 1 186 0 discriminator 3
 608 0062 07F14002 		add	r2, r7, #64
 609 0066 02EB8302 		add	r2, r2, r3, lsl #2
 610 006a 0021     		movs	r1, #0
 611 006c 42F83C1C 		str	r1, [r2, #-60]
 184:sensors.c     ****         {
 612              		.loc 1 184 0 discriminator 3
 613 0070 0133     		adds	r3, r3, #1
 614              	.LVL75:
 615              	.L40:
 184:sensors.c     ****         {
 616              		.loc 1 184 0 is_stmt 0 discriminator 1
 617 0072 0F2B     		cmp	r3, #15
 618 0074 F5DD     		ble	.L41
 619 0076 0024     		movs	r4, #0
 620 0078 0AE0     		b	.L42
 621              	.LVL76:
 622              	.L43:
 623              	.LBE18:
 624              	.LBB19:
 187:sensors.c     ****         }
 188:sensors.c     **** 
 189:sensors.c     ****     for (int i = 0; i <= 15; i++)
 190:sensors.c     ****     {
 191:sensors.c     ****         qsort(senValue[i],measures,sizeof(int),cmpfunc);
 625              		.loc 1 191 0 is_stmt 1 discriminator 3
 626 007a B008     		lsrs	r0, r6, #2
 627 007c 00FB04F0 		mul	r0, r0, r4
 628 0080 304B     		ldr	r3, .L52+8
 629 0082 0422     		movs	r2, #4
 630 0084 4946     		mov	r1, r9
 631 0086 08EB8000 		add	r0, r8, r0, lsl #2
 632 008a FFF7FEFF 		bl	qsort
 633              	.LVL77:
 189:sensors.c     ****     {
 634              		.loc 1 189 0 discriminator 3
 635 008e 0134     		adds	r4, r4, #1
 636              	.LVL78:
 637              	.L42:
 189:sensors.c     ****     {
 638              		.loc 1 189 0 is_stmt 0 discriminator 1
 639 0090 0F2C     		cmp	r4, #15
 640 0092 F2DD     		ble	.L43
 641              	.LBE19:
 192:sensors.c     ****     }
 193:sensors.c     ****         
 194:sensors.c     ****     console_print("\r\n");
 642              		.loc 1 194 0 is_stmt 1
 643 0094 2A48     		ldr	r0, .L52+4
 644 0096 FFF7FEFF 		bl	console_print
 645              	.LVL79:
 646              	.LBB20:
 195:sensors.c     ****     for (int y = 0; y <= 15; y++)
 647              		.loc 1 195 0
ARM GAS  C:\Users\MANSRO~1\AppData\Local\Temp\ccvBroNv.s 			page 17


 648 009a 0024     		movs	r4, #0
 649              	.LVL80:
 650 009c 47E0     		b	.L44
 651              	.LVL81:
 652              	.L45:
 653              	.LBB21:
 196:sensors.c     ****     {
 197:sensors.c     ****         for (int i = 1; i <= average; i++)
 198:sensors.c     ****         {
 199:sensors.c     ****             senSum [y] = senSum[y] + senValue[y][i];     
 654              		.loc 1 199 0 discriminator 3
 655 009e 07F14003 		add	r3, r7, #64
 656 00a2 03EB8401 		add	r1, r3, r4, lsl #2
 657 00a6 51F83C3C 		ldr	r3, [r1, #-60]
 658 00aa B208     		lsrs	r2, r6, #2
 659 00ac 02FB0452 		mla	r2, r2, r4, r5
 660 00b0 58F82200 		ldr	r0, [r8, r2, lsl #2]
 661 00b4 0344     		add	r3, r3, r0
 662 00b6 41F83C3C 		str	r3, [r1, #-60]
 200:sensors.c     ****             console_print_int(senValue[y][i]);
 663              		.loc 1 200 0 discriminator 3
 664 00ba FFF7FEFF 		bl	console_print_int
 665              	.LVL82:
 201:sensors.c     ****             console_print (" n ");       
 666              		.loc 1 201 0 discriminator 3
 667 00be 2248     		ldr	r0, .L52+12
 668 00c0 FFF7FEFF 		bl	console_print
 669              	.LVL83:
 197:sensors.c     ****         {
 670              		.loc 1 197 0 discriminator 3
 671 00c4 0135     		adds	r5, r5, #1
 672              	.LVL84:
 673 00c6 00E0     		b	.L48
 674              	.LVL85:
 675              	.L50:
 676              	.LBE21:
 677 00c8 0125     		movs	r5, #1
 678              	.L48:
 679              	.LVL86:
 680              	.LBB22:
 197:sensors.c     ****         {
 681              		.loc 1 197 0 is_stmt 0 discriminator 1
 682 00ca 5545     		cmp	r5, r10
 683 00cc E7DD     		ble	.L45
 684              	.LBE22:
 685              	.LBB23:
 202:sensors.c     ****         }
 203:sensors.c     ****         
 204:sensors.c     ****         for (int i = measures - average; i <= measures-1; i++)
 686              		.loc 1 204 0 is_stmt 1
 687 00ce CAEB0905 		rsb	r5, r10, r9
 688              	.LVL87:
 689 00d2 13E0     		b	.L46
 690              	.L47:
 205:sensors.c     ****         {
 206:sensors.c     ****             senSum [y] = senSum[y] + senValue[y][i];     
 691              		.loc 1 206 0 discriminator 3
ARM GAS  C:\Users\MANSRO~1\AppData\Local\Temp\ccvBroNv.s 			page 18


 692 00d4 07F14003 		add	r3, r7, #64
 693 00d8 03EB8401 		add	r1, r3, r4, lsl #2
 694 00dc 51F83C3C 		ldr	r3, [r1, #-60]
 695 00e0 B208     		lsrs	r2, r6, #2
 696 00e2 02FB0452 		mla	r2, r2, r4, r5
 697 00e6 58F82200 		ldr	r0, [r8, r2, lsl #2]
 698 00ea 0344     		add	r3, r3, r0
 699 00ec 41F83C3C 		str	r3, [r1, #-60]
 207:sensors.c     ****             console_print_int(senValue[y][i]);
 700              		.loc 1 207 0 discriminator 3
 701 00f0 FFF7FEFF 		bl	console_print_int
 702              	.LVL88:
 208:sensors.c     ****             console_print (" n ");       
 703              		.loc 1 208 0 discriminator 3
 704 00f4 1448     		ldr	r0, .L52+12
 705 00f6 FFF7FEFF 		bl	console_print
 706              	.LVL89:
 204:sensors.c     ****         {
 707              		.loc 1 204 0 discriminator 3
 708 00fa 0135     		adds	r5, r5, #1
 709              	.LVL90:
 710              	.L46:
 204:sensors.c     ****         {
 711              		.loc 1 204 0 is_stmt 0 discriminator 1
 712 00fc 09F1FF33 		add	r3, r9, #-1
 713 0100 9D42     		cmp	r5, r3
 714 0102 E7DD     		ble	.L47
 715              	.LBE23:
 209:sensors.c     ****         }
 210:sensors.c     ****         
 211:sensors.c     ****         gSensors.thresholdValue[y] = 0;
 716              		.loc 1 211 0 is_stmt 1 discriminator 2
 717 0104 04F12002 		add	r2, r4, #32
 212:sensors.c     ****         gSensors.thresholdValue[y] = senSum[y] / (average * 2);
 718              		.loc 1 212 0 discriminator 2
 719 0108 07F14003 		add	r3, r7, #64
 720 010c 03EB8403 		add	r3, r3, r4, lsl #2
 721 0110 53F83C3C 		ldr	r3, [r3, #-60]
 722 0114 4FEA4A00 		lsl	r0, r10, #1
 723 0118 93FBF0F0 		sdiv	r0, r3, r0
 724 011c 0B4B     		ldr	r3, .L52+16
 725 011e 43F82200 		str	r0, [r3, r2, lsl #2]
 213:sensors.c     ****         console_print_int(gSensors.thresholdValue[y]);
 726              		.loc 1 213 0 discriminator 2
 727 0122 FFF7FEFF 		bl	console_print_int
 728              	.LVL91:
 214:sensors.c     ****         console_print("\r\n");
 729              		.loc 1 214 0 discriminator 2
 730 0126 0648     		ldr	r0, .L52+4
 731 0128 FFF7FEFF 		bl	console_print
 732              	.LVL92:
 195:sensors.c     ****     {
 733              		.loc 1 195 0 discriminator 2
 734 012c 0134     		adds	r4, r4, #1
 735              	.LVL93:
 736              	.L44:
 195:sensors.c     ****     {
ARM GAS  C:\Users\MANSRO~1\AppData\Local\Temp\ccvBroNv.s 			page 19


 737              		.loc 1 195 0 is_stmt 0 discriminator 1
 738 012e 0F2C     		cmp	r4, #15
 739 0130 CADD     		ble	.L50
 740              	.LBE20:
 215:sensors.c     ****     }
 216:sensors.c     **** }
 741              		.loc 1 216 0 is_stmt 1
 742 0132 4437     		adds	r7, r7, #68
 743              		.cfi_def_cfa_offset 36
 744 0134 BD46     		mov	sp, r7
 745              		.cfi_def_cfa_register 13
 746              		@ sp needed
 747 0136 BDE8F08F 		pop	{r4, r5, r6, r7, r8, r9, r10, fp, pc}
 748              	.LVL94:
 749              	.L53:
 750 013a 00BF     		.align	2
 751              	.L52:
 752 013c 88000000 		.word	.LC3
 753 0140 8C000000 		.word	.LC4
 754 0144 00000000 		.word	cmpfunc
 755 0148 90000000 		.word	.LC5
 756 014c 00000000 		.word	gSensors
 757              		.cfi_endproc
 758              	.LFE5:
 759              		.size	calibrateSensors, .-calibrateSensors
 760              		.section	.text.sensorsRaw,"ax",%progbits
 761              		.align	2
 762              		.global	sensorsRaw
 763              		.thumb
 764              		.thumb_func
 765              		.type	sensorsRaw, %function
 766              	sensorsRaw:
 767              	.LFB6:
 217:sensors.c     **** 
 218:sensors.c     **** 
 219:sensors.c     **** 
 220:sensors.c     **** 
 221:sensors.c     **** 
 222:sensors.c     **** 
 223:sensors.c     **** 
 224:sensors.c     **** void sensorsRaw()
 225:sensors.c     **** {
 768              		.loc 1 225 0
 769              		.cfi_startproc
 770              		@ args = 0, pretend = 0, frame = 0
 771              		@ frame_needed = 0, uses_anonymous_args = 0
 772 0000 38B5     		push	{r3, r4, r5, lr}
 773              		.cfi_def_cfa_offset 16
 774              		.cfi_offset 3, -16
 775              		.cfi_offset 4, -12
 776              		.cfi_offset 5, -8
 777              		.cfi_offset 14, -4
 226:sensors.c     ****         
 227:sensors.c     ****         UART_BT_PutString("    ########  Sensors ######## ");  
 778              		.loc 1 227 0
 779 0002 4848     		ldr	r0, .L56
 780 0004 FFF7FEFF 		bl	UART_BT_PutString
ARM GAS  C:\Users\MANSRO~1\AppData\Local\Temp\ccvBroNv.s 			page 20


 781              	.LVL95:
 228:sensors.c     ****         UART_BT_PutString("\r\n");
 782              		.loc 1 228 0
 783 0008 474D     		ldr	r5, .L56+4
 784 000a 2846     		mov	r0, r5
 785 000c FFF7FEFF 		bl	UART_BT_PutString
 786              	.LVL96:
 229:sensors.c     **** 
 230:sensors.c     ****         UART_BT_PutString("\r\n");
 787              		.loc 1 230 0
 788 0010 2846     		mov	r0, r5
 789 0012 FFF7FEFF 		bl	UART_BT_PutString
 790              	.LVL97:
 231:sensors.c     ****         UART_BT_PutInt(ADC_SAR_GetResult16(0));
 791              		.loc 1 231 0
 792 0016 0020     		movs	r0, #0
 793 0018 FFF7FEFF 		bl	ADC_SAR_GetResult16
 794              	.LVL98:
 795 001c FFF7FEFF 		bl	UART_BT_PutInt
 796              	.LVL99:
 232:sensors.c     ****         
 233:sensors.c     ****         UART_BT_PutString(" ");
 797              		.loc 1 233 0
 798 0020 424C     		ldr	r4, .L56+8
 799 0022 2046     		mov	r0, r4
 800 0024 FFF7FEFF 		bl	UART_BT_PutString
 801              	.LVL100:
 234:sensors.c     ****         UART_BT_PutInt(ADC_SAR_GetResult16(1));
 802              		.loc 1 234 0
 803 0028 0120     		movs	r0, #1
 804 002a FFF7FEFF 		bl	ADC_SAR_GetResult16
 805              	.LVL101:
 806 002e FFF7FEFF 		bl	UART_BT_PutInt
 807              	.LVL102:
 235:sensors.c     ****         
 236:sensors.c     ****         UART_BT_PutString(" ");
 808              		.loc 1 236 0
 809 0032 2046     		mov	r0, r4
 810 0034 FFF7FEFF 		bl	UART_BT_PutString
 811              	.LVL103:
 237:sensors.c     ****         UART_BT_PutInt(ADC_SAR_GetResult16(2));
 812              		.loc 1 237 0
 813 0038 0220     		movs	r0, #2
 814 003a FFF7FEFF 		bl	ADC_SAR_GetResult16
 815              	.LVL104:
 816 003e FFF7FEFF 		bl	UART_BT_PutInt
 817              	.LVL105:
 238:sensors.c     ****         
 239:sensors.c     ****         UART_BT_PutString(" ");
 818              		.loc 1 239 0
 819 0042 2046     		mov	r0, r4
 820 0044 FFF7FEFF 		bl	UART_BT_PutString
 821              	.LVL106:
 240:sensors.c     ****         UART_BT_PutInt(ADC_SAR_GetResult16(3));
 822              		.loc 1 240 0
 823 0048 0320     		movs	r0, #3
 824 004a FFF7FEFF 		bl	ADC_SAR_GetResult16
ARM GAS  C:\Users\MANSRO~1\AppData\Local\Temp\ccvBroNv.s 			page 21


 825              	.LVL107:
 826 004e FFF7FEFF 		bl	UART_BT_PutInt
 827              	.LVL108:
 241:sensors.c     ****         
 242:sensors.c     ****         UART_BT_PutString(" ");
 828              		.loc 1 242 0
 829 0052 2046     		mov	r0, r4
 830 0054 FFF7FEFF 		bl	UART_BT_PutString
 831              	.LVL109:
 243:sensors.c     ****         UART_BT_PutInt(ADC_SAR_GetResult16(4));
 832              		.loc 1 243 0
 833 0058 0420     		movs	r0, #4
 834 005a FFF7FEFF 		bl	ADC_SAR_GetResult16
 835              	.LVL110:
 836 005e FFF7FEFF 		bl	UART_BT_PutInt
 837              	.LVL111:
 244:sensors.c     ****         
 245:sensors.c     ****         UART_BT_PutString(" ");
 838              		.loc 1 245 0
 839 0062 2046     		mov	r0, r4
 840 0064 FFF7FEFF 		bl	UART_BT_PutString
 841              	.LVL112:
 246:sensors.c     ****         UART_BT_PutInt(ADC_SAR_GetResult16(5));
 842              		.loc 1 246 0
 843 0068 0520     		movs	r0, #5
 844 006a FFF7FEFF 		bl	ADC_SAR_GetResult16
 845              	.LVL113:
 846 006e FFF7FEFF 		bl	UART_BT_PutInt
 847              	.LVL114:
 247:sensors.c     ****         
 248:sensors.c     ****         UART_BT_PutString(" ");
 848              		.loc 1 248 0
 849 0072 2046     		mov	r0, r4
 850 0074 FFF7FEFF 		bl	UART_BT_PutString
 851              	.LVL115:
 249:sensors.c     ****         UART_BT_PutInt(ADC_SAR_GetResult16(6));
 852              		.loc 1 249 0
 853 0078 0620     		movs	r0, #6
 854 007a FFF7FEFF 		bl	ADC_SAR_GetResult16
 855              	.LVL116:
 856 007e FFF7FEFF 		bl	UART_BT_PutInt
 857              	.LVL117:
 250:sensors.c     ****         
 251:sensors.c     ****         UART_BT_PutString(" ");
 858              		.loc 1 251 0
 859 0082 2046     		mov	r0, r4
 860 0084 FFF7FEFF 		bl	UART_BT_PutString
 861              	.LVL118:
 252:sensors.c     ****         UART_BT_PutInt(ADC_SAR_GetResult16(7));
 862              		.loc 1 252 0
 863 0088 0720     		movs	r0, #7
 864 008a FFF7FEFF 		bl	ADC_SAR_GetResult16
 865              	.LVL119:
 866 008e FFF7FEFF 		bl	UART_BT_PutInt
 867              	.LVL120:
 253:sensors.c     ****         
 254:sensors.c     ****         UART_BT_PutString(" ");
ARM GAS  C:\Users\MANSRO~1\AppData\Local\Temp\ccvBroNv.s 			page 22


 868              		.loc 1 254 0
 869 0092 2046     		mov	r0, r4
 870 0094 FFF7FEFF 		bl	UART_BT_PutString
 871              	.LVL121:
 255:sensors.c     ****         UART_BT_PutInt(ADC_SAR_GetResult16(8));
 872              		.loc 1 255 0
 873 0098 0820     		movs	r0, #8
 874 009a FFF7FEFF 		bl	ADC_SAR_GetResult16
 875              	.LVL122:
 876 009e FFF7FEFF 		bl	UART_BT_PutInt
 877              	.LVL123:
 256:sensors.c     ****         
 257:sensors.c     ****         UART_BT_PutString(" ");
 878              		.loc 1 257 0
 879 00a2 2046     		mov	r0, r4
 880 00a4 FFF7FEFF 		bl	UART_BT_PutString
 881              	.LVL124:
 258:sensors.c     ****         UART_BT_PutInt(ADC_SAR_GetResult16(9));
 882              		.loc 1 258 0
 883 00a8 0920     		movs	r0, #9
 884 00aa FFF7FEFF 		bl	ADC_SAR_GetResult16
 885              	.LVL125:
 886 00ae FFF7FEFF 		bl	UART_BT_PutInt
 887              	.LVL126:
 259:sensors.c     ****         
 260:sensors.c     ****         UART_BT_PutString(" ");
 888              		.loc 1 260 0
 889 00b2 2046     		mov	r0, r4
 890 00b4 FFF7FEFF 		bl	UART_BT_PutString
 891              	.LVL127:
 261:sensors.c     ****         UART_BT_PutInt(ADC_SAR_GetResult16(10));
 892              		.loc 1 261 0
 893 00b8 0A20     		movs	r0, #10
 894 00ba FFF7FEFF 		bl	ADC_SAR_GetResult16
 895              	.LVL128:
 896 00be FFF7FEFF 		bl	UART_BT_PutInt
 897              	.LVL129:
 262:sensors.c     ****         
 263:sensors.c     ****         UART_BT_PutString(" ");
 898              		.loc 1 263 0
 899 00c2 2046     		mov	r0, r4
 900 00c4 FFF7FEFF 		bl	UART_BT_PutString
 901              	.LVL130:
 264:sensors.c     ****         UART_BT_PutInt(ADC_SAR_GetResult16(11));
 902              		.loc 1 264 0
 903 00c8 0B20     		movs	r0, #11
 904 00ca FFF7FEFF 		bl	ADC_SAR_GetResult16
 905              	.LVL131:
 906 00ce FFF7FEFF 		bl	UART_BT_PutInt
 907              	.LVL132:
 265:sensors.c     ****         
 266:sensors.c     ****         UART_BT_PutString(" ");
 908              		.loc 1 266 0
 909 00d2 2046     		mov	r0, r4
 910 00d4 FFF7FEFF 		bl	UART_BT_PutString
 911              	.LVL133:
 267:sensors.c     ****         UART_BT_PutInt(ADC_SAR_GetResult16(12));
ARM GAS  C:\Users\MANSRO~1\AppData\Local\Temp\ccvBroNv.s 			page 23


 912              		.loc 1 267 0
 913 00d8 0C20     		movs	r0, #12
 914 00da FFF7FEFF 		bl	ADC_SAR_GetResult16
 915              	.LVL134:
 916 00de FFF7FEFF 		bl	UART_BT_PutInt
 917              	.LVL135:
 268:sensors.c     ****         
 269:sensors.c     ****         UART_BT_PutString(" ");
 918              		.loc 1 269 0
 919 00e2 2046     		mov	r0, r4
 920 00e4 FFF7FEFF 		bl	UART_BT_PutString
 921              	.LVL136:
 270:sensors.c     ****         UART_BT_PutInt(ADC_SAR_GetResult16(13));
 922              		.loc 1 270 0
 923 00e8 0D20     		movs	r0, #13
 924 00ea FFF7FEFF 		bl	ADC_SAR_GetResult16
 925              	.LVL137:
 926 00ee FFF7FEFF 		bl	UART_BT_PutInt
 927              	.LVL138:
 271:sensors.c     ****         
 272:sensors.c     ****         UART_BT_PutString(" ");
 928              		.loc 1 272 0
 929 00f2 2046     		mov	r0, r4
 930 00f4 FFF7FEFF 		bl	UART_BT_PutString
 931              	.LVL139:
 273:sensors.c     ****         UART_BT_PutInt(ADC_SAR_GetResult16(14));
 932              		.loc 1 273 0
 933 00f8 0E20     		movs	r0, #14
 934 00fa FFF7FEFF 		bl	ADC_SAR_GetResult16
 935              	.LVL140:
 936 00fe FFF7FEFF 		bl	UART_BT_PutInt
 937              	.LVL141:
 274:sensors.c     ****         
 275:sensors.c     ****         UART_BT_PutString(" ");
 938              		.loc 1 275 0
 939 0102 2046     		mov	r0, r4
 940 0104 FFF7FEFF 		bl	UART_BT_PutString
 941              	.LVL142:
 276:sensors.c     ****         UART_BT_PutInt(ADC_SAR_GetResult16(15));
 942              		.loc 1 276 0
 943 0108 0F20     		movs	r0, #15
 944 010a FFF7FEFF 		bl	ADC_SAR_GetResult16
 945              	.LVL143:
 946 010e FFF7FEFF 		bl	UART_BT_PutInt
 947              	.LVL144:
 277:sensors.c     ****         
 278:sensors.c     ****         
 279:sensors.c     ****         UART_BT_PutString("\r\n");  
 948              		.loc 1 279 0
 949 0112 2846     		mov	r0, r5
 950 0114 FFF7FEFF 		bl	UART_BT_PutString
 951              	.LVL145:
 280:sensors.c     ****         CyDelay(500);
 952              		.loc 1 280 0
 953 0118 4FF4FA70 		mov	r0, #500
 954 011c FFF7FEFF 		bl	CyDelay
 955              	.LVL146:
ARM GAS  C:\Users\MANSRO~1\AppData\Local\Temp\ccvBroNv.s 			page 24


 956 0120 38BD     		pop	{r3, r4, r5, pc}
 957              	.L57:
 958 0122 00BF     		.align	2
 959              	.L56:
 960 0124 94000000 		.word	.LC6
 961 0128 8C000000 		.word	.LC4
 962 012c B4000000 		.word	.LC7
 963              		.cfi_endproc
 964              	.LFE6:
 965              		.size	sensorsRaw, .-sensorsRaw
 966              		.section	.text.sensorsRawConsole,"ax",%progbits
 967              		.align	2
 968              		.global	sensorsRawConsole
 969              		.thumb
 970              		.thumb_func
 971              		.type	sensorsRawConsole, %function
 972              	sensorsRawConsole:
 973              	.LFB7:
 281:sensors.c     **** 
 282:sensors.c     **** }
 283:sensors.c     **** 
 284:sensors.c     **** void sensorsRawConsole()
 285:sensors.c     **** {
 974              		.loc 1 285 0
 975              		.cfi_startproc
 976              		@ args = 0, pretend = 0, frame = 0
 977              		@ frame_needed = 0, uses_anonymous_args = 0
 978 0000 10B5     		push	{r4, lr}
 979              		.cfi_def_cfa_offset 8
 980              		.cfi_offset 4, -8
 981              		.cfi_offset 14, -4
 286:sensors.c     ****     
 287:sensors.c     ****     console_print("\033[2J");   // Erase the screen with the background colour and moves the cursor
 982              		.loc 1 287 0
 983 0002 1548     		ldr	r0, .L62
 984 0004 FFF7FEFF 		bl	console_print
 985              	.LVL147:
 288:sensors.c     ****     console_print("\033[r");
 986              		.loc 1 288 0
 987 0008 1448     		ldr	r0, .L62+4
 988 000a FFF7FEFF 		bl	console_print
 989              	.LVL148:
 289:sensors.c     **** 
 290:sensors.c     ****     console_printChr('\f');
 990              		.loc 1 290 0
 991 000e 0C20     		movs	r0, #12
 992 0010 FFF7FEFF 		bl	console_printChr
 993              	.LVL149:
 291:sensors.c     ****     console_print("\r\n");
 994              		.loc 1 291 0
 995 0014 124C     		ldr	r4, .L62+8
 996 0016 2046     		mov	r0, r4
 997 0018 FFF7FEFF 		bl	console_print
 998              	.LVL150:
 292:sensors.c     ****     console_print("#####################  Sensors ##################### ");  
 999              		.loc 1 292 0
 1000 001c 1148     		ldr	r0, .L62+12
ARM GAS  C:\Users\MANSRO~1\AppData\Local\Temp\ccvBroNv.s 			page 25


 1001 001e FFF7FEFF 		bl	console_print
 1002              	.LVL151:
 293:sensors.c     ****     console_print("\r\n");
 1003              		.loc 1 293 0
 1004 0022 2046     		mov	r0, r4
 1005 0024 FFF7FEFF 		bl	console_print
 1006              	.LVL152:
 294:sensors.c     ****     console_print("\r\n");
 1007              		.loc 1 294 0
 1008 0028 2046     		mov	r0, r4
 1009 002a FFF7FEFF 		bl	console_print
 1010              	.LVL153:
 1011              	.LBB24:
 295:sensors.c     **** 
 296:sensors.c     ****     for (int i = 0; i <= 15; i++)
 1012              		.loc 1 296 0
 1013 002e 0024     		movs	r4, #0
 1014 0030 08E0     		b	.L59
 1015              	.LVL154:
 1016              	.L60:
 297:sensors.c     ****     {
 298:sensors.c     ****         console_print_int(ADC_SAR_GetResult16(i));
 1017              		.loc 1 298 0 discriminator 3
 1018 0032 A0B2     		uxth	r0, r4
 1019 0034 FFF7FEFF 		bl	ADC_SAR_GetResult16
 1020              	.LVL155:
 1021 0038 FFF7FEFF 		bl	console_print_int
 1022              	.LVL156:
 299:sensors.c     ****         console_print ("  ");
 1023              		.loc 1 299 0 discriminator 3
 1024 003c 0A48     		ldr	r0, .L62+16
 1025 003e FFF7FEFF 		bl	console_print
 1026              	.LVL157:
 296:sensors.c     ****     {
 1027              		.loc 1 296 0 discriminator 3
 1028 0042 0134     		adds	r4, r4, #1
 1029              	.LVL158:
 1030              	.L59:
 296:sensors.c     ****     {
 1031              		.loc 1 296 0 is_stmt 0 discriminator 1
 1032 0044 0F2C     		cmp	r4, #15
 1033 0046 F4DD     		ble	.L60
 1034              	.LBE24:
 300:sensors.c     ****     }
 301:sensors.c     ****     
 302:sensors.c     ****     console_print("\r\n");  
 1035              		.loc 1 302 0 is_stmt 1
 1036 0048 0548     		ldr	r0, .L62+8
 1037 004a FFF7FEFF 		bl	console_print
 1038              	.LVL159:
 303:sensors.c     ****     CyDelay(500);
 1039              		.loc 1 303 0
 1040 004e 4FF4FA70 		mov	r0, #500
 1041 0052 FFF7FEFF 		bl	CyDelay
 1042              	.LVL160:
 1043 0056 10BD     		pop	{r4, pc}
 1044              	.LVL161:
ARM GAS  C:\Users\MANSRO~1\AppData\Local\Temp\ccvBroNv.s 			page 26


 1045              	.L63:
 1046              		.align	2
 1047              	.L62:
 1048 0058 B8000000 		.word	.LC8
 1049 005c C0000000 		.word	.LC9
 1050 0060 8C000000 		.word	.LC4
 1051 0064 C4000000 		.word	.LC10
 1052 0068 88000000 		.word	.LC3
 1053              		.cfi_endproc
 1054              	.LFE7:
 1055              		.size	sensorsRawConsole, .-sensorsRawConsole
 1056              		.section	.text.consolecheckSensors,"ax",%progbits
 1057              		.align	2
 1058              		.global	consolecheckSensors
 1059              		.thumb
 1060              		.thumb_func
 1061              		.type	consolecheckSensors, %function
 1062              	consolecheckSensors:
 1063              	.LFB8:
 304:sensors.c     **** 
 305:sensors.c     **** 
 306:sensors.c     **** }
 307:sensors.c     **** 
 308:sensors.c     **** void consolecheckSensors(void)
 309:sensors.c     **** {
 1064              		.loc 1 309 0
 1065              		.cfi_startproc
 1066              		@ args = 0, pretend = 0, frame = 0
 1067              		@ frame_needed = 0, uses_anonymous_args = 0
 1068 0000 10B5     		push	{r4, lr}
 1069              		.cfi_def_cfa_offset 8
 1070              		.cfi_offset 4, -8
 1071              		.cfi_offset 14, -4
 310:sensors.c     ****     checkSensors(1,1);
 1072              		.loc 1 310 0
 1073 0002 0121     		movs	r1, #1
 1074 0004 0846     		mov	r0, r1
 1075 0006 FFF7FEFF 		bl	checkSensors
 1076              	.LVL162:
 311:sensors.c     ****     
 312:sensors.c     ****     //console_print("\033[2J");   // Erase the screen with the background colour and moves the curs
 313:sensors.c     ****     //console_print("\033[r");
 314:sensors.c     **** 
 315:sensors.c     ****     //console_printChr('\f');
 316:sensors.c     ****     console_print("\r\n");
 1077              		.loc 1 316 0
 1078 000a 124C     		ldr	r4, .L68
 1079 000c 2046     		mov	r0, r4
 1080 000e FFF7FEFF 		bl	console_print
 1081              	.LVL163:
 317:sensors.c     ****     console_print("#####################  Sensors ##################### ");  
 1082              		.loc 1 317 0
 1083 0012 1148     		ldr	r0, .L68+4
 1084 0014 FFF7FEFF 		bl	console_print
 1085              	.LVL164:
 318:sensors.c     ****     console_print("\r\n");
 1086              		.loc 1 318 0
ARM GAS  C:\Users\MANSRO~1\AppData\Local\Temp\ccvBroNv.s 			page 27


 1087 0018 2046     		mov	r0, r4
 1088 001a FFF7FEFF 		bl	console_print
 1089              	.LVL165:
 319:sensors.c     ****     console_print("\r\n");
 1090              		.loc 1 319 0
 1091 001e 2046     		mov	r0, r4
 1092 0020 FFF7FEFF 		bl	console_print
 1093              	.LVL166:
 1094              	.LBB25:
 320:sensors.c     **** 
 321:sensors.c     ****     for (int i = 0; i <= 15; i++)
 1095              		.loc 1 321 0
 1096 0024 0024     		movs	r4, #0
 1097 0026 0AE0     		b	.L65
 1098              	.LVL167:
 1099              	.L66:
 322:sensors.c     ****     {
 323:sensors.c     ****         console_print_int(gSensors.detectedSensors[i]);
 1100              		.loc 1 323 0 discriminator 3
 1101 0028 04F13002 		add	r2, r4, #48
 1102 002c 0B4B     		ldr	r3, .L68+8
 1103 002e 53F82200 		ldr	r0, [r3, r2, lsl #2]
 1104 0032 FFF7FEFF 		bl	console_print_int
 1105              	.LVL168:
 324:sensors.c     ****         console_print ("  ");
 1106              		.loc 1 324 0 discriminator 3
 1107 0036 0A48     		ldr	r0, .L68+12
 1108 0038 FFF7FEFF 		bl	console_print
 1109              	.LVL169:
 321:sensors.c     ****     {
 1110              		.loc 1 321 0 discriminator 3
 1111 003c 0134     		adds	r4, r4, #1
 1112              	.LVL170:
 1113              	.L65:
 321:sensors.c     ****     {
 1114              		.loc 1 321 0 is_stmt 0 discriminator 1
 1115 003e 0F2C     		cmp	r4, #15
 1116 0040 F2DD     		ble	.L66
 1117              	.LBE25:
 325:sensors.c     ****     }
 326:sensors.c     ****     
 327:sensors.c     ****     console_print("\r\n");  
 1118              		.loc 1 327 0 is_stmt 1
 1119 0042 0448     		ldr	r0, .L68
 1120 0044 FFF7FEFF 		bl	console_print
 1121              	.LVL171:
 328:sensors.c     ****     CyDelay(500);
 1122              		.loc 1 328 0
 1123 0048 4FF4FA70 		mov	r0, #500
 1124 004c FFF7FEFF 		bl	CyDelay
 1125              	.LVL172:
 1126 0050 10BD     		pop	{r4, pc}
 1127              	.LVL173:
 1128              	.L69:
 1129 0052 00BF     		.align	2
 1130              	.L68:
 1131 0054 8C000000 		.word	.LC4
ARM GAS  C:\Users\MANSRO~1\AppData\Local\Temp\ccvBroNv.s 			page 28


 1132 0058 C4000000 		.word	.LC10
 1133 005c 00000000 		.word	gSensors
 1134 0060 88000000 		.word	.LC3
 1135              		.cfi_endproc
 1136              	.LFE8:
 1137              		.size	consolecheckSensors, .-consolecheckSensors
 1138              		.global	lastValue
 1139              		.comm	btValue,24,4
 1140              		.comm	btComands,8,4
 1141              		.comm	gSensors,3456,4
 1142              		.section	.rodata.str1.4,"aMS",%progbits,1
 1143              		.align	2
 1144              	.LC0:
 1145 0000 53656E73 		.ascii	"SensorsRAWCalc: %d %d %d %d %d %d %d %d %d %d %d %d"
 1145      6F727352 
 1145      41574361 
 1145      6C633A20 
 1145      25642025 
 1146 0033 20256420 		.ascii	" %d %d %d %d \000"
 1146      25642025 
 1146      64202564 
 1146      2000
 1147 0041 000000   		.space	3
 1148              	.LC1:
 1149 0044 53656E73 		.ascii	"Sensors: %d %d %d %d %d %d %d %d %d %d %d %d %d %d "
 1149      6F72733A 
 1149      20256420 
 1149      25642025 
 1149      64202564 
 1150 0077 25642025 		.ascii	"%d %d \000"
 1150      642000
 1151 007e 0000     		.space	2
 1152              	.LC2:
 1153 0080 4E4F204C 		.ascii	"NO LINE\000"
 1153      494E4500 
 1154              	.LC3:
 1155 0088 202000   		.ascii	"  \000"
 1156 008b 00       		.space	1
 1157              	.LC4:
 1158 008c 0D0A00   		.ascii	"\015\012\000"
 1159 008f 00       		.space	1
 1160              	.LC5:
 1161 0090 206E2000 		.ascii	" n \000"
 1162              	.LC6:
 1163 0094 20202020 		.ascii	"    ########  Sensors ######## \000"
 1163      23232323 
 1163      23232323 
 1163      20205365 
 1163      6E736F72 
 1164              	.LC7:
 1165 00b4 2000     		.ascii	" \000"
 1166 00b6 0000     		.space	2
 1167              	.LC8:
 1168 00b8 1B5B324A 		.ascii	"\033[2J\000"
 1168      00
 1169 00bd 000000   		.space	3
 1170              	.LC9:
ARM GAS  C:\Users\MANSRO~1\AppData\Local\Temp\ccvBroNv.s 			page 29


 1171 00c0 1B5B7200 		.ascii	"\033[r\000"
 1172              	.LC10:
 1173 00c4 23232323 		.ascii	"#####################  Sensors ####################"
 1173      23232323 
 1173      23232323 
 1173      23232323 
 1173      23232323 
 1174 00f7 232000   		.ascii	"# \000"
 1175              		.bss
 1176              		.align	2
 1177              		.set	.LANCHOR0,. + 0
 1178              		.type	lastValue, %object
 1179              		.size	lastValue, 4
 1180              	lastValue:
 1181 0000 00000000 		.space	4
 1182              		.text
 1183              	.Letext0:
 1184              		.file 2 "c:\\program files (x86)\\cypress\\psoc creator\\4.2\\psoc creator\\import\\gnu\\arm\\5.4.
 1185              		.file 3 "c:\\program files (x86)\\cypress\\psoc creator\\4.2\\psoc creator\\import\\gnu\\arm\\5.4.
 1186              		.file 4 "sensors.h"
 1187              		.file 5 "bt_app.h"
 1188              		.file 6 "c:\\program files (x86)\\cypress\\psoc creator\\4.2\\psoc creator\\import\\gnu\\arm\\5.4.
 1189              		.file 7 "Generated_Source\\PSoC5/UART_BT.h"
 1190              		.file 8 "Generated_Source\\PSoC5/ADC_SAR.h"
 1191              		.file 9 "Generated_Source\\PSoC5/CyLib.h"
 1192              		.file 10 "log2.h"
 1193              		.file 11 "console.h"
