ARM GAS  C:\Users\MANSRO~1\AppData\Local\Temp\ccsnke3N.s 			page 1


   1              		.syntax unified
   2              		.cpu cortex-m3
   3              		.fpu softvfp
   4              		.eabi_attribute 20, 1
   5              		.eabi_attribute 21, 1
   6              		.eabi_attribute 23, 3
   7              		.eabi_attribute 24, 1
   8              		.eabi_attribute 25, 1
   9              		.eabi_attribute 26, 1
  10              		.eabi_attribute 30, 1
  11              		.eabi_attribute 34, 1
  12              		.eabi_attribute 18, 4
  13              		.thumb
  14              		.syntax unified
  15              		.file	"timer_time.c"
  16              		.text
  17              	.Ltext0:
  18              		.cfi_sections	.debug_frame
  19              		.global	__aeabi_uldivmod
  20              		.section	.text.getMillis100th,"ax",%progbits
  21              		.align	2
  22              		.thumb
  23              		.thumb_func
  24              		.type	getMillis100th, %function
  25              	getMillis100th:
  26              	.LFB4:
  27              		.file 1 "timer_time.c"
   1:timer_time.c  **** /* ========================================
   2:timer_time.c  ****  * Copyright (c) RobotuSkola, 2018-2019
   3:timer_time.c  ****  * Written by
   4:timer_time.c  ****  * - Einars Deksnis <einaarsd@gmail.com>, 2016
   5:timer_time.c  ****  * - Maris Becs <maris.becs@gmail.com>, 2016-2019
   6:timer_time.c  ****  * All Rights Reserved
   7:timer_time.c  ****  *
   8:timer_time.c  ****  * Permission to use, copy, modify, and distribute
   9:timer_time.c  ****  * this software is freely granted, provided that
  10:timer_time.c  ****  * this notice is preserved.
  11:timer_time.c  ****  * ========================================
  12:timer_time.c  **** */
  13:timer_time.c  **** #include <project.h>
  14:timer_time.c  **** #include "timer_time.h"
  15:timer_time.c  **** #include "log2.h"
  16:timer_time.c  **** 
  17:timer_time.c  **** //=============================================================================
  18:timer_time.c  **** // Private defines and typedefs
  19:timer_time.c  **** //=============================================================================
  20:timer_time.c  **** #define TIMER_TC_VALUE      (50000)   // 0.5 sec at 100 kHz clock
  21:timer_time.c  **** 
  22:timer_time.c  **** const uint32_t SECOND = 1000u;
  23:timer_time.c  **** 
  24:timer_time.c  **** //=============================================================================
  25:timer_time.c  **** // Private function declarations
  26:timer_time.c  **** //=============================================================================
  27:timer_time.c  **** static uint16_t getMillis100th(void);
  28:timer_time.c  **** CY_ISR_PROTO(timer_tc_handler);
  29:timer_time.c  **** 
  30:timer_time.c  **** //=============================================================================
ARM GAS  C:\Users\MANSRO~1\AppData\Local\Temp\ccsnke3N.s 			page 2


  31:timer_time.c  **** // Private data definitions
  32:timer_time.c  **** //=============================================================================
  33:timer_time.c  **** volatile static uint64_t s_roughMillis100th = 0u; // +/- 500 ms
  34:timer_time.c  **** volatile static uint32_t s_roughMicros = 0u;
  35:timer_time.c  **** 
  36:timer_time.c  **** //=============================================================================
  37:timer_time.c  **** // Public function definitions
  38:timer_time.c  **** //=============================================================================
  39:timer_time.c  **** void time_Start(void)
  40:timer_time.c  **** {
  41:timer_time.c  ****     TIMER_MS_WritePeriod(TIMER_TC_VALUE);
  42:timer_time.c  ****     TIMER_MS_WriteCounter(TIMER_TC_VALUE);
  43:timer_time.c  ****     TIMER_MS_Start();
  44:timer_time.c  ****     isr_500ms_StartEx(timer_tc_handler);
  45:timer_time.c  ****     while (0 == TIMER_MS_ReadCounter() && TIMER_TC_VALUE <= TIMER_MS_ReadCounter()) {
  46:timer_time.c  ****         // wait an instant till timer starts counting
  47:timer_time.c  ****     };
  48:timer_time.c  **** }
  49:timer_time.c  **** 
  50:timer_time.c  **** void time_Reset(void)
  51:timer_time.c  **** {
  52:timer_time.c  ****     const uint16_t counter = TIMER_MS_ReadCounter();
  53:timer_time.c  ****     s_roughMillis100th = -(TIMER_TC_VALUE - counter);
  54:timer_time.c  ****     s_roughMicros = -(TIMER_TC_VALUE - counter);
  55:timer_time.c  **** 
  56:timer_time.c  ****     log_bt("@");  // log fight start time in rs_logger
  57:timer_time.c  **** }
  58:timer_time.c  **** 
  59:timer_time.c  **** uint32_t getMillis(void)
  60:timer_time.c  **** {
  61:timer_time.c  ****     // NB: Timer actually counts down from TIMER_TC_VALUE to zero
  62:timer_time.c  ****     return ((s_roughMillis100th + (TIMER_TC_VALUE - TIMER_MS_ReadCounter())) / 100);
  63:timer_time.c  **** }
  64:timer_time.c  **** 
  65:timer_time.c  **** uint16_t getMillis100th(void)
  66:timer_time.c  **** {
  28              		.loc 1 66 0
  29              		.cfi_startproc
  30              		@ args = 0, pretend = 0, frame = 0
  31              		@ frame_needed = 0, uses_anonymous_args = 0
  32 0000 2DE93048 		push	{r4, r5, fp, lr}
  33              		.cfi_def_cfa_offset 16
  34              		.cfi_offset 4, -16
  35              		.cfi_offset 5, -12
  36              		.cfi_offset 11, -8
  37              		.cfi_offset 14, -4
  67:timer_time.c  ****     // NB: Timer actually counts down from TIMER_TC_VALUE to zero
  68:timer_time.c  ****     return ((s_roughMillis100th + (TIMER_TC_VALUE - TIMER_MS_ReadCounter())) % 100);
  38              		.loc 1 68 0
  39 0004 FFF7FEFF 		bl	TIMER_MS_ReadCounter
  40              	.LVL0:
  41 0008 C0F54340 		rsb	r0, r0, #49920
  42 000c 5030     		adds	r0, r0, #80
  43 000e 084B     		ldr	r3, .L3
  44 0010 D3E90045 		ldrd	r4, [r3]
  45 0014 6422     		movs	r2, #100
  46 0016 0023     		movs	r3, #0
ARM GAS  C:\Users\MANSRO~1\AppData\Local\Temp\ccsnke3N.s 			page 3


  47 0018 14EB000B 		adds	fp, r4, r0
  48 001c 45EBE07C 		adc	ip, r5, r0, asr #31
  49 0020 5846     		mov	r0, fp
  50 0022 6146     		mov	r1, ip
  51 0024 FFF7FEFF 		bl	__aeabi_uldivmod
  52              	.LVL1:
  69:timer_time.c  **** }
  53              		.loc 1 69 0
  54 0028 90B2     		uxth	r0, r2
  55 002a BDE83088 		pop	{r4, r5, fp, pc}
  56              	.L4:
  57 002e 00BF     		.align	2
  58              	.L3:
  59 0030 00000000 		.word	.LANCHOR0
  60              		.cfi_endproc
  61              	.LFE4:
  62              		.size	getMillis100th, .-getMillis100th
  63              		.section	.text.timer_tc_handler,"ax",%progbits
  64              		.align	2
  65              		.global	timer_tc_handler
  66              		.thumb
  67              		.thumb_func
  68              		.type	timer_tc_handler, %function
  69              	timer_tc_handler:
  70              	.LFB7:
  70:timer_time.c  **** 
  71:timer_time.c  **** // NB: Will overflow after approximately 70 minutes!
  72:timer_time.c  **** //     Resolution is 10 microseconds!
  73:timer_time.c  **** uint32_t getMicros(void)
  74:timer_time.c  **** {
  75:timer_time.c  ****     return ((s_roughMicros + (TIMER_TC_VALUE - TIMER_MS_ReadCounter())) * 10);
  76:timer_time.c  **** }
  77:timer_time.c  **** 
  78:timer_time.c  **** psoc_time_t getTime(void)
  79:timer_time.c  **** {
  80:timer_time.c  ****     static psoc_time_t time = {0u, 0u, 0u};
  81:timer_time.c  **** 
  82:timer_time.c  ****     const uint32_t millis = getMillis();
  83:timer_time.c  **** 	time.sec = millis / SECOND;
  84:timer_time.c  **** 	time.ms = millis % SECOND;
  85:timer_time.c  ****     time.ms_100th = getMillis100th();
  86:timer_time.c  **** 
  87:timer_time.c  ****     return time;
  88:timer_time.c  **** }
  89:timer_time.c  **** 
  90:timer_time.c  **** //=============================================================================
  91:timer_time.c  **** // Private function definitions
  92:timer_time.c  **** //=============================================================================
  93:timer_time.c  **** CY_ISR(timer_tc_handler)
  94:timer_time.c  **** {
  71              		.loc 1 94 0
  72              		.cfi_startproc
  73              		@ args = 0, pretend = 0, frame = 0
  74              		@ frame_needed = 0, uses_anonymous_args = 0
  75 0000 38B5     		push	{r3, r4, r5, lr}
  76              		.cfi_def_cfa_offset 16
  77              		.cfi_offset 3, -16
ARM GAS  C:\Users\MANSRO~1\AppData\Local\Temp\ccsnke3N.s 			page 4


  78              		.cfi_offset 4, -12
  79              		.cfi_offset 5, -8
  80              		.cfi_offset 14, -4
  95:timer_time.c  ****     s_roughMillis100th += TIMER_TC_VALUE;
  81              		.loc 1 95 0
  82 0002 0A4A     		ldr	r2, .L7
  83 0004 D2E90045 		ldrd	r4, [r2]
  84 0008 4CF25030 		movw	r0, #50000
  85 000c 0021     		movs	r1, #0
  86 000e 0019     		adds	r0, r0, r4
  87 0010 6941     		adcs	r1, r1, r5
  88 0012 C2E90001 		strd	r0, [r2]
  96:timer_time.c  ****     s_roughMicros += TIMER_TC_VALUE;
  89              		.loc 1 96 0
  90 0016 9368     		ldr	r3, [r2, #8]
  91 0018 03F54343 		add	r3, r3, #49920
  92 001c 5033     		adds	r3, r3, #80
  93 001e 9360     		str	r3, [r2, #8]
  97:timer_time.c  ****     TIMER_MS_ReadStatusRegister();
  94              		.loc 1 97 0
  95 0020 FFF7FEFF 		bl	TIMER_MS_ReadStatusRegister
  96              	.LVL2:
  98:timer_time.c  ****     isr_500ms_ClearPending();
  97              		.loc 1 98 0
  98 0024 FFF7FEFF 		bl	isr_500ms_ClearPending
  99              	.LVL3:
 100 0028 38BD     		pop	{r3, r4, r5, pc}
 101              	.L8:
 102 002a 00BF     		.align	2
 103              	.L7:
 104 002c 00000000 		.word	.LANCHOR0
 105              		.cfi_endproc
 106              	.LFE7:
 107              		.size	timer_tc_handler, .-timer_tc_handler
 108              		.section	.text.time_Start,"ax",%progbits
 109              		.align	2
 110              		.global	time_Start
 111              		.thumb
 112              		.thumb_func
 113              		.type	time_Start, %function
 114              	time_Start:
 115              	.LFB1:
  40:timer_time.c  ****     TIMER_MS_WritePeriod(TIMER_TC_VALUE);
 116              		.loc 1 40 0
 117              		.cfi_startproc
 118              		@ args = 0, pretend = 0, frame = 0
 119              		@ frame_needed = 0, uses_anonymous_args = 0
 120 0000 08B5     		push	{r3, lr}
 121              		.cfi_def_cfa_offset 8
 122              		.cfi_offset 3, -8
 123              		.cfi_offset 14, -4
  41:timer_time.c  ****     TIMER_MS_WriteCounter(TIMER_TC_VALUE);
 124              		.loc 1 41 0
 125 0002 4CF25030 		movw	r0, #50000
 126 0006 FFF7FEFF 		bl	TIMER_MS_WritePeriod
 127              	.LVL4:
  42:timer_time.c  ****     TIMER_MS_Start();
ARM GAS  C:\Users\MANSRO~1\AppData\Local\Temp\ccsnke3N.s 			page 5


 128              		.loc 1 42 0
 129 000a 4CF25030 		movw	r0, #50000
 130 000e FFF7FEFF 		bl	TIMER_MS_WriteCounter
 131              	.LVL5:
  43:timer_time.c  ****     isr_500ms_StartEx(timer_tc_handler);
 132              		.loc 1 43 0
 133 0012 FFF7FEFF 		bl	TIMER_MS_Start
 134              	.LVL6:
  44:timer_time.c  ****     while (0 == TIMER_MS_ReadCounter() && TIMER_TC_VALUE <= TIMER_MS_ReadCounter()) {
 135              		.loc 1 44 0
 136 0016 0648     		ldr	r0, .L13
 137 0018 FFF7FEFF 		bl	isr_500ms_StartEx
 138              	.LVL7:
 139              	.L11:
  45:timer_time.c  ****         // wait an instant till timer starts counting
 140              		.loc 1 45 0 discriminator 2
 141 001c FFF7FEFF 		bl	TIMER_MS_ReadCounter
 142              	.LVL8:
 143 0020 28B9     		cbnz	r0, .L9
  45:timer_time.c  ****         // wait an instant till timer starts counting
 144              		.loc 1 45 0 is_stmt 0 discriminator 1
 145 0022 FFF7FEFF 		bl	TIMER_MS_ReadCounter
 146              	.LVL9:
 147 0026 4CF24F33 		movw	r3, #49999
 148 002a 9842     		cmp	r0, r3
 149 002c F6D8     		bhi	.L11
 150              	.L9:
 151 002e 08BD     		pop	{r3, pc}
 152              	.L14:
 153              		.align	2
 154              	.L13:
 155 0030 00000000 		.word	timer_tc_handler
 156              		.cfi_endproc
 157              	.LFE1:
 158              		.size	time_Start, .-time_Start
 159              		.section	.text.time_Reset,"ax",%progbits
 160              		.align	2
 161              		.global	time_Reset
 162              		.thumb
 163              		.thumb_func
 164              		.type	time_Reset, %function
 165              	time_Reset:
 166              	.LFB2:
  51:timer_time.c  ****     const uint16_t counter = TIMER_MS_ReadCounter();
 167              		.loc 1 51 0 is_stmt 1
 168              		.cfi_startproc
 169              		@ args = 0, pretend = 0, frame = 0
 170              		@ frame_needed = 0, uses_anonymous_args = 0
 171 0000 38B5     		push	{r3, r4, r5, lr}
 172              		.cfi_def_cfa_offset 16
 173              		.cfi_offset 3, -16
 174              		.cfi_offset 4, -12
 175              		.cfi_offset 5, -8
 176              		.cfi_offset 14, -4
  52:timer_time.c  ****     s_roughMillis100th = -(TIMER_TC_VALUE - counter);
 177              		.loc 1 52 0
 178 0002 FFF7FEFF 		bl	TIMER_MS_ReadCounter
ARM GAS  C:\Users\MANSRO~1\AppData\Local\Temp\ccsnke3N.s 			page 6


 179              	.LVL10:
  53:timer_time.c  ****     s_roughMicros = -(TIMER_TC_VALUE - counter);
 180              		.loc 1 53 0
 181 0006 A0F54340 		sub	r0, r0, #49920
 182              	.LVL11:
 183 000a 5038     		subs	r0, r0, #80
 184 000c 0446     		mov	r4, r0
 185 000e C517     		asrs	r5, r0, #31
 186 0010 044B     		ldr	r3, .L17
 187 0012 C3E90045 		strd	r4, [r3]
  54:timer_time.c  **** 
 188              		.loc 1 54 0
 189 0016 9860     		str	r0, [r3, #8]
  56:timer_time.c  **** }
 190              		.loc 1 56 0
 191 0018 0349     		ldr	r1, .L17+4
 192 001a 0220     		movs	r0, #2
 193 001c FFF7FEFF 		bl	log_log
 194              	.LVL12:
 195 0020 38BD     		pop	{r3, r4, r5, pc}
 196              	.L18:
 197 0022 00BF     		.align	2
 198              	.L17:
 199 0024 00000000 		.word	.LANCHOR0
 200 0028 00000000 		.word	.LC0
 201              		.cfi_endproc
 202              	.LFE2:
 203              		.size	time_Reset, .-time_Reset
 204              		.section	.text.getMillis,"ax",%progbits
 205              		.align	2
 206              		.global	getMillis
 207              		.thumb
 208              		.thumb_func
 209              		.type	getMillis, %function
 210              	getMillis:
 211              	.LFB3:
  60:timer_time.c  ****     // NB: Timer actually counts down from TIMER_TC_VALUE to zero
 212              		.loc 1 60 0
 213              		.cfi_startproc
 214              		@ args = 0, pretend = 0, frame = 0
 215              		@ frame_needed = 0, uses_anonymous_args = 0
 216 0000 2DE93048 		push	{r4, r5, fp, lr}
 217              		.cfi_def_cfa_offset 16
 218              		.cfi_offset 4, -16
 219              		.cfi_offset 5, -12
 220              		.cfi_offset 11, -8
 221              		.cfi_offset 14, -4
  62:timer_time.c  **** }
 222              		.loc 1 62 0
 223 0004 FFF7FEFF 		bl	TIMER_MS_ReadCounter
 224              	.LVL13:
 225 0008 C0F54340 		rsb	r0, r0, #49920
 226 000c 5030     		adds	r0, r0, #80
 227 000e 074B     		ldr	r3, .L21
 228 0010 D3E90045 		ldrd	r4, [r3]
 229 0014 6422     		movs	r2, #100
 230 0016 0023     		movs	r3, #0
ARM GAS  C:\Users\MANSRO~1\AppData\Local\Temp\ccsnke3N.s 			page 7


 231 0018 14EB000B 		adds	fp, r4, r0
 232 001c 45EBE07C 		adc	ip, r5, r0, asr #31
 233 0020 5846     		mov	r0, fp
 234 0022 6146     		mov	r1, ip
 235 0024 FFF7FEFF 		bl	__aeabi_uldivmod
 236              	.LVL14:
  63:timer_time.c  **** 
 237              		.loc 1 63 0
 238 0028 BDE83088 		pop	{r4, r5, fp, pc}
 239              	.L22:
 240              		.align	2
 241              	.L21:
 242 002c 00000000 		.word	.LANCHOR0
 243              		.cfi_endproc
 244              	.LFE3:
 245              		.size	getMillis, .-getMillis
 246              		.section	.text.getMicros,"ax",%progbits
 247              		.align	2
 248              		.global	getMicros
 249              		.thumb
 250              		.thumb_func
 251              		.type	getMicros, %function
 252              	getMicros:
 253              	.LFB5:
  74:timer_time.c  ****     return ((s_roughMicros + (TIMER_TC_VALUE - TIMER_MS_ReadCounter())) * 10);
 254              		.loc 1 74 0
 255              		.cfi_startproc
 256              		@ args = 0, pretend = 0, frame = 0
 257              		@ frame_needed = 0, uses_anonymous_args = 0
 258 0000 10B5     		push	{r4, lr}
 259              		.cfi_def_cfa_offset 8
 260              		.cfi_offset 4, -8
 261              		.cfi_offset 14, -4
  75:timer_time.c  **** }
 262              		.loc 1 75 0
 263 0002 064B     		ldr	r3, .L25
 264 0004 9C68     		ldr	r4, [r3, #8]
 265 0006 FFF7FEFF 		bl	TIMER_MS_ReadCounter
 266              	.LVL15:
 267 000a 201A     		subs	r0, r4, r0
 268 000c 00EB8003 		add	r3, r0, r0, lsl #2
 269 0010 5800     		lsls	r0, r3, #1
  76:timer_time.c  **** 
 270              		.loc 1 76 0
 271 0012 00F5F420 		add	r0, r0, #499712
 272 0016 00F59070 		add	r0, r0, #288
 273 001a 10BD     		pop	{r4, pc}
 274              	.L26:
 275              		.align	2
 276              	.L25:
 277 001c 00000000 		.word	.LANCHOR0
 278              		.cfi_endproc
 279              	.LFE5:
 280              		.size	getMicros, .-getMicros
 281              		.section	.text.getTime,"ax",%progbits
 282              		.align	2
 283              		.global	getTime
ARM GAS  C:\Users\MANSRO~1\AppData\Local\Temp\ccsnke3N.s 			page 8


 284              		.thumb
 285              		.thumb_func
 286              		.type	getTime, %function
 287              	getTime:
 288              	.LFB6:
  79:timer_time.c  ****     static psoc_time_t time = {0u, 0u, 0u};
 289              		.loc 1 79 0
 290              		.cfi_startproc
 291              		@ args = 0, pretend = 0, frame = 0
 292              		@ frame_needed = 0, uses_anonymous_args = 0
 293              	.LVL16:
 294 0000 38B5     		push	{r3, r4, r5, lr}
 295              		.cfi_def_cfa_offset 16
 296              		.cfi_offset 3, -16
 297              		.cfi_offset 4, -12
 298              		.cfi_offset 5, -8
 299              		.cfi_offset 14, -4
 300 0002 0546     		mov	r5, r0
  82:timer_time.c  **** 	time.sec = millis / SECOND;
 301              		.loc 1 82 0
 302 0004 FFF7FEFF 		bl	getMillis
 303              	.LVL17:
  83:timer_time.c  **** 	time.ms = millis % SECOND;
 304              		.loc 1 83 0
 305 0008 0A4B     		ldr	r3, .L29
 306 000a A3FB0023 		umull	r2, r3, r3, r0
 307 000e 9B09     		lsrs	r3, r3, #6
 308 0010 094C     		ldr	r4, .L29+4
 309 0012 A381     		strh	r3, [r4, #12]	@ movhi
  84:timer_time.c  ****     time.ms_100th = getMillis100th();
 310              		.loc 1 84 0
 311 0014 4FF47A72 		mov	r2, #1000
 312 0018 02FB1302 		mls	r2, r2, r3, r0
 313 001c E281     		strh	r2, [r4, #14]	@ movhi
  85:timer_time.c  **** 
 314              		.loc 1 85 0
 315 001e FFF7FEFF 		bl	getMillis100th
 316              	.LVL18:
 317 0022 2082     		strh	r0, [r4, #16]	@ movhi
  87:timer_time.c  **** }
 318              		.loc 1 87 0
 319 0024 54F80C0F 		ldr	r0, [r4, #12]!	@ unaligned
 320 0028 2860     		str	r0, [r5]	@ unaligned
 321 002a A388     		ldrh	r3, [r4, #4]	@ unaligned
 322 002c AB80     		strh	r3, [r5, #4]	@ unaligned
  88:timer_time.c  **** 
 323              		.loc 1 88 0
 324 002e 2846     		mov	r0, r5
 325 0030 38BD     		pop	{r3, r4, r5, pc}
 326              	.LVL19:
 327              	.L30:
 328 0032 00BF     		.align	2
 329              	.L29:
 330 0034 D34D6210 		.word	274877907
 331 0038 00000000 		.word	.LANCHOR0
 332              		.cfi_endproc
 333              	.LFE6:
ARM GAS  C:\Users\MANSRO~1\AppData\Local\Temp\ccsnke3N.s 			page 9


 334              		.size	getTime, .-getTime
 335              		.global	SECOND
 336              		.section	.rodata
 337              		.align	2
 338              		.type	SECOND, %object
 339              		.size	SECOND, 4
 340              	SECOND:
 341 0000 E8030000 		.word	1000
 342              		.section	.rodata.str1.4,"aMS",%progbits,1
 343              		.align	2
 344              	.LC0:
 345 0000 4000     		.ascii	"@\000"
 346              		.bss
 347              		.align	3
 348              		.set	.LANCHOR0,. + 0
 349              		.type	s_roughMillis100th, %object
 350              		.size	s_roughMillis100th, 8
 351              	s_roughMillis100th:
 352 0000 00000000 		.space	8
 352      00000000 
 353              		.type	s_roughMicros, %object
 354              		.size	s_roughMicros, 4
 355              	s_roughMicros:
 356 0008 00000000 		.space	4
 357              		.type	time.7322, %object
 358              		.size	time.7322, 6
 359              	time.7322:
 360 000c 00000000 		.space	6
 360      0000
 361              		.text
 362              	.Letext0:
 363              		.file 2 "c:\\program files (x86)\\cypress\\psoc creator\\4.2\\psoc creator\\import\\gnu\\arm\\5.4.
 364              		.file 3 "c:\\program files (x86)\\cypress\\psoc creator\\4.2\\psoc creator\\import\\gnu\\arm\\5.4.
 365              		.file 4 "timer_time.h"
 366              		.file 5 "Generated_Source\\PSoC5/TIMER_MS.h"
 367              		.file 6 "Generated_Source\\PSoC5/isr_500ms.h"
 368              		.file 7 "log2.h"
