ARM GAS  C:\Users\MANSRO~1\AppData\Local\Temp\ccRc1hfX.s 			page 1


   1              		.syntax unified
   2              		.cpu cortex-m3
   3              		.fpu softvfp
   4              		.eabi_attribute 20, 1
   5              		.eabi_attribute 21, 1
   6              		.eabi_attribute 23, 3
   7              		.eabi_attribute 24, 1
   8              		.eabi_attribute 25, 1
   9              		.eabi_attribute 26, 1
  10              		.eabi_attribute 30, 1
  11              		.eabi_attribute 34, 1
  12              		.eabi_attribute 18, 4
  13              		.thumb
  14              		.syntax unified
  15              		.file	"TIMER_MS.c"
  16              		.text
  17              	.Ltext0:
  18              		.cfi_sections	.debug_frame
  19              		.section	.text.TIMER_MS_Enable,"ax",%progbits
  20              		.align	2
  21              		.global	TIMER_MS_Enable
  22              		.thumb
  23              		.thumb_func
  24              		.type	TIMER_MS_Enable, %function
  25              	TIMER_MS_Enable:
  26              	.LFB1:
  27              		.file 1 "Generated_Source\\PSoC5\\TIMER_MS.c"
   1:Generated_Source\PSoC5/TIMER_MS.c **** /*******************************************************************************
   2:Generated_Source\PSoC5/TIMER_MS.c **** * File Name: TIMER_MS.c
   3:Generated_Source\PSoC5/TIMER_MS.c **** * Version 2.80
   4:Generated_Source\PSoC5/TIMER_MS.c **** *
   5:Generated_Source\PSoC5/TIMER_MS.c **** * Description:
   6:Generated_Source\PSoC5/TIMER_MS.c **** *  The Timer component consists of a 8, 16, 24 or 32-bit timer with
   7:Generated_Source\PSoC5/TIMER_MS.c **** *  a selectable period between 2 and 2^Width - 1.  The timer may free run
   8:Generated_Source\PSoC5/TIMER_MS.c **** *  or be used as a capture timer as well.  The capture can be initiated
   9:Generated_Source\PSoC5/TIMER_MS.c **** *  by a positive or negative edge signal as well as via software.
  10:Generated_Source\PSoC5/TIMER_MS.c **** *  A trigger input can be programmed to enable the timer on rising edge
  11:Generated_Source\PSoC5/TIMER_MS.c **** *  falling edge, either edge or continous run.
  12:Generated_Source\PSoC5/TIMER_MS.c **** *  Interrupts may be generated due to a terminal count condition
  13:Generated_Source\PSoC5/TIMER_MS.c **** *  or a capture event.
  14:Generated_Source\PSoC5/TIMER_MS.c **** *
  15:Generated_Source\PSoC5/TIMER_MS.c **** * Note:
  16:Generated_Source\PSoC5/TIMER_MS.c **** *
  17:Generated_Source\PSoC5/TIMER_MS.c **** ********************************************************************************
  18:Generated_Source\PSoC5/TIMER_MS.c **** * Copyright 2008-2017, Cypress Semiconductor Corporation.  All rights reserved.
  19:Generated_Source\PSoC5/TIMER_MS.c **** * You may use this file only in accordance with the license, terms, conditions,
  20:Generated_Source\PSoC5/TIMER_MS.c **** * disclaimers, and limitations in the end user license agreement accompanying
  21:Generated_Source\PSoC5/TIMER_MS.c **** * the software package with which this file was provided.
  22:Generated_Source\PSoC5/TIMER_MS.c **** ********************************************************************************/
  23:Generated_Source\PSoC5/TIMER_MS.c **** 
  24:Generated_Source\PSoC5/TIMER_MS.c **** #include "TIMER_MS.h"
  25:Generated_Source\PSoC5/TIMER_MS.c **** 
  26:Generated_Source\PSoC5/TIMER_MS.c **** uint8 TIMER_MS_initVar = 0u;
  27:Generated_Source\PSoC5/TIMER_MS.c **** 
  28:Generated_Source\PSoC5/TIMER_MS.c **** 
  29:Generated_Source\PSoC5/TIMER_MS.c **** /*******************************************************************************
  30:Generated_Source\PSoC5/TIMER_MS.c **** * Function Name: TIMER_MS_Init
ARM GAS  C:\Users\MANSRO~1\AppData\Local\Temp\ccRc1hfX.s 			page 2


  31:Generated_Source\PSoC5/TIMER_MS.c **** ********************************************************************************
  32:Generated_Source\PSoC5/TIMER_MS.c **** *
  33:Generated_Source\PSoC5/TIMER_MS.c **** * Summary:
  34:Generated_Source\PSoC5/TIMER_MS.c **** *  Initialize to the schematic state
  35:Generated_Source\PSoC5/TIMER_MS.c **** *
  36:Generated_Source\PSoC5/TIMER_MS.c **** * Parameters:
  37:Generated_Source\PSoC5/TIMER_MS.c **** *  void
  38:Generated_Source\PSoC5/TIMER_MS.c **** *
  39:Generated_Source\PSoC5/TIMER_MS.c **** * Return:
  40:Generated_Source\PSoC5/TIMER_MS.c **** *  void
  41:Generated_Source\PSoC5/TIMER_MS.c **** *
  42:Generated_Source\PSoC5/TIMER_MS.c **** *******************************************************************************/
  43:Generated_Source\PSoC5/TIMER_MS.c **** void TIMER_MS_Init(void) 
  44:Generated_Source\PSoC5/TIMER_MS.c **** {
  45:Generated_Source\PSoC5/TIMER_MS.c ****     #if(!TIMER_MS_UsingFixedFunction)
  46:Generated_Source\PSoC5/TIMER_MS.c ****             /* Interrupt State Backup for Critical Region*/
  47:Generated_Source\PSoC5/TIMER_MS.c ****             uint8 TIMER_MS_interruptState;
  48:Generated_Source\PSoC5/TIMER_MS.c ****     #endif /* Interrupt state back up for Fixed Function only */
  49:Generated_Source\PSoC5/TIMER_MS.c **** 
  50:Generated_Source\PSoC5/TIMER_MS.c ****     #if (TIMER_MS_UsingFixedFunction)
  51:Generated_Source\PSoC5/TIMER_MS.c ****         /* Clear all bits but the enable bit (if it's already set) for Timer operation */
  52:Generated_Source\PSoC5/TIMER_MS.c ****         TIMER_MS_CONTROL &= TIMER_MS_CTRL_ENABLE;
  53:Generated_Source\PSoC5/TIMER_MS.c **** 
  54:Generated_Source\PSoC5/TIMER_MS.c ****         /* Clear the mode bits for continuous run mode */
  55:Generated_Source\PSoC5/TIMER_MS.c ****         #if (CY_PSOC5A)
  56:Generated_Source\PSoC5/TIMER_MS.c ****             TIMER_MS_CONTROL2 &= ((uint8)(~TIMER_MS_CTRL_MODE_MASK));
  57:Generated_Source\PSoC5/TIMER_MS.c ****         #endif /* Clear bits in CONTROL2 only in PSOC5A */
  58:Generated_Source\PSoC5/TIMER_MS.c **** 
  59:Generated_Source\PSoC5/TIMER_MS.c ****         #if (CY_PSOC3 || CY_PSOC5LP)
  60:Generated_Source\PSoC5/TIMER_MS.c ****             TIMER_MS_CONTROL3 &= ((uint8)(~TIMER_MS_CTRL_MODE_MASK));
  61:Generated_Source\PSoC5/TIMER_MS.c ****         #endif /* CONTROL3 register exists only in PSoC3 OR PSoC5LP */
  62:Generated_Source\PSoC5/TIMER_MS.c **** 
  63:Generated_Source\PSoC5/TIMER_MS.c ****         /* Check if One Shot mode is enabled i.e. RunMode !=0*/
  64:Generated_Source\PSoC5/TIMER_MS.c ****         #if (TIMER_MS_RunModeUsed != 0x0u)
  65:Generated_Source\PSoC5/TIMER_MS.c ****             /* Set 3rd bit of Control register to enable one shot mode */
  66:Generated_Source\PSoC5/TIMER_MS.c ****             TIMER_MS_CONTROL |= 0x04u;
  67:Generated_Source\PSoC5/TIMER_MS.c ****         #endif /* One Shot enabled only when RunModeUsed is not Continuous*/
  68:Generated_Source\PSoC5/TIMER_MS.c **** 
  69:Generated_Source\PSoC5/TIMER_MS.c ****         #if (TIMER_MS_RunModeUsed == 2)
  70:Generated_Source\PSoC5/TIMER_MS.c ****             #if (CY_PSOC5A)
  71:Generated_Source\PSoC5/TIMER_MS.c ****                 /* Set last 2 bits of control2 register if one shot(halt on
  72:Generated_Source\PSoC5/TIMER_MS.c ****                 interrupt) is enabled*/
  73:Generated_Source\PSoC5/TIMER_MS.c ****                 TIMER_MS_CONTROL2 |= 0x03u;
  74:Generated_Source\PSoC5/TIMER_MS.c ****             #endif /* Set One-Shot Halt on Interrupt bit in CONTROL2 for PSoC5A */
  75:Generated_Source\PSoC5/TIMER_MS.c **** 
  76:Generated_Source\PSoC5/TIMER_MS.c ****             #if (CY_PSOC3 || CY_PSOC5LP)
  77:Generated_Source\PSoC5/TIMER_MS.c ****                 /* Set last 2 bits of control3 register if one shot(halt on
  78:Generated_Source\PSoC5/TIMER_MS.c ****                 interrupt) is enabled*/
  79:Generated_Source\PSoC5/TIMER_MS.c ****                 TIMER_MS_CONTROL3 |= 0x03u;
  80:Generated_Source\PSoC5/TIMER_MS.c ****             #endif /* Set One-Shot Halt on Interrupt bit in CONTROL3 for PSoC3 or PSoC5LP */
  81:Generated_Source\PSoC5/TIMER_MS.c **** 
  82:Generated_Source\PSoC5/TIMER_MS.c ****         #endif /* Remove section if One Shot Halt on Interrupt is not enabled */
  83:Generated_Source\PSoC5/TIMER_MS.c **** 
  84:Generated_Source\PSoC5/TIMER_MS.c ****         #if (TIMER_MS_UsingHWEnable != 0)
  85:Generated_Source\PSoC5/TIMER_MS.c ****             #if (CY_PSOC5A)
  86:Generated_Source\PSoC5/TIMER_MS.c ****                 /* Set the default Run Mode of the Timer to Continuous */
  87:Generated_Source\PSoC5/TIMER_MS.c ****                 TIMER_MS_CONTROL2 |= TIMER_MS_CTRL_MODE_PULSEWIDTH;
ARM GAS  C:\Users\MANSRO~1\AppData\Local\Temp\ccRc1hfX.s 			page 3


  88:Generated_Source\PSoC5/TIMER_MS.c ****             #endif /* Set Continuous Run Mode in CONTROL2 for PSoC5A */
  89:Generated_Source\PSoC5/TIMER_MS.c **** 
  90:Generated_Source\PSoC5/TIMER_MS.c ****             #if (CY_PSOC3 || CY_PSOC5LP)
  91:Generated_Source\PSoC5/TIMER_MS.c ****                 /* Clear and Set ROD and COD bits of CFG2 register */
  92:Generated_Source\PSoC5/TIMER_MS.c ****                 TIMER_MS_CONTROL3 &= ((uint8)(~TIMER_MS_CTRL_RCOD_MASK));
  93:Generated_Source\PSoC5/TIMER_MS.c ****                 TIMER_MS_CONTROL3 |= TIMER_MS_CTRL_RCOD;
  94:Generated_Source\PSoC5/TIMER_MS.c **** 
  95:Generated_Source\PSoC5/TIMER_MS.c ****                 /* Clear and Enable the HW enable bit in CFG2 register */
  96:Generated_Source\PSoC5/TIMER_MS.c ****                 TIMER_MS_CONTROL3 &= ((uint8)(~TIMER_MS_CTRL_ENBL_MASK));
  97:Generated_Source\PSoC5/TIMER_MS.c ****                 TIMER_MS_CONTROL3 |= TIMER_MS_CTRL_ENBL;
  98:Generated_Source\PSoC5/TIMER_MS.c **** 
  99:Generated_Source\PSoC5/TIMER_MS.c ****                 /* Set the default Run Mode of the Timer to Continuous */
 100:Generated_Source\PSoC5/TIMER_MS.c ****                 TIMER_MS_CONTROL3 |= TIMER_MS_CTRL_MODE_CONTINUOUS;
 101:Generated_Source\PSoC5/TIMER_MS.c ****             #endif /* Set Continuous Run Mode in CONTROL3 for PSoC3ES3 or PSoC5A */
 102:Generated_Source\PSoC5/TIMER_MS.c **** 
 103:Generated_Source\PSoC5/TIMER_MS.c ****         #endif /* Configure Run Mode with hardware enable */
 104:Generated_Source\PSoC5/TIMER_MS.c **** 
 105:Generated_Source\PSoC5/TIMER_MS.c ****         /* Clear and Set SYNCTC and SYNCCMP bits of RT1 register */
 106:Generated_Source\PSoC5/TIMER_MS.c ****         TIMER_MS_RT1 &= ((uint8)(~TIMER_MS_RT1_MASK));
 107:Generated_Source\PSoC5/TIMER_MS.c ****         TIMER_MS_RT1 |= TIMER_MS_SYNC;
 108:Generated_Source\PSoC5/TIMER_MS.c **** 
 109:Generated_Source\PSoC5/TIMER_MS.c ****         /*Enable DSI Sync all all inputs of the Timer*/
 110:Generated_Source\PSoC5/TIMER_MS.c ****         TIMER_MS_RT1 &= ((uint8)(~TIMER_MS_SYNCDSI_MASK));
 111:Generated_Source\PSoC5/TIMER_MS.c ****         TIMER_MS_RT1 |= TIMER_MS_SYNCDSI_EN;
 112:Generated_Source\PSoC5/TIMER_MS.c **** 
 113:Generated_Source\PSoC5/TIMER_MS.c ****         /* Set the IRQ to use the status register interrupts */
 114:Generated_Source\PSoC5/TIMER_MS.c ****         TIMER_MS_CONTROL2 |= TIMER_MS_CTRL2_IRQ_SEL;
 115:Generated_Source\PSoC5/TIMER_MS.c ****     #endif /* Configuring registers of fixed function implementation */
 116:Generated_Source\PSoC5/TIMER_MS.c **** 
 117:Generated_Source\PSoC5/TIMER_MS.c ****     /* Set Initial values from Configuration */
 118:Generated_Source\PSoC5/TIMER_MS.c ****     TIMER_MS_WritePeriod(TIMER_MS_INIT_PERIOD);
 119:Generated_Source\PSoC5/TIMER_MS.c ****     TIMER_MS_WriteCounter(TIMER_MS_INIT_PERIOD);
 120:Generated_Source\PSoC5/TIMER_MS.c **** 
 121:Generated_Source\PSoC5/TIMER_MS.c ****     #if (TIMER_MS_UsingHWCaptureCounter)/* Capture counter is enabled */
 122:Generated_Source\PSoC5/TIMER_MS.c ****         TIMER_MS_CAPTURE_COUNT_CTRL |= TIMER_MS_CNTR_ENABLE;
 123:Generated_Source\PSoC5/TIMER_MS.c ****         TIMER_MS_SetCaptureCount(TIMER_MS_INIT_CAPTURE_COUNT);
 124:Generated_Source\PSoC5/TIMER_MS.c ****     #endif /* Configure capture counter value */
 125:Generated_Source\PSoC5/TIMER_MS.c **** 
 126:Generated_Source\PSoC5/TIMER_MS.c ****     #if (!TIMER_MS_UsingFixedFunction)
 127:Generated_Source\PSoC5/TIMER_MS.c ****         #if (TIMER_MS_SoftwareCaptureMode)
 128:Generated_Source\PSoC5/TIMER_MS.c ****             TIMER_MS_SetCaptureMode(TIMER_MS_INIT_CAPTURE_MODE);
 129:Generated_Source\PSoC5/TIMER_MS.c ****         #endif /* Set Capture Mode for UDB implementation if capture mode is software controlled */
 130:Generated_Source\PSoC5/TIMER_MS.c **** 
 131:Generated_Source\PSoC5/TIMER_MS.c ****         #if (TIMER_MS_SoftwareTriggerMode)
 132:Generated_Source\PSoC5/TIMER_MS.c ****             #if (!TIMER_MS_UDB_CONTROL_REG_REMOVED)
 133:Generated_Source\PSoC5/TIMER_MS.c ****                 if (0u == (TIMER_MS_CONTROL & TIMER_MS__B_TIMER__TM_SOFTWARE))
 134:Generated_Source\PSoC5/TIMER_MS.c ****                 {
 135:Generated_Source\PSoC5/TIMER_MS.c ****                     TIMER_MS_SetTriggerMode(TIMER_MS_INIT_TRIGGER_MODE);
 136:Generated_Source\PSoC5/TIMER_MS.c ****                 }
 137:Generated_Source\PSoC5/TIMER_MS.c ****             #endif /* (!TIMER_MS_UDB_CONTROL_REG_REMOVED) */
 138:Generated_Source\PSoC5/TIMER_MS.c ****         #endif /* Set trigger mode for UDB Implementation if trigger mode is software controlled */
 139:Generated_Source\PSoC5/TIMER_MS.c **** 
 140:Generated_Source\PSoC5/TIMER_MS.c ****         /* CyEnterCriticalRegion and CyExitCriticalRegion are used to mark following region critica
 141:Generated_Source\PSoC5/TIMER_MS.c ****         /* Enter Critical Region*/
 142:Generated_Source\PSoC5/TIMER_MS.c ****         TIMER_MS_interruptState = CyEnterCriticalSection();
 143:Generated_Source\PSoC5/TIMER_MS.c **** 
 144:Generated_Source\PSoC5/TIMER_MS.c ****         /* Use the interrupt output of the status register for IRQ output */
ARM GAS  C:\Users\MANSRO~1\AppData\Local\Temp\ccRc1hfX.s 			page 4


 145:Generated_Source\PSoC5/TIMER_MS.c ****         TIMER_MS_STATUS_AUX_CTRL |= TIMER_MS_STATUS_ACTL_INT_EN_MASK;
 146:Generated_Source\PSoC5/TIMER_MS.c **** 
 147:Generated_Source\PSoC5/TIMER_MS.c ****         /* Exit Critical Region*/
 148:Generated_Source\PSoC5/TIMER_MS.c ****         CyExitCriticalSection(TIMER_MS_interruptState);
 149:Generated_Source\PSoC5/TIMER_MS.c **** 
 150:Generated_Source\PSoC5/TIMER_MS.c ****         #if (TIMER_MS_EnableTriggerMode)
 151:Generated_Source\PSoC5/TIMER_MS.c ****             TIMER_MS_EnableTrigger();
 152:Generated_Source\PSoC5/TIMER_MS.c ****         #endif /* Set Trigger enable bit for UDB implementation in the control register*/
 153:Generated_Source\PSoC5/TIMER_MS.c **** 		
 154:Generated_Source\PSoC5/TIMER_MS.c **** 		
 155:Generated_Source\PSoC5/TIMER_MS.c ****         #if (TIMER_MS_InterruptOnCaptureCount && !TIMER_MS_UDB_CONTROL_REG_REMOVED)
 156:Generated_Source\PSoC5/TIMER_MS.c ****             TIMER_MS_SetInterruptCount(TIMER_MS_INIT_INT_CAPTURE_COUNT);
 157:Generated_Source\PSoC5/TIMER_MS.c ****         #endif /* Set interrupt count in UDB implementation if interrupt count feature is checked.*
 158:Generated_Source\PSoC5/TIMER_MS.c **** 
 159:Generated_Source\PSoC5/TIMER_MS.c ****         TIMER_MS_ClearFIFO();
 160:Generated_Source\PSoC5/TIMER_MS.c ****     #endif /* Configure additional features of UDB implementation */
 161:Generated_Source\PSoC5/TIMER_MS.c **** 
 162:Generated_Source\PSoC5/TIMER_MS.c ****     TIMER_MS_SetInterruptMode(TIMER_MS_INIT_INTERRUPT_MODE);
 163:Generated_Source\PSoC5/TIMER_MS.c **** }
 164:Generated_Source\PSoC5/TIMER_MS.c **** 
 165:Generated_Source\PSoC5/TIMER_MS.c **** 
 166:Generated_Source\PSoC5/TIMER_MS.c **** /*******************************************************************************
 167:Generated_Source\PSoC5/TIMER_MS.c **** * Function Name: TIMER_MS_Enable
 168:Generated_Source\PSoC5/TIMER_MS.c **** ********************************************************************************
 169:Generated_Source\PSoC5/TIMER_MS.c **** *
 170:Generated_Source\PSoC5/TIMER_MS.c **** * Summary:
 171:Generated_Source\PSoC5/TIMER_MS.c **** *  Enable the Timer
 172:Generated_Source\PSoC5/TIMER_MS.c **** *
 173:Generated_Source\PSoC5/TIMER_MS.c **** * Parameters:
 174:Generated_Source\PSoC5/TIMER_MS.c **** *  void
 175:Generated_Source\PSoC5/TIMER_MS.c **** *
 176:Generated_Source\PSoC5/TIMER_MS.c **** * Return:
 177:Generated_Source\PSoC5/TIMER_MS.c **** *  void
 178:Generated_Source\PSoC5/TIMER_MS.c **** *
 179:Generated_Source\PSoC5/TIMER_MS.c **** *******************************************************************************/
 180:Generated_Source\PSoC5/TIMER_MS.c **** void TIMER_MS_Enable(void) 
 181:Generated_Source\PSoC5/TIMER_MS.c **** {
  28              		.loc 1 181 0
  29              		.cfi_startproc
  30              		@ args = 0, pretend = 0, frame = 0
  31              		@ frame_needed = 0, uses_anonymous_args = 0
  32              		@ link register save eliminated.
 182:Generated_Source\PSoC5/TIMER_MS.c ****     /* Globally Enable the Fixed Function Block chosen */
 183:Generated_Source\PSoC5/TIMER_MS.c ****     #if (TIMER_MS_UsingFixedFunction)
 184:Generated_Source\PSoC5/TIMER_MS.c ****         TIMER_MS_GLOBAL_ENABLE |= TIMER_MS_BLOCK_EN_MASK;
  33              		.loc 1 184 0
  34 0000 084A     		ldr	r2, .L2
  35 0002 1378     		ldrb	r3, [r2]	@ zero_extendqisi2
  36 0004 43F00203 		orr	r3, r3, #2
  37 0008 1370     		strb	r3, [r2]
 185:Generated_Source\PSoC5/TIMER_MS.c ****         TIMER_MS_GLOBAL_STBY_ENABLE |= TIMER_MS_BLOCK_STBY_EN_MASK;
  38              		.loc 1 185 0
  39 000a 1032     		adds	r2, r2, #16
  40 000c 1378     		ldrb	r3, [r2]	@ zero_extendqisi2
  41 000e 43F00203 		orr	r3, r3, #2
  42 0012 1370     		strb	r3, [r2]
 186:Generated_Source\PSoC5/TIMER_MS.c ****     #endif /* Set Enable bit for enabling Fixed function timer*/
ARM GAS  C:\Users\MANSRO~1\AppData\Local\Temp\ccRc1hfX.s 			page 5


 187:Generated_Source\PSoC5/TIMER_MS.c **** 
 188:Generated_Source\PSoC5/TIMER_MS.c ****     /* Remove assignment if control register is removed */
 189:Generated_Source\PSoC5/TIMER_MS.c ****     #if (!TIMER_MS_UDB_CONTROL_REG_REMOVED || TIMER_MS_UsingFixedFunction)
 190:Generated_Source\PSoC5/TIMER_MS.c ****         TIMER_MS_CONTROL |= TIMER_MS_CTRL_ENABLE;
  43              		.loc 1 190 0
  44 0014 02F65932 		addw	r2, r2, #2905
  45 0018 1378     		ldrb	r3, [r2]	@ zero_extendqisi2
  46 001a 43F00103 		orr	r3, r3, #1
  47 001e 1370     		strb	r3, [r2]
  48 0020 7047     		bx	lr
  49              	.L3:
  50 0022 00BF     		.align	2
  51              	.L2:
  52 0024 A3430040 		.word	1073759139
  53              		.cfi_endproc
  54              	.LFE1:
  55              		.size	TIMER_MS_Enable, .-TIMER_MS_Enable
  56              		.section	.text.TIMER_MS_Stop,"ax",%progbits
  57              		.align	2
  58              		.global	TIMER_MS_Stop
  59              		.thumb
  60              		.thumb_func
  61              		.type	TIMER_MS_Stop, %function
  62              	TIMER_MS_Stop:
  63              	.LFB3:
 191:Generated_Source\PSoC5/TIMER_MS.c ****     #endif /* Remove assignment if control register is removed */
 192:Generated_Source\PSoC5/TIMER_MS.c **** }
 193:Generated_Source\PSoC5/TIMER_MS.c **** 
 194:Generated_Source\PSoC5/TIMER_MS.c **** 
 195:Generated_Source\PSoC5/TIMER_MS.c **** /*******************************************************************************
 196:Generated_Source\PSoC5/TIMER_MS.c **** * Function Name: TIMER_MS_Start
 197:Generated_Source\PSoC5/TIMER_MS.c **** ********************************************************************************
 198:Generated_Source\PSoC5/TIMER_MS.c **** *
 199:Generated_Source\PSoC5/TIMER_MS.c **** * Summary:
 200:Generated_Source\PSoC5/TIMER_MS.c **** *  The start function initializes the timer with the default values, the
 201:Generated_Source\PSoC5/TIMER_MS.c **** *  enables the timerto begin counting.  It does not enable interrupts,
 202:Generated_Source\PSoC5/TIMER_MS.c **** *  the EnableInt command should be called if interrupt generation is required.
 203:Generated_Source\PSoC5/TIMER_MS.c **** *
 204:Generated_Source\PSoC5/TIMER_MS.c **** * Parameters:
 205:Generated_Source\PSoC5/TIMER_MS.c **** *  void
 206:Generated_Source\PSoC5/TIMER_MS.c **** *
 207:Generated_Source\PSoC5/TIMER_MS.c **** * Return:
 208:Generated_Source\PSoC5/TIMER_MS.c **** *  void
 209:Generated_Source\PSoC5/TIMER_MS.c **** *
 210:Generated_Source\PSoC5/TIMER_MS.c **** * Global variables:
 211:Generated_Source\PSoC5/TIMER_MS.c **** *  TIMER_MS_initVar: Is modified when this function is called for the
 212:Generated_Source\PSoC5/TIMER_MS.c **** *   first time. Is used to ensure that initialization happens only once.
 213:Generated_Source\PSoC5/TIMER_MS.c **** *
 214:Generated_Source\PSoC5/TIMER_MS.c **** *******************************************************************************/
 215:Generated_Source\PSoC5/TIMER_MS.c **** void TIMER_MS_Start(void) 
 216:Generated_Source\PSoC5/TIMER_MS.c **** {
 217:Generated_Source\PSoC5/TIMER_MS.c ****     if(TIMER_MS_initVar == 0u)
 218:Generated_Source\PSoC5/TIMER_MS.c ****     {
 219:Generated_Source\PSoC5/TIMER_MS.c ****         TIMER_MS_Init();
 220:Generated_Source\PSoC5/TIMER_MS.c **** 
 221:Generated_Source\PSoC5/TIMER_MS.c ****         TIMER_MS_initVar = 1u;   /* Clear this bit for Initialization */
 222:Generated_Source\PSoC5/TIMER_MS.c ****     }
ARM GAS  C:\Users\MANSRO~1\AppData\Local\Temp\ccRc1hfX.s 			page 6


 223:Generated_Source\PSoC5/TIMER_MS.c **** 
 224:Generated_Source\PSoC5/TIMER_MS.c ****     /* Enable the Timer */
 225:Generated_Source\PSoC5/TIMER_MS.c ****     TIMER_MS_Enable();
 226:Generated_Source\PSoC5/TIMER_MS.c **** }
 227:Generated_Source\PSoC5/TIMER_MS.c **** 
 228:Generated_Source\PSoC5/TIMER_MS.c **** 
 229:Generated_Source\PSoC5/TIMER_MS.c **** /*******************************************************************************
 230:Generated_Source\PSoC5/TIMER_MS.c **** * Function Name: TIMER_MS_Stop
 231:Generated_Source\PSoC5/TIMER_MS.c **** ********************************************************************************
 232:Generated_Source\PSoC5/TIMER_MS.c **** *
 233:Generated_Source\PSoC5/TIMER_MS.c **** * Summary:
 234:Generated_Source\PSoC5/TIMER_MS.c **** *  The stop function halts the timer, but does not change any modes or disable
 235:Generated_Source\PSoC5/TIMER_MS.c **** *  interrupts.
 236:Generated_Source\PSoC5/TIMER_MS.c **** *
 237:Generated_Source\PSoC5/TIMER_MS.c **** * Parameters:
 238:Generated_Source\PSoC5/TIMER_MS.c **** *  void
 239:Generated_Source\PSoC5/TIMER_MS.c **** *
 240:Generated_Source\PSoC5/TIMER_MS.c **** * Return:
 241:Generated_Source\PSoC5/TIMER_MS.c **** *  void
 242:Generated_Source\PSoC5/TIMER_MS.c **** *
 243:Generated_Source\PSoC5/TIMER_MS.c **** * Side Effects: If the Enable mode is set to Hardware only then this function
 244:Generated_Source\PSoC5/TIMER_MS.c **** *               has no effect on the operation of the timer.
 245:Generated_Source\PSoC5/TIMER_MS.c **** *
 246:Generated_Source\PSoC5/TIMER_MS.c **** *******************************************************************************/
 247:Generated_Source\PSoC5/TIMER_MS.c **** void TIMER_MS_Stop(void) 
 248:Generated_Source\PSoC5/TIMER_MS.c **** {
  64              		.loc 1 248 0
  65              		.cfi_startproc
  66              		@ args = 0, pretend = 0, frame = 0
  67              		@ frame_needed = 0, uses_anonymous_args = 0
  68              		@ link register save eliminated.
 249:Generated_Source\PSoC5/TIMER_MS.c ****     /* Disable Timer */
 250:Generated_Source\PSoC5/TIMER_MS.c ****     #if(!TIMER_MS_UDB_CONTROL_REG_REMOVED || TIMER_MS_UsingFixedFunction)
 251:Generated_Source\PSoC5/TIMER_MS.c ****         TIMER_MS_CONTROL &= ((uint8)(~TIMER_MS_CTRL_ENABLE));
  69              		.loc 1 251 0
  70 0000 084A     		ldr	r2, .L5
  71 0002 1378     		ldrb	r3, [r2]	@ zero_extendqisi2
  72 0004 03F0FE03 		and	r3, r3, #254
  73 0008 1370     		strb	r3, [r2]
 252:Generated_Source\PSoC5/TIMER_MS.c ****     #endif /* Remove assignment if control register is removed */
 253:Generated_Source\PSoC5/TIMER_MS.c **** 
 254:Generated_Source\PSoC5/TIMER_MS.c ****     /* Globally disable the Fixed Function Block chosen */
 255:Generated_Source\PSoC5/TIMER_MS.c ****     #if (TIMER_MS_UsingFixedFunction)
 256:Generated_Source\PSoC5/TIMER_MS.c ****         TIMER_MS_GLOBAL_ENABLE &= ((uint8)(~TIMER_MS_BLOCK_EN_MASK));
  74              		.loc 1 256 0
  75 000a A2F66932 		subw	r2, r2, #2921
  76 000e 1378     		ldrb	r3, [r2]	@ zero_extendqisi2
  77 0010 03F0FD03 		and	r3, r3, #253
  78 0014 1370     		strb	r3, [r2]
 257:Generated_Source\PSoC5/TIMER_MS.c ****         TIMER_MS_GLOBAL_STBY_ENABLE &= ((uint8)(~TIMER_MS_BLOCK_STBY_EN_MASK));
  79              		.loc 1 257 0
  80 0016 1032     		adds	r2, r2, #16
  81 0018 1378     		ldrb	r3, [r2]	@ zero_extendqisi2
  82 001a 03F0FD03 		and	r3, r3, #253
  83 001e 1370     		strb	r3, [r2]
  84 0020 7047     		bx	lr
  85              	.L6:
ARM GAS  C:\Users\MANSRO~1\AppData\Local\Temp\ccRc1hfX.s 			page 7


  86 0022 00BF     		.align	2
  87              	.L5:
  88 0024 0C4F0040 		.word	1073762060
  89              		.cfi_endproc
  90              	.LFE3:
  91              		.size	TIMER_MS_Stop, .-TIMER_MS_Stop
  92              		.section	.text.TIMER_MS_SetInterruptMode,"ax",%progbits
  93              		.align	2
  94              		.global	TIMER_MS_SetInterruptMode
  95              		.thumb
  96              		.thumb_func
  97              		.type	TIMER_MS_SetInterruptMode, %function
  98              	TIMER_MS_SetInterruptMode:
  99              	.LFB4:
 258:Generated_Source\PSoC5/TIMER_MS.c ****     #endif /* Disable global enable for the Timer Fixed function block to stop the Timer*/
 259:Generated_Source\PSoC5/TIMER_MS.c **** }
 260:Generated_Source\PSoC5/TIMER_MS.c **** 
 261:Generated_Source\PSoC5/TIMER_MS.c **** 
 262:Generated_Source\PSoC5/TIMER_MS.c **** /*******************************************************************************
 263:Generated_Source\PSoC5/TIMER_MS.c **** * Function Name: TIMER_MS_SetInterruptMode
 264:Generated_Source\PSoC5/TIMER_MS.c **** ********************************************************************************
 265:Generated_Source\PSoC5/TIMER_MS.c **** *
 266:Generated_Source\PSoC5/TIMER_MS.c **** * Summary:
 267:Generated_Source\PSoC5/TIMER_MS.c **** *  This function selects which of the interrupt inputs may cause an interrupt.
 268:Generated_Source\PSoC5/TIMER_MS.c **** *  The twosources are caputure and terminal.  One, both or neither may
 269:Generated_Source\PSoC5/TIMER_MS.c **** *  be selected.
 270:Generated_Source\PSoC5/TIMER_MS.c **** *
 271:Generated_Source\PSoC5/TIMER_MS.c **** * Parameters:
 272:Generated_Source\PSoC5/TIMER_MS.c **** *  interruptMode:   This parameter is used to enable interrups on either/or
 273:Generated_Source\PSoC5/TIMER_MS.c **** *                   terminal count or capture.
 274:Generated_Source\PSoC5/TIMER_MS.c **** *
 275:Generated_Source\PSoC5/TIMER_MS.c **** * Return:
 276:Generated_Source\PSoC5/TIMER_MS.c **** *  void
 277:Generated_Source\PSoC5/TIMER_MS.c **** *
 278:Generated_Source\PSoC5/TIMER_MS.c **** *******************************************************************************/
 279:Generated_Source\PSoC5/TIMER_MS.c **** void TIMER_MS_SetInterruptMode(uint8 interruptMode) 
 280:Generated_Source\PSoC5/TIMER_MS.c **** {
 100              		.loc 1 280 0
 101              		.cfi_startproc
 102              		@ args = 0, pretend = 0, frame = 0
 103              		@ frame_needed = 0, uses_anonymous_args = 0
 104              		@ link register save eliminated.
 105              	.LVL0:
 281:Generated_Source\PSoC5/TIMER_MS.c ****     TIMER_MS_STATUS_MASK = interruptMode;
 106              		.loc 1 281 0
 107 0000 014B     		ldr	r3, .L8
 108 0002 1870     		strb	r0, [r3]
 109 0004 7047     		bx	lr
 110              	.L9:
 111 0006 00BF     		.align	2
 112              	.L8:
 113 0008 0F4F0040 		.word	1073762063
 114              		.cfi_endproc
 115              	.LFE4:
 116              		.size	TIMER_MS_SetInterruptMode, .-TIMER_MS_SetInterruptMode
 117              		.section	.text.TIMER_MS_SoftwareCapture,"ax",%progbits
 118              		.align	2
ARM GAS  C:\Users\MANSRO~1\AppData\Local\Temp\ccRc1hfX.s 			page 8


 119              		.global	TIMER_MS_SoftwareCapture
 120              		.thumb
 121              		.thumb_func
 122              		.type	TIMER_MS_SoftwareCapture, %function
 123              	TIMER_MS_SoftwareCapture:
 124              	.LFB5:
 282:Generated_Source\PSoC5/TIMER_MS.c **** }
 283:Generated_Source\PSoC5/TIMER_MS.c **** 
 284:Generated_Source\PSoC5/TIMER_MS.c **** 
 285:Generated_Source\PSoC5/TIMER_MS.c **** /*******************************************************************************
 286:Generated_Source\PSoC5/TIMER_MS.c **** * Function Name: TIMER_MS_SoftwareCapture
 287:Generated_Source\PSoC5/TIMER_MS.c **** ********************************************************************************
 288:Generated_Source\PSoC5/TIMER_MS.c **** *
 289:Generated_Source\PSoC5/TIMER_MS.c **** * Summary:
 290:Generated_Source\PSoC5/TIMER_MS.c **** *  This function forces a capture independent of the capture signal.
 291:Generated_Source\PSoC5/TIMER_MS.c **** *
 292:Generated_Source\PSoC5/TIMER_MS.c **** * Parameters:
 293:Generated_Source\PSoC5/TIMER_MS.c **** *  void
 294:Generated_Source\PSoC5/TIMER_MS.c **** *
 295:Generated_Source\PSoC5/TIMER_MS.c **** * Return:
 296:Generated_Source\PSoC5/TIMER_MS.c **** *  void
 297:Generated_Source\PSoC5/TIMER_MS.c **** *
 298:Generated_Source\PSoC5/TIMER_MS.c **** * Side Effects:
 299:Generated_Source\PSoC5/TIMER_MS.c **** *  An existing hardware capture could be overwritten.
 300:Generated_Source\PSoC5/TIMER_MS.c **** *
 301:Generated_Source\PSoC5/TIMER_MS.c **** *******************************************************************************/
 302:Generated_Source\PSoC5/TIMER_MS.c **** void TIMER_MS_SoftwareCapture(void) 
 303:Generated_Source\PSoC5/TIMER_MS.c **** {
 125              		.loc 1 303 0
 126              		.cfi_startproc
 127              		@ args = 0, pretend = 0, frame = 0
 128              		@ frame_needed = 0, uses_anonymous_args = 0
 129              		@ link register save eliminated.
 304:Generated_Source\PSoC5/TIMER_MS.c ****     /* Generate a software capture by reading the counter register */
 305:Generated_Source\PSoC5/TIMER_MS.c ****     #if(TIMER_MS_UsingFixedFunction)
 306:Generated_Source\PSoC5/TIMER_MS.c ****         (void)CY_GET_REG16(TIMER_MS_COUNTER_LSB_PTR);
 130              		.loc 1 306 0
 131 0000 014B     		ldr	r3, .L11
 132 0002 1B88     		ldrh	r3, [r3]
 133 0004 7047     		bx	lr
 134              	.L12:
 135 0006 00BF     		.align	2
 136              	.L11:
 137 0008 124F0040 		.word	1073762066
 138              		.cfi_endproc
 139              	.LFE5:
 140              		.size	TIMER_MS_SoftwareCapture, .-TIMER_MS_SoftwareCapture
 141              		.section	.text.TIMER_MS_ReadStatusRegister,"ax",%progbits
 142              		.align	2
 143              		.global	TIMER_MS_ReadStatusRegister
 144              		.thumb
 145              		.thumb_func
 146              		.type	TIMER_MS_ReadStatusRegister, %function
 147              	TIMER_MS_ReadStatusRegister:
 148              	.LFB6:
 307:Generated_Source\PSoC5/TIMER_MS.c ****     #else
 308:Generated_Source\PSoC5/TIMER_MS.c ****         (void)CY_GET_REG8(TIMER_MS_COUNTER_LSB_PTR_8BIT);
ARM GAS  C:\Users\MANSRO~1\AppData\Local\Temp\ccRc1hfX.s 			page 9


 309:Generated_Source\PSoC5/TIMER_MS.c ****     #endif/* (TIMER_MS_UsingFixedFunction) */
 310:Generated_Source\PSoC5/TIMER_MS.c ****     /* Capture Data is now in the FIFO */
 311:Generated_Source\PSoC5/TIMER_MS.c **** }
 312:Generated_Source\PSoC5/TIMER_MS.c **** 
 313:Generated_Source\PSoC5/TIMER_MS.c **** 
 314:Generated_Source\PSoC5/TIMER_MS.c **** /*******************************************************************************
 315:Generated_Source\PSoC5/TIMER_MS.c **** * Function Name: TIMER_MS_ReadStatusRegister
 316:Generated_Source\PSoC5/TIMER_MS.c **** ********************************************************************************
 317:Generated_Source\PSoC5/TIMER_MS.c **** *
 318:Generated_Source\PSoC5/TIMER_MS.c **** * Summary:
 319:Generated_Source\PSoC5/TIMER_MS.c **** *  Reads the status register and returns it's state. This function should use
 320:Generated_Source\PSoC5/TIMER_MS.c **** *  defined types for the bit-field information as the bits in this register may
 321:Generated_Source\PSoC5/TIMER_MS.c **** *  be permuteable.
 322:Generated_Source\PSoC5/TIMER_MS.c **** *
 323:Generated_Source\PSoC5/TIMER_MS.c **** * Parameters:
 324:Generated_Source\PSoC5/TIMER_MS.c **** *  void
 325:Generated_Source\PSoC5/TIMER_MS.c **** *
 326:Generated_Source\PSoC5/TIMER_MS.c **** * Return:
 327:Generated_Source\PSoC5/TIMER_MS.c **** *  The contents of the status register
 328:Generated_Source\PSoC5/TIMER_MS.c **** *
 329:Generated_Source\PSoC5/TIMER_MS.c **** * Side Effects:
 330:Generated_Source\PSoC5/TIMER_MS.c **** *  Status register bits may be clear on read.
 331:Generated_Source\PSoC5/TIMER_MS.c **** *
 332:Generated_Source\PSoC5/TIMER_MS.c **** *******************************************************************************/
 333:Generated_Source\PSoC5/TIMER_MS.c **** uint8   TIMER_MS_ReadStatusRegister(void) 
 334:Generated_Source\PSoC5/TIMER_MS.c **** {
 149              		.loc 1 334 0
 150              		.cfi_startproc
 151              		@ args = 0, pretend = 0, frame = 0
 152              		@ frame_needed = 0, uses_anonymous_args = 0
 153              		@ link register save eliminated.
 335:Generated_Source\PSoC5/TIMER_MS.c ****     return (TIMER_MS_STATUS);
 154              		.loc 1 335 0
 155 0000 014B     		ldr	r3, .L14
 156 0002 1878     		ldrb	r0, [r3]	@ zero_extendqisi2
 336:Generated_Source\PSoC5/TIMER_MS.c **** }
 157              		.loc 1 336 0
 158 0004 7047     		bx	lr
 159              	.L15:
 160 0006 00BF     		.align	2
 161              	.L14:
 162 0008 0F4F0040 		.word	1073762063
 163              		.cfi_endproc
 164              	.LFE6:
 165              		.size	TIMER_MS_ReadStatusRegister, .-TIMER_MS_ReadStatusRegister
 166              		.section	.text.TIMER_MS_ReadControlRegister,"ax",%progbits
 167              		.align	2
 168              		.global	TIMER_MS_ReadControlRegister
 169              		.thumb
 170              		.thumb_func
 171              		.type	TIMER_MS_ReadControlRegister, %function
 172              	TIMER_MS_ReadControlRegister:
 173              	.LFB7:
 337:Generated_Source\PSoC5/TIMER_MS.c **** 
 338:Generated_Source\PSoC5/TIMER_MS.c **** 
 339:Generated_Source\PSoC5/TIMER_MS.c **** #if (!TIMER_MS_UDB_CONTROL_REG_REMOVED) /* Remove API if control register is unused */
 340:Generated_Source\PSoC5/TIMER_MS.c **** 
ARM GAS  C:\Users\MANSRO~1\AppData\Local\Temp\ccRc1hfX.s 			page 10


 341:Generated_Source\PSoC5/TIMER_MS.c **** 
 342:Generated_Source\PSoC5/TIMER_MS.c **** /*******************************************************************************
 343:Generated_Source\PSoC5/TIMER_MS.c **** * Function Name: TIMER_MS_ReadControlRegister
 344:Generated_Source\PSoC5/TIMER_MS.c **** ********************************************************************************
 345:Generated_Source\PSoC5/TIMER_MS.c **** *
 346:Generated_Source\PSoC5/TIMER_MS.c **** * Summary:
 347:Generated_Source\PSoC5/TIMER_MS.c **** *  Reads the control register and returns it's value.
 348:Generated_Source\PSoC5/TIMER_MS.c **** *
 349:Generated_Source\PSoC5/TIMER_MS.c **** * Parameters:
 350:Generated_Source\PSoC5/TIMER_MS.c **** *  void
 351:Generated_Source\PSoC5/TIMER_MS.c **** *
 352:Generated_Source\PSoC5/TIMER_MS.c **** * Return:
 353:Generated_Source\PSoC5/TIMER_MS.c **** *  The contents of the control register
 354:Generated_Source\PSoC5/TIMER_MS.c **** *
 355:Generated_Source\PSoC5/TIMER_MS.c **** *******************************************************************************/
 356:Generated_Source\PSoC5/TIMER_MS.c **** uint8 TIMER_MS_ReadControlRegister(void) 
 357:Generated_Source\PSoC5/TIMER_MS.c **** {
 174              		.loc 1 357 0
 175              		.cfi_startproc
 176              		@ args = 0, pretend = 0, frame = 0
 177              		@ frame_needed = 0, uses_anonymous_args = 0
 178              		@ link register save eliminated.
 358:Generated_Source\PSoC5/TIMER_MS.c ****     #if (!TIMER_MS_UDB_CONTROL_REG_REMOVED) 
 359:Generated_Source\PSoC5/TIMER_MS.c ****         return ((uint8)TIMER_MS_CONTROL);
 179              		.loc 1 359 0
 180 0000 014B     		ldr	r3, .L17
 181 0002 1878     		ldrb	r0, [r3]	@ zero_extendqisi2
 360:Generated_Source\PSoC5/TIMER_MS.c ****     #else
 361:Generated_Source\PSoC5/TIMER_MS.c ****         return (0);
 362:Generated_Source\PSoC5/TIMER_MS.c ****     #endif /* (!TIMER_MS_UDB_CONTROL_REG_REMOVED) */
 363:Generated_Source\PSoC5/TIMER_MS.c **** }
 182              		.loc 1 363 0
 183 0004 7047     		bx	lr
 184              	.L18:
 185 0006 00BF     		.align	2
 186              	.L17:
 187 0008 0C4F0040 		.word	1073762060
 188              		.cfi_endproc
 189              	.LFE7:
 190              		.size	TIMER_MS_ReadControlRegister, .-TIMER_MS_ReadControlRegister
 191              		.section	.text.TIMER_MS_WriteControlRegister,"ax",%progbits
 192              		.align	2
 193              		.global	TIMER_MS_WriteControlRegister
 194              		.thumb
 195              		.thumb_func
 196              		.type	TIMER_MS_WriteControlRegister, %function
 197              	TIMER_MS_WriteControlRegister:
 198              	.LFB8:
 364:Generated_Source\PSoC5/TIMER_MS.c **** 
 365:Generated_Source\PSoC5/TIMER_MS.c **** 
 366:Generated_Source\PSoC5/TIMER_MS.c **** /*******************************************************************************
 367:Generated_Source\PSoC5/TIMER_MS.c **** * Function Name: TIMER_MS_WriteControlRegister
 368:Generated_Source\PSoC5/TIMER_MS.c **** ********************************************************************************
 369:Generated_Source\PSoC5/TIMER_MS.c **** *
 370:Generated_Source\PSoC5/TIMER_MS.c **** * Summary:
 371:Generated_Source\PSoC5/TIMER_MS.c **** *  Sets the bit-field of the control register.
 372:Generated_Source\PSoC5/TIMER_MS.c **** *
ARM GAS  C:\Users\MANSRO~1\AppData\Local\Temp\ccRc1hfX.s 			page 11


 373:Generated_Source\PSoC5/TIMER_MS.c **** * Parameters:
 374:Generated_Source\PSoC5/TIMER_MS.c **** *  control: The contents of the control register
 375:Generated_Source\PSoC5/TIMER_MS.c **** *
 376:Generated_Source\PSoC5/TIMER_MS.c **** * Return:
 377:Generated_Source\PSoC5/TIMER_MS.c **** *
 378:Generated_Source\PSoC5/TIMER_MS.c **** *******************************************************************************/
 379:Generated_Source\PSoC5/TIMER_MS.c **** void TIMER_MS_WriteControlRegister(uint8 control) 
 380:Generated_Source\PSoC5/TIMER_MS.c **** {
 199              		.loc 1 380 0
 200              		.cfi_startproc
 201              		@ args = 0, pretend = 0, frame = 0
 202              		@ frame_needed = 0, uses_anonymous_args = 0
 203              		@ link register save eliminated.
 204              	.LVL1:
 381:Generated_Source\PSoC5/TIMER_MS.c ****     #if (!TIMER_MS_UDB_CONTROL_REG_REMOVED) 
 382:Generated_Source\PSoC5/TIMER_MS.c ****         TIMER_MS_CONTROL = control;
 205              		.loc 1 382 0
 206 0000 014B     		ldr	r3, .L20
 207 0002 1870     		strb	r0, [r3]
 208 0004 7047     		bx	lr
 209              	.L21:
 210 0006 00BF     		.align	2
 211              	.L20:
 212 0008 0C4F0040 		.word	1073762060
 213              		.cfi_endproc
 214              	.LFE8:
 215              		.size	TIMER_MS_WriteControlRegister, .-TIMER_MS_WriteControlRegister
 216              		.section	.text.TIMER_MS_ReadPeriod,"ax",%progbits
 217              		.align	2
 218              		.global	TIMER_MS_ReadPeriod
 219              		.thumb
 220              		.thumb_func
 221              		.type	TIMER_MS_ReadPeriod, %function
 222              	TIMER_MS_ReadPeriod:
 223              	.LFB9:
 383:Generated_Source\PSoC5/TIMER_MS.c ****     #else
 384:Generated_Source\PSoC5/TIMER_MS.c ****         control = 0u;
 385:Generated_Source\PSoC5/TIMER_MS.c ****     #endif /* (!TIMER_MS_UDB_CONTROL_REG_REMOVED) */
 386:Generated_Source\PSoC5/TIMER_MS.c **** }
 387:Generated_Source\PSoC5/TIMER_MS.c **** 
 388:Generated_Source\PSoC5/TIMER_MS.c **** #endif /* Remove API if control register is unused */
 389:Generated_Source\PSoC5/TIMER_MS.c **** 
 390:Generated_Source\PSoC5/TIMER_MS.c **** 
 391:Generated_Source\PSoC5/TIMER_MS.c **** /*******************************************************************************
 392:Generated_Source\PSoC5/TIMER_MS.c **** * Function Name: TIMER_MS_ReadPeriod
 393:Generated_Source\PSoC5/TIMER_MS.c **** ********************************************************************************
 394:Generated_Source\PSoC5/TIMER_MS.c **** *
 395:Generated_Source\PSoC5/TIMER_MS.c **** * Summary:
 396:Generated_Source\PSoC5/TIMER_MS.c **** *  This function returns the current value of the Period.
 397:Generated_Source\PSoC5/TIMER_MS.c **** *
 398:Generated_Source\PSoC5/TIMER_MS.c **** * Parameters:
 399:Generated_Source\PSoC5/TIMER_MS.c **** *  void
 400:Generated_Source\PSoC5/TIMER_MS.c **** *
 401:Generated_Source\PSoC5/TIMER_MS.c **** * Return:
 402:Generated_Source\PSoC5/TIMER_MS.c **** *  The present value of the counter.
 403:Generated_Source\PSoC5/TIMER_MS.c **** *
 404:Generated_Source\PSoC5/TIMER_MS.c **** *******************************************************************************/
ARM GAS  C:\Users\MANSRO~1\AppData\Local\Temp\ccRc1hfX.s 			page 12


 405:Generated_Source\PSoC5/TIMER_MS.c **** uint16 TIMER_MS_ReadPeriod(void) 
 406:Generated_Source\PSoC5/TIMER_MS.c **** {
 224              		.loc 1 406 0
 225              		.cfi_startproc
 226              		@ args = 0, pretend = 0, frame = 0
 227              		@ frame_needed = 0, uses_anonymous_args = 0
 228              		@ link register save eliminated.
 407:Generated_Source\PSoC5/TIMER_MS.c ****    #if(TIMER_MS_UsingFixedFunction)
 408:Generated_Source\PSoC5/TIMER_MS.c ****        return ((uint16)CY_GET_REG16(TIMER_MS_PERIOD_LSB_PTR));
 229              		.loc 1 408 0
 230 0000 014B     		ldr	r3, .L23
 231 0002 1888     		ldrh	r0, [r3]
 409:Generated_Source\PSoC5/TIMER_MS.c ****    #else
 410:Generated_Source\PSoC5/TIMER_MS.c ****        return (CY_GET_REG16(TIMER_MS_PERIOD_LSB_PTR));
 411:Generated_Source\PSoC5/TIMER_MS.c ****    #endif /* (TIMER_MS_UsingFixedFunction) */
 412:Generated_Source\PSoC5/TIMER_MS.c **** }
 232              		.loc 1 412 0
 233 0004 80B2     		uxth	r0, r0
 234 0006 7047     		bx	lr
 235              	.L24:
 236              		.align	2
 237              	.L23:
 238 0008 104F0040 		.word	1073762064
 239              		.cfi_endproc
 240              	.LFE9:
 241              		.size	TIMER_MS_ReadPeriod, .-TIMER_MS_ReadPeriod
 242              		.section	.text.TIMER_MS_WritePeriod,"ax",%progbits
 243              		.align	2
 244              		.global	TIMER_MS_WritePeriod
 245              		.thumb
 246              		.thumb_func
 247              		.type	TIMER_MS_WritePeriod, %function
 248              	TIMER_MS_WritePeriod:
 249              	.LFB10:
 413:Generated_Source\PSoC5/TIMER_MS.c **** 
 414:Generated_Source\PSoC5/TIMER_MS.c **** 
 415:Generated_Source\PSoC5/TIMER_MS.c **** /*******************************************************************************
 416:Generated_Source\PSoC5/TIMER_MS.c **** * Function Name: TIMER_MS_WritePeriod
 417:Generated_Source\PSoC5/TIMER_MS.c **** ********************************************************************************
 418:Generated_Source\PSoC5/TIMER_MS.c **** *
 419:Generated_Source\PSoC5/TIMER_MS.c **** * Summary:
 420:Generated_Source\PSoC5/TIMER_MS.c **** *  This function is used to change the period of the counter.  The new period
 421:Generated_Source\PSoC5/TIMER_MS.c **** *  will be loaded the next time terminal count is detected.
 422:Generated_Source\PSoC5/TIMER_MS.c **** *
 423:Generated_Source\PSoC5/TIMER_MS.c **** * Parameters:
 424:Generated_Source\PSoC5/TIMER_MS.c **** *  period: This value may be between 1 and (2^Resolution)-1.  A value of 0 will
 425:Generated_Source\PSoC5/TIMER_MS.c **** *          result in the counter remaining at zero.
 426:Generated_Source\PSoC5/TIMER_MS.c **** *
 427:Generated_Source\PSoC5/TIMER_MS.c **** * Return:
 428:Generated_Source\PSoC5/TIMER_MS.c **** *  void
 429:Generated_Source\PSoC5/TIMER_MS.c **** *
 430:Generated_Source\PSoC5/TIMER_MS.c **** *******************************************************************************/
 431:Generated_Source\PSoC5/TIMER_MS.c **** void TIMER_MS_WritePeriod(uint16 period) 
 432:Generated_Source\PSoC5/TIMER_MS.c **** {
 250              		.loc 1 432 0
 251              		.cfi_startproc
 252              		@ args = 0, pretend = 0, frame = 0
ARM GAS  C:\Users\MANSRO~1\AppData\Local\Temp\ccRc1hfX.s 			page 13


 253              		@ frame_needed = 0, uses_anonymous_args = 0
 254              		@ link register save eliminated.
 255              	.LVL2:
 433:Generated_Source\PSoC5/TIMER_MS.c ****     #if(TIMER_MS_UsingFixedFunction)
 434:Generated_Source\PSoC5/TIMER_MS.c ****         uint16 period_temp = (uint16)period;
 435:Generated_Source\PSoC5/TIMER_MS.c ****         CY_SET_REG16(TIMER_MS_PERIOD_LSB_PTR, period_temp);
 256              		.loc 1 435 0
 257 0000 014B     		ldr	r3, .L26
 258 0002 1880     		strh	r0, [r3]	@ movhi
 259 0004 7047     		bx	lr
 260              	.L27:
 261 0006 00BF     		.align	2
 262              	.L26:
 263 0008 104F0040 		.word	1073762064
 264              		.cfi_endproc
 265              	.LFE10:
 266              		.size	TIMER_MS_WritePeriod, .-TIMER_MS_WritePeriod
 267              		.section	.text.TIMER_MS_ReadCapture,"ax",%progbits
 268              		.align	2
 269              		.global	TIMER_MS_ReadCapture
 270              		.thumb
 271              		.thumb_func
 272              		.type	TIMER_MS_ReadCapture, %function
 273              	TIMER_MS_ReadCapture:
 274              	.LFB11:
 436:Generated_Source\PSoC5/TIMER_MS.c ****     #else
 437:Generated_Source\PSoC5/TIMER_MS.c ****         CY_SET_REG16(TIMER_MS_PERIOD_LSB_PTR, period);
 438:Generated_Source\PSoC5/TIMER_MS.c ****     #endif /*Write Period value with appropriate resolution suffix depending on UDB or fixed functi
 439:Generated_Source\PSoC5/TIMER_MS.c **** }
 440:Generated_Source\PSoC5/TIMER_MS.c **** 
 441:Generated_Source\PSoC5/TIMER_MS.c **** 
 442:Generated_Source\PSoC5/TIMER_MS.c **** /*******************************************************************************
 443:Generated_Source\PSoC5/TIMER_MS.c **** * Function Name: TIMER_MS_ReadCapture
 444:Generated_Source\PSoC5/TIMER_MS.c **** ********************************************************************************
 445:Generated_Source\PSoC5/TIMER_MS.c **** *
 446:Generated_Source\PSoC5/TIMER_MS.c **** * Summary:
 447:Generated_Source\PSoC5/TIMER_MS.c **** *  This function returns the last value captured.
 448:Generated_Source\PSoC5/TIMER_MS.c **** *
 449:Generated_Source\PSoC5/TIMER_MS.c **** * Parameters:
 450:Generated_Source\PSoC5/TIMER_MS.c **** *  void
 451:Generated_Source\PSoC5/TIMER_MS.c **** *
 452:Generated_Source\PSoC5/TIMER_MS.c **** * Return:
 453:Generated_Source\PSoC5/TIMER_MS.c **** *  Present Capture value.
 454:Generated_Source\PSoC5/TIMER_MS.c **** *
 455:Generated_Source\PSoC5/TIMER_MS.c **** *******************************************************************************/
 456:Generated_Source\PSoC5/TIMER_MS.c **** uint16 TIMER_MS_ReadCapture(void) 
 457:Generated_Source\PSoC5/TIMER_MS.c **** {
 275              		.loc 1 457 0
 276              		.cfi_startproc
 277              		@ args = 0, pretend = 0, frame = 0
 278              		@ frame_needed = 0, uses_anonymous_args = 0
 279              		@ link register save eliminated.
 458:Generated_Source\PSoC5/TIMER_MS.c ****    #if(TIMER_MS_UsingFixedFunction)
 459:Generated_Source\PSoC5/TIMER_MS.c ****        return ((uint16)CY_GET_REG16(TIMER_MS_CAPTURE_LSB_PTR));
 280              		.loc 1 459 0
 281 0000 014B     		ldr	r3, .L29
 282 0002 1888     		ldrh	r0, [r3]
ARM GAS  C:\Users\MANSRO~1\AppData\Local\Temp\ccRc1hfX.s 			page 14


 460:Generated_Source\PSoC5/TIMER_MS.c ****    #else
 461:Generated_Source\PSoC5/TIMER_MS.c ****        return (CY_GET_REG16(TIMER_MS_CAPTURE_LSB_PTR));
 462:Generated_Source\PSoC5/TIMER_MS.c ****    #endif /* (TIMER_MS_UsingFixedFunction) */
 463:Generated_Source\PSoC5/TIMER_MS.c **** }
 283              		.loc 1 463 0
 284 0004 80B2     		uxth	r0, r0
 285 0006 7047     		bx	lr
 286              	.L30:
 287              		.align	2
 288              	.L29:
 289 0008 144F0040 		.word	1073762068
 290              		.cfi_endproc
 291              	.LFE11:
 292              		.size	TIMER_MS_ReadCapture, .-TIMER_MS_ReadCapture
 293              		.section	.text.TIMER_MS_WriteCounter,"ax",%progbits
 294              		.align	2
 295              		.global	TIMER_MS_WriteCounter
 296              		.thumb
 297              		.thumb_func
 298              		.type	TIMER_MS_WriteCounter, %function
 299              	TIMER_MS_WriteCounter:
 300              	.LFB12:
 464:Generated_Source\PSoC5/TIMER_MS.c **** 
 465:Generated_Source\PSoC5/TIMER_MS.c **** 
 466:Generated_Source\PSoC5/TIMER_MS.c **** /*******************************************************************************
 467:Generated_Source\PSoC5/TIMER_MS.c **** * Function Name: TIMER_MS_WriteCounter
 468:Generated_Source\PSoC5/TIMER_MS.c **** ********************************************************************************
 469:Generated_Source\PSoC5/TIMER_MS.c **** *
 470:Generated_Source\PSoC5/TIMER_MS.c **** * Summary:
 471:Generated_Source\PSoC5/TIMER_MS.c **** *  This funtion is used to set the counter to a specific value
 472:Generated_Source\PSoC5/TIMER_MS.c **** *
 473:Generated_Source\PSoC5/TIMER_MS.c **** * Parameters:
 474:Generated_Source\PSoC5/TIMER_MS.c **** *  counter:  New counter value.
 475:Generated_Source\PSoC5/TIMER_MS.c **** *
 476:Generated_Source\PSoC5/TIMER_MS.c **** * Return:
 477:Generated_Source\PSoC5/TIMER_MS.c **** *  void
 478:Generated_Source\PSoC5/TIMER_MS.c **** *
 479:Generated_Source\PSoC5/TIMER_MS.c **** *******************************************************************************/
 480:Generated_Source\PSoC5/TIMER_MS.c **** void TIMER_MS_WriteCounter(uint16 counter) 
 481:Generated_Source\PSoC5/TIMER_MS.c **** {
 301              		.loc 1 481 0
 302              		.cfi_startproc
 303              		@ args = 0, pretend = 0, frame = 0
 304              		@ frame_needed = 0, uses_anonymous_args = 0
 305              		@ link register save eliminated.
 306              	.LVL3:
 482:Generated_Source\PSoC5/TIMER_MS.c ****    #if(TIMER_MS_UsingFixedFunction)
 483:Generated_Source\PSoC5/TIMER_MS.c ****         /* This functionality is removed until a FixedFunction HW update to
 484:Generated_Source\PSoC5/TIMER_MS.c ****          * allow this register to be written
 485:Generated_Source\PSoC5/TIMER_MS.c ****          */
 486:Generated_Source\PSoC5/TIMER_MS.c ****         CY_SET_REG16(TIMER_MS_COUNTER_LSB_PTR, (uint16)counter);
 307              		.loc 1 486 0
 308 0000 014B     		ldr	r3, .L32
 309 0002 1880     		strh	r0, [r3]	@ movhi
 310 0004 7047     		bx	lr
 311              	.L33:
 312 0006 00BF     		.align	2
ARM GAS  C:\Users\MANSRO~1\AppData\Local\Temp\ccRc1hfX.s 			page 15


 313              	.L32:
 314 0008 124F0040 		.word	1073762066
 315              		.cfi_endproc
 316              	.LFE12:
 317              		.size	TIMER_MS_WriteCounter, .-TIMER_MS_WriteCounter
 318              		.section	.text.TIMER_MS_Init,"ax",%progbits
 319              		.align	2
 320              		.global	TIMER_MS_Init
 321              		.thumb
 322              		.thumb_func
 323              		.type	TIMER_MS_Init, %function
 324              	TIMER_MS_Init:
 325              	.LFB0:
  44:Generated_Source\PSoC5/TIMER_MS.c ****     #if(!TIMER_MS_UsingFixedFunction)
 326              		.loc 1 44 0
 327              		.cfi_startproc
 328              		@ args = 0, pretend = 0, frame = 0
 329              		@ frame_needed = 0, uses_anonymous_args = 0
 330 0000 08B5     		push	{r3, lr}
 331              		.cfi_def_cfa_offset 8
 332              		.cfi_offset 3, -8
 333              		.cfi_offset 14, -4
  52:Generated_Source\PSoC5/TIMER_MS.c **** 
 334              		.loc 1 52 0
 335 0002 164A     		ldr	r2, .L36
 336 0004 1378     		ldrb	r3, [r2]	@ zero_extendqisi2
 337 0006 03F00103 		and	r3, r3, #1
 338 000a 1370     		strb	r3, [r2]
  60:Generated_Source\PSoC5/TIMER_MS.c ****         #endif /* CONTROL3 register exists only in PSoC3 OR PSoC5LP */
 339              		.loc 1 60 0
 340 000c 0232     		adds	r2, r2, #2
 341 000e 1378     		ldrb	r3, [r2]	@ zero_extendqisi2
 342 0010 03F0FC03 		and	r3, r3, #252
 343 0014 1370     		strb	r3, [r2]
 106:Generated_Source\PSoC5/TIMER_MS.c ****         TIMER_MS_RT1 |= TIMER_MS_SYNC;
 344              		.loc 1 106 0
 345 0016 124B     		ldr	r3, .L36+4
 346 0018 1A78     		ldrb	r2, [r3]	@ zero_extendqisi2
 347 001a 02F0CF02 		and	r2, r2, #207
 348 001e 1A70     		strb	r2, [r3]
 107:Generated_Source\PSoC5/TIMER_MS.c **** 
 349              		.loc 1 107 0
 350 0020 1A78     		ldrb	r2, [r3]	@ zero_extendqisi2
 351 0022 42F03002 		orr	r2, r2, #48
 352 0026 1A70     		strb	r2, [r3]
 110:Generated_Source\PSoC5/TIMER_MS.c ****         TIMER_MS_RT1 |= TIMER_MS_SYNCDSI_EN;
 353              		.loc 1 110 0
 354 0028 1A78     		ldrb	r2, [r3]	@ zero_extendqisi2
 355 002a 02F0F002 		and	r2, r2, #240
 356 002e 1A70     		strb	r2, [r3]
 111:Generated_Source\PSoC5/TIMER_MS.c **** 
 357              		.loc 1 111 0
 358 0030 1A78     		ldrb	r2, [r3]	@ zero_extendqisi2
 359 0032 42F00F02 		orr	r2, r2, #15
 360 0036 1A70     		strb	r2, [r3]
 114:Generated_Source\PSoC5/TIMER_MS.c ****     #endif /* Configuring registers of fixed function implementation */
 361              		.loc 1 114 0
ARM GAS  C:\Users\MANSRO~1\AppData\Local\Temp\ccRc1hfX.s 			page 16


 362 0038 0A4A     		ldr	r2, .L36+8
 363 003a 1378     		ldrb	r3, [r2]	@ zero_extendqisi2
 364 003c 43F00103 		orr	r3, r3, #1
 365 0040 1370     		strb	r3, [r2]
 118:Generated_Source\PSoC5/TIMER_MS.c ****     TIMER_MS_WriteCounter(TIMER_MS_INIT_PERIOD);
 366              		.loc 1 118 0
 367 0042 4CF24F30 		movw	r0, #49999
 368 0046 FFF7FEFF 		bl	TIMER_MS_WritePeriod
 369              	.LVL4:
 119:Generated_Source\PSoC5/TIMER_MS.c **** 
 370              		.loc 1 119 0
 371 004a 4CF24F30 		movw	r0, #49999
 372 004e FFF7FEFF 		bl	TIMER_MS_WriteCounter
 373              	.LVL5:
 162:Generated_Source\PSoC5/TIMER_MS.c **** }
 374              		.loc 1 162 0
 375 0052 0820     		movs	r0, #8
 376 0054 FFF7FEFF 		bl	TIMER_MS_SetInterruptMode
 377              	.LVL6:
 378 0058 08BD     		pop	{r3, pc}
 379              	.L37:
 380 005a 00BF     		.align	2
 381              	.L36:
 382 005c 0C4F0040 		.word	1073762060
 383 0060 174F0040 		.word	1073762071
 384 0064 0D4F0040 		.word	1073762061
 385              		.cfi_endproc
 386              	.LFE0:
 387              		.size	TIMER_MS_Init, .-TIMER_MS_Init
 388              		.section	.text.TIMER_MS_Start,"ax",%progbits
 389              		.align	2
 390              		.global	TIMER_MS_Start
 391              		.thumb
 392              		.thumb_func
 393              		.type	TIMER_MS_Start, %function
 394              	TIMER_MS_Start:
 395              	.LFB2:
 216:Generated_Source\PSoC5/TIMER_MS.c ****     if(TIMER_MS_initVar == 0u)
 396              		.loc 1 216 0
 397              		.cfi_startproc
 398              		@ args = 0, pretend = 0, frame = 0
 399              		@ frame_needed = 0, uses_anonymous_args = 0
 400 0000 08B5     		push	{r3, lr}
 401              		.cfi_def_cfa_offset 8
 402              		.cfi_offset 3, -8
 403              		.cfi_offset 14, -4
 217:Generated_Source\PSoC5/TIMER_MS.c ****     {
 404              		.loc 1 217 0
 405 0002 054B     		ldr	r3, .L41
 406 0004 1B78     		ldrb	r3, [r3]	@ zero_extendqisi2
 407 0006 23B9     		cbnz	r3, .L39
 219:Generated_Source\PSoC5/TIMER_MS.c **** 
 408              		.loc 1 219 0
 409 0008 FFF7FEFF 		bl	TIMER_MS_Init
 410              	.LVL7:
 221:Generated_Source\PSoC5/TIMER_MS.c ****     }
 411              		.loc 1 221 0
ARM GAS  C:\Users\MANSRO~1\AppData\Local\Temp\ccRc1hfX.s 			page 17


 412 000c 0122     		movs	r2, #1
 413 000e 024B     		ldr	r3, .L41
 414 0010 1A70     		strb	r2, [r3]
 415              	.L39:
 225:Generated_Source\PSoC5/TIMER_MS.c **** }
 416              		.loc 1 225 0
 417 0012 FFF7FEFF 		bl	TIMER_MS_Enable
 418              	.LVL8:
 419 0016 08BD     		pop	{r3, pc}
 420              	.L42:
 421              		.align	2
 422              	.L41:
 423 0018 00000000 		.word	.LANCHOR0
 424              		.cfi_endproc
 425              	.LFE2:
 426              		.size	TIMER_MS_Start, .-TIMER_MS_Start
 427              		.section	.text.TIMER_MS_ReadCounter,"ax",%progbits
 428              		.align	2
 429              		.global	TIMER_MS_ReadCounter
 430              		.thumb
 431              		.thumb_func
 432              		.type	TIMER_MS_ReadCounter, %function
 433              	TIMER_MS_ReadCounter:
 434              	.LFB13:
 487:Generated_Source\PSoC5/TIMER_MS.c ****         
 488:Generated_Source\PSoC5/TIMER_MS.c ****     #else
 489:Generated_Source\PSoC5/TIMER_MS.c ****         CY_SET_REG16(TIMER_MS_COUNTER_LSB_PTR, counter);
 490:Generated_Source\PSoC5/TIMER_MS.c ****     #endif /* Set Write Counter only for the UDB implementation (Write Counter not available in fix
 491:Generated_Source\PSoC5/TIMER_MS.c **** }
 492:Generated_Source\PSoC5/TIMER_MS.c **** 
 493:Generated_Source\PSoC5/TIMER_MS.c **** 
 494:Generated_Source\PSoC5/TIMER_MS.c **** /*******************************************************************************
 495:Generated_Source\PSoC5/TIMER_MS.c **** * Function Name: TIMER_MS_ReadCounter
 496:Generated_Source\PSoC5/TIMER_MS.c **** ********************************************************************************
 497:Generated_Source\PSoC5/TIMER_MS.c **** *
 498:Generated_Source\PSoC5/TIMER_MS.c **** * Summary:
 499:Generated_Source\PSoC5/TIMER_MS.c **** *  This function returns the current counter value.
 500:Generated_Source\PSoC5/TIMER_MS.c **** *
 501:Generated_Source\PSoC5/TIMER_MS.c **** * Parameters:
 502:Generated_Source\PSoC5/TIMER_MS.c **** *  void
 503:Generated_Source\PSoC5/TIMER_MS.c **** *
 504:Generated_Source\PSoC5/TIMER_MS.c **** * Return:
 505:Generated_Source\PSoC5/TIMER_MS.c **** *  Present compare value.
 506:Generated_Source\PSoC5/TIMER_MS.c **** *
 507:Generated_Source\PSoC5/TIMER_MS.c **** *******************************************************************************/
 508:Generated_Source\PSoC5/TIMER_MS.c **** uint16 TIMER_MS_ReadCounter(void) 
 509:Generated_Source\PSoC5/TIMER_MS.c **** {
 435              		.loc 1 509 0
 436              		.cfi_startproc
 437              		@ args = 0, pretend = 0, frame = 0
 438              		@ frame_needed = 0, uses_anonymous_args = 0
 439              		@ link register save eliminated.
 510:Generated_Source\PSoC5/TIMER_MS.c ****     /* Force capture by reading Accumulator */
 511:Generated_Source\PSoC5/TIMER_MS.c ****     /* Must first do a software capture to be able to read the counter */
 512:Generated_Source\PSoC5/TIMER_MS.c ****     /* It is up to the user code to make sure there isn't already captured data in the FIFO */
 513:Generated_Source\PSoC5/TIMER_MS.c ****     #if(TIMER_MS_UsingFixedFunction)
 514:Generated_Source\PSoC5/TIMER_MS.c ****         (void)CY_GET_REG16(TIMER_MS_COUNTER_LSB_PTR);
ARM GAS  C:\Users\MANSRO~1\AppData\Local\Temp\ccRc1hfX.s 			page 18


 440              		.loc 1 514 0
 441 0000 024B     		ldr	r3, .L44
 442 0002 1B88     		ldrh	r3, [r3]
 515:Generated_Source\PSoC5/TIMER_MS.c ****     #else
 516:Generated_Source\PSoC5/TIMER_MS.c ****         (void)CY_GET_REG8(TIMER_MS_COUNTER_LSB_PTR_8BIT);
 517:Generated_Source\PSoC5/TIMER_MS.c ****     #endif/* (TIMER_MS_UsingFixedFunction) */
 518:Generated_Source\PSoC5/TIMER_MS.c **** 
 519:Generated_Source\PSoC5/TIMER_MS.c ****     /* Read the data from the FIFO (or capture register for Fixed Function)*/
 520:Generated_Source\PSoC5/TIMER_MS.c ****     #if(TIMER_MS_UsingFixedFunction)
 521:Generated_Source\PSoC5/TIMER_MS.c ****         return ((uint16)CY_GET_REG16(TIMER_MS_CAPTURE_LSB_PTR));
 443              		.loc 1 521 0
 444 0004 024B     		ldr	r3, .L44+4
 445 0006 1888     		ldrh	r0, [r3]
 522:Generated_Source\PSoC5/TIMER_MS.c ****     #else
 523:Generated_Source\PSoC5/TIMER_MS.c ****         return (CY_GET_REG16(TIMER_MS_CAPTURE_LSB_PTR));
 524:Generated_Source\PSoC5/TIMER_MS.c ****     #endif /* (TIMER_MS_UsingFixedFunction) */
 525:Generated_Source\PSoC5/TIMER_MS.c **** }
 446              		.loc 1 525 0
 447 0008 80B2     		uxth	r0, r0
 448 000a 7047     		bx	lr
 449              	.L45:
 450              		.align	2
 451              	.L44:
 452 000c 124F0040 		.word	1073762066
 453 0010 144F0040 		.word	1073762068
 454              		.cfi_endproc
 455              	.LFE13:
 456              		.size	TIMER_MS_ReadCounter, .-TIMER_MS_ReadCounter
 457              		.global	TIMER_MS_initVar
 458              		.bss
 459              		.set	.LANCHOR0,. + 0
 460              		.type	TIMER_MS_initVar, %object
 461              		.size	TIMER_MS_initVar, 1
 462              	TIMER_MS_initVar:
 463 0000 00       		.space	1
 464              		.text
 465              	.Letext0:
 466              		.file 2 "Generated_Source\\PSoC5\\cytypes.h"
