ARM GAS  C:\Users\MANSRO~1\AppData\Local\Temp\cclDib9f.s 			page 1


   1              		.syntax unified
   2              		.cpu cortex-m3
   3              		.fpu softvfp
   4              		.eabi_attribute 20, 1
   5              		.eabi_attribute 21, 1
   6              		.eabi_attribute 23, 3
   7              		.eabi_attribute 24, 1
   8              		.eabi_attribute 25, 1
   9              		.eabi_attribute 26, 1
  10              		.eabi_attribute 30, 1
  11              		.eabi_attribute 34, 1
  12              		.eabi_attribute 18, 4
  13              		.thumb
  14              		.syntax unified
  15              		.file	"USBUART_Vbus_ps.c"
  16              		.text
  17              	.Ltext0:
  18              		.cfi_sections	.debug_frame
  19              		.section	.text.USBUART_Vbus_ps_Read,"ax",%progbits
  20              		.align	2
  21              		.global	USBUART_Vbus_ps_Read
  22              		.thumb
  23              		.thumb_func
  24              		.type	USBUART_Vbus_ps_Read, %function
  25              	USBUART_Vbus_ps_Read:
  26              	.LFB0:
  27              		.file 1 "Generated_Source\\PSoC5\\USBUART_Vbus_ps.c"
   1:Generated_Source\PSoC5/USBUART_Vbus_ps.c **** /*******************************************************************************
   2:Generated_Source\PSoC5/USBUART_Vbus_ps.c **** * File Name: USBUART_Vbus_ps.c  
   3:Generated_Source\PSoC5/USBUART_Vbus_ps.c **** * Version 1.90
   4:Generated_Source\PSoC5/USBUART_Vbus_ps.c **** *
   5:Generated_Source\PSoC5/USBUART_Vbus_ps.c **** * Description:
   6:Generated_Source\PSoC5/USBUART_Vbus_ps.c **** *  This file contains API to enable firmware to read the value of a Status 
   7:Generated_Source\PSoC5/USBUART_Vbus_ps.c **** *  Register.
   8:Generated_Source\PSoC5/USBUART_Vbus_ps.c **** *
   9:Generated_Source\PSoC5/USBUART_Vbus_ps.c **** * Note:
  10:Generated_Source\PSoC5/USBUART_Vbus_ps.c **** *
  11:Generated_Source\PSoC5/USBUART_Vbus_ps.c **** ********************************************************************************
  12:Generated_Source\PSoC5/USBUART_Vbus_ps.c **** * Copyright 2008-2015, Cypress Semiconductor Corporation.  All rights reserved.
  13:Generated_Source\PSoC5/USBUART_Vbus_ps.c **** * You may use this file only in accordance with the license, terms, conditions, 
  14:Generated_Source\PSoC5/USBUART_Vbus_ps.c **** * disclaimers, and limitations in the end user license agreement accompanying 
  15:Generated_Source\PSoC5/USBUART_Vbus_ps.c **** * the software package with which this file was provided.
  16:Generated_Source\PSoC5/USBUART_Vbus_ps.c **** *******************************************************************************/
  17:Generated_Source\PSoC5/USBUART_Vbus_ps.c **** 
  18:Generated_Source\PSoC5/USBUART_Vbus_ps.c **** #include "USBUART_Vbus_ps.h"
  19:Generated_Source\PSoC5/USBUART_Vbus_ps.c **** 
  20:Generated_Source\PSoC5/USBUART_Vbus_ps.c **** #if !defined(USBUART_Vbus_ps_sts_sts_reg__REMOVED) /* Check for removal by optimization */
  21:Generated_Source\PSoC5/USBUART_Vbus_ps.c **** 
  22:Generated_Source\PSoC5/USBUART_Vbus_ps.c **** 
  23:Generated_Source\PSoC5/USBUART_Vbus_ps.c **** /*******************************************************************************
  24:Generated_Source\PSoC5/USBUART_Vbus_ps.c **** * Function Name: USBUART_Vbus_ps_Read
  25:Generated_Source\PSoC5/USBUART_Vbus_ps.c **** ********************************************************************************
  26:Generated_Source\PSoC5/USBUART_Vbus_ps.c **** *
  27:Generated_Source\PSoC5/USBUART_Vbus_ps.c **** * Summary:
  28:Generated_Source\PSoC5/USBUART_Vbus_ps.c **** *  Reads the current value assigned to the Status Register.
  29:Generated_Source\PSoC5/USBUART_Vbus_ps.c **** *
  30:Generated_Source\PSoC5/USBUART_Vbus_ps.c **** * Parameters:
ARM GAS  C:\Users\MANSRO~1\AppData\Local\Temp\cclDib9f.s 			page 2


  31:Generated_Source\PSoC5/USBUART_Vbus_ps.c **** *  None.
  32:Generated_Source\PSoC5/USBUART_Vbus_ps.c **** *
  33:Generated_Source\PSoC5/USBUART_Vbus_ps.c **** * Return:
  34:Generated_Source\PSoC5/USBUART_Vbus_ps.c **** *  The current value in the Status Register.
  35:Generated_Source\PSoC5/USBUART_Vbus_ps.c **** *
  36:Generated_Source\PSoC5/USBUART_Vbus_ps.c **** *******************************************************************************/
  37:Generated_Source\PSoC5/USBUART_Vbus_ps.c **** uint8 USBUART_Vbus_ps_Read(void) 
  38:Generated_Source\PSoC5/USBUART_Vbus_ps.c **** { 
  28              		.loc 1 38 0
  29              		.cfi_startproc
  30              		@ args = 0, pretend = 0, frame = 0
  31              		@ frame_needed = 0, uses_anonymous_args = 0
  32              		@ link register save eliminated.
  39:Generated_Source\PSoC5/USBUART_Vbus_ps.c ****     return USBUART_Vbus_ps_Status;
  33              		.loc 1 39 0
  34 0000 014B     		ldr	r3, .L2
  35 0002 1878     		ldrb	r0, [r3]	@ zero_extendqisi2
  40:Generated_Source\PSoC5/USBUART_Vbus_ps.c **** }
  36              		.loc 1 40 0
  37 0004 7047     		bx	lr
  38              	.L3:
  39 0006 00BF     		.align	2
  40              	.L2:
  41 0008 64640040 		.word	1073767524
  42              		.cfi_endproc
  43              	.LFE0:
  44              		.size	USBUART_Vbus_ps_Read, .-USBUART_Vbus_ps_Read
  45              		.section	.text.USBUART_Vbus_ps_InterruptEnable,"ax",%progbits
  46              		.align	2
  47              		.global	USBUART_Vbus_ps_InterruptEnable
  48              		.thumb
  49              		.thumb_func
  50              		.type	USBUART_Vbus_ps_InterruptEnable, %function
  51              	USBUART_Vbus_ps_InterruptEnable:
  52              	.LFB1:
  41:Generated_Source\PSoC5/USBUART_Vbus_ps.c **** 
  42:Generated_Source\PSoC5/USBUART_Vbus_ps.c **** 
  43:Generated_Source\PSoC5/USBUART_Vbus_ps.c **** /*******************************************************************************
  44:Generated_Source\PSoC5/USBUART_Vbus_ps.c **** * Function Name: USBUART_Vbus_ps_InterruptEnable
  45:Generated_Source\PSoC5/USBUART_Vbus_ps.c **** ********************************************************************************
  46:Generated_Source\PSoC5/USBUART_Vbus_ps.c **** *
  47:Generated_Source\PSoC5/USBUART_Vbus_ps.c **** * Summary:
  48:Generated_Source\PSoC5/USBUART_Vbus_ps.c **** *  Enables the Status Register interrupt.
  49:Generated_Source\PSoC5/USBUART_Vbus_ps.c **** *
  50:Generated_Source\PSoC5/USBUART_Vbus_ps.c **** * Parameters:
  51:Generated_Source\PSoC5/USBUART_Vbus_ps.c **** *  None.
  52:Generated_Source\PSoC5/USBUART_Vbus_ps.c **** *
  53:Generated_Source\PSoC5/USBUART_Vbus_ps.c **** * Return:
  54:Generated_Source\PSoC5/USBUART_Vbus_ps.c **** *  None.
  55:Generated_Source\PSoC5/USBUART_Vbus_ps.c **** *
  56:Generated_Source\PSoC5/USBUART_Vbus_ps.c **** *******************************************************************************/
  57:Generated_Source\PSoC5/USBUART_Vbus_ps.c **** void USBUART_Vbus_ps_InterruptEnable(void) 
  58:Generated_Source\PSoC5/USBUART_Vbus_ps.c **** {
  53              		.loc 1 58 0
  54              		.cfi_startproc
  55              		@ args = 0, pretend = 0, frame = 0
  56              		@ frame_needed = 0, uses_anonymous_args = 0
ARM GAS  C:\Users\MANSRO~1\AppData\Local\Temp\cclDib9f.s 			page 3


  57 0000 08B5     		push	{r3, lr}
  58              		.cfi_def_cfa_offset 8
  59              		.cfi_offset 3, -8
  60              		.cfi_offset 14, -4
  59:Generated_Source\PSoC5/USBUART_Vbus_ps.c ****     uint8 interruptState;
  60:Generated_Source\PSoC5/USBUART_Vbus_ps.c ****     interruptState = CyEnterCriticalSection();
  61              		.loc 1 60 0
  62 0002 FFF7FEFF 		bl	CyEnterCriticalSection
  63              	.LVL0:
  61:Generated_Source\PSoC5/USBUART_Vbus_ps.c ****     USBUART_Vbus_ps_Status_Aux_Ctrl |= USBUART_Vbus_ps_STATUS_INTR_ENBL;
  64              		.loc 1 61 0
  65 0006 044A     		ldr	r2, .L6
  66 0008 1378     		ldrb	r3, [r2]	@ zero_extendqisi2
  67 000a 43F01003 		orr	r3, r3, #16
  68 000e 1370     		strb	r3, [r2]
  62:Generated_Source\PSoC5/USBUART_Vbus_ps.c ****     CyExitCriticalSection(interruptState);
  69              		.loc 1 62 0
  70 0010 FFF7FEFF 		bl	CyExitCriticalSection
  71              	.LVL1:
  72 0014 08BD     		pop	{r3, pc}
  73              	.L7:
  74 0016 00BF     		.align	2
  75              	.L6:
  76 0018 94640040 		.word	1073767572
  77              		.cfi_endproc
  78              	.LFE1:
  79              		.size	USBUART_Vbus_ps_InterruptEnable, .-USBUART_Vbus_ps_InterruptEnable
  80              		.section	.text.USBUART_Vbus_ps_InterruptDisable,"ax",%progbits
  81              		.align	2
  82              		.global	USBUART_Vbus_ps_InterruptDisable
  83              		.thumb
  84              		.thumb_func
  85              		.type	USBUART_Vbus_ps_InterruptDisable, %function
  86              	USBUART_Vbus_ps_InterruptDisable:
  87              	.LFB2:
  63:Generated_Source\PSoC5/USBUART_Vbus_ps.c **** }
  64:Generated_Source\PSoC5/USBUART_Vbus_ps.c **** 
  65:Generated_Source\PSoC5/USBUART_Vbus_ps.c **** 
  66:Generated_Source\PSoC5/USBUART_Vbus_ps.c **** /*******************************************************************************
  67:Generated_Source\PSoC5/USBUART_Vbus_ps.c **** * Function Name: USBUART_Vbus_ps_InterruptDisable
  68:Generated_Source\PSoC5/USBUART_Vbus_ps.c **** ********************************************************************************
  69:Generated_Source\PSoC5/USBUART_Vbus_ps.c **** *
  70:Generated_Source\PSoC5/USBUART_Vbus_ps.c **** * Summary:
  71:Generated_Source\PSoC5/USBUART_Vbus_ps.c **** *  Disables the Status Register interrupt.
  72:Generated_Source\PSoC5/USBUART_Vbus_ps.c **** *
  73:Generated_Source\PSoC5/USBUART_Vbus_ps.c **** * Parameters:
  74:Generated_Source\PSoC5/USBUART_Vbus_ps.c **** *  None.
  75:Generated_Source\PSoC5/USBUART_Vbus_ps.c **** *
  76:Generated_Source\PSoC5/USBUART_Vbus_ps.c **** * Return:
  77:Generated_Source\PSoC5/USBUART_Vbus_ps.c **** *  None.
  78:Generated_Source\PSoC5/USBUART_Vbus_ps.c **** *
  79:Generated_Source\PSoC5/USBUART_Vbus_ps.c **** *******************************************************************************/
  80:Generated_Source\PSoC5/USBUART_Vbus_ps.c **** void USBUART_Vbus_ps_InterruptDisable(void) 
  81:Generated_Source\PSoC5/USBUART_Vbus_ps.c **** {
  88              		.loc 1 81 0
  89              		.cfi_startproc
  90              		@ args = 0, pretend = 0, frame = 0
ARM GAS  C:\Users\MANSRO~1\AppData\Local\Temp\cclDib9f.s 			page 4


  91              		@ frame_needed = 0, uses_anonymous_args = 0
  92 0000 08B5     		push	{r3, lr}
  93              		.cfi_def_cfa_offset 8
  94              		.cfi_offset 3, -8
  95              		.cfi_offset 14, -4
  82:Generated_Source\PSoC5/USBUART_Vbus_ps.c ****     uint8 interruptState;
  83:Generated_Source\PSoC5/USBUART_Vbus_ps.c ****     interruptState = CyEnterCriticalSection();
  96              		.loc 1 83 0
  97 0002 FFF7FEFF 		bl	CyEnterCriticalSection
  98              	.LVL2:
  84:Generated_Source\PSoC5/USBUART_Vbus_ps.c ****     USBUART_Vbus_ps_Status_Aux_Ctrl &= (uint8)(~USBUART_Vbus_ps_STATUS_INTR_ENBL);
  99              		.loc 1 84 0
 100 0006 044A     		ldr	r2, .L10
 101 0008 1378     		ldrb	r3, [r2]	@ zero_extendqisi2
 102 000a 03F0EF03 		and	r3, r3, #239
 103 000e 1370     		strb	r3, [r2]
  85:Generated_Source\PSoC5/USBUART_Vbus_ps.c ****     CyExitCriticalSection(interruptState);
 104              		.loc 1 85 0
 105 0010 FFF7FEFF 		bl	CyExitCriticalSection
 106              	.LVL3:
 107 0014 08BD     		pop	{r3, pc}
 108              	.L11:
 109 0016 00BF     		.align	2
 110              	.L10:
 111 0018 94640040 		.word	1073767572
 112              		.cfi_endproc
 113              	.LFE2:
 114              		.size	USBUART_Vbus_ps_InterruptDisable, .-USBUART_Vbus_ps_InterruptDisable
 115              		.section	.text.USBUART_Vbus_ps_WriteMask,"ax",%progbits
 116              		.align	2
 117              		.global	USBUART_Vbus_ps_WriteMask
 118              		.thumb
 119              		.thumb_func
 120              		.type	USBUART_Vbus_ps_WriteMask, %function
 121              	USBUART_Vbus_ps_WriteMask:
 122              	.LFB3:
  86:Generated_Source\PSoC5/USBUART_Vbus_ps.c **** }
  87:Generated_Source\PSoC5/USBUART_Vbus_ps.c **** 
  88:Generated_Source\PSoC5/USBUART_Vbus_ps.c **** 
  89:Generated_Source\PSoC5/USBUART_Vbus_ps.c **** /*******************************************************************************
  90:Generated_Source\PSoC5/USBUART_Vbus_ps.c **** * Function Name: USBUART_Vbus_ps_WriteMask
  91:Generated_Source\PSoC5/USBUART_Vbus_ps.c **** ********************************************************************************
  92:Generated_Source\PSoC5/USBUART_Vbus_ps.c **** *
  93:Generated_Source\PSoC5/USBUART_Vbus_ps.c **** * Summary:
  94:Generated_Source\PSoC5/USBUART_Vbus_ps.c **** *  Writes the current mask value assigned to the Status Register.
  95:Generated_Source\PSoC5/USBUART_Vbus_ps.c **** *
  96:Generated_Source\PSoC5/USBUART_Vbus_ps.c **** * Parameters:
  97:Generated_Source\PSoC5/USBUART_Vbus_ps.c **** *  mask:  Value to write into the mask register.
  98:Generated_Source\PSoC5/USBUART_Vbus_ps.c **** *
  99:Generated_Source\PSoC5/USBUART_Vbus_ps.c **** * Return:
 100:Generated_Source\PSoC5/USBUART_Vbus_ps.c **** *  None.
 101:Generated_Source\PSoC5/USBUART_Vbus_ps.c **** *
 102:Generated_Source\PSoC5/USBUART_Vbus_ps.c **** *******************************************************************************/
 103:Generated_Source\PSoC5/USBUART_Vbus_ps.c **** void USBUART_Vbus_ps_WriteMask(uint8 mask) 
 104:Generated_Source\PSoC5/USBUART_Vbus_ps.c **** {
 123              		.loc 1 104 0
 124              		.cfi_startproc
ARM GAS  C:\Users\MANSRO~1\AppData\Local\Temp\cclDib9f.s 			page 5


 125              		@ args = 0, pretend = 0, frame = 0
 126              		@ frame_needed = 0, uses_anonymous_args = 0
 127              		@ link register save eliminated.
 128              	.LVL4:
 105:Generated_Source\PSoC5/USBUART_Vbus_ps.c ****     #if(USBUART_Vbus_ps_INPUTS < 8u)
 106:Generated_Source\PSoC5/USBUART_Vbus_ps.c ****     	mask &= ((uint8)(1u << USBUART_Vbus_ps_INPUTS) - 1u);
 129              		.loc 1 106 0
 130 0000 00F00100 		and	r0, r0, #1
 131              	.LVL5:
 107:Generated_Source\PSoC5/USBUART_Vbus_ps.c **** 	#endif /* End USBUART_Vbus_ps_INPUTS < 8u */
 108:Generated_Source\PSoC5/USBUART_Vbus_ps.c ****     USBUART_Vbus_ps_Status_Mask = mask;
 132              		.loc 1 108 0
 133 0004 014B     		ldr	r3, .L13
 134 0006 1870     		strb	r0, [r3]
 135 0008 7047     		bx	lr
 136              	.L14:
 137 000a 00BF     		.align	2
 138              	.L13:
 139 000c 84640040 		.word	1073767556
 140              		.cfi_endproc
 141              	.LFE3:
 142              		.size	USBUART_Vbus_ps_WriteMask, .-USBUART_Vbus_ps_WriteMask
 143              		.section	.text.USBUART_Vbus_ps_ReadMask,"ax",%progbits
 144              		.align	2
 145              		.global	USBUART_Vbus_ps_ReadMask
 146              		.thumb
 147              		.thumb_func
 148              		.type	USBUART_Vbus_ps_ReadMask, %function
 149              	USBUART_Vbus_ps_ReadMask:
 150              	.LFB4:
 109:Generated_Source\PSoC5/USBUART_Vbus_ps.c **** }
 110:Generated_Source\PSoC5/USBUART_Vbus_ps.c **** 
 111:Generated_Source\PSoC5/USBUART_Vbus_ps.c **** 
 112:Generated_Source\PSoC5/USBUART_Vbus_ps.c **** /*******************************************************************************
 113:Generated_Source\PSoC5/USBUART_Vbus_ps.c **** * Function Name: USBUART_Vbus_ps_ReadMask
 114:Generated_Source\PSoC5/USBUART_Vbus_ps.c **** ********************************************************************************
 115:Generated_Source\PSoC5/USBUART_Vbus_ps.c **** *
 116:Generated_Source\PSoC5/USBUART_Vbus_ps.c **** * Summary:
 117:Generated_Source\PSoC5/USBUART_Vbus_ps.c **** *  Reads the current interrupt mask assigned to the Status Register.
 118:Generated_Source\PSoC5/USBUART_Vbus_ps.c **** *
 119:Generated_Source\PSoC5/USBUART_Vbus_ps.c **** * Parameters:
 120:Generated_Source\PSoC5/USBUART_Vbus_ps.c **** *  None.
 121:Generated_Source\PSoC5/USBUART_Vbus_ps.c **** *
 122:Generated_Source\PSoC5/USBUART_Vbus_ps.c **** * Return:
 123:Generated_Source\PSoC5/USBUART_Vbus_ps.c **** *  The value of the interrupt mask of the Status Register.
 124:Generated_Source\PSoC5/USBUART_Vbus_ps.c **** *
 125:Generated_Source\PSoC5/USBUART_Vbus_ps.c **** *******************************************************************************/
 126:Generated_Source\PSoC5/USBUART_Vbus_ps.c **** uint8 USBUART_Vbus_ps_ReadMask(void) 
 127:Generated_Source\PSoC5/USBUART_Vbus_ps.c **** {
 151              		.loc 1 127 0
 152              		.cfi_startproc
 153              		@ args = 0, pretend = 0, frame = 0
 154              		@ frame_needed = 0, uses_anonymous_args = 0
 155              		@ link register save eliminated.
 128:Generated_Source\PSoC5/USBUART_Vbus_ps.c ****     return USBUART_Vbus_ps_Status_Mask;
 156              		.loc 1 128 0
 157 0000 014B     		ldr	r3, .L16
ARM GAS  C:\Users\MANSRO~1\AppData\Local\Temp\cclDib9f.s 			page 6


 158 0002 1878     		ldrb	r0, [r3]	@ zero_extendqisi2
 129:Generated_Source\PSoC5/USBUART_Vbus_ps.c **** }
 159              		.loc 1 129 0
 160 0004 7047     		bx	lr
 161              	.L17:
 162 0006 00BF     		.align	2
 163              	.L16:
 164 0008 84640040 		.word	1073767556
 165              		.cfi_endproc
 166              	.LFE4:
 167              		.size	USBUART_Vbus_ps_ReadMask, .-USBUART_Vbus_ps_ReadMask
 168              		.text
 169              	.Letext0:
 170              		.file 2 "Generated_Source\\PSoC5\\cytypes.h"
 171              		.file 3 "Generated_Source\\PSoC5\\CyLib.h"
