ARM GAS  C:\Users\MANSRO~1\AppData\Local\Temp\cc6Us192.s 			page 1


   1              		.syntax unified
   2              		.cpu cortex-m3
   3              		.fpu softvfp
   4              		.eabi_attribute 20, 1
   5              		.eabi_attribute 21, 1
   6              		.eabi_attribute 23, 3
   7              		.eabi_attribute 24, 1
   8              		.eabi_attribute 25, 1
   9              		.eabi_attribute 26, 1
  10              		.eabi_attribute 30, 1
  11              		.eabi_attribute 34, 1
  12              		.eabi_attribute 18, 4
  13              		.thumb
  14              		.syntax unified
  15              		.file	"USBUART_std.c"
  16              		.text
  17              	.Ltext0:
  18              		.cfi_sections	.debug_frame
  19              		.section	.text.USBUART_ConfigReg,"ax",%progbits
  20              		.align	2
  21              		.global	USBUART_ConfigReg
  22              		.thumb
  23              		.thumb_func
  24              		.type	USBUART_ConfigReg, %function
  25              	USBUART_ConfigReg:
  26              	.LFB1:
  27              		.file 1 "Generated_Source\\PSoC5\\USBUART_std.c"
   1:Generated_Source\PSoC5/USBUART_std.c **** /***************************************************************************//**
   2:Generated_Source\PSoC5/USBUART_std.c **** * \file USBUART_std.c
   3:Generated_Source\PSoC5/USBUART_std.c **** * \version 3.20
   4:Generated_Source\PSoC5/USBUART_std.c **** *
   5:Generated_Source\PSoC5/USBUART_std.c **** * \brief
   6:Generated_Source\PSoC5/USBUART_std.c **** *  This file contains the USB Standard request handler.
   7:Generated_Source\PSoC5/USBUART_std.c **** *
   8:Generated_Source\PSoC5/USBUART_std.c **** ********************************************************************************
   9:Generated_Source\PSoC5/USBUART_std.c **** * \copyright
  10:Generated_Source\PSoC5/USBUART_std.c **** * Copyright 2008-2016, Cypress Semiconductor Corporation.  All rights reserved.
  11:Generated_Source\PSoC5/USBUART_std.c **** * You may use this file only in accordance with the license, terms, conditions,
  12:Generated_Source\PSoC5/USBUART_std.c **** * disclaimers, and limitations in the end user license agreement accompanying
  13:Generated_Source\PSoC5/USBUART_std.c **** * the software package with which this file was provided.
  14:Generated_Source\PSoC5/USBUART_std.c **** *******************************************************************************/
  15:Generated_Source\PSoC5/USBUART_std.c **** 
  16:Generated_Source\PSoC5/USBUART_std.c **** #include "USBUART_pvt.h"
  17:Generated_Source\PSoC5/USBUART_std.c **** 
  18:Generated_Source\PSoC5/USBUART_std.c **** /***************************************
  19:Generated_Source\PSoC5/USBUART_std.c **** *   Static data allocation
  20:Generated_Source\PSoC5/USBUART_std.c **** ***************************************/
  21:Generated_Source\PSoC5/USBUART_std.c **** 
  22:Generated_Source\PSoC5/USBUART_std.c **** #if defined(USBUART_ENABLE_FWSN_STRING)
  23:Generated_Source\PSoC5/USBUART_std.c ****     static volatile uint8* USBUART_fwSerialNumberStringDescriptor;
  24:Generated_Source\PSoC5/USBUART_std.c ****     static volatile uint8  USBUART_snStringConfirm = USBUART_FALSE;
  25:Generated_Source\PSoC5/USBUART_std.c **** #endif  /* (USBUART_ENABLE_FWSN_STRING) */
  26:Generated_Source\PSoC5/USBUART_std.c **** 
  27:Generated_Source\PSoC5/USBUART_std.c **** #if defined(USBUART_ENABLE_FWSN_STRING)
  28:Generated_Source\PSoC5/USBUART_std.c ****     /***************************************************************************
  29:Generated_Source\PSoC5/USBUART_std.c ****     * Function Name: USBUART_SerialNumString
  30:Generated_Source\PSoC5/USBUART_std.c ****     ************************************************************************//**
ARM GAS  C:\Users\MANSRO~1\AppData\Local\Temp\cc6Us192.s 			page 2


  31:Generated_Source\PSoC5/USBUART_std.c ****     *
  32:Generated_Source\PSoC5/USBUART_std.c ****     *  This function is available only when the User Call Back option in the 
  33:Generated_Source\PSoC5/USBUART_std.c ****     *  Serial Number String descriptor properties is selected. Application 
  34:Generated_Source\PSoC5/USBUART_std.c ****     *  firmware can provide the source of the USB device serial number string 
  35:Generated_Source\PSoC5/USBUART_std.c ****     *  descriptor during run time. The default string is used if the application 
  36:Generated_Source\PSoC5/USBUART_std.c ****     *  firmware does not use this function or sets the wrong string descriptor.
  37:Generated_Source\PSoC5/USBUART_std.c ****     *
  38:Generated_Source\PSoC5/USBUART_std.c ****     *  \param snString:  Pointer to the user-defined string descriptor. The 
  39:Generated_Source\PSoC5/USBUART_std.c ****     *  string descriptor should meet the Universal Serial Bus Specification 
  40:Generated_Source\PSoC5/USBUART_std.c ****     *  revision 2.0 chapter 9.6.7
  41:Generated_Source\PSoC5/USBUART_std.c ****     *  Offset|Size|Value|Description
  42:Generated_Source\PSoC5/USBUART_std.c ****     *  ------|----|------|---------------------------------
  43:Generated_Source\PSoC5/USBUART_std.c ****     *  0     |1   |N     |Size of this descriptor in bytes
  44:Generated_Source\PSoC5/USBUART_std.c ****     *  1     |1   |0x03  |STRING Descriptor Type
  45:Generated_Source\PSoC5/USBUART_std.c ****     *  2     |N-2 |Number|UNICODE encoded string
  46:Generated_Source\PSoC5/USBUART_std.c ****     *  
  47:Generated_Source\PSoC5/USBUART_std.c ****     * *For example:* uint8 snString[16]={0x0E,0x03,'F',0,'W',0,'S',0,'N',0,'0',0,'1',0};
  48:Generated_Source\PSoC5/USBUART_std.c ****     *
  49:Generated_Source\PSoC5/USBUART_std.c ****     * \reentrant
  50:Generated_Source\PSoC5/USBUART_std.c ****     *  No.
  51:Generated_Source\PSoC5/USBUART_std.c ****     *
  52:Generated_Source\PSoC5/USBUART_std.c ****     ***************************************************************************/
  53:Generated_Source\PSoC5/USBUART_std.c ****     void  USBUART_SerialNumString(uint8 snString[]) 
  54:Generated_Source\PSoC5/USBUART_std.c ****     {
  55:Generated_Source\PSoC5/USBUART_std.c ****         USBUART_snStringConfirm = USBUART_FALSE;
  56:Generated_Source\PSoC5/USBUART_std.c ****         
  57:Generated_Source\PSoC5/USBUART_std.c ****         if (snString != NULL)
  58:Generated_Source\PSoC5/USBUART_std.c ****         {
  59:Generated_Source\PSoC5/USBUART_std.c ****             /* Check descriptor validation */
  60:Generated_Source\PSoC5/USBUART_std.c ****             if ((snString[0u] > 1u) && (snString[1u] == USBUART_DESCR_STRING))
  61:Generated_Source\PSoC5/USBUART_std.c ****             {
  62:Generated_Source\PSoC5/USBUART_std.c ****                 USBUART_fwSerialNumberStringDescriptor = snString;
  63:Generated_Source\PSoC5/USBUART_std.c ****                 USBUART_snStringConfirm = USBUART_TRUE;
  64:Generated_Source\PSoC5/USBUART_std.c ****             }
  65:Generated_Source\PSoC5/USBUART_std.c ****         }
  66:Generated_Source\PSoC5/USBUART_std.c ****     }
  67:Generated_Source\PSoC5/USBUART_std.c **** #endif  /* USBUART_ENABLE_FWSN_STRING */
  68:Generated_Source\PSoC5/USBUART_std.c **** 
  69:Generated_Source\PSoC5/USBUART_std.c **** 
  70:Generated_Source\PSoC5/USBUART_std.c **** /*******************************************************************************
  71:Generated_Source\PSoC5/USBUART_std.c **** * Function Name: USBUART_HandleStandardRqst
  72:Generated_Source\PSoC5/USBUART_std.c **** ****************************************************************************//**
  73:Generated_Source\PSoC5/USBUART_std.c **** *
  74:Generated_Source\PSoC5/USBUART_std.c **** *  This Routine dispatches standard requests
  75:Generated_Source\PSoC5/USBUART_std.c **** *
  76:Generated_Source\PSoC5/USBUART_std.c **** *
  77:Generated_Source\PSoC5/USBUART_std.c **** * \return
  78:Generated_Source\PSoC5/USBUART_std.c **** *  TRUE if request handled.
  79:Generated_Source\PSoC5/USBUART_std.c **** *
  80:Generated_Source\PSoC5/USBUART_std.c **** * \reentrant
  81:Generated_Source\PSoC5/USBUART_std.c **** *  No.
  82:Generated_Source\PSoC5/USBUART_std.c **** *
  83:Generated_Source\PSoC5/USBUART_std.c **** *******************************************************************************/
  84:Generated_Source\PSoC5/USBUART_std.c **** uint8 USBUART_HandleStandardRqst(void) 
  85:Generated_Source\PSoC5/USBUART_std.c **** {
  86:Generated_Source\PSoC5/USBUART_std.c ****     uint8 requestHandled = USBUART_FALSE;
  87:Generated_Source\PSoC5/USBUART_std.c ****     uint8 interfaceNumber;
ARM GAS  C:\Users\MANSRO~1\AppData\Local\Temp\cc6Us192.s 			page 3


  88:Generated_Source\PSoC5/USBUART_std.c ****     uint8 configurationN;
  89:Generated_Source\PSoC5/USBUART_std.c ****     uint8 bmRequestType = USBUART_bmRequestTypeReg;
  90:Generated_Source\PSoC5/USBUART_std.c **** 
  91:Generated_Source\PSoC5/USBUART_std.c **** #if defined(USBUART_ENABLE_STRINGS)
  92:Generated_Source\PSoC5/USBUART_std.c ****     volatile uint8 *pStr = 0u;
  93:Generated_Source\PSoC5/USBUART_std.c ****     #if defined(USBUART_ENABLE_DESCRIPTOR_STRINGS)
  94:Generated_Source\PSoC5/USBUART_std.c ****         uint8 nStr;
  95:Generated_Source\PSoC5/USBUART_std.c ****         uint8 descrLength;
  96:Generated_Source\PSoC5/USBUART_std.c ****     #endif /* (USBUART_ENABLE_DESCRIPTOR_STRINGS) */
  97:Generated_Source\PSoC5/USBUART_std.c **** #endif /* (USBUART_ENABLE_STRINGS) */
  98:Generated_Source\PSoC5/USBUART_std.c ****     
  99:Generated_Source\PSoC5/USBUART_std.c ****     static volatile uint8 USBUART_tBuffer[USBUART_STATUS_LENGTH_MAX];
 100:Generated_Source\PSoC5/USBUART_std.c ****     const T_USBUART_LUT CYCODE *pTmp;
 101:Generated_Source\PSoC5/USBUART_std.c **** 
 102:Generated_Source\PSoC5/USBUART_std.c ****     USBUART_currentTD.count = 0u;
 103:Generated_Source\PSoC5/USBUART_std.c **** 
 104:Generated_Source\PSoC5/USBUART_std.c ****     if (USBUART_RQST_DIR_D2H == (bmRequestType & USBUART_RQST_DIR_MASK))
 105:Generated_Source\PSoC5/USBUART_std.c ****     {
 106:Generated_Source\PSoC5/USBUART_std.c ****         /* Control Read */
 107:Generated_Source\PSoC5/USBUART_std.c ****         switch (USBUART_bRequestReg)
 108:Generated_Source\PSoC5/USBUART_std.c ****         {
 109:Generated_Source\PSoC5/USBUART_std.c ****             case USBUART_GET_DESCRIPTOR:
 110:Generated_Source\PSoC5/USBUART_std.c ****                 if (USBUART_DESCR_DEVICE ==USBUART_wValueHiReg)
 111:Generated_Source\PSoC5/USBUART_std.c ****                 {
 112:Generated_Source\PSoC5/USBUART_std.c ****                     pTmp = USBUART_GetDeviceTablePtr();
 113:Generated_Source\PSoC5/USBUART_std.c ****                     USBUART_currentTD.pData = (volatile uint8 *)pTmp->p_list;
 114:Generated_Source\PSoC5/USBUART_std.c ****                     USBUART_currentTD.count = USBUART_DEVICE_DESCR_LENGTH;
 115:Generated_Source\PSoC5/USBUART_std.c ****                     
 116:Generated_Source\PSoC5/USBUART_std.c ****                     requestHandled  = USBUART_InitControlRead();
 117:Generated_Source\PSoC5/USBUART_std.c ****                 }
 118:Generated_Source\PSoC5/USBUART_std.c ****                 else if (USBUART_DESCR_CONFIG == USBUART_wValueHiReg)
 119:Generated_Source\PSoC5/USBUART_std.c ****                 {
 120:Generated_Source\PSoC5/USBUART_std.c ****                     pTmp = USBUART_GetConfigTablePtr((uint8) USBUART_wValueLoReg);
 121:Generated_Source\PSoC5/USBUART_std.c ****                     
 122:Generated_Source\PSoC5/USBUART_std.c ****                     /* Verify that requested descriptor exists */
 123:Generated_Source\PSoC5/USBUART_std.c ****                     if (pTmp != NULL)
 124:Generated_Source\PSoC5/USBUART_std.c ****                     {
 125:Generated_Source\PSoC5/USBUART_std.c ****                         USBUART_currentTD.pData = (volatile uint8 *)pTmp->p_list;
 126:Generated_Source\PSoC5/USBUART_std.c ****                         USBUART_currentTD.count = (uint16)((uint16)(USBUART_currentTD.pData)[USBUAR
 127:Generated_Source\PSoC5/USBUART_std.c ****                                                                             (USBUART_currentTD.pDat
 128:Generated_Source\PSoC5/USBUART_std.c ****                         requestHandled  = USBUART_InitControlRead();
 129:Generated_Source\PSoC5/USBUART_std.c ****                     }
 130:Generated_Source\PSoC5/USBUART_std.c ****                 }
 131:Generated_Source\PSoC5/USBUART_std.c ****                 
 132:Generated_Source\PSoC5/USBUART_std.c ****             #if(USBUART_BOS_ENABLE)
 133:Generated_Source\PSoC5/USBUART_std.c ****                 else if (USBUART_DESCR_BOS == USBUART_wValueHiReg)
 134:Generated_Source\PSoC5/USBUART_std.c ****                 {
 135:Generated_Source\PSoC5/USBUART_std.c ****                     pTmp = USBUART_GetBOSPtr();
 136:Generated_Source\PSoC5/USBUART_std.c ****                     
 137:Generated_Source\PSoC5/USBUART_std.c ****                     /* Verify that requested descriptor exists */
 138:Generated_Source\PSoC5/USBUART_std.c ****                     if (pTmp != NULL)
 139:Generated_Source\PSoC5/USBUART_std.c ****                     {
 140:Generated_Source\PSoC5/USBUART_std.c ****                         USBUART_currentTD.pData = (volatile uint8 *)pTmp;
 141:Generated_Source\PSoC5/USBUART_std.c ****                         USBUART_currentTD.count = ((uint16)((uint16)(USBUART_currentTD.pData)[USBUA
 142:Generated_Source\PSoC5/USBUART_std.c ****                                                                              (USBUART_currentTD.pDa
 143:Generated_Source\PSoC5/USBUART_std.c ****                         requestHandled  = USBUART_InitControlRead();
 144:Generated_Source\PSoC5/USBUART_std.c ****                     }
ARM GAS  C:\Users\MANSRO~1\AppData\Local\Temp\cc6Us192.s 			page 4


 145:Generated_Source\PSoC5/USBUART_std.c ****                 }
 146:Generated_Source\PSoC5/USBUART_std.c ****             #endif /*(USBUART_BOS_ENABLE)*/
 147:Generated_Source\PSoC5/USBUART_std.c ****             
 148:Generated_Source\PSoC5/USBUART_std.c ****             #if defined(USBUART_ENABLE_STRINGS)
 149:Generated_Source\PSoC5/USBUART_std.c ****                 else if (USBUART_DESCR_STRING == USBUART_wValueHiReg)
 150:Generated_Source\PSoC5/USBUART_std.c ****                 {
 151:Generated_Source\PSoC5/USBUART_std.c ****                 /* Descriptor Strings */
 152:Generated_Source\PSoC5/USBUART_std.c ****                 #if defined(USBUART_ENABLE_DESCRIPTOR_STRINGS)
 153:Generated_Source\PSoC5/USBUART_std.c ****                     nStr = 0u;
 154:Generated_Source\PSoC5/USBUART_std.c ****                     pStr = (volatile uint8 *) &USBUART_STRING_DESCRIPTORS[0u];
 155:Generated_Source\PSoC5/USBUART_std.c ****                     
 156:Generated_Source\PSoC5/USBUART_std.c ****                     while ((USBUART_wValueLoReg > nStr) && (*pStr != 0u))
 157:Generated_Source\PSoC5/USBUART_std.c ****                     {
 158:Generated_Source\PSoC5/USBUART_std.c ****                         /* Read descriptor length from 1st byte */
 159:Generated_Source\PSoC5/USBUART_std.c ****                         descrLength = *pStr;
 160:Generated_Source\PSoC5/USBUART_std.c ****                         /* Move to next string descriptor */
 161:Generated_Source\PSoC5/USBUART_std.c ****                         pStr = &pStr[descrLength];
 162:Generated_Source\PSoC5/USBUART_std.c ****                         nStr++;
 163:Generated_Source\PSoC5/USBUART_std.c ****                     }
 164:Generated_Source\PSoC5/USBUART_std.c ****                 #endif /* (USBUART_ENABLE_DESCRIPTOR_STRINGS) */
 165:Generated_Source\PSoC5/USBUART_std.c ****                 
 166:Generated_Source\PSoC5/USBUART_std.c ****                 /* Microsoft OS String */
 167:Generated_Source\PSoC5/USBUART_std.c ****                 #if defined(USBUART_ENABLE_MSOS_STRING)
 168:Generated_Source\PSoC5/USBUART_std.c ****                     if (USBUART_STRING_MSOS == USBUART_wValueLoReg)
 169:Generated_Source\PSoC5/USBUART_std.c ****                     {
 170:Generated_Source\PSoC5/USBUART_std.c ****                         pStr = (volatile uint8 *)& USBUART_MSOS_DESCRIPTOR[0u];
 171:Generated_Source\PSoC5/USBUART_std.c ****                     }
 172:Generated_Source\PSoC5/USBUART_std.c ****                 #endif /* (USBUART_ENABLE_MSOS_STRING) */
 173:Generated_Source\PSoC5/USBUART_std.c ****                 
 174:Generated_Source\PSoC5/USBUART_std.c ****                 /* SN string */
 175:Generated_Source\PSoC5/USBUART_std.c ****                 #if defined(USBUART_ENABLE_SN_STRING)
 176:Generated_Source\PSoC5/USBUART_std.c ****                     if ((USBUART_wValueLoReg != 0u) && 
 177:Generated_Source\PSoC5/USBUART_std.c ****                         (USBUART_wValueLoReg == USBUART_DEVICE0_DESCR[USBUART_DEVICE_DESCR_SN_SHIFT
 178:Generated_Source\PSoC5/USBUART_std.c ****                     {
 179:Generated_Source\PSoC5/USBUART_std.c ****                     #if defined(USBUART_ENABLE_IDSN_STRING)
 180:Generated_Source\PSoC5/USBUART_std.c ****                         /* Read DIE ID and generate string descriptor in RAM */
 181:Generated_Source\PSoC5/USBUART_std.c ****                         USBUART_ReadDieID(USBUART_idSerialNumberStringDescriptor);
 182:Generated_Source\PSoC5/USBUART_std.c ****                         pStr = USBUART_idSerialNumberStringDescriptor;
 183:Generated_Source\PSoC5/USBUART_std.c ****                     #elif defined(USBUART_ENABLE_FWSN_STRING)
 184:Generated_Source\PSoC5/USBUART_std.c ****                         
 185:Generated_Source\PSoC5/USBUART_std.c ****                         if(USBUART_snStringConfirm != USBUART_FALSE)
 186:Generated_Source\PSoC5/USBUART_std.c ****                         {
 187:Generated_Source\PSoC5/USBUART_std.c ****                             pStr = USBUART_fwSerialNumberStringDescriptor;
 188:Generated_Source\PSoC5/USBUART_std.c ****                         }
 189:Generated_Source\PSoC5/USBUART_std.c ****                         else
 190:Generated_Source\PSoC5/USBUART_std.c ****                         {
 191:Generated_Source\PSoC5/USBUART_std.c ****                             pStr = (volatile uint8 *)&USBUART_SN_STRING_DESCRIPTOR[0u];
 192:Generated_Source\PSoC5/USBUART_std.c ****                         }
 193:Generated_Source\PSoC5/USBUART_std.c ****                     #else
 194:Generated_Source\PSoC5/USBUART_std.c ****                         pStr = (volatile uint8 *)&USBUART_SN_STRING_DESCRIPTOR[0u];
 195:Generated_Source\PSoC5/USBUART_std.c ****                     #endif  /* (USBUART_ENABLE_IDSN_STRING) */
 196:Generated_Source\PSoC5/USBUART_std.c ****                     }
 197:Generated_Source\PSoC5/USBUART_std.c ****                 #endif /* (USBUART_ENABLE_SN_STRING) */
 198:Generated_Source\PSoC5/USBUART_std.c ****                 
 199:Generated_Source\PSoC5/USBUART_std.c ****                     if (*pStr != 0u)
 200:Generated_Source\PSoC5/USBUART_std.c ****                     {
 201:Generated_Source\PSoC5/USBUART_std.c ****                         USBUART_currentTD.count = *pStr;
ARM GAS  C:\Users\MANSRO~1\AppData\Local\Temp\cc6Us192.s 			page 5


 202:Generated_Source\PSoC5/USBUART_std.c ****                         USBUART_currentTD.pData = pStr;
 203:Generated_Source\PSoC5/USBUART_std.c ****                         requestHandled  = USBUART_InitControlRead();
 204:Generated_Source\PSoC5/USBUART_std.c ****                     }
 205:Generated_Source\PSoC5/USBUART_std.c ****                 }
 206:Generated_Source\PSoC5/USBUART_std.c ****             #endif /*  USBUART_ENABLE_STRINGS */
 207:Generated_Source\PSoC5/USBUART_std.c ****                 else
 208:Generated_Source\PSoC5/USBUART_std.c ****                 {
 209:Generated_Source\PSoC5/USBUART_std.c ****                     requestHandled = USBUART_DispatchClassRqst();
 210:Generated_Source\PSoC5/USBUART_std.c ****                 }
 211:Generated_Source\PSoC5/USBUART_std.c ****                 break;
 212:Generated_Source\PSoC5/USBUART_std.c ****                 
 213:Generated_Source\PSoC5/USBUART_std.c ****             case USBUART_GET_STATUS:
 214:Generated_Source\PSoC5/USBUART_std.c ****                 switch (bmRequestType & USBUART_RQST_RCPT_MASK)
 215:Generated_Source\PSoC5/USBUART_std.c ****                 {
 216:Generated_Source\PSoC5/USBUART_std.c ****                     case USBUART_RQST_RCPT_EP:
 217:Generated_Source\PSoC5/USBUART_std.c ****                         USBUART_currentTD.count = USBUART_EP_STATUS_LENGTH;
 218:Generated_Source\PSoC5/USBUART_std.c ****                         USBUART_tBuffer[0u]     = USBUART_EP[USBUART_wIndexLoReg & USBUART_DIR_UNUS
 219:Generated_Source\PSoC5/USBUART_std.c ****                         USBUART_tBuffer[1u]     = 0u;
 220:Generated_Source\PSoC5/USBUART_std.c ****                         USBUART_currentTD.pData = &USBUART_tBuffer[0u];
 221:Generated_Source\PSoC5/USBUART_std.c ****                         
 222:Generated_Source\PSoC5/USBUART_std.c ****                         requestHandled  = USBUART_InitControlRead();
 223:Generated_Source\PSoC5/USBUART_std.c ****                         break;
 224:Generated_Source\PSoC5/USBUART_std.c ****                     case USBUART_RQST_RCPT_DEV:
 225:Generated_Source\PSoC5/USBUART_std.c ****                         USBUART_currentTD.count = USBUART_DEVICE_STATUS_LENGTH;
 226:Generated_Source\PSoC5/USBUART_std.c ****                         USBUART_tBuffer[0u]     = USBUART_deviceStatus;
 227:Generated_Source\PSoC5/USBUART_std.c ****                         USBUART_tBuffer[1u]     = 0u;
 228:Generated_Source\PSoC5/USBUART_std.c ****                         USBUART_currentTD.pData = &USBUART_tBuffer[0u];
 229:Generated_Source\PSoC5/USBUART_std.c ****                         
 230:Generated_Source\PSoC5/USBUART_std.c ****                         requestHandled  = USBUART_InitControlRead();
 231:Generated_Source\PSoC5/USBUART_std.c ****                         break;
 232:Generated_Source\PSoC5/USBUART_std.c ****                     default:    /* requestHandled is initialized as FALSE by default */
 233:Generated_Source\PSoC5/USBUART_std.c ****                         break;
 234:Generated_Source\PSoC5/USBUART_std.c ****                 }
 235:Generated_Source\PSoC5/USBUART_std.c ****                 break;
 236:Generated_Source\PSoC5/USBUART_std.c ****                 
 237:Generated_Source\PSoC5/USBUART_std.c ****             case USBUART_GET_CONFIGURATION:
 238:Generated_Source\PSoC5/USBUART_std.c ****                 USBUART_currentTD.count = 1u;
 239:Generated_Source\PSoC5/USBUART_std.c ****                 USBUART_currentTD.pData = (volatile uint8 *) &USBUART_configuration;
 240:Generated_Source\PSoC5/USBUART_std.c ****                 requestHandled  = USBUART_InitControlRead();
 241:Generated_Source\PSoC5/USBUART_std.c ****                 break;
 242:Generated_Source\PSoC5/USBUART_std.c ****                 
 243:Generated_Source\PSoC5/USBUART_std.c ****             case USBUART_GET_INTERFACE:
 244:Generated_Source\PSoC5/USBUART_std.c ****                 USBUART_currentTD.count = 1u;
 245:Generated_Source\PSoC5/USBUART_std.c ****                 USBUART_currentTD.pData = (volatile uint8 *) &USBUART_interfaceSetting[USBUART_wInd
 246:Generated_Source\PSoC5/USBUART_std.c ****                 requestHandled  = USBUART_InitControlRead();
 247:Generated_Source\PSoC5/USBUART_std.c ****                 break;
 248:Generated_Source\PSoC5/USBUART_std.c ****                 
 249:Generated_Source\PSoC5/USBUART_std.c ****             default: /* requestHandled is initialized as FALSE by default */
 250:Generated_Source\PSoC5/USBUART_std.c ****                 break;
 251:Generated_Source\PSoC5/USBUART_std.c ****         }
 252:Generated_Source\PSoC5/USBUART_std.c ****     }
 253:Generated_Source\PSoC5/USBUART_std.c ****     else
 254:Generated_Source\PSoC5/USBUART_std.c ****     {
 255:Generated_Source\PSoC5/USBUART_std.c ****         /* Control Write */
 256:Generated_Source\PSoC5/USBUART_std.c ****         switch (USBUART_bRequestReg)
 257:Generated_Source\PSoC5/USBUART_std.c ****         {
 258:Generated_Source\PSoC5/USBUART_std.c ****             case USBUART_SET_ADDRESS:
ARM GAS  C:\Users\MANSRO~1\AppData\Local\Temp\cc6Us192.s 			page 6


 259:Generated_Source\PSoC5/USBUART_std.c ****                 /* Store address to be set in USBUART_NoDataControlStatusStage(). */
 260:Generated_Source\PSoC5/USBUART_std.c ****                 USBUART_deviceAddress = (uint8) USBUART_wValueLoReg;
 261:Generated_Source\PSoC5/USBUART_std.c ****                 requestHandled = USBUART_InitNoDataControlTransfer();
 262:Generated_Source\PSoC5/USBUART_std.c ****                 break;
 263:Generated_Source\PSoC5/USBUART_std.c ****                 
 264:Generated_Source\PSoC5/USBUART_std.c ****             case USBUART_SET_CONFIGURATION:
 265:Generated_Source\PSoC5/USBUART_std.c ****                 configurationN = USBUART_wValueLoReg;
 266:Generated_Source\PSoC5/USBUART_std.c ****                 
 267:Generated_Source\PSoC5/USBUART_std.c ****                 /* Verify that configuration descriptor exists */
 268:Generated_Source\PSoC5/USBUART_std.c ****                 if(configurationN > 0u)
 269:Generated_Source\PSoC5/USBUART_std.c ****                 {
 270:Generated_Source\PSoC5/USBUART_std.c ****                     pTmp = USBUART_GetConfigTablePtr((uint8) configurationN - 1u);
 271:Generated_Source\PSoC5/USBUART_std.c ****                 }
 272:Generated_Source\PSoC5/USBUART_std.c ****                 
 273:Generated_Source\PSoC5/USBUART_std.c ****                 /* Responds with a Request Error when configuration number is invalid */
 274:Generated_Source\PSoC5/USBUART_std.c ****                 if (((configurationN > 0u) && (pTmp != NULL)) || (configurationN == 0u))
 275:Generated_Source\PSoC5/USBUART_std.c ****                 {
 276:Generated_Source\PSoC5/USBUART_std.c ****                     /* Set new configuration if it has been changed */
 277:Generated_Source\PSoC5/USBUART_std.c ****                     if(configurationN != USBUART_configuration)
 278:Generated_Source\PSoC5/USBUART_std.c ****                     {
 279:Generated_Source\PSoC5/USBUART_std.c ****                         USBUART_configuration = (uint8) configurationN;
 280:Generated_Source\PSoC5/USBUART_std.c ****                         USBUART_configurationChanged = USBUART_TRUE;
 281:Generated_Source\PSoC5/USBUART_std.c ****                         USBUART_Config(USBUART_TRUE);
 282:Generated_Source\PSoC5/USBUART_std.c ****                     }
 283:Generated_Source\PSoC5/USBUART_std.c ****                     requestHandled = USBUART_InitNoDataControlTransfer();
 284:Generated_Source\PSoC5/USBUART_std.c ****                 }
 285:Generated_Source\PSoC5/USBUART_std.c ****                 break;
 286:Generated_Source\PSoC5/USBUART_std.c ****                 
 287:Generated_Source\PSoC5/USBUART_std.c ****             case USBUART_SET_INTERFACE:
 288:Generated_Source\PSoC5/USBUART_std.c ****                 if (0u != USBUART_ValidateAlternateSetting())
 289:Generated_Source\PSoC5/USBUART_std.c ****                 {
 290:Generated_Source\PSoC5/USBUART_std.c ****                     /* Get interface number from the request. */
 291:Generated_Source\PSoC5/USBUART_std.c ****                     interfaceNumber = USBUART_wIndexLoReg;
 292:Generated_Source\PSoC5/USBUART_std.c ****                     USBUART_interfaceNumber = (uint8) USBUART_wIndexLoReg;
 293:Generated_Source\PSoC5/USBUART_std.c ****                      
 294:Generated_Source\PSoC5/USBUART_std.c ****                     /* Check if alternate settings is changed for interface. */
 295:Generated_Source\PSoC5/USBUART_std.c ****                     if (USBUART_interfaceSettingLast[interfaceNumber] != USBUART_interfaceSetting[i
 296:Generated_Source\PSoC5/USBUART_std.c ****                     {
 297:Generated_Source\PSoC5/USBUART_std.c ****                         USBUART_configurationChanged = USBUART_TRUE;
 298:Generated_Source\PSoC5/USBUART_std.c ****                     
 299:Generated_Source\PSoC5/USBUART_std.c ****                         /* Change alternate setting for the endpoints. */
 300:Generated_Source\PSoC5/USBUART_std.c ****                     #if (USBUART_EP_MANAGEMENT_MANUAL && USBUART_EP_ALLOC_DYNAMIC)
 301:Generated_Source\PSoC5/USBUART_std.c ****                         USBUART_Config(USBUART_FALSE);
 302:Generated_Source\PSoC5/USBUART_std.c ****                     #else
 303:Generated_Source\PSoC5/USBUART_std.c ****                         USBUART_ConfigAltChanged();
 304:Generated_Source\PSoC5/USBUART_std.c ****                     #endif /* (USBUART_EP_MANAGEMENT_MANUAL && USBUART_EP_ALLOC_DYNAMIC) */
 305:Generated_Source\PSoC5/USBUART_std.c ****                     }
 306:Generated_Source\PSoC5/USBUART_std.c ****                     
 307:Generated_Source\PSoC5/USBUART_std.c ****                     requestHandled = USBUART_InitNoDataControlTransfer();
 308:Generated_Source\PSoC5/USBUART_std.c ****                 }
 309:Generated_Source\PSoC5/USBUART_std.c ****                 break;
 310:Generated_Source\PSoC5/USBUART_std.c ****                 
 311:Generated_Source\PSoC5/USBUART_std.c ****             case USBUART_CLEAR_FEATURE:
 312:Generated_Source\PSoC5/USBUART_std.c ****                 switch (bmRequestType & USBUART_RQST_RCPT_MASK)
 313:Generated_Source\PSoC5/USBUART_std.c ****                 {
 314:Generated_Source\PSoC5/USBUART_std.c ****                     case USBUART_RQST_RCPT_EP:
 315:Generated_Source\PSoC5/USBUART_std.c ****                         if (USBUART_wValueLoReg == USBUART_ENDPOINT_HALT)
ARM GAS  C:\Users\MANSRO~1\AppData\Local\Temp\cc6Us192.s 			page 7


 316:Generated_Source\PSoC5/USBUART_std.c ****                         {
 317:Generated_Source\PSoC5/USBUART_std.c ****                             requestHandled = USBUART_ClearEndpointHalt();
 318:Generated_Source\PSoC5/USBUART_std.c ****                         }
 319:Generated_Source\PSoC5/USBUART_std.c ****                         break;
 320:Generated_Source\PSoC5/USBUART_std.c ****                     case USBUART_RQST_RCPT_DEV:
 321:Generated_Source\PSoC5/USBUART_std.c ****                         /* Clear device REMOTE_WAKEUP */
 322:Generated_Source\PSoC5/USBUART_std.c ****                         if (USBUART_wValueLoReg == USBUART_DEVICE_REMOTE_WAKEUP)
 323:Generated_Source\PSoC5/USBUART_std.c ****                         {
 324:Generated_Source\PSoC5/USBUART_std.c ****                             USBUART_deviceStatus &= (uint8)~USBUART_DEVICE_STATUS_REMOTE_WAKEUP;
 325:Generated_Source\PSoC5/USBUART_std.c ****                             requestHandled = USBUART_InitNoDataControlTransfer();
 326:Generated_Source\PSoC5/USBUART_std.c ****                         }
 327:Generated_Source\PSoC5/USBUART_std.c ****                         break;
 328:Generated_Source\PSoC5/USBUART_std.c ****                     case USBUART_RQST_RCPT_IFC:
 329:Generated_Source\PSoC5/USBUART_std.c ****                         /* Validate interfaceNumber */
 330:Generated_Source\PSoC5/USBUART_std.c ****                         if (USBUART_wIndexLoReg < USBUART_MAX_INTERFACES_NUMBER)
 331:Generated_Source\PSoC5/USBUART_std.c ****                         {
 332:Generated_Source\PSoC5/USBUART_std.c ****                             USBUART_interfaceStatus[USBUART_wIndexLoReg] &= (uint8) ~USBUART_wValue
 333:Generated_Source\PSoC5/USBUART_std.c ****                             requestHandled = USBUART_InitNoDataControlTransfer();
 334:Generated_Source\PSoC5/USBUART_std.c ****                         }
 335:Generated_Source\PSoC5/USBUART_std.c ****                         break;
 336:Generated_Source\PSoC5/USBUART_std.c ****                     default:    /* requestHandled is initialized as FALSE by default */
 337:Generated_Source\PSoC5/USBUART_std.c ****                         break;
 338:Generated_Source\PSoC5/USBUART_std.c ****                 }
 339:Generated_Source\PSoC5/USBUART_std.c ****                 break;
 340:Generated_Source\PSoC5/USBUART_std.c ****                 
 341:Generated_Source\PSoC5/USBUART_std.c ****             case USBUART_SET_FEATURE:
 342:Generated_Source\PSoC5/USBUART_std.c ****                 switch (bmRequestType & USBUART_RQST_RCPT_MASK)
 343:Generated_Source\PSoC5/USBUART_std.c ****                 {
 344:Generated_Source\PSoC5/USBUART_std.c ****                     case USBUART_RQST_RCPT_EP:
 345:Generated_Source\PSoC5/USBUART_std.c ****                         if (USBUART_wValueLoReg == USBUART_ENDPOINT_HALT)
 346:Generated_Source\PSoC5/USBUART_std.c ****                         {
 347:Generated_Source\PSoC5/USBUART_std.c ****                             requestHandled = USBUART_SetEndpointHalt();
 348:Generated_Source\PSoC5/USBUART_std.c ****                         }
 349:Generated_Source\PSoC5/USBUART_std.c ****                         break;
 350:Generated_Source\PSoC5/USBUART_std.c ****                         
 351:Generated_Source\PSoC5/USBUART_std.c ****                     case USBUART_RQST_RCPT_DEV:
 352:Generated_Source\PSoC5/USBUART_std.c ****                         /* Set device REMOTE_WAKEUP */
 353:Generated_Source\PSoC5/USBUART_std.c ****                         if (USBUART_wValueLoReg == USBUART_DEVICE_REMOTE_WAKEUP)
 354:Generated_Source\PSoC5/USBUART_std.c ****                         {
 355:Generated_Source\PSoC5/USBUART_std.c ****                             USBUART_deviceStatus |= USBUART_DEVICE_STATUS_REMOTE_WAKEUP;
 356:Generated_Source\PSoC5/USBUART_std.c ****                             requestHandled = USBUART_InitNoDataControlTransfer();
 357:Generated_Source\PSoC5/USBUART_std.c ****                         }
 358:Generated_Source\PSoC5/USBUART_std.c ****                         break;
 359:Generated_Source\PSoC5/USBUART_std.c ****                         
 360:Generated_Source\PSoC5/USBUART_std.c ****                     case USBUART_RQST_RCPT_IFC:
 361:Generated_Source\PSoC5/USBUART_std.c ****                         /* Validate interfaceNumber */
 362:Generated_Source\PSoC5/USBUART_std.c ****                         if (USBUART_wIndexLoReg < USBUART_MAX_INTERFACES_NUMBER)
 363:Generated_Source\PSoC5/USBUART_std.c ****                         {
 364:Generated_Source\PSoC5/USBUART_std.c ****                             USBUART_interfaceStatus[USBUART_wIndexLoReg] &= (uint8) ~USBUART_wValue
 365:Generated_Source\PSoC5/USBUART_std.c ****                             requestHandled = USBUART_InitNoDataControlTransfer();
 366:Generated_Source\PSoC5/USBUART_std.c ****                         }
 367:Generated_Source\PSoC5/USBUART_std.c ****                         break;
 368:Generated_Source\PSoC5/USBUART_std.c ****                     
 369:Generated_Source\PSoC5/USBUART_std.c ****                     default:    /* requestHandled is initialized as FALSE by default */
 370:Generated_Source\PSoC5/USBUART_std.c ****                         break;
 371:Generated_Source\PSoC5/USBUART_std.c ****                 }
 372:Generated_Source\PSoC5/USBUART_std.c ****                 break;
ARM GAS  C:\Users\MANSRO~1\AppData\Local\Temp\cc6Us192.s 			page 8


 373:Generated_Source\PSoC5/USBUART_std.c ****                 
 374:Generated_Source\PSoC5/USBUART_std.c ****             default:    /* requestHandled is initialized as FALSE by default */
 375:Generated_Source\PSoC5/USBUART_std.c ****                 break;
 376:Generated_Source\PSoC5/USBUART_std.c ****         }
 377:Generated_Source\PSoC5/USBUART_std.c ****     }
 378:Generated_Source\PSoC5/USBUART_std.c ****     
 379:Generated_Source\PSoC5/USBUART_std.c ****     return (requestHandled);
 380:Generated_Source\PSoC5/USBUART_std.c **** }
 381:Generated_Source\PSoC5/USBUART_std.c **** 
 382:Generated_Source\PSoC5/USBUART_std.c **** 
 383:Generated_Source\PSoC5/USBUART_std.c **** #if defined(USBUART_ENABLE_IDSN_STRING)
 384:Generated_Source\PSoC5/USBUART_std.c ****     /***************************************************************************
 385:Generated_Source\PSoC5/USBUART_std.c ****     * Function Name: USBUART_ReadDieID
 386:Generated_Source\PSoC5/USBUART_std.c ****     ************************************************************************//**
 387:Generated_Source\PSoC5/USBUART_std.c ****     *
 388:Generated_Source\PSoC5/USBUART_std.c ****     *  This routine read Die ID and generate Serial Number string descriptor.
 389:Generated_Source\PSoC5/USBUART_std.c ****     *
 390:Generated_Source\PSoC5/USBUART_std.c ****     *  \param descr:  pointer on string descriptor. This string size has to be equal or
 391:Generated_Source\PSoC5/USBUART_std.c ****     *          greater than USBUART_IDSN_DESCR_LENGTH.
 392:Generated_Source\PSoC5/USBUART_std.c ****     *
 393:Generated_Source\PSoC5/USBUART_std.c ****     *
 394:Generated_Source\PSoC5/USBUART_std.c ****     * \reentrant
 395:Generated_Source\PSoC5/USBUART_std.c ****     *  No.
 396:Generated_Source\PSoC5/USBUART_std.c ****     *
 397:Generated_Source\PSoC5/USBUART_std.c ****     ***************************************************************************/
 398:Generated_Source\PSoC5/USBUART_std.c ****     void USBUART_ReadDieID(uint8 descr[]) 
 399:Generated_Source\PSoC5/USBUART_std.c ****     {
 400:Generated_Source\PSoC5/USBUART_std.c ****         const char8 CYCODE hex[] = "0123456789ABCDEF";
 401:Generated_Source\PSoC5/USBUART_std.c ****         uint8 i;
 402:Generated_Source\PSoC5/USBUART_std.c ****         uint8 j = 0u;
 403:Generated_Source\PSoC5/USBUART_std.c ****         uint8 uniqueId[8u];
 404:Generated_Source\PSoC5/USBUART_std.c **** 
 405:Generated_Source\PSoC5/USBUART_std.c ****         if (NULL != descr)
 406:Generated_Source\PSoC5/USBUART_std.c ****         {
 407:Generated_Source\PSoC5/USBUART_std.c ****             /* Initialize descriptor header. */
 408:Generated_Source\PSoC5/USBUART_std.c ****             descr[0u] = USBUART_IDSN_DESCR_LENGTH;
 409:Generated_Source\PSoC5/USBUART_std.c ****             descr[1u] = USBUART_DESCR_STRING;
 410:Generated_Source\PSoC5/USBUART_std.c ****             
 411:Generated_Source\PSoC5/USBUART_std.c ****             /* Unique ID size is 8 bytes. */
 412:Generated_Source\PSoC5/USBUART_std.c ****             CyGetUniqueId((uint32 *) uniqueId);
 413:Generated_Source\PSoC5/USBUART_std.c **** 
 414:Generated_Source\PSoC5/USBUART_std.c ****             /* Fill descriptor with unique device ID. */
 415:Generated_Source\PSoC5/USBUART_std.c ****             for (i = 2u; i < USBUART_IDSN_DESCR_LENGTH; i += 4u)
 416:Generated_Source\PSoC5/USBUART_std.c ****             {
 417:Generated_Source\PSoC5/USBUART_std.c ****                 descr[i]      = (uint8) hex[(uniqueId[j] >> 4u)];
 418:Generated_Source\PSoC5/USBUART_std.c ****                 descr[i + 1u] = 0u;
 419:Generated_Source\PSoC5/USBUART_std.c ****                 descr[i + 2u] = (uint8) hex[(uniqueId[j] & 0x0Fu)];
 420:Generated_Source\PSoC5/USBUART_std.c ****                 descr[i + 3u] = 0u;
 421:Generated_Source\PSoC5/USBUART_std.c ****                 ++j;
 422:Generated_Source\PSoC5/USBUART_std.c ****             }
 423:Generated_Source\PSoC5/USBUART_std.c ****         }
 424:Generated_Source\PSoC5/USBUART_std.c ****     }
 425:Generated_Source\PSoC5/USBUART_std.c **** #endif /* (USBUART_ENABLE_IDSN_STRING) */
 426:Generated_Source\PSoC5/USBUART_std.c **** 
 427:Generated_Source\PSoC5/USBUART_std.c **** 
 428:Generated_Source\PSoC5/USBUART_std.c **** /*******************************************************************************
 429:Generated_Source\PSoC5/USBUART_std.c **** * Function Name: USBUART_ConfigReg
ARM GAS  C:\Users\MANSRO~1\AppData\Local\Temp\cc6Us192.s 			page 9


 430:Generated_Source\PSoC5/USBUART_std.c **** ****************************************************************************//**
 431:Generated_Source\PSoC5/USBUART_std.c **** *
 432:Generated_Source\PSoC5/USBUART_std.c **** *  This routine configures hardware registers from the variables.
 433:Generated_Source\PSoC5/USBUART_std.c **** *  It is called from USBUART_Config() function and from RestoreConfig
 434:Generated_Source\PSoC5/USBUART_std.c **** *  after Wakeup.
 435:Generated_Source\PSoC5/USBUART_std.c **** *
 436:Generated_Source\PSoC5/USBUART_std.c **** *******************************************************************************/
 437:Generated_Source\PSoC5/USBUART_std.c **** void USBUART_ConfigReg(void) 
 438:Generated_Source\PSoC5/USBUART_std.c **** {
  28              		.loc 1 438 0
  29              		.cfi_startproc
  30              		@ args = 0, pretend = 0, frame = 0
  31              		@ frame_needed = 0, uses_anonymous_args = 0
  32              		@ link register save eliminated.
  33 0000 10B4     		push	{r4}
  34              		.cfi_def_cfa_offset 4
  35              		.cfi_offset 4, -4
  36              	.LVL0:
 439:Generated_Source\PSoC5/USBUART_std.c ****     uint8 ep;
 440:Generated_Source\PSoC5/USBUART_std.c **** 
 441:Generated_Source\PSoC5/USBUART_std.c **** #if (USBUART_EP_MANAGEMENT_DMA_AUTO)
 442:Generated_Source\PSoC5/USBUART_std.c ****     uint8 epType = 0u;
 443:Generated_Source\PSoC5/USBUART_std.c **** #endif /* (USBUART_EP_MANAGEMENT_DMA_AUTO) */
 444:Generated_Source\PSoC5/USBUART_std.c **** 
 445:Generated_Source\PSoC5/USBUART_std.c ****     /* Go thought all endpoints and set hardware configuration */
 446:Generated_Source\PSoC5/USBUART_std.c ****     for (ep = USBUART_EP1; ep < USBUART_MAX_EP; ++ep)
  37              		.loc 1 446 0
  38 0002 0123     		movs	r3, #1
  39 0004 3EE0     		b	.L2
  40              	.LVL1:
  41              	.L6:
 447:Generated_Source\PSoC5/USBUART_std.c ****     {
 448:Generated_Source\PSoC5/USBUART_std.c ****         USBUART_ARB_EP_BASE.arbEp[ep].epCfg = USBUART_ARB_EPX_CFG_DEFAULT;
  42              		.loc 1 448 0
  43 0006 1946     		mov	r1, r3
  44 0008 1A01     		lsls	r2, r3, #4
  45 000a 0C24     		movs	r4, #12
  46 000c 2148     		ldr	r0, .L8
  47 000e 8454     		strb	r4, [r0, r2]
 449:Generated_Source\PSoC5/USBUART_std.c ****         
 450:Generated_Source\PSoC5/USBUART_std.c ****     #if (USBUART_EP_MANAGEMENT_DMA)
 451:Generated_Source\PSoC5/USBUART_std.c ****         /* Enable arbiter endpoint interrupt sources */
 452:Generated_Source\PSoC5/USBUART_std.c ****         USBUART_ARB_EP_BASE.arbEp[ep].epIntEn = USBUART_ARB_EPX_INT_MASK;
 453:Generated_Source\PSoC5/USBUART_std.c ****     #endif /* (USBUART_EP_MANAGEMENT_DMA) */
 454:Generated_Source\PSoC5/USBUART_std.c ****     
 455:Generated_Source\PSoC5/USBUART_std.c ****         if (USBUART_EP[ep].epMode != USBUART_MODE_DISABLE)
  48              		.loc 1 455 0
  49 0010 03EB4300 		add	r0, r3, r3, lsl #1
  50 0014 8200     		lsls	r2, r0, #2
  51 0016 2048     		ldr	r0, .L8+4
  52 0018 0244     		add	r2, r2, r0
  53 001a 5279     		ldrb	r2, [r2, #5]	@ zero_extendqisi2
  54 001c 12F0FF0F 		tst	r2, #255
  55 0020 13D0     		beq	.L3
 456:Generated_Source\PSoC5/USBUART_std.c ****         {
 457:Generated_Source\PSoC5/USBUART_std.c ****             if (0u != (USBUART_EP[ep].addr & USBUART_DIR_IN))
  56              		.loc 1 457 0
ARM GAS  C:\Users\MANSRO~1\AppData\Local\Temp\cc6Us192.s 			page 10


  57 0022 03EB4300 		add	r0, r3, r3, lsl #1
  58 0026 8200     		lsls	r2, r0, #2
  59 0028 1B48     		ldr	r0, .L8+4
  60 002a 0244     		add	r2, r2, r0
  61 002c 1279     		ldrb	r2, [r2, #4]	@ zero_extendqisi2
  62 002e 12F0800F 		tst	r2, #128
  63 0032 04D0     		beq	.L4
 458:Generated_Source\PSoC5/USBUART_std.c ****             {
 459:Generated_Source\PSoC5/USBUART_std.c ****                 USBUART_SIE_EP_BASE.sieEp[ep].epCr0 = USBUART_MODE_NAK_IN;
  64              		.loc 1 459 0
  65 0034 1801     		lsls	r0, r3, #4
  66 0036 194A     		ldr	r2, .L8+8
  67 0038 0244     		add	r2, r2, r0
  68 003a 9470     		strb	r4, [r2, #2]
  69 003c 0AE0     		b	.L5
  70              	.L4:
 460:Generated_Source\PSoC5/USBUART_std.c ****                 
 461:Generated_Source\PSoC5/USBUART_std.c ****             #if (USBUART_EP_MANAGEMENT_DMA_AUTO && CY_PSOC4)
 462:Generated_Source\PSoC5/USBUART_std.c ****                 /* Clear DMA_TERMIN for IN endpoint. */
 463:Generated_Source\PSoC5/USBUART_std.c ****                 USBUART_ARB_EP_BASE.arbEp[ep].epIntEn &= (uint32) ~USBUART_ARB_EPX_INT_DMA_TERMIN;
 464:Generated_Source\PSoC5/USBUART_std.c ****             #endif /* (USBUART_EP_MANAGEMENT_DMA_AUTO && CY_PSOC4) */
 465:Generated_Source\PSoC5/USBUART_std.c ****             }
 466:Generated_Source\PSoC5/USBUART_std.c ****             else
 467:Generated_Source\PSoC5/USBUART_std.c ****             {
 468:Generated_Source\PSoC5/USBUART_std.c ****                 USBUART_SIE_EP_BASE.sieEp[ep].epCr0 = USBUART_MODE_NAK_OUT;
  71              		.loc 1 468 0
  72 003e 1801     		lsls	r0, r3, #4
  73 0040 164A     		ldr	r2, .L8+8
  74 0042 0244     		add	r2, r2, r0
  75 0044 0820     		movs	r0, #8
  76 0046 9070     		strb	r0, [r2, #2]
  77 0048 04E0     		b	.L5
  78              	.L3:
 469:Generated_Source\PSoC5/USBUART_std.c **** 
 470:Generated_Source\PSoC5/USBUART_std.c ****             #if (USBUART_EP_MANAGEMENT_DMA_AUTO)
 471:Generated_Source\PSoC5/USBUART_std.c ****                 /* (CY_PSOC4): DMA_TERMIN for OUT endpoint is set above. */
 472:Generated_Source\PSoC5/USBUART_std.c ****                 
 473:Generated_Source\PSoC5/USBUART_std.c ****                 /* Prepare endpoint type mask. */
 474:Generated_Source\PSoC5/USBUART_std.c ****                 epType |= (uint8) (0x01u << (ep - USBUART_EP1));
 475:Generated_Source\PSoC5/USBUART_std.c ****             #endif /* (USBUART_EP_MANAGEMENT_DMA_AUTO) */
 476:Generated_Source\PSoC5/USBUART_std.c ****             }
 477:Generated_Source\PSoC5/USBUART_std.c ****         }
 478:Generated_Source\PSoC5/USBUART_std.c ****         else
 479:Generated_Source\PSoC5/USBUART_std.c ****         {
 480:Generated_Source\PSoC5/USBUART_std.c ****             USBUART_SIE_EP_BASE.sieEp[ep].epCr0 = USBUART_MODE_STALL_DATA_EP;
  79              		.loc 1 480 0
  80 004a 1801     		lsls	r0, r3, #4
  81 004c 134A     		ldr	r2, .L8+8
  82 004e 0244     		add	r2, r2, r0
  83 0050 8020     		movs	r0, #128
  84 0052 9070     		strb	r0, [r2, #2]
  85              	.L5:
 481:Generated_Source\PSoC5/USBUART_std.c ****         }
 482:Generated_Source\PSoC5/USBUART_std.c ****         
 483:Generated_Source\PSoC5/USBUART_std.c ****     #if (!USBUART_EP_MANAGEMENT_DMA_AUTO)
 484:Generated_Source\PSoC5/USBUART_std.c ****         #if (CY_PSOC4)
 485:Generated_Source\PSoC5/USBUART_std.c ****             USBUART_ARB_EP16_BASE.arbEp[ep].rwRa16  = (uint32) USBUART_EP[ep].buffOffset;
ARM GAS  C:\Users\MANSRO~1\AppData\Local\Temp\cc6Us192.s 			page 11


 486:Generated_Source\PSoC5/USBUART_std.c ****             USBUART_ARB_EP16_BASE.arbEp[ep].rwWa16  = (uint32) USBUART_EP[ep].buffOffset;
 487:Generated_Source\PSoC5/USBUART_std.c ****         #else
 488:Generated_Source\PSoC5/USBUART_std.c ****             USBUART_ARB_EP_BASE.arbEp[ep].rwRa    = LO8(USBUART_EP[ep].buffOffset);
  86              		.loc 1 488 0 discriminator 2
  87 0054 4800     		lsls	r0, r1, #1
  88 0056 0844     		add	r0, r0, r1
  89 0058 8200     		lsls	r2, r0, #2
  90 005a 0F48     		ldr	r0, .L8+4
  91 005c 0244     		add	r2, r2, r0
  92 005e D488     		ldrh	r4, [r2, #6]
  93 0060 E4B2     		uxtb	r4, r4
  94 0062 0801     		lsls	r0, r1, #4
  95 0064 0B49     		ldr	r1, .L8
  96 0066 0144     		add	r1, r1, r0
  97 0068 8C71     		strb	r4, [r1, #6]
 489:Generated_Source\PSoC5/USBUART_std.c ****             USBUART_ARB_EP_BASE.arbEp[ep].rwRaMsb = HI8(USBUART_EP[ep].buffOffset);
  98              		.loc 1 489 0 discriminator 2
  99 006a D088     		ldrh	r0, [r2, #6]
 100 006c C0F30720 		ubfx	r0, r0, #8, #8
 101 0070 C871     		strb	r0, [r1, #7]
 490:Generated_Source\PSoC5/USBUART_std.c ****             USBUART_ARB_EP_BASE.arbEp[ep].rwWa    = LO8(USBUART_EP[ep].buffOffset);
 102              		.loc 1 490 0 discriminator 2
 103 0072 D088     		ldrh	r0, [r2, #6]
 104 0074 C0B2     		uxtb	r0, r0
 105 0076 0871     		strb	r0, [r1, #4]
 491:Generated_Source\PSoC5/USBUART_std.c ****             USBUART_ARB_EP_BASE.arbEp[ep].rwWaMsb = HI8(USBUART_EP[ep].buffOffset);
 106              		.loc 1 491 0 discriminator 2
 107 0078 D288     		ldrh	r2, [r2, #6]
 108 007a C2F30722 		ubfx	r2, r2, #8, #8
 109 007e 4A71     		strb	r2, [r1, #5]
 446:Generated_Source\PSoC5/USBUART_std.c ****     {
 110              		.loc 1 446 0 discriminator 2
 111 0080 0133     		adds	r3, r3, #1
 112              	.LVL2:
 113 0082 DBB2     		uxtb	r3, r3
 114              	.LVL3:
 115              	.L2:
 446:Generated_Source\PSoC5/USBUART_std.c ****     {
 116              		.loc 1 446 0 is_stmt 0 discriminator 1
 117 0084 082B     		cmp	r3, #8
 118 0086 BED9     		bls	.L6
 492:Generated_Source\PSoC5/USBUART_std.c ****         #endif /* (CY_PSOC4) */
 493:Generated_Source\PSoC5/USBUART_std.c ****     #endif /* (!USBUART_EP_MANAGEMENT_DMA_AUTO) */
 494:Generated_Source\PSoC5/USBUART_std.c ****     }
 495:Generated_Source\PSoC5/USBUART_std.c **** 
 496:Generated_Source\PSoC5/USBUART_std.c **** #if (USBUART_EP_MANAGEMENT_DMA_AUTO)
 497:Generated_Source\PSoC5/USBUART_std.c ****      /* BUF_SIZE depend on DMA_THRESS value:0x55-32 bytes  0x44-16 bytes 0x33-8 bytes 0x22-4 bytes 
 498:Generated_Source\PSoC5/USBUART_std.c ****     USBUART_BUF_SIZE_REG = USBUART_DMA_BUF_SIZE;
 499:Generated_Source\PSoC5/USBUART_std.c **** 
 500:Generated_Source\PSoC5/USBUART_std.c ****     /* Configure DMA burst threshold */
 501:Generated_Source\PSoC5/USBUART_std.c **** #if (CY_PSOC4)
 502:Generated_Source\PSoC5/USBUART_std.c ****     USBUART_DMA_THRES16_REG   = USBUART_DMA_BYTES_PER_BURST;
 503:Generated_Source\PSoC5/USBUART_std.c **** #else
 504:Generated_Source\PSoC5/USBUART_std.c ****     USBUART_DMA_THRES_REG     = USBUART_DMA_BYTES_PER_BURST;
 505:Generated_Source\PSoC5/USBUART_std.c ****     USBUART_DMA_THRES_MSB_REG = 0u;
 506:Generated_Source\PSoC5/USBUART_std.c **** #endif /* (CY_PSOC4) */
 507:Generated_Source\PSoC5/USBUART_std.c ****     USBUART_EP_ACTIVE_REG = USBUART_DEFAULT_ARB_INT_EN;
ARM GAS  C:\Users\MANSRO~1\AppData\Local\Temp\cc6Us192.s 			page 12


 508:Generated_Source\PSoC5/USBUART_std.c ****     USBUART_EP_TYPE_REG   = epType;
 509:Generated_Source\PSoC5/USBUART_std.c ****     
 510:Generated_Source\PSoC5/USBUART_std.c ****     /* Cfg_cmp bit set to 1 once configuration is complete. */
 511:Generated_Source\PSoC5/USBUART_std.c ****     /* Lock arbiter configtuation */
 512:Generated_Source\PSoC5/USBUART_std.c ****     USBUART_ARB_CFG_REG |= (uint8)  USBUART_ARB_CFG_CFG_CMP;
 513:Generated_Source\PSoC5/USBUART_std.c ****     /* Cfg_cmp bit set to 0 during configuration of PFSUSB Registers. */
 514:Generated_Source\PSoC5/USBUART_std.c ****     USBUART_ARB_CFG_REG &= (uint8) ~USBUART_ARB_CFG_CFG_CMP;
 515:Generated_Source\PSoC5/USBUART_std.c **** 
 516:Generated_Source\PSoC5/USBUART_std.c **** #endif /* (USBUART_EP_MANAGEMENT_DMA_AUTO) */
 517:Generated_Source\PSoC5/USBUART_std.c **** 
 518:Generated_Source\PSoC5/USBUART_std.c ****     /* Enable interrupt SIE interurpt source from EP0-EP1 */
 519:Generated_Source\PSoC5/USBUART_std.c ****     USBUART_SIE_EP_INT_EN_REG = (uint8) USBUART_DEFAULT_SIE_EP_INT_EN;
 119              		.loc 1 519 0 is_stmt 1
 120 0088 FF22     		movs	r2, #255
 121 008a 054B     		ldr	r3, .L8+12
 122              	.LVL4:
 123 008c 1A70     		strb	r2, [r3]
 520:Generated_Source\PSoC5/USBUART_std.c **** }
 124              		.loc 1 520 0
 125 008e 10BC     		pop	{r4}
 126              		.cfi_restore 4
 127              		.cfi_def_cfa_offset 0
 128 0090 7047     		bx	lr
 129              	.L9:
 130 0092 00BF     		.align	2
 131              	.L8:
 132 0094 70600040 		.word	1073766512
 133 0098 00000000 		.word	USBUART_EP
 134 009c FC5F0040 		.word	1073766396
 135 00a0 0A600040 		.word	1073766410
 136              		.cfi_endproc
 137              	.LFE1:
 138              		.size	USBUART_ConfigReg, .-USBUART_ConfigReg
 139              		.section	.text.USBUART_EpStateInit,"ax",%progbits
 140              		.align	2
 141              		.global	USBUART_EpStateInit
 142              		.thumb
 143              		.thumb_func
 144              		.type	USBUART_EpStateInit, %function
 145              	USBUART_EpStateInit:
 146              	.LFB2:
 521:Generated_Source\PSoC5/USBUART_std.c **** 
 522:Generated_Source\PSoC5/USBUART_std.c **** 
 523:Generated_Source\PSoC5/USBUART_std.c **** /*******************************************************************************
 524:Generated_Source\PSoC5/USBUART_std.c **** * Function Name: USBUART_EpStateInit
 525:Generated_Source\PSoC5/USBUART_std.c **** ****************************************************************************//**
 526:Generated_Source\PSoC5/USBUART_std.c **** *
 527:Generated_Source\PSoC5/USBUART_std.c **** *  This routine initialize state of Data end points based of its type: 
 528:Generated_Source\PSoC5/USBUART_std.c **** *   IN  - USBUART_IN_BUFFER_EMPTY (USBUART_EVENT_PENDING)
 529:Generated_Source\PSoC5/USBUART_std.c **** *   OUT - USBUART_OUT_BUFFER_EMPTY (USBUART_NO_EVENT_PENDING)
 530:Generated_Source\PSoC5/USBUART_std.c **** *
 531:Generated_Source\PSoC5/USBUART_std.c **** *******************************************************************************/
 532:Generated_Source\PSoC5/USBUART_std.c **** void USBUART_EpStateInit(void) 
 533:Generated_Source\PSoC5/USBUART_std.c **** {
 147              		.loc 1 533 0
 148              		.cfi_startproc
 149              		@ args = 0, pretend = 0, frame = 0
ARM GAS  C:\Users\MANSRO~1\AppData\Local\Temp\cc6Us192.s 			page 13


 150              		@ frame_needed = 0, uses_anonymous_args = 0
 151              		@ link register save eliminated.
 152              	.LVL5:
 534:Generated_Source\PSoC5/USBUART_std.c ****     uint8 i;
 535:Generated_Source\PSoC5/USBUART_std.c **** 
 536:Generated_Source\PSoC5/USBUART_std.c ****     for (i = USBUART_EP1; i < USBUART_MAX_EP; i++)
 153              		.loc 1 536 0
 154 0000 0123     		movs	r3, #1
 155 0002 19E0     		b	.L11
 156              	.LVL6:
 157              	.L14:
 537:Generated_Source\PSoC5/USBUART_std.c ****     { 
 538:Generated_Source\PSoC5/USBUART_std.c ****         if (0u != (USBUART_EP[i].addr & USBUART_DIR_IN))
 158              		.loc 1 538 0
 159 0004 03EB4301 		add	r1, r3, r3, lsl #1
 160 0008 8A00     		lsls	r2, r1, #2
 161 000a 0D49     		ldr	r1, .L15
 162 000c 0A44     		add	r2, r2, r1
 163 000e 1279     		ldrb	r2, [r2, #4]	@ zero_extendqisi2
 164 0010 12F0800F 		tst	r2, #128
 165 0014 07D0     		beq	.L12
 539:Generated_Source\PSoC5/USBUART_std.c ****         {
 540:Generated_Source\PSoC5/USBUART_std.c ****             /* IN Endpoint */
 541:Generated_Source\PSoC5/USBUART_std.c ****             USBUART_EP[i].apiEpState = USBUART_EVENT_PENDING;
 166              		.loc 1 541 0
 167 0016 03EB4301 		add	r1, r3, r3, lsl #1
 168 001a 8A00     		lsls	r2, r1, #2
 169 001c 0849     		ldr	r1, .L15
 170 001e 0A44     		add	r2, r2, r1
 171 0020 0121     		movs	r1, #1
 172 0022 5170     		strb	r1, [r2, #1]
 173 0024 06E0     		b	.L13
 174              	.L12:
 542:Generated_Source\PSoC5/USBUART_std.c ****         }
 543:Generated_Source\PSoC5/USBUART_std.c ****         else
 544:Generated_Source\PSoC5/USBUART_std.c ****         {
 545:Generated_Source\PSoC5/USBUART_std.c ****             /* OUT Endpoint */
 546:Generated_Source\PSoC5/USBUART_std.c ****             USBUART_EP[i].apiEpState = USBUART_NO_EVENT_PENDING;
 175              		.loc 1 546 0
 176 0026 03EB4301 		add	r1, r3, r3, lsl #1
 177 002a 8A00     		lsls	r2, r1, #2
 178 002c 0449     		ldr	r1, .L15
 179 002e 0A44     		add	r2, r2, r1
 180 0030 0021     		movs	r1, #0
 181 0032 5170     		strb	r1, [r2, #1]
 182              	.L13:
 536:Generated_Source\PSoC5/USBUART_std.c ****     { 
 183              		.loc 1 536 0 discriminator 2
 184 0034 0133     		adds	r3, r3, #1
 185              	.LVL7:
 186 0036 DBB2     		uxtb	r3, r3
 187              	.LVL8:
 188              	.L11:
 536:Generated_Source\PSoC5/USBUART_std.c ****     { 
 189              		.loc 1 536 0 is_stmt 0 discriminator 1
 190 0038 082B     		cmp	r3, #8
 191 003a E3D9     		bls	.L14
ARM GAS  C:\Users\MANSRO~1\AppData\Local\Temp\cc6Us192.s 			page 14


 547:Generated_Source\PSoC5/USBUART_std.c ****         }
 548:Generated_Source\PSoC5/USBUART_std.c ****     }
 549:Generated_Source\PSoC5/USBUART_std.c ****                     
 550:Generated_Source\PSoC5/USBUART_std.c **** }
 192              		.loc 1 550 0 is_stmt 1
 193 003c 7047     		bx	lr
 194              	.L16:
 195 003e 00BF     		.align	2
 196              	.L15:
 197 0040 00000000 		.word	USBUART_EP
 198              		.cfi_endproc
 199              	.LFE2:
 200              		.size	USBUART_EpStateInit, .-USBUART_EpStateInit
 201              		.section	.text.USBUART_GetConfigTablePtr,"ax",%progbits
 202              		.align	2
 203              		.global	USBUART_GetConfigTablePtr
 204              		.thumb
 205              		.thumb_func
 206              		.type	USBUART_GetConfigTablePtr, %function
 207              	USBUART_GetConfigTablePtr:
 208              	.LFB5:
 551:Generated_Source\PSoC5/USBUART_std.c **** 
 552:Generated_Source\PSoC5/USBUART_std.c **** 
 553:Generated_Source\PSoC5/USBUART_std.c **** /*******************************************************************************
 554:Generated_Source\PSoC5/USBUART_std.c **** * Function Name: USBUART_Config
 555:Generated_Source\PSoC5/USBUART_std.c **** ****************************************************************************//**
 556:Generated_Source\PSoC5/USBUART_std.c **** *
 557:Generated_Source\PSoC5/USBUART_std.c **** *  This routine configures endpoints for the entire configuration by scanning
 558:Generated_Source\PSoC5/USBUART_std.c **** *  the configuration descriptor.
 559:Generated_Source\PSoC5/USBUART_std.c **** *
 560:Generated_Source\PSoC5/USBUART_std.c **** *  \param clearAltSetting: It configures the bAlternateSetting 0 for each interface.
 561:Generated_Source\PSoC5/USBUART_std.c **** *
 562:Generated_Source\PSoC5/USBUART_std.c **** * USBUART_interfaceClass - Initialized class array for each interface.
 563:Generated_Source\PSoC5/USBUART_std.c **** *   It is used for handling Class specific requests depend on interface class.
 564:Generated_Source\PSoC5/USBUART_std.c **** *   Different classes in multiple Alternate settings does not supported.
 565:Generated_Source\PSoC5/USBUART_std.c **** *
 566:Generated_Source\PSoC5/USBUART_std.c **** * \reentrant
 567:Generated_Source\PSoC5/USBUART_std.c **** *  No.
 568:Generated_Source\PSoC5/USBUART_std.c **** *
 569:Generated_Source\PSoC5/USBUART_std.c **** *******************************************************************************/
 570:Generated_Source\PSoC5/USBUART_std.c **** void USBUART_Config(uint8 clearAltSetting) 
 571:Generated_Source\PSoC5/USBUART_std.c **** {
 572:Generated_Source\PSoC5/USBUART_std.c ****     uint8 ep;
 573:Generated_Source\PSoC5/USBUART_std.c ****     uint8 curEp;
 574:Generated_Source\PSoC5/USBUART_std.c ****     uint8 i;
 575:Generated_Source\PSoC5/USBUART_std.c ****     uint8 epType;
 576:Generated_Source\PSoC5/USBUART_std.c ****     const uint8 *pDescr;
 577:Generated_Source\PSoC5/USBUART_std.c ****     
 578:Generated_Source\PSoC5/USBUART_std.c ****     #if (!USBUART_EP_MANAGEMENT_DMA_AUTO)
 579:Generated_Source\PSoC5/USBUART_std.c ****         uint16 buffCount = 0u;
 580:Generated_Source\PSoC5/USBUART_std.c ****     #endif /* (!USBUART_EP_MANAGEMENT_DMA_AUTO) */
 581:Generated_Source\PSoC5/USBUART_std.c **** 
 582:Generated_Source\PSoC5/USBUART_std.c ****     const T_USBUART_LUT CYCODE *pTmp;
 583:Generated_Source\PSoC5/USBUART_std.c ****     const T_USBUART_EP_SETTINGS_BLOCK CYCODE *pEP;
 584:Generated_Source\PSoC5/USBUART_std.c **** 
 585:Generated_Source\PSoC5/USBUART_std.c ****     /* Clear endpoints settings */
 586:Generated_Source\PSoC5/USBUART_std.c ****     for (ep = 0u; ep < USBUART_MAX_EP; ++ep)
ARM GAS  C:\Users\MANSRO~1\AppData\Local\Temp\cc6Us192.s 			page 15


 587:Generated_Source\PSoC5/USBUART_std.c ****     {
 588:Generated_Source\PSoC5/USBUART_std.c ****         USBUART_EP[ep].attrib     = 0u;
 589:Generated_Source\PSoC5/USBUART_std.c ****         USBUART_EP[ep].hwEpState  = 0u;
 590:Generated_Source\PSoC5/USBUART_std.c ****         USBUART_EP[ep].epToggle   = 0u;
 591:Generated_Source\PSoC5/USBUART_std.c ****         USBUART_EP[ep].bufferSize = 0u;
 592:Generated_Source\PSoC5/USBUART_std.c ****         USBUART_EP[ep].interface  = 0u;
 593:Generated_Source\PSoC5/USBUART_std.c ****         USBUART_EP[ep].apiEpState = USBUART_NO_EVENT_PENDING;
 594:Generated_Source\PSoC5/USBUART_std.c ****         USBUART_EP[ep].epMode     = USBUART_MODE_DISABLE;   
 595:Generated_Source\PSoC5/USBUART_std.c ****     }
 596:Generated_Source\PSoC5/USBUART_std.c **** 
 597:Generated_Source\PSoC5/USBUART_std.c ****     /* Clear Alternate settings for all interfaces. */
 598:Generated_Source\PSoC5/USBUART_std.c ****     if (0u != clearAltSetting)
 599:Generated_Source\PSoC5/USBUART_std.c ****     {
 600:Generated_Source\PSoC5/USBUART_std.c ****         for (i = 0u; i < USBUART_MAX_INTERFACES_NUMBER; ++i)
 601:Generated_Source\PSoC5/USBUART_std.c ****         {
 602:Generated_Source\PSoC5/USBUART_std.c ****             USBUART_interfaceSetting[i]     = 0u;
 603:Generated_Source\PSoC5/USBUART_std.c ****             USBUART_interfaceSettingLast[i] = 0u;
 604:Generated_Source\PSoC5/USBUART_std.c ****         }
 605:Generated_Source\PSoC5/USBUART_std.c ****     }
 606:Generated_Source\PSoC5/USBUART_std.c **** 
 607:Generated_Source\PSoC5/USBUART_std.c ****     /* Init Endpoints and Device Status if configured */
 608:Generated_Source\PSoC5/USBUART_std.c ****     if (USBUART_configuration > 0u)
 609:Generated_Source\PSoC5/USBUART_std.c ****     {
 610:Generated_Source\PSoC5/USBUART_std.c ****         #if defined(USBUART_ENABLE_CDC_CLASS)
 611:Generated_Source\PSoC5/USBUART_std.c ****             uint8 cdcComNums = 0u;
 612:Generated_Source\PSoC5/USBUART_std.c ****         #endif  /* (USBUART_ENABLE_CDC_CLASS) */  
 613:Generated_Source\PSoC5/USBUART_std.c **** 
 614:Generated_Source\PSoC5/USBUART_std.c ****         pTmp = USBUART_GetConfigTablePtr(USBUART_configuration - 1u);
 615:Generated_Source\PSoC5/USBUART_std.c ****         
 616:Generated_Source\PSoC5/USBUART_std.c ****         /* Set Power status for current configuration */
 617:Generated_Source\PSoC5/USBUART_std.c ****         pDescr = (const uint8 *)pTmp->p_list;
 618:Generated_Source\PSoC5/USBUART_std.c ****         if ((pDescr[USBUART_CONFIG_DESCR_ATTRIB] & USBUART_CONFIG_DESCR_ATTRIB_SELF_POWERED) != 0u)
 619:Generated_Source\PSoC5/USBUART_std.c ****         {
 620:Generated_Source\PSoC5/USBUART_std.c ****             USBUART_deviceStatus |= (uint8)  USBUART_DEVICE_STATUS_SELF_POWERED;
 621:Generated_Source\PSoC5/USBUART_std.c ****         }
 622:Generated_Source\PSoC5/USBUART_std.c ****         else
 623:Generated_Source\PSoC5/USBUART_std.c ****         {
 624:Generated_Source\PSoC5/USBUART_std.c ****             USBUART_deviceStatus &= (uint8) ~USBUART_DEVICE_STATUS_SELF_POWERED;
 625:Generated_Source\PSoC5/USBUART_std.c ****         }
 626:Generated_Source\PSoC5/USBUART_std.c ****         
 627:Generated_Source\PSoC5/USBUART_std.c ****         /* Move to next element */
 628:Generated_Source\PSoC5/USBUART_std.c ****         pTmp = &pTmp[1u];
 629:Generated_Source\PSoC5/USBUART_std.c ****         ep = pTmp->c;  /* For this table, c is the number of endpoints configurations  */
 630:Generated_Source\PSoC5/USBUART_std.c **** 
 631:Generated_Source\PSoC5/USBUART_std.c ****         #if (USBUART_EP_MANAGEMENT_MANUAL && USBUART_EP_ALLOC_DYNAMIC)
 632:Generated_Source\PSoC5/USBUART_std.c ****             /* Configure for dynamic EP memory allocation */
 633:Generated_Source\PSoC5/USBUART_std.c ****             /* p_list points the endpoint setting table. */
 634:Generated_Source\PSoC5/USBUART_std.c ****             pEP = (T_USBUART_EP_SETTINGS_BLOCK *) pTmp->p_list;
 635:Generated_Source\PSoC5/USBUART_std.c ****             
 636:Generated_Source\PSoC5/USBUART_std.c ****             for (i = 0u; i < ep; i++)
 637:Generated_Source\PSoC5/USBUART_std.c ****             {     
 638:Generated_Source\PSoC5/USBUART_std.c ****                 /* Compare current Alternate setting with EP Alt */
 639:Generated_Source\PSoC5/USBUART_std.c ****                 if (USBUART_interfaceSetting[pEP->interface] == pEP->altSetting)
 640:Generated_Source\PSoC5/USBUART_std.c ****                 {                                                          
 641:Generated_Source\PSoC5/USBUART_std.c ****                     curEp  = pEP->addr & USBUART_DIR_UNUSED;
 642:Generated_Source\PSoC5/USBUART_std.c ****                     epType = pEP->attributes & USBUART_EP_TYPE_MASK;
 643:Generated_Source\PSoC5/USBUART_std.c ****                     
ARM GAS  C:\Users\MANSRO~1\AppData\Local\Temp\cc6Us192.s 			page 16


 644:Generated_Source\PSoC5/USBUART_std.c ****                     USBUART_EP[curEp].addr       = pEP->addr;
 645:Generated_Source\PSoC5/USBUART_std.c ****                     USBUART_EP[curEp].attrib     = pEP->attributes;
 646:Generated_Source\PSoC5/USBUART_std.c ****                     USBUART_EP[curEp].bufferSize = pEP->bufferSize;
 647:Generated_Source\PSoC5/USBUART_std.c **** 
 648:Generated_Source\PSoC5/USBUART_std.c ****                     if (0u != (pEP->addr & USBUART_DIR_IN))
 649:Generated_Source\PSoC5/USBUART_std.c ****                     {
 650:Generated_Source\PSoC5/USBUART_std.c ****                         /* IN Endpoint */
 651:Generated_Source\PSoC5/USBUART_std.c ****                         USBUART_EP[curEp].epMode     = USBUART_GET_ACTIVE_IN_EP_CR0_MODE(epType);
 652:Generated_Source\PSoC5/USBUART_std.c ****                         USBUART_EP[curEp].apiEpState = USBUART_EVENT_PENDING;
 653:Generated_Source\PSoC5/USBUART_std.c ****                     
 654:Generated_Source\PSoC5/USBUART_std.c ****                     #if (defined(USBUART_ENABLE_MIDI_STREAMING) && (USBUART_MIDI_IN_BUFF_SIZE > 0))
 655:Generated_Source\PSoC5/USBUART_std.c ****                         if ((pEP->bMisc == USBUART_CLASS_AUDIO) && (epType == USBUART_EP_TYPE_BULK)
 656:Generated_Source\PSoC5/USBUART_std.c ****                         {
 657:Generated_Source\PSoC5/USBUART_std.c ****                             USBUART_midi_in_ep = curEp;
 658:Generated_Source\PSoC5/USBUART_std.c ****                         }
 659:Generated_Source\PSoC5/USBUART_std.c ****                     #endif  /* (USBUART_ENABLE_MIDI_STREAMING) */
 660:Generated_Source\PSoC5/USBUART_std.c ****                     }
 661:Generated_Source\PSoC5/USBUART_std.c ****                     else
 662:Generated_Source\PSoC5/USBUART_std.c ****                     {
 663:Generated_Source\PSoC5/USBUART_std.c ****                         /* OUT Endpoint */
 664:Generated_Source\PSoC5/USBUART_std.c ****                         USBUART_EP[curEp].epMode     = USBUART_GET_ACTIVE_OUT_EP_CR0_MODE(epType);
 665:Generated_Source\PSoC5/USBUART_std.c ****                         USBUART_EP[curEp].apiEpState = USBUART_NO_EVENT_PENDING;
 666:Generated_Source\PSoC5/USBUART_std.c ****                         
 667:Generated_Source\PSoC5/USBUART_std.c ****                     #if (defined(USBUART_ENABLE_MIDI_STREAMING) && (USBUART_MIDI_OUT_BUFF_SIZE > 0)
 668:Generated_Source\PSoC5/USBUART_std.c ****                         if ((pEP->bMisc == USBUART_CLASS_AUDIO) && (epType == USBUART_EP_TYPE_BULK)
 669:Generated_Source\PSoC5/USBUART_std.c ****                         {
 670:Generated_Source\PSoC5/USBUART_std.c ****                             USBUART_midi_out_ep = curEp;
 671:Generated_Source\PSoC5/USBUART_std.c ****                         }
 672:Generated_Source\PSoC5/USBUART_std.c ****                     #endif  /* (USBUART_ENABLE_MIDI_STREAMING) */
 673:Generated_Source\PSoC5/USBUART_std.c ****                     }
 674:Generated_Source\PSoC5/USBUART_std.c **** 
 675:Generated_Source\PSoC5/USBUART_std.c ****                 #if(defined (USBUART_ENABLE_CDC_CLASS))
 676:Generated_Source\PSoC5/USBUART_std.c ****                     if((pEP->bMisc == USBUART_CLASS_CDC_DATA) ||(pEP->bMisc == USBUART_CLASS_CDC))
 677:Generated_Source\PSoC5/USBUART_std.c ****                     {
 678:Generated_Source\PSoC5/USBUART_std.c ****                         cdcComNums = USBUART_Cdc_EpInit(pEP, curEp, cdcComNums);
 679:Generated_Source\PSoC5/USBUART_std.c ****                     }
 680:Generated_Source\PSoC5/USBUART_std.c ****                 #endif  /* (USBUART_ENABLE_CDC_CLASS) */
 681:Generated_Source\PSoC5/USBUART_std.c ****                 }
 682:Generated_Source\PSoC5/USBUART_std.c ****                 
 683:Generated_Source\PSoC5/USBUART_std.c ****                 pEP = &pEP[1u];
 684:Generated_Source\PSoC5/USBUART_std.c ****             }
 685:Generated_Source\PSoC5/USBUART_std.c ****             
 686:Generated_Source\PSoC5/USBUART_std.c ****         #else
 687:Generated_Source\PSoC5/USBUART_std.c ****             for (i = USBUART_EP1; i < USBUART_MAX_EP; ++i)
 688:Generated_Source\PSoC5/USBUART_std.c ****             {
 689:Generated_Source\PSoC5/USBUART_std.c ****                 /* p_list points the endpoint setting table. */
 690:Generated_Source\PSoC5/USBUART_std.c ****                 pEP = (const T_USBUART_EP_SETTINGS_BLOCK CYCODE *) pTmp->p_list;
 691:Generated_Source\PSoC5/USBUART_std.c ****                 /* Find max length for each EP and select it (length could be different in differen
 692:Generated_Source\PSoC5/USBUART_std.c ****                 /* but other settings should be correct with regards to Interface alt Setting */
 693:Generated_Source\PSoC5/USBUART_std.c ****                 
 694:Generated_Source\PSoC5/USBUART_std.c ****                 for (curEp = 0u; curEp < ep; ++curEp)
 695:Generated_Source\PSoC5/USBUART_std.c ****                 {
 696:Generated_Source\PSoC5/USBUART_std.c ****                     if (i == (pEP->addr & USBUART_DIR_UNUSED))
 697:Generated_Source\PSoC5/USBUART_std.c ****                     {
 698:Generated_Source\PSoC5/USBUART_std.c ****                         /* Compare endpoint buffers size with current size to find greater. */
 699:Generated_Source\PSoC5/USBUART_std.c ****                         if (USBUART_EP[i].bufferSize < pEP->bufferSize)
 700:Generated_Source\PSoC5/USBUART_std.c ****                         {
ARM GAS  C:\Users\MANSRO~1\AppData\Local\Temp\cc6Us192.s 			page 17


 701:Generated_Source\PSoC5/USBUART_std.c ****                             USBUART_EP[i].bufferSize = pEP->bufferSize;
 702:Generated_Source\PSoC5/USBUART_std.c ****                         }
 703:Generated_Source\PSoC5/USBUART_std.c ****                         
 704:Generated_Source\PSoC5/USBUART_std.c ****                         /* Compare current Alternate setting with EP Alt */
 705:Generated_Source\PSoC5/USBUART_std.c ****                         if (USBUART_interfaceSetting[pEP->interface] == pEP->altSetting)
 706:Generated_Source\PSoC5/USBUART_std.c ****                         {                            
 707:Generated_Source\PSoC5/USBUART_std.c ****                             USBUART_EP[i].addr = pEP->addr;
 708:Generated_Source\PSoC5/USBUART_std.c ****                             USBUART_EP[i].attrib = pEP->attributes;
 709:Generated_Source\PSoC5/USBUART_std.c ****                             
 710:Generated_Source\PSoC5/USBUART_std.c ****                             epType = pEP->attributes & USBUART_EP_TYPE_MASK;
 711:Generated_Source\PSoC5/USBUART_std.c ****                             
 712:Generated_Source\PSoC5/USBUART_std.c ****                             if (0u != (pEP->addr & USBUART_DIR_IN))
 713:Generated_Source\PSoC5/USBUART_std.c ****                             {
 714:Generated_Source\PSoC5/USBUART_std.c ****                                 /* IN Endpoint */
 715:Generated_Source\PSoC5/USBUART_std.c ****                                 USBUART_EP[i].epMode     = USBUART_GET_ACTIVE_IN_EP_CR0_MODE(epType
 716:Generated_Source\PSoC5/USBUART_std.c ****                                 USBUART_EP[i].apiEpState = USBUART_EVENT_PENDING;
 717:Generated_Source\PSoC5/USBUART_std.c ****                                 
 718:Generated_Source\PSoC5/USBUART_std.c ****                             #if (defined(USBUART_ENABLE_MIDI_STREAMING) && (USBUART_MIDI_IN_BUFF_SI
 719:Generated_Source\PSoC5/USBUART_std.c ****                                 if ((pEP->bMisc == USBUART_CLASS_AUDIO) && (epType == USBUART_EP_TY
 720:Generated_Source\PSoC5/USBUART_std.c ****                                 {
 721:Generated_Source\PSoC5/USBUART_std.c ****                                     USBUART_midi_in_ep = i;
 722:Generated_Source\PSoC5/USBUART_std.c ****                                 }
 723:Generated_Source\PSoC5/USBUART_std.c ****                             #endif  /* (USBUART_ENABLE_MIDI_STREAMING) */
 724:Generated_Source\PSoC5/USBUART_std.c ****                             }
 725:Generated_Source\PSoC5/USBUART_std.c ****                             else
 726:Generated_Source\PSoC5/USBUART_std.c ****                             {
 727:Generated_Source\PSoC5/USBUART_std.c ****                                 /* OUT Endpoint */
 728:Generated_Source\PSoC5/USBUART_std.c ****                                 USBUART_EP[i].epMode     = USBUART_GET_ACTIVE_OUT_EP_CR0_MODE(epTyp
 729:Generated_Source\PSoC5/USBUART_std.c ****                                 USBUART_EP[i].apiEpState = USBUART_NO_EVENT_PENDING;
 730:Generated_Source\PSoC5/USBUART_std.c ****                                 
 731:Generated_Source\PSoC5/USBUART_std.c ****                             #if (defined(USBUART_ENABLE_MIDI_STREAMING) && (USBUART_MIDI_OUT_BUFF_S
 732:Generated_Source\PSoC5/USBUART_std.c ****                                 if ((pEP->bMisc == USBUART_CLASS_AUDIO) && (epType == USBUART_EP_TY
 733:Generated_Source\PSoC5/USBUART_std.c ****                                 {
 734:Generated_Source\PSoC5/USBUART_std.c ****                                     USBUART_midi_out_ep = i;
 735:Generated_Source\PSoC5/USBUART_std.c ****                                 }
 736:Generated_Source\PSoC5/USBUART_std.c ****                             #endif  /* (USBUART_ENABLE_MIDI_STREAMING) */
 737:Generated_Source\PSoC5/USBUART_std.c ****                             }
 738:Generated_Source\PSoC5/USBUART_std.c **** 
 739:Generated_Source\PSoC5/USBUART_std.c ****                         #if (defined(USBUART_ENABLE_CDC_CLASS))
 740:Generated_Source\PSoC5/USBUART_std.c ****                             if((pEP->bMisc == USBUART_CLASS_CDC_DATA) ||(pEP->bMisc == USBUART_CLAS
 741:Generated_Source\PSoC5/USBUART_std.c ****                             {
 742:Generated_Source\PSoC5/USBUART_std.c ****                                 cdcComNums = USBUART_Cdc_EpInit(pEP, i, cdcComNums);
 743:Generated_Source\PSoC5/USBUART_std.c ****                             }
 744:Generated_Source\PSoC5/USBUART_std.c ****                         #endif  /* (USBUART_ENABLE_CDC_CLASS) */
 745:Generated_Source\PSoC5/USBUART_std.c **** 
 746:Generated_Source\PSoC5/USBUART_std.c ****                             #if (USBUART_EP_MANAGEMENT_DMA_AUTO)
 747:Generated_Source\PSoC5/USBUART_std.c ****                                 break;  /* Use first EP setting in Auto memory management */
 748:Generated_Source\PSoC5/USBUART_std.c ****                             #endif /* (USBUART_EP_MANAGEMENT_DMA_AUTO) */
 749:Generated_Source\PSoC5/USBUART_std.c ****                         }
 750:Generated_Source\PSoC5/USBUART_std.c ****                     }
 751:Generated_Source\PSoC5/USBUART_std.c ****                     
 752:Generated_Source\PSoC5/USBUART_std.c ****                     pEP = &pEP[1u];
 753:Generated_Source\PSoC5/USBUART_std.c ****                 }
 754:Generated_Source\PSoC5/USBUART_std.c ****             }
 755:Generated_Source\PSoC5/USBUART_std.c ****         #endif /*  (USBUART_EP_MANAGEMENT_MANUAL && USBUART_EP_ALLOC_DYNAMIC) */
 756:Generated_Source\PSoC5/USBUART_std.c **** 
 757:Generated_Source\PSoC5/USBUART_std.c ****         /* Init class array for each interface and interface number for each EP.
ARM GAS  C:\Users\MANSRO~1\AppData\Local\Temp\cc6Us192.s 			page 18


 758:Generated_Source\PSoC5/USBUART_std.c ****         *  It is used for handling Class specific requests directed to either an
 759:Generated_Source\PSoC5/USBUART_std.c ****         *  interface or the endpoint.
 760:Generated_Source\PSoC5/USBUART_std.c ****         */
 761:Generated_Source\PSoC5/USBUART_std.c ****         /* p_list points the endpoint setting table. */
 762:Generated_Source\PSoC5/USBUART_std.c ****         pEP = (const T_USBUART_EP_SETTINGS_BLOCK CYCODE *) pTmp->p_list;
 763:Generated_Source\PSoC5/USBUART_std.c ****         for (i = 0u; i < ep; i++)
 764:Generated_Source\PSoC5/USBUART_std.c ****         {
 765:Generated_Source\PSoC5/USBUART_std.c ****             /* Configure interface number for each EP */
 766:Generated_Source\PSoC5/USBUART_std.c ****             USBUART_EP[pEP->addr & USBUART_DIR_UNUSED].interface = pEP->interface;
 767:Generated_Source\PSoC5/USBUART_std.c ****             pEP = &pEP[1u];
 768:Generated_Source\PSoC5/USBUART_std.c ****         }
 769:Generated_Source\PSoC5/USBUART_std.c ****         
 770:Generated_Source\PSoC5/USBUART_std.c ****         /* Init pointer on interface class table */
 771:Generated_Source\PSoC5/USBUART_std.c ****         USBUART_interfaceClass = USBUART_GetInterfaceClassTablePtr();
 772:Generated_Source\PSoC5/USBUART_std.c ****         
 773:Generated_Source\PSoC5/USBUART_std.c ****     /* Set the endpoint buffer addresses */
 774:Generated_Source\PSoC5/USBUART_std.c ****     #if (!USBUART_EP_MANAGEMENT_DMA_AUTO)
 775:Generated_Source\PSoC5/USBUART_std.c ****         buffCount = 0u;
 776:Generated_Source\PSoC5/USBUART_std.c ****         for (ep = USBUART_EP1; ep < USBUART_MAX_EP; ++ep)
 777:Generated_Source\PSoC5/USBUART_std.c ****         {
 778:Generated_Source\PSoC5/USBUART_std.c ****             USBUART_EP[ep].buffOffset = buffCount;        
 779:Generated_Source\PSoC5/USBUART_std.c ****             buffCount += USBUART_EP[ep].bufferSize;
 780:Generated_Source\PSoC5/USBUART_std.c ****             
 781:Generated_Source\PSoC5/USBUART_std.c ****         #if (USBUART_GEN_16BITS_EP_ACCESS)
 782:Generated_Source\PSoC5/USBUART_std.c ****             /* Align EP buffers to be event size to access 16-bits DR register. */
 783:Generated_Source\PSoC5/USBUART_std.c ****             buffCount += (0u != (buffCount & 0x01u)) ? 1u : 0u;
 784:Generated_Source\PSoC5/USBUART_std.c ****         #endif /* (USBUART_GEN_16BITS_EP_ACCESS) */            
 785:Generated_Source\PSoC5/USBUART_std.c ****         }
 786:Generated_Source\PSoC5/USBUART_std.c ****     #endif /* (!USBUART_EP_MANAGEMENT_DMA_AUTO) */
 787:Generated_Source\PSoC5/USBUART_std.c **** 
 788:Generated_Source\PSoC5/USBUART_std.c ****         /* Configure hardware registers */
 789:Generated_Source\PSoC5/USBUART_std.c ****         USBUART_ConfigReg();
 790:Generated_Source\PSoC5/USBUART_std.c ****     }
 791:Generated_Source\PSoC5/USBUART_std.c **** }
 792:Generated_Source\PSoC5/USBUART_std.c **** 
 793:Generated_Source\PSoC5/USBUART_std.c **** 
 794:Generated_Source\PSoC5/USBUART_std.c **** /*******************************************************************************
 795:Generated_Source\PSoC5/USBUART_std.c **** * Function Name: USBUART_ConfigAltChanged
 796:Generated_Source\PSoC5/USBUART_std.c **** ****************************************************************************//**
 797:Generated_Source\PSoC5/USBUART_std.c **** *
 798:Generated_Source\PSoC5/USBUART_std.c **** *  This routine update configuration for the required endpoints only.
 799:Generated_Source\PSoC5/USBUART_std.c **** *  It is called after SET_INTERFACE request when Static memory allocation used.
 800:Generated_Source\PSoC5/USBUART_std.c **** *
 801:Generated_Source\PSoC5/USBUART_std.c **** * \reentrant
 802:Generated_Source\PSoC5/USBUART_std.c **** *  No.
 803:Generated_Source\PSoC5/USBUART_std.c **** *
 804:Generated_Source\PSoC5/USBUART_std.c **** *******************************************************************************/
 805:Generated_Source\PSoC5/USBUART_std.c **** void USBUART_ConfigAltChanged(void) 
 806:Generated_Source\PSoC5/USBUART_std.c **** {
 807:Generated_Source\PSoC5/USBUART_std.c ****     uint8 ep;
 808:Generated_Source\PSoC5/USBUART_std.c ****     uint8 curEp;
 809:Generated_Source\PSoC5/USBUART_std.c ****     uint8 epType;
 810:Generated_Source\PSoC5/USBUART_std.c ****     uint8 i;
 811:Generated_Source\PSoC5/USBUART_std.c ****     uint8 interfaceNum;
 812:Generated_Source\PSoC5/USBUART_std.c **** 
 813:Generated_Source\PSoC5/USBUART_std.c ****     const T_USBUART_LUT CYCODE *pTmp;
 814:Generated_Source\PSoC5/USBUART_std.c ****     const T_USBUART_EP_SETTINGS_BLOCK CYCODE *pEP;
ARM GAS  C:\Users\MANSRO~1\AppData\Local\Temp\cc6Us192.s 			page 19


 815:Generated_Source\PSoC5/USBUART_std.c **** 
 816:Generated_Source\PSoC5/USBUART_std.c ****     /* Init Endpoints and Device Status if configured */
 817:Generated_Source\PSoC5/USBUART_std.c ****     if (USBUART_configuration > 0u)
 818:Generated_Source\PSoC5/USBUART_std.c ****     {
 819:Generated_Source\PSoC5/USBUART_std.c ****         /* Get number of endpoints configurations (ep). */
 820:Generated_Source\PSoC5/USBUART_std.c ****         pTmp = USBUART_GetConfigTablePtr(USBUART_configuration - 1u);
 821:Generated_Source\PSoC5/USBUART_std.c ****         pTmp = &pTmp[1u];
 822:Generated_Source\PSoC5/USBUART_std.c ****         ep = pTmp->c;
 823:Generated_Source\PSoC5/USBUART_std.c **** 
 824:Generated_Source\PSoC5/USBUART_std.c ****         /* Get pointer to endpoints setting table (pEP). */
 825:Generated_Source\PSoC5/USBUART_std.c ****         pEP = (const T_USBUART_EP_SETTINGS_BLOCK CYCODE *) pTmp->p_list;
 826:Generated_Source\PSoC5/USBUART_std.c ****         
 827:Generated_Source\PSoC5/USBUART_std.c ****         /* Look through all possible endpoint configurations. Find endpoints 
 828:Generated_Source\PSoC5/USBUART_std.c ****         * which belong to current interface and alternate settings for 
 829:Generated_Source\PSoC5/USBUART_std.c ****         * re-configuration.
 830:Generated_Source\PSoC5/USBUART_std.c ****         */
 831:Generated_Source\PSoC5/USBUART_std.c ****         interfaceNum = USBUART_interfaceNumber;
 832:Generated_Source\PSoC5/USBUART_std.c ****         for (i = 0u; i < ep; i++)
 833:Generated_Source\PSoC5/USBUART_std.c ****         {
 834:Generated_Source\PSoC5/USBUART_std.c ****             /* Find endpoints which belong to current interface and alternate settings. */
 835:Generated_Source\PSoC5/USBUART_std.c ****             if ((interfaceNum == pEP->interface) && 
 836:Generated_Source\PSoC5/USBUART_std.c ****                 (USBUART_interfaceSetting[interfaceNum] == pEP->altSetting))
 837:Generated_Source\PSoC5/USBUART_std.c ****             {
 838:Generated_Source\PSoC5/USBUART_std.c ****                 curEp  = ((uint8) pEP->addr & USBUART_DIR_UNUSED);
 839:Generated_Source\PSoC5/USBUART_std.c ****                 epType = ((uint8) pEP->attributes & USBUART_EP_TYPE_MASK);
 840:Generated_Source\PSoC5/USBUART_std.c ****                 
 841:Generated_Source\PSoC5/USBUART_std.c ****                 /* Change the SIE mode for the selected EP to NAK ALL */
 842:Generated_Source\PSoC5/USBUART_std.c ****                 USBUART_EP[curEp].epToggle   = 0u;
 843:Generated_Source\PSoC5/USBUART_std.c ****                 USBUART_EP[curEp].addr       = pEP->addr;
 844:Generated_Source\PSoC5/USBUART_std.c ****                 USBUART_EP[curEp].attrib     = pEP->attributes;
 845:Generated_Source\PSoC5/USBUART_std.c ****                 USBUART_EP[curEp].bufferSize = pEP->bufferSize;
 846:Generated_Source\PSoC5/USBUART_std.c **** 
 847:Generated_Source\PSoC5/USBUART_std.c ****                 if (0u != (pEP->addr & USBUART_DIR_IN))
 848:Generated_Source\PSoC5/USBUART_std.c ****                 {
 849:Generated_Source\PSoC5/USBUART_std.c ****                     /* IN Endpoint */
 850:Generated_Source\PSoC5/USBUART_std.c ****                     USBUART_EP[curEp].epMode     = USBUART_GET_ACTIVE_IN_EP_CR0_MODE(epType);
 851:Generated_Source\PSoC5/USBUART_std.c ****                     USBUART_EP[curEp].apiEpState = USBUART_EVENT_PENDING;
 852:Generated_Source\PSoC5/USBUART_std.c ****                 }
 853:Generated_Source\PSoC5/USBUART_std.c ****                 else
 854:Generated_Source\PSoC5/USBUART_std.c ****                 {
 855:Generated_Source\PSoC5/USBUART_std.c ****                     /* OUT Endpoint */
 856:Generated_Source\PSoC5/USBUART_std.c ****                     USBUART_EP[curEp].epMode     = USBUART_GET_ACTIVE_OUT_EP_CR0_MODE(epType);
 857:Generated_Source\PSoC5/USBUART_std.c ****                     USBUART_EP[curEp].apiEpState = USBUART_NO_EVENT_PENDING;
 858:Generated_Source\PSoC5/USBUART_std.c ****                 }
 859:Generated_Source\PSoC5/USBUART_std.c ****                 
 860:Generated_Source\PSoC5/USBUART_std.c ****                 /* Make SIE to NAK any endpoint requests */
 861:Generated_Source\PSoC5/USBUART_std.c ****                 USBUART_SIE_EP_BASE.sieEp[curEp].epCr0 = USBUART_MODE_NAK_IN_OUT;
 862:Generated_Source\PSoC5/USBUART_std.c **** 
 863:Generated_Source\PSoC5/USBUART_std.c ****             #if (USBUART_EP_MANAGEMENT_DMA_AUTO)
 864:Generated_Source\PSoC5/USBUART_std.c ****                 /* Clear IN data ready. */
 865:Generated_Source\PSoC5/USBUART_std.c ****                 USBUART_ARB_EP_BASE.arbEp[curEp].epCfg &= (uint8) ~USBUART_ARB_EPX_CFG_IN_DATA_RDY;
 866:Generated_Source\PSoC5/USBUART_std.c **** 
 867:Generated_Source\PSoC5/USBUART_std.c ****                 /* Select endpoint number of reconfiguration */
 868:Generated_Source\PSoC5/USBUART_std.c ****                 USBUART_DYN_RECONFIG_REG = (uint8) ((curEp - 1u) << USBUART_DYN_RECONFIG_EP_SHIFT);
 869:Generated_Source\PSoC5/USBUART_std.c ****                 
 870:Generated_Source\PSoC5/USBUART_std.c ****                 /* Request for dynamic re-configuration of endpoint. */
 871:Generated_Source\PSoC5/USBUART_std.c ****                 USBUART_DYN_RECONFIG_REG |= USBUART_DYN_RECONFIG_ENABLE;
ARM GAS  C:\Users\MANSRO~1\AppData\Local\Temp\cc6Us192.s 			page 20


 872:Generated_Source\PSoC5/USBUART_std.c ****                 
 873:Generated_Source\PSoC5/USBUART_std.c ****                 /* Wait until block is ready for re-configuration */
 874:Generated_Source\PSoC5/USBUART_std.c ****                 while (0u == (USBUART_DYN_RECONFIG_REG & USBUART_DYN_RECONFIG_RDY_STS))
 875:Generated_Source\PSoC5/USBUART_std.c ****                 {
 876:Generated_Source\PSoC5/USBUART_std.c ****                 }
 877:Generated_Source\PSoC5/USBUART_std.c ****                 
 878:Generated_Source\PSoC5/USBUART_std.c ****                 /* Once DYN_RECONFIG_RDY_STS bit is set, FW can change the EP configuration. */
 879:Generated_Source\PSoC5/USBUART_std.c ****                 /* Change EP Type with new direction */
 880:Generated_Source\PSoC5/USBUART_std.c ****                 if (0u != (pEP->addr & USBUART_DIR_IN))
 881:Generated_Source\PSoC5/USBUART_std.c ****                 {
 882:Generated_Source\PSoC5/USBUART_std.c ****                     /* Set endpoint type: 0 - IN and 1 - OUT. */
 883:Generated_Source\PSoC5/USBUART_std.c ****                     USBUART_EP_TYPE_REG &= (uint8) ~(uint8)((uint8) 0x01u << (curEp - 1u));
 884:Generated_Source\PSoC5/USBUART_std.c ****                     
 885:Generated_Source\PSoC5/USBUART_std.c ****                 #if (CY_PSOC4)
 886:Generated_Source\PSoC5/USBUART_std.c ****                     /* Clear DMA_TERMIN for IN endpoint */
 887:Generated_Source\PSoC5/USBUART_std.c ****                     USBUART_ARB_EP_BASE.arbEp[curEp].epIntEn &= (uint32) ~USBUART_ARB_EPX_INT_DMA_T
 888:Generated_Source\PSoC5/USBUART_std.c ****                 #endif /* (CY_PSOC4) */
 889:Generated_Source\PSoC5/USBUART_std.c ****                 }
 890:Generated_Source\PSoC5/USBUART_std.c ****                 else
 891:Generated_Source\PSoC5/USBUART_std.c ****                 {
 892:Generated_Source\PSoC5/USBUART_std.c ****                     /* Set endpoint type: 0 - IN and 1- OUT. */
 893:Generated_Source\PSoC5/USBUART_std.c ****                     USBUART_EP_TYPE_REG |= (uint8) ((uint8) 0x01u << (curEp - 1u));
 894:Generated_Source\PSoC5/USBUART_std.c ****                     
 895:Generated_Source\PSoC5/USBUART_std.c ****                 #if (CY_PSOC4)
 896:Generated_Source\PSoC5/USBUART_std.c ****                     /* Set DMA_TERMIN for OUT endpoint */
 897:Generated_Source\PSoC5/USBUART_std.c ****                     USBUART_ARB_EP_BASE.arbEp[curEp].epIntEn |= (uint32) USBUART_ARB_EPX_INT_DMA_TE
 898:Generated_Source\PSoC5/USBUART_std.c ****                 #endif /* (CY_PSOC4) */
 899:Generated_Source\PSoC5/USBUART_std.c ****                 }
 900:Generated_Source\PSoC5/USBUART_std.c ****                 
 901:Generated_Source\PSoC5/USBUART_std.c ****                 /* Complete dynamic re-configuration: all endpoint related status and signals 
 902:Generated_Source\PSoC5/USBUART_std.c ****                 * are set into the default state.
 903:Generated_Source\PSoC5/USBUART_std.c ****                 */
 904:Generated_Source\PSoC5/USBUART_std.c ****                 USBUART_DYN_RECONFIG_REG &= (uint8) ~USBUART_DYN_RECONFIG_ENABLE;
 905:Generated_Source\PSoC5/USBUART_std.c **** 
 906:Generated_Source\PSoC5/USBUART_std.c ****             #else
 907:Generated_Source\PSoC5/USBUART_std.c ****                 USBUART_SIE_EP_BASE.sieEp[curEp].epCnt0 = HI8(USBUART_EP[curEp].bufferSize);
 908:Generated_Source\PSoC5/USBUART_std.c ****                 USBUART_SIE_EP_BASE.sieEp[curEp].epCnt1 = LO8(USBUART_EP[curEp].bufferSize);
 909:Generated_Source\PSoC5/USBUART_std.c ****                 
 910:Generated_Source\PSoC5/USBUART_std.c ****                 #if (CY_PSOC4)
 911:Generated_Source\PSoC5/USBUART_std.c ****                     USBUART_ARB_EP16_BASE.arbEp[curEp].rwRa16  = (uint32) USBUART_EP[curEp].buffOff
 912:Generated_Source\PSoC5/USBUART_std.c ****                     USBUART_ARB_EP16_BASE.arbEp[curEp].rwWa16  = (uint32) USBUART_EP[curEp].buffOff
 913:Generated_Source\PSoC5/USBUART_std.c ****                 #else
 914:Generated_Source\PSoC5/USBUART_std.c ****                     USBUART_ARB_EP_BASE.arbEp[curEp].rwRa    = LO8(USBUART_EP[curEp].buffOffset);
 915:Generated_Source\PSoC5/USBUART_std.c ****                     USBUART_ARB_EP_BASE.arbEp[curEp].rwRaMsb = HI8(USBUART_EP[curEp].buffOffset);
 916:Generated_Source\PSoC5/USBUART_std.c ****                     USBUART_ARB_EP_BASE.arbEp[curEp].rwWa    = LO8(USBUART_EP[curEp].buffOffset);
 917:Generated_Source\PSoC5/USBUART_std.c ****                     USBUART_ARB_EP_BASE.arbEp[curEp].rwWaMsb = HI8(USBUART_EP[curEp].buffOffset);
 918:Generated_Source\PSoC5/USBUART_std.c ****                 #endif /* (CY_PSOC4) */                
 919:Generated_Source\PSoC5/USBUART_std.c ****             #endif /* (USBUART_EP_MANAGEMENT_DMA_AUTO) */
 920:Generated_Source\PSoC5/USBUART_std.c ****             }
 921:Generated_Source\PSoC5/USBUART_std.c ****             
 922:Generated_Source\PSoC5/USBUART_std.c ****             pEP = &pEP[1u]; /* Get next EP element */
 923:Generated_Source\PSoC5/USBUART_std.c ****         }
 924:Generated_Source\PSoC5/USBUART_std.c ****         
 925:Generated_Source\PSoC5/USBUART_std.c ****         /* The main loop has to re-enable DMA and OUT endpoint */
 926:Generated_Source\PSoC5/USBUART_std.c ****     }
 927:Generated_Source\PSoC5/USBUART_std.c **** }
 928:Generated_Source\PSoC5/USBUART_std.c **** 
ARM GAS  C:\Users\MANSRO~1\AppData\Local\Temp\cc6Us192.s 			page 21


 929:Generated_Source\PSoC5/USBUART_std.c **** 
 930:Generated_Source\PSoC5/USBUART_std.c **** /*******************************************************************************
 931:Generated_Source\PSoC5/USBUART_std.c **** * Function Name: USBUART_GetConfigTablePtr
 932:Generated_Source\PSoC5/USBUART_std.c **** ****************************************************************************//**
 933:Generated_Source\PSoC5/USBUART_std.c **** *
 934:Generated_Source\PSoC5/USBUART_std.c **** *  This routine returns a pointer a configuration table entry
 935:Generated_Source\PSoC5/USBUART_std.c **** *
 936:Generated_Source\PSoC5/USBUART_std.c **** *  \param confIndex:  Configuration Index
 937:Generated_Source\PSoC5/USBUART_std.c **** *
 938:Generated_Source\PSoC5/USBUART_std.c **** * \return
 939:Generated_Source\PSoC5/USBUART_std.c **** *  Device Descriptor pointer or NULL when descriptor does not exist.
 940:Generated_Source\PSoC5/USBUART_std.c **** *
 941:Generated_Source\PSoC5/USBUART_std.c **** *******************************************************************************/
 942:Generated_Source\PSoC5/USBUART_std.c **** const T_USBUART_LUT CYCODE *USBUART_GetConfigTablePtr(uint8 confIndex)
 943:Generated_Source\PSoC5/USBUART_std.c ****                                                         
 944:Generated_Source\PSoC5/USBUART_std.c **** {
 209              		.loc 1 944 0
 210              		.cfi_startproc
 211              		@ args = 0, pretend = 0, frame = 0
 212              		@ frame_needed = 0, uses_anonymous_args = 0
 213              		@ link register save eliminated.
 214              	.LVL9:
 945:Generated_Source\PSoC5/USBUART_std.c ****     /* Device Table */
 946:Generated_Source\PSoC5/USBUART_std.c ****     const T_USBUART_LUT CYCODE *pTmp;
 947:Generated_Source\PSoC5/USBUART_std.c **** 
 948:Generated_Source\PSoC5/USBUART_std.c ****     pTmp = (const T_USBUART_LUT CYCODE *) USBUART_TABLE[USBUART_device].p_list;
 215              		.loc 1 948 0
 216 0000 074B     		ldr	r3, .L20
 217 0002 1A78     		ldrb	r2, [r3]	@ zero_extendqisi2
 218 0004 074B     		ldr	r3, .L20+4
 219 0006 03EBC203 		add	r3, r3, r2, lsl #3
 220 000a 5B68     		ldr	r3, [r3, #4]
 221              	.LVL10:
 949:Generated_Source\PSoC5/USBUART_std.c **** 
 950:Generated_Source\PSoC5/USBUART_std.c ****     /* The first entry points to the Device Descriptor,
 951:Generated_Source\PSoC5/USBUART_std.c ****     *  the second entry point to the BOS Descriptor
 952:Generated_Source\PSoC5/USBUART_std.c ****     *  the rest configuration entries.
 953:Generated_Source\PSoC5/USBUART_std.c ****     *  Set pointer to the first Configuration Descriptor
 954:Generated_Source\PSoC5/USBUART_std.c ****     */
 955:Generated_Source\PSoC5/USBUART_std.c ****     pTmp = &pTmp[2u];
 956:Generated_Source\PSoC5/USBUART_std.c ****     /* For this table, c is the number of configuration descriptors  */
 957:Generated_Source\PSoC5/USBUART_std.c ****     if(confIndex >= pTmp->c)   /* Verify that required configuration descriptor exists */
 222              		.loc 1 957 0
 223 000c 1A7C     		ldrb	r2, [r3, #16]	@ zero_extendqisi2
 224 000e 8242     		cmp	r2, r0
 225 0010 04D9     		bls	.L19
 958:Generated_Source\PSoC5/USBUART_std.c ****     {
 959:Generated_Source\PSoC5/USBUART_std.c ****         pTmp = (const T_USBUART_LUT CYCODE *) NULL;
 960:Generated_Source\PSoC5/USBUART_std.c ****     }
 961:Generated_Source\PSoC5/USBUART_std.c ****     else
 962:Generated_Source\PSoC5/USBUART_std.c ****     {
 963:Generated_Source\PSoC5/USBUART_std.c ****         pTmp = (const T_USBUART_LUT CYCODE *) pTmp[confIndex].p_list;
 226              		.loc 1 963 0
 227 0012 C000     		lsls	r0, r0, #3
 228              	.LVL11:
 229 0014 1030     		adds	r0, r0, #16
 230 0016 1844     		add	r0, r0, r3
ARM GAS  C:\Users\MANSRO~1\AppData\Local\Temp\cc6Us192.s 			page 22


 231 0018 4068     		ldr	r0, [r0, #4]
 232              	.LVL12:
 233 001a 7047     		bx	lr
 234              	.LVL13:
 235              	.L19:
 959:Generated_Source\PSoC5/USBUART_std.c ****     }
 236              		.loc 1 959 0
 237 001c 0020     		movs	r0, #0
 238              	.LVL14:
 964:Generated_Source\PSoC5/USBUART_std.c ****     }
 965:Generated_Source\PSoC5/USBUART_std.c **** 
 966:Generated_Source\PSoC5/USBUART_std.c ****     return (pTmp);
 967:Generated_Source\PSoC5/USBUART_std.c **** }
 239              		.loc 1 967 0
 240 001e 7047     		bx	lr
 241              	.L21:
 242              		.align	2
 243              	.L20:
 244 0020 00000000 		.word	USBUART_device
 245 0024 00000000 		.word	USBUART_TABLE
 246              		.cfi_endproc
 247              	.LFE5:
 248              		.size	USBUART_GetConfigTablePtr, .-USBUART_GetConfigTablePtr
 249              		.section	.text.USBUART_ConfigAltChanged,"ax",%progbits
 250              		.align	2
 251              		.global	USBUART_ConfigAltChanged
 252              		.thumb
 253              		.thumb_func
 254              		.type	USBUART_ConfigAltChanged, %function
 255              	USBUART_ConfigAltChanged:
 256              	.LFB4:
 806:Generated_Source\PSoC5/USBUART_std.c ****     uint8 ep;
 257              		.loc 1 806 0
 258              		.cfi_startproc
 259              		@ args = 0, pretend = 0, frame = 0
 260              		@ frame_needed = 0, uses_anonymous_args = 0
 261 0000 F8B5     		push	{r3, r4, r5, r6, r7, lr}
 262              		.cfi_def_cfa_offset 24
 263              		.cfi_offset 3, -24
 264              		.cfi_offset 4, -20
 265              		.cfi_offset 5, -16
 266              		.cfi_offset 6, -12
 267              		.cfi_offset 7, -8
 268              		.cfi_offset 14, -4
 817:Generated_Source\PSoC5/USBUART_std.c ****     {
 269              		.loc 1 817 0
 270 0002 404B     		ldr	r3, .L34
 271 0004 1B78     		ldrb	r3, [r3]	@ zero_extendqisi2
 272 0006 13F0FF0F 		tst	r3, #255
 273 000a 79D0     		beq	.L22
 820:Generated_Source\PSoC5/USBUART_std.c ****         pTmp = &pTmp[1u];
 274              		.loc 1 820 0
 275 000c 3D4B     		ldr	r3, .L34
 276 000e 1878     		ldrb	r0, [r3]	@ zero_extendqisi2
 277 0010 0138     		subs	r0, r0, #1
 278 0012 C0B2     		uxtb	r0, r0
 279 0014 FFF7FEFF 		bl	USBUART_GetConfigTablePtr
ARM GAS  C:\Users\MANSRO~1\AppData\Local\Temp\cc6Us192.s 			page 23


 280              	.LVL15:
 822:Generated_Source\PSoC5/USBUART_std.c **** 
 281              		.loc 1 822 0
 282 0018 047A     		ldrb	r4, [r0, #8]	@ zero_extendqisi2
 283              	.LVL16:
 825:Generated_Source\PSoC5/USBUART_std.c ****         
 284              		.loc 1 825 0
 285 001a C268     		ldr	r2, [r0, #12]
 286              	.LVL17:
 831:Generated_Source\PSoC5/USBUART_std.c ****         for (i = 0u; i < ep; i++)
 287              		.loc 1 831 0
 288 001c 3A4B     		ldr	r3, .L34+4
 289 001e 1878     		ldrb	r0, [r3]	@ zero_extendqisi2
 290              	.LVL18:
 291 0020 C0B2     		uxtb	r0, r0
 292              	.LVL19:
 832:Generated_Source\PSoC5/USBUART_std.c ****         {
 293              		.loc 1 832 0
 294 0022 0023     		movs	r3, #0
 295 0024 6AE0     		b	.L24
 296              	.LVL20:
 297              	.L30:
 835:Generated_Source\PSoC5/USBUART_std.c ****                 (USBUART_interfaceSetting[interfaceNum] == pEP->altSetting))
 298              		.loc 1 835 0
 299 0026 1178     		ldrb	r1, [r2]	@ zero_extendqisi2
 300 0028 8842     		cmp	r0, r1
 301 002a 64D1     		bne	.L25
 836:Generated_Source\PSoC5/USBUART_std.c ****             {
 302              		.loc 1 836 0 discriminator 1
 303 002c 3749     		ldr	r1, .L34+8
 304 002e 095C     		ldrb	r1, [r1, r0]	@ zero_extendqisi2
 305 0030 C9B2     		uxtb	r1, r1
 306 0032 5578     		ldrb	r5, [r2, #1]	@ zero_extendqisi2
 835:Generated_Source\PSoC5/USBUART_std.c ****                 (USBUART_interfaceSetting[interfaceNum] == pEP->altSetting))
 307              		.loc 1 835 0 discriminator 1
 308 0034 A942     		cmp	r1, r5
 309 0036 5ED1     		bne	.L25
 838:Generated_Source\PSoC5/USBUART_std.c ****                 epType = ((uint8) pEP->attributes & USBUART_EP_TYPE_MASK);
 310              		.loc 1 838 0
 311 0038 9178     		ldrb	r1, [r2, #2]	@ zero_extendqisi2
 312 003a 01F07F01 		and	r1, r1, #127
 313              	.LVL21:
 839:Generated_Source\PSoC5/USBUART_std.c ****                 
 314              		.loc 1 839 0
 315 003e D678     		ldrb	r6, [r2, #3]	@ zero_extendqisi2
 316 0040 06F00306 		and	r6, r6, #3
 317              	.LVL22:
 842:Generated_Source\PSoC5/USBUART_std.c ****                 USBUART_EP[curEp].addr       = pEP->addr;
 318              		.loc 1 842 0
 319 0044 DFF8C8E0 		ldr	lr, .L34+12
 320 0048 4D00     		lsls	r5, r1, #1
 321 004a 0D44     		add	r5, r5, r1
 322 004c AF00     		lsls	r7, r5, #2
 323 004e 0EEB0705 		add	r5, lr, r7
 324 0052 4FF0000C 		mov	ip, #0
 325 0056 85F803C0 		strb	ip, [r5, #3]
 843:Generated_Source\PSoC5/USBUART_std.c ****                 USBUART_EP[curEp].attrib     = pEP->attributes;
ARM GAS  C:\Users\MANSRO~1\AppData\Local\Temp\cc6Us192.s 			page 24


 326              		.loc 1 843 0
 327 005a 92F802C0 		ldrb	ip, [r2, #2]	@ zero_extendqisi2
 328 005e 85F804C0 		strb	ip, [r5, #4]
 844:Generated_Source\PSoC5/USBUART_std.c ****                 USBUART_EP[curEp].bufferSize = pEP->bufferSize;
 329              		.loc 1 844 0
 330 0062 92F803C0 		ldrb	ip, [r2, #3]	@ zero_extendqisi2
 331 0066 0EF807C0 		strb	ip, [lr, r7]
 845:Generated_Source\PSoC5/USBUART_std.c **** 
 332              		.loc 1 845 0
 333 006a 9788     		ldrh	r7, [r2, #4]
 334 006c 2F81     		strh	r7, [r5, #8]	@ movhi
 847:Generated_Source\PSoC5/USBUART_std.c ****                 {
 335              		.loc 1 847 0
 336 006e 92F90250 		ldrsb	r5, [r2, #2]
 337 0072 002D     		cmp	r5, #0
 338 0074 0DDA     		bge	.L26
 850:Generated_Source\PSoC5/USBUART_std.c ****                     USBUART_EP[curEp].apiEpState = USBUART_EVENT_PENDING;
 339              		.loc 1 850 0
 340 0076 012E     		cmp	r6, #1
 341 0078 01D1     		bne	.L31
 342 007a 0727     		movs	r7, #7
 343 007c 00E0     		b	.L27
 344              	.L31:
 345 007e 0D27     		movs	r7, #13
 346              	.L27:
 850:Generated_Source\PSoC5/USBUART_std.c ****                     USBUART_EP[curEp].apiEpState = USBUART_EVENT_PENDING;
 347              		.loc 1 850 0 is_stmt 0 discriminator 4
 348 0080 4E00     		lsls	r6, r1, #1
 349              	.LVL23:
 350 0082 0E44     		add	r6, r6, r1
 351 0084 B500     		lsls	r5, r6, #2
 352 0086 224E     		ldr	r6, .L34+12
 353 0088 3544     		add	r5, r5, r6
 354 008a 6F71     		strb	r7, [r5, #5]
 851:Generated_Source\PSoC5/USBUART_std.c ****                 }
 355              		.loc 1 851 0 is_stmt 1 discriminator 4
 356 008c 0126     		movs	r6, #1
 357 008e 6E70     		strb	r6, [r5, #1]
 358 0090 0CE0     		b	.L28
 359              	.LVL24:
 360              	.L26:
 856:Generated_Source\PSoC5/USBUART_std.c ****                     USBUART_EP[curEp].apiEpState = USBUART_NO_EVENT_PENDING;
 361              		.loc 1 856 0
 362 0092 012E     		cmp	r6, #1
 363 0094 01D1     		bne	.L32
 364 0096 0527     		movs	r7, #5
 365 0098 00E0     		b	.L29
 366              	.L32:
 367 009a 0927     		movs	r7, #9
 368              	.L29:
 856:Generated_Source\PSoC5/USBUART_std.c ****                     USBUART_EP[curEp].apiEpState = USBUART_NO_EVENT_PENDING;
 369              		.loc 1 856 0 is_stmt 0 discriminator 4
 370 009c 4E00     		lsls	r6, r1, #1
 371              	.LVL25:
 372 009e 0E44     		add	r6, r6, r1
 373 00a0 B500     		lsls	r5, r6, #2
 374 00a2 1B4E     		ldr	r6, .L34+12
ARM GAS  C:\Users\MANSRO~1\AppData\Local\Temp\cc6Us192.s 			page 25


 375 00a4 3544     		add	r5, r5, r6
 376 00a6 6F71     		strb	r7, [r5, #5]
 857:Generated_Source\PSoC5/USBUART_std.c ****                 }
 377              		.loc 1 857 0 is_stmt 1 discriminator 4
 378 00a8 0026     		movs	r6, #0
 379 00aa 6E70     		strb	r6, [r5, #1]
 380              	.L28:
 861:Generated_Source\PSoC5/USBUART_std.c **** 
 381              		.loc 1 861 0
 382 00ac DFF868E0 		ldr	lr, .L34+20
 383 00b0 0F01     		lsls	r7, r1, #4
 384 00b2 0EEB0706 		add	r6, lr, r7
 385 00b6 0125     		movs	r5, #1
 386 00b8 B570     		strb	r5, [r6, #2]
 907:Generated_Source\PSoC5/USBUART_std.c ****                 USBUART_SIE_EP_BASE.sieEp[curEp].epCnt1 = LO8(USBUART_EP[curEp].bufferSize);
 387              		.loc 1 907 0
 388 00ba 01FA05F5 		lsl	r5, r1, r5
 389 00be 2944     		add	r1, r1, r5
 390              	.LVL26:
 391 00c0 8D00     		lsls	r5, r1, #2
 392 00c2 1349     		ldr	r1, .L34+12
 393 00c4 2944     		add	r1, r1, r5
 394 00c6 0D89     		ldrh	r5, [r1, #8]
 395 00c8 C5F30725 		ubfx	r5, r5, #8, #8
 396 00cc 0EF80750 		strb	r5, [lr, r7]
 908:Generated_Source\PSoC5/USBUART_std.c ****                 
 397              		.loc 1 908 0
 398 00d0 0D89     		ldrh	r5, [r1, #8]
 399 00d2 EDB2     		uxtb	r5, r5
 400 00d4 7570     		strb	r5, [r6, #1]
 914:Generated_Source\PSoC5/USBUART_std.c ****                     USBUART_ARB_EP_BASE.arbEp[curEp].rwRaMsb = HI8(USBUART_EP[curEp].buffOffset);
 401              		.loc 1 914 0
 402 00d6 CE88     		ldrh	r6, [r1, #6]
 403 00d8 F6B2     		uxtb	r6, r6
 404 00da 0E4D     		ldr	r5, .L34+16
 405 00dc 3D44     		add	r5, r5, r7
 406 00de AE71     		strb	r6, [r5, #6]
 915:Generated_Source\PSoC5/USBUART_std.c ****                     USBUART_ARB_EP_BASE.arbEp[curEp].rwWa    = LO8(USBUART_EP[curEp].buffOffset);
 407              		.loc 1 915 0
 408 00e0 CE88     		ldrh	r6, [r1, #6]
 409 00e2 C6F30726 		ubfx	r6, r6, #8, #8
 410 00e6 EE71     		strb	r6, [r5, #7]
 916:Generated_Source\PSoC5/USBUART_std.c ****                     USBUART_ARB_EP_BASE.arbEp[curEp].rwWaMsb = HI8(USBUART_EP[curEp].buffOffset);
 411              		.loc 1 916 0
 412 00e8 CE88     		ldrh	r6, [r1, #6]
 413 00ea F6B2     		uxtb	r6, r6
 414 00ec 2E71     		strb	r6, [r5, #4]
 917:Generated_Source\PSoC5/USBUART_std.c ****                 #endif /* (CY_PSOC4) */                
 415              		.loc 1 917 0
 416 00ee C988     		ldrh	r1, [r1, #6]
 417 00f0 C1F30721 		ubfx	r1, r1, #8, #8
 418 00f4 6971     		strb	r1, [r5, #5]
 419              	.L25:
 922:Generated_Source\PSoC5/USBUART_std.c ****         }
 420              		.loc 1 922 0 discriminator 2
 421 00f6 0832     		adds	r2, r2, #8
 422              	.LVL27:
ARM GAS  C:\Users\MANSRO~1\AppData\Local\Temp\cc6Us192.s 			page 26


 832:Generated_Source\PSoC5/USBUART_std.c ****         {
 423              		.loc 1 832 0 discriminator 2
 424 00f8 0133     		adds	r3, r3, #1
 425              	.LVL28:
 426 00fa DBB2     		uxtb	r3, r3
 427              	.LVL29:
 428              	.L24:
 832:Generated_Source\PSoC5/USBUART_std.c ****         {
 429              		.loc 1 832 0 is_stmt 0 discriminator 1
 430 00fc A342     		cmp	r3, r4
 431 00fe 92D3     		bcc	.L30
 432              	.LVL30:
 433              	.L22:
 434 0100 F8BD     		pop	{r3, r4, r5, r6, r7, pc}
 435              	.L35:
 436 0102 00BF     		.align	2
 437              	.L34:
 438 0104 00000000 		.word	USBUART_configuration
 439 0108 00000000 		.word	USBUART_interfaceNumber
 440 010c 00000000 		.word	USBUART_interfaceSetting
 441 0110 00000000 		.word	USBUART_EP
 442 0114 70600040 		.word	1073766512
 443 0118 FC5F0040 		.word	1073766396
 444              		.cfi_endproc
 445              	.LFE4:
 446              		.size	USBUART_ConfigAltChanged, .-USBUART_ConfigAltChanged
 447              		.section	.text.USBUART_GetDeviceTablePtr,"ax",%progbits
 448              		.align	2
 449              		.global	USBUART_GetDeviceTablePtr
 450              		.thumb
 451              		.thumb_func
 452              		.type	USBUART_GetDeviceTablePtr, %function
 453              	USBUART_GetDeviceTablePtr:
 454              	.LFB6:
 968:Generated_Source\PSoC5/USBUART_std.c **** 
 969:Generated_Source\PSoC5/USBUART_std.c **** 
 970:Generated_Source\PSoC5/USBUART_std.c **** #if (USBUART_BOS_ENABLE)
 971:Generated_Source\PSoC5/USBUART_std.c ****     /*******************************************************************************
 972:Generated_Source\PSoC5/USBUART_std.c ****     * Function Name: USBUART_GetBOSPtr
 973:Generated_Source\PSoC5/USBUART_std.c ****     ****************************************************************************//**
 974:Generated_Source\PSoC5/USBUART_std.c ****     *
 975:Generated_Source\PSoC5/USBUART_std.c ****     *  This routine returns a pointer a BOS table entry
 976:Generated_Source\PSoC5/USBUART_std.c ****     *
 977:Generated_Source\PSoC5/USBUART_std.c ****     *  
 978:Generated_Source\PSoC5/USBUART_std.c ****     *
 979:Generated_Source\PSoC5/USBUART_std.c ****     * \return
 980:Generated_Source\PSoC5/USBUART_std.c ****     *  BOS Descriptor pointer or NULL when descriptor does not exist.
 981:Generated_Source\PSoC5/USBUART_std.c ****     *
 982:Generated_Source\PSoC5/USBUART_std.c ****     *******************************************************************************/
 983:Generated_Source\PSoC5/USBUART_std.c ****     const T_USBUART_LUT CYCODE *USBUART_GetBOSPtr(void)
 984:Generated_Source\PSoC5/USBUART_std.c ****                                                             
 985:Generated_Source\PSoC5/USBUART_std.c ****     {
 986:Generated_Source\PSoC5/USBUART_std.c ****         /* Device Table */
 987:Generated_Source\PSoC5/USBUART_std.c ****         const T_USBUART_LUT CYCODE *pTmp;
 988:Generated_Source\PSoC5/USBUART_std.c **** 
 989:Generated_Source\PSoC5/USBUART_std.c ****         pTmp = (const T_USBUART_LUT CYCODE *) USBUART_TABLE[USBUART_device].p_list;
 990:Generated_Source\PSoC5/USBUART_std.c **** 
ARM GAS  C:\Users\MANSRO~1\AppData\Local\Temp\cc6Us192.s 			page 27


 991:Generated_Source\PSoC5/USBUART_std.c ****         /* The first entry points to the Device Descriptor,
 992:Generated_Source\PSoC5/USBUART_std.c ****         *  the second entry points to the BOS Descriptor
 993:Generated_Source\PSoC5/USBUART_std.c ****         */
 994:Generated_Source\PSoC5/USBUART_std.c ****         pTmp = &pTmp[1u];
 995:Generated_Source\PSoC5/USBUART_std.c ****         pTmp = (const T_USBUART_LUT CYCODE *) pTmp->p_list;
 996:Generated_Source\PSoC5/USBUART_std.c ****         return (pTmp);
 997:Generated_Source\PSoC5/USBUART_std.c ****     }
 998:Generated_Source\PSoC5/USBUART_std.c **** #endif /* (USBUART_BOS_ENABLE) */
 999:Generated_Source\PSoC5/USBUART_std.c **** 
1000:Generated_Source\PSoC5/USBUART_std.c **** 
1001:Generated_Source\PSoC5/USBUART_std.c **** /*******************************************************************************
1002:Generated_Source\PSoC5/USBUART_std.c **** * Function Name: USBUART_GetDeviceTablePtr
1003:Generated_Source\PSoC5/USBUART_std.c **** ****************************************************************************//**
1004:Generated_Source\PSoC5/USBUART_std.c **** *
1005:Generated_Source\PSoC5/USBUART_std.c **** *  This routine returns a pointer to the Device table
1006:Generated_Source\PSoC5/USBUART_std.c **** *
1007:Generated_Source\PSoC5/USBUART_std.c **** * \return
1008:Generated_Source\PSoC5/USBUART_std.c **** *  Device Table pointer
1009:Generated_Source\PSoC5/USBUART_std.c **** *
1010:Generated_Source\PSoC5/USBUART_std.c **** *******************************************************************************/
1011:Generated_Source\PSoC5/USBUART_std.c **** const T_USBUART_LUT CYCODE *USBUART_GetDeviceTablePtr(void)
1012:Generated_Source\PSoC5/USBUART_std.c ****                                                             
1013:Generated_Source\PSoC5/USBUART_std.c **** {
 455              		.loc 1 1013 0 is_stmt 1
 456              		.cfi_startproc
 457              		@ args = 0, pretend = 0, frame = 0
 458              		@ frame_needed = 0, uses_anonymous_args = 0
 459              		@ link register save eliminated.
1014:Generated_Source\PSoC5/USBUART_std.c ****     /* Device Table */
1015:Generated_Source\PSoC5/USBUART_std.c ****     return( (const T_USBUART_LUT CYCODE *) USBUART_TABLE[USBUART_device].p_list );
 460              		.loc 1 1015 0
 461 0000 034B     		ldr	r3, .L37
 462 0002 1A78     		ldrb	r2, [r3]	@ zero_extendqisi2
 463 0004 034B     		ldr	r3, .L37+4
 464 0006 03EBC203 		add	r3, r3, r2, lsl #3
1016:Generated_Source\PSoC5/USBUART_std.c **** }
 465              		.loc 1 1016 0
 466 000a 5868     		ldr	r0, [r3, #4]
 467 000c 7047     		bx	lr
 468              	.L38:
 469 000e 00BF     		.align	2
 470              	.L37:
 471 0010 00000000 		.word	USBUART_device
 472 0014 00000000 		.word	USBUART_TABLE
 473              		.cfi_endproc
 474              	.LFE6:
 475              		.size	USBUART_GetDeviceTablePtr, .-USBUART_GetDeviceTablePtr
 476              		.section	.text.USBUART_GetInterfaceClassTablePtr,"ax",%progbits
 477              		.align	2
 478              		.global	USBUART_GetInterfaceClassTablePtr
 479              		.thumb
 480              		.thumb_func
 481              		.type	USBUART_GetInterfaceClassTablePtr, %function
 482              	USBUART_GetInterfaceClassTablePtr:
 483              	.LFB7:
1017:Generated_Source\PSoC5/USBUART_std.c **** 
1018:Generated_Source\PSoC5/USBUART_std.c **** 
ARM GAS  C:\Users\MANSRO~1\AppData\Local\Temp\cc6Us192.s 			page 28


1019:Generated_Source\PSoC5/USBUART_std.c **** /*******************************************************************************
1020:Generated_Source\PSoC5/USBUART_std.c **** * Function Name: USB_GetInterfaceClassTablePtr
1021:Generated_Source\PSoC5/USBUART_std.c **** ****************************************************************************//**
1022:Generated_Source\PSoC5/USBUART_std.c **** *
1023:Generated_Source\PSoC5/USBUART_std.c **** *  This routine returns Interface Class table pointer, which contains
1024:Generated_Source\PSoC5/USBUART_std.c **** *  the relation between interface number and interface class.
1025:Generated_Source\PSoC5/USBUART_std.c **** *
1026:Generated_Source\PSoC5/USBUART_std.c **** * \return
1027:Generated_Source\PSoC5/USBUART_std.c **** *  Interface Class table pointer.
1028:Generated_Source\PSoC5/USBUART_std.c **** *
1029:Generated_Source\PSoC5/USBUART_std.c **** *******************************************************************************/
1030:Generated_Source\PSoC5/USBUART_std.c **** const uint8 CYCODE *USBUART_GetInterfaceClassTablePtr(void)
1031:Generated_Source\PSoC5/USBUART_std.c ****                                                         
1032:Generated_Source\PSoC5/USBUART_std.c **** {
 484              		.loc 1 1032 0
 485              		.cfi_startproc
 486              		@ args = 0, pretend = 0, frame = 0
 487              		@ frame_needed = 0, uses_anonymous_args = 0
 488 0000 08B5     		push	{r3, lr}
 489              		.cfi_def_cfa_offset 8
 490              		.cfi_offset 3, -8
 491              		.cfi_offset 14, -4
1033:Generated_Source\PSoC5/USBUART_std.c ****     const T_USBUART_LUT CYCODE *pTmp;
1034:Generated_Source\PSoC5/USBUART_std.c ****     const uint8 CYCODE *pInterfaceClass;
1035:Generated_Source\PSoC5/USBUART_std.c ****     uint8 currentInterfacesNum;
1036:Generated_Source\PSoC5/USBUART_std.c **** 
1037:Generated_Source\PSoC5/USBUART_std.c ****     pTmp = USBUART_GetConfigTablePtr(USBUART_configuration - 1u);
 492              		.loc 1 1037 0
 493 0002 084B     		ldr	r3, .L43
 494 0004 1878     		ldrb	r0, [r3]	@ zero_extendqisi2
 495 0006 0138     		subs	r0, r0, #1
 496 0008 C0B2     		uxtb	r0, r0
 497 000a FFF7FEFF 		bl	USBUART_GetConfigTablePtr
 498              	.LVL31:
1038:Generated_Source\PSoC5/USBUART_std.c ****     if (pTmp != NULL)
 499              		.loc 1 1038 0
 500 000e 30B1     		cbz	r0, .L41
1039:Generated_Source\PSoC5/USBUART_std.c ****     {
1040:Generated_Source\PSoC5/USBUART_std.c ****         currentInterfacesNum  = ((const uint8 *) pTmp->p_list)[USBUART_CONFIG_DESCR_NUM_INTERFACES]
 501              		.loc 1 1040 0
 502 0010 4268     		ldr	r2, [r0, #4]
 503 0012 1279     		ldrb	r2, [r2, #4]	@ zero_extendqisi2
 504              	.LVL32:
1041:Generated_Source\PSoC5/USBUART_std.c ****         /* Third entry in the LUT starts the Interface Table pointers */
1042:Generated_Source\PSoC5/USBUART_std.c ****         /* The INTERFACE_CLASS table is located after all interfaces */
1043:Generated_Source\PSoC5/USBUART_std.c ****         pTmp = &pTmp[currentInterfacesNum + 2u];
 505              		.loc 1 1043 0
 506 0014 0232     		adds	r2, r2, #2
 507              	.LVL33:
 508 0016 00EBC203 		add	r3, r0, r2, lsl #3
 509              	.LVL34:
1044:Generated_Source\PSoC5/USBUART_std.c ****         pInterfaceClass = (const uint8 CYCODE *) pTmp->p_list;
 510              		.loc 1 1044 0
 511 001a 5868     		ldr	r0, [r3, #4]
 512              	.LVL35:
 513 001c 08BD     		pop	{r3, pc}
 514              	.LVL36:
ARM GAS  C:\Users\MANSRO~1\AppData\Local\Temp\cc6Us192.s 			page 29


 515              	.L41:
1045:Generated_Source\PSoC5/USBUART_std.c ****     }
1046:Generated_Source\PSoC5/USBUART_std.c ****     else
1047:Generated_Source\PSoC5/USBUART_std.c ****     {
1048:Generated_Source\PSoC5/USBUART_std.c ****         pInterfaceClass = (const uint8 CYCODE *) NULL;
 516              		.loc 1 1048 0
 517 001e 0020     		movs	r0, #0
 518              	.LVL37:
1049:Generated_Source\PSoC5/USBUART_std.c ****     }
1050:Generated_Source\PSoC5/USBUART_std.c **** 
1051:Generated_Source\PSoC5/USBUART_std.c ****     return (pInterfaceClass);
1052:Generated_Source\PSoC5/USBUART_std.c **** }
 519              		.loc 1 1052 0
 520 0020 08BD     		pop	{r3, pc}
 521              	.L44:
 522 0022 00BF     		.align	2
 523              	.L43:
 524 0024 00000000 		.word	USBUART_configuration
 525              		.cfi_endproc
 526              	.LFE7:
 527              		.size	USBUART_GetInterfaceClassTablePtr, .-USBUART_GetInterfaceClassTablePtr
 528              		.section	.text.USBUART_Config,"ax",%progbits
 529              		.align	2
 530              		.global	USBUART_Config
 531              		.thumb
 532              		.thumb_func
 533              		.type	USBUART_Config, %function
 534              	USBUART_Config:
 535              	.LFB3:
 571:Generated_Source\PSoC5/USBUART_std.c ****     uint8 ep;
 536              		.loc 1 571 0
 537              		.cfi_startproc
 538              		@ args = 0, pretend = 0, frame = 0
 539              		@ frame_needed = 0, uses_anonymous_args = 0
 540              	.LVL38:
 541 0000 2DE9F047 		push	{r4, r5, r6, r7, r8, r9, r10, lr}
 542              		.cfi_def_cfa_offset 32
 543              		.cfi_offset 4, -32
 544              		.cfi_offset 5, -28
 545              		.cfi_offset 6, -24
 546              		.cfi_offset 7, -20
 547              		.cfi_offset 8, -16
 548              		.cfi_offset 9, -12
 549              		.cfi_offset 10, -8
 550              		.cfi_offset 14, -4
 551              	.LVL39:
 586:Generated_Source\PSoC5/USBUART_std.c ****     {
 552              		.loc 1 586 0
 553 0004 0023     		movs	r3, #0
 554 0006 10E0     		b	.L46
 555              	.LVL40:
 556              	.L47:
 588:Generated_Source\PSoC5/USBUART_std.c ****         USBUART_EP[ep].hwEpState  = 0u;
 557              		.loc 1 588 0 discriminator 3
 558 0008 724D     		ldr	r5, .L73
 559 000a 5900     		lsls	r1, r3, #1
 560 000c CA18     		adds	r2, r1, r3
ARM GAS  C:\Users\MANSRO~1\AppData\Local\Temp\cc6Us192.s 			page 30


 561 000e 9600     		lsls	r6, r2, #2
 562 0010 AC19     		adds	r4, r5, r6
 563 0012 0022     		movs	r2, #0
 564 0014 AA55     		strb	r2, [r5, r6]
 589:Generated_Source\PSoC5/USBUART_std.c ****         USBUART_EP[ep].epToggle   = 0u;
 565              		.loc 1 589 0 discriminator 3
 566 0016 A270     		strb	r2, [r4, #2]
 590:Generated_Source\PSoC5/USBUART_std.c ****         USBUART_EP[ep].bufferSize = 0u;
 567              		.loc 1 590 0 discriminator 3
 568 0018 E270     		strb	r2, [r4, #3]
 591:Generated_Source\PSoC5/USBUART_std.c ****         USBUART_EP[ep].interface  = 0u;
 569              		.loc 1 591 0 discriminator 3
 570 001a 2281     		strh	r2, [r4, #8]	@ movhi
 592:Generated_Source\PSoC5/USBUART_std.c ****         USBUART_EP[ep].apiEpState = USBUART_NO_EVENT_PENDING;
 571              		.loc 1 592 0 discriminator 3
 572 001c A272     		strb	r2, [r4, #10]
 593:Generated_Source\PSoC5/USBUART_std.c ****         USBUART_EP[ep].epMode     = USBUART_MODE_DISABLE;   
 573              		.loc 1 593 0 discriminator 3
 574 001e 6270     		strb	r2, [r4, #1]
 594:Generated_Source\PSoC5/USBUART_std.c ****     }
 575              		.loc 1 594 0 discriminator 3
 576 0020 3446     		mov	r4, r6
 577 0022 2C44     		add	r4, r4, r5
 578 0024 6271     		strb	r2, [r4, #5]
 586:Generated_Source\PSoC5/USBUART_std.c ****     {
 579              		.loc 1 586 0 discriminator 3
 580 0026 0133     		adds	r3, r3, #1
 581              	.LVL41:
 582 0028 DBB2     		uxtb	r3, r3
 583              	.LVL42:
 584              	.L46:
 586:Generated_Source\PSoC5/USBUART_std.c ****     {
 585              		.loc 1 586 0 is_stmt 0 discriminator 1
 586 002a 082B     		cmp	r3, #8
 587 002c ECD9     		bls	.L47
 598:Generated_Source\PSoC5/USBUART_std.c ****     {
 588              		.loc 1 598 0 is_stmt 1
 589 002e 40B9     		cbnz	r0, .L69
 590 0030 0AE0     		b	.L49
 591              	.LVL43:
 592              	.L50:
 602:Generated_Source\PSoC5/USBUART_std.c ****             USBUART_interfaceSettingLast[i] = 0u;
 593              		.loc 1 602 0 discriminator 3
 594 0032 0022     		movs	r2, #0
 595 0034 6849     		ldr	r1, .L73+4
 596 0036 CA54     		strb	r2, [r1, r3]
 603:Generated_Source\PSoC5/USBUART_std.c ****         }
 597              		.loc 1 603 0 discriminator 3
 598 0038 6849     		ldr	r1, .L73+8
 599 003a CA54     		strb	r2, [r1, r3]
 600:Generated_Source\PSoC5/USBUART_std.c ****         {
 600              		.loc 1 600 0 discriminator 3
 601 003c 0133     		adds	r3, r3, #1
 602              	.LVL44:
 603 003e DBB2     		uxtb	r3, r3
 604              	.LVL45:
 605 0040 00E0     		b	.L48
ARM GAS  C:\Users\MANSRO~1\AppData\Local\Temp\cc6Us192.s 			page 31


 606              	.LVL46:
 607              	.L69:
 608 0042 0023     		movs	r3, #0
 609              	.LVL47:
 610              	.L48:
 600:Generated_Source\PSoC5/USBUART_std.c ****         {
 611              		.loc 1 600 0 is_stmt 0 discriminator 1
 612 0044 012B     		cmp	r3, #1
 613 0046 F4D9     		bls	.L50
 614              	.LVL48:
 615              	.L49:
 608:Generated_Source\PSoC5/USBUART_std.c ****     {
 616              		.loc 1 608 0 is_stmt 1
 617 0048 654B     		ldr	r3, .L73+12
 618 004a 1B78     		ldrb	r3, [r3]	@ zero_extendqisi2
 619 004c 13F0FF0F 		tst	r3, #255
 620 0050 00F0BD80 		beq	.L45
 621              	.LVL49:
 622              	.LBB2:
 614:Generated_Source\PSoC5/USBUART_std.c ****         
 623              		.loc 1 614 0
 624 0054 624B     		ldr	r3, .L73+12
 625 0056 1878     		ldrb	r0, [r3]	@ zero_extendqisi2
 626              	.LVL50:
 627 0058 0138     		subs	r0, r0, #1
 628 005a C0B2     		uxtb	r0, r0
 629 005c FFF7FEFF 		bl	USBUART_GetConfigTablePtr
 630              	.LVL51:
 631 0060 8046     		mov	r8, r0
 632              	.LVL52:
 617:Generated_Source\PSoC5/USBUART_std.c ****         if ((pDescr[USBUART_CONFIG_DESCR_ATTRIB] & USBUART_CONFIG_DESCR_ATTRIB_SELF_POWERED) != 0u)
 633              		.loc 1 617 0
 634 0062 4368     		ldr	r3, [r0, #4]
 635              	.LVL53:
 618:Generated_Source\PSoC5/USBUART_std.c ****         {
 636              		.loc 1 618 0
 637 0064 DB79     		ldrb	r3, [r3, #7]	@ zero_extendqisi2
 638              	.LVL54:
 639 0066 13F0400F 		tst	r3, #64
 640 006a 05D0     		beq	.L52
 620:Generated_Source\PSoC5/USBUART_std.c ****         }
 641              		.loc 1 620 0
 642 006c 5D4A     		ldr	r2, .L73+16
 643 006e 1378     		ldrb	r3, [r2]	@ zero_extendqisi2
 644 0070 43F00103 		orr	r3, r3, #1
 645 0074 1370     		strb	r3, [r2]
 646 0076 04E0     		b	.L53
 647              	.L52:
 624:Generated_Source\PSoC5/USBUART_std.c ****         }
 648              		.loc 1 624 0
 649 0078 5A4A     		ldr	r2, .L73+16
 650 007a 1378     		ldrb	r3, [r2]	@ zero_extendqisi2
 651 007c 03F0FE03 		and	r3, r3, #254
 652 0080 1370     		strb	r3, [r2]
 653              	.L53:
 654              	.LVL55:
 629:Generated_Source\PSoC5/USBUART_std.c **** 
ARM GAS  C:\Users\MANSRO~1\AppData\Local\Temp\cc6Us192.s 			page 32


 655              		.loc 1 629 0
 656 0082 98F80870 		ldrb	r7, [r8, #8]	@ zero_extendqisi2
 657              	.LVL56:
 611:Generated_Source\PSoC5/USBUART_std.c ****         #endif  /* (USBUART_ENABLE_CDC_CLASS) */  
 658              		.loc 1 611 0
 659 0086 4FF0000A 		mov	r10, #0
 687:Generated_Source\PSoC5/USBUART_std.c ****             {
 660              		.loc 1 687 0
 661 008a 0126     		movs	r6, #1
 662 008c 6FE0     		b	.L54
 663              	.LVL57:
 664              	.L64:
 690:Generated_Source\PSoC5/USBUART_std.c ****                 /* Find max length for each EP and select it (length could be different in differen
 665              		.loc 1 690 0
 666 008e D8F80C50 		ldr	r5, [r8, #12]
 667              	.LVL58:
 694:Generated_Source\PSoC5/USBUART_std.c ****                 {
 668              		.loc 1 694 0
 669 0092 0024     		movs	r4, #0
 670 0094 67E0     		b	.L55
 671              	.LVL59:
 672              	.L63:
 696:Generated_Source\PSoC5/USBUART_std.c ****                     {
 673              		.loc 1 696 0
 674 0096 AB78     		ldrb	r3, [r5, #2]	@ zero_extendqisi2
 675 0098 03F07F03 		and	r3, r3, #127
 676 009c 9E42     		cmp	r6, r3
 677 009e 5FD1     		bne	.L56
 699:Generated_Source\PSoC5/USBUART_std.c ****                         {
 678              		.loc 1 699 0
 679 00a0 3146     		mov	r1, r6
 680 00a2 06EB4600 		add	r0, r6, r6, lsl #1
 681 00a6 8300     		lsls	r3, r0, #2
 682 00a8 4A48     		ldr	r0, .L73
 683 00aa 0344     		add	r3, r3, r0
 684 00ac 1B89     		ldrh	r3, [r3, #8]
 685 00ae 9BB2     		uxth	r3, r3
 686 00b0 A888     		ldrh	r0, [r5, #4]
 687 00b2 8342     		cmp	r3, r0
 688 00b4 06D2     		bcs	.L57
 701:Generated_Source\PSoC5/USBUART_std.c ****                         }
 689              		.loc 1 701 0
 690 00b6 06EB460E 		add	lr, r6, r6, lsl #1
 691 00ba 4FEA8E03 		lsl	r3, lr, #2
 692 00be 454A     		ldr	r2, .L73
 693 00c0 1344     		add	r3, r3, r2
 694 00c2 1881     		strh	r0, [r3, #8]	@ movhi
 695              	.L57:
 705:Generated_Source\PSoC5/USBUART_std.c ****                         {                            
 696              		.loc 1 705 0
 697 00c4 2B78     		ldrb	r3, [r5]	@ zero_extendqisi2
 698 00c6 4448     		ldr	r0, .L73+4
 699 00c8 C35C     		ldrb	r3, [r0, r3]	@ zero_extendqisi2
 700 00ca DBB2     		uxtb	r3, r3
 701 00cc 6878     		ldrb	r0, [r5, #1]	@ zero_extendqisi2
 702 00ce 8342     		cmp	r3, r0
 703 00d0 46D1     		bne	.L56
ARM GAS  C:\Users\MANSRO~1\AppData\Local\Temp\cc6Us192.s 			page 33


 707:Generated_Source\PSoC5/USBUART_std.c ****                             USBUART_EP[i].attrib = pEP->attributes;
 704              		.loc 1 707 0
 705 00d2 95F802C0 		ldrb	ip, [r5, #2]	@ zero_extendqisi2
 706 00d6 DFF8FCE0 		ldr	lr, .L73
 707 00da 4B00     		lsls	r3, r1, #1
 708 00dc 0B44     		add	r3, r3, r1
 709 00de 9800     		lsls	r0, r3, #2
 710 00e0 0EEB0003 		add	r3, lr, r0
 711 00e4 83F804C0 		strb	ip, [r3, #4]
 708:Generated_Source\PSoC5/USBUART_std.c ****                             
 712              		.loc 1 708 0
 713 00e8 EB78     		ldrb	r3, [r5, #3]	@ zero_extendqisi2
 714 00ea 0EF80030 		strb	r3, [lr, r0]
 710:Generated_Source\PSoC5/USBUART_std.c ****                             
 715              		.loc 1 710 0
 716 00ee EB78     		ldrb	r3, [r5, #3]	@ zero_extendqisi2
 717 00f0 03F00303 		and	r3, r3, #3
 718              	.LVL60:
 712:Generated_Source\PSoC5/USBUART_std.c ****                             {
 719              		.loc 1 712 0
 720 00f4 95F90200 		ldrsb	r0, [r5, #2]
 721 00f8 0028     		cmp	r0, #0
 722 00fa 13DA     		bge	.L58
 715:Generated_Source\PSoC5/USBUART_std.c ****                                 USBUART_EP[i].apiEpState = USBUART_EVENT_PENDING;
 723              		.loc 1 715 0
 724 00fc 012B     		cmp	r3, #1
 725 00fe 02D1     		bne	.L70
 726 0100 4FF00709 		mov	r9, #7
 727 0104 01E0     		b	.L59
 728              	.L70:
 729 0106 4FF00D09 		mov	r9, #13
 730              	.L59:
 715:Generated_Source\PSoC5/USBUART_std.c ****                                 USBUART_EP[i].apiEpState = USBUART_EVENT_PENDING;
 731              		.loc 1 715 0 is_stmt 0 discriminator 4
 732 010a DFF8C8E0 		ldr	lr, .L73
 733 010e 4B00     		lsls	r3, r1, #1
 734              	.LVL61:
 735 0110 03EB010C 		add	ip, r3, r1
 736 0114 4FEA8C00 		lsl	r0, ip, #2
 737 0118 7044     		add	r0, r0, lr
 738 011a 80F80590 		strb	r9, [r0, #5]
 739              	.LVL62:
 716:Generated_Source\PSoC5/USBUART_std.c ****                                 
 740              		.loc 1 716 0 is_stmt 1 discriminator 4
 741 011e 0121     		movs	r1, #1
 742 0120 4170     		strb	r1, [r0, #1]
 743 0122 12E0     		b	.L60
 744              	.LVL63:
 745              	.L58:
 728:Generated_Source\PSoC5/USBUART_std.c ****                                 USBUART_EP[i].apiEpState = USBUART_NO_EVENT_PENDING;
 746              		.loc 1 728 0
 747 0124 012B     		cmp	r3, #1
 748 0126 02D1     		bne	.L71
 749 0128 4FF00509 		mov	r9, #5
 750 012c 01E0     		b	.L61
 751              	.L71:
 752 012e 4FF00909 		mov	r9, #9
ARM GAS  C:\Users\MANSRO~1\AppData\Local\Temp\cc6Us192.s 			page 34


 753              	.L61:
 728:Generated_Source\PSoC5/USBUART_std.c ****                                 USBUART_EP[i].apiEpState = USBUART_NO_EVENT_PENDING;
 754              		.loc 1 728 0 is_stmt 0 discriminator 4
 755 0132 DFF8A0E0 		ldr	lr, .L73
 756 0136 4B00     		lsls	r3, r1, #1
 757              	.LVL64:
 758 0138 03EB010C 		add	ip, r3, r1
 759 013c 4FEA8C00 		lsl	r0, ip, #2
 760 0140 7044     		add	r0, r0, lr
 761 0142 80F80590 		strb	r9, [r0, #5]
 762              	.LVL65:
 729:Generated_Source\PSoC5/USBUART_std.c ****                                 
 763              		.loc 1 729 0 is_stmt 1 discriminator 4
 764 0146 0021     		movs	r1, #0
 765 0148 4170     		strb	r1, [r0, #1]
 766              	.L60:
 740:Generated_Source\PSoC5/USBUART_std.c ****                             {
 767              		.loc 1 740 0
 768 014a AB79     		ldrb	r3, [r5, #6]	@ zero_extendqisi2
 769 014c 0A2B     		cmp	r3, #10
 770 014e 01D0     		beq	.L62
 740:Generated_Source\PSoC5/USBUART_std.c ****                             {
 771              		.loc 1 740 0 is_stmt 0 discriminator 1
 772 0150 022B     		cmp	r3, #2
 773 0152 05D1     		bne	.L56
 774              	.L62:
 742:Generated_Source\PSoC5/USBUART_std.c ****                             }
 775              		.loc 1 742 0 is_stmt 1
 776 0154 5246     		mov	r2, r10
 777 0156 3146     		mov	r1, r6
 778 0158 2846     		mov	r0, r5
 779 015a FFF7FEFF 		bl	USBUART_Cdc_EpInit
 780              	.LVL66:
 781 015e 8246     		mov	r10, r0
 782              	.LVL67:
 783              	.L56:
 752:Generated_Source\PSoC5/USBUART_std.c ****                 }
 784              		.loc 1 752 0 discriminator 2
 785 0160 0835     		adds	r5, r5, #8
 786              	.LVL68:
 694:Generated_Source\PSoC5/USBUART_std.c ****                 {
 787              		.loc 1 694 0 discriminator 2
 788 0162 0134     		adds	r4, r4, #1
 789              	.LVL69:
 790 0164 E4B2     		uxtb	r4, r4
 791              	.LVL70:
 792              	.L55:
 694:Generated_Source\PSoC5/USBUART_std.c ****                 {
 793              		.loc 1 694 0 is_stmt 0 discriminator 1
 794 0166 BC42     		cmp	r4, r7
 795 0168 95D3     		bcc	.L63
 687:Generated_Source\PSoC5/USBUART_std.c ****             {
 796              		.loc 1 687 0 is_stmt 1 discriminator 2
 797 016a 0136     		adds	r6, r6, #1
 798              	.LVL71:
 799 016c F6B2     		uxtb	r6, r6
 800              	.LVL72:
ARM GAS  C:\Users\MANSRO~1\AppData\Local\Temp\cc6Us192.s 			page 35


 801              	.L54:
 687:Generated_Source\PSoC5/USBUART_std.c ****             {
 802              		.loc 1 687 0 is_stmt 0 discriminator 1
 803 016e 082E     		cmp	r6, #8
 804 0170 8DD9     		bls	.L64
 762:Generated_Source\PSoC5/USBUART_std.c ****         for (i = 0u; i < ep; i++)
 805              		.loc 1 762 0 is_stmt 1
 806 0172 D8F80C00 		ldr	r0, [r8, #12]
 807              	.LVL73:
 763:Generated_Source\PSoC5/USBUART_std.c ****         {
 808              		.loc 1 763 0
 809 0176 0022     		movs	r2, #0
 810 0178 0CE0     		b	.L65
 811              	.LVL74:
 812              	.L66:
 766:Generated_Source\PSoC5/USBUART_std.c ****             pEP = &pEP[1u];
 813              		.loc 1 766 0 discriminator 3
 814 017a 8378     		ldrb	r3, [r0, #2]	@ zero_extendqisi2
 815 017c 03F07F03 		and	r3, r3, #127
 816 0180 10F8084B 		ldrb	r4, [r0], #8	@ zero_extendqisi2
 817              	.LVL75:
 818 0184 03EB4303 		add	r3, r3, r3, lsl #1
 819 0188 9900     		lsls	r1, r3, #2
 820 018a 124B     		ldr	r3, .L73
 821 018c 1944     		add	r1, r1, r3
 822 018e 8C72     		strb	r4, [r1, #10]
 823              	.LVL76:
 763:Generated_Source\PSoC5/USBUART_std.c ****         {
 824              		.loc 1 763 0 discriminator 3
 825 0190 0132     		adds	r2, r2, #1
 826              	.LVL77:
 827 0192 D2B2     		uxtb	r2, r2
 828              	.LVL78:
 829              	.L65:
 763:Generated_Source\PSoC5/USBUART_std.c ****         {
 830              		.loc 1 763 0 is_stmt 0 discriminator 1
 831 0194 BA42     		cmp	r2, r7
 832 0196 F0D3     		bcc	.L66
 771:Generated_Source\PSoC5/USBUART_std.c ****         
 833              		.loc 1 771 0 is_stmt 1
 834 0198 FFF7FEFF 		bl	USBUART_GetInterfaceClassTablePtr
 835              	.LVL79:
 836 019c 124B     		ldr	r3, .L73+20
 837 019e 1860     		str	r0, [r3]
 838              	.LVL80:
 775:Generated_Source\PSoC5/USBUART_std.c ****         for (ep = USBUART_EP1; ep < USBUART_MAX_EP; ++ep)
 839              		.loc 1 775 0
 840 01a0 0023     		movs	r3, #0
 776:Generated_Source\PSoC5/USBUART_std.c ****         {
 841              		.loc 1 776 0
 842 01a2 0121     		movs	r1, #1
 843 01a4 0FE0     		b	.L67
 844              	.LVL81:
 845              	.L68:
 778:Generated_Source\PSoC5/USBUART_std.c ****             buffCount += USBUART_EP[ep].bufferSize;
 846              		.loc 1 778 0 discriminator 3
 847 01a6 0B4D     		ldr	r5, .L73
ARM GAS  C:\Users\MANSRO~1\AppData\Local\Temp\cc6Us192.s 			page 36


 848 01a8 4A00     		lsls	r2, r1, #1
 849 01aa 5018     		adds	r0, r2, r1
 850 01ac 8400     		lsls	r4, r0, #2
 851 01ae 2C44     		add	r4, r4, r5
 852 01b0 E380     		strh	r3, [r4, #6]	@ movhi
 779:Generated_Source\PSoC5/USBUART_std.c ****             
 853              		.loc 1 779 0 discriminator 3
 854 01b2 2289     		ldrh	r2, [r4, #8]
 855 01b4 92B2     		uxth	r2, r2
 856 01b6 1344     		add	r3, r3, r2
 857              	.LVL82:
 858 01b8 9BB2     		uxth	r3, r3
 859              	.LVL83:
 783:Generated_Source\PSoC5/USBUART_std.c ****         #endif /* (USBUART_GEN_16BITS_EP_ACCESS) */            
 860              		.loc 1 783 0 discriminator 3
 861 01ba 03F00102 		and	r2, r3, #1
 862 01be 1344     		add	r3, r3, r2
 863              	.LVL84:
 864 01c0 9BB2     		uxth	r3, r3
 865              	.LVL85:
 776:Generated_Source\PSoC5/USBUART_std.c ****         {
 866              		.loc 1 776 0 discriminator 3
 867 01c2 0131     		adds	r1, r1, #1
 868              	.LVL86:
 869 01c4 C9B2     		uxtb	r1, r1
 870              	.LVL87:
 871              	.L67:
 776:Generated_Source\PSoC5/USBUART_std.c ****         {
 872              		.loc 1 776 0 is_stmt 0 discriminator 1
 873 01c6 0829     		cmp	r1, #8
 874 01c8 EDD9     		bls	.L68
 789:Generated_Source\PSoC5/USBUART_std.c ****     }
 875              		.loc 1 789 0 is_stmt 1
 876 01ca FFF7FEFF 		bl	USBUART_ConfigReg
 877              	.LVL88:
 878              	.L45:
 879 01ce BDE8F087 		pop	{r4, r5, r6, r7, r8, r9, r10, pc}
 880              	.L74:
 881 01d2 00BF     		.align	2
 882              	.L73:
 883 01d4 00000000 		.word	USBUART_EP
 884 01d8 00000000 		.word	USBUART_interfaceSetting
 885 01dc 00000000 		.word	USBUART_interfaceSettingLast
 886 01e0 00000000 		.word	USBUART_configuration
 887 01e4 00000000 		.word	USBUART_deviceStatus
 888 01e8 00000000 		.word	USBUART_interfaceClass
 889              	.LBE2:
 890              		.cfi_endproc
 891              	.LFE3:
 892              		.size	USBUART_Config, .-USBUART_Config
 893              		.section	.text.USBUART_TerminateEP,"ax",%progbits
 894              		.align	2
 895              		.global	USBUART_TerminateEP
 896              		.thumb
 897              		.thumb_func
 898              		.type	USBUART_TerminateEP, %function
 899              	USBUART_TerminateEP:
ARM GAS  C:\Users\MANSRO~1\AppData\Local\Temp\cc6Us192.s 			page 37


 900              	.LFB8:
1053:Generated_Source\PSoC5/USBUART_std.c **** 
1054:Generated_Source\PSoC5/USBUART_std.c **** 
1055:Generated_Source\PSoC5/USBUART_std.c **** /*******************************************************************************
1056:Generated_Source\PSoC5/USBUART_std.c **** * Function Name: USBUART_TerminateEP
1057:Generated_Source\PSoC5/USBUART_std.c **** ****************************************************************************//**
1058:Generated_Source\PSoC5/USBUART_std.c **** *
1059:Generated_Source\PSoC5/USBUART_std.c **** *  This function terminates the specified USBFS endpoint.
1060:Generated_Source\PSoC5/USBUART_std.c **** *  This function should be used before endpoint reconfiguration.
1061:Generated_Source\PSoC5/USBUART_std.c **** *
1062:Generated_Source\PSoC5/USBUART_std.c **** *  \param ep Contains the data endpoint number.
1063:Generated_Source\PSoC5/USBUART_std.c **** *
1064:Generated_Source\PSoC5/USBUART_std.c **** *  \reentrant
1065:Generated_Source\PSoC5/USBUART_std.c **** *  No.
1066:Generated_Source\PSoC5/USBUART_std.c **** *
1067:Generated_Source\PSoC5/USBUART_std.c **** * \sideeffect
1068:Generated_Source\PSoC5/USBUART_std.c **** * 
1069:Generated_Source\PSoC5/USBUART_std.c **** * The device responds with a NAK for any transactions on the selected endpoint.
1070:Generated_Source\PSoC5/USBUART_std.c **** *   
1071:Generated_Source\PSoC5/USBUART_std.c **** *******************************************************************************/
1072:Generated_Source\PSoC5/USBUART_std.c **** void USBUART_TerminateEP(uint8 epNumber) 
1073:Generated_Source\PSoC5/USBUART_std.c **** {
 901              		.loc 1 1073 0
 902              		.cfi_startproc
 903              		@ args = 0, pretend = 0, frame = 0
 904              		@ frame_needed = 0, uses_anonymous_args = 0
 905              		@ link register save eliminated.
 906              	.LVL89:
1074:Generated_Source\PSoC5/USBUART_std.c ****     /* Get endpoint number */
1075:Generated_Source\PSoC5/USBUART_std.c ****     epNumber &= USBUART_DIR_UNUSED;
 907              		.loc 1 1075 0
 908 0000 00F07F00 		and	r0, r0, #127
 909              	.LVL90:
1076:Generated_Source\PSoC5/USBUART_std.c **** 
1077:Generated_Source\PSoC5/USBUART_std.c ****     if ((epNumber > USBUART_EP0) && (epNumber < USBUART_MAX_EP))
 910              		.loc 1 1077 0
 911 0004 431E     		subs	r3, r0, #1
 912 0006 DBB2     		uxtb	r3, r3
 913 0008 072B     		cmp	r3, #7
 914 000a 19D8     		bhi	.L75
1078:Generated_Source\PSoC5/USBUART_std.c ****     {
1079:Generated_Source\PSoC5/USBUART_std.c ****         /* Set the endpoint Halt */
1080:Generated_Source\PSoC5/USBUART_std.c ****         USBUART_EP[epNumber].hwEpState |= USBUART_ENDPOINT_STATUS_HALT;
 915              		.loc 1 1080 0
 916 000c 4200     		lsls	r2, r0, #1
 917 000e 0244     		add	r2, r2, r0
 918 0010 9300     		lsls	r3, r2, #2
 919 0012 0C4A     		ldr	r2, .L78
 920 0014 1344     		add	r3, r3, r2
 921 0016 9A78     		ldrb	r2, [r3, #2]	@ zero_extendqisi2
 922 0018 42F00102 		orr	r2, r2, #1
 923 001c 9A70     		strb	r2, [r3, #2]
1081:Generated_Source\PSoC5/USBUART_std.c **** 
1082:Generated_Source\PSoC5/USBUART_std.c ****         /* Clear the data toggle */
1083:Generated_Source\PSoC5/USBUART_std.c ****         USBUART_EP[epNumber].epToggle = 0u;
 924              		.loc 1 1083 0
 925 001e 0022     		movs	r2, #0
ARM GAS  C:\Users\MANSRO~1\AppData\Local\Temp\cc6Us192.s 			page 38


 926 0020 DA70     		strb	r2, [r3, #3]
1084:Generated_Source\PSoC5/USBUART_std.c ****         USBUART_EP[epNumber].apiEpState = USBUART_NO_EVENT_ALLOWED;
 927              		.loc 1 1084 0
 928 0022 0222     		movs	r2, #2
 929 0024 5A70     		strb	r2, [r3, #1]
1085:Generated_Source\PSoC5/USBUART_std.c **** 
1086:Generated_Source\PSoC5/USBUART_std.c ****         if ((USBUART_EP[epNumber].addr & USBUART_DIR_IN) != 0u)
 930              		.loc 1 1086 0
 931 0026 1B79     		ldrb	r3, [r3, #4]	@ zero_extendqisi2
 932 0028 13F0800F 		tst	r3, #128
 933 002c 04D0     		beq	.L77
1087:Generated_Source\PSoC5/USBUART_std.c ****         {   
1088:Generated_Source\PSoC5/USBUART_std.c ****             /* IN Endpoint */
1089:Generated_Source\PSoC5/USBUART_std.c ****             USBUART_SIE_EP_BASE.sieEp[epNumber].epCr0 = USBUART_MODE_NAK_IN;
 934              		.loc 1 1089 0
 935 002e 0001     		lsls	r0, r0, #4
 936              	.LVL91:
 937 0030 054B     		ldr	r3, .L78+4
 938 0032 0C22     		movs	r2, #12
 939 0034 1A54     		strb	r2, [r3, r0]
 940 0036 7047     		bx	lr
 941              	.LVL92:
 942              	.L77:
1090:Generated_Source\PSoC5/USBUART_std.c ****         }
1091:Generated_Source\PSoC5/USBUART_std.c ****         else
1092:Generated_Source\PSoC5/USBUART_std.c ****         {
1093:Generated_Source\PSoC5/USBUART_std.c ****             /* OUT Endpoint */
1094:Generated_Source\PSoC5/USBUART_std.c ****             USBUART_SIE_EP_BASE.sieEp[epNumber].epCr0 = USBUART_MODE_NAK_OUT;
 943              		.loc 1 1094 0
 944 0038 0001     		lsls	r0, r0, #4
 945              	.LVL93:
 946 003a 034B     		ldr	r3, .L78+4
 947 003c 0822     		movs	r2, #8
 948 003e 1A54     		strb	r2, [r3, r0]
 949              	.L75:
 950 0040 7047     		bx	lr
 951              	.L79:
 952 0042 00BF     		.align	2
 953              	.L78:
 954 0044 00000000 		.word	USBUART_EP
 955 0048 FE5F0040 		.word	1073766398
 956              		.cfi_endproc
 957              	.LFE8:
 958              		.size	USBUART_TerminateEP, .-USBUART_TerminateEP
 959              		.section	.text.USBUART_SetEndpointHalt,"ax",%progbits
 960              		.align	2
 961              		.global	USBUART_SetEndpointHalt
 962              		.thumb
 963              		.thumb_func
 964              		.type	USBUART_SetEndpointHalt, %function
 965              	USBUART_SetEndpointHalt:
 966              	.LFB9:
1095:Generated_Source\PSoC5/USBUART_std.c ****         }
1096:Generated_Source\PSoC5/USBUART_std.c ****     }
1097:Generated_Source\PSoC5/USBUART_std.c **** }
1098:Generated_Source\PSoC5/USBUART_std.c **** 
1099:Generated_Source\PSoC5/USBUART_std.c **** 
ARM GAS  C:\Users\MANSRO~1\AppData\Local\Temp\cc6Us192.s 			page 39


1100:Generated_Source\PSoC5/USBUART_std.c **** /*******************************************************************************
1101:Generated_Source\PSoC5/USBUART_std.c **** * Function Name: USBUART_SetEndpointHalt
1102:Generated_Source\PSoC5/USBUART_std.c **** ****************************************************************************//**
1103:Generated_Source\PSoC5/USBUART_std.c **** *
1104:Generated_Source\PSoC5/USBUART_std.c **** *  This routine handles set endpoint halt.
1105:Generated_Source\PSoC5/USBUART_std.c **** *
1106:Generated_Source\PSoC5/USBUART_std.c **** * \return
1107:Generated_Source\PSoC5/USBUART_std.c **** *  requestHandled.
1108:Generated_Source\PSoC5/USBUART_std.c **** *
1109:Generated_Source\PSoC5/USBUART_std.c **** * \reentrant
1110:Generated_Source\PSoC5/USBUART_std.c **** *  No.
1111:Generated_Source\PSoC5/USBUART_std.c **** *
1112:Generated_Source\PSoC5/USBUART_std.c **** *******************************************************************************/
1113:Generated_Source\PSoC5/USBUART_std.c **** uint8 USBUART_SetEndpointHalt(void) 
1114:Generated_Source\PSoC5/USBUART_std.c **** {
 967              		.loc 1 1114 0
 968              		.cfi_startproc
 969              		@ args = 0, pretend = 0, frame = 0
 970              		@ frame_needed = 0, uses_anonymous_args = 0
 971 0000 08B5     		push	{r3, lr}
 972              		.cfi_def_cfa_offset 8
 973              		.cfi_offset 3, -8
 974              		.cfi_offset 14, -4
 975              	.LVL94:
1115:Generated_Source\PSoC5/USBUART_std.c ****     uint8 requestHandled = USBUART_FALSE;
1116:Generated_Source\PSoC5/USBUART_std.c ****     uint8 ep;
1117:Generated_Source\PSoC5/USBUART_std.c ****     
1118:Generated_Source\PSoC5/USBUART_std.c ****     /* Set endpoint halt */
1119:Generated_Source\PSoC5/USBUART_std.c ****     ep = USBUART_wIndexLoReg & USBUART_DIR_UNUSED;
 976              		.loc 1 1119 0
 977 0002 154B     		ldr	r3, .L86
 978 0004 1B79     		ldrb	r3, [r3, #4]	@ zero_extendqisi2
 979 0006 03F07F03 		and	r3, r3, #127
 980              	.LVL95:
1120:Generated_Source\PSoC5/USBUART_std.c **** 
1121:Generated_Source\PSoC5/USBUART_std.c ****     if ((ep > USBUART_EP0) && (ep < USBUART_MAX_EP))
 981              		.loc 1 1121 0
 982 000a 5A1E     		subs	r2, r3, #1
 983 000c D2B2     		uxtb	r2, r2
 984 000e 072A     		cmp	r2, #7
 985 0010 20D8     		bhi	.L84
1122:Generated_Source\PSoC5/USBUART_std.c ****     {
1123:Generated_Source\PSoC5/USBUART_std.c ****         /* Set the endpoint Halt */
1124:Generated_Source\PSoC5/USBUART_std.c ****         USBUART_EP[ep].hwEpState |= (USBUART_ENDPOINT_STATUS_HALT);
 986              		.loc 1 1124 0
 987 0012 5900     		lsls	r1, r3, #1
 988 0014 1944     		add	r1, r1, r3
 989 0016 8A00     		lsls	r2, r1, #2
 990 0018 1049     		ldr	r1, .L86+4
 991 001a 0A44     		add	r2, r2, r1
 992 001c 9178     		ldrb	r1, [r2, #2]	@ zero_extendqisi2
 993 001e 41F00101 		orr	r1, r1, #1
 994 0022 9170     		strb	r1, [r2, #2]
1125:Generated_Source\PSoC5/USBUART_std.c **** 
1126:Generated_Source\PSoC5/USBUART_std.c ****         /* Clear the data toggle */
1127:Generated_Source\PSoC5/USBUART_std.c ****         USBUART_EP[ep].epToggle = 0u;
 995              		.loc 1 1127 0
ARM GAS  C:\Users\MANSRO~1\AppData\Local\Temp\cc6Us192.s 			page 40


 996 0024 0021     		movs	r1, #0
 997 0026 D170     		strb	r1, [r2, #3]
1128:Generated_Source\PSoC5/USBUART_std.c ****         USBUART_EP[ep].apiEpState |= USBUART_NO_EVENT_ALLOWED;
 998              		.loc 1 1128 0
 999 0028 5178     		ldrb	r1, [r2, #1]	@ zero_extendqisi2
 1000 002a 41F00201 		orr	r1, r1, #2
 1001 002e 5170     		strb	r1, [r2, #1]
1129:Generated_Source\PSoC5/USBUART_std.c **** 
1130:Generated_Source\PSoC5/USBUART_std.c ****         if ((USBUART_EP[ep].addr & USBUART_DIR_IN) != 0u)
 1002              		.loc 1 1130 0
 1003 0030 1279     		ldrb	r2, [r2, #4]	@ zero_extendqisi2
 1004 0032 12F0800F 		tst	r2, #128
 1005 0036 05D0     		beq	.L82
1131:Generated_Source\PSoC5/USBUART_std.c ****         {
1132:Generated_Source\PSoC5/USBUART_std.c ****             /* IN Endpoint */
1133:Generated_Source\PSoC5/USBUART_std.c ****             USBUART_SIE_EP_BASE.sieEp[ep].epCr0 = (USBUART_MODE_STALL_DATA_EP | 
 1006              		.loc 1 1133 0
 1007 0038 1B01     		lsls	r3, r3, #4
 1008              	.LVL96:
 1009 003a 094A     		ldr	r2, .L86+8
 1010 003c 1A44     		add	r2, r2, r3
 1011 003e 8D23     		movs	r3, #141
 1012 0040 9370     		strb	r3, [r2, #2]
 1013 0042 04E0     		b	.L83
 1014              	.LVL97:
 1015              	.L82:
1134:Generated_Source\PSoC5/USBUART_std.c ****                                                             USBUART_MODE_ACK_IN);
1135:Generated_Source\PSoC5/USBUART_std.c ****         }
1136:Generated_Source\PSoC5/USBUART_std.c ****         else
1137:Generated_Source\PSoC5/USBUART_std.c ****         {
1138:Generated_Source\PSoC5/USBUART_std.c ****             /* OUT Endpoint */
1139:Generated_Source\PSoC5/USBUART_std.c ****             USBUART_SIE_EP_BASE.sieEp[ep].epCr0 = (USBUART_MODE_STALL_DATA_EP | 
 1016              		.loc 1 1139 0
 1017 0044 1B01     		lsls	r3, r3, #4
 1018              	.LVL98:
 1019 0046 064A     		ldr	r2, .L86+8
 1020 0048 1A44     		add	r2, r2, r3
 1021 004a 8923     		movs	r3, #137
 1022 004c 9370     		strb	r3, [r2, #2]
 1023              	.L83:
1140:Generated_Source\PSoC5/USBUART_std.c ****                                                             USBUART_MODE_ACK_OUT);
1141:Generated_Source\PSoC5/USBUART_std.c ****         }
1142:Generated_Source\PSoC5/USBUART_std.c ****         requestHandled = USBUART_InitNoDataControlTransfer();
 1024              		.loc 1 1142 0
 1025 004e FFF7FEFF 		bl	USBUART_InitNoDataControlTransfer
 1026              	.LVL99:
 1027 0052 08BD     		pop	{r3, pc}
 1028              	.LVL100:
 1029              	.L84:
1115:Generated_Source\PSoC5/USBUART_std.c ****     uint8 ep;
 1030              		.loc 1 1115 0
 1031 0054 0020     		movs	r0, #0
 1032              	.LVL101:
1143:Generated_Source\PSoC5/USBUART_std.c ****     }
1144:Generated_Source\PSoC5/USBUART_std.c **** 
1145:Generated_Source\PSoC5/USBUART_std.c ****     return (requestHandled);
1146:Generated_Source\PSoC5/USBUART_std.c **** }
ARM GAS  C:\Users\MANSRO~1\AppData\Local\Temp\cc6Us192.s 			page 41


 1033              		.loc 1 1146 0
 1034 0056 08BD     		pop	{r3, pc}
 1035              	.LVL102:
 1036              	.L87:
 1037              		.align	2
 1038              	.L86:
 1039 0058 00600040 		.word	1073766400
 1040 005c 00000000 		.word	USBUART_EP
 1041 0060 FC5F0040 		.word	1073766396
 1042              		.cfi_endproc
 1043              	.LFE9:
 1044              		.size	USBUART_SetEndpointHalt, .-USBUART_SetEndpointHalt
 1045              		.section	.text.USBUART_ClearEndpointHalt,"ax",%progbits
 1046              		.align	2
 1047              		.global	USBUART_ClearEndpointHalt
 1048              		.thumb
 1049              		.thumb_func
 1050              		.type	USBUART_ClearEndpointHalt, %function
 1051              	USBUART_ClearEndpointHalt:
 1052              	.LFB10:
1147:Generated_Source\PSoC5/USBUART_std.c **** 
1148:Generated_Source\PSoC5/USBUART_std.c **** 
1149:Generated_Source\PSoC5/USBUART_std.c **** /*******************************************************************************
1150:Generated_Source\PSoC5/USBUART_std.c **** * Function Name: USBUART_ClearEndpointHalt
1151:Generated_Source\PSoC5/USBUART_std.c **** ****************************************************************************//**
1152:Generated_Source\PSoC5/USBUART_std.c **** *
1153:Generated_Source\PSoC5/USBUART_std.c **** *  This routine handles clear endpoint halt.
1154:Generated_Source\PSoC5/USBUART_std.c **** *
1155:Generated_Source\PSoC5/USBUART_std.c **** * \return
1156:Generated_Source\PSoC5/USBUART_std.c **** *  requestHandled.
1157:Generated_Source\PSoC5/USBUART_std.c **** *
1158:Generated_Source\PSoC5/USBUART_std.c **** * \reentrant
1159:Generated_Source\PSoC5/USBUART_std.c **** *  No.
1160:Generated_Source\PSoC5/USBUART_std.c **** *
1161:Generated_Source\PSoC5/USBUART_std.c **** *******************************************************************************/
1162:Generated_Source\PSoC5/USBUART_std.c **** uint8 USBUART_ClearEndpointHalt(void) 
1163:Generated_Source\PSoC5/USBUART_std.c **** {
 1053              		.loc 1 1163 0
 1054              		.cfi_startproc
 1055              		@ args = 0, pretend = 0, frame = 0
 1056              		@ frame_needed = 0, uses_anonymous_args = 0
 1057              	.LVL103:
1164:Generated_Source\PSoC5/USBUART_std.c ****     uint8 requestHandled = USBUART_FALSE;
1165:Generated_Source\PSoC5/USBUART_std.c ****     uint8 ep;
1166:Generated_Source\PSoC5/USBUART_std.c **** 
1167:Generated_Source\PSoC5/USBUART_std.c ****     /* Clear endpoint halt */
1168:Generated_Source\PSoC5/USBUART_std.c ****     ep = USBUART_wIndexLoReg & USBUART_DIR_UNUSED;
 1058              		.loc 1 1168 0
 1059 0000 274B     		ldr	r3, .L97
 1060 0002 1B79     		ldrb	r3, [r3, #4]	@ zero_extendqisi2
 1061 0004 03F07F03 		and	r3, r3, #127
 1062              	.LVL104:
1169:Generated_Source\PSoC5/USBUART_std.c **** 
1170:Generated_Source\PSoC5/USBUART_std.c ****     if ((ep > USBUART_EP0) && (ep < USBUART_MAX_EP))
 1063              		.loc 1 1170 0
 1064 0008 5A1E     		subs	r2, r3, #1
 1065 000a D2B2     		uxtb	r2, r2
ARM GAS  C:\Users\MANSRO~1\AppData\Local\Temp\cc6Us192.s 			page 42


 1066 000c 072A     		cmp	r2, #7
 1067 000e 44D8     		bhi	.L94
1163:Generated_Source\PSoC5/USBUART_std.c ****     uint8 requestHandled = USBUART_FALSE;
 1068              		.loc 1 1163 0
 1069 0010 10B5     		push	{r4, lr}
 1070              		.cfi_def_cfa_offset 8
 1071              		.cfi_offset 4, -8
 1072              		.cfi_offset 14, -4
1171:Generated_Source\PSoC5/USBUART_std.c ****     {
1172:Generated_Source\PSoC5/USBUART_std.c ****         /* Clear the endpoint Halt */
1173:Generated_Source\PSoC5/USBUART_std.c ****         USBUART_EP[ep].hwEpState &= (uint8) ~USBUART_ENDPOINT_STATUS_HALT;
 1073              		.loc 1 1173 0
 1074 0012 5900     		lsls	r1, r3, #1
 1075 0014 1944     		add	r1, r1, r3
 1076 0016 8A00     		lsls	r2, r1, #2
 1077 0018 2249     		ldr	r1, .L97+4
 1078 001a 0A44     		add	r2, r2, r1
 1079 001c 9178     		ldrb	r1, [r2, #2]	@ zero_extendqisi2
 1080 001e 01F0FE01 		and	r1, r1, #254
 1081 0022 9170     		strb	r1, [r2, #2]
1174:Generated_Source\PSoC5/USBUART_std.c **** 
1175:Generated_Source\PSoC5/USBUART_std.c ****         /* Clear the data toggle */
1176:Generated_Source\PSoC5/USBUART_std.c ****         USBUART_EP[ep].epToggle = 0u;
 1082              		.loc 1 1176 0
 1083 0024 0021     		movs	r1, #0
 1084 0026 D170     		strb	r1, [r2, #3]
1177:Generated_Source\PSoC5/USBUART_std.c ****         
1178:Generated_Source\PSoC5/USBUART_std.c ****         /* Clear toggle bit for already armed packet */
1179:Generated_Source\PSoC5/USBUART_std.c ****         USBUART_SIE_EP_BASE.sieEp[ep].epCnt0 &= (uint8) ~(uint8)USBUART_EPX_CNT_DATA_TOGGLE;
 1085              		.loc 1 1179 0
 1086 0028 1F4C     		ldr	r4, .L97+8
 1087 002a 1801     		lsls	r0, r3, #4
 1088 002c 215C     		ldrb	r1, [r4, r0]	@ zero_extendqisi2
 1089 002e 01F07F01 		and	r1, r1, #127
 1090 0032 2154     		strb	r1, [r4, r0]
1180:Generated_Source\PSoC5/USBUART_std.c ****         
1181:Generated_Source\PSoC5/USBUART_std.c ****         /* Return API State as it was defined before */
1182:Generated_Source\PSoC5/USBUART_std.c ****         USBUART_EP[ep].apiEpState &= (uint8) ~USBUART_NO_EVENT_ALLOWED;
 1091              		.loc 1 1182 0
 1092 0034 5178     		ldrb	r1, [r2, #1]	@ zero_extendqisi2
 1093 0036 01F0FD01 		and	r1, r1, #253
 1094 003a 5170     		strb	r1, [r2, #1]
1183:Generated_Source\PSoC5/USBUART_std.c **** 
1184:Generated_Source\PSoC5/USBUART_std.c ****         if ((USBUART_EP[ep].addr & USBUART_DIR_IN) != 0u)
 1095              		.loc 1 1184 0
 1096 003c 1279     		ldrb	r2, [r2, #4]	@ zero_extendqisi2
 1097 003e 12F0800F 		tst	r2, #128
 1098 0042 13D0     		beq	.L90
1185:Generated_Source\PSoC5/USBUART_std.c ****         {
1186:Generated_Source\PSoC5/USBUART_std.c ****             /* IN Endpoint */
1187:Generated_Source\PSoC5/USBUART_std.c ****             if(USBUART_EP[ep].apiEpState == USBUART_IN_BUFFER_EMPTY)
 1099              		.loc 1 1187 0
 1100 0044 03EB4301 		add	r1, r3, r3, lsl #1
 1101 0048 8A00     		lsls	r2, r1, #2
 1102 004a 1649     		ldr	r1, .L97+4
 1103 004c 0A44     		add	r2, r2, r1
 1104 004e 5278     		ldrb	r2, [r2, #1]	@ zero_extendqisi2
ARM GAS  C:\Users\MANSRO~1\AppData\Local\Temp\cc6Us192.s 			page 43


 1105 0050 D2B2     		uxtb	r2, r2
 1106 0052 012A     		cmp	r2, #1
 1107 0054 04D1     		bne	.L91
1188:Generated_Source\PSoC5/USBUART_std.c ****             {       
1189:Generated_Source\PSoC5/USBUART_std.c ****                 /* Wait for next packet from application */
1190:Generated_Source\PSoC5/USBUART_std.c ****                 USBUART_SIE_EP_BASE.sieEp[ep].epCr0 = USBUART_MODE_NAK_IN;
 1108              		.loc 1 1190 0
 1109 0056 2246     		mov	r2, r4
 1110 0058 0244     		add	r2, r2, r0
 1111 005a 0C23     		movs	r3, #12
 1112              	.LVL105:
 1113 005c 9370     		strb	r3, [r2, #2]
 1114 005e 19E0     		b	.L92
 1115              	.LVL106:
 1116              	.L91:
1191:Generated_Source\PSoC5/USBUART_std.c ****             }
1192:Generated_Source\PSoC5/USBUART_std.c ****             else    /* Continue armed transfer */
1193:Generated_Source\PSoC5/USBUART_std.c ****             {
1194:Generated_Source\PSoC5/USBUART_std.c ****                 USBUART_SIE_EP_BASE.sieEp[ep].epCr0 = USBUART_MODE_ACK_IN;
 1117              		.loc 1 1194 0
 1118 0060 1B01     		lsls	r3, r3, #4
 1119              	.LVL107:
 1120 0062 114A     		ldr	r2, .L97+8
 1121 0064 1A44     		add	r2, r2, r3
 1122 0066 0D23     		movs	r3, #13
 1123 0068 9370     		strb	r3, [r2, #2]
 1124 006a 13E0     		b	.L92
 1125              	.LVL108:
 1126              	.L90:
1195:Generated_Source\PSoC5/USBUART_std.c ****             }
1196:Generated_Source\PSoC5/USBUART_std.c ****         }
1197:Generated_Source\PSoC5/USBUART_std.c ****         else
1198:Generated_Source\PSoC5/USBUART_std.c ****         {
1199:Generated_Source\PSoC5/USBUART_std.c ****             /* OUT Endpoint */
1200:Generated_Source\PSoC5/USBUART_std.c ****             if (USBUART_EP[ep].apiEpState == USBUART_OUT_BUFFER_FULL)
 1127              		.loc 1 1200 0
 1128 006c 03EB4301 		add	r1, r3, r3, lsl #1
 1129 0070 8A00     		lsls	r2, r1, #2
 1130 0072 0C49     		ldr	r1, .L97+4
 1131 0074 0A44     		add	r2, r2, r1
 1132 0076 5278     		ldrb	r2, [r2, #1]	@ zero_extendqisi2
 1133 0078 D2B2     		uxtb	r2, r2
 1134 007a 012A     		cmp	r2, #1
 1135 007c 05D1     		bne	.L93
1201:Generated_Source\PSoC5/USBUART_std.c ****             {       
1202:Generated_Source\PSoC5/USBUART_std.c ****                 /* Allow application to read full buffer */
1203:Generated_Source\PSoC5/USBUART_std.c ****                 USBUART_SIE_EP_BASE.sieEp[ep].epCr0 = USBUART_MODE_NAK_OUT;
 1136              		.loc 1 1203 0
 1137 007e 1B01     		lsls	r3, r3, #4
 1138              	.LVL109:
 1139 0080 094A     		ldr	r2, .L97+8
 1140 0082 1A44     		add	r2, r2, r3
 1141 0084 0823     		movs	r3, #8
 1142 0086 9370     		strb	r3, [r2, #2]
 1143 0088 04E0     		b	.L92
 1144              	.LVL110:
 1145              	.L93:
ARM GAS  C:\Users\MANSRO~1\AppData\Local\Temp\cc6Us192.s 			page 44


1204:Generated_Source\PSoC5/USBUART_std.c ****             }
1205:Generated_Source\PSoC5/USBUART_std.c ****             else    /* Mark endpoint as empty, so it will be reloaded */
1206:Generated_Source\PSoC5/USBUART_std.c ****             {
1207:Generated_Source\PSoC5/USBUART_std.c ****                 USBUART_SIE_EP_BASE.sieEp[ep].epCr0 = USBUART_MODE_ACK_OUT;
 1146              		.loc 1 1207 0
 1147 008a 1B01     		lsls	r3, r3, #4
 1148              	.LVL111:
 1149 008c 064A     		ldr	r2, .L97+8
 1150 008e 1A44     		add	r2, r2, r3
 1151 0090 0923     		movs	r3, #9
 1152 0092 9370     		strb	r3, [r2, #2]
 1153              	.L92:
1208:Generated_Source\PSoC5/USBUART_std.c ****             }
1209:Generated_Source\PSoC5/USBUART_std.c ****         }
1210:Generated_Source\PSoC5/USBUART_std.c ****         
1211:Generated_Source\PSoC5/USBUART_std.c ****         requestHandled = USBUART_InitNoDataControlTransfer();
 1154              		.loc 1 1211 0
 1155 0094 FFF7FEFF 		bl	USBUART_InitNoDataControlTransfer
 1156              	.LVL112:
 1157 0098 10BD     		pop	{r4, pc}
 1158              	.LVL113:
 1159              	.L94:
 1160              		.cfi_def_cfa_offset 0
 1161              		.cfi_restore 4
 1162              		.cfi_restore 14
1164:Generated_Source\PSoC5/USBUART_std.c ****     uint8 ep;
 1163              		.loc 1 1164 0
 1164 009a 0020     		movs	r0, #0
 1165 009c 7047     		bx	lr
 1166              	.L98:
 1167 009e 00BF     		.align	2
 1168              	.L97:
 1169 00a0 00600040 		.word	1073766400
 1170 00a4 00000000 		.word	USBUART_EP
 1171 00a8 FC5F0040 		.word	1073766396
 1172              		.cfi_endproc
 1173              	.LFE10:
 1174              		.size	USBUART_ClearEndpointHalt, .-USBUART_ClearEndpointHalt
 1175              		.section	.text.USBUART_ValidateAlternateSetting,"ax",%progbits
 1176              		.align	2
 1177              		.global	USBUART_ValidateAlternateSetting
 1178              		.thumb
 1179              		.thumb_func
 1180              		.type	USBUART_ValidateAlternateSetting, %function
 1181              	USBUART_ValidateAlternateSetting:
 1182              	.LFB11:
1212:Generated_Source\PSoC5/USBUART_std.c ****     }
1213:Generated_Source\PSoC5/USBUART_std.c **** 
1214:Generated_Source\PSoC5/USBUART_std.c ****     return(requestHandled);
1215:Generated_Source\PSoC5/USBUART_std.c **** }
1216:Generated_Source\PSoC5/USBUART_std.c **** 
1217:Generated_Source\PSoC5/USBUART_std.c **** 
1218:Generated_Source\PSoC5/USBUART_std.c **** /*******************************************************************************
1219:Generated_Source\PSoC5/USBUART_std.c **** * Function Name: USBUART_ValidateAlternateSetting
1220:Generated_Source\PSoC5/USBUART_std.c **** ****************************************************************************//**
1221:Generated_Source\PSoC5/USBUART_std.c **** *
1222:Generated_Source\PSoC5/USBUART_std.c **** *  Validates (and records) a SET INTERFACE request.
ARM GAS  C:\Users\MANSRO~1\AppData\Local\Temp\cc6Us192.s 			page 45


1223:Generated_Source\PSoC5/USBUART_std.c **** *
1224:Generated_Source\PSoC5/USBUART_std.c **** * \return
1225:Generated_Source\PSoC5/USBUART_std.c **** *  requestHandled.
1226:Generated_Source\PSoC5/USBUART_std.c **** *
1227:Generated_Source\PSoC5/USBUART_std.c **** * \reentrant
1228:Generated_Source\PSoC5/USBUART_std.c **** *  No.
1229:Generated_Source\PSoC5/USBUART_std.c **** *
1230:Generated_Source\PSoC5/USBUART_std.c **** *******************************************************************************/
1231:Generated_Source\PSoC5/USBUART_std.c **** uint8 USBUART_ValidateAlternateSetting(void) 
1232:Generated_Source\PSoC5/USBUART_std.c **** {
 1183              		.loc 1 1232 0
 1184              		.cfi_startproc
 1185              		@ args = 0, pretend = 0, frame = 0
 1186              		@ frame_needed = 0, uses_anonymous_args = 0
 1187 0000 10B5     		push	{r4, lr}
 1188              		.cfi_def_cfa_offset 8
 1189              		.cfi_offset 4, -8
 1190              		.cfi_offset 14, -4
 1191              	.LVL114:
1233:Generated_Source\PSoC5/USBUART_std.c ****     uint8 requestHandled = USBUART_FALSE;
1234:Generated_Source\PSoC5/USBUART_std.c ****     
1235:Generated_Source\PSoC5/USBUART_std.c ****     uint8 interfaceNum;
1236:Generated_Source\PSoC5/USBUART_std.c ****     uint8 curInterfacesNum;
1237:Generated_Source\PSoC5/USBUART_std.c ****     const T_USBUART_LUT CYCODE *pTmp;
1238:Generated_Source\PSoC5/USBUART_std.c ****     
1239:Generated_Source\PSoC5/USBUART_std.c ****     /* Get interface number from the request. */
1240:Generated_Source\PSoC5/USBUART_std.c ****     interfaceNum = (uint8) USBUART_wIndexLoReg;
 1192              		.loc 1 1240 0
 1193 0002 0E4B     		ldr	r3, .L104
 1194 0004 1C79     		ldrb	r4, [r3, #4]	@ zero_extendqisi2
 1195 0006 E4B2     		uxtb	r4, r4
 1196              	.LVL115:
1241:Generated_Source\PSoC5/USBUART_std.c ****     
1242:Generated_Source\PSoC5/USBUART_std.c ****     /* Get number of interfaces for current configuration. */
1243:Generated_Source\PSoC5/USBUART_std.c ****     pTmp = USBUART_GetConfigTablePtr(USBUART_configuration - 1u);
 1197              		.loc 1 1243 0
 1198 0008 0D4B     		ldr	r3, .L104+4
 1199 000a 1878     		ldrb	r0, [r3]	@ zero_extendqisi2
 1200 000c 0138     		subs	r0, r0, #1
 1201 000e C0B2     		uxtb	r0, r0
 1202 0010 FFF7FEFF 		bl	USBUART_GetConfigTablePtr
 1203              	.LVL116:
1244:Generated_Source\PSoC5/USBUART_std.c ****     curInterfacesNum  = ((const uint8 *) pTmp->p_list)[USBUART_CONFIG_DESCR_NUM_INTERFACES];
 1204              		.loc 1 1244 0
 1205 0014 4368     		ldr	r3, [r0, #4]
 1206 0016 1B79     		ldrb	r3, [r3, #4]	@ zero_extendqisi2
 1207              	.LVL117:
1245:Generated_Source\PSoC5/USBUART_std.c **** 
1246:Generated_Source\PSoC5/USBUART_std.c ****     /* Validate that interface number is within range. */
1247:Generated_Source\PSoC5/USBUART_std.c ****     if ((interfaceNum <= curInterfacesNum) || (interfaceNum <= USBUART_MAX_INTERFACES_NUMBER))
 1208              		.loc 1 1247 0
 1209 0018 9C42     		cmp	r4, r3
 1210 001a 01D9     		bls	.L100
 1211              		.loc 1 1247 0 is_stmt 0 discriminator 1
 1212 001c 022C     		cmp	r4, #2
 1213 001e 0AD8     		bhi	.L102
 1214              	.L100:
ARM GAS  C:\Users\MANSRO~1\AppData\Local\Temp\cc6Us192.s 			page 46


1248:Generated_Source\PSoC5/USBUART_std.c ****     {
1249:Generated_Source\PSoC5/USBUART_std.c ****         /* Save current and new alternate settings (come with request) to make 
1250:Generated_Source\PSoC5/USBUART_std.c ****         * desicion about following endpoint re-configuration.
1251:Generated_Source\PSoC5/USBUART_std.c ****         */
1252:Generated_Source\PSoC5/USBUART_std.c ****         USBUART_interfaceSettingLast[interfaceNum] = USBUART_interfaceSetting[interfaceNum];
 1215              		.loc 1 1252 0 is_stmt 1
 1216 0020 084A     		ldr	r2, .L104+8
 1217 0022 135D     		ldrb	r3, [r2, r4]	@ zero_extendqisi2
 1218              	.LVL118:
 1219 0024 DBB2     		uxtb	r3, r3
 1220 0026 0849     		ldr	r1, .L104+12
 1221 0028 0B55     		strb	r3, [r1, r4]
1253:Generated_Source\PSoC5/USBUART_std.c ****         USBUART_interfaceSetting[interfaceNum]     = (uint8) USBUART_wValueLoReg;
 1222              		.loc 1 1253 0
 1223 002a 044B     		ldr	r3, .L104
 1224 002c 9B78     		ldrb	r3, [r3, #2]	@ zero_extendqisi2
 1225 002e DBB2     		uxtb	r3, r3
 1226 0030 1355     		strb	r3, [r2, r4]
 1227              	.LVL119:
1254:Generated_Source\PSoC5/USBUART_std.c ****         
1255:Generated_Source\PSoC5/USBUART_std.c ****         requestHandled = USBUART_TRUE;
 1228              		.loc 1 1255 0
 1229 0032 0120     		movs	r0, #1
 1230              	.LVL120:
 1231 0034 10BD     		pop	{r4, pc}
 1232              	.LVL121:
 1233              	.L102:
1233:Generated_Source\PSoC5/USBUART_std.c ****     
 1234              		.loc 1 1233 0
 1235 0036 0020     		movs	r0, #0
 1236              	.LVL122:
1256:Generated_Source\PSoC5/USBUART_std.c ****     }
1257:Generated_Source\PSoC5/USBUART_std.c **** 
1258:Generated_Source\PSoC5/USBUART_std.c ****     return (requestHandled);
1259:Generated_Source\PSoC5/USBUART_std.c **** }
 1237              		.loc 1 1259 0
 1238 0038 10BD     		pop	{r4, pc}
 1239              	.LVL123:
 1240              	.L105:
 1241 003a 00BF     		.align	2
 1242              	.L104:
 1243 003c 00600040 		.word	1073766400
 1244 0040 00000000 		.word	USBUART_configuration
 1245 0044 00000000 		.word	USBUART_interfaceSetting
 1246 0048 00000000 		.word	USBUART_interfaceSettingLast
 1247              		.cfi_endproc
 1248              	.LFE11:
 1249              		.size	USBUART_ValidateAlternateSetting, .-USBUART_ValidateAlternateSetting
 1250              		.section	.text.USBUART_HandleStandardRqst,"ax",%progbits
 1251              		.align	2
 1252              		.global	USBUART_HandleStandardRqst
 1253              		.thumb
 1254              		.thumb_func
 1255              		.type	USBUART_HandleStandardRqst, %function
 1256              	USBUART_HandleStandardRqst:
 1257              	.LFB0:
  85:Generated_Source\PSoC5/USBUART_std.c ****     uint8 requestHandled = USBUART_FALSE;
ARM GAS  C:\Users\MANSRO~1\AppData\Local\Temp\cc6Us192.s 			page 47


 1258              		.loc 1 85 0
 1259              		.cfi_startproc
 1260              		@ args = 0, pretend = 0, frame = 0
 1261              		@ frame_needed = 0, uses_anonymous_args = 0
 1262 0000 10B5     		push	{r4, lr}
 1263              		.cfi_def_cfa_offset 8
 1264              		.cfi_offset 4, -8
 1265              		.cfi_offset 14, -4
 1266              	.LVL124:
  89:Generated_Source\PSoC5/USBUART_std.c **** 
 1267              		.loc 1 89 0
 1268 0002 9B4B     		ldr	r3, .L160
 1269 0004 1B78     		ldrb	r3, [r3]	@ zero_extendqisi2
 1270 0006 DBB2     		uxtb	r3, r3
 1271              	.LVL125:
 102:Generated_Source\PSoC5/USBUART_std.c **** 
 1272              		.loc 1 102 0
 1273 0008 0021     		movs	r1, #0
 1274 000a 9A4A     		ldr	r2, .L160+4
 1275 000c 1180     		strh	r1, [r2]	@ movhi
 104:Generated_Source\PSoC5/USBUART_std.c ****     {
 1276              		.loc 1 104 0
 1277 000e 13F0800F 		tst	r3, #128
 1278 0012 00F09C80 		beq	.L107
 107:Generated_Source\PSoC5/USBUART_std.c ****         {
 1279              		.loc 1 107 0
 1280 0016 964A     		ldr	r2, .L160
 1281 0018 5278     		ldrb	r2, [r2, #1]	@ zero_extendqisi2
 1282 001a D2B2     		uxtb	r2, r2
 1283 001c 0A2A     		cmp	r2, #10
 1284 001e 00F25F81 		bhi	.L139
 1285 0022 DFE812F0 		tbh	[pc, r2, lsl #1]
 1286              	.L110:
 1287 0026 5800     		.2byte	(.L109-.L110)/2
 1288 0028 5D01     		.2byte	(.L139-.L110)/2
 1289 002a 5D01     		.2byte	(.L139-.L110)/2
 1290 002c 5D01     		.2byte	(.L139-.L110)/2
 1291 002e 5D01     		.2byte	(.L139-.L110)/2
 1292 0030 5D01     		.2byte	(.L139-.L110)/2
 1293 0032 0B00     		.2byte	(.L111-.L110)/2
 1294 0034 5D01     		.2byte	(.L139-.L110)/2
 1295 0036 8100     		.2byte	(.L112-.L110)/2
 1296 0038 5D01     		.2byte	(.L139-.L110)/2
 1297 003a 8900     		.2byte	(.L113-.L110)/2
 1298              		.p2align 1
 1299              	.L111:
 110:Generated_Source\PSoC5/USBUART_std.c ****                 {
 1300              		.loc 1 110 0
 1301 003c 8C4B     		ldr	r3, .L160
 1302              	.LVL126:
 1303 003e DB78     		ldrb	r3, [r3, #3]	@ zero_extendqisi2
 1304 0040 DBB2     		uxtb	r3, r3
 1305 0042 012B     		cmp	r3, #1
 1306 0044 09D1     		bne	.L114
 112:Generated_Source\PSoC5/USBUART_std.c ****                     USBUART_currentTD.pData = (volatile uint8 *)pTmp->p_list;
 1307              		.loc 1 112 0
 1308 0046 FFF7FEFF 		bl	USBUART_GetDeviceTablePtr
ARM GAS  C:\Users\MANSRO~1\AppData\Local\Temp\cc6Us192.s 			page 48


 1309              	.LVL127:
 113:Generated_Source\PSoC5/USBUART_std.c ****                     USBUART_currentTD.count = USBUART_DEVICE_DESCR_LENGTH;
 1310              		.loc 1 113 0
 1311 004a 4268     		ldr	r2, [r0, #4]
 1312 004c 894B     		ldr	r3, .L160+4
 1313 004e 5A60     		str	r2, [r3, #4]
 114:Generated_Source\PSoC5/USBUART_std.c ****                     
 1314              		.loc 1 114 0
 1315 0050 1222     		movs	r2, #18
 1316 0052 1A80     		strh	r2, [r3]	@ movhi
 116:Generated_Source\PSoC5/USBUART_std.c ****                 }
 1317              		.loc 1 116 0
 1318 0054 FFF7FEFF 		bl	USBUART_InitControlRead
 1319              	.LVL128:
 1320 0058 10BD     		pop	{r4, pc}
 1321              	.LVL129:
 1322              	.L114:
 118:Generated_Source\PSoC5/USBUART_std.c ****                 {
 1323              		.loc 1 118 0
 1324 005a 854B     		ldr	r3, .L160
 1325 005c DB78     		ldrb	r3, [r3, #3]	@ zero_extendqisi2
 1326 005e DBB2     		uxtb	r3, r3
 1327 0060 022B     		cmp	r3, #2
 1328 0062 13D1     		bne	.L115
 120:Generated_Source\PSoC5/USBUART_std.c ****                     
 1329              		.loc 1 120 0
 1330 0064 824B     		ldr	r3, .L160
 1331 0066 9878     		ldrb	r0, [r3, #2]	@ zero_extendqisi2
 1332 0068 FFF7FEFF 		bl	USBUART_GetConfigTablePtr
 1333              	.LVL130:
 123:Generated_Source\PSoC5/USBUART_std.c ****                     {
 1334              		.loc 1 123 0
 1335 006c 0028     		cmp	r0, #0
 1336 006e 00F03981 		beq	.L140
 125:Generated_Source\PSoC5/USBUART_std.c ****                         USBUART_currentTD.count = (uint16)((uint16)(USBUART_currentTD.pData)[USBUAR
 1337              		.loc 1 125 0
 1338 0072 4268     		ldr	r2, [r0, #4]
 1339 0074 7F4B     		ldr	r3, .L160+4
 1340 0076 5A60     		str	r2, [r3, #4]
 126:Generated_Source\PSoC5/USBUART_std.c ****                                                                             (USBUART_currentTD.pDat
 1341              		.loc 1 126 0
 1342 0078 5A68     		ldr	r2, [r3, #4]
 1343 007a D178     		ldrb	r1, [r2, #3]	@ zero_extendqisi2
 127:Generated_Source\PSoC5/USBUART_std.c ****                         requestHandled  = USBUART_InitControlRead();
 1344              		.loc 1 127 0
 1345 007c 5A68     		ldr	r2, [r3, #4]
 1346 007e 9278     		ldrb	r2, [r2, #2]	@ zero_extendqisi2
 126:Generated_Source\PSoC5/USBUART_std.c ****                                                                             (USBUART_currentTD.pDat
 1347              		.loc 1 126 0
 1348 0080 42EA0122 		orr	r2, r2, r1, lsl #8
 1349 0084 1A80     		strh	r2, [r3]	@ movhi
 128:Generated_Source\PSoC5/USBUART_std.c ****                     }
 1350              		.loc 1 128 0
 1351 0086 FFF7FEFF 		bl	USBUART_InitControlRead
 1352              	.LVL131:
 1353 008a 10BD     		pop	{r4, pc}
 1354              	.LVL132:
ARM GAS  C:\Users\MANSRO~1\AppData\Local\Temp\cc6Us192.s 			page 49


 1355              	.L115:
 149:Generated_Source\PSoC5/USBUART_std.c ****                 {
 1356              		.loc 1 149 0
 1357 008c 784B     		ldr	r3, .L160
 1358 008e DB78     		ldrb	r3, [r3, #3]	@ zero_extendqisi2
 1359 0090 DBB2     		uxtb	r3, r3
 1360 0092 032B     		cmp	r3, #3
 1361 0094 05D0     		beq	.L141
 1362 0096 1BE0     		b	.L155
 1363              	.LVL133:
 1364              	.L119:
 159:Generated_Source\PSoC5/USBUART_std.c ****                         /* Move to next string descriptor */
 1365              		.loc 1 159 0
 1366 0098 0A78     		ldrb	r2, [r1]	@ zero_extendqisi2
 1367              	.LVL134:
 161:Generated_Source\PSoC5/USBUART_std.c ****                         nStr++;
 1368              		.loc 1 161 0
 1369 009a 1144     		add	r1, r1, r2
 1370              	.LVL135:
 162:Generated_Source\PSoC5/USBUART_std.c ****                     }
 1371              		.loc 1 162 0
 1372 009c 0133     		adds	r3, r3, #1
 1373              	.LVL136:
 1374 009e DBB2     		uxtb	r3, r3
 1375              	.LVL137:
 1376 00a0 01E0     		b	.L116
 1377              	.LVL138:
 1378              	.L141:
 1379 00a2 0023     		movs	r3, #0
 1380 00a4 7449     		ldr	r1, .L160+8
 1381              	.LVL139:
 1382              	.L116:
 156:Generated_Source\PSoC5/USBUART_std.c ****                     {
 1383              		.loc 1 156 0
 1384 00a6 724A     		ldr	r2, .L160
 1385 00a8 9278     		ldrb	r2, [r2, #2]	@ zero_extendqisi2
 1386 00aa D2B2     		uxtb	r2, r2
 1387 00ac 9342     		cmp	r3, r2
 1388 00ae 03D2     		bcs	.L118
 156:Generated_Source\PSoC5/USBUART_std.c ****                     {
 1389              		.loc 1 156 0 is_stmt 0 discriminator 1
 1390 00b0 0A78     		ldrb	r2, [r1]	@ zero_extendqisi2
 1391 00b2 12F0FF0F 		tst	r2, #255
 1392 00b6 EFD1     		bne	.L119
 1393              	.L118:
 199:Generated_Source\PSoC5/USBUART_std.c ****                     {
 1394              		.loc 1 199 0 is_stmt 1
 1395 00b8 0B78     		ldrb	r3, [r1]	@ zero_extendqisi2
 1396              	.LVL140:
 1397 00ba 13F0FF0F 		tst	r3, #255
 1398 00be 00F01381 		beq	.L142
 201:Generated_Source\PSoC5/USBUART_std.c ****                         USBUART_currentTD.pData = pStr;
 1399              		.loc 1 201 0
 1400 00c2 0B78     		ldrb	r3, [r1]	@ zero_extendqisi2
 1401 00c4 6B4A     		ldr	r2, .L160+4
 1402 00c6 1380     		strh	r3, [r2]	@ movhi
 202:Generated_Source\PSoC5/USBUART_std.c ****                         requestHandled  = USBUART_InitControlRead();
ARM GAS  C:\Users\MANSRO~1\AppData\Local\Temp\cc6Us192.s 			page 50


 1403              		.loc 1 202 0
 1404 00c8 5160     		str	r1, [r2, #4]
 203:Generated_Source\PSoC5/USBUART_std.c ****                     }
 1405              		.loc 1 203 0
 1406 00ca FFF7FEFF 		bl	USBUART_InitControlRead
 1407              	.LVL141:
 1408 00ce 10BD     		pop	{r4, pc}
 1409              	.LVL142:
 1410              	.L155:
 209:Generated_Source\PSoC5/USBUART_std.c ****                 }
 1411              		.loc 1 209 0
 1412 00d0 FFF7FEFF 		bl	USBUART_DispatchClassRqst
 1413              	.LVL143:
 1414 00d4 10BD     		pop	{r4, pc}
 1415              	.LVL144:
 1416              	.L109:
 214:Generated_Source\PSoC5/USBUART_std.c ****                 {
 1417              		.loc 1 214 0
 1418 00d6 13F00303 		ands	r3, r3, #3
 1419              	.LVL145:
 1420 00da 17D0     		beq	.L120
 1421 00dc 022B     		cmp	r3, #2
 1422 00de 40F00581 		bne	.L156
 217:Generated_Source\PSoC5/USBUART_std.c ****                         USBUART_tBuffer[0u]     = USBUART_EP[USBUART_wIndexLoReg & USBUART_DIR_UNUS
 1423              		.loc 1 217 0
 1424 00e2 6449     		ldr	r1, .L160+4
 1425 00e4 0B80     		strh	r3, [r1]	@ movhi
 218:Generated_Source\PSoC5/USBUART_std.c ****                         USBUART_tBuffer[1u]     = 0u;
 1426              		.loc 1 218 0
 1427 00e6 624B     		ldr	r3, .L160
 1428 00e8 1B79     		ldrb	r3, [r3, #4]	@ zero_extendqisi2
 1429 00ea 03F07F03 		and	r3, r3, #127
 1430 00ee 03EB4303 		add	r3, r3, r3, lsl #1
 1431 00f2 9A00     		lsls	r2, r3, #2
 1432 00f4 614B     		ldr	r3, .L160+12
 1433 00f6 1A44     		add	r2, r2, r3
 1434 00f8 9278     		ldrb	r2, [r2, #2]	@ zero_extendqisi2
 1435 00fa D2B2     		uxtb	r2, r2
 1436 00fc 604B     		ldr	r3, .L160+16
 1437 00fe 1A70     		strb	r2, [r3]
 219:Generated_Source\PSoC5/USBUART_std.c ****                         USBUART_currentTD.pData = &USBUART_tBuffer[0u];
 1438              		.loc 1 219 0
 1439 0100 0022     		movs	r2, #0
 1440 0102 5A70     		strb	r2, [r3, #1]
 220:Generated_Source\PSoC5/USBUART_std.c ****                         
 1441              		.loc 1 220 0
 1442 0104 4B60     		str	r3, [r1, #4]
 222:Generated_Source\PSoC5/USBUART_std.c ****                         break;
 1443              		.loc 1 222 0
 1444 0106 FFF7FEFF 		bl	USBUART_InitControlRead
 1445              	.LVL146:
 223:Generated_Source\PSoC5/USBUART_std.c ****                     case USBUART_RQST_RCPT_DEV:
 1446              		.loc 1 223 0
 1447 010a 10BD     		pop	{r4, pc}
 1448              	.LVL147:
 1449              	.L120:
 225:Generated_Source\PSoC5/USBUART_std.c ****                         USBUART_tBuffer[0u]     = USBUART_deviceStatus;
ARM GAS  C:\Users\MANSRO~1\AppData\Local\Temp\cc6Us192.s 			page 51


 1450              		.loc 1 225 0
 1451 010c 5949     		ldr	r1, .L160+4
 1452 010e 0223     		movs	r3, #2
 1453 0110 0B80     		strh	r3, [r1]	@ movhi
 226:Generated_Source\PSoC5/USBUART_std.c ****                         USBUART_tBuffer[1u]     = 0u;
 1454              		.loc 1 226 0
 1455 0112 5C4B     		ldr	r3, .L160+20
 1456 0114 1A78     		ldrb	r2, [r3]	@ zero_extendqisi2
 1457 0116 D2B2     		uxtb	r2, r2
 1458 0118 594B     		ldr	r3, .L160+16
 1459 011a 1A70     		strb	r2, [r3]
 227:Generated_Source\PSoC5/USBUART_std.c ****                         USBUART_currentTD.pData = &USBUART_tBuffer[0u];
 1460              		.loc 1 227 0
 1461 011c 0022     		movs	r2, #0
 1462 011e 5A70     		strb	r2, [r3, #1]
 228:Generated_Source\PSoC5/USBUART_std.c ****                         
 1463              		.loc 1 228 0
 1464 0120 4B60     		str	r3, [r1, #4]
 230:Generated_Source\PSoC5/USBUART_std.c ****                         break;
 1465              		.loc 1 230 0
 1466 0122 FFF7FEFF 		bl	USBUART_InitControlRead
 1467              	.LVL148:
 231:Generated_Source\PSoC5/USBUART_std.c ****                     default:    /* requestHandled is initialized as FALSE by default */
 1468              		.loc 1 231 0
 1469 0126 10BD     		pop	{r4, pc}
 1470              	.LVL149:
 1471              	.L112:
 238:Generated_Source\PSoC5/USBUART_std.c ****                 USBUART_currentTD.pData = (volatile uint8 *) &USBUART_configuration;
 1472              		.loc 1 238 0
 1473 0128 524B     		ldr	r3, .L160+4
 1474              	.LVL150:
 1475 012a 0122     		movs	r2, #1
 1476 012c 1A80     		strh	r2, [r3]	@ movhi
 239:Generated_Source\PSoC5/USBUART_std.c ****                 requestHandled  = USBUART_InitControlRead();
 1477              		.loc 1 239 0
 1478 012e 564A     		ldr	r2, .L160+24
 1479 0130 5A60     		str	r2, [r3, #4]
 240:Generated_Source\PSoC5/USBUART_std.c ****                 break;
 1480              		.loc 1 240 0
 1481 0132 FFF7FEFF 		bl	USBUART_InitControlRead
 1482              	.LVL151:
 241:Generated_Source\PSoC5/USBUART_std.c ****                 
 1483              		.loc 1 241 0
 1484 0136 10BD     		pop	{r4, pc}
 1485              	.LVL152:
 1486              	.L113:
 244:Generated_Source\PSoC5/USBUART_std.c ****                 USBUART_currentTD.pData = (volatile uint8 *) &USBUART_interfaceSetting[USBUART_wInd
 1487              		.loc 1 244 0
 1488 0138 4E4A     		ldr	r2, .L160+4
 1489 013a 0123     		movs	r3, #1
 1490              	.LVL153:
 1491 013c 1380     		strh	r3, [r2]	@ movhi
 245:Generated_Source\PSoC5/USBUART_std.c ****                 requestHandled  = USBUART_InitControlRead();
 1492              		.loc 1 245 0
 1493 013e 4C4B     		ldr	r3, .L160
 1494 0140 1B79     		ldrb	r3, [r3, #4]	@ zero_extendqisi2
 1495 0142 5249     		ldr	r1, .L160+28
ARM GAS  C:\Users\MANSRO~1\AppData\Local\Temp\cc6Us192.s 			page 52


 1496 0144 0B44     		add	r3, r3, r1
 1497 0146 5360     		str	r3, [r2, #4]
 246:Generated_Source\PSoC5/USBUART_std.c ****                 break;
 1498              		.loc 1 246 0
 1499 0148 FFF7FEFF 		bl	USBUART_InitControlRead
 1500              	.LVL154:
 247:Generated_Source\PSoC5/USBUART_std.c ****                 
 1501              		.loc 1 247 0
 1502 014c 10BD     		pop	{r4, pc}
 1503              	.LVL155:
 1504              	.L107:
 256:Generated_Source\PSoC5/USBUART_std.c ****         {
 1505              		.loc 1 256 0
 1506 014e 484A     		ldr	r2, .L160
 1507 0150 5278     		ldrb	r2, [r2, #1]	@ zero_extendqisi2
 1508 0152 013A     		subs	r2, r2, #1
 1509 0154 0A2A     		cmp	r2, #10
 1510 0156 00F2CB80 		bhi	.L144
 1511 015a DFE812F0 		tbh	[pc, r2, lsl #1]
 1512              	.L123:
 1513 015e 4C00     		.2byte	(.L122-.L123)/2
 1514 0160 C900     		.2byte	(.L144-.L123)/2
 1515 0162 7900     		.2byte	(.L124-.L123)/2
 1516 0164 C900     		.2byte	(.L144-.L123)/2
 1517 0166 0B00     		.2byte	(.L125-.L123)/2
 1518 0168 C900     		.2byte	(.L144-.L123)/2
 1519 016a C900     		.2byte	(.L144-.L123)/2
 1520 016c C900     		.2byte	(.L144-.L123)/2
 1521 016e 1300     		.2byte	(.L126-.L123)/2
 1522 0170 C900     		.2byte	(.L144-.L123)/2
 1523 0172 3000     		.2byte	(.L127-.L123)/2
 1524              		.p2align 1
 1525              	.L125:
 260:Generated_Source\PSoC5/USBUART_std.c ****                 requestHandled = USBUART_InitNoDataControlTransfer();
 1526              		.loc 1 260 0
 1527 0174 3E4B     		ldr	r3, .L160
 1528              	.LVL156:
 1529 0176 9B78     		ldrb	r3, [r3, #2]	@ zero_extendqisi2
 1530 0178 DBB2     		uxtb	r3, r3
 1531 017a 454A     		ldr	r2, .L160+32
 1532 017c 1370     		strb	r3, [r2]
 261:Generated_Source\PSoC5/USBUART_std.c ****                 break;
 1533              		.loc 1 261 0
 1534 017e FFF7FEFF 		bl	USBUART_InitNoDataControlTransfer
 1535              	.LVL157:
 262:Generated_Source\PSoC5/USBUART_std.c ****                 
 1536              		.loc 1 262 0
 1537 0182 10BD     		pop	{r4, pc}
 1538              	.LVL158:
 1539              	.L126:
 265:Generated_Source\PSoC5/USBUART_std.c ****                 
 1540              		.loc 1 265 0
 1541 0184 3A4B     		ldr	r3, .L160
 1542              	.LVL159:
 1543 0186 9B78     		ldrb	r3, [r3, #2]	@ zero_extendqisi2
 1544              	.LVL160:
 268:Generated_Source\PSoC5/USBUART_std.c ****                 {
ARM GAS  C:\Users\MANSRO~1\AppData\Local\Temp\cc6Us192.s 			page 53


 1545              		.loc 1 268 0
 1546 0188 03F0FF04 		and	r4, r3, #255
 1547 018c 1BB1     		cbz	r3, .L128
 270:Generated_Source\PSoC5/USBUART_std.c ****                 }
 1548              		.loc 1 270 0
 1549 018e 601E     		subs	r0, r4, #1
 1550 0190 C0B2     		uxtb	r0, r0
 1551 0192 FFF7FEFF 		bl	USBUART_GetConfigTablePtr
 1552              	.LVL161:
 1553              	.L128:
 274:Generated_Source\PSoC5/USBUART_std.c ****                 {
 1554              		.loc 1 274 0
 1555 0196 04B1     		cbz	r4, .L129
 274:Generated_Source\PSoC5/USBUART_std.c ****                 {
 1556              		.loc 1 274 0 is_stmt 0 discriminator 1
 1557 0198 10B9     		cbnz	r0, .L130
 1558              	.L129:
 274:Generated_Source\PSoC5/USBUART_std.c ****                 {
 1559              		.loc 1 274 0 discriminator 3
 1560 019a 002C     		cmp	r4, #0
 1561 019c 40F0AA80 		bne	.L145
 1562              	.L130:
 277:Generated_Source\PSoC5/USBUART_std.c ****                     {
 1563              		.loc 1 277 0 is_stmt 1
 1564 01a0 394B     		ldr	r3, .L160+24
 1565 01a2 1B78     		ldrb	r3, [r3]	@ zero_extendqisi2
 1566 01a4 DBB2     		uxtb	r3, r3
 1567 01a6 9C42     		cmp	r4, r3
 1568 01a8 06D0     		beq	.L131
 279:Generated_Source\PSoC5/USBUART_std.c ****                         USBUART_configurationChanged = USBUART_TRUE;
 1569              		.loc 1 279 0
 1570 01aa 374B     		ldr	r3, .L160+24
 1571 01ac 1C70     		strb	r4, [r3]
 280:Generated_Source\PSoC5/USBUART_std.c ****                         USBUART_Config(USBUART_TRUE);
 1572              		.loc 1 280 0
 1573 01ae 0120     		movs	r0, #1
 1574              	.LVL162:
 1575 01b0 384B     		ldr	r3, .L160+36
 1576 01b2 1870     		strb	r0, [r3]
 281:Generated_Source\PSoC5/USBUART_std.c ****                     }
 1577              		.loc 1 281 0
 1578 01b4 FFF7FEFF 		bl	USBUART_Config
 1579              	.LVL163:
 1580              	.L131:
 283:Generated_Source\PSoC5/USBUART_std.c ****                 }
 1581              		.loc 1 283 0
 1582 01b8 FFF7FEFF 		bl	USBUART_InitNoDataControlTransfer
 1583              	.LVL164:
 1584 01bc 10BD     		pop	{r4, pc}
 1585              	.LVL165:
 1586              	.L127:
 288:Generated_Source\PSoC5/USBUART_std.c ****                 {
 1587              		.loc 1 288 0
 1588 01be FFF7FEFF 		bl	USBUART_ValidateAlternateSetting
 1589              	.LVL166:
 1590 01c2 0028     		cmp	r0, #0
 1591 01c4 00F09880 		beq	.L146
ARM GAS  C:\Users\MANSRO~1\AppData\Local\Temp\cc6Us192.s 			page 54


 291:Generated_Source\PSoC5/USBUART_std.c ****                     USBUART_interfaceNumber = (uint8) USBUART_wIndexLoReg;
 1592              		.loc 1 291 0
 1593 01c8 294A     		ldr	r2, .L160
 1594 01ca 1379     		ldrb	r3, [r2, #4]	@ zero_extendqisi2
 1595 01cc DBB2     		uxtb	r3, r3
 1596              	.LVL167:
 292:Generated_Source\PSoC5/USBUART_std.c ****                      
 1597              		.loc 1 292 0
 1598 01ce 1279     		ldrb	r2, [r2, #4]	@ zero_extendqisi2
 1599 01d0 D2B2     		uxtb	r2, r2
 1600 01d2 3149     		ldr	r1, .L160+40
 1601 01d4 0A70     		strb	r2, [r1]
 295:Generated_Source\PSoC5/USBUART_std.c ****                     {
 1602              		.loc 1 295 0
 1603 01d6 314A     		ldr	r2, .L160+44
 1604 01d8 D25C     		ldrb	r2, [r2, r3]	@ zero_extendqisi2
 1605 01da D2B2     		uxtb	r2, r2
 1606 01dc 2B49     		ldr	r1, .L160+28
 1607 01de CB5C     		ldrb	r3, [r1, r3]	@ zero_extendqisi2
 1608              	.LVL168:
 1609 01e0 DBB2     		uxtb	r3, r3
 1610 01e2 9A42     		cmp	r2, r3
 1611 01e4 04D0     		beq	.L132
 297:Generated_Source\PSoC5/USBUART_std.c ****                     
 1612              		.loc 1 297 0
 1613 01e6 0122     		movs	r2, #1
 1614 01e8 2A4B     		ldr	r3, .L160+36
 1615 01ea 1A70     		strb	r2, [r3]
 303:Generated_Source\PSoC5/USBUART_std.c ****                     #endif /* (USBUART_EP_MANAGEMENT_MANUAL && USBUART_EP_ALLOC_DYNAMIC) */
 1616              		.loc 1 303 0
 1617 01ec FFF7FEFF 		bl	USBUART_ConfigAltChanged
 1618              	.LVL169:
 1619              	.L132:
 307:Generated_Source\PSoC5/USBUART_std.c ****                 }
 1620              		.loc 1 307 0
 1621 01f0 FFF7FEFF 		bl	USBUART_InitNoDataControlTransfer
 1622              	.LVL170:
 1623 01f4 10BD     		pop	{r4, pc}
 1624              	.LVL171:
 1625              	.L122:
 312:Generated_Source\PSoC5/USBUART_std.c ****                 {
 1626              		.loc 1 312 0
 1627 01f6 03F00303 		and	r3, r3, #3
 1628              	.LVL172:
 1629 01fa 012B     		cmp	r3, #1
 1630 01fc 17D0     		beq	.L133
 1631 01fe 4BB1     		cbz	r3, .L134
 1632 0200 022B     		cmp	r3, #2
 1633 0202 7BD1     		bne	.L157
 315:Generated_Source\PSoC5/USBUART_std.c ****                         {
 1634              		.loc 1 315 0
 1635 0204 1A4B     		ldr	r3, .L160
 1636 0206 9B78     		ldrb	r3, [r3, #2]	@ zero_extendqisi2
 1637 0208 13F0FF0F 		tst	r3, #255
 1638 020c 78D1     		bne	.L148
 317:Generated_Source\PSoC5/USBUART_std.c ****                         }
 1639              		.loc 1 317 0
ARM GAS  C:\Users\MANSRO~1\AppData\Local\Temp\cc6Us192.s 			page 55


 1640 020e FFF7FEFF 		bl	USBUART_ClearEndpointHalt
 1641              	.LVL173:
 1642 0212 10BD     		pop	{r4, pc}
 1643              	.LVL174:
 1644              	.L134:
 322:Generated_Source\PSoC5/USBUART_std.c ****                         {
 1645              		.loc 1 322 0
 1646 0214 164B     		ldr	r3, .L160
 1647 0216 9B78     		ldrb	r3, [r3, #2]	@ zero_extendqisi2
 1648 0218 DBB2     		uxtb	r3, r3
 1649 021a 012B     		cmp	r3, #1
 1650 021c 72D1     		bne	.L149
 324:Generated_Source\PSoC5/USBUART_std.c ****                             requestHandled = USBUART_InitNoDataControlTransfer();
 1651              		.loc 1 324 0
 1652 021e 194A     		ldr	r2, .L160+20
 1653 0220 1378     		ldrb	r3, [r2]	@ zero_extendqisi2
 1654 0222 03F0FD03 		and	r3, r3, #253
 1655 0226 1370     		strb	r3, [r2]
 325:Generated_Source\PSoC5/USBUART_std.c ****                         }
 1656              		.loc 1 325 0
 1657 0228 FFF7FEFF 		bl	USBUART_InitNoDataControlTransfer
 1658              	.LVL175:
 1659 022c 10BD     		pop	{r4, pc}
 1660              	.LVL176:
 1661              	.L133:
 330:Generated_Source\PSoC5/USBUART_std.c ****                         {
 1662              		.loc 1 330 0
 1663 022e 104B     		ldr	r3, .L160
 1664 0230 1B79     		ldrb	r3, [r3, #4]	@ zero_extendqisi2
 1665 0232 DBB2     		uxtb	r3, r3
 1666 0234 012B     		cmp	r3, #1
 1667 0236 67D8     		bhi	.L150
 332:Generated_Source\PSoC5/USBUART_std.c ****                             requestHandled = USBUART_InitNoDataControlTransfer();
 1668              		.loc 1 332 0
 1669 0238 0D4B     		ldr	r3, .L160
 1670 023a 9878     		ldrb	r0, [r3, #2]	@ zero_extendqisi2
 1671 023c 1B79     		ldrb	r3, [r3, #4]	@ zero_extendqisi2
 1672 023e DBB2     		uxtb	r3, r3
 1673 0240 1749     		ldr	r1, .L160+48
 1674 0242 CA5C     		ldrb	r2, [r1, r3]	@ zero_extendqisi2
 1675 0244 22EA0002 		bic	r2, r2, r0
 1676 0248 CA54     		strb	r2, [r1, r3]
 333:Generated_Source\PSoC5/USBUART_std.c ****                         }
 1677              		.loc 1 333 0
 1678 024a FFF7FEFF 		bl	USBUART_InitNoDataControlTransfer
 1679              	.LVL177:
 1680 024e 10BD     		pop	{r4, pc}
 1681              	.LVL178:
 1682              	.L124:
 342:Generated_Source\PSoC5/USBUART_std.c ****                 {
 1683              		.loc 1 342 0
 1684 0250 03F00303 		and	r3, r3, #3
 1685              	.LVL179:
 1686 0254 012B     		cmp	r3, #1
 1687 0256 32D0     		beq	.L136
 1688 0258 23B3     		cbz	r3, .L137
 1689 025a 022B     		cmp	r3, #2
ARM GAS  C:\Users\MANSRO~1\AppData\Local\Temp\cc6Us192.s 			page 56


 1690 025c 56D1     		bne	.L158
 345:Generated_Source\PSoC5/USBUART_std.c ****                         {
 1691              		.loc 1 345 0
 1692 025e 044B     		ldr	r3, .L160
 1693 0260 9B78     		ldrb	r3, [r3, #2]	@ zero_extendqisi2
 1694 0262 13F0FF0F 		tst	r3, #255
 1695 0266 53D1     		bne	.L152
 347:Generated_Source\PSoC5/USBUART_std.c ****                         }
 1696              		.loc 1 347 0
 1697 0268 FFF7FEFF 		bl	USBUART_SetEndpointHalt
 1698              	.LVL180:
 1699 026c 10BD     		pop	{r4, pc}
 1700              	.L161:
 1701 026e 00BF     		.align	2
 1702              	.L160:
 1703 0270 00600040 		.word	1073766400
 1704 0274 00000000 		.word	USBUART_currentTD
 1705 0278 00000000 		.word	USBUART_STRING_DESCRIPTORS
 1706 027c 00000000 		.word	USBUART_EP
 1707 0280 00000000 		.word	.LANCHOR0
 1708 0284 00000000 		.word	USBUART_deviceStatus
 1709 0288 00000000 		.word	USBUART_configuration
 1710 028c 00000000 		.word	USBUART_interfaceSetting
 1711 0290 00000000 		.word	USBUART_deviceAddress
 1712 0294 00000000 		.word	USBUART_configurationChanged
 1713 0298 00000000 		.word	USBUART_interfaceNumber
 1714 029c 00000000 		.word	USBUART_interfaceSettingLast
 1715 02a0 00000000 		.word	USBUART_interfaceStatus
 1716              	.LVL181:
 1717              	.L137:
 353:Generated_Source\PSoC5/USBUART_std.c ****                         {
 1718              		.loc 1 353 0
 1719 02a4 1D4B     		ldr	r3, .L162
 1720 02a6 9B78     		ldrb	r3, [r3, #2]	@ zero_extendqisi2
 1721 02a8 DBB2     		uxtb	r3, r3
 1722 02aa 012B     		cmp	r3, #1
 1723 02ac 32D1     		bne	.L153
 355:Generated_Source\PSoC5/USBUART_std.c ****                             requestHandled = USBUART_InitNoDataControlTransfer();
 1724              		.loc 1 355 0
 1725 02ae 1C4A     		ldr	r2, .L162+4
 1726 02b0 1378     		ldrb	r3, [r2]	@ zero_extendqisi2
 1727 02b2 43F00203 		orr	r3, r3, #2
 1728 02b6 1370     		strb	r3, [r2]
 356:Generated_Source\PSoC5/USBUART_std.c ****                         }
 1729              		.loc 1 356 0
 1730 02b8 FFF7FEFF 		bl	USBUART_InitNoDataControlTransfer
 1731              	.LVL182:
 1732 02bc 10BD     		pop	{r4, pc}
 1733              	.LVL183:
 1734              	.L136:
 362:Generated_Source\PSoC5/USBUART_std.c ****                         {
 1735              		.loc 1 362 0
 1736 02be 174B     		ldr	r3, .L162
 1737 02c0 1B79     		ldrb	r3, [r3, #4]	@ zero_extendqisi2
 1738 02c2 DBB2     		uxtb	r3, r3
 1739 02c4 012B     		cmp	r3, #1
 1740 02c6 27D8     		bhi	.L154
ARM GAS  C:\Users\MANSRO~1\AppData\Local\Temp\cc6Us192.s 			page 57


 364:Generated_Source\PSoC5/USBUART_std.c ****                             requestHandled = USBUART_InitNoDataControlTransfer();
 1741              		.loc 1 364 0
 1742 02c8 144B     		ldr	r3, .L162
 1743 02ca 9878     		ldrb	r0, [r3, #2]	@ zero_extendqisi2
 1744 02cc 1B79     		ldrb	r3, [r3, #4]	@ zero_extendqisi2
 1745 02ce DBB2     		uxtb	r3, r3
 1746 02d0 1449     		ldr	r1, .L162+8
 1747 02d2 CA5C     		ldrb	r2, [r1, r3]	@ zero_extendqisi2
 1748 02d4 22EA0002 		bic	r2, r2, r0
 1749 02d8 CA54     		strb	r2, [r1, r3]
 365:Generated_Source\PSoC5/USBUART_std.c ****                         }
 1750              		.loc 1 365 0
 1751 02da FFF7FEFF 		bl	USBUART_InitNoDataControlTransfer
 1752              	.LVL184:
 1753 02de 10BD     		pop	{r4, pc}
 1754              	.LVL185:
 1755              	.L139:
  86:Generated_Source\PSoC5/USBUART_std.c ****     uint8 interfaceNumber;
 1756              		.loc 1 86 0
 1757 02e0 0020     		movs	r0, #0
 1758 02e2 10BD     		pop	{r4, pc}
 1759              	.LVL186:
 1760              	.L140:
 1761 02e4 0020     		movs	r0, #0
 1762              	.LVL187:
 1763 02e6 10BD     		pop	{r4, pc}
 1764              	.LVL188:
 1765              	.L142:
 1766 02e8 0020     		movs	r0, #0
 1767 02ea 10BD     		pop	{r4, pc}
 1768              	.LVL189:
 1769              	.L156:
 1770 02ec 0020     		movs	r0, #0
 1771 02ee 10BD     		pop	{r4, pc}
 1772              	.LVL190:
 1773              	.L144:
 1774 02f0 0020     		movs	r0, #0
 1775 02f2 10BD     		pop	{r4, pc}
 1776              	.LVL191:
 1777              	.L145:
 1778 02f4 0020     		movs	r0, #0
 1779              	.LVL192:
 1780 02f6 10BD     		pop	{r4, pc}
 1781              	.L146:
 1782 02f8 0020     		movs	r0, #0
 1783 02fa 10BD     		pop	{r4, pc}
 1784              	.L157:
 1785 02fc 0020     		movs	r0, #0
 1786 02fe 10BD     		pop	{r4, pc}
 1787              	.L148:
 1788 0300 0020     		movs	r0, #0
 1789 0302 10BD     		pop	{r4, pc}
 1790              	.L149:
 1791 0304 0020     		movs	r0, #0
 1792 0306 10BD     		pop	{r4, pc}
 1793              	.L150:
 1794 0308 0020     		movs	r0, #0
ARM GAS  C:\Users\MANSRO~1\AppData\Local\Temp\cc6Us192.s 			page 58


 1795 030a 10BD     		pop	{r4, pc}
 1796              	.L158:
 1797 030c 0020     		movs	r0, #0
 1798 030e 10BD     		pop	{r4, pc}
 1799              	.L152:
 1800 0310 0020     		movs	r0, #0
 1801 0312 10BD     		pop	{r4, pc}
 1802              	.L153:
 1803 0314 0020     		movs	r0, #0
 1804 0316 10BD     		pop	{r4, pc}
 1805              	.L154:
 1806 0318 0020     		movs	r0, #0
 1807              	.LVL193:
 380:Generated_Source\PSoC5/USBUART_std.c **** 
 1808              		.loc 1 380 0
 1809 031a 10BD     		pop	{r4, pc}
 1810              	.L163:
 1811              		.align	2
 1812              	.L162:
 1813 031c 00600040 		.word	1073766400
 1814 0320 00000000 		.word	USBUART_deviceStatus
 1815 0324 00000000 		.word	USBUART_interfaceStatus
 1816              		.cfi_endproc
 1817              	.LFE0:
 1818              		.size	USBUART_HandleStandardRqst, .-USBUART_HandleStandardRqst
 1819              		.bss
 1820              		.align	2
 1821              		.set	.LANCHOR0,. + 0
 1822              		.type	USBUART_tBuffer.5248, %object
 1823              		.size	USBUART_tBuffer.5248, 2
 1824              	USBUART_tBuffer.5248:
 1825 0000 0000     		.space	2
 1826              		.text
 1827              	.Letext0:
 1828              		.file 2 "Generated_Source\\PSoC5\\cytypes.h"
 1829              		.file 3 "Generated_Source\\PSoC5\\USBUART.h"
 1830              		.file 4 "Generated_Source\\PSoC5\\USBUART_pvt.h"
