ARM GAS  C:\Users\MANSRO~1\AppData\Local\Temp\ccbHnXVe.s 			page 1


   1              		.syntax unified
   2              		.cpu cortex-m3
   3              		.fpu softvfp
   4              		.eabi_attribute 20, 1
   5              		.eabi_attribute 21, 1
   6              		.eabi_attribute 23, 3
   7              		.eabi_attribute 24, 1
   8              		.eabi_attribute 25, 1
   9              		.eabi_attribute 26, 1
  10              		.eabi_attribute 30, 6
  11              		.eabi_attribute 34, 1
  12              		.eabi_attribute 18, 4
  13              		.thumb
  14              		.syntax unified
  15              		.file	"CyDmac.c"
  16              		.text
  17              	.Ltext0:
  18              		.cfi_sections	.debug_frame
  19              		.data
  20              		.type	CyDmaTdCurrentNumber, %object
  21              		.size	CyDmaTdCurrentNumber, 1
  22              	CyDmaTdCurrentNumber:
  23 0000 80       		.byte	-128
  24              		.type	CyDmaTdFreeIndex, %object
  25              		.size	CyDmaTdFreeIndex, 1
  26              	CyDmaTdFreeIndex:
  27 0001 7F       		.byte	127
  28              		.bss
  29              		.align	2
  30              	CyDmaChannels:
  31 0000 00000000 		.space	4
  32              		.section	.text.CyDmacConfigure,"ax",%progbits
  33              		.align	2
  34              		.global	CyDmacConfigure
  35              		.thumb
  36              		.thumb_func
  37              		.type	CyDmacConfigure, %function
  38              	CyDmacConfigure:
  39              	.LFB0:
  40              		.file 1 "Generated_Source\\PSoC5\\CyDmac.c"
   1:Generated_Source\PSoC5/CyDmac.c **** /***************************************************************************//**
   2:Generated_Source\PSoC5/CyDmac.c **** * \file CyDmac.c
   3:Generated_Source\PSoC5/CyDmac.c **** * \version 5.60
   4:Generated_Source\PSoC5/CyDmac.c **** *
   5:Generated_Source\PSoC5/CyDmac.c **** * \brief
   6:Generated_Source\PSoC5/CyDmac.c **** * Provides an API for the DMAC component. The API includes functions for the
   7:Generated_Source\PSoC5/CyDmac.c **** * DMA controller, DMA channels and Transfer Descriptors. This API is the library
   8:Generated_Source\PSoC5/CyDmac.c **** * version not the auto generated code that gets generated when the user places a
   9:Generated_Source\PSoC5/CyDmac.c **** * DMA component on the schematic.
  10:Generated_Source\PSoC5/CyDmac.c **** *
  11:Generated_Source\PSoC5/CyDmac.c **** * The auto generated code would use the APi's in this module.
  12:Generated_Source\PSoC5/CyDmac.c **** *
  13:Generated_Source\PSoC5/CyDmac.c **** * \note This code is endian agnostic.
  14:Generated_Source\PSoC5/CyDmac.c **** *
  15:Generated_Source\PSoC5/CyDmac.c **** * \note The Transfer Descriptor memory can be used as regular memory if the
  16:Generated_Source\PSoC5/CyDmac.c **** * TD's are not being used.
  17:Generated_Source\PSoC5/CyDmac.c **** *
ARM GAS  C:\Users\MANSRO~1\AppData\Local\Temp\ccbHnXVe.s 			page 2


  18:Generated_Source\PSoC5/CyDmac.c **** * \note This code uses the first byte of each TD to manage the free list of
  19:Generated_Source\PSoC5/CyDmac.c **** * TD's. The user can overwrite this once the TD is allocated.
  20:Generated_Source\PSoC5/CyDmac.c **** *
  21:Generated_Source\PSoC5/CyDmac.c **** ********************************************************************************
  22:Generated_Source\PSoC5/CyDmac.c **** * \copyright
  23:Generated_Source\PSoC5/CyDmac.c **** * Copyright 2008-2017, Cypress Semiconductor Corporation.  All rights reserved.
  24:Generated_Source\PSoC5/CyDmac.c **** * You may use this file only in accordance with the license, terms, conditions,
  25:Generated_Source\PSoC5/CyDmac.c **** * disclaimers, and limitations in the end user license agreement accompanying
  26:Generated_Source\PSoC5/CyDmac.c **** * the software package with which this file was provided.
  27:Generated_Source\PSoC5/CyDmac.c **** *******************************************************************************/
  28:Generated_Source\PSoC5/CyDmac.c **** 
  29:Generated_Source\PSoC5/CyDmac.c **** #include "CyDmac.h"
  30:Generated_Source\PSoC5/CyDmac.c **** 
  31:Generated_Source\PSoC5/CyDmac.c **** 
  32:Generated_Source\PSoC5/CyDmac.c **** /*******************************************************************************
  33:Generated_Source\PSoC5/CyDmac.c **** * The following variables are initialized from CyDmacConfigure() function that
  34:Generated_Source\PSoC5/CyDmac.c **** * is executed from initialize_psoc() at the early initialization stage.
  35:Generated_Source\PSoC5/CyDmac.c **** * In case of IAR EW IDE, initialize_psoc() is executed before the data sections
  36:Generated_Source\PSoC5/CyDmac.c **** * are initialized. To avoid zeroing, these variables should be initialized
  37:Generated_Source\PSoC5/CyDmac.c **** * properly during segments initialization as well.
  38:Generated_Source\PSoC5/CyDmac.c **** *******************************************************************************/
  39:Generated_Source\PSoC5/CyDmac.c **** static uint8  CyDmaTdCurrentNumber = CY_DMA_NUMBEROF_TDS;           /* Current Number of free eleme
  40:Generated_Source\PSoC5/CyDmac.c **** static uint8  CyDmaTdFreeIndex = (uint8)(CY_DMA_NUMBEROF_TDS - 1u); /* Index of first available TD 
  41:Generated_Source\PSoC5/CyDmac.c **** static uint32 CyDmaChannels = DMA_CHANNELS_USED__MASK0;              /* Bit map of DMA channel owne
  42:Generated_Source\PSoC5/CyDmac.c **** 
  43:Generated_Source\PSoC5/CyDmac.c **** 
  44:Generated_Source\PSoC5/CyDmac.c **** /*******************************************************************************
  45:Generated_Source\PSoC5/CyDmac.c **** * Function Name: CyDmacConfigure
  46:Generated_Source\PSoC5/CyDmac.c **** ****************************************************************************//**
  47:Generated_Source\PSoC5/CyDmac.c **** *
  48:Generated_Source\PSoC5/CyDmac.c **** * Creates a linked list of all the TDs to be allocated. This function is called
  49:Generated_Source\PSoC5/CyDmac.c **** * by the startup code; you do not normally need to call it. You can call this
  50:Generated_Source\PSoC5/CyDmac.c **** * function if all of the DMA channels are inactive.
  51:Generated_Source\PSoC5/CyDmac.c **** *
  52:Generated_Source\PSoC5/CyDmac.c **** *******************************************************************************/
  53:Generated_Source\PSoC5/CyDmac.c **** void CyDmacConfigure(void) 
  54:Generated_Source\PSoC5/CyDmac.c **** {
  41              		.loc 1 54 0
  42              		.cfi_startproc
  43              		@ args = 0, pretend = 0, frame = 8
  44              		@ frame_needed = 1, uses_anonymous_args = 0
  45              		@ link register save eliminated.
  46 0000 80B4     		push	{r7}
  47              		.cfi_def_cfa_offset 4
  48              		.cfi_offset 7, -4
  49 0002 83B0     		sub	sp, sp, #12
  50              		.cfi_def_cfa_offset 16
  51 0004 00AF     		add	r7, sp, #0
  52              		.cfi_def_cfa_register 7
  55:Generated_Source\PSoC5/CyDmac.c ****     uint8 dmaIndex;
  56:Generated_Source\PSoC5/CyDmac.c **** 
  57:Generated_Source\PSoC5/CyDmac.c ****     /* Set TD list variables. */
  58:Generated_Source\PSoC5/CyDmac.c ****     CyDmaTdFreeIndex     = (uint8)(CY_DMA_NUMBEROF_TDS - 1u);
  53              		.loc 1 58 0
  54 0006 134B     		ldr	r3, .L4
  55 0008 7F22     		movs	r2, #127
  56 000a 1A70     		strb	r2, [r3]
ARM GAS  C:\Users\MANSRO~1\AppData\Local\Temp\ccbHnXVe.s 			page 3


  59:Generated_Source\PSoC5/CyDmac.c ****     CyDmaTdCurrentNumber = CY_DMA_NUMBEROF_TDS;
  57              		.loc 1 59 0
  58 000c 124B     		ldr	r3, .L4+4
  59 000e 8022     		movs	r2, #128
  60 0010 1A70     		strb	r2, [r3]
  60:Generated_Source\PSoC5/CyDmac.c **** 
  61:Generated_Source\PSoC5/CyDmac.c ****     /* Make TD free list. */
  62:Generated_Source\PSoC5/CyDmac.c ****     for(dmaIndex = (uint8)(CY_DMA_NUMBEROF_TDS - 1u); dmaIndex != 0u; dmaIndex--)
  61              		.loc 1 62 0
  62 0012 7F23     		movs	r3, #127
  63 0014 FB71     		strb	r3, [r7, #7]
  64 0016 0CE0     		b	.L2
  65              	.L3:
  63:Generated_Source\PSoC5/CyDmac.c ****     {
  64:Generated_Source\PSoC5/CyDmac.c ****         CY_DMA_TDMEM_STRUCT_PTR[dmaIndex].TD0[0u] = (uint8)(dmaIndex - 1u);
  66              		.loc 1 64 0 discriminator 3
  67 0018 FB79     		ldrb	r3, [r7, #7]	@ zero_extendqisi2
  68 001a DB00     		lsls	r3, r3, #3
  69 001c 03F18043 		add	r3, r3, #1073741824
  70 0020 03F5F043 		add	r3, r3, #30720
  71 0024 FA79     		ldrb	r2, [r7, #7]
  72 0026 013A     		subs	r2, r2, #1
  73 0028 D2B2     		uxtb	r2, r2
  74 002a 1A70     		strb	r2, [r3]
  62:Generated_Source\PSoC5/CyDmac.c ****     {
  75              		.loc 1 62 0 discriminator 3
  76 002c FB79     		ldrb	r3, [r7, #7]	@ zero_extendqisi2
  77 002e 013B     		subs	r3, r3, #1
  78 0030 FB71     		strb	r3, [r7, #7]
  79              	.L2:
  62:Generated_Source\PSoC5/CyDmac.c ****     {
  80              		.loc 1 62 0 is_stmt 0 discriminator 1
  81 0032 FB79     		ldrb	r3, [r7, #7]	@ zero_extendqisi2
  82 0034 002B     		cmp	r3, #0
  83 0036 EFD1     		bne	.L3
  65:Generated_Source\PSoC5/CyDmac.c ****     }
  66:Generated_Source\PSoC5/CyDmac.c **** 
  67:Generated_Source\PSoC5/CyDmac.c ****     /* Make last one point to zero. */
  68:Generated_Source\PSoC5/CyDmac.c ****     CY_DMA_TDMEM_STRUCT_PTR[dmaIndex].TD0[0u] = 0u;
  84              		.loc 1 68 0 is_stmt 1
  85 0038 FB79     		ldrb	r3, [r7, #7]	@ zero_extendqisi2
  86 003a DB00     		lsls	r3, r3, #3
  87 003c 03F18043 		add	r3, r3, #1073741824
  88 0040 03F5F043 		add	r3, r3, #30720
  89 0044 0022     		movs	r2, #0
  90 0046 1A70     		strb	r2, [r3]
  69:Generated_Source\PSoC5/CyDmac.c **** }
  91              		.loc 1 69 0
  92 0048 00BF     		nop
  93 004a 0C37     		adds	r7, r7, #12
  94              		.cfi_def_cfa_offset 4
  95 004c BD46     		mov	sp, r7
  96              		.cfi_def_cfa_register 13
  97              		@ sp needed
  98 004e 80BC     		pop	{r7}
  99              		.cfi_restore 7
 100              		.cfi_def_cfa_offset 0
ARM GAS  C:\Users\MANSRO~1\AppData\Local\Temp\ccbHnXVe.s 			page 4


 101 0050 7047     		bx	lr
 102              	.L5:
 103 0052 00BF     		.align	2
 104              	.L4:
 105 0054 01000000 		.word	CyDmaTdFreeIndex
 106 0058 00000000 		.word	CyDmaTdCurrentNumber
 107              		.cfi_endproc
 108              	.LFE0:
 109              		.size	CyDmacConfigure, .-CyDmacConfigure
 110              		.section	.text.CyDmacError,"ax",%progbits
 111              		.align	2
 112              		.global	CyDmacError
 113              		.thumb
 114              		.thumb_func
 115              		.type	CyDmacError, %function
 116              	CyDmacError:
 117              	.LFB1:
  70:Generated_Source\PSoC5/CyDmac.c **** 
  71:Generated_Source\PSoC5/CyDmac.c **** 
  72:Generated_Source\PSoC5/CyDmac.c **** /*******************************************************************************
  73:Generated_Source\PSoC5/CyDmac.c **** * Function Name: CyDmacError
  74:Generated_Source\PSoC5/CyDmac.c **** ****************************************************************************//**
  75:Generated_Source\PSoC5/CyDmac.c **** *
  76:Generated_Source\PSoC5/CyDmac.c **** *  Returns errors of the last failed DMA transaction.
  77:Generated_Source\PSoC5/CyDmac.c **** *
  78:Generated_Source\PSoC5/CyDmac.c **** * \return Errors of the last failed DMA transaction.
  79:Generated_Source\PSoC5/CyDmac.c **** *
  80:Generated_Source\PSoC5/CyDmac.c **** *  DMAC_PERIPH_ERR:
  81:Generated_Source\PSoC5/CyDmac.c **** *   Set to 1 when a peripheral responds to a bus transaction with an error
  82:Generated_Source\PSoC5/CyDmac.c **** *   response.
  83:Generated_Source\PSoC5/CyDmac.c **** *
  84:Generated_Source\PSoC5/CyDmac.c **** *  DMAC_UNPOP_ACC:
  85:Generated_Source\PSoC5/CyDmac.c **** *   Set to 1 when an access is attempted to an invalid address.
  86:Generated_Source\PSoC5/CyDmac.c **** *
  87:Generated_Source\PSoC5/CyDmac.c **** *  DMAC_BUS_TIMEOUT:
  88:Generated_Source\PSoC5/CyDmac.c **** *   Set to 1 when a bus timeout occurs. Cleared by writing a 1. Timeout values
  89:Generated_Source\PSoC5/CyDmac.c **** *   are determined by the BUS_TIMEOUT field in the PHUBCFG register.
  90:Generated_Source\PSoC5/CyDmac.c **** *
  91:Generated_Source\PSoC5/CyDmac.c **** * Theory:
  92:Generated_Source\PSoC5/CyDmac.c **** *  Once an error occurs the error bits are sticky and are only cleared by
  93:Generated_Source\PSoC5/CyDmac.c **** *  writing 1 to the error register.
  94:Generated_Source\PSoC5/CyDmac.c **** *
  95:Generated_Source\PSoC5/CyDmac.c **** *******************************************************************************/
  96:Generated_Source\PSoC5/CyDmac.c **** uint8 CyDmacError(void) 
  97:Generated_Source\PSoC5/CyDmac.c **** {
 118              		.loc 1 97 0
 119              		.cfi_startproc
 120              		@ args = 0, pretend = 0, frame = 0
 121              		@ frame_needed = 1, uses_anonymous_args = 0
 122              		@ link register save eliminated.
 123 0000 80B4     		push	{r7}
 124              		.cfi_def_cfa_offset 4
 125              		.cfi_offset 7, -4
 126 0002 00AF     		add	r7, sp, #0
 127              		.cfi_def_cfa_register 7
  98:Generated_Source\PSoC5/CyDmac.c ****     return((uint8)(((uint32) 0x0Eu) & *CY_DMA_ERR_PTR));
 128              		.loc 1 98 0
ARM GAS  C:\Users\MANSRO~1\AppData\Local\Temp\ccbHnXVe.s 			page 5


 129 0004 044B     		ldr	r3, .L8
 130 0006 1B68     		ldr	r3, [r3]
 131 0008 DBB2     		uxtb	r3, r3
 132 000a 03F00E03 		and	r3, r3, #14
 133 000e DBB2     		uxtb	r3, r3
  99:Generated_Source\PSoC5/CyDmac.c **** }
 134              		.loc 1 99 0
 135 0010 1846     		mov	r0, r3
 136 0012 BD46     		mov	sp, r7
 137              		.cfi_def_cfa_register 13
 138              		@ sp needed
 139 0014 80BC     		pop	{r7}
 140              		.cfi_restore 7
 141              		.cfi_def_cfa_offset 0
 142 0016 7047     		bx	lr
 143              	.L9:
 144              		.align	2
 145              	.L8:
 146 0018 04700040 		.word	1073770500
 147              		.cfi_endproc
 148              	.LFE1:
 149              		.size	CyDmacError, .-CyDmacError
 150              		.section	.text.CyDmacClearError,"ax",%progbits
 151              		.align	2
 152              		.global	CyDmacClearError
 153              		.thumb
 154              		.thumb_func
 155              		.type	CyDmacClearError, %function
 156              	CyDmacClearError:
 157              	.LFB2:
 100:Generated_Source\PSoC5/CyDmac.c **** 
 101:Generated_Source\PSoC5/CyDmac.c **** 
 102:Generated_Source\PSoC5/CyDmac.c **** /*******************************************************************************
 103:Generated_Source\PSoC5/CyDmac.c **** * Function Name: CyDmacClearError
 104:Generated_Source\PSoC5/CyDmac.c **** ****************************************************************************//**
 105:Generated_Source\PSoC5/CyDmac.c **** *
 106:Generated_Source\PSoC5/CyDmac.c **** *  Clears the error bits in the error register of the DMAC.
 107:Generated_Source\PSoC5/CyDmac.c **** *
 108:Generated_Source\PSoC5/CyDmac.c **** * \param error:
 109:Generated_Source\PSoC5/CyDmac.c **** *   Clears the error bits in the DMAC error register.
 110:Generated_Source\PSoC5/CyDmac.c **** *
 111:Generated_Source\PSoC5/CyDmac.c **** *  \param DMAC_PERIPH_ERR:
 112:Generated_Source\PSoC5/CyDmac.c **** *   Set to 1 when a peripheral responds to a bus transaction with an error
 113:Generated_Source\PSoC5/CyDmac.c **** *   response.
 114:Generated_Source\PSoC5/CyDmac.c **** *
 115:Generated_Source\PSoC5/CyDmac.c **** *  \param DMAC_UNPOP_ACC:
 116:Generated_Source\PSoC5/CyDmac.c **** *   Set to 1 when an access is attempted to an invalid address.
 117:Generated_Source\PSoC5/CyDmac.c **** *
 118:Generated_Source\PSoC5/CyDmac.c **** *  \param DMAC_BUS_TIMEOUT:
 119:Generated_Source\PSoC5/CyDmac.c **** *   Set to 1 when a bus timeout occurs. Cleared by writing 1. Timeout values
 120:Generated_Source\PSoC5/CyDmac.c **** *   are determined by the BUS_TIMEOUT field in the PHUBCFG register.
 121:Generated_Source\PSoC5/CyDmac.c **** *
 122:Generated_Source\PSoC5/CyDmac.c **** * Theory:
 123:Generated_Source\PSoC5/CyDmac.c **** *  Once an error occurs the error bits are sticky and are only cleared by
 124:Generated_Source\PSoC5/CyDmac.c **** *  writing 1 to the error register.
 125:Generated_Source\PSoC5/CyDmac.c **** *
 126:Generated_Source\PSoC5/CyDmac.c **** *******************************************************************************/
ARM GAS  C:\Users\MANSRO~1\AppData\Local\Temp\ccbHnXVe.s 			page 6


 127:Generated_Source\PSoC5/CyDmac.c **** void CyDmacClearError(uint8 error) 
 128:Generated_Source\PSoC5/CyDmac.c **** {
 158              		.loc 1 128 0
 159              		.cfi_startproc
 160              		@ args = 0, pretend = 0, frame = 8
 161              		@ frame_needed = 1, uses_anonymous_args = 0
 162              		@ link register save eliminated.
 163 0000 80B4     		push	{r7}
 164              		.cfi_def_cfa_offset 4
 165              		.cfi_offset 7, -4
 166 0002 83B0     		sub	sp, sp, #12
 167              		.cfi_def_cfa_offset 16
 168 0004 00AF     		add	r7, sp, #0
 169              		.cfi_def_cfa_register 7
 170 0006 0346     		mov	r3, r0
 171 0008 FB71     		strb	r3, [r7, #7]
 129:Generated_Source\PSoC5/CyDmac.c ****     *CY_DMA_ERR_PTR = (((uint32)0x0Fu) & ((uint32)error));
 172              		.loc 1 129 0
 173 000a 054A     		ldr	r2, .L11
 174 000c FB79     		ldrb	r3, [r7, #7]	@ zero_extendqisi2
 175 000e 03F00F03 		and	r3, r3, #15
 176 0012 1360     		str	r3, [r2]
 130:Generated_Source\PSoC5/CyDmac.c **** }
 177              		.loc 1 130 0
 178 0014 00BF     		nop
 179 0016 0C37     		adds	r7, r7, #12
 180              		.cfi_def_cfa_offset 4
 181 0018 BD46     		mov	sp, r7
 182              		.cfi_def_cfa_register 13
 183              		@ sp needed
 184 001a 80BC     		pop	{r7}
 185              		.cfi_restore 7
 186              		.cfi_def_cfa_offset 0
 187 001c 7047     		bx	lr
 188              	.L12:
 189 001e 00BF     		.align	2
 190              	.L11:
 191 0020 04700040 		.word	1073770500
 192              		.cfi_endproc
 193              	.LFE2:
 194              		.size	CyDmacClearError, .-CyDmacClearError
 195              		.section	.text.CyDmacErrorAddress,"ax",%progbits
 196              		.align	2
 197              		.global	CyDmacErrorAddress
 198              		.thumb
 199              		.thumb_func
 200              		.type	CyDmacErrorAddress, %function
 201              	CyDmacErrorAddress:
 202              	.LFB3:
 131:Generated_Source\PSoC5/CyDmac.c **** 
 132:Generated_Source\PSoC5/CyDmac.c **** 
 133:Generated_Source\PSoC5/CyDmac.c **** /*******************************************************************************
 134:Generated_Source\PSoC5/CyDmac.c **** * Function Name: CyDmacErrorAddress
 135:Generated_Source\PSoC5/CyDmac.c **** ****************************************************************************//**
 136:Generated_Source\PSoC5/CyDmac.c **** *
 137:Generated_Source\PSoC5/CyDmac.c **** *  When DMAC_BUS_TIMEOUT, DMAC_UNPOP_ACC, and DMAC_PERIPH_ERR occur the
 138:Generated_Source\PSoC5/CyDmac.c **** *  address of the error is written to the error address register and can be read
ARM GAS  C:\Users\MANSRO~1\AppData\Local\Temp\ccbHnXVe.s 			page 7


 139:Generated_Source\PSoC5/CyDmac.c **** *  with this function.
 140:Generated_Source\PSoC5/CyDmac.c **** *
 141:Generated_Source\PSoC5/CyDmac.c **** *  If there are multiple errors, only the address of the first is saved.
 142:Generated_Source\PSoC5/CyDmac.c **** *
 143:Generated_Source\PSoC5/CyDmac.c **** * \return The address that caused the error.
 144:Generated_Source\PSoC5/CyDmac.c **** *
 145:Generated_Source\PSoC5/CyDmac.c **** *******************************************************************************/
 146:Generated_Source\PSoC5/CyDmac.c **** uint32 CyDmacErrorAddress(void) 
 147:Generated_Source\PSoC5/CyDmac.c **** {
 203              		.loc 1 147 0
 204              		.cfi_startproc
 205              		@ args = 0, pretend = 0, frame = 0
 206              		@ frame_needed = 1, uses_anonymous_args = 0
 207              		@ link register save eliminated.
 208 0000 80B4     		push	{r7}
 209              		.cfi_def_cfa_offset 4
 210              		.cfi_offset 7, -4
 211 0002 00AF     		add	r7, sp, #0
 212              		.cfi_def_cfa_register 7
 148:Generated_Source\PSoC5/CyDmac.c ****     return(CY_GET_REG32(CY_DMA_ERR_ADR_PTR));
 213              		.loc 1 148 0
 214 0004 024B     		ldr	r3, .L15
 215 0006 1B68     		ldr	r3, [r3]
 149:Generated_Source\PSoC5/CyDmac.c **** }
 216              		.loc 1 149 0
 217 0008 1846     		mov	r0, r3
 218 000a BD46     		mov	sp, r7
 219              		.cfi_def_cfa_register 13
 220              		@ sp needed
 221 000c 80BC     		pop	{r7}
 222              		.cfi_restore 7
 223              		.cfi_def_cfa_offset 0
 224 000e 7047     		bx	lr
 225              	.L16:
 226              		.align	2
 227              	.L15:
 228 0010 08700040 		.word	1073770504
 229              		.cfi_endproc
 230              	.LFE3:
 231              		.size	CyDmacErrorAddress, .-CyDmacErrorAddress
 232              		.section	.text.CyDmaChAlloc,"ax",%progbits
 233              		.align	2
 234              		.global	CyDmaChAlloc
 235              		.thumb
 236              		.thumb_func
 237              		.type	CyDmaChAlloc, %function
 238              	CyDmaChAlloc:
 239              	.LFB4:
 150:Generated_Source\PSoC5/CyDmac.c **** 
 151:Generated_Source\PSoC5/CyDmac.c **** 
 152:Generated_Source\PSoC5/CyDmac.c **** /*******************************************************************************
 153:Generated_Source\PSoC5/CyDmac.c **** * Function Name: CyDmaChAlloc
 154:Generated_Source\PSoC5/CyDmac.c **** ****************************************************************************//**
 155:Generated_Source\PSoC5/CyDmac.c **** *
 156:Generated_Source\PSoC5/CyDmac.c **** *  Allocates a channel from the DMAC to be used in all functions that require a
 157:Generated_Source\PSoC5/CyDmac.c **** *  channel handle.
 158:Generated_Source\PSoC5/CyDmac.c **** *
ARM GAS  C:\Users\MANSRO~1\AppData\Local\Temp\ccbHnXVe.s 			page 8


 159:Generated_Source\PSoC5/CyDmac.c **** * \return The allocated channel number. Zero is a valid channel number.
 160:Generated_Source\PSoC5/CyDmac.c **** *  DMA_INVALID_CHANNEL is returned if there are no channels available.
 161:Generated_Source\PSoC5/CyDmac.c **** *
 162:Generated_Source\PSoC5/CyDmac.c **** *******************************************************************************/
 163:Generated_Source\PSoC5/CyDmac.c **** uint8 CyDmaChAlloc(void) 
 164:Generated_Source\PSoC5/CyDmac.c **** {
 240              		.loc 1 164 0
 241              		.cfi_startproc
 242              		@ args = 0, pretend = 0, frame = 16
 243              		@ frame_needed = 1, uses_anonymous_args = 0
 244 0000 80B5     		push	{r7, lr}
 245              		.cfi_def_cfa_offset 8
 246              		.cfi_offset 7, -8
 247              		.cfi_offset 14, -4
 248 0002 84B0     		sub	sp, sp, #16
 249              		.cfi_def_cfa_offset 24
 250 0004 00AF     		add	r7, sp, #0
 251              		.cfi_def_cfa_register 7
 165:Generated_Source\PSoC5/CyDmac.c ****     uint8 interruptState;
 166:Generated_Source\PSoC5/CyDmac.c ****     uint8 dmaIndex;
 167:Generated_Source\PSoC5/CyDmac.c ****     uint32 channel = 1u;
 252              		.loc 1 167 0
 253 0006 0123     		movs	r3, #1
 254 0008 BB60     		str	r3, [r7, #8]
 168:Generated_Source\PSoC5/CyDmac.c **** 
 169:Generated_Source\PSoC5/CyDmac.c **** 
 170:Generated_Source\PSoC5/CyDmac.c ****     /* Enter critical section! */
 171:Generated_Source\PSoC5/CyDmac.c ****     interruptState = CyEnterCriticalSection();
 255              		.loc 1 171 0
 256 000a FFF7FEFF 		bl	CyEnterCriticalSection
 257 000e 0346     		mov	r3, r0
 258 0010 FB71     		strb	r3, [r7, #7]
 172:Generated_Source\PSoC5/CyDmac.c **** 
 173:Generated_Source\PSoC5/CyDmac.c ****     /* Look for free channel. */
 174:Generated_Source\PSoC5/CyDmac.c ****     for(dmaIndex = 0u; dmaIndex < CY_DMA_NUMBEROF_CHANNELS; dmaIndex++)
 259              		.loc 1 174 0
 260 0012 0023     		movs	r3, #0
 261 0014 FB73     		strb	r3, [r7, #15]
 262 0016 12E0     		b	.L18
 263              	.L21:
 175:Generated_Source\PSoC5/CyDmac.c ****     {
 176:Generated_Source\PSoC5/CyDmac.c ****         if(0uL == (CyDmaChannels & channel))
 264              		.loc 1 176 0
 265 0018 114B     		ldr	r3, .L24
 266 001a 1A68     		ldr	r2, [r3]
 267 001c BB68     		ldr	r3, [r7, #8]
 268 001e 1340     		ands	r3, r3, r2
 269 0020 002B     		cmp	r3, #0
 270 0022 06D1     		bne	.L19
 177:Generated_Source\PSoC5/CyDmac.c ****         {
 178:Generated_Source\PSoC5/CyDmac.c ****             /* Mark channel as used. */
 179:Generated_Source\PSoC5/CyDmac.c ****             CyDmaChannels |= channel;
 271              		.loc 1 179 0
 272 0024 0E4B     		ldr	r3, .L24
 273 0026 1A68     		ldr	r2, [r3]
 274 0028 BB68     		ldr	r3, [r7, #8]
 275 002a 1343     		orrs	r3, r3, r2
ARM GAS  C:\Users\MANSRO~1\AppData\Local\Temp\ccbHnXVe.s 			page 9


 276 002c 0C4A     		ldr	r2, .L24
 277 002e 1360     		str	r3, [r2]
 180:Generated_Source\PSoC5/CyDmac.c ****             break;
 278              		.loc 1 180 0
 279 0030 08E0     		b	.L20
 280              	.L19:
 181:Generated_Source\PSoC5/CyDmac.c ****         }
 182:Generated_Source\PSoC5/CyDmac.c **** 
 183:Generated_Source\PSoC5/CyDmac.c ****         channel <<= 1u;
 281              		.loc 1 183 0 discriminator 2
 282 0032 BB68     		ldr	r3, [r7, #8]
 283 0034 5B00     		lsls	r3, r3, #1
 284 0036 BB60     		str	r3, [r7, #8]
 174:Generated_Source\PSoC5/CyDmac.c ****     {
 285              		.loc 1 174 0 discriminator 2
 286 0038 FB7B     		ldrb	r3, [r7, #15]	@ zero_extendqisi2
 287 003a 0133     		adds	r3, r3, #1
 288 003c FB73     		strb	r3, [r7, #15]
 289              	.L18:
 174:Generated_Source\PSoC5/CyDmac.c ****     {
 290              		.loc 1 174 0 is_stmt 0 discriminator 1
 291 003e FB7B     		ldrb	r3, [r7, #15]	@ zero_extendqisi2
 292 0040 172B     		cmp	r3, #23
 293 0042 E9D9     		bls	.L21
 294              	.L20:
 184:Generated_Source\PSoC5/CyDmac.c ****     }
 185:Generated_Source\PSoC5/CyDmac.c **** 
 186:Generated_Source\PSoC5/CyDmac.c ****     if(dmaIndex >= CY_DMA_NUMBEROF_CHANNELS)
 295              		.loc 1 186 0 is_stmt 1
 296 0044 FB7B     		ldrb	r3, [r7, #15]	@ zero_extendqisi2
 297 0046 172B     		cmp	r3, #23
 298 0048 01D9     		bls	.L22
 187:Generated_Source\PSoC5/CyDmac.c ****     {
 188:Generated_Source\PSoC5/CyDmac.c ****         dmaIndex = CY_DMA_INVALID_CHANNEL;
 299              		.loc 1 188 0
 300 004a FF23     		movs	r3, #255
 301 004c FB73     		strb	r3, [r7, #15]
 302              	.L22:
 189:Generated_Source\PSoC5/CyDmac.c ****     }
 190:Generated_Source\PSoC5/CyDmac.c **** 
 191:Generated_Source\PSoC5/CyDmac.c ****     /* Exit critical section! */
 192:Generated_Source\PSoC5/CyDmac.c ****     CyExitCriticalSection(interruptState);
 303              		.loc 1 192 0
 304 004e FB79     		ldrb	r3, [r7, #7]	@ zero_extendqisi2
 305 0050 1846     		mov	r0, r3
 306 0052 FFF7FEFF 		bl	CyExitCriticalSection
 193:Generated_Source\PSoC5/CyDmac.c **** 
 194:Generated_Source\PSoC5/CyDmac.c ****     return(dmaIndex);
 307              		.loc 1 194 0
 308 0056 FB7B     		ldrb	r3, [r7, #15]	@ zero_extendqisi2
 195:Generated_Source\PSoC5/CyDmac.c **** }
 309              		.loc 1 195 0
 310 0058 1846     		mov	r0, r3
 311 005a 1037     		adds	r7, r7, #16
 312              		.cfi_def_cfa_offset 8
 313 005c BD46     		mov	sp, r7
 314              		.cfi_def_cfa_register 13
ARM GAS  C:\Users\MANSRO~1\AppData\Local\Temp\ccbHnXVe.s 			page 10


 315              		@ sp needed
 316 005e 80BD     		pop	{r7, pc}
 317              	.L25:
 318              		.align	2
 319              	.L24:
 320 0060 00000000 		.word	CyDmaChannels
 321              		.cfi_endproc
 322              	.LFE4:
 323              		.size	CyDmaChAlloc, .-CyDmaChAlloc
 324              		.section	.text.CyDmaChFree,"ax",%progbits
 325              		.align	2
 326              		.global	CyDmaChFree
 327              		.thumb
 328              		.thumb_func
 329              		.type	CyDmaChFree, %function
 330              	CyDmaChFree:
 331              	.LFB5:
 196:Generated_Source\PSoC5/CyDmac.c **** 
 197:Generated_Source\PSoC5/CyDmac.c **** 
 198:Generated_Source\PSoC5/CyDmac.c **** /*******************************************************************************
 199:Generated_Source\PSoC5/CyDmac.c **** * Function Name: CyDmaChFree
 200:Generated_Source\PSoC5/CyDmac.c **** ****************************************************************************//**
 201:Generated_Source\PSoC5/CyDmac.c **** *
 202:Generated_Source\PSoC5/CyDmac.c **** * Frees a channel allocated by \ref DmaChAlloc().
 203:Generated_Source\PSoC5/CyDmac.c **** *
 204:Generated_Source\PSoC5/CyDmac.c **** * \param chHandle The handle previously returned by \ref CyDmaChAlloc() or \ref
 205:Generated_Source\PSoC5/CyDmac.c **** * DMA_DmaInitalize().
 206:Generated_Source\PSoC5/CyDmac.c **** *
 207:Generated_Source\PSoC5/CyDmac.c **** * \return CYRET_SUCCESS if successful.
 208:Generated_Source\PSoC5/CyDmac.c **** * \return CYRET_BAD_PARAM if chHandle is invalid.
 209:Generated_Source\PSoC5/CyDmac.c **** *
 210:Generated_Source\PSoC5/CyDmac.c **** *******************************************************************************/
 211:Generated_Source\PSoC5/CyDmac.c **** cystatus CyDmaChFree(uint8 chHandle) 
 212:Generated_Source\PSoC5/CyDmac.c **** {
 332              		.loc 1 212 0
 333              		.cfi_startproc
 334              		@ args = 0, pretend = 0, frame = 16
 335              		@ frame_needed = 1, uses_anonymous_args = 0
 336 0000 80B5     		push	{r7, lr}
 337              		.cfi_def_cfa_offset 8
 338              		.cfi_offset 7, -8
 339              		.cfi_offset 14, -4
 340 0002 84B0     		sub	sp, sp, #16
 341              		.cfi_def_cfa_offset 24
 342 0004 00AF     		add	r7, sp, #0
 343              		.cfi_def_cfa_register 7
 344 0006 0346     		mov	r3, r0
 345 0008 FB71     		strb	r3, [r7, #7]
 213:Generated_Source\PSoC5/CyDmac.c ****     cystatus status = CYRET_BAD_PARAM;
 346              		.loc 1 213 0
 347 000a 0123     		movs	r3, #1
 348 000c FB60     		str	r3, [r7, #12]
 214:Generated_Source\PSoC5/CyDmac.c ****     uint8 interruptState;
 215:Generated_Source\PSoC5/CyDmac.c **** 
 216:Generated_Source\PSoC5/CyDmac.c ****     if(chHandle < CY_DMA_NUMBEROF_CHANNELS)
 349              		.loc 1 216 0
 350 000e FB79     		ldrb	r3, [r7, #7]	@ zero_extendqisi2
ARM GAS  C:\Users\MANSRO~1\AppData\Local\Temp\ccbHnXVe.s 			page 11


 351 0010 172B     		cmp	r3, #23
 352 0012 13D8     		bhi	.L27
 217:Generated_Source\PSoC5/CyDmac.c ****     {
 218:Generated_Source\PSoC5/CyDmac.c ****         /* Enter critical section */
 219:Generated_Source\PSoC5/CyDmac.c ****         interruptState = CyEnterCriticalSection();
 353              		.loc 1 219 0
 354 0014 FFF7FEFF 		bl	CyEnterCriticalSection
 355 0018 0346     		mov	r3, r0
 356 001a FB72     		strb	r3, [r7, #11]
 220:Generated_Source\PSoC5/CyDmac.c **** 
 221:Generated_Source\PSoC5/CyDmac.c ****         /* Clear bit mask that keeps track of ownership. */
 222:Generated_Source\PSoC5/CyDmac.c ****         CyDmaChannels &= ~(((uint32) 1u) << chHandle);
 357              		.loc 1 222 0
 358 001c FB79     		ldrb	r3, [r7, #7]	@ zero_extendqisi2
 359 001e 0122     		movs	r2, #1
 360 0020 02FA03F3 		lsl	r3, r2, r3
 361 0024 DA43     		mvns	r2, r3
 362 0026 084B     		ldr	r3, .L29
 363 0028 1B68     		ldr	r3, [r3]
 364 002a 1340     		ands	r3, r3, r2
 365 002c 064A     		ldr	r2, .L29
 366 002e 1360     		str	r3, [r2]
 223:Generated_Source\PSoC5/CyDmac.c **** 
 224:Generated_Source\PSoC5/CyDmac.c ****         /* Exit critical section */
 225:Generated_Source\PSoC5/CyDmac.c ****         CyExitCriticalSection(interruptState);
 367              		.loc 1 225 0
 368 0030 FB7A     		ldrb	r3, [r7, #11]	@ zero_extendqisi2
 369 0032 1846     		mov	r0, r3
 370 0034 FFF7FEFF 		bl	CyExitCriticalSection
 226:Generated_Source\PSoC5/CyDmac.c ****         status = CYRET_SUCCESS;
 371              		.loc 1 226 0
 372 0038 0023     		movs	r3, #0
 373 003a FB60     		str	r3, [r7, #12]
 374              	.L27:
 227:Generated_Source\PSoC5/CyDmac.c ****     }
 228:Generated_Source\PSoC5/CyDmac.c **** 
 229:Generated_Source\PSoC5/CyDmac.c ****     return(status);
 375              		.loc 1 229 0
 376 003c FB68     		ldr	r3, [r7, #12]
 230:Generated_Source\PSoC5/CyDmac.c **** }
 377              		.loc 1 230 0
 378 003e 1846     		mov	r0, r3
 379 0040 1037     		adds	r7, r7, #16
 380              		.cfi_def_cfa_offset 8
 381 0042 BD46     		mov	sp, r7
 382              		.cfi_def_cfa_register 13
 383              		@ sp needed
 384 0044 80BD     		pop	{r7, pc}
 385              	.L30:
 386 0046 00BF     		.align	2
 387              	.L29:
 388 0048 00000000 		.word	CyDmaChannels
 389              		.cfi_endproc
 390              	.LFE5:
 391              		.size	CyDmaChFree, .-CyDmaChFree
 392              		.section	.text.CyDmaChEnable,"ax",%progbits
 393              		.align	2
ARM GAS  C:\Users\MANSRO~1\AppData\Local\Temp\ccbHnXVe.s 			page 12


 394              		.global	CyDmaChEnable
 395              		.thumb
 396              		.thumb_func
 397              		.type	CyDmaChEnable, %function
 398              	CyDmaChEnable:
 399              	.LFB6:
 231:Generated_Source\PSoC5/CyDmac.c **** 
 232:Generated_Source\PSoC5/CyDmac.c **** 
 233:Generated_Source\PSoC5/CyDmac.c **** /*******************************************************************************
 234:Generated_Source\PSoC5/CyDmac.c **** * Function Name: CyDmaChEnable
 235:Generated_Source\PSoC5/CyDmac.c **** ****************************************************************************//**
 236:Generated_Source\PSoC5/CyDmac.c **** *
 237:Generated_Source\PSoC5/CyDmac.c **** *  Enables the DMA channel. A software or hardware request still must happen
 238:Generated_Source\PSoC5/CyDmac.c **** *  before the channel is executed.
 239:Generated_Source\PSoC5/CyDmac.c **** *
 240:Generated_Source\PSoC5/CyDmac.c **** *  \param chHandle A handle previously returned by \ref CyDmaChAlloc() or \ref
 241:Generated_Source\PSoC5/CyDmac.c **** *  DMA_DmaInitalize().
 242:Generated_Source\PSoC5/CyDmac.c **** *
 243:Generated_Source\PSoC5/CyDmac.c **** *  \param preserveTds Preserves the original TD state when the TD has completed.
 244:Generated_Source\PSoC5/CyDmac.c **** *  This parameter applies to all TDs in the channel.
 245:Generated_Source\PSoC5/CyDmac.c **** *
 246:Generated_Source\PSoC5/CyDmac.c **** *   0 - When TD is completed, the DMAC leaves the TD configuration values in
 247:Generated_Source\PSoC5/CyDmac.c **** *   their current state, and does not restore them to their original state.
 248:Generated_Source\PSoC5/CyDmac.c **** *
 249:Generated_Source\PSoC5/CyDmac.c **** *   1 - When TD is completed, the DMAC restores the original configuration
 250:Generated_Source\PSoC5/CyDmac.c **** *   values of the TD.
 251:Generated_Source\PSoC5/CyDmac.c **** *
 252:Generated_Source\PSoC5/CyDmac.c **** *  When preserveTds is set, the TD slot that equals the channel number becomes
 253:Generated_Source\PSoC5/CyDmac.c **** *  RESERVED and that becomes where the working registers exist. So, for example,
 254:Generated_Source\PSoC5/CyDmac.c **** *  if you are using CH06 and preserveTds is set, you are not allowed to use TD
 255:Generated_Source\PSoC5/CyDmac.c **** *  slot 6. That is reclaimed by the DMA engine for its private use.
 256:Generated_Source\PSoC5/CyDmac.c **** *
 257:Generated_Source\PSoC5/CyDmac.c **** *  \note Do not chain back to a completed TD if the preserveTds for the channel
 258:Generated_Source\PSoC5/CyDmac.c **** *  is set to 0. When a TD has completed preserveTds for the channel set to 0,
 259:Generated_Source\PSoC5/CyDmac.c **** *  the transfer count will be at 0. If a TD with a transfer count of 0 is
 260:Generated_Source\PSoC5/CyDmac.c **** *  started, the TD will transfer an indefinite amount of data.
 261:Generated_Source\PSoC5/CyDmac.c **** *
 262:Generated_Source\PSoC5/CyDmac.c **** *  Take extra precautions when using the hardware request (DRQ) option when the
 263:Generated_Source\PSoC5/CyDmac.c **** *  preserveTds is set to 0, as you might be requesting the wrong data.
 264:Generated_Source\PSoC5/CyDmac.c **** *
 265:Generated_Source\PSoC5/CyDmac.c **** * \return CYRET_SUCCESS if successful.
 266:Generated_Source\PSoC5/CyDmac.c **** * \return CYRET_BAD_PARAM if chHandle is invalid.
 267:Generated_Source\PSoC5/CyDmac.c **** *
 268:Generated_Source\PSoC5/CyDmac.c **** *******************************************************************************/
 269:Generated_Source\PSoC5/CyDmac.c **** cystatus CyDmaChEnable(uint8 chHandle, uint8 preserveTds) 
 270:Generated_Source\PSoC5/CyDmac.c **** {
 400              		.loc 1 270 0
 401              		.cfi_startproc
 402              		@ args = 0, pretend = 0, frame = 16
 403              		@ frame_needed = 1, uses_anonymous_args = 0
 404              		@ link register save eliminated.
 405 0000 80B4     		push	{r7}
 406              		.cfi_def_cfa_offset 4
 407              		.cfi_offset 7, -4
 408 0002 85B0     		sub	sp, sp, #20
 409              		.cfi_def_cfa_offset 24
 410 0004 00AF     		add	r7, sp, #0
ARM GAS  C:\Users\MANSRO~1\AppData\Local\Temp\ccbHnXVe.s 			page 13


 411              		.cfi_def_cfa_register 7
 412 0006 0346     		mov	r3, r0
 413 0008 0A46     		mov	r2, r1
 414 000a FB71     		strb	r3, [r7, #7]
 415 000c 1346     		mov	r3, r2
 416 000e BB71     		strb	r3, [r7, #6]
 271:Generated_Source\PSoC5/CyDmac.c ****     cystatus status = CYRET_BAD_PARAM;
 417              		.loc 1 271 0
 418 0010 0123     		movs	r3, #1
 419 0012 FB60     		str	r3, [r7, #12]
 272:Generated_Source\PSoC5/CyDmac.c **** 
 273:Generated_Source\PSoC5/CyDmac.c ****     if(chHandle < CY_DMA_NUMBEROF_CHANNELS)
 420              		.loc 1 273 0
 421 0014 FB79     		ldrb	r3, [r7, #7]	@ zero_extendqisi2
 422 0016 172B     		cmp	r3, #23
 423 0018 2FD8     		bhi	.L32
 274:Generated_Source\PSoC5/CyDmac.c ****     {
 275:Generated_Source\PSoC5/CyDmac.c ****         if (0u != preserveTds)
 424              		.loc 1 275 0
 425 001a BB79     		ldrb	r3, [r7, #6]	@ zero_extendqisi2
 426 001c 002B     		cmp	r3, #0
 427 001e 0ED0     		beq	.L33
 276:Generated_Source\PSoC5/CyDmac.c ****         {
 277:Generated_Source\PSoC5/CyDmac.c ****             /* Store intermediate TD states separately in CHn_SEP_TD0/1 to
 278:Generated_Source\PSoC5/CyDmac.c ****             *  preserve original TD chain
 279:Generated_Source\PSoC5/CyDmac.c ****             */
 280:Generated_Source\PSoC5/CyDmac.c ****             CY_DMA_CH_STRUCT_PTR[chHandle].basic_cfg[0u] |= CY_DMA_CH_BASIC_CFG_WORK_SEP;
 428              		.loc 1 280 0
 429 0020 FB79     		ldrb	r3, [r7, #7]	@ zero_extendqisi2
 430 0022 1A01     		lsls	r2, r3, #4
 431 0024 184B     		ldr	r3, .L36
 432 0026 1344     		add	r3, r3, r2
 433 0028 FA79     		ldrb	r2, [r7, #7]	@ zero_extendqisi2
 434 002a 1101     		lsls	r1, r2, #4
 435 002c 164A     		ldr	r2, .L36
 436 002e 0A44     		add	r2, r2, r1
 437 0030 1278     		ldrb	r2, [r2]
 438 0032 D2B2     		uxtb	r2, r2
 439 0034 42F02002 		orr	r2, r2, #32
 440 0038 D2B2     		uxtb	r2, r2
 441 003a 1A70     		strb	r2, [r3]
 442 003c 0DE0     		b	.L34
 443              	.L33:
 281:Generated_Source\PSoC5/CyDmac.c ****         }
 282:Generated_Source\PSoC5/CyDmac.c ****         else
 283:Generated_Source\PSoC5/CyDmac.c ****         {
 284:Generated_Source\PSoC5/CyDmac.c ****             /* Store intermediate and final TD states on top of original TD chain */
 285:Generated_Source\PSoC5/CyDmac.c ****             CY_DMA_CH_STRUCT_PTR[chHandle].basic_cfg[0u] &= (uint8)(~CY_DMA_CH_BASIC_CFG_WORK_SEP);
 444              		.loc 1 285 0
 445 003e FB79     		ldrb	r3, [r7, #7]	@ zero_extendqisi2
 446 0040 1A01     		lsls	r2, r3, #4
 447 0042 114B     		ldr	r3, .L36
 448 0044 1344     		add	r3, r3, r2
 449 0046 FA79     		ldrb	r2, [r7, #7]	@ zero_extendqisi2
 450 0048 1101     		lsls	r1, r2, #4
 451 004a 0F4A     		ldr	r2, .L36
 452 004c 0A44     		add	r2, r2, r1
ARM GAS  C:\Users\MANSRO~1\AppData\Local\Temp\ccbHnXVe.s 			page 14


 453 004e 1278     		ldrb	r2, [r2]
 454 0050 D2B2     		uxtb	r2, r2
 455 0052 22F02002 		bic	r2, r2, #32
 456 0056 D2B2     		uxtb	r2, r2
 457 0058 1A70     		strb	r2, [r3]
 458              	.L34:
 286:Generated_Source\PSoC5/CyDmac.c ****         }
 287:Generated_Source\PSoC5/CyDmac.c **** 
 288:Generated_Source\PSoC5/CyDmac.c ****         /* Enable channel */
 289:Generated_Source\PSoC5/CyDmac.c ****         CY_DMA_CH_STRUCT_PTR[chHandle].basic_cfg[0u] |= CY_DMA_CH_BASIC_CFG_EN;
 459              		.loc 1 289 0
 460 005a FB79     		ldrb	r3, [r7, #7]	@ zero_extendqisi2
 461 005c 1A01     		lsls	r2, r3, #4
 462 005e 0A4B     		ldr	r3, .L36
 463 0060 1344     		add	r3, r3, r2
 464 0062 FA79     		ldrb	r2, [r7, #7]	@ zero_extendqisi2
 465 0064 1101     		lsls	r1, r2, #4
 466 0066 084A     		ldr	r2, .L36
 467 0068 0A44     		add	r2, r2, r1
 468 006a 1278     		ldrb	r2, [r2]
 469 006c D2B2     		uxtb	r2, r2
 470 006e 42F00102 		orr	r2, r2, #1
 471 0072 D2B2     		uxtb	r2, r2
 472 0074 1A70     		strb	r2, [r3]
 290:Generated_Source\PSoC5/CyDmac.c **** 
 291:Generated_Source\PSoC5/CyDmac.c ****         status = CYRET_SUCCESS;
 473              		.loc 1 291 0
 474 0076 0023     		movs	r3, #0
 475 0078 FB60     		str	r3, [r7, #12]
 476              	.L32:
 292:Generated_Source\PSoC5/CyDmac.c ****     }
 293:Generated_Source\PSoC5/CyDmac.c **** 
 294:Generated_Source\PSoC5/CyDmac.c ****     return(status);
 477              		.loc 1 294 0
 478 007a FB68     		ldr	r3, [r7, #12]
 295:Generated_Source\PSoC5/CyDmac.c **** }
 479              		.loc 1 295 0
 480 007c 1846     		mov	r0, r3
 481 007e 1437     		adds	r7, r7, #20
 482              		.cfi_def_cfa_offset 4
 483 0080 BD46     		mov	sp, r7
 484              		.cfi_def_cfa_register 13
 485              		@ sp needed
 486 0082 80BC     		pop	{r7}
 487              		.cfi_restore 7
 488              		.cfi_def_cfa_offset 0
 489 0084 7047     		bx	lr
 490              	.L37:
 491 0086 00BF     		.align	2
 492              	.L36:
 493 0088 10700040 		.word	1073770512
 494              		.cfi_endproc
 495              	.LFE6:
 496              		.size	CyDmaChEnable, .-CyDmaChEnable
 497              		.section	.text.CyDmaChDisable,"ax",%progbits
 498              		.align	2
 499              		.global	CyDmaChDisable
ARM GAS  C:\Users\MANSRO~1\AppData\Local\Temp\ccbHnXVe.s 			page 15


 500              		.thumb
 501              		.thumb_func
 502              		.type	CyDmaChDisable, %function
 503              	CyDmaChDisable:
 504              	.LFB7:
 296:Generated_Source\PSoC5/CyDmac.c **** 
 297:Generated_Source\PSoC5/CyDmac.c **** 
 298:Generated_Source\PSoC5/CyDmac.c **** /*******************************************************************************
 299:Generated_Source\PSoC5/CyDmac.c **** * Function Name: CyDmaChDisable
 300:Generated_Source\PSoC5/CyDmac.c **** ****************************************************************************//**
 301:Generated_Source\PSoC5/CyDmac.c **** *
 302:Generated_Source\PSoC5/CyDmac.c **** * Disables the DMA channel. Once this function is called, CyDmaChStatus() may
 303:Generated_Source\PSoC5/CyDmac.c **** * be called to determine when the channel is disabled and which TDs were being
 304:Generated_Source\PSoC5/CyDmac.c **** * executed.
 305:Generated_Source\PSoC5/CyDmac.c **** *
 306:Generated_Source\PSoC5/CyDmac.c **** * If it is currently executing it will allow the current burst to finish
 307:Generated_Source\PSoC5/CyDmac.c **** * naturally.
 308:Generated_Source\PSoC5/CyDmac.c **** *
 309:Generated_Source\PSoC5/CyDmac.c **** * \param chHandle A handle previously returned by \ref CyDmaChAlloc() or \ref
 310:Generated_Source\PSoC5/CyDmac.c **** * DMA_DmaInitalize().
 311:Generated_Source\PSoC5/CyDmac.c **** *
 312:Generated_Source\PSoC5/CyDmac.c **** * \return CYRET_SUCCESS if successful.
 313:Generated_Source\PSoC5/CyDmac.c **** * \return CYRET_BAD_PARAM if chHandle is invalid.
 314:Generated_Source\PSoC5/CyDmac.c **** *
 315:Generated_Source\PSoC5/CyDmac.c **** *******************************************************************************/
 316:Generated_Source\PSoC5/CyDmac.c **** cystatus CyDmaChDisable(uint8 chHandle) 
 317:Generated_Source\PSoC5/CyDmac.c **** {
 505              		.loc 1 317 0
 506              		.cfi_startproc
 507              		@ args = 0, pretend = 0, frame = 16
 508              		@ frame_needed = 1, uses_anonymous_args = 0
 509              		@ link register save eliminated.
 510 0000 80B4     		push	{r7}
 511              		.cfi_def_cfa_offset 4
 512              		.cfi_offset 7, -4
 513 0002 85B0     		sub	sp, sp, #20
 514              		.cfi_def_cfa_offset 24
 515 0004 00AF     		add	r7, sp, #0
 516              		.cfi_def_cfa_register 7
 517 0006 0346     		mov	r3, r0
 518 0008 FB71     		strb	r3, [r7, #7]
 318:Generated_Source\PSoC5/CyDmac.c ****     cystatus status = CYRET_BAD_PARAM;
 519              		.loc 1 318 0
 520 000a 0123     		movs	r3, #1
 521 000c FB60     		str	r3, [r7, #12]
 319:Generated_Source\PSoC5/CyDmac.c **** 
 320:Generated_Source\PSoC5/CyDmac.c ****     if(chHandle < CY_DMA_NUMBEROF_CHANNELS)
 522              		.loc 1 320 0
 523 000e FB79     		ldrb	r3, [r7, #7]	@ zero_extendqisi2
 524 0010 172B     		cmp	r3, #23
 525 0012 1DD8     		bhi	.L39
 321:Generated_Source\PSoC5/CyDmac.c ****     {
 322:Generated_Source\PSoC5/CyDmac.c ****         /***********************************************************************
 323:Generated_Source\PSoC5/CyDmac.c ****         * Should not change configuration information of a DMA channel when it
 324:Generated_Source\PSoC5/CyDmac.c ****         * is active (or vulnerable to becoming active).
 325:Generated_Source\PSoC5/CyDmac.c ****         ***********************************************************************/
 326:Generated_Source\PSoC5/CyDmac.c **** 
ARM GAS  C:\Users\MANSRO~1\AppData\Local\Temp\ccbHnXVe.s 			page 16


 327:Generated_Source\PSoC5/CyDmac.c ****         /* Disable channel */
 328:Generated_Source\PSoC5/CyDmac.c ****         CY_DMA_CH_STRUCT_PTR[chHandle].basic_cfg[0] &= ((uint8) (~CY_DMA_CH_BASIC_CFG_EN));
 526              		.loc 1 328 0
 527 0014 FB79     		ldrb	r3, [r7, #7]	@ zero_extendqisi2
 528 0016 1A01     		lsls	r2, r3, #4
 529 0018 104B     		ldr	r3, .L41
 530 001a 1344     		add	r3, r3, r2
 531 001c FA79     		ldrb	r2, [r7, #7]	@ zero_extendqisi2
 532 001e 1101     		lsls	r1, r2, #4
 533 0020 0E4A     		ldr	r2, .L41
 534 0022 0A44     		add	r2, r2, r1
 535 0024 1278     		ldrb	r2, [r2]
 536 0026 D2B2     		uxtb	r2, r2
 537 0028 22F00102 		bic	r2, r2, #1
 538 002c D2B2     		uxtb	r2, r2
 539 002e 1A70     		strb	r2, [r3]
 329:Generated_Source\PSoC5/CyDmac.c **** 
 330:Generated_Source\PSoC5/CyDmac.c ****         /* Store intermediate and final TD states on top of original TD chain */
 331:Generated_Source\PSoC5/CyDmac.c ****         CY_DMA_CH_STRUCT_PTR[chHandle].basic_cfg[0] &= ((uint8) (~CY_DMA_CH_BASIC_CFG_WORK_SEP));
 540              		.loc 1 331 0
 541 0030 FB79     		ldrb	r3, [r7, #7]	@ zero_extendqisi2
 542 0032 1A01     		lsls	r2, r3, #4
 543 0034 094B     		ldr	r3, .L41
 544 0036 1344     		add	r3, r3, r2
 545 0038 FA79     		ldrb	r2, [r7, #7]	@ zero_extendqisi2
 546 003a 1101     		lsls	r1, r2, #4
 547 003c 074A     		ldr	r2, .L41
 548 003e 0A44     		add	r2, r2, r1
 549 0040 1278     		ldrb	r2, [r2]
 550 0042 D2B2     		uxtb	r2, r2
 551 0044 22F02002 		bic	r2, r2, #32
 552 0048 D2B2     		uxtb	r2, r2
 553 004a 1A70     		strb	r2, [r3]
 332:Generated_Source\PSoC5/CyDmac.c ****         status = CYRET_SUCCESS;
 554              		.loc 1 332 0
 555 004c 0023     		movs	r3, #0
 556 004e FB60     		str	r3, [r7, #12]
 557              	.L39:
 333:Generated_Source\PSoC5/CyDmac.c ****     }
 334:Generated_Source\PSoC5/CyDmac.c **** 
 335:Generated_Source\PSoC5/CyDmac.c ****     return(status);
 558              		.loc 1 335 0
 559 0050 FB68     		ldr	r3, [r7, #12]
 336:Generated_Source\PSoC5/CyDmac.c **** }
 560              		.loc 1 336 0
 561 0052 1846     		mov	r0, r3
 562 0054 1437     		adds	r7, r7, #20
 563              		.cfi_def_cfa_offset 4
 564 0056 BD46     		mov	sp, r7
 565              		.cfi_def_cfa_register 13
 566              		@ sp needed
 567 0058 80BC     		pop	{r7}
 568              		.cfi_restore 7
 569              		.cfi_def_cfa_offset 0
 570 005a 7047     		bx	lr
 571              	.L42:
 572              		.align	2
ARM GAS  C:\Users\MANSRO~1\AppData\Local\Temp\ccbHnXVe.s 			page 17


 573              	.L41:
 574 005c 10700040 		.word	1073770512
 575              		.cfi_endproc
 576              	.LFE7:
 577              		.size	CyDmaChDisable, .-CyDmaChDisable
 578              		.section	.text.CyDmaClearPendingDrq,"ax",%progbits
 579              		.align	2
 580              		.global	CyDmaClearPendingDrq
 581              		.thumb
 582              		.thumb_func
 583              		.type	CyDmaClearPendingDrq, %function
 584              	CyDmaClearPendingDrq:
 585              	.LFB8:
 337:Generated_Source\PSoC5/CyDmac.c **** 
 338:Generated_Source\PSoC5/CyDmac.c **** 
 339:Generated_Source\PSoC5/CyDmac.c **** /*******************************************************************************
 340:Generated_Source\PSoC5/CyDmac.c **** * Function Name: CyDmaClearPendingDrq
 341:Generated_Source\PSoC5/CyDmac.c **** ****************************************************************************//**
 342:Generated_Source\PSoC5/CyDmac.c **** *
 343:Generated_Source\PSoC5/CyDmac.c **** * Clears pending the DMA data request.
 344:Generated_Source\PSoC5/CyDmac.c **** *
 345:Generated_Source\PSoC5/CyDmac.c **** * \param chHandle Handle to the dma channel.
 346:Generated_Source\PSoC5/CyDmac.c **** *
 347:Generated_Source\PSoC5/CyDmac.c **** * \return CYRET_SUCCESS if successful.
 348:Generated_Source\PSoC5/CyDmac.c **** * \return CYRET_BAD_PARAM if chHandle is invalid.
 349:Generated_Source\PSoC5/CyDmac.c **** *
 350:Generated_Source\PSoC5/CyDmac.c **** *******************************************************************************/
 351:Generated_Source\PSoC5/CyDmac.c **** cystatus CyDmaClearPendingDrq(uint8 chHandle) 
 352:Generated_Source\PSoC5/CyDmac.c **** {
 586              		.loc 1 352 0
 587              		.cfi_startproc
 588              		@ args = 0, pretend = 0, frame = 16
 589              		@ frame_needed = 1, uses_anonymous_args = 0
 590              		@ link register save eliminated.
 591 0000 80B4     		push	{r7}
 592              		.cfi_def_cfa_offset 4
 593              		.cfi_offset 7, -4
 594 0002 85B0     		sub	sp, sp, #20
 595              		.cfi_def_cfa_offset 24
 596 0004 00AF     		add	r7, sp, #0
 597              		.cfi_def_cfa_register 7
 598 0006 0346     		mov	r3, r0
 599 0008 FB71     		strb	r3, [r7, #7]
 353:Generated_Source\PSoC5/CyDmac.c ****     cystatus status = CYRET_BAD_PARAM;
 600              		.loc 1 353 0
 601 000a 0123     		movs	r3, #1
 602 000c FB60     		str	r3, [r7, #12]
 354:Generated_Source\PSoC5/CyDmac.c **** 
 355:Generated_Source\PSoC5/CyDmac.c ****     if(chHandle < CY_DMA_NUMBEROF_CHANNELS)
 603              		.loc 1 355 0
 604 000e FB79     		ldrb	r3, [r7, #7]	@ zero_extendqisi2
 605 0010 172B     		cmp	r3, #23
 606 0012 1DD8     		bhi	.L44
 356:Generated_Source\PSoC5/CyDmac.c ****     {
 357:Generated_Source\PSoC5/CyDmac.c ****         CY_DMA_CH_STRUCT_PTR[chHandle].action[0] |= CY_DMA_CPU_TERM_CHAIN;
 607              		.loc 1 357 0
 608 0014 FB79     		ldrb	r3, [r7, #7]	@ zero_extendqisi2
ARM GAS  C:\Users\MANSRO~1\AppData\Local\Temp\ccbHnXVe.s 			page 18


 609 0016 1A01     		lsls	r2, r3, #4
 610 0018 104B     		ldr	r3, .L46
 611 001a 1344     		add	r3, r3, r2
 612 001c FA79     		ldrb	r2, [r7, #7]	@ zero_extendqisi2
 613 001e 1101     		lsls	r1, r2, #4
 614 0020 0E4A     		ldr	r2, .L46
 615 0022 0A44     		add	r2, r2, r1
 616 0024 1279     		ldrb	r2, [r2, #4]
 617 0026 D2B2     		uxtb	r2, r2
 618 0028 42F00402 		orr	r2, r2, #4
 619 002c D2B2     		uxtb	r2, r2
 620 002e 1A71     		strb	r2, [r3, #4]
 358:Generated_Source\PSoC5/CyDmac.c ****         CY_DMA_CH_STRUCT_PTR[chHandle].basic_cfg[0] |= 0x01u;
 621              		.loc 1 358 0
 622 0030 FB79     		ldrb	r3, [r7, #7]	@ zero_extendqisi2
 623 0032 1A01     		lsls	r2, r3, #4
 624 0034 094B     		ldr	r3, .L46
 625 0036 1344     		add	r3, r3, r2
 626 0038 FA79     		ldrb	r2, [r7, #7]	@ zero_extendqisi2
 627 003a 1101     		lsls	r1, r2, #4
 628 003c 074A     		ldr	r2, .L46
 629 003e 0A44     		add	r2, r2, r1
 630 0040 1278     		ldrb	r2, [r2]
 631 0042 D2B2     		uxtb	r2, r2
 632 0044 42F00102 		orr	r2, r2, #1
 633 0048 D2B2     		uxtb	r2, r2
 634 004a 1A70     		strb	r2, [r3]
 359:Generated_Source\PSoC5/CyDmac.c ****         status = CYRET_SUCCESS;
 635              		.loc 1 359 0
 636 004c 0023     		movs	r3, #0
 637 004e FB60     		str	r3, [r7, #12]
 638              	.L44:
 360:Generated_Source\PSoC5/CyDmac.c ****     }
 361:Generated_Source\PSoC5/CyDmac.c **** 
 362:Generated_Source\PSoC5/CyDmac.c ****     return(status);
 639              		.loc 1 362 0
 640 0050 FB68     		ldr	r3, [r7, #12]
 363:Generated_Source\PSoC5/CyDmac.c **** }
 641              		.loc 1 363 0
 642 0052 1846     		mov	r0, r3
 643 0054 1437     		adds	r7, r7, #20
 644              		.cfi_def_cfa_offset 4
 645 0056 BD46     		mov	sp, r7
 646              		.cfi_def_cfa_register 13
 647              		@ sp needed
 648 0058 80BC     		pop	{r7}
 649              		.cfi_restore 7
 650              		.cfi_def_cfa_offset 0
 651 005a 7047     		bx	lr
 652              	.L47:
 653              		.align	2
 654              	.L46:
 655 005c 10700040 		.word	1073770512
 656              		.cfi_endproc
 657              	.LFE8:
 658              		.size	CyDmaClearPendingDrq, .-CyDmaClearPendingDrq
 659              		.section	.text.CyDmaChPriority,"ax",%progbits
ARM GAS  C:\Users\MANSRO~1\AppData\Local\Temp\ccbHnXVe.s 			page 19


 660              		.align	2
 661              		.global	CyDmaChPriority
 662              		.thumb
 663              		.thumb_func
 664              		.type	CyDmaChPriority, %function
 665              	CyDmaChPriority:
 666              	.LFB9:
 364:Generated_Source\PSoC5/CyDmac.c **** 
 365:Generated_Source\PSoC5/CyDmac.c **** 
 366:Generated_Source\PSoC5/CyDmac.c **** /*******************************************************************************
 367:Generated_Source\PSoC5/CyDmac.c **** * Function Name: CyDmaChPriority
 368:Generated_Source\PSoC5/CyDmac.c **** ****************************************************************************//**
 369:Generated_Source\PSoC5/CyDmac.c **** *
 370:Generated_Source\PSoC5/CyDmac.c **** *  Sets the priority of a DMA channel. You can use this function when you want
 371:Generated_Source\PSoC5/CyDmac.c **** *  to change the priority at run time. If the priority remains the same for a
 372:Generated_Source\PSoC5/CyDmac.c **** *  DMA channel, then you can configure the priority in the .cydwr file.
 373:Generated_Source\PSoC5/CyDmac.c **** *
 374:Generated_Source\PSoC5/CyDmac.c **** *  \param chHandle A handle previously returned by \ref CyDmaChAlloc() or \ref
 375:Generated_Source\PSoC5/CyDmac.c **** *  DMA_DmaInitalize().
 376:Generated_Source\PSoC5/CyDmac.c **** *
 377:Generated_Source\PSoC5/CyDmac.c **** *  \param priority Priority to set the channel to, 0 - 7.
 378:Generated_Source\PSoC5/CyDmac.c **** *
 379:Generated_Source\PSoC5/CyDmac.c **** * \return CYRET_SUCCESS if successful.
 380:Generated_Source\PSoC5/CyDmac.c **** *  \return CYRET_BAD_PARAM if chHandle is invalid.
 381:Generated_Source\PSoC5/CyDmac.c **** *
 382:Generated_Source\PSoC5/CyDmac.c **** *******************************************************************************/
 383:Generated_Source\PSoC5/CyDmac.c **** cystatus CyDmaChPriority(uint8 chHandle, uint8 priority) 
 384:Generated_Source\PSoC5/CyDmac.c **** {
 667              		.loc 1 384 0
 668              		.cfi_startproc
 669              		@ args = 0, pretend = 0, frame = 16
 670              		@ frame_needed = 1, uses_anonymous_args = 0
 671              		@ link register save eliminated.
 672 0000 80B4     		push	{r7}
 673              		.cfi_def_cfa_offset 4
 674              		.cfi_offset 7, -4
 675 0002 85B0     		sub	sp, sp, #20
 676              		.cfi_def_cfa_offset 24
 677 0004 00AF     		add	r7, sp, #0
 678              		.cfi_def_cfa_register 7
 679 0006 0346     		mov	r3, r0
 680 0008 0A46     		mov	r2, r1
 681 000a FB71     		strb	r3, [r7, #7]
 682 000c 1346     		mov	r3, r2
 683 000e BB71     		strb	r3, [r7, #6]
 385:Generated_Source\PSoC5/CyDmac.c ****     uint8 value;
 386:Generated_Source\PSoC5/CyDmac.c ****     cystatus status = CYRET_BAD_PARAM;
 684              		.loc 1 386 0
 685 0010 0123     		movs	r3, #1
 686 0012 FB60     		str	r3, [r7, #12]
 387:Generated_Source\PSoC5/CyDmac.c **** 
 388:Generated_Source\PSoC5/CyDmac.c ****     if(chHandle < CY_DMA_NUMBEROF_CHANNELS)
 687              		.loc 1 388 0
 688 0014 FB79     		ldrb	r3, [r7, #7]	@ zero_extendqisi2
 689 0016 172B     		cmp	r3, #23
 690 0018 1BD8     		bhi	.L49
 389:Generated_Source\PSoC5/CyDmac.c ****     {
ARM GAS  C:\Users\MANSRO~1\AppData\Local\Temp\ccbHnXVe.s 			page 20


 390:Generated_Source\PSoC5/CyDmac.c ****         value = CY_DMA_CH_STRUCT_PTR[chHandle].basic_cfg[0u] & ((uint8)(~(0x0Eu)));
 691              		.loc 1 390 0
 692 001a FB79     		ldrb	r3, [r7, #7]	@ zero_extendqisi2
 693 001c 1A01     		lsls	r2, r3, #4
 694 001e 104B     		ldr	r3, .L51
 695 0020 1344     		add	r3, r3, r2
 696 0022 1B78     		ldrb	r3, [r3]
 697 0024 DBB2     		uxtb	r3, r3
 698 0026 23F00E03 		bic	r3, r3, #14
 699 002a FB72     		strb	r3, [r7, #11]
 391:Generated_Source\PSoC5/CyDmac.c **** 
 392:Generated_Source\PSoC5/CyDmac.c ****         CY_DMA_CH_STRUCT_PTR[chHandle].basic_cfg[0u] = value | ((uint8) ((priority & 0x7u) << 0x01u
 700              		.loc 1 392 0
 701 002c FB79     		ldrb	r3, [r7, #7]	@ zero_extendqisi2
 702 002e 1A01     		lsls	r2, r3, #4
 703 0030 0B4B     		ldr	r3, .L51
 704 0032 1344     		add	r3, r3, r2
 705 0034 BA79     		ldrb	r2, [r7, #6]
 706 0036 5200     		lsls	r2, r2, #1
 707 0038 D2B2     		uxtb	r2, r2
 708 003a 52B2     		sxtb	r2, r2
 709 003c 02F00E02 		and	r2, r2, #14
 710 0040 51B2     		sxtb	r1, r2
 711 0042 97F90B20 		ldrsb	r2, [r7, #11]
 712 0046 0A43     		orrs	r2, r2, r1
 713 0048 52B2     		sxtb	r2, r2
 714 004a D2B2     		uxtb	r2, r2
 715 004c 1A70     		strb	r2, [r3]
 393:Generated_Source\PSoC5/CyDmac.c **** 
 394:Generated_Source\PSoC5/CyDmac.c ****         status = CYRET_SUCCESS;
 716              		.loc 1 394 0
 717 004e 0023     		movs	r3, #0
 718 0050 FB60     		str	r3, [r7, #12]
 719              	.L49:
 395:Generated_Source\PSoC5/CyDmac.c ****     }
 396:Generated_Source\PSoC5/CyDmac.c **** 
 397:Generated_Source\PSoC5/CyDmac.c ****     return(status);
 720              		.loc 1 397 0
 721 0052 FB68     		ldr	r3, [r7, #12]
 398:Generated_Source\PSoC5/CyDmac.c **** }
 722              		.loc 1 398 0
 723 0054 1846     		mov	r0, r3
 724 0056 1437     		adds	r7, r7, #20
 725              		.cfi_def_cfa_offset 4
 726 0058 BD46     		mov	sp, r7
 727              		.cfi_def_cfa_register 13
 728              		@ sp needed
 729 005a 80BC     		pop	{r7}
 730              		.cfi_restore 7
 731              		.cfi_def_cfa_offset 0
 732 005c 7047     		bx	lr
 733              	.L52:
 734 005e 00BF     		.align	2
 735              	.L51:
 736 0060 10700040 		.word	1073770512
 737              		.cfi_endproc
 738              	.LFE9:
ARM GAS  C:\Users\MANSRO~1\AppData\Local\Temp\ccbHnXVe.s 			page 21


 739              		.size	CyDmaChPriority, .-CyDmaChPriority
 740              		.section	.text.CyDmaChSetExtendedAddress,"ax",%progbits
 741              		.align	2
 742              		.global	CyDmaChSetExtendedAddress
 743              		.thumb
 744              		.thumb_func
 745              		.type	CyDmaChSetExtendedAddress, %function
 746              	CyDmaChSetExtendedAddress:
 747              	.LFB10:
 399:Generated_Source\PSoC5/CyDmac.c **** 
 400:Generated_Source\PSoC5/CyDmac.c **** 
 401:Generated_Source\PSoC5/CyDmac.c **** /*******************************************************************************
 402:Generated_Source\PSoC5/CyDmac.c **** * Function Name: CyDmaChSetExtendedAddress
 403:Generated_Source\PSoC5/CyDmac.c **** ****************************************************************************//**
 404:Generated_Source\PSoC5/CyDmac.c **** *
 405:Generated_Source\PSoC5/CyDmac.c **** *  Sets the high 16 bits of the source and destination addresses for the DMA
 406:Generated_Source\PSoC5/CyDmac.c **** *  channel (valid for all TDs in the chain).
 407:Generated_Source\PSoC5/CyDmac.c **** *
 408:Generated_Source\PSoC5/CyDmac.c **** *  \param chHandle A handle previously returned by \ref CyDmaChAlloc() or \ref
 409:Generated_Source\PSoC5/CyDmac.c **** *  DMA_DmaInitalize().
 410:Generated_Source\PSoC5/CyDmac.c **** *
 411:Generated_Source\PSoC5/CyDmac.c **** *  \param source Upper 16 bit address of the DMA transfer source.
 412:Generated_Source\PSoC5/CyDmac.c **** *
 413:Generated_Source\PSoC5/CyDmac.c **** *  \param destination Upper 16 bit address of the DMA transfer destination.
 414:Generated_Source\PSoC5/CyDmac.c **** *
 415:Generated_Source\PSoC5/CyDmac.c **** * \return CYRET_SUCCESS if successful.
 416:Generated_Source\PSoC5/CyDmac.c **** * \return CYRET_BAD_PARAM if chHandle is invalid.
 417:Generated_Source\PSoC5/CyDmac.c **** *
 418:Generated_Source\PSoC5/CyDmac.c **** *******************************************************************************/
 419:Generated_Source\PSoC5/CyDmac.c **** cystatus CyDmaChSetExtendedAddress(uint8 chHandle, uint16 source, uint16 destination) \
 420:Generated_Source\PSoC5/CyDmac.c ****     
 421:Generated_Source\PSoC5/CyDmac.c **** {
 748              		.loc 1 421 0
 749              		.cfi_startproc
 750              		@ args = 0, pretend = 0, frame = 16
 751              		@ frame_needed = 1, uses_anonymous_args = 0
 752              		@ link register save eliminated.
 753 0000 80B4     		push	{r7}
 754              		.cfi_def_cfa_offset 4
 755              		.cfi_offset 7, -4
 756 0002 85B0     		sub	sp, sp, #20
 757              		.cfi_def_cfa_offset 24
 758 0004 00AF     		add	r7, sp, #0
 759              		.cfi_def_cfa_register 7
 760 0006 0346     		mov	r3, r0
 761 0008 FB71     		strb	r3, [r7, #7]
 762 000a 0B46     		mov	r3, r1	@ movhi
 763 000c BB80     		strh	r3, [r7, #4]	@ movhi
 764 000e 1346     		mov	r3, r2	@ movhi
 765 0010 7B80     		strh	r3, [r7, #2]	@ movhi
 422:Generated_Source\PSoC5/CyDmac.c ****     cystatus status = CYRET_BAD_PARAM;
 766              		.loc 1 422 0
 767 0012 0123     		movs	r3, #1
 768 0014 FB60     		str	r3, [r7, #12]
 423:Generated_Source\PSoC5/CyDmac.c ****     reg16 *convert;
 424:Generated_Source\PSoC5/CyDmac.c **** 
 425:Generated_Source\PSoC5/CyDmac.c ****     #if(CY_PSOC5)
ARM GAS  C:\Users\MANSRO~1\AppData\Local\Temp\ccbHnXVe.s 			page 22


 426:Generated_Source\PSoC5/CyDmac.c **** 
 427:Generated_Source\PSoC5/CyDmac.c ****         /* 0x1FFF8000-0x1FFFFFFF needs to use alias at 0x20008000-0x2000FFFF */
 428:Generated_Source\PSoC5/CyDmac.c ****         if(source == 0x1FFFu)
 769              		.loc 1 428 0
 770 0016 BB88     		ldrh	r3, [r7, #4]
 771 0018 41F6FF72 		movw	r2, #8191
 772 001c 9342     		cmp	r3, r2
 773 001e 02D1     		bne	.L54
 429:Generated_Source\PSoC5/CyDmac.c ****         {
 430:Generated_Source\PSoC5/CyDmac.c ****             source = 0x2000u;
 774              		.loc 1 430 0
 775 0020 4FF40053 		mov	r3, #8192
 776 0024 BB80     		strh	r3, [r7, #4]	@ movhi
 777              	.L54:
 431:Generated_Source\PSoC5/CyDmac.c ****         }
 432:Generated_Source\PSoC5/CyDmac.c **** 
 433:Generated_Source\PSoC5/CyDmac.c ****         if(destination == 0x1FFFu)
 778              		.loc 1 433 0
 779 0026 7B88     		ldrh	r3, [r7, #2]
 780 0028 41F6FF72 		movw	r2, #8191
 781 002c 9342     		cmp	r3, r2
 782 002e 02D1     		bne	.L55
 434:Generated_Source\PSoC5/CyDmac.c ****         {
 435:Generated_Source\PSoC5/CyDmac.c ****             destination = 0x2000u;
 783              		.loc 1 435 0
 784 0030 4FF40053 		mov	r3, #8192
 785 0034 7B80     		strh	r3, [r7, #2]	@ movhi
 786              	.L55:
 436:Generated_Source\PSoC5/CyDmac.c ****         }
 437:Generated_Source\PSoC5/CyDmac.c **** 
 438:Generated_Source\PSoC5/CyDmac.c ****     #endif  /* (CY_PSOC5) */
 439:Generated_Source\PSoC5/CyDmac.c **** 
 440:Generated_Source\PSoC5/CyDmac.c **** 
 441:Generated_Source\PSoC5/CyDmac.c ****     if(chHandle < CY_DMA_NUMBEROF_CHANNELS)
 787              		.loc 1 441 0
 788 0036 FB79     		ldrb	r3, [r7, #7]	@ zero_extendqisi2
 789 0038 172B     		cmp	r3, #23
 790 003a 17D8     		bhi	.L56
 442:Generated_Source\PSoC5/CyDmac.c ****     {
 443:Generated_Source\PSoC5/CyDmac.c ****         /* Set source address */
 444:Generated_Source\PSoC5/CyDmac.c ****         convert = (reg16 *) &CY_DMA_CFGMEM_STRUCT_PTR[chHandle].CFG1[0];
 791              		.loc 1 444 0
 792 003c FB79     		ldrb	r3, [r7, #7]	@ zero_extendqisi2
 793 003e DB00     		lsls	r3, r3, #3
 794 0040 03F18043 		add	r3, r3, #1073741824
 795 0044 03F5EC43 		add	r3, r3, #30208
 796 0048 0433     		adds	r3, r3, #4
 797 004a BB60     		str	r3, [r7, #8]
 445:Generated_Source\PSoC5/CyDmac.c ****         CY_SET_REG16(convert, source);
 798              		.loc 1 445 0
 799 004c BB68     		ldr	r3, [r7, #8]
 800 004e BA88     		ldrh	r2, [r7, #4]	@ movhi
 801 0050 1A80     		strh	r2, [r3]	@ movhi
 446:Generated_Source\PSoC5/CyDmac.c **** 
 447:Generated_Source\PSoC5/CyDmac.c ****         /* Set destination address */
 448:Generated_Source\PSoC5/CyDmac.c ****         convert = (reg16 *) &CY_DMA_CFGMEM_STRUCT_PTR[chHandle].CFG1[2u];
 802              		.loc 1 448 0
ARM GAS  C:\Users\MANSRO~1\AppData\Local\Temp\ccbHnXVe.s 			page 23


 803 0052 FB79     		ldrb	r3, [r7, #7]	@ zero_extendqisi2
 804 0054 DB00     		lsls	r3, r3, #3
 805 0056 03F18043 		add	r3, r3, #1073741824
 806 005a 03F5EC43 		add	r3, r3, #30208
 807 005e 0633     		adds	r3, r3, #6
 808 0060 BB60     		str	r3, [r7, #8]
 449:Generated_Source\PSoC5/CyDmac.c ****         CY_SET_REG16(convert, destination);
 809              		.loc 1 449 0
 810 0062 BB68     		ldr	r3, [r7, #8]
 811 0064 7A88     		ldrh	r2, [r7, #2]	@ movhi
 812 0066 1A80     		strh	r2, [r3]	@ movhi
 450:Generated_Source\PSoC5/CyDmac.c ****         status = CYRET_SUCCESS;
 813              		.loc 1 450 0
 814 0068 0023     		movs	r3, #0
 815 006a FB60     		str	r3, [r7, #12]
 816              	.L56:
 451:Generated_Source\PSoC5/CyDmac.c ****     }
 452:Generated_Source\PSoC5/CyDmac.c **** 
 453:Generated_Source\PSoC5/CyDmac.c ****     return(status);
 817              		.loc 1 453 0
 818 006c FB68     		ldr	r3, [r7, #12]
 454:Generated_Source\PSoC5/CyDmac.c **** }
 819              		.loc 1 454 0
 820 006e 1846     		mov	r0, r3
 821 0070 1437     		adds	r7, r7, #20
 822              		.cfi_def_cfa_offset 4
 823 0072 BD46     		mov	sp, r7
 824              		.cfi_def_cfa_register 13
 825              		@ sp needed
 826 0074 80BC     		pop	{r7}
 827              		.cfi_restore 7
 828              		.cfi_def_cfa_offset 0
 829 0076 7047     		bx	lr
 830              		.cfi_endproc
 831              	.LFE10:
 832              		.size	CyDmaChSetExtendedAddress, .-CyDmaChSetExtendedAddress
 833              		.section	.text.CyDmaChSetInitialTd,"ax",%progbits
 834              		.align	2
 835              		.global	CyDmaChSetInitialTd
 836              		.thumb
 837              		.thumb_func
 838              		.type	CyDmaChSetInitialTd, %function
 839              	CyDmaChSetInitialTd:
 840              	.LFB11:
 455:Generated_Source\PSoC5/CyDmac.c **** 
 456:Generated_Source\PSoC5/CyDmac.c **** 
 457:Generated_Source\PSoC5/CyDmac.c **** /*******************************************************************************
 458:Generated_Source\PSoC5/CyDmac.c **** * Function Name: CyDmaChSetInitialTd
 459:Generated_Source\PSoC5/CyDmac.c **** ****************************************************************************//**
 460:Generated_Source\PSoC5/CyDmac.c **** *
 461:Generated_Source\PSoC5/CyDmac.c **** * Sets the initial TD to be executed for the channel when the \ref CyDmaChEnable()
 462:Generated_Source\PSoC5/CyDmac.c **** * function is called.
 463:Generated_Source\PSoC5/CyDmac.c **** *
 464:Generated_Source\PSoC5/CyDmac.c **** * \param chHandle A handle previously returned by \ref CyDmaChAlloc() or
 465:Generated_Source\PSoC5/CyDmac.c **** * \ref DMA_DmaInitialize().
 466:Generated_Source\PSoC5/CyDmac.c **** *
 467:Generated_Source\PSoC5/CyDmac.c **** * \param startTd Set the TD index as the first TD associated with the
ARM GAS  C:\Users\MANSRO~1\AppData\Local\Temp\ccbHnXVe.s 			page 24


 468:Generated_Source\PSoC5/CyDmac.c **** * channel. Zero is a valid TD index.
 469:Generated_Source\PSoC5/CyDmac.c **** *
 470:Generated_Source\PSoC5/CyDmac.c **** * \return CYRET_SUCCESS if successful.
 471:Generated_Source\PSoC5/CyDmac.c **** * \return CYRET_BAD_PARAM if chHandle is invalid.
 472:Generated_Source\PSoC5/CyDmac.c **** *
 473:Generated_Source\PSoC5/CyDmac.c **** *******************************************************************************/
 474:Generated_Source\PSoC5/CyDmac.c **** cystatus CyDmaChSetInitialTd(uint8 chHandle, uint8 startTd) 
 475:Generated_Source\PSoC5/CyDmac.c **** {
 841              		.loc 1 475 0
 842              		.cfi_startproc
 843              		@ args = 0, pretend = 0, frame = 16
 844              		@ frame_needed = 1, uses_anonymous_args = 0
 845              		@ link register save eliminated.
 846 0000 80B4     		push	{r7}
 847              		.cfi_def_cfa_offset 4
 848              		.cfi_offset 7, -4
 849 0002 85B0     		sub	sp, sp, #20
 850              		.cfi_def_cfa_offset 24
 851 0004 00AF     		add	r7, sp, #0
 852              		.cfi_def_cfa_register 7
 853 0006 0346     		mov	r3, r0
 854 0008 0A46     		mov	r2, r1
 855 000a FB71     		strb	r3, [r7, #7]
 856 000c 1346     		mov	r3, r2
 857 000e BB71     		strb	r3, [r7, #6]
 476:Generated_Source\PSoC5/CyDmac.c ****     cystatus status = CYRET_BAD_PARAM;
 858              		.loc 1 476 0
 859 0010 0123     		movs	r3, #1
 860 0012 FB60     		str	r3, [r7, #12]
 477:Generated_Source\PSoC5/CyDmac.c **** 
 478:Generated_Source\PSoC5/CyDmac.c ****     if(chHandle < CY_DMA_NUMBEROF_CHANNELS)
 861              		.loc 1 478 0
 862 0014 FB79     		ldrb	r3, [r7, #7]	@ zero_extendqisi2
 863 0016 172B     		cmp	r3, #23
 864 0018 07D8     		bhi	.L59
 479:Generated_Source\PSoC5/CyDmac.c ****     {
 480:Generated_Source\PSoC5/CyDmac.c ****         CY_DMA_CH_STRUCT_PTR[chHandle].basic_status[1u] = startTd;
 865              		.loc 1 480 0
 866 001a FB79     		ldrb	r3, [r7, #7]	@ zero_extendqisi2
 867 001c 1A01     		lsls	r2, r3, #4
 868 001e 064B     		ldr	r3, .L61
 869 0020 1344     		add	r3, r3, r2
 870 0022 BA79     		ldrb	r2, [r7, #6]
 871 0024 5A72     		strb	r2, [r3, #9]
 481:Generated_Source\PSoC5/CyDmac.c ****         status = CYRET_SUCCESS;
 872              		.loc 1 481 0
 873 0026 0023     		movs	r3, #0
 874 0028 FB60     		str	r3, [r7, #12]
 875              	.L59:
 482:Generated_Source\PSoC5/CyDmac.c ****     }
 483:Generated_Source\PSoC5/CyDmac.c **** 
 484:Generated_Source\PSoC5/CyDmac.c ****     return(status);
 876              		.loc 1 484 0
 877 002a FB68     		ldr	r3, [r7, #12]
 485:Generated_Source\PSoC5/CyDmac.c **** }
 878              		.loc 1 485 0
 879 002c 1846     		mov	r0, r3
ARM GAS  C:\Users\MANSRO~1\AppData\Local\Temp\ccbHnXVe.s 			page 25


 880 002e 1437     		adds	r7, r7, #20
 881              		.cfi_def_cfa_offset 4
 882 0030 BD46     		mov	sp, r7
 883              		.cfi_def_cfa_register 13
 884              		@ sp needed
 885 0032 80BC     		pop	{r7}
 886              		.cfi_restore 7
 887              		.cfi_def_cfa_offset 0
 888 0034 7047     		bx	lr
 889              	.L62:
 890 0036 00BF     		.align	2
 891              	.L61:
 892 0038 10700040 		.word	1073770512
 893              		.cfi_endproc
 894              	.LFE11:
 895              		.size	CyDmaChSetInitialTd, .-CyDmaChSetInitialTd
 896              		.section	.text.CyDmaChSetRequest,"ax",%progbits
 897              		.align	2
 898              		.global	CyDmaChSetRequest
 899              		.thumb
 900              		.thumb_func
 901              		.type	CyDmaChSetRequest, %function
 902              	CyDmaChSetRequest:
 903              	.LFB12:
 486:Generated_Source\PSoC5/CyDmac.c **** 
 487:Generated_Source\PSoC5/CyDmac.c **** 
 488:Generated_Source\PSoC5/CyDmac.c **** /*******************************************************************************
 489:Generated_Source\PSoC5/CyDmac.c **** * Function Name: CyDmaChSetRequest
 490:Generated_Source\PSoC5/CyDmac.c **** ****************************************************************************//**
 491:Generated_Source\PSoC5/CyDmac.c **** *
 492:Generated_Source\PSoC5/CyDmac.c **** *  Allows the caller to terminate a chain of TDs, terminate one TD, or create a
 493:Generated_Source\PSoC5/CyDmac.c **** *  direct request to start the DMA channel.
 494:Generated_Source\PSoC5/CyDmac.c **** *
 495:Generated_Source\PSoC5/CyDmac.c **** *  \param chHandle A handle previously returned by \ref CyDmaChAlloc() or \ref
 496:Generated_Source\PSoC5/CyDmac.c **** *  DMA_DmaInitalize().
 497:Generated_Source\PSoC5/CyDmac.c **** *
 498:Generated_Source\PSoC5/CyDmac.c **** *  \param request One of the following constants. Each of the constants is a
 499:Generated_Source\PSoC5/CyDmac.c **** *  three-bit value.
 500:Generated_Source\PSoC5/CyDmac.c **** *   CPU_REQ         - Create a direct request to start the DMA channel
 501:Generated_Source\PSoC5/CyDmac.c **** *   CPU_TERM_TD     - Terminate one TD
 502:Generated_Source\PSoC5/CyDmac.c **** *   CPU_TERM_CHAIN  - Terminate a chain of TDs
 503:Generated_Source\PSoC5/CyDmac.c **** *
 504:Generated_Source\PSoC5/CyDmac.c **** * \return CYRET_SUCCESS if successful.
 505:Generated_Source\PSoC5/CyDmac.c **** * \return CYRET_BAD_PARAM if chHandle is invalid.
 506:Generated_Source\PSoC5/CyDmac.c **** *
 507:Generated_Source\PSoC5/CyDmac.c **** *******************************************************************************/
 508:Generated_Source\PSoC5/CyDmac.c **** cystatus CyDmaChSetRequest(uint8 chHandle, uint8 request) 
 509:Generated_Source\PSoC5/CyDmac.c **** {
 904              		.loc 1 509 0
 905              		.cfi_startproc
 906              		@ args = 0, pretend = 0, frame = 16
 907              		@ frame_needed = 1, uses_anonymous_args = 0
 908              		@ link register save eliminated.
 909 0000 80B4     		push	{r7}
 910              		.cfi_def_cfa_offset 4
 911              		.cfi_offset 7, -4
 912 0002 85B0     		sub	sp, sp, #20
ARM GAS  C:\Users\MANSRO~1\AppData\Local\Temp\ccbHnXVe.s 			page 26


 913              		.cfi_def_cfa_offset 24
 914 0004 00AF     		add	r7, sp, #0
 915              		.cfi_def_cfa_register 7
 916 0006 0346     		mov	r3, r0
 917 0008 0A46     		mov	r2, r1
 918 000a FB71     		strb	r3, [r7, #7]
 919 000c 1346     		mov	r3, r2
 920 000e BB71     		strb	r3, [r7, #6]
 510:Generated_Source\PSoC5/CyDmac.c ****     cystatus status = CYRET_BAD_PARAM;
 921              		.loc 1 510 0
 922 0010 0123     		movs	r3, #1
 923 0012 FB60     		str	r3, [r7, #12]
 511:Generated_Source\PSoC5/CyDmac.c **** 
 512:Generated_Source\PSoC5/CyDmac.c ****     if(chHandle < CY_DMA_NUMBEROF_CHANNELS)
 924              		.loc 1 512 0
 925 0014 FB79     		ldrb	r3, [r7, #7]	@ zero_extendqisi2
 926 0016 172B     		cmp	r3, #23
 927 0018 15D8     		bhi	.L64
 513:Generated_Source\PSoC5/CyDmac.c ****     {
 514:Generated_Source\PSoC5/CyDmac.c ****         CY_DMA_CH_STRUCT_PTR[chHandle].action[0u] |= (request & (CPU_REQ | CPU_TERM_TD | CPU_TERM_C
 928              		.loc 1 514 0
 929 001a FB79     		ldrb	r3, [r7, #7]	@ zero_extendqisi2
 930 001c 1A01     		lsls	r2, r3, #4
 931 001e 0D4B     		ldr	r3, .L66
 932 0020 1344     		add	r3, r3, r2
 933 0022 FA79     		ldrb	r2, [r7, #7]	@ zero_extendqisi2
 934 0024 1101     		lsls	r1, r2, #4
 935 0026 0B4A     		ldr	r2, .L66
 936 0028 0A44     		add	r2, r2, r1
 937 002a 1279     		ldrb	r2, [r2, #4]
 938 002c D2B2     		uxtb	r2, r2
 939 002e 51B2     		sxtb	r1, r2
 940 0030 97F90620 		ldrsb	r2, [r7, #6]
 941 0034 02F00702 		and	r2, r2, #7
 942 0038 52B2     		sxtb	r2, r2
 943 003a 0A43     		orrs	r2, r2, r1
 944 003c 52B2     		sxtb	r2, r2
 945 003e D2B2     		uxtb	r2, r2
 946 0040 1A71     		strb	r2, [r3, #4]
 515:Generated_Source\PSoC5/CyDmac.c ****         status = CYRET_SUCCESS;
 947              		.loc 1 515 0
 948 0042 0023     		movs	r3, #0
 949 0044 FB60     		str	r3, [r7, #12]
 950              	.L64:
 516:Generated_Source\PSoC5/CyDmac.c ****     }
 517:Generated_Source\PSoC5/CyDmac.c **** 
 518:Generated_Source\PSoC5/CyDmac.c ****     return(status);
 951              		.loc 1 518 0
 952 0046 FB68     		ldr	r3, [r7, #12]
 519:Generated_Source\PSoC5/CyDmac.c **** }
 953              		.loc 1 519 0
 954 0048 1846     		mov	r0, r3
 955 004a 1437     		adds	r7, r7, #20
 956              		.cfi_def_cfa_offset 4
 957 004c BD46     		mov	sp, r7
 958              		.cfi_def_cfa_register 13
 959              		@ sp needed
ARM GAS  C:\Users\MANSRO~1\AppData\Local\Temp\ccbHnXVe.s 			page 27


 960 004e 80BC     		pop	{r7}
 961              		.cfi_restore 7
 962              		.cfi_def_cfa_offset 0
 963 0050 7047     		bx	lr
 964              	.L67:
 965 0052 00BF     		.align	2
 966              	.L66:
 967 0054 10700040 		.word	1073770512
 968              		.cfi_endproc
 969              	.LFE12:
 970              		.size	CyDmaChSetRequest, .-CyDmaChSetRequest
 971              		.section	.text.CyDmaChGetRequest,"ax",%progbits
 972              		.align	2
 973              		.global	CyDmaChGetRequest
 974              		.thumb
 975              		.thumb_func
 976              		.type	CyDmaChGetRequest, %function
 977              	CyDmaChGetRequest:
 978              	.LFB13:
 520:Generated_Source\PSoC5/CyDmac.c **** 
 521:Generated_Source\PSoC5/CyDmac.c **** 
 522:Generated_Source\PSoC5/CyDmac.c **** /*******************************************************************************
 523:Generated_Source\PSoC5/CyDmac.c **** * Function Name: CyDmaChGetRequest
 524:Generated_Source\PSoC5/CyDmac.c **** ****************************************************************************//**
 525:Generated_Source\PSoC5/CyDmac.c **** *
 526:Generated_Source\PSoC5/CyDmac.c **** * This function allows the caller of \ref CyDmaChSetRequest() to determine if the
 527:Generated_Source\PSoC5/CyDmac.c **** * request was completed.
 528:Generated_Source\PSoC5/CyDmac.c **** *
 529:Generated_Source\PSoC5/CyDmac.c **** * \param chHandle A handle previously returned by \ref CyDmaChAlloc() or \ref
 530:Generated_Source\PSoC5/CyDmac.c **** * DMA_DmaInitalize().
 531:Generated_Source\PSoC5/CyDmac.c **** *
 532:Generated_Source\PSoC5/CyDmac.c **** * \return Returns a three-bit field, corresponding to the three bits of the
 533:Generated_Source\PSoC5/CyDmac.c **** * request, which describes the state of the previously posted request. If the
 534:Generated_Source\PSoC5/CyDmac.c **** * value is zero, the request was completed. CY_DMA_INVALID_CHANNEL if the handle
 535:Generated_Source\PSoC5/CyDmac.c **** * is invalid.
 536:Generated_Source\PSoC5/CyDmac.c **** *
 537:Generated_Source\PSoC5/CyDmac.c **** *******************************************************************************/
 538:Generated_Source\PSoC5/CyDmac.c **** cystatus CyDmaChGetRequest(uint8 chHandle) 
 539:Generated_Source\PSoC5/CyDmac.c **** {
 979              		.loc 1 539 0
 980              		.cfi_startproc
 981              		@ args = 0, pretend = 0, frame = 16
 982              		@ frame_needed = 1, uses_anonymous_args = 0
 983              		@ link register save eliminated.
 984 0000 80B4     		push	{r7}
 985              		.cfi_def_cfa_offset 4
 986              		.cfi_offset 7, -4
 987 0002 85B0     		sub	sp, sp, #20
 988              		.cfi_def_cfa_offset 24
 989 0004 00AF     		add	r7, sp, #0
 990              		.cfi_def_cfa_register 7
 991 0006 0346     		mov	r3, r0
 992 0008 FB71     		strb	r3, [r7, #7]
 540:Generated_Source\PSoC5/CyDmac.c ****     cystatus status = CY_DMA_INVALID_CHANNEL;
 993              		.loc 1 540 0
 994 000a FF23     		movs	r3, #255
 995 000c FB60     		str	r3, [r7, #12]
ARM GAS  C:\Users\MANSRO~1\AppData\Local\Temp\ccbHnXVe.s 			page 28


 541:Generated_Source\PSoC5/CyDmac.c **** 
 542:Generated_Source\PSoC5/CyDmac.c ****     if(chHandle < CY_DMA_NUMBEROF_CHANNELS)
 996              		.loc 1 542 0
 997 000e FB79     		ldrb	r3, [r7, #7]	@ zero_extendqisi2
 998 0010 172B     		cmp	r3, #23
 999 0012 08D8     		bhi	.L69
 543:Generated_Source\PSoC5/CyDmac.c ****     {
 544:Generated_Source\PSoC5/CyDmac.c ****         status = (cystatus) ((uint32)CY_DMA_CH_STRUCT_PTR[chHandle].action[0u] &
 1000              		.loc 1 544 0
 1001 0014 FB79     		ldrb	r3, [r7, #7]	@ zero_extendqisi2
 1002 0016 1A01     		lsls	r2, r3, #4
 1003 0018 064B     		ldr	r3, .L71
 1004 001a 1344     		add	r3, r3, r2
 1005 001c 1B79     		ldrb	r3, [r3, #4]
 1006 001e DBB2     		uxtb	r3, r3
 1007 0020 03F00703 		and	r3, r3, #7
 1008 0024 FB60     		str	r3, [r7, #12]
 1009              	.L69:
 545:Generated_Source\PSoC5/CyDmac.c ****                             (uint32)(CY_DMA_CPU_REQ | CY_DMA_CPU_TERM_TD | CY_DMA_CPU_TERM_CHAIN));
 546:Generated_Source\PSoC5/CyDmac.c ****     }
 547:Generated_Source\PSoC5/CyDmac.c **** 
 548:Generated_Source\PSoC5/CyDmac.c ****     return(status);
 1010              		.loc 1 548 0
 1011 0026 FB68     		ldr	r3, [r7, #12]
 549:Generated_Source\PSoC5/CyDmac.c **** }
 1012              		.loc 1 549 0
 1013 0028 1846     		mov	r0, r3
 1014 002a 1437     		adds	r7, r7, #20
 1015              		.cfi_def_cfa_offset 4
 1016 002c BD46     		mov	sp, r7
 1017              		.cfi_def_cfa_register 13
 1018              		@ sp needed
 1019 002e 80BC     		pop	{r7}
 1020              		.cfi_restore 7
 1021              		.cfi_def_cfa_offset 0
 1022 0030 7047     		bx	lr
 1023              	.L72:
 1024 0032 00BF     		.align	2
 1025              	.L71:
 1026 0034 10700040 		.word	1073770512
 1027              		.cfi_endproc
 1028              	.LFE13:
 1029              		.size	CyDmaChGetRequest, .-CyDmaChGetRequest
 1030              		.section	.text.CyDmaChStatus,"ax",%progbits
 1031              		.align	2
 1032              		.global	CyDmaChStatus
 1033              		.thumb
 1034              		.thumb_func
 1035              		.type	CyDmaChStatus, %function
 1036              	CyDmaChStatus:
 1037              	.LFB14:
 550:Generated_Source\PSoC5/CyDmac.c **** 
 551:Generated_Source\PSoC5/CyDmac.c **** 
 552:Generated_Source\PSoC5/CyDmac.c **** /*******************************************************************************
 553:Generated_Source\PSoC5/CyDmac.c **** * Function Name: CyDmaChStatus
 554:Generated_Source\PSoC5/CyDmac.c **** ****************************************************************************//**
 555:Generated_Source\PSoC5/CyDmac.c **** *
ARM GAS  C:\Users\MANSRO~1\AppData\Local\Temp\ccbHnXVe.s 			page 29


 556:Generated_Source\PSoC5/CyDmac.c **** *  Determines the status of the DMA channel.
 557:Generated_Source\PSoC5/CyDmac.c **** *
 558:Generated_Source\PSoC5/CyDmac.c **** *  \param chHandle A handle previously returned by \ref CyDmaChAlloc() or \ref
 559:Generated_Source\PSoC5/CyDmac.c **** *  DMA_DmaInitalize().
 560:Generated_Source\PSoC5/CyDmac.c **** *
 561:Generated_Source\PSoC5/CyDmac.c **** *  \param currentTd The address to store the index of the current TD. Can be NULL
 562:Generated_Source\PSoC5/CyDmac.c **** *  if the value is not needed.
 563:Generated_Source\PSoC5/CyDmac.c **** *
 564:Generated_Source\PSoC5/CyDmac.c **** *  \param state The address to store the state of the channel. Can be NULL if the
 565:Generated_Source\PSoC5/CyDmac.c **** *  value is not needed.
 566:Generated_Source\PSoC5/CyDmac.c **** *
 567:Generated_Source\PSoC5/CyDmac.c **** *   STATUS_TD_ACTIVE
 568:Generated_Source\PSoC5/CyDmac.c **** *    \param 0: Channel is not currently being serviced by DMAC
 569:Generated_Source\PSoC5/CyDmac.c **** *    \param 1: Channel is currently being serviced by DMAC
 570:Generated_Source\PSoC5/CyDmac.c **** *
 571:Generated_Source\PSoC5/CyDmac.c **** *   STATUS_CHAIN_ACTIVE
 572:Generated_Source\PSoC5/CyDmac.c **** *    \param 0: TD chain is inactive; either no DMA requests have triggered a new chain
 573:Generated_Source\PSoC5/CyDmac.c **** *       or the previous chain has completed.
 574:Generated_Source\PSoC5/CyDmac.c **** *    \param 1: TD chain has been triggered by a DMA request
 575:Generated_Source\PSoC5/CyDmac.c **** *
 576:Generated_Source\PSoC5/CyDmac.c **** * \return CYRET_SUCCESS if successful.
 577:Generated_Source\PSoC5/CyDmac.c **** * \return CYRET_BAD_PARAM if chHandle is invalid.
 578:Generated_Source\PSoC5/CyDmac.c **** *
 579:Generated_Source\PSoC5/CyDmac.c **** * Theory:
 580:Generated_Source\PSoC5/CyDmac.c **** *   The caller can check on the activity of the Current TD and the Chain.
 581:Generated_Source\PSoC5/CyDmac.c **** *
 582:Generated_Source\PSoC5/CyDmac.c **** *******************************************************************************/
 583:Generated_Source\PSoC5/CyDmac.c **** cystatus CyDmaChStatus(uint8 chHandle, uint8 * currentTd, uint8 * state) 
 584:Generated_Source\PSoC5/CyDmac.c **** {
 1038              		.loc 1 584 0
 1039              		.cfi_startproc
 1040              		@ args = 0, pretend = 0, frame = 24
 1041              		@ frame_needed = 1, uses_anonymous_args = 0
 1042              		@ link register save eliminated.
 1043 0000 80B4     		push	{r7}
 1044              		.cfi_def_cfa_offset 4
 1045              		.cfi_offset 7, -4
 1046 0002 87B0     		sub	sp, sp, #28
 1047              		.cfi_def_cfa_offset 32
 1048 0004 00AF     		add	r7, sp, #0
 1049              		.cfi_def_cfa_register 7
 1050 0006 0346     		mov	r3, r0
 1051 0008 B960     		str	r1, [r7, #8]
 1052 000a 7A60     		str	r2, [r7, #4]
 1053 000c FB73     		strb	r3, [r7, #15]
 585:Generated_Source\PSoC5/CyDmac.c ****     cystatus status = CYRET_BAD_PARAM;
 1054              		.loc 1 585 0
 1055 000e 0123     		movs	r3, #1
 1056 0010 7B61     		str	r3, [r7, #20]
 586:Generated_Source\PSoC5/CyDmac.c **** 
 587:Generated_Source\PSoC5/CyDmac.c ****     if(chHandle < CY_DMA_NUMBEROF_CHANNELS)
 1057              		.loc 1 587 0
 1058 0012 FB7B     		ldrb	r3, [r7, #15]	@ zero_extendqisi2
 1059 0014 172B     		cmp	r3, #23
 1060 0016 1AD8     		bhi	.L74
 588:Generated_Source\PSoC5/CyDmac.c ****     {
 589:Generated_Source\PSoC5/CyDmac.c ****         if(NULL != currentTd)
ARM GAS  C:\Users\MANSRO~1\AppData\Local\Temp\ccbHnXVe.s 			page 30


 1061              		.loc 1 589 0
 1062 0018 BB68     		ldr	r3, [r7, #8]
 1063 001a 002B     		cmp	r3, #0
 1064 001c 0AD0     		beq	.L75
 590:Generated_Source\PSoC5/CyDmac.c ****         {
 591:Generated_Source\PSoC5/CyDmac.c ****             *currentTd = CY_DMA_CH_STRUCT_PTR[chHandle].basic_status[1] & 0x7Fu;
 1065              		.loc 1 591 0
 1066 001e FB7B     		ldrb	r3, [r7, #15]	@ zero_extendqisi2
 1067 0020 1A01     		lsls	r2, r3, #4
 1068 0022 0E4B     		ldr	r3, .L78
 1069 0024 1344     		add	r3, r3, r2
 1070 0026 5B7A     		ldrb	r3, [r3, #9]
 1071 0028 DBB2     		uxtb	r3, r3
 1072 002a 03F07F03 		and	r3, r3, #127
 1073 002e DAB2     		uxtb	r2, r3
 1074 0030 BB68     		ldr	r3, [r7, #8]
 1075 0032 1A70     		strb	r2, [r3]
 1076              	.L75:
 592:Generated_Source\PSoC5/CyDmac.c ****         }
 593:Generated_Source\PSoC5/CyDmac.c **** 
 594:Generated_Source\PSoC5/CyDmac.c ****         if(NULL != state)
 1077              		.loc 1 594 0
 1078 0034 7B68     		ldr	r3, [r7, #4]
 1079 0036 002B     		cmp	r3, #0
 1080 0038 07D0     		beq	.L76
 595:Generated_Source\PSoC5/CyDmac.c ****         {
 596:Generated_Source\PSoC5/CyDmac.c ****             *state= CY_DMA_CH_STRUCT_PTR[chHandle].basic_status[0];
 1081              		.loc 1 596 0
 1082 003a FB7B     		ldrb	r3, [r7, #15]	@ zero_extendqisi2
 1083 003c 1A01     		lsls	r2, r3, #4
 1084 003e 074B     		ldr	r3, .L78
 1085 0040 1344     		add	r3, r3, r2
 1086 0042 1B7A     		ldrb	r3, [r3, #8]
 1087 0044 DAB2     		uxtb	r2, r3
 1088 0046 7B68     		ldr	r3, [r7, #4]
 1089 0048 1A70     		strb	r2, [r3]
 1090              	.L76:
 597:Generated_Source\PSoC5/CyDmac.c ****         }
 598:Generated_Source\PSoC5/CyDmac.c **** 
 599:Generated_Source\PSoC5/CyDmac.c ****         status = CYRET_SUCCESS;
 1091              		.loc 1 599 0
 1092 004a 0023     		movs	r3, #0
 1093 004c 7B61     		str	r3, [r7, #20]
 1094              	.L74:
 600:Generated_Source\PSoC5/CyDmac.c ****     }
 601:Generated_Source\PSoC5/CyDmac.c **** 
 602:Generated_Source\PSoC5/CyDmac.c ****     return (status);
 1095              		.loc 1 602 0
 1096 004e 7B69     		ldr	r3, [r7, #20]
 603:Generated_Source\PSoC5/CyDmac.c **** }
 1097              		.loc 1 603 0
 1098 0050 1846     		mov	r0, r3
 1099 0052 1C37     		adds	r7, r7, #28
 1100              		.cfi_def_cfa_offset 4
 1101 0054 BD46     		mov	sp, r7
 1102              		.cfi_def_cfa_register 13
 1103              		@ sp needed
ARM GAS  C:\Users\MANSRO~1\AppData\Local\Temp\ccbHnXVe.s 			page 31


 1104 0056 80BC     		pop	{r7}
 1105              		.cfi_restore 7
 1106              		.cfi_def_cfa_offset 0
 1107 0058 7047     		bx	lr
 1108              	.L79:
 1109 005a 00BF     		.align	2
 1110              	.L78:
 1111 005c 10700040 		.word	1073770512
 1112              		.cfi_endproc
 1113              	.LFE14:
 1114              		.size	CyDmaChStatus, .-CyDmaChStatus
 1115              		.section	.text.CyDmaChSetConfiguration,"ax",%progbits
 1116              		.align	2
 1117              		.global	CyDmaChSetConfiguration
 1118              		.thumb
 1119              		.thumb_func
 1120              		.type	CyDmaChSetConfiguration, %function
 1121              	CyDmaChSetConfiguration:
 1122              	.LFB15:
 604:Generated_Source\PSoC5/CyDmac.c **** 
 605:Generated_Source\PSoC5/CyDmac.c **** 
 606:Generated_Source\PSoC5/CyDmac.c **** /*******************************************************************************
 607:Generated_Source\PSoC5/CyDmac.c **** * Function Name: CyDmaChSetConfiguration
 608:Generated_Source\PSoC5/CyDmac.c **** ****************************************************************************//**
 609:Generated_Source\PSoC5/CyDmac.c **** *
 610:Generated_Source\PSoC5/CyDmac.c **** * Sets configuration information of the channel.
 611:Generated_Source\PSoC5/CyDmac.c **** *
 612:Generated_Source\PSoC5/CyDmac.c **** *  \param uint8 chHandle:
 613:Generated_Source\PSoC5/CyDmac.c **** *   A handle previously returned by CyDmaChAlloc() or DMA_DmaInitialize().
 614:Generated_Source\PSoC5/CyDmac.c **** *
 615:Generated_Source\PSoC5/CyDmac.c **** *  \param uint8 burstCount:
 616:Generated_Source\PSoC5/CyDmac.c **** *   Specifies the size of bursts (1 to 127) the data transfer should be divided
 617:Generated_Source\PSoC5/CyDmac.c **** *   into. If this value is zero then the whole transfer is done in one burst.
 618:Generated_Source\PSoC5/CyDmac.c **** *
 619:Generated_Source\PSoC5/CyDmac.c **** *  \param uint8 requestPerBurst:
 620:Generated_Source\PSoC5/CyDmac.c **** *   The whole of the data can be split into multiple bursts, if this is
 621:Generated_Source\PSoC5/CyDmac.c **** *   \param required to complete the transaction:
 622:Generated_Source\PSoC5/CyDmac.c **** *    \param 0: All subsequent bursts after the first burst will be automatically
 623:Generated_Source\PSoC5/CyDmac.c **** *       requested and carried out
 624:Generated_Source\PSoC5/CyDmac.c **** *    \param 1: All subsequent bursts after the first burst must also be individually
 625:Generated_Source\PSoC5/CyDmac.c **** *       requested.
 626:Generated_Source\PSoC5/CyDmac.c **** *
 627:Generated_Source\PSoC5/CyDmac.c **** *  \param uint8 tdDone0:
 628:Generated_Source\PSoC5/CyDmac.c **** *   Selects one of the TERMOUT0 interrupt lines to signal completion. The line
 629:Generated_Source\PSoC5/CyDmac.c **** *   connected to the nrq terminal will determine the TERMOUT0_SEL definition and
 630:Generated_Source\PSoC5/CyDmac.c **** *   should be used as supplied by cyfitter.h
 631:Generated_Source\PSoC5/CyDmac.c **** *
 632:Generated_Source\PSoC5/CyDmac.c **** *  \param uint8 tdDone1:
 633:Generated_Source\PSoC5/CyDmac.c **** *   Selects one of the TERMOUT1 interrupt lines to signal completion. The line
 634:Generated_Source\PSoC5/CyDmac.c **** *   connected to the nrq terminal will determine the TERMOUT1_SEL definition and
 635:Generated_Source\PSoC5/CyDmac.c **** *   should be used as supplied by cyfitter.h
 636:Generated_Source\PSoC5/CyDmac.c **** *
 637:Generated_Source\PSoC5/CyDmac.c **** *  \param uint8 tdStop:
 638:Generated_Source\PSoC5/CyDmac.c **** *   Selects one of the TERMIN interrupt lines to signal to the DMAC that the TD
 639:Generated_Source\PSoC5/CyDmac.c **** *   should terminate. The signal connected to the trq terminal will determine
 640:Generated_Source\PSoC5/CyDmac.c **** *   which TERMIN (termination request) is used.
 641:Generated_Source\PSoC5/CyDmac.c **** *
ARM GAS  C:\Users\MANSRO~1\AppData\Local\Temp\ccbHnXVe.s 			page 32


 642:Generated_Source\PSoC5/CyDmac.c **** * \return
 643:Generated_Source\PSoC5/CyDmac.c **** *  CYRET_SUCCESS if successful.
 644:Generated_Source\PSoC5/CyDmac.c **** *  CYRET_BAD_PARAM if chHandle is invalid.
 645:Generated_Source\PSoC5/CyDmac.c **** *
 646:Generated_Source\PSoC5/CyDmac.c **** *******************************************************************************/
 647:Generated_Source\PSoC5/CyDmac.c **** cystatus CyDmaChSetConfiguration(uint8 chHandle, uint8 burstCount, uint8 requestPerBurst,
 648:Generated_Source\PSoC5/CyDmac.c ****                                  uint8 tdDone0, uint8 tdDone1, uint8 tdStop) 
 649:Generated_Source\PSoC5/CyDmac.c **** {
 1123              		.loc 1 649 0
 1124              		.cfi_startproc
 1125              		@ args = 8, pretend = 0, frame = 16
 1126              		@ frame_needed = 1, uses_anonymous_args = 0
 1127              		@ link register save eliminated.
 1128 0000 90B4     		push	{r4, r7}
 1129              		.cfi_def_cfa_offset 8
 1130              		.cfi_offset 4, -8
 1131              		.cfi_offset 7, -4
 1132 0002 84B0     		sub	sp, sp, #16
 1133              		.cfi_def_cfa_offset 24
 1134 0004 00AF     		add	r7, sp, #0
 1135              		.cfi_def_cfa_register 7
 1136 0006 0446     		mov	r4, r0
 1137 0008 0846     		mov	r0, r1
 1138 000a 1146     		mov	r1, r2
 1139 000c 1A46     		mov	r2, r3
 1140 000e 2346     		mov	r3, r4
 1141 0010 FB71     		strb	r3, [r7, #7]
 1142 0012 0346     		mov	r3, r0
 1143 0014 BB71     		strb	r3, [r7, #6]
 1144 0016 0B46     		mov	r3, r1
 1145 0018 7B71     		strb	r3, [r7, #5]
 1146 001a 1346     		mov	r3, r2
 1147 001c 3B71     		strb	r3, [r7, #4]
 650:Generated_Source\PSoC5/CyDmac.c ****     cystatus status = CYRET_BAD_PARAM;
 1148              		.loc 1 650 0
 1149 001e 0123     		movs	r3, #1
 1150 0020 FB60     		str	r3, [r7, #12]
 651:Generated_Source\PSoC5/CyDmac.c **** 
 652:Generated_Source\PSoC5/CyDmac.c ****     if(chHandle < CY_DMA_NUMBEROF_CHANNELS)
 1151              		.loc 1 652 0
 1152 0022 FB79     		ldrb	r3, [r7, #7]	@ zero_extendqisi2
 1153 0024 172B     		cmp	r3, #23
 1154 0026 34D8     		bhi	.L81
 653:Generated_Source\PSoC5/CyDmac.c ****     {
 654:Generated_Source\PSoC5/CyDmac.c ****         CY_DMA_CFGMEM_STRUCT_PTR[chHandle].CFG0[0] = (burstCount & 0x7Fu) | ((uint8)((requestPerBur
 1155              		.loc 1 654 0
 1156 0028 FB79     		ldrb	r3, [r7, #7]	@ zero_extendqisi2
 1157 002a DB00     		lsls	r3, r3, #3
 1158 002c 03F18043 		add	r3, r3, #1073741824
 1159 0030 03F5EC43 		add	r3, r3, #30208
 1160 0034 BA79     		ldrb	r2, [r7, #6]
 1161 0036 02F07F02 		and	r2, r2, #127
 1162 003a D1B2     		uxtb	r1, r2
 1163 003c 7A79     		ldrb	r2, [r7, #5]
 1164 003e D201     		lsls	r2, r2, #7
 1165 0040 D2B2     		uxtb	r2, r2
 1166 0042 0A43     		orrs	r2, r2, r1
ARM GAS  C:\Users\MANSRO~1\AppData\Local\Temp\ccbHnXVe.s 			page 33


 1167 0044 D2B2     		uxtb	r2, r2
 1168 0046 1A70     		strb	r2, [r3]
 655:Generated_Source\PSoC5/CyDmac.c ****         CY_DMA_CFGMEM_STRUCT_PTR[chHandle].CFG0[1] = ((uint8)((tdDone1 & 0xFu) << 4u)) | (tdDone0 &
 1169              		.loc 1 655 0
 1170 0048 FB79     		ldrb	r3, [r7, #7]	@ zero_extendqisi2
 1171 004a DB00     		lsls	r3, r3, #3
 1172 004c 03F18043 		add	r3, r3, #1073741824
 1173 0050 03F5EC43 		add	r3, r3, #30208
 1174 0054 3A7E     		ldrb	r2, [r7, #24]
 1175 0056 1201     		lsls	r2, r2, #4
 1176 0058 D1B2     		uxtb	r1, r2
 1177 005a 3A79     		ldrb	r2, [r7, #4]
 1178 005c 02F00F02 		and	r2, r2, #15
 1179 0060 D2B2     		uxtb	r2, r2
 1180 0062 0A43     		orrs	r2, r2, r1
 1181 0064 D2B2     		uxtb	r2, r2
 1182 0066 5A70     		strb	r2, [r3, #1]
 656:Generated_Source\PSoC5/CyDmac.c ****         CY_DMA_CFGMEM_STRUCT_PTR[chHandle].CFG0[2] = 0x0Fu & tdStop;
 1183              		.loc 1 656 0
 1184 0068 FB79     		ldrb	r3, [r7, #7]	@ zero_extendqisi2
 1185 006a DB00     		lsls	r3, r3, #3
 1186 006c 03F18043 		add	r3, r3, #1073741824
 1187 0070 03F5EC43 		add	r3, r3, #30208
 1188 0074 3A7F     		ldrb	r2, [r7, #28]
 1189 0076 02F00F02 		and	r2, r2, #15
 1190 007a D2B2     		uxtb	r2, r2
 1191 007c 9A70     		strb	r2, [r3, #2]
 657:Generated_Source\PSoC5/CyDmac.c ****         CY_DMA_CFGMEM_STRUCT_PTR[chHandle].CFG0[3] = 0u; /* burstcount_remain. */
 1192              		.loc 1 657 0
 1193 007e FB79     		ldrb	r3, [r7, #7]	@ zero_extendqisi2
 1194 0080 DB00     		lsls	r3, r3, #3
 1195 0082 03F18043 		add	r3, r3, #1073741824
 1196 0086 03F5EC43 		add	r3, r3, #30208
 1197 008a 0022     		movs	r2, #0
 1198 008c DA70     		strb	r2, [r3, #3]
 658:Generated_Source\PSoC5/CyDmac.c **** 
 659:Generated_Source\PSoC5/CyDmac.c ****         status = CYRET_SUCCESS;
 1199              		.loc 1 659 0
 1200 008e 0023     		movs	r3, #0
 1201 0090 FB60     		str	r3, [r7, #12]
 1202              	.L81:
 660:Generated_Source\PSoC5/CyDmac.c ****     }
 661:Generated_Source\PSoC5/CyDmac.c **** 
 662:Generated_Source\PSoC5/CyDmac.c ****     return (status);
 1203              		.loc 1 662 0
 1204 0092 FB68     		ldr	r3, [r7, #12]
 663:Generated_Source\PSoC5/CyDmac.c **** }
 1205              		.loc 1 663 0
 1206 0094 1846     		mov	r0, r3
 1207 0096 1037     		adds	r7, r7, #16
 1208              		.cfi_def_cfa_offset 8
 1209 0098 BD46     		mov	sp, r7
 1210              		.cfi_def_cfa_register 13
 1211              		@ sp needed
 1212 009a 90BC     		pop	{r4, r7}
 1213              		.cfi_restore 7
 1214              		.cfi_restore 4
ARM GAS  C:\Users\MANSRO~1\AppData\Local\Temp\ccbHnXVe.s 			page 34


 1215              		.cfi_def_cfa_offset 0
 1216 009c 7047     		bx	lr
 1217              		.cfi_endproc
 1218              	.LFE15:
 1219              		.size	CyDmaChSetConfiguration, .-CyDmaChSetConfiguration
 1220 009e 00BF     		.section	.text.CyDmaTdAllocate,"ax",%progbits
 1221              		.align	2
 1222              		.global	CyDmaTdAllocate
 1223              		.thumb
 1224              		.thumb_func
 1225              		.type	CyDmaTdAllocate, %function
 1226              	CyDmaTdAllocate:
 1227              	.LFB16:
 664:Generated_Source\PSoC5/CyDmac.c **** 
 665:Generated_Source\PSoC5/CyDmac.c **** 
 666:Generated_Source\PSoC5/CyDmac.c **** /*******************************************************************************
 667:Generated_Source\PSoC5/CyDmac.c **** * Function Name: CyDmaTdAllocate
 668:Generated_Source\PSoC5/CyDmac.c **** ****************************************************************************//**
 669:Generated_Source\PSoC5/CyDmac.c **** *
 670:Generated_Source\PSoC5/CyDmac.c **** *  Allocates a TD for use with an allocated DMA channel.
 671:Generated_Source\PSoC5/CyDmac.c **** *
 672:Generated_Source\PSoC5/CyDmac.c **** * \return
 673:Generated_Source\PSoC5/CyDmac.c **** *  Zero-based index of the TD to be used by the caller. Since there are 128 TDs
 674:Generated_Source\PSoC5/CyDmac.c **** *  minus the reserved TDs (0 to 23), the value returned would range from 24 to
 675:Generated_Source\PSoC5/CyDmac.c **** *  127 not 24 to 128. DMA_INVALID_TD is returned if there are no free TDs
 676:Generated_Source\PSoC5/CyDmac.c **** *  available.
 677:Generated_Source\PSoC5/CyDmac.c **** *
 678:Generated_Source\PSoC5/CyDmac.c **** *******************************************************************************/
 679:Generated_Source\PSoC5/CyDmac.c **** uint8 CyDmaTdAllocate(void) 
 680:Generated_Source\PSoC5/CyDmac.c **** {
 1228              		.loc 1 680 0
 1229              		.cfi_startproc
 1230              		@ args = 0, pretend = 0, frame = 8
 1231              		@ frame_needed = 1, uses_anonymous_args = 0
 1232 0000 80B5     		push	{r7, lr}
 1233              		.cfi_def_cfa_offset 8
 1234              		.cfi_offset 7, -8
 1235              		.cfi_offset 14, -4
 1236 0002 82B0     		sub	sp, sp, #8
 1237              		.cfi_def_cfa_offset 16
 1238 0004 00AF     		add	r7, sp, #0
 1239              		.cfi_def_cfa_register 7
 681:Generated_Source\PSoC5/CyDmac.c ****     uint8 interruptState;
 682:Generated_Source\PSoC5/CyDmac.c ****     uint8 element = CY_DMA_INVALID_TD;
 1240              		.loc 1 682 0
 1241 0006 FF23     		movs	r3, #255
 1242 0008 FB71     		strb	r3, [r7, #7]
 683:Generated_Source\PSoC5/CyDmac.c **** 
 684:Generated_Source\PSoC5/CyDmac.c ****     /* Enter critical section! */
 685:Generated_Source\PSoC5/CyDmac.c ****     interruptState = CyEnterCriticalSection();
 1243              		.loc 1 685 0
 1244 000a FFF7FEFF 		bl	CyEnterCriticalSection
 1245 000e 0346     		mov	r3, r0
 1246 0010 BB71     		strb	r3, [r7, #6]
 686:Generated_Source\PSoC5/CyDmac.c **** 
 687:Generated_Source\PSoC5/CyDmac.c ****     if(CyDmaTdCurrentNumber > NUMBEROF_CHANNELS)
 1247              		.loc 1 687 0
ARM GAS  C:\Users\MANSRO~1\AppData\Local\Temp\ccbHnXVe.s 			page 35


 1248 0012 104B     		ldr	r3, .L86
 1249 0014 1B78     		ldrb	r3, [r3]	@ zero_extendqisi2
 1250 0016 182B     		cmp	r3, #24
 1251 0018 12D9     		bls	.L84
 688:Generated_Source\PSoC5/CyDmac.c ****     {
 689:Generated_Source\PSoC5/CyDmac.c ****         /* Get pointer to Next available. */
 690:Generated_Source\PSoC5/CyDmac.c ****         element = CyDmaTdFreeIndex;
 1252              		.loc 1 690 0
 1253 001a 0F4B     		ldr	r3, .L86+4
 1254 001c 1B78     		ldrb	r3, [r3]
 1255 001e FB71     		strb	r3, [r7, #7]
 691:Generated_Source\PSoC5/CyDmac.c **** 
 692:Generated_Source\PSoC5/CyDmac.c ****         /* Decrement the count. */
 693:Generated_Source\PSoC5/CyDmac.c ****         CyDmaTdCurrentNumber--;
 1256              		.loc 1 693 0
 1257 0020 0C4B     		ldr	r3, .L86
 1258 0022 1B78     		ldrb	r3, [r3]	@ zero_extendqisi2
 1259 0024 013B     		subs	r3, r3, #1
 1260 0026 DAB2     		uxtb	r2, r3
 1261 0028 0A4B     		ldr	r3, .L86
 1262 002a 1A70     		strb	r2, [r3]
 694:Generated_Source\PSoC5/CyDmac.c **** 
 695:Generated_Source\PSoC5/CyDmac.c ****         /* Update next available pointer. */
 696:Generated_Source\PSoC5/CyDmac.c ****         CyDmaTdFreeIndex = CY_DMA_TDMEM_STRUCT_PTR[element].TD0[0];
 1263              		.loc 1 696 0
 1264 002c FB79     		ldrb	r3, [r7, #7]	@ zero_extendqisi2
 1265 002e DB00     		lsls	r3, r3, #3
 1266 0030 03F18043 		add	r3, r3, #1073741824
 1267 0034 03F5F043 		add	r3, r3, #30720
 1268 0038 1B78     		ldrb	r3, [r3]
 1269 003a DAB2     		uxtb	r2, r3
 1270 003c 064B     		ldr	r3, .L86+4
 1271 003e 1A70     		strb	r2, [r3]
 1272              	.L84:
 697:Generated_Source\PSoC5/CyDmac.c ****     }
 698:Generated_Source\PSoC5/CyDmac.c **** 
 699:Generated_Source\PSoC5/CyDmac.c ****     /* Exit critical section! */
 700:Generated_Source\PSoC5/CyDmac.c ****     CyExitCriticalSection(interruptState);
 1273              		.loc 1 700 0
 1274 0040 BB79     		ldrb	r3, [r7, #6]	@ zero_extendqisi2
 1275 0042 1846     		mov	r0, r3
 1276 0044 FFF7FEFF 		bl	CyExitCriticalSection
 701:Generated_Source\PSoC5/CyDmac.c **** 
 702:Generated_Source\PSoC5/CyDmac.c ****     return(element);
 1277              		.loc 1 702 0
 1278 0048 FB79     		ldrb	r3, [r7, #7]	@ zero_extendqisi2
 703:Generated_Source\PSoC5/CyDmac.c **** }
 1279              		.loc 1 703 0
 1280 004a 1846     		mov	r0, r3
 1281 004c 0837     		adds	r7, r7, #8
 1282              		.cfi_def_cfa_offset 8
 1283 004e BD46     		mov	sp, r7
 1284              		.cfi_def_cfa_register 13
 1285              		@ sp needed
 1286 0050 80BD     		pop	{r7, pc}
 1287              	.L87:
 1288 0052 00BF     		.align	2
ARM GAS  C:\Users\MANSRO~1\AppData\Local\Temp\ccbHnXVe.s 			page 36


 1289              	.L86:
 1290 0054 00000000 		.word	CyDmaTdCurrentNumber
 1291 0058 01000000 		.word	CyDmaTdFreeIndex
 1292              		.cfi_endproc
 1293              	.LFE16:
 1294              		.size	CyDmaTdAllocate, .-CyDmaTdAllocate
 1295              		.section	.text.CyDmaTdFree,"ax",%progbits
 1296              		.align	2
 1297              		.global	CyDmaTdFree
 1298              		.thumb
 1299              		.thumb_func
 1300              		.type	CyDmaTdFree, %function
 1301              	CyDmaTdFree:
 1302              	.LFB17:
 704:Generated_Source\PSoC5/CyDmac.c **** 
 705:Generated_Source\PSoC5/CyDmac.c **** 
 706:Generated_Source\PSoC5/CyDmac.c **** /*******************************************************************************
 707:Generated_Source\PSoC5/CyDmac.c **** * Function Name: CyDmaTdFree
 708:Generated_Source\PSoC5/CyDmac.c **** ****************************************************************************//**
 709:Generated_Source\PSoC5/CyDmac.c **** *
 710:Generated_Source\PSoC5/CyDmac.c **** *  Returns a TD to the free list.
 711:Generated_Source\PSoC5/CyDmac.c **** *
 712:Generated_Source\PSoC5/CyDmac.c **** *  \param uint8 tdHandle:
 713:Generated_Source\PSoC5/CyDmac.c **** *   The TD handle returned by the CyDmaTdAllocate().
 714:Generated_Source\PSoC5/CyDmac.c **** *
 715:Generated_Source\PSoC5/CyDmac.c **** *******************************************************************************/
 716:Generated_Source\PSoC5/CyDmac.c **** void CyDmaTdFree(uint8 tdHandle) 
 717:Generated_Source\PSoC5/CyDmac.c **** {
 1303              		.loc 1 717 0
 1304              		.cfi_startproc
 1305              		@ args = 0, pretend = 0, frame = 16
 1306              		@ frame_needed = 1, uses_anonymous_args = 0
 1307 0000 80B5     		push	{r7, lr}
 1308              		.cfi_def_cfa_offset 8
 1309              		.cfi_offset 7, -8
 1310              		.cfi_offset 14, -4
 1311 0002 84B0     		sub	sp, sp, #16
 1312              		.cfi_def_cfa_offset 24
 1313 0004 00AF     		add	r7, sp, #0
 1314              		.cfi_def_cfa_register 7
 1315 0006 0346     		mov	r3, r0
 1316 0008 FB71     		strb	r3, [r7, #7]
 718:Generated_Source\PSoC5/CyDmac.c ****     if(tdHandle < CY_DMA_NUMBEROF_TDS)
 1317              		.loc 1 718 0
 1318 000a 97F90730 		ldrsb	r3, [r7, #7]
 1319 000e 002B     		cmp	r3, #0
 1320 0010 19DB     		blt	.L90
 1321              	.LBB2:
 719:Generated_Source\PSoC5/CyDmac.c ****     {
 720:Generated_Source\PSoC5/CyDmac.c ****         /* Enter critical section! */
 721:Generated_Source\PSoC5/CyDmac.c ****         uint8 interruptState = CyEnterCriticalSection();
 1322              		.loc 1 721 0
 1323 0012 FFF7FEFF 		bl	CyEnterCriticalSection
 1324 0016 0346     		mov	r3, r0
 1325 0018 FB73     		strb	r3, [r7, #15]
 722:Generated_Source\PSoC5/CyDmac.c **** 
 723:Generated_Source\PSoC5/CyDmac.c ****         /* Get pointer to Next available. */
ARM GAS  C:\Users\MANSRO~1\AppData\Local\Temp\ccbHnXVe.s 			page 37


 724:Generated_Source\PSoC5/CyDmac.c ****         CY_DMA_TDMEM_STRUCT_PTR[tdHandle].TD0[0u] = CyDmaTdFreeIndex;
 1326              		.loc 1 724 0
 1327 001a FB79     		ldrb	r3, [r7, #7]	@ zero_extendqisi2
 1328 001c DB00     		lsls	r3, r3, #3
 1329 001e 03F18043 		add	r3, r3, #1073741824
 1330 0022 03F5F043 		add	r3, r3, #30720
 1331 0026 0A4A     		ldr	r2, .L91
 1332 0028 1278     		ldrb	r2, [r2]	@ zero_extendqisi2
 1333 002a 1A70     		strb	r2, [r3]
 725:Generated_Source\PSoC5/CyDmac.c **** 
 726:Generated_Source\PSoC5/CyDmac.c ****         /* Set new Next Available. */
 727:Generated_Source\PSoC5/CyDmac.c ****         CyDmaTdFreeIndex = tdHandle;
 1334              		.loc 1 727 0
 1335 002c 084A     		ldr	r2, .L91
 1336 002e FB79     		ldrb	r3, [r7, #7]
 1337 0030 1370     		strb	r3, [r2]
 728:Generated_Source\PSoC5/CyDmac.c **** 
 729:Generated_Source\PSoC5/CyDmac.c ****         /* Keep track of how many left. */
 730:Generated_Source\PSoC5/CyDmac.c ****         CyDmaTdCurrentNumber++;
 1338              		.loc 1 730 0
 1339 0032 084B     		ldr	r3, .L91+4
 1340 0034 1B78     		ldrb	r3, [r3]	@ zero_extendqisi2
 1341 0036 0133     		adds	r3, r3, #1
 1342 0038 DAB2     		uxtb	r2, r3
 1343 003a 064B     		ldr	r3, .L91+4
 1344 003c 1A70     		strb	r2, [r3]
 731:Generated_Source\PSoC5/CyDmac.c **** 
 732:Generated_Source\PSoC5/CyDmac.c ****         /* Exit critical section! */
 733:Generated_Source\PSoC5/CyDmac.c ****         CyExitCriticalSection(interruptState);
 1345              		.loc 1 733 0
 1346 003e FB7B     		ldrb	r3, [r7, #15]	@ zero_extendqisi2
 1347 0040 1846     		mov	r0, r3
 1348 0042 FFF7FEFF 		bl	CyExitCriticalSection
 1349              	.L90:
 1350              	.LBE2:
 734:Generated_Source\PSoC5/CyDmac.c ****     }
 735:Generated_Source\PSoC5/CyDmac.c **** }
 1351              		.loc 1 735 0
 1352 0046 00BF     		nop
 1353 0048 1037     		adds	r7, r7, #16
 1354              		.cfi_def_cfa_offset 8
 1355 004a BD46     		mov	sp, r7
 1356              		.cfi_def_cfa_register 13
 1357              		@ sp needed
 1358 004c 80BD     		pop	{r7, pc}
 1359              	.L92:
 1360 004e 00BF     		.align	2
 1361              	.L91:
 1362 0050 01000000 		.word	CyDmaTdFreeIndex
 1363 0054 00000000 		.word	CyDmaTdCurrentNumber
 1364              		.cfi_endproc
 1365              	.LFE17:
 1366              		.size	CyDmaTdFree, .-CyDmaTdFree
 1367              		.section	.text.CyDmaTdFreeCount,"ax",%progbits
 1368              		.align	2
 1369              		.global	CyDmaTdFreeCount
 1370              		.thumb
ARM GAS  C:\Users\MANSRO~1\AppData\Local\Temp\ccbHnXVe.s 			page 38


 1371              		.thumb_func
 1372              		.type	CyDmaTdFreeCount, %function
 1373              	CyDmaTdFreeCount:
 1374              	.LFB18:
 736:Generated_Source\PSoC5/CyDmac.c **** 
 737:Generated_Source\PSoC5/CyDmac.c **** 
 738:Generated_Source\PSoC5/CyDmac.c **** /*******************************************************************************
 739:Generated_Source\PSoC5/CyDmac.c **** * Function Name: CyDmaTdFreeCount
 740:Generated_Source\PSoC5/CyDmac.c **** ****************************************************************************//**
 741:Generated_Source\PSoC5/CyDmac.c **** *
 742:Generated_Source\PSoC5/CyDmac.c **** *  Returns the number of free TDs available to be allocated.
 743:Generated_Source\PSoC5/CyDmac.c **** *
 744:Generated_Source\PSoC5/CyDmac.c **** * \return
 745:Generated_Source\PSoC5/CyDmac.c **** *  The number of free TDs.
 746:Generated_Source\PSoC5/CyDmac.c **** *
 747:Generated_Source\PSoC5/CyDmac.c **** *******************************************************************************/
 748:Generated_Source\PSoC5/CyDmac.c **** uint8 CyDmaTdFreeCount(void) 
 749:Generated_Source\PSoC5/CyDmac.c **** {
 1375              		.loc 1 749 0
 1376              		.cfi_startproc
 1377              		@ args = 0, pretend = 0, frame = 0
 1378              		@ frame_needed = 1, uses_anonymous_args = 0
 1379              		@ link register save eliminated.
 1380 0000 80B4     		push	{r7}
 1381              		.cfi_def_cfa_offset 4
 1382              		.cfi_offset 7, -4
 1383 0002 00AF     		add	r7, sp, #0
 1384              		.cfi_def_cfa_register 7
 750:Generated_Source\PSoC5/CyDmac.c ****     return(CyDmaTdCurrentNumber - CY_DMA_NUMBEROF_CHANNELS);
 1385              		.loc 1 750 0
 1386 0004 034B     		ldr	r3, .L95
 1387 0006 1B78     		ldrb	r3, [r3]	@ zero_extendqisi2
 1388 0008 183B     		subs	r3, r3, #24
 1389 000a DBB2     		uxtb	r3, r3
 751:Generated_Source\PSoC5/CyDmac.c **** }
 1390              		.loc 1 751 0
 1391 000c 1846     		mov	r0, r3
 1392 000e BD46     		mov	sp, r7
 1393              		.cfi_def_cfa_register 13
 1394              		@ sp needed
 1395 0010 80BC     		pop	{r7}
 1396              		.cfi_restore 7
 1397              		.cfi_def_cfa_offset 0
 1398 0012 7047     		bx	lr
 1399              	.L96:
 1400              		.align	2
 1401              	.L95:
 1402 0014 00000000 		.word	CyDmaTdCurrentNumber
 1403              		.cfi_endproc
 1404              	.LFE18:
 1405              		.size	CyDmaTdFreeCount, .-CyDmaTdFreeCount
 1406              		.section	.text.CyDmaTdSetConfiguration,"ax",%progbits
 1407              		.align	2
 1408              		.global	CyDmaTdSetConfiguration
 1409              		.thumb
 1410              		.thumb_func
 1411              		.type	CyDmaTdSetConfiguration, %function
ARM GAS  C:\Users\MANSRO~1\AppData\Local\Temp\ccbHnXVe.s 			page 39


 1412              	CyDmaTdSetConfiguration:
 1413              	.LFB19:
 752:Generated_Source\PSoC5/CyDmac.c **** 
 753:Generated_Source\PSoC5/CyDmac.c **** 
 754:Generated_Source\PSoC5/CyDmac.c **** /*******************************************************************************
 755:Generated_Source\PSoC5/CyDmac.c **** * Function Name: CyDmaTdSetConfiguration
 756:Generated_Source\PSoC5/CyDmac.c **** ****************************************************************************//**
 757:Generated_Source\PSoC5/CyDmac.c **** *
 758:Generated_Source\PSoC5/CyDmac.c **** *  Configures the TD.
 759:Generated_Source\PSoC5/CyDmac.c **** *
 760:Generated_Source\PSoC5/CyDmac.c **** *  \param uint8 tdHandle:
 761:Generated_Source\PSoC5/CyDmac.c **** *   A handle previously returned by CyDmaTdAlloc().
 762:Generated_Source\PSoC5/CyDmac.c **** *
 763:Generated_Source\PSoC5/CyDmac.c **** *  \param uint16 transferCount:
 764:Generated_Source\PSoC5/CyDmac.c **** *   The size of the data transfer (in bytes) for this TD. A size of zero will
 765:Generated_Source\PSoC5/CyDmac.c **** *   cause the transfer to continue indefinitely. This parameter is limited to
 766:Generated_Source\PSoC5/CyDmac.c **** *   4095 bytes; the TD is not initialized at all when a higher value is passed.
 767:Generated_Source\PSoC5/CyDmac.c **** *
 768:Generated_Source\PSoC5/CyDmac.c **** *  \param uint8 nextTd:
 769:Generated_Source\PSoC5/CyDmac.c **** *   Zero based index of the next Transfer Descriptor in the TD chain. Zero is a
 770:Generated_Source\PSoC5/CyDmac.c **** *   valid pointer to the next TD; DMA_END_CHAIN_TD is the end of the chain.
 771:Generated_Source\PSoC5/CyDmac.c **** *   DMA_DISABLE_TD indicates an end to the chain and the DMA is disabled. No
 772:Generated_Source\PSoC5/CyDmac.c **** *   further TDs are fetched. DMA_DISABLE_TD is only supported on PSoC3 and
 773:Generated_Source\PSoC5/CyDmac.c **** *   PSoC 5LP silicons.
 774:Generated_Source\PSoC5/CyDmac.c **** *
 775:Generated_Source\PSoC5/CyDmac.c **** *  \param uint8 configuration:
 776:Generated_Source\PSoC5/CyDmac.c **** *   Stores the Bit field of configuration bits.
 777:Generated_Source\PSoC5/CyDmac.c **** *
 778:Generated_Source\PSoC5/CyDmac.c **** *   CY_DMA_TD_SWAP_EN        - Perform endian swap
 779:Generated_Source\PSoC5/CyDmac.c **** *
 780:Generated_Source\PSoC5/CyDmac.c **** *   CY_DMA_TD_SWAP_SIZE4     - Swap size = 4 bytes
 781:Generated_Source\PSoC5/CyDmac.c **** *
 782:Generated_Source\PSoC5/CyDmac.c **** *   CY_DMA_TD_AUTO_EXEC_NEXT - The next TD in the chain will trigger
 783:Generated_Source\PSoC5/CyDmac.c **** *                              automatically when the current TD completes.
 784:Generated_Source\PSoC5/CyDmac.c **** *
 785:Generated_Source\PSoC5/CyDmac.c **** *   CY_DMA_TD_TERMIN_EN      - Terminate this TD if a positive edge on the trq
 786:Generated_Source\PSoC5/CyDmac.c **** *                              input line occurs. The positive edge must occur
 787:Generated_Source\PSoC5/CyDmac.c **** *                              during a burst. That is the only time the DMAC
 788:Generated_Source\PSoC5/CyDmac.c **** *                              will listen for it.
 789:Generated_Source\PSoC5/CyDmac.c **** *
 790:Generated_Source\PSoC5/CyDmac.c **** *   DMA__TD_TERMOUT_EN       - When this TD completes, the TERMOUT signal will
 791:Generated_Source\PSoC5/CyDmac.c **** *                              generate a pulse. Note that this option is
 792:Generated_Source\PSoC5/CyDmac.c **** *                              instance specific with the instance name followed
 793:Generated_Source\PSoC5/CyDmac.c **** *                              by two underscores. In this example, the instance
 794:Generated_Source\PSoC5/CyDmac.c **** *                              name is DMA.
 795:Generated_Source\PSoC5/CyDmac.c **** *
 796:Generated_Source\PSoC5/CyDmac.c **** *   CY_DMA_TD_INC_DST_ADR    - Increment DST_ADR according to the size of each
 797:Generated_Source\PSoC5/CyDmac.c **** *                              data transaction in the burst.
 798:Generated_Source\PSoC5/CyDmac.c **** *
 799:Generated_Source\PSoC5/CyDmac.c **** *   CY_DMA_TD_INC_SRC_ADR    - Increment SRC_ADR according to the size of each
 800:Generated_Source\PSoC5/CyDmac.c **** *                              data transaction in the burst.
 801:Generated_Source\PSoC5/CyDmac.c **** *
 802:Generated_Source\PSoC5/CyDmac.c **** * \return
 803:Generated_Source\PSoC5/CyDmac.c **** *  CYRET_SUCCESS if successful.
 804:Generated_Source\PSoC5/CyDmac.c **** *  CYRET_BAD_PARAM if tdHandle or transferCount is invalid.
 805:Generated_Source\PSoC5/CyDmac.c **** *
 806:Generated_Source\PSoC5/CyDmac.c **** *******************************************************************************/
ARM GAS  C:\Users\MANSRO~1\AppData\Local\Temp\ccbHnXVe.s 			page 40


 807:Generated_Source\PSoC5/CyDmac.c **** cystatus CyDmaTdSetConfiguration(uint8 tdHandle, uint16 transferCount, uint8 nextTd, uint8 configur
 808:Generated_Source\PSoC5/CyDmac.c ****     
 809:Generated_Source\PSoC5/CyDmac.c **** {
 1414              		.loc 1 809 0
 1415              		.cfi_startproc
 1416              		@ args = 0, pretend = 0, frame = 16
 1417              		@ frame_needed = 1, uses_anonymous_args = 0
 1418              		@ link register save eliminated.
 1419 0000 90B4     		push	{r4, r7}
 1420              		.cfi_def_cfa_offset 8
 1421              		.cfi_offset 4, -8
 1422              		.cfi_offset 7, -4
 1423 0002 84B0     		sub	sp, sp, #16
 1424              		.cfi_def_cfa_offset 24
 1425 0004 00AF     		add	r7, sp, #0
 1426              		.cfi_def_cfa_register 7
 1427 0006 0446     		mov	r4, r0
 1428 0008 0846     		mov	r0, r1
 1429 000a 1146     		mov	r1, r2
 1430 000c 1A46     		mov	r2, r3
 1431 000e 2346     		mov	r3, r4
 1432 0010 FB71     		strb	r3, [r7, #7]
 1433 0012 0346     		mov	r3, r0	@ movhi
 1434 0014 BB80     		strh	r3, [r7, #4]	@ movhi
 1435 0016 0B46     		mov	r3, r1
 1436 0018 BB71     		strb	r3, [r7, #6]
 1437 001a 1346     		mov	r3, r2
 1438 001c FB70     		strb	r3, [r7, #3]
 810:Generated_Source\PSoC5/CyDmac.c ****     cystatus status = CYRET_BAD_PARAM;
 1439              		.loc 1 810 0
 1440 001e 0123     		movs	r3, #1
 1441 0020 FB60     		str	r3, [r7, #12]
 811:Generated_Source\PSoC5/CyDmac.c **** 
 812:Generated_Source\PSoC5/CyDmac.c ****     if((tdHandle < CY_DMA_NUMBEROF_TDS) && (0u == (0xF000u & transferCount)))
 1442              		.loc 1 812 0
 1443 0022 97F90730 		ldrsb	r3, [r7, #7]
 1444 0026 002B     		cmp	r3, #0
 1445 0028 23DB     		blt	.L98
 1446              		.loc 1 812 0 is_stmt 0 discriminator 1
 1447 002a BB88     		ldrh	r3, [r7, #4]	@ movhi
 1448 002c 23F47F63 		bic	r3, r3, #4080
 1449 0030 23F00F03 		bic	r3, r3, #15
 1450 0034 9BB2     		uxth	r3, r3
 1451 0036 002B     		cmp	r3, #0
 1452 0038 1BD1     		bne	.L98
 1453              	.LBB3:
 813:Generated_Source\PSoC5/CyDmac.c ****     {
 814:Generated_Source\PSoC5/CyDmac.c ****         /* Set 12 bits transfer count. */
 815:Generated_Source\PSoC5/CyDmac.c ****         reg16 *convert = (reg16 *) &CY_DMA_TDMEM_STRUCT_PTR[tdHandle].TD0[0u];
 1454              		.loc 1 815 0 is_stmt 1
 1455 003a FB79     		ldrb	r3, [r7, #7]	@ zero_extendqisi2
 1456 003c DB00     		lsls	r3, r3, #3
 1457 003e 03F18043 		add	r3, r3, #1073741824
 1458 0042 03F5F043 		add	r3, r3, #30720
 1459 0046 BB60     		str	r3, [r7, #8]
 816:Generated_Source\PSoC5/CyDmac.c ****         CY_SET_REG16(convert, transferCount);
 1460              		.loc 1 816 0
ARM GAS  C:\Users\MANSRO~1\AppData\Local\Temp\ccbHnXVe.s 			page 41


 1461 0048 BB68     		ldr	r3, [r7, #8]
 1462 004a BA88     		ldrh	r2, [r7, #4]	@ movhi
 1463 004c 1A80     		strh	r2, [r3]	@ movhi
 817:Generated_Source\PSoC5/CyDmac.c **** 
 818:Generated_Source\PSoC5/CyDmac.c ****         /* Set Next TD pointer. */
 819:Generated_Source\PSoC5/CyDmac.c ****         CY_DMA_TDMEM_STRUCT_PTR[tdHandle].TD0[2u] = nextTd;
 1464              		.loc 1 819 0
 1465 004e FB79     		ldrb	r3, [r7, #7]	@ zero_extendqisi2
 1466 0050 DB00     		lsls	r3, r3, #3
 1467 0052 03F18043 		add	r3, r3, #1073741824
 1468 0056 03F5F043 		add	r3, r3, #30720
 1469 005a BA79     		ldrb	r2, [r7, #6]
 1470 005c 9A70     		strb	r2, [r3, #2]
 820:Generated_Source\PSoC5/CyDmac.c **** 
 821:Generated_Source\PSoC5/CyDmac.c ****         /* Configure the TD */
 822:Generated_Source\PSoC5/CyDmac.c ****         CY_DMA_TDMEM_STRUCT_PTR[tdHandle].TD0[3u] = configuration;
 1471              		.loc 1 822 0
 1472 005e FB79     		ldrb	r3, [r7, #7]	@ zero_extendqisi2
 1473 0060 DB00     		lsls	r3, r3, #3
 1474 0062 03F18043 		add	r3, r3, #1073741824
 1475 0066 03F5F043 		add	r3, r3, #30720
 1476 006a FA78     		ldrb	r2, [r7, #3]
 1477 006c DA70     		strb	r2, [r3, #3]
 823:Generated_Source\PSoC5/CyDmac.c **** 
 824:Generated_Source\PSoC5/CyDmac.c ****         status = CYRET_SUCCESS;
 1478              		.loc 1 824 0
 1479 006e 0023     		movs	r3, #0
 1480 0070 FB60     		str	r3, [r7, #12]
 1481              	.L98:
 1482              	.LBE3:
 825:Generated_Source\PSoC5/CyDmac.c ****     }
 826:Generated_Source\PSoC5/CyDmac.c **** 
 827:Generated_Source\PSoC5/CyDmac.c ****     return(status);
 1483              		.loc 1 827 0
 1484 0072 FB68     		ldr	r3, [r7, #12]
 828:Generated_Source\PSoC5/CyDmac.c **** }
 1485              		.loc 1 828 0
 1486 0074 1846     		mov	r0, r3
 1487 0076 1037     		adds	r7, r7, #16
 1488              		.cfi_def_cfa_offset 8
 1489 0078 BD46     		mov	sp, r7
 1490              		.cfi_def_cfa_register 13
 1491              		@ sp needed
 1492 007a 90BC     		pop	{r4, r7}
 1493              		.cfi_restore 7
 1494              		.cfi_restore 4
 1495              		.cfi_def_cfa_offset 0
 1496 007c 7047     		bx	lr
 1497              		.cfi_endproc
 1498              	.LFE19:
 1499              		.size	CyDmaTdSetConfiguration, .-CyDmaTdSetConfiguration
 1500 007e 00BF     		.section	.text.CyDmaTdGetConfiguration,"ax",%progbits
 1501              		.align	2
 1502              		.global	CyDmaTdGetConfiguration
 1503              		.thumb
 1504              		.thumb_func
 1505              		.type	CyDmaTdGetConfiguration, %function
ARM GAS  C:\Users\MANSRO~1\AppData\Local\Temp\ccbHnXVe.s 			page 42


 1506              	CyDmaTdGetConfiguration:
 1507              	.LFB20:
 829:Generated_Source\PSoC5/CyDmac.c **** 
 830:Generated_Source\PSoC5/CyDmac.c **** 
 831:Generated_Source\PSoC5/CyDmac.c **** /*******************************************************************************
 832:Generated_Source\PSoC5/CyDmac.c **** * Function Name: CyDmaTdGetConfiguration
 833:Generated_Source\PSoC5/CyDmac.c **** ****************************************************************************//**
 834:Generated_Source\PSoC5/CyDmac.c **** *
 835:Generated_Source\PSoC5/CyDmac.c **** *  Retrieves the configuration of the TD. If a NULL pointer is passed as a
 836:Generated_Source\PSoC5/CyDmac.c **** *  parameter, that parameter is skipped. You may request only the values you are
 837:Generated_Source\PSoC5/CyDmac.c **** *  interested in.
 838:Generated_Source\PSoC5/CyDmac.c **** *
 839:Generated_Source\PSoC5/CyDmac.c **** *  \param uint8 tdHandle:
 840:Generated_Source\PSoC5/CyDmac.c **** *   A handle previously returned by CyDmaTdAlloc().
 841:Generated_Source\PSoC5/CyDmac.c **** *
 842:Generated_Source\PSoC5/CyDmac.c **** *  \param uint16 * transferCount:
 843:Generated_Source\PSoC5/CyDmac.c **** *   The address to store the size of the data transfer (in bytes) for this TD.
 844:Generated_Source\PSoC5/CyDmac.c **** *   A size of zero could indicate that the TD has completed its transfer, or
 845:Generated_Source\PSoC5/CyDmac.c **** *   that the TD is doing an indefinite transfer.
 846:Generated_Source\PSoC5/CyDmac.c **** *
 847:Generated_Source\PSoC5/CyDmac.c **** *  \param uint8 * nextTd:
 848:Generated_Source\PSoC5/CyDmac.c **** *   The address to store the index of the next TD in the TD chain.
 849:Generated_Source\PSoC5/CyDmac.c **** *
 850:Generated_Source\PSoC5/CyDmac.c **** *  \param uint8 * configuration:
 851:Generated_Source\PSoC5/CyDmac.c **** *   The address to store the Bit field of configuration bits.
 852:Generated_Source\PSoC5/CyDmac.c **** *   See CyDmaTdSetConfiguration() function description.
 853:Generated_Source\PSoC5/CyDmac.c **** *
 854:Generated_Source\PSoC5/CyDmac.c **** * \return
 855:Generated_Source\PSoC5/CyDmac.c **** *  CYRET_SUCCESS if successful.
 856:Generated_Source\PSoC5/CyDmac.c **** *  CYRET_BAD_PARAM if tdHandle is invalid.
 857:Generated_Source\PSoC5/CyDmac.c **** *
 858:Generated_Source\PSoC5/CyDmac.c **** * \sideeffect
 859:Generated_Source\PSoC5/CyDmac.c **** *  If TD has a transfer count of N and is executed, the transfer count becomes
 860:Generated_Source\PSoC5/CyDmac.c **** *  0. If it is reexecuted, the Transfer count of zero will be interpreted as a
 861:Generated_Source\PSoC5/CyDmac.c **** *  request for indefinite transfer. Be careful when requesting TD with a
 862:Generated_Source\PSoC5/CyDmac.c **** *  transfer count of zero.
 863:Generated_Source\PSoC5/CyDmac.c **** *
 864:Generated_Source\PSoC5/CyDmac.c **** *******************************************************************************/
 865:Generated_Source\PSoC5/CyDmac.c **** cystatus CyDmaTdGetConfiguration(uint8 tdHandle, uint16 * transferCount, uint8 * nextTd, uint8 * co
 866:Generated_Source\PSoC5/CyDmac.c ****     
 867:Generated_Source\PSoC5/CyDmac.c **** {
 1508              		.loc 1 867 0
 1509              		.cfi_startproc
 1510              		@ args = 0, pretend = 0, frame = 24
 1511              		@ frame_needed = 1, uses_anonymous_args = 0
 1512              		@ link register save eliminated.
 1513 0000 80B4     		push	{r7}
 1514              		.cfi_def_cfa_offset 4
 1515              		.cfi_offset 7, -4
 1516 0002 87B0     		sub	sp, sp, #28
 1517              		.cfi_def_cfa_offset 32
 1518 0004 00AF     		add	r7, sp, #0
 1519              		.cfi_def_cfa_register 7
 1520 0006 B960     		str	r1, [r7, #8]
 1521 0008 7A60     		str	r2, [r7, #4]
 1522 000a 3B60     		str	r3, [r7]
 1523 000c 0346     		mov	r3, r0
ARM GAS  C:\Users\MANSRO~1\AppData\Local\Temp\ccbHnXVe.s 			page 43


 1524 000e FB73     		strb	r3, [r7, #15]
 868:Generated_Source\PSoC5/CyDmac.c ****     cystatus status = CYRET_BAD_PARAM;
 1525              		.loc 1 868 0
 1526 0010 0123     		movs	r3, #1
 1527 0012 7B61     		str	r3, [r7, #20]
 869:Generated_Source\PSoC5/CyDmac.c **** 
 870:Generated_Source\PSoC5/CyDmac.c ****     if(tdHandle < CY_DMA_NUMBEROF_TDS)
 1528              		.loc 1 870 0
 1529 0014 97F90F30 		ldrsb	r3, [r7, #15]
 1530 0018 002B     		cmp	r3, #0
 1531 001a 2DDB     		blt	.L101
 871:Generated_Source\PSoC5/CyDmac.c ****     {
 872:Generated_Source\PSoC5/CyDmac.c ****         /* If we have pointer */
 873:Generated_Source\PSoC5/CyDmac.c ****         if(NULL != transferCount)
 1532              		.loc 1 873 0
 1533 001c BB68     		ldr	r3, [r7, #8]
 1534 001e 002B     		cmp	r3, #0
 1535 0020 0ED0     		beq	.L102
 1536              	.LBB4:
 874:Generated_Source\PSoC5/CyDmac.c ****         {
 875:Generated_Source\PSoC5/CyDmac.c ****             /* Get 12 bits of transfer count */
 876:Generated_Source\PSoC5/CyDmac.c ****             reg16 *convert = (reg16 *) &CY_DMA_TDMEM_STRUCT_PTR[tdHandle].TD0[0];
 1537              		.loc 1 876 0
 1538 0022 FB7B     		ldrb	r3, [r7, #15]	@ zero_extendqisi2
 1539 0024 DB00     		lsls	r3, r3, #3
 1540 0026 03F18043 		add	r3, r3, #1073741824
 1541 002a 03F5F043 		add	r3, r3, #30720
 1542 002e 3B61     		str	r3, [r7, #16]
 877:Generated_Source\PSoC5/CyDmac.c ****             *transferCount = 0x0FFFu & CY_GET_REG16(convert);
 1543              		.loc 1 877 0
 1544 0030 3B69     		ldr	r3, [r7, #16]
 1545 0032 1B88     		ldrh	r3, [r3]	@ movhi
 1546 0034 9BB2     		uxth	r3, r3
 1547 0036 C3F30B03 		ubfx	r3, r3, #0, #12
 1548 003a 9AB2     		uxth	r2, r3
 1549 003c BB68     		ldr	r3, [r7, #8]
 1550 003e 1A80     		strh	r2, [r3]	@ movhi
 1551              	.L102:
 1552              	.LBE4:
 878:Generated_Source\PSoC5/CyDmac.c ****         }
 879:Generated_Source\PSoC5/CyDmac.c **** 
 880:Generated_Source\PSoC5/CyDmac.c ****         /* If we have pointer */
 881:Generated_Source\PSoC5/CyDmac.c ****         if(NULL != nextTd)
 1553              		.loc 1 881 0
 1554 0040 7B68     		ldr	r3, [r7, #4]
 1555 0042 002B     		cmp	r3, #0
 1556 0044 09D0     		beq	.L103
 882:Generated_Source\PSoC5/CyDmac.c ****         {
 883:Generated_Source\PSoC5/CyDmac.c ****             /* Get Next TD pointer */
 884:Generated_Source\PSoC5/CyDmac.c ****             *nextTd = CY_DMA_TDMEM_STRUCT_PTR[tdHandle].TD0[2u];
 1557              		.loc 1 884 0
 1558 0046 FB7B     		ldrb	r3, [r7, #15]	@ zero_extendqisi2
 1559 0048 DB00     		lsls	r3, r3, #3
 1560 004a 03F18043 		add	r3, r3, #1073741824
 1561 004e 03F5F043 		add	r3, r3, #30720
 1562 0052 9B78     		ldrb	r3, [r3, #2]
 1563 0054 DAB2     		uxtb	r2, r3
ARM GAS  C:\Users\MANSRO~1\AppData\Local\Temp\ccbHnXVe.s 			page 44


 1564 0056 7B68     		ldr	r3, [r7, #4]
 1565 0058 1A70     		strb	r2, [r3]
 1566              	.L103:
 885:Generated_Source\PSoC5/CyDmac.c ****         }
 886:Generated_Source\PSoC5/CyDmac.c **** 
 887:Generated_Source\PSoC5/CyDmac.c ****         /* If we have pointer */
 888:Generated_Source\PSoC5/CyDmac.c ****         if(NULL != configuration)
 1567              		.loc 1 888 0
 1568 005a 3B68     		ldr	r3, [r7]
 1569 005c 002B     		cmp	r3, #0
 1570 005e 09D0     		beq	.L104
 889:Generated_Source\PSoC5/CyDmac.c ****         {
 890:Generated_Source\PSoC5/CyDmac.c ****             /* Get configuration TD */
 891:Generated_Source\PSoC5/CyDmac.c ****             *configuration = CY_DMA_TDMEM_STRUCT_PTR[tdHandle].TD0[3u];
 1571              		.loc 1 891 0
 1572 0060 FB7B     		ldrb	r3, [r7, #15]	@ zero_extendqisi2
 1573 0062 DB00     		lsls	r3, r3, #3
 1574 0064 03F18043 		add	r3, r3, #1073741824
 1575 0068 03F5F043 		add	r3, r3, #30720
 1576 006c DB78     		ldrb	r3, [r3, #3]
 1577 006e DAB2     		uxtb	r2, r3
 1578 0070 3B68     		ldr	r3, [r7]
 1579 0072 1A70     		strb	r2, [r3]
 1580              	.L104:
 892:Generated_Source\PSoC5/CyDmac.c ****         }
 893:Generated_Source\PSoC5/CyDmac.c **** 
 894:Generated_Source\PSoC5/CyDmac.c ****         status = CYRET_SUCCESS;
 1581              		.loc 1 894 0
 1582 0074 0023     		movs	r3, #0
 1583 0076 7B61     		str	r3, [r7, #20]
 1584              	.L101:
 895:Generated_Source\PSoC5/CyDmac.c ****     }
 896:Generated_Source\PSoC5/CyDmac.c **** 
 897:Generated_Source\PSoC5/CyDmac.c ****     return(status);
 1585              		.loc 1 897 0
 1586 0078 7B69     		ldr	r3, [r7, #20]
 898:Generated_Source\PSoC5/CyDmac.c **** }
 1587              		.loc 1 898 0
 1588 007a 1846     		mov	r0, r3
 1589 007c 1C37     		adds	r7, r7, #28
 1590              		.cfi_def_cfa_offset 4
 1591 007e BD46     		mov	sp, r7
 1592              		.cfi_def_cfa_register 13
 1593              		@ sp needed
 1594 0080 80BC     		pop	{r7}
 1595              		.cfi_restore 7
 1596              		.cfi_def_cfa_offset 0
 1597 0082 7047     		bx	lr
 1598              		.cfi_endproc
 1599              	.LFE20:
 1600              		.size	CyDmaTdGetConfiguration, .-CyDmaTdGetConfiguration
 1601              		.section	.text.CyDmaTdSetAddress,"ax",%progbits
 1602              		.align	2
 1603              		.global	CyDmaTdSetAddress
 1604              		.thumb
 1605              		.thumb_func
 1606              		.type	CyDmaTdSetAddress, %function
ARM GAS  C:\Users\MANSRO~1\AppData\Local\Temp\ccbHnXVe.s 			page 45


 1607              	CyDmaTdSetAddress:
 1608              	.LFB21:
 899:Generated_Source\PSoC5/CyDmac.c **** 
 900:Generated_Source\PSoC5/CyDmac.c **** 
 901:Generated_Source\PSoC5/CyDmac.c **** /*******************************************************************************
 902:Generated_Source\PSoC5/CyDmac.c **** * Function Name: CyDmaTdSetAddress
 903:Generated_Source\PSoC5/CyDmac.c **** ****************************************************************************//**
 904:Generated_Source\PSoC5/CyDmac.c **** *
 905:Generated_Source\PSoC5/CyDmac.c **** *  Sets the lower 16 bits of the source and destination addresses for this TD
 906:Generated_Source\PSoC5/CyDmac.c **** *  only.
 907:Generated_Source\PSoC5/CyDmac.c **** *
 908:Generated_Source\PSoC5/CyDmac.c **** *  \param uint8 tdHandle:
 909:Generated_Source\PSoC5/CyDmac.c **** *   A handle previously returned by CyDmaTdAlloc().
 910:Generated_Source\PSoC5/CyDmac.c **** *
 911:Generated_Source\PSoC5/CyDmac.c **** *  \param uint16 source:
 912:Generated_Source\PSoC5/CyDmac.c **** *   The lower 16 address bits of the source of the data transfer.
 913:Generated_Source\PSoC5/CyDmac.c **** *
 914:Generated_Source\PSoC5/CyDmac.c **** *  \param uint16 destination:
 915:Generated_Source\PSoC5/CyDmac.c **** *   The lower 16 address bits of the destination of the data transfer.
 916:Generated_Source\PSoC5/CyDmac.c **** *
 917:Generated_Source\PSoC5/CyDmac.c **** * \return
 918:Generated_Source\PSoC5/CyDmac.c **** *  CYRET_SUCCESS if successful.
 919:Generated_Source\PSoC5/CyDmac.c **** *  CYRET_BAD_PARAM if tdHandle is invalid.
 920:Generated_Source\PSoC5/CyDmac.c **** *
 921:Generated_Source\PSoC5/CyDmac.c **** *******************************************************************************/
 922:Generated_Source\PSoC5/CyDmac.c **** cystatus CyDmaTdSetAddress(uint8 tdHandle, uint16 source, uint16 destination) 
 923:Generated_Source\PSoC5/CyDmac.c **** {
 1609              		.loc 1 923 0
 1610              		.cfi_startproc
 1611              		@ args = 0, pretend = 0, frame = 16
 1612              		@ frame_needed = 1, uses_anonymous_args = 0
 1613              		@ link register save eliminated.
 1614 0000 80B4     		push	{r7}
 1615              		.cfi_def_cfa_offset 4
 1616              		.cfi_offset 7, -4
 1617 0002 85B0     		sub	sp, sp, #20
 1618              		.cfi_def_cfa_offset 24
 1619 0004 00AF     		add	r7, sp, #0
 1620              		.cfi_def_cfa_register 7
 1621 0006 0346     		mov	r3, r0
 1622 0008 FB71     		strb	r3, [r7, #7]
 1623 000a 0B46     		mov	r3, r1	@ movhi
 1624 000c BB80     		strh	r3, [r7, #4]	@ movhi
 1625 000e 1346     		mov	r3, r2	@ movhi
 1626 0010 7B80     		strh	r3, [r7, #2]	@ movhi
 924:Generated_Source\PSoC5/CyDmac.c ****     cystatus status = CYRET_BAD_PARAM;
 1627              		.loc 1 924 0
 1628 0012 0123     		movs	r3, #1
 1629 0014 FB60     		str	r3, [r7, #12]
 925:Generated_Source\PSoC5/CyDmac.c ****     reg16 *convert;
 926:Generated_Source\PSoC5/CyDmac.c **** 
 927:Generated_Source\PSoC5/CyDmac.c ****     if(tdHandle < CY_DMA_NUMBEROF_TDS)
 1630              		.loc 1 927 0
 1631 0016 97F90730 		ldrsb	r3, [r7, #7]
 1632 001a 002B     		cmp	r3, #0
 1633 001c 17DB     		blt	.L107
 928:Generated_Source\PSoC5/CyDmac.c ****     {
ARM GAS  C:\Users\MANSRO~1\AppData\Local\Temp\ccbHnXVe.s 			page 46


 929:Generated_Source\PSoC5/CyDmac.c ****         /* Set source address */
 930:Generated_Source\PSoC5/CyDmac.c ****         convert = (reg16 *) &CY_DMA_TDMEM_STRUCT_PTR[tdHandle].TD1[0u];
 1634              		.loc 1 930 0
 1635 001e FB79     		ldrb	r3, [r7, #7]	@ zero_extendqisi2
 1636 0020 DB00     		lsls	r3, r3, #3
 1637 0022 03F18043 		add	r3, r3, #1073741824
 1638 0026 03F5F043 		add	r3, r3, #30720
 1639 002a 0433     		adds	r3, r3, #4
 1640 002c BB60     		str	r3, [r7, #8]
 931:Generated_Source\PSoC5/CyDmac.c ****         CY_SET_REG16(convert, source);
 1641              		.loc 1 931 0
 1642 002e BB68     		ldr	r3, [r7, #8]
 1643 0030 BA88     		ldrh	r2, [r7, #4]	@ movhi
 1644 0032 1A80     		strh	r2, [r3]	@ movhi
 932:Generated_Source\PSoC5/CyDmac.c **** 
 933:Generated_Source\PSoC5/CyDmac.c ****         /* Set destination address */
 934:Generated_Source\PSoC5/CyDmac.c ****         convert = (reg16 *) &CY_DMA_TDMEM_STRUCT_PTR[tdHandle].TD1[2u];
 1645              		.loc 1 934 0
 1646 0034 FB79     		ldrb	r3, [r7, #7]	@ zero_extendqisi2
 1647 0036 DB00     		lsls	r3, r3, #3
 1648 0038 03F18043 		add	r3, r3, #1073741824
 1649 003c 03F5F043 		add	r3, r3, #30720
 1650 0040 0633     		adds	r3, r3, #6
 1651 0042 BB60     		str	r3, [r7, #8]
 935:Generated_Source\PSoC5/CyDmac.c ****         CY_SET_REG16(convert, destination);
 1652              		.loc 1 935 0
 1653 0044 BB68     		ldr	r3, [r7, #8]
 1654 0046 7A88     		ldrh	r2, [r7, #2]	@ movhi
 1655 0048 1A80     		strh	r2, [r3]	@ movhi
 936:Generated_Source\PSoC5/CyDmac.c **** 
 937:Generated_Source\PSoC5/CyDmac.c ****         status = CYRET_SUCCESS;
 1656              		.loc 1 937 0
 1657 004a 0023     		movs	r3, #0
 1658 004c FB60     		str	r3, [r7, #12]
 1659              	.L107:
 938:Generated_Source\PSoC5/CyDmac.c ****     }
 939:Generated_Source\PSoC5/CyDmac.c **** 
 940:Generated_Source\PSoC5/CyDmac.c ****     return(status);
 1660              		.loc 1 940 0
 1661 004e FB68     		ldr	r3, [r7, #12]
 941:Generated_Source\PSoC5/CyDmac.c **** }
 1662              		.loc 1 941 0
 1663 0050 1846     		mov	r0, r3
 1664 0052 1437     		adds	r7, r7, #20
 1665              		.cfi_def_cfa_offset 4
 1666 0054 BD46     		mov	sp, r7
 1667              		.cfi_def_cfa_register 13
 1668              		@ sp needed
 1669 0056 80BC     		pop	{r7}
 1670              		.cfi_restore 7
 1671              		.cfi_def_cfa_offset 0
 1672 0058 7047     		bx	lr
 1673              		.cfi_endproc
 1674              	.LFE21:
 1675              		.size	CyDmaTdSetAddress, .-CyDmaTdSetAddress
 1676 005a 00BF     		.section	.text.CyDmaTdGetAddress,"ax",%progbits
 1677              		.align	2
ARM GAS  C:\Users\MANSRO~1\AppData\Local\Temp\ccbHnXVe.s 			page 47


 1678              		.global	CyDmaTdGetAddress
 1679              		.thumb
 1680              		.thumb_func
 1681              		.type	CyDmaTdGetAddress, %function
 1682              	CyDmaTdGetAddress:
 1683              	.LFB22:
 942:Generated_Source\PSoC5/CyDmac.c **** 
 943:Generated_Source\PSoC5/CyDmac.c **** 
 944:Generated_Source\PSoC5/CyDmac.c **** /*******************************************************************************
 945:Generated_Source\PSoC5/CyDmac.c **** * Function Name: CyDmaTdGetAddress
 946:Generated_Source\PSoC5/CyDmac.c **** ****************************************************************************//**
 947:Generated_Source\PSoC5/CyDmac.c **** *
 948:Generated_Source\PSoC5/CyDmac.c **** *  Retrieves the lower 16 bits of the source and/or destination addresses for
 949:Generated_Source\PSoC5/CyDmac.c **** *  this TD only. If NULL is passed for a pointer parameter, that value is
 950:Generated_Source\PSoC5/CyDmac.c **** *  skipped. You may request only the values of interest.
 951:Generated_Source\PSoC5/CyDmac.c **** *
 952:Generated_Source\PSoC5/CyDmac.c **** *  \param uint8 tdHandle:
 953:Generated_Source\PSoC5/CyDmac.c **** *   A handle previously returned by CyDmaTdAlloc().
 954:Generated_Source\PSoC5/CyDmac.c **** *
 955:Generated_Source\PSoC5/CyDmac.c **** *  \param uint16 * source:
 956:Generated_Source\PSoC5/CyDmac.c **** *   The address to store the lower 16 address bits of the source of the data
 957:Generated_Source\PSoC5/CyDmac.c **** *   transfer.
 958:Generated_Source\PSoC5/CyDmac.c **** *
 959:Generated_Source\PSoC5/CyDmac.c **** *  \param uint16 * destination:
 960:Generated_Source\PSoC5/CyDmac.c **** *   The address to store the lower 16 address bits of the destination of the
 961:Generated_Source\PSoC5/CyDmac.c **** *   data transfer.
 962:Generated_Source\PSoC5/CyDmac.c **** *
 963:Generated_Source\PSoC5/CyDmac.c **** * \return
 964:Generated_Source\PSoC5/CyDmac.c **** *  CYRET_SUCCESS if successful.
 965:Generated_Source\PSoC5/CyDmac.c **** *  CYRET_BAD_PARAM if tdHandle is invalid.
 966:Generated_Source\PSoC5/CyDmac.c **** *
 967:Generated_Source\PSoC5/CyDmac.c **** *******************************************************************************/
 968:Generated_Source\PSoC5/CyDmac.c **** cystatus CyDmaTdGetAddress(uint8 tdHandle, uint16 * source, uint16 * destination) 
 969:Generated_Source\PSoC5/CyDmac.c **** {
 1684              		.loc 1 969 0
 1685              		.cfi_startproc
 1686              		@ args = 0, pretend = 0, frame = 24
 1687              		@ frame_needed = 1, uses_anonymous_args = 0
 1688              		@ link register save eliminated.
 1689 0000 80B4     		push	{r7}
 1690              		.cfi_def_cfa_offset 4
 1691              		.cfi_offset 7, -4
 1692 0002 87B0     		sub	sp, sp, #28
 1693              		.cfi_def_cfa_offset 32
 1694 0004 00AF     		add	r7, sp, #0
 1695              		.cfi_def_cfa_register 7
 1696 0006 0346     		mov	r3, r0
 1697 0008 B960     		str	r1, [r7, #8]
 1698 000a 7A60     		str	r2, [r7, #4]
 1699 000c FB73     		strb	r3, [r7, #15]
 970:Generated_Source\PSoC5/CyDmac.c ****     cystatus status = CYRET_BAD_PARAM;
 1700              		.loc 1 970 0
 1701 000e 0123     		movs	r3, #1
 1702 0010 7B61     		str	r3, [r7, #20]
 971:Generated_Source\PSoC5/CyDmac.c ****     reg16 *convert;
 972:Generated_Source\PSoC5/CyDmac.c **** 
 973:Generated_Source\PSoC5/CyDmac.c ****     if(tdHandle < CY_DMA_NUMBEROF_TDS)
ARM GAS  C:\Users\MANSRO~1\AppData\Local\Temp\ccbHnXVe.s 			page 48


 1703              		.loc 1 973 0
 1704 0012 97F90F30 		ldrsb	r3, [r7, #15]
 1705 0016 002B     		cmp	r3, #0
 1706 0018 21DB     		blt	.L110
 974:Generated_Source\PSoC5/CyDmac.c ****     {
 975:Generated_Source\PSoC5/CyDmac.c ****         /* If we have a pointer. */
 976:Generated_Source\PSoC5/CyDmac.c ****         if(NULL != source)
 1707              		.loc 1 976 0
 1708 001a BB68     		ldr	r3, [r7, #8]
 1709 001c 002B     		cmp	r3, #0
 1710 001e 0CD0     		beq	.L111
 977:Generated_Source\PSoC5/CyDmac.c ****         {
 978:Generated_Source\PSoC5/CyDmac.c ****             /* Get source address */
 979:Generated_Source\PSoC5/CyDmac.c ****             convert = (reg16 *) &CY_DMA_TDMEM_STRUCT_PTR[tdHandle].TD1[0u];
 1711              		.loc 1 979 0
 1712 0020 FB7B     		ldrb	r3, [r7, #15]	@ zero_extendqisi2
 1713 0022 DB00     		lsls	r3, r3, #3
 1714 0024 03F18043 		add	r3, r3, #1073741824
 1715 0028 03F5F043 		add	r3, r3, #30720
 1716 002c 0433     		adds	r3, r3, #4
 1717 002e 3B61     		str	r3, [r7, #16]
 980:Generated_Source\PSoC5/CyDmac.c ****             *source = CY_GET_REG16(convert);
 1718              		.loc 1 980 0
 1719 0030 3B69     		ldr	r3, [r7, #16]
 1720 0032 1B88     		ldrh	r3, [r3]	@ movhi
 1721 0034 9AB2     		uxth	r2, r3
 1722 0036 BB68     		ldr	r3, [r7, #8]
 1723 0038 1A80     		strh	r2, [r3]	@ movhi
 1724              	.L111:
 981:Generated_Source\PSoC5/CyDmac.c ****         }
 982:Generated_Source\PSoC5/CyDmac.c **** 
 983:Generated_Source\PSoC5/CyDmac.c ****         /* If we have a pointer. */
 984:Generated_Source\PSoC5/CyDmac.c ****         if(NULL != destination)
 1725              		.loc 1 984 0
 1726 003a 7B68     		ldr	r3, [r7, #4]
 1727 003c 002B     		cmp	r3, #0
 1728 003e 0CD0     		beq	.L112
 985:Generated_Source\PSoC5/CyDmac.c ****         {
 986:Generated_Source\PSoC5/CyDmac.c ****             /* Get Destination address. */
 987:Generated_Source\PSoC5/CyDmac.c ****             convert = (reg16 *) &CY_DMA_TDMEM_STRUCT_PTR[tdHandle].TD1[2u];
 1729              		.loc 1 987 0
 1730 0040 FB7B     		ldrb	r3, [r7, #15]	@ zero_extendqisi2
 1731 0042 DB00     		lsls	r3, r3, #3
 1732 0044 03F18043 		add	r3, r3, #1073741824
 1733 0048 03F5F043 		add	r3, r3, #30720
 1734 004c 0633     		adds	r3, r3, #6
 1735 004e 3B61     		str	r3, [r7, #16]
 988:Generated_Source\PSoC5/CyDmac.c ****             *destination = CY_GET_REG16(convert);
 1736              		.loc 1 988 0
 1737 0050 3B69     		ldr	r3, [r7, #16]
 1738 0052 1B88     		ldrh	r3, [r3]	@ movhi
 1739 0054 9AB2     		uxth	r2, r3
 1740 0056 7B68     		ldr	r3, [r7, #4]
 1741 0058 1A80     		strh	r2, [r3]	@ movhi
 1742              	.L112:
 989:Generated_Source\PSoC5/CyDmac.c ****         }
 990:Generated_Source\PSoC5/CyDmac.c **** 
ARM GAS  C:\Users\MANSRO~1\AppData\Local\Temp\ccbHnXVe.s 			page 49


 991:Generated_Source\PSoC5/CyDmac.c ****         status = CYRET_SUCCESS;
 1743              		.loc 1 991 0
 1744 005a 0023     		movs	r3, #0
 1745 005c 7B61     		str	r3, [r7, #20]
 1746              	.L110:
 992:Generated_Source\PSoC5/CyDmac.c ****     }
 993:Generated_Source\PSoC5/CyDmac.c **** 
 994:Generated_Source\PSoC5/CyDmac.c ****     return(status);
 1747              		.loc 1 994 0
 1748 005e 7B69     		ldr	r3, [r7, #20]
 995:Generated_Source\PSoC5/CyDmac.c **** }
 1749              		.loc 1 995 0
 1750 0060 1846     		mov	r0, r3
 1751 0062 1C37     		adds	r7, r7, #28
 1752              		.cfi_def_cfa_offset 4
 1753 0064 BD46     		mov	sp, r7
 1754              		.cfi_def_cfa_register 13
 1755              		@ sp needed
 1756 0066 80BC     		pop	{r7}
 1757              		.cfi_restore 7
 1758              		.cfi_def_cfa_offset 0
 1759 0068 7047     		bx	lr
 1760              		.cfi_endproc
 1761              	.LFE22:
 1762              		.size	CyDmaTdGetAddress, .-CyDmaTdGetAddress
 1763              		.section	.text.CyDmaChRoundRobin,"ax",%progbits
 1764              		.align	2
 1765              		.global	CyDmaChRoundRobin
 1766              		.thumb
 1767              		.thumb_func
 1768              		.type	CyDmaChRoundRobin, %function
 1769              	CyDmaChRoundRobin:
 1770              	.LFB23:
 996:Generated_Source\PSoC5/CyDmac.c **** 
 997:Generated_Source\PSoC5/CyDmac.c **** 
 998:Generated_Source\PSoC5/CyDmac.c **** /*******************************************************************************
 999:Generated_Source\PSoC5/CyDmac.c **** * Function Name: CyDmaChRoundRobin
1000:Generated_Source\PSoC5/CyDmac.c **** ****************************************************************************//**
1001:Generated_Source\PSoC5/CyDmac.c **** *
1002:Generated_Source\PSoC5/CyDmac.c **** * Either enables or disables the Round-Robin scheduling enforcement algorithm.
1003:Generated_Source\PSoC5/CyDmac.c **** * Within a priority level a Round-Robin fairness algorithm is enforced.
1004:Generated_Source\PSoC5/CyDmac.c **** *
1005:Generated_Source\PSoC5/CyDmac.c **** * \param uint8 chHandle:
1006:Generated_Source\PSoC5/CyDmac.c **** *  A handle previously returned by CyDmaChAlloc() or Dma_DmaInitialize().
1007:Generated_Source\PSoC5/CyDmac.c **** *
1008:Generated_Source\PSoC5/CyDmac.c **** * \param uint8 enableRR:
1009:Generated_Source\PSoC5/CyDmac.c **** *  \param 0: Disable Round-Robin fairness algorithm
1010:Generated_Source\PSoC5/CyDmac.c **** *  \param 1: Enable Round-Robin fairness algorithm
1011:Generated_Source\PSoC5/CyDmac.c **** *
1012:Generated_Source\PSoC5/CyDmac.c **** * \return
1013:Generated_Source\PSoC5/CyDmac.c **** * CYRET_SUCCESS if successful.
1014:Generated_Source\PSoC5/CyDmac.c **** * CYRET_BAD_PARAM if chHandle is invalid.
1015:Generated_Source\PSoC5/CyDmac.c **** *
1016:Generated_Source\PSoC5/CyDmac.c **** *******************************************************************************/
1017:Generated_Source\PSoC5/CyDmac.c **** cystatus CyDmaChRoundRobin(uint8 chHandle, uint8 enableRR) 
1018:Generated_Source\PSoC5/CyDmac.c **** {
 1771              		.loc 1 1018 0
ARM GAS  C:\Users\MANSRO~1\AppData\Local\Temp\ccbHnXVe.s 			page 50


 1772              		.cfi_startproc
 1773              		@ args = 0, pretend = 0, frame = 16
 1774              		@ frame_needed = 1, uses_anonymous_args = 0
 1775              		@ link register save eliminated.
 1776 0000 80B4     		push	{r7}
 1777              		.cfi_def_cfa_offset 4
 1778              		.cfi_offset 7, -4
 1779 0002 85B0     		sub	sp, sp, #20
 1780              		.cfi_def_cfa_offset 24
 1781 0004 00AF     		add	r7, sp, #0
 1782              		.cfi_def_cfa_register 7
 1783 0006 0346     		mov	r3, r0
 1784 0008 0A46     		mov	r2, r1
 1785 000a FB71     		strb	r3, [r7, #7]
 1786 000c 1346     		mov	r3, r2
 1787 000e BB71     		strb	r3, [r7, #6]
1019:Generated_Source\PSoC5/CyDmac.c ****     cystatus status = CYRET_BAD_PARAM;
 1788              		.loc 1 1019 0
 1789 0010 0123     		movs	r3, #1
 1790 0012 FB60     		str	r3, [r7, #12]
1020:Generated_Source\PSoC5/CyDmac.c **** 
1021:Generated_Source\PSoC5/CyDmac.c ****     if(chHandle < CY_DMA_NUMBEROF_CHANNELS)
 1791              		.loc 1 1021 0
 1792 0014 FB79     		ldrb	r3, [r7, #7]	@ zero_extendqisi2
 1793 0016 172B     		cmp	r3, #23
 1794 0018 21D8     		bhi	.L115
1022:Generated_Source\PSoC5/CyDmac.c ****     {
1023:Generated_Source\PSoC5/CyDmac.c ****         if (0u != enableRR)
 1795              		.loc 1 1023 0
 1796 001a BB79     		ldrb	r3, [r7, #6]	@ zero_extendqisi2
 1797 001c 002B     		cmp	r3, #0
 1798 001e 0ED0     		beq	.L116
1024:Generated_Source\PSoC5/CyDmac.c ****         {
1025:Generated_Source\PSoC5/CyDmac.c ****             CY_DMA_CH_STRUCT_PTR[chHandle].basic_cfg[0u] |= (uint8)CY_DMA_ROUND_ROBIN_ENABLE;
 1799              		.loc 1 1025 0
 1800 0020 FB79     		ldrb	r3, [r7, #7]	@ zero_extendqisi2
 1801 0022 1A01     		lsls	r2, r3, #4
 1802 0024 114B     		ldr	r3, .L119
 1803 0026 1344     		add	r3, r3, r2
 1804 0028 FA79     		ldrb	r2, [r7, #7]	@ zero_extendqisi2
 1805 002a 1101     		lsls	r1, r2, #4
 1806 002c 0F4A     		ldr	r2, .L119
 1807 002e 0A44     		add	r2, r2, r1
 1808 0030 1278     		ldrb	r2, [r2]
 1809 0032 D2B2     		uxtb	r2, r2
 1810 0034 42F01002 		orr	r2, r2, #16
 1811 0038 D2B2     		uxtb	r2, r2
 1812 003a 1A70     		strb	r2, [r3]
 1813 003c 0DE0     		b	.L117
 1814              	.L116:
1026:Generated_Source\PSoC5/CyDmac.c ****         }
1027:Generated_Source\PSoC5/CyDmac.c ****         else
1028:Generated_Source\PSoC5/CyDmac.c ****         {
1029:Generated_Source\PSoC5/CyDmac.c ****             CY_DMA_CH_STRUCT_PTR[chHandle].basic_cfg[0u] &= (uint8)(~CY_DMA_ROUND_ROBIN_ENABLE);
 1815              		.loc 1 1029 0
 1816 003e FB79     		ldrb	r3, [r7, #7]	@ zero_extendqisi2
 1817 0040 1A01     		lsls	r2, r3, #4
ARM GAS  C:\Users\MANSRO~1\AppData\Local\Temp\ccbHnXVe.s 			page 51


 1818 0042 0A4B     		ldr	r3, .L119
 1819 0044 1344     		add	r3, r3, r2
 1820 0046 FA79     		ldrb	r2, [r7, #7]	@ zero_extendqisi2
 1821 0048 1101     		lsls	r1, r2, #4
 1822 004a 084A     		ldr	r2, .L119
 1823 004c 0A44     		add	r2, r2, r1
 1824 004e 1278     		ldrb	r2, [r2]
 1825 0050 D2B2     		uxtb	r2, r2
 1826 0052 22F01002 		bic	r2, r2, #16
 1827 0056 D2B2     		uxtb	r2, r2
 1828 0058 1A70     		strb	r2, [r3]
 1829              	.L117:
1030:Generated_Source\PSoC5/CyDmac.c ****         }
1031:Generated_Source\PSoC5/CyDmac.c **** 
1032:Generated_Source\PSoC5/CyDmac.c ****         status = CYRET_SUCCESS;
 1830              		.loc 1 1032 0
 1831 005a 0023     		movs	r3, #0
 1832 005c FB60     		str	r3, [r7, #12]
 1833              	.L115:
1033:Generated_Source\PSoC5/CyDmac.c ****     }
1034:Generated_Source\PSoC5/CyDmac.c **** 
1035:Generated_Source\PSoC5/CyDmac.c ****     return(status);
 1834              		.loc 1 1035 0
 1835 005e FB68     		ldr	r3, [r7, #12]
1036:Generated_Source\PSoC5/CyDmac.c **** }
 1836              		.loc 1 1036 0
 1837 0060 1846     		mov	r0, r3
 1838 0062 1437     		adds	r7, r7, #20
 1839              		.cfi_def_cfa_offset 4
 1840 0064 BD46     		mov	sp, r7
 1841              		.cfi_def_cfa_register 13
 1842              		@ sp needed
 1843 0066 80BC     		pop	{r7}
 1844              		.cfi_restore 7
 1845              		.cfi_def_cfa_offset 0
 1846 0068 7047     		bx	lr
 1847              	.L120:
 1848 006a 00BF     		.align	2
 1849              	.L119:
 1850 006c 10700040 		.word	1073770512
 1851              		.cfi_endproc
 1852              	.LFE23:
 1853              		.size	CyDmaChRoundRobin, .-CyDmaChRoundRobin
 1854              		.text
 1855              	.Letext0:
 1856              		.file 2 "Generated_Source\\PSoC5\\cytypes.h"
 1857              		.file 3 "Generated_Source\\PSoC5\\CyDmac.h"
