ARM GAS  C:\Users\MANSRO~1\AppData\Local\Temp\cceflTt2.s 			page 1


   1              		.syntax unified
   2              		.cpu cortex-m3
   3              		.fpu softvfp
   4              		.eabi_attribute 20, 1
   5              		.eabi_attribute 21, 1
   6              		.eabi_attribute 23, 3
   7              		.eabi_attribute 24, 1
   8              		.eabi_attribute 25, 1
   9              		.eabi_attribute 26, 1
  10              		.eabi_attribute 30, 6
  11              		.eabi_attribute 34, 1
  12              		.eabi_attribute 18, 4
  13              		.thumb
  14              		.syntax unified
  15              		.file	"USBFS_Dm.c"
  16              		.text
  17              	.Ltext0:
  18              		.cfi_sections	.debug_frame
  19              		.section	.text.USBFS_Dm_Write,"ax",%progbits
  20              		.align	2
  21              		.global	USBFS_Dm_Write
  22              		.thumb
  23              		.thumb_func
  24              		.type	USBFS_Dm_Write, %function
  25              	USBFS_Dm_Write:
  26              	.LFB0:
  27              		.file 1 "Generated_Source\\PSoC5\\USBFS_Dm.c"
   1:Generated_Source\PSoC5/USBFS_Dm.c **** /*******************************************************************************
   2:Generated_Source\PSoC5/USBFS_Dm.c **** * File Name: USBFS_Dm.c  
   3:Generated_Source\PSoC5/USBFS_Dm.c **** * Version 2.20
   4:Generated_Source\PSoC5/USBFS_Dm.c **** *
   5:Generated_Source\PSoC5/USBFS_Dm.c **** * Description:
   6:Generated_Source\PSoC5/USBFS_Dm.c **** *  This file contains API to enable firmware control of a Pins component.
   7:Generated_Source\PSoC5/USBFS_Dm.c **** *
   8:Generated_Source\PSoC5/USBFS_Dm.c **** * Note:
   9:Generated_Source\PSoC5/USBFS_Dm.c **** *
  10:Generated_Source\PSoC5/USBFS_Dm.c **** ********************************************************************************
  11:Generated_Source\PSoC5/USBFS_Dm.c **** * Copyright 2008-2015, Cypress Semiconductor Corporation.  All rights reserved.
  12:Generated_Source\PSoC5/USBFS_Dm.c **** * You may use this file only in accordance with the license, terms, conditions, 
  13:Generated_Source\PSoC5/USBFS_Dm.c **** * disclaimers, and limitations in the end user license agreement accompanying 
  14:Generated_Source\PSoC5/USBFS_Dm.c **** * the software package with which this file was provided.
  15:Generated_Source\PSoC5/USBFS_Dm.c **** *******************************************************************************/
  16:Generated_Source\PSoC5/USBFS_Dm.c **** 
  17:Generated_Source\PSoC5/USBFS_Dm.c **** #include "cytypes.h"
  18:Generated_Source\PSoC5/USBFS_Dm.c **** #include "USBFS_Dm.h"
  19:Generated_Source\PSoC5/USBFS_Dm.c **** 
  20:Generated_Source\PSoC5/USBFS_Dm.c **** /* APIs are not generated for P15[7:6] on PSoC 5 */
  21:Generated_Source\PSoC5/USBFS_Dm.c **** #if !(CY_PSOC5A &&\
  22:Generated_Source\PSoC5/USBFS_Dm.c **** 	 USBFS_Dm__PORT == 15 && ((USBFS_Dm__MASK & 0xC0) != 0))
  23:Generated_Source\PSoC5/USBFS_Dm.c **** 
  24:Generated_Source\PSoC5/USBFS_Dm.c **** 
  25:Generated_Source\PSoC5/USBFS_Dm.c **** /*******************************************************************************
  26:Generated_Source\PSoC5/USBFS_Dm.c **** * Function Name: USBFS_Dm_Write
  27:Generated_Source\PSoC5/USBFS_Dm.c **** ****************************************************************************//**
  28:Generated_Source\PSoC5/USBFS_Dm.c **** *
  29:Generated_Source\PSoC5/USBFS_Dm.c **** * \brief Writes the value to the physical port (data output register), masking
  30:Generated_Source\PSoC5/USBFS_Dm.c **** *  and shifting the bits appropriately. 
ARM GAS  C:\Users\MANSRO~1\AppData\Local\Temp\cceflTt2.s 			page 2


  31:Generated_Source\PSoC5/USBFS_Dm.c **** *
  32:Generated_Source\PSoC5/USBFS_Dm.c **** * The data output register controls the signal applied to the physical pin in 
  33:Generated_Source\PSoC5/USBFS_Dm.c **** * conjunction with the drive mode parameter. This function avoids changing 
  34:Generated_Source\PSoC5/USBFS_Dm.c **** * other bits in the port by using the appropriate method (read-modify-write or
  35:Generated_Source\PSoC5/USBFS_Dm.c **** * bit banding).
  36:Generated_Source\PSoC5/USBFS_Dm.c **** *
  37:Generated_Source\PSoC5/USBFS_Dm.c **** * <b>Note</b> This function should not be used on a hardware digital output pin 
  38:Generated_Source\PSoC5/USBFS_Dm.c **** * as it is driven by the hardware signal attached to it.
  39:Generated_Source\PSoC5/USBFS_Dm.c **** *
  40:Generated_Source\PSoC5/USBFS_Dm.c **** * \param value
  41:Generated_Source\PSoC5/USBFS_Dm.c **** *  Value to write to the component instance.
  42:Generated_Source\PSoC5/USBFS_Dm.c **** *
  43:Generated_Source\PSoC5/USBFS_Dm.c **** * \return 
  44:Generated_Source\PSoC5/USBFS_Dm.c **** *  None 
  45:Generated_Source\PSoC5/USBFS_Dm.c **** *
  46:Generated_Source\PSoC5/USBFS_Dm.c **** * \sideeffect
  47:Generated_Source\PSoC5/USBFS_Dm.c **** *  If you use read-modify-write operations that are not atomic; the Interrupt 
  48:Generated_Source\PSoC5/USBFS_Dm.c **** *  Service Routines (ISR) can cause corruption of this function. An ISR that 
  49:Generated_Source\PSoC5/USBFS_Dm.c **** *  interrupts this function and performs writes to the Pins component data 
  50:Generated_Source\PSoC5/USBFS_Dm.c **** *  register can cause corrupted port data. To avoid this issue, you should 
  51:Generated_Source\PSoC5/USBFS_Dm.c **** *  either use the Per-Pin APIs (primary method) or disable interrupts around 
  52:Generated_Source\PSoC5/USBFS_Dm.c **** *  this function.
  53:Generated_Source\PSoC5/USBFS_Dm.c **** *
  54:Generated_Source\PSoC5/USBFS_Dm.c **** * \funcusage
  55:Generated_Source\PSoC5/USBFS_Dm.c **** *  \snippet USBFS_Dm_SUT.c usage_USBFS_Dm_Write
  56:Generated_Source\PSoC5/USBFS_Dm.c **** *******************************************************************************/
  57:Generated_Source\PSoC5/USBFS_Dm.c **** void USBFS_Dm_Write(uint8 value)
  58:Generated_Source\PSoC5/USBFS_Dm.c **** {
  28              		.loc 1 58 0
  29              		.cfi_startproc
  30              		@ args = 0, pretend = 0, frame = 16
  31              		@ frame_needed = 1, uses_anonymous_args = 0
  32              		@ link register save eliminated.
  33 0000 80B4     		push	{r7}
  34              		.cfi_def_cfa_offset 4
  35              		.cfi_offset 7, -4
  36 0002 85B0     		sub	sp, sp, #20
  37              		.cfi_def_cfa_offset 24
  38 0004 00AF     		add	r7, sp, #0
  39              		.cfi_def_cfa_register 7
  40 0006 0346     		mov	r3, r0
  41 0008 FB71     		strb	r3, [r7, #7]
  59:Generated_Source\PSoC5/USBFS_Dm.c ****     uint8 staticBits = (USBFS_Dm_DR & (uint8)(~USBFS_Dm_MASK));
  42              		.loc 1 59 0
  43 000a 094B     		ldr	r3, .L2
  44 000c 1B78     		ldrb	r3, [r3]
  45 000e DBB2     		uxtb	r3, r3
  46 0010 03F07F03 		and	r3, r3, #127
  47 0014 FB73     		strb	r3, [r7, #15]
  60:Generated_Source\PSoC5/USBFS_Dm.c ****     USBFS_Dm_DR = staticBits | ((uint8)(value << USBFS_Dm_SHIFT) & USBFS_Dm_MASK);
  48              		.loc 1 60 0
  49 0016 0649     		ldr	r1, .L2
  50 0018 FB79     		ldrb	r3, [r7, #7]
  51 001a DB01     		lsls	r3, r3, #7
  52 001c DAB2     		uxtb	r2, r3
  53 001e FB7B     		ldrb	r3, [r7, #15]
  54 0020 1343     		orrs	r3, r3, r2
ARM GAS  C:\Users\MANSRO~1\AppData\Local\Temp\cceflTt2.s 			page 3


  55 0022 DBB2     		uxtb	r3, r3
  56 0024 0B70     		strb	r3, [r1]
  61:Generated_Source\PSoC5/USBFS_Dm.c **** }
  57              		.loc 1 61 0
  58 0026 00BF     		nop
  59 0028 1437     		adds	r7, r7, #20
  60              		.cfi_def_cfa_offset 4
  61 002a BD46     		mov	sp, r7
  62              		.cfi_def_cfa_register 13
  63              		@ sp needed
  64 002c 80BC     		pop	{r7}
  65              		.cfi_restore 7
  66              		.cfi_def_cfa_offset 0
  67 002e 7047     		bx	lr
  68              	.L3:
  69              		.align	2
  70              	.L2:
  71 0030 F0510040 		.word	1073762800
  72              		.cfi_endproc
  73              	.LFE0:
  74              		.size	USBFS_Dm_Write, .-USBFS_Dm_Write
  75              		.section	.text.USBFS_Dm_SetDriveMode,"ax",%progbits
  76              		.align	2
  77              		.global	USBFS_Dm_SetDriveMode
  78              		.thumb
  79              		.thumb_func
  80              		.type	USBFS_Dm_SetDriveMode, %function
  81              	USBFS_Dm_SetDriveMode:
  82              	.LFB1:
  62:Generated_Source\PSoC5/USBFS_Dm.c **** 
  63:Generated_Source\PSoC5/USBFS_Dm.c **** 
  64:Generated_Source\PSoC5/USBFS_Dm.c **** /*******************************************************************************
  65:Generated_Source\PSoC5/USBFS_Dm.c **** * Function Name: USBFS_Dm_SetDriveMode
  66:Generated_Source\PSoC5/USBFS_Dm.c **** ****************************************************************************//**
  67:Generated_Source\PSoC5/USBFS_Dm.c **** *
  68:Generated_Source\PSoC5/USBFS_Dm.c **** * \brief Sets the drive mode for each of the Pins component's pins.
  69:Generated_Source\PSoC5/USBFS_Dm.c **** * 
  70:Generated_Source\PSoC5/USBFS_Dm.c **** * <b>Note</b> This affects all pins in the Pins component instance. Use the
  71:Generated_Source\PSoC5/USBFS_Dm.c **** * Per-Pin APIs if you wish to control individual pin's drive modes.
  72:Generated_Source\PSoC5/USBFS_Dm.c **** *
  73:Generated_Source\PSoC5/USBFS_Dm.c **** * \param mode
  74:Generated_Source\PSoC5/USBFS_Dm.c **** *  Mode for the selected signals. Valid options are documented in 
  75:Generated_Source\PSoC5/USBFS_Dm.c **** *  \ref driveMode.
  76:Generated_Source\PSoC5/USBFS_Dm.c **** *
  77:Generated_Source\PSoC5/USBFS_Dm.c **** * \return
  78:Generated_Source\PSoC5/USBFS_Dm.c **** *  None
  79:Generated_Source\PSoC5/USBFS_Dm.c **** *
  80:Generated_Source\PSoC5/USBFS_Dm.c **** * \sideeffect
  81:Generated_Source\PSoC5/USBFS_Dm.c **** *  If you use read-modify-write operations that are not atomic, the ISR can
  82:Generated_Source\PSoC5/USBFS_Dm.c **** *  cause corruption of this function. An ISR that interrupts this function 
  83:Generated_Source\PSoC5/USBFS_Dm.c **** *  and performs writes to the Pins component Drive Mode registers can cause 
  84:Generated_Source\PSoC5/USBFS_Dm.c **** *  corrupted port data. To avoid this issue, you should either use the Per-Pin
  85:Generated_Source\PSoC5/USBFS_Dm.c **** *  APIs (primary method) or disable interrupts around this function.
  86:Generated_Source\PSoC5/USBFS_Dm.c **** *
  87:Generated_Source\PSoC5/USBFS_Dm.c **** * \funcusage
  88:Generated_Source\PSoC5/USBFS_Dm.c **** *  \snippet USBFS_Dm_SUT.c usage_USBFS_Dm_SetDriveMode
  89:Generated_Source\PSoC5/USBFS_Dm.c **** *******************************************************************************/
ARM GAS  C:\Users\MANSRO~1\AppData\Local\Temp\cceflTt2.s 			page 4


  90:Generated_Source\PSoC5/USBFS_Dm.c **** void USBFS_Dm_SetDriveMode(uint8 mode)
  91:Generated_Source\PSoC5/USBFS_Dm.c **** {
  83              		.loc 1 91 0
  84              		.cfi_startproc
  85              		@ args = 0, pretend = 0, frame = 8
  86              		@ frame_needed = 1, uses_anonymous_args = 0
  87              		@ link register save eliminated.
  88 0000 80B4     		push	{r7}
  89              		.cfi_def_cfa_offset 4
  90              		.cfi_offset 7, -4
  91 0002 83B0     		sub	sp, sp, #12
  92              		.cfi_def_cfa_offset 16
  93 0004 00AF     		add	r7, sp, #0
  94              		.cfi_def_cfa_register 7
  95 0006 0346     		mov	r3, r0
  96 0008 FB71     		strb	r3, [r7, #7]
  92:Generated_Source\PSoC5/USBFS_Dm.c **** 	CyPins_SetPinDriveMode(USBFS_Dm_0, mode);
  97              		.loc 1 92 0
  98 000a 0B49     		ldr	r1, .L5
  99 000c 0A4B     		ldr	r3, .L5
 100 000e 1B78     		ldrb	r3, [r3]
 101 0010 DBB2     		uxtb	r3, r3
 102 0012 5BB2     		sxtb	r3, r3
 103 0014 23F00E03 		bic	r3, r3, #14
 104 0018 5AB2     		sxtb	r2, r3
 105 001a 97F90730 		ldrsb	r3, [r7, #7]
 106 001e 03F00E03 		and	r3, r3, #14
 107 0022 5BB2     		sxtb	r3, r3
 108 0024 1343     		orrs	r3, r3, r2
 109 0026 5BB2     		sxtb	r3, r3
 110 0028 DBB2     		uxtb	r3, r3
 111 002a 0B70     		strb	r3, [r1]
  93:Generated_Source\PSoC5/USBFS_Dm.c **** }
 112              		.loc 1 93 0
 113 002c 00BF     		nop
 114 002e 0C37     		adds	r7, r7, #12
 115              		.cfi_def_cfa_offset 4
 116 0030 BD46     		mov	sp, r7
 117              		.cfi_def_cfa_register 13
 118              		@ sp needed
 119 0032 80BC     		pop	{r7}
 120              		.cfi_restore 7
 121              		.cfi_def_cfa_offset 0
 122 0034 7047     		bx	lr
 123              	.L6:
 124 0036 00BF     		.align	2
 125              	.L5:
 126 0038 7F500040 		.word	1073762431
 127              		.cfi_endproc
 128              	.LFE1:
 129              		.size	USBFS_Dm_SetDriveMode, .-USBFS_Dm_SetDriveMode
 130              		.section	.text.USBFS_Dm_Read,"ax",%progbits
 131              		.align	2
 132              		.global	USBFS_Dm_Read
 133              		.thumb
 134              		.thumb_func
 135              		.type	USBFS_Dm_Read, %function
ARM GAS  C:\Users\MANSRO~1\AppData\Local\Temp\cceflTt2.s 			page 5


 136              	USBFS_Dm_Read:
 137              	.LFB2:
  94:Generated_Source\PSoC5/USBFS_Dm.c **** 
  95:Generated_Source\PSoC5/USBFS_Dm.c **** 
  96:Generated_Source\PSoC5/USBFS_Dm.c **** /*******************************************************************************
  97:Generated_Source\PSoC5/USBFS_Dm.c **** * Function Name: USBFS_Dm_Read
  98:Generated_Source\PSoC5/USBFS_Dm.c **** ****************************************************************************//**
  99:Generated_Source\PSoC5/USBFS_Dm.c **** *
 100:Generated_Source\PSoC5/USBFS_Dm.c **** * \brief Reads the associated physical port (pin status register) and masks 
 101:Generated_Source\PSoC5/USBFS_Dm.c **** *  the required bits according to the width and bit position of the component
 102:Generated_Source\PSoC5/USBFS_Dm.c **** *  instance. 
 103:Generated_Source\PSoC5/USBFS_Dm.c **** *
 104:Generated_Source\PSoC5/USBFS_Dm.c **** * The pin's status register returns the current logic level present on the 
 105:Generated_Source\PSoC5/USBFS_Dm.c **** * physical pin.
 106:Generated_Source\PSoC5/USBFS_Dm.c **** *
 107:Generated_Source\PSoC5/USBFS_Dm.c **** * \return 
 108:Generated_Source\PSoC5/USBFS_Dm.c **** *  The current value for the pins in the component as a right justified number.
 109:Generated_Source\PSoC5/USBFS_Dm.c **** *
 110:Generated_Source\PSoC5/USBFS_Dm.c **** * \funcusage
 111:Generated_Source\PSoC5/USBFS_Dm.c **** *  \snippet USBFS_Dm_SUT.c usage_USBFS_Dm_Read  
 112:Generated_Source\PSoC5/USBFS_Dm.c **** *******************************************************************************/
 113:Generated_Source\PSoC5/USBFS_Dm.c **** uint8 USBFS_Dm_Read(void)
 114:Generated_Source\PSoC5/USBFS_Dm.c **** {
 138              		.loc 1 114 0
 139              		.cfi_startproc
 140              		@ args = 0, pretend = 0, frame = 0
 141              		@ frame_needed = 1, uses_anonymous_args = 0
 142              		@ link register save eliminated.
 143 0000 80B4     		push	{r7}
 144              		.cfi_def_cfa_offset 4
 145              		.cfi_offset 7, -4
 146 0002 00AF     		add	r7, sp, #0
 147              		.cfi_def_cfa_register 7
 115:Generated_Source\PSoC5/USBFS_Dm.c ****     return (USBFS_Dm_PS & USBFS_Dm_MASK) >> USBFS_Dm_SHIFT;
 148              		.loc 1 115 0
 149 0004 054B     		ldr	r3, .L9
 150 0006 1B78     		ldrb	r3, [r3]
 151 0008 DBB2     		uxtb	r3, r3
 152 000a 03F08003 		and	r3, r3, #128
 153 000e DB09     		lsrs	r3, r3, #7
 154 0010 DBB2     		uxtb	r3, r3
 116:Generated_Source\PSoC5/USBFS_Dm.c **** }
 155              		.loc 1 116 0
 156 0012 1846     		mov	r0, r3
 157 0014 BD46     		mov	sp, r7
 158              		.cfi_def_cfa_register 13
 159              		@ sp needed
 160 0016 80BC     		pop	{r7}
 161              		.cfi_restore 7
 162              		.cfi_def_cfa_offset 0
 163 0018 7047     		bx	lr
 164              	.L10:
 165 001a 00BF     		.align	2
 166              	.L9:
 167 001c F1510040 		.word	1073762801
 168              		.cfi_endproc
 169              	.LFE2:
ARM GAS  C:\Users\MANSRO~1\AppData\Local\Temp\cceflTt2.s 			page 6


 170              		.size	USBFS_Dm_Read, .-USBFS_Dm_Read
 171              		.section	.text.USBFS_Dm_ReadDataReg,"ax",%progbits
 172              		.align	2
 173              		.global	USBFS_Dm_ReadDataReg
 174              		.thumb
 175              		.thumb_func
 176              		.type	USBFS_Dm_ReadDataReg, %function
 177              	USBFS_Dm_ReadDataReg:
 178              	.LFB3:
 117:Generated_Source\PSoC5/USBFS_Dm.c **** 
 118:Generated_Source\PSoC5/USBFS_Dm.c **** 
 119:Generated_Source\PSoC5/USBFS_Dm.c **** /*******************************************************************************
 120:Generated_Source\PSoC5/USBFS_Dm.c **** * Function Name: USBFS_Dm_ReadDataReg
 121:Generated_Source\PSoC5/USBFS_Dm.c **** ****************************************************************************//**
 122:Generated_Source\PSoC5/USBFS_Dm.c **** *
 123:Generated_Source\PSoC5/USBFS_Dm.c **** * \brief Reads the associated physical port's data output register and masks 
 124:Generated_Source\PSoC5/USBFS_Dm.c **** *  the correct bits according to the width and bit position of the component 
 125:Generated_Source\PSoC5/USBFS_Dm.c **** *  instance. 
 126:Generated_Source\PSoC5/USBFS_Dm.c **** *
 127:Generated_Source\PSoC5/USBFS_Dm.c **** * The data output register controls the signal applied to the physical pin in 
 128:Generated_Source\PSoC5/USBFS_Dm.c **** * conjunction with the drive mode parameter. This is not the same as the 
 129:Generated_Source\PSoC5/USBFS_Dm.c **** * preferred USBFS_Dm_Read() API because the 
 130:Generated_Source\PSoC5/USBFS_Dm.c **** * USBFS_Dm_ReadDataReg() reads the data register instead of the status 
 131:Generated_Source\PSoC5/USBFS_Dm.c **** * register. For output pins this is a useful function to determine the value 
 132:Generated_Source\PSoC5/USBFS_Dm.c **** * just written to the pin.
 133:Generated_Source\PSoC5/USBFS_Dm.c **** *
 134:Generated_Source\PSoC5/USBFS_Dm.c **** * \return 
 135:Generated_Source\PSoC5/USBFS_Dm.c **** *  The current value of the data register masked and shifted into a right 
 136:Generated_Source\PSoC5/USBFS_Dm.c **** *  justified number for the component instance.
 137:Generated_Source\PSoC5/USBFS_Dm.c **** *
 138:Generated_Source\PSoC5/USBFS_Dm.c **** * \funcusage
 139:Generated_Source\PSoC5/USBFS_Dm.c **** *  \snippet USBFS_Dm_SUT.c usage_USBFS_Dm_ReadDataReg 
 140:Generated_Source\PSoC5/USBFS_Dm.c **** *******************************************************************************/
 141:Generated_Source\PSoC5/USBFS_Dm.c **** uint8 USBFS_Dm_ReadDataReg(void)
 142:Generated_Source\PSoC5/USBFS_Dm.c **** {
 179              		.loc 1 142 0
 180              		.cfi_startproc
 181              		@ args = 0, pretend = 0, frame = 0
 182              		@ frame_needed = 1, uses_anonymous_args = 0
 183              		@ link register save eliminated.
 184 0000 80B4     		push	{r7}
 185              		.cfi_def_cfa_offset 4
 186              		.cfi_offset 7, -4
 187 0002 00AF     		add	r7, sp, #0
 188              		.cfi_def_cfa_register 7
 143:Generated_Source\PSoC5/USBFS_Dm.c ****     return (USBFS_Dm_DR & USBFS_Dm_MASK) >> USBFS_Dm_SHIFT;
 189              		.loc 1 143 0
 190 0004 054B     		ldr	r3, .L13
 191 0006 1B78     		ldrb	r3, [r3]
 192 0008 DBB2     		uxtb	r3, r3
 193 000a 03F08003 		and	r3, r3, #128
 194 000e DB09     		lsrs	r3, r3, #7
 195 0010 DBB2     		uxtb	r3, r3
 144:Generated_Source\PSoC5/USBFS_Dm.c **** }
 196              		.loc 1 144 0
 197 0012 1846     		mov	r0, r3
 198 0014 BD46     		mov	sp, r7
ARM GAS  C:\Users\MANSRO~1\AppData\Local\Temp\cceflTt2.s 			page 7


 199              		.cfi_def_cfa_register 13
 200              		@ sp needed
 201 0016 80BC     		pop	{r7}
 202              		.cfi_restore 7
 203              		.cfi_def_cfa_offset 0
 204 0018 7047     		bx	lr
 205              	.L14:
 206 001a 00BF     		.align	2
 207              	.L13:
 208 001c F0510040 		.word	1073762800
 209              		.cfi_endproc
 210              	.LFE3:
 211              		.size	USBFS_Dm_ReadDataReg, .-USBFS_Dm_ReadDataReg
 212              		.text
 213              	.Letext0:
 214              		.file 2 "Generated_Source\\PSoC5\\cytypes.h"
